{
	"main.sol": {
		"CHAINLINK": {
			"abi": [
				{
					"inputs": [],
					"stateMutability": "nonpayable",
					"type": "constructor"
				},
				{
					"anonymous": false,
					"inputs": [
						{
							"indexed": true,
							"internalType": "uint256",
							"name": "requestID",
							"type": "uint256"
						},
						{
							"indexed": false,
							"internalType": "string",
							"name": "url",
							"type": "string"
						},
						{
							"indexed": false,
							"internalType": "uint256",
							"name": "fee",
							"type": "uint256"
						}
					],
					"name": "oracleRequestEvent",
					"type": "event"
				},
				{
					"anonymous": false,
					"inputs": [
						{
							"indexed": true,
							"internalType": "uint256",
							"name": "requestID",
							"type": "uint256"
						},
						{
							"indexed": false,
							"internalType": "string",
							"name": "result",
							"type": "string"
						},
						{
							"indexed": false,
							"internalType": "uint256",
							"name": "nodeID",
							"type": "uint256"
						}
					],
					"name": "requestFulfulledEvent",
					"type": "event"
				},
				{
					"inputs": [],
					"name": "DEDUCE_PRICE",
					"outputs": [
						{
							"internalType": "uint256",
							"name": "",
							"type": "uint256"
						}
					],
					"stateMutability": "view",
					"type": "function"
				},
				{
					"inputs": [],
					"name": "LIMIT_FEE_PRICE",
					"outputs": [
						{
							"internalType": "uint256",
							"name": "",
							"type": "uint256"
						}
					],
					"stateMutability": "view",
					"type": "function"
				},
				{
					"inputs": [],
					"name": "LIMIT_STAKE_NUM",
					"outputs": [
						{
							"internalType": "uint256",
							"name": "",
							"type": "uint256"
						}
					],
					"stateMutability": "view",
					"type": "function"
				},
				{
					"inputs": [
						{
							"internalType": "uint256",
							"name": "id",
							"type": "uint256"
						},
						{
							"internalType": "uint256",
							"name": "result",
							"type": "uint256"
						}
					],
					"name": "fufillReqEvent",
					"outputs": [
						{
							"internalType": "uint256",
							"name": "",
							"type": "uint256"
						},
						{
							"internalType": "bool",
							"name": "",
							"type": "bool"
						}
					],
					"stateMutability": "nonpayable",
					"type": "function"
				},
				{
					"inputs": [
						{
							"internalType": "address",
							"name": "",
							"type": "address"
						}
					],
					"name": "nodeStackBalance",
					"outputs": [
						{
							"internalType": "uint256",
							"name": "",
							"type": "uint256"
						}
					],
					"stateMutability": "view",
					"type": "function"
				},
				{
					"inputs": [
						{
							"internalType": "uint256",
							"name": "",
							"type": "uint256"
						}
					],
					"name": "oracleAddressList",
					"outputs": [
						{
							"internalType": "address",
							"name": "",
							"type": "address"
						}
					],
					"stateMutability": "view",
					"type": "function"
				},
				{
					"inputs": [],
					"name": "registerOracleNode",
					"outputs": [
						{
							"internalType": "bool",
							"name": "",
							"type": "bool"
						}
					],
					"stateMutability": "nonpayable",
					"type": "function"
				},
				{
					"inputs": [
						{
							"internalType": "string",
							"name": "url",
							"type": "string"
						},
						{
							"internalType": "uint256",
							"name": "fee",
							"type": "uint256"
						}
					],
					"name": "requestForMsg",
					"outputs": [
						{
							"internalType": "bool",
							"name": "",
							"type": "bool"
						}
					],
					"stateMutability": "nonpayable",
					"type": "function"
				},
				{
					"inputs": [],
					"name": "totalRequestNum",
					"outputs": [
						{
							"internalType": "uint256",
							"name": "",
							"type": "uint256"
						}
					],
					"stateMutability": "view",
					"type": "function"
				}
			],
			"devdoc": {
				"kind": "dev",
				"methods": {},
				"version": 1
			},
			"evm": {
				"assembly": "    /* \"main.sol\":152:5437  contract CHAINLINK {... */\n  mstore(0x40, 0x80)\n    /* \"main.sol\":892:988  constructor() {... */\n  callvalue\n  dup1\n  iszero\n  tag_1\n  jumpi\n  revert(0x00, 0x00)\ntag_1:\n  pop\n    /* \"main.sol\":934:935  0 */\n  0x00\n    /* \"main.sol\":916:931  totalRequestNum */\n  0x01\n    /* \"main.sol\":916:935  totalRequestNum = 0 */\n  dup2\n  swap1\n  sstore\n  pop\n    /* \"main.sol\":979:980  0 */\n  0x00\n    /* \"main.sol\":965:981  new address[](0) */\n  0xffffffffffffffff\n  dup2\n  gt\n  iszero\n  tag_4\n  jumpi\n  tag_5\n  tag_6\n  jump\t// in\ntag_5:\ntag_4:\n  mload(0x40)\n  swap1\n  dup1\n  dup3\n  mstore\n  dup1\n  0x20\n  mul\n  0x20\n  add\n  dup3\n  add\n  0x40\n  mstore\n  dup1\n  iszero\n  tag_7\n  jumpi\n  dup2\n  0x20\n  add\n  0x20\n  dup3\n  mul\n  dup1\n  calldatasize\n  dup4\n  calldatacopy\n  dup1\n  dup3\n  add\n  swap2\n  pop\n  pop\n  swap1\n  pop\ntag_7:\n  pop\n    /* \"main.sol\":945:962  oracleAddressList */\n  0x00\n    /* \"main.sol\":945:981  oracleAddressList = new address[](0) */\n  swap1\n  dup1\n  mload\n  swap1\n  0x20\n  add\n  swap1\n  tag_8\n  swap3\n  swap2\n  swap1\n  tag_9\n  jump\t// in\ntag_8:\n  pop\n    /* \"main.sol\":152:5437  contract CHAINLINK {... */\n  jump(tag_10)\ntag_9:\n  dup3\n  dup1\n  sload\n  dup3\n  dup3\n  sstore\n  swap1\n  0x00\n  mstore\n  keccak256(0x00, 0x20)\n  swap1\n  dup2\n  add\n  swap3\n  dup3\n  iszero\n  tag_11\n  jumpi\n  swap2\n  0x20\n  mul\n  dup3\n  add\ntag_12:\n  dup3\n  dup2\n  gt\n  iszero\n  tag_13\n  jumpi\n  dup3\n  mload\n  dup3\n  exp(0x0100, 0x00)\n  dup2\n  sload\n  dup2\n  0xffffffffffffffffffffffffffffffffffffffff\n  mul\n  not\n  and\n  swap1\n  dup4\n  0xffffffffffffffffffffffffffffffffffffffff\n  and\n  mul\n  or\n  swap1\n  sstore\n  pop\n  swap2\n  0x20\n  add\n  swap2\n  swap1\n  0x01\n  add\n  swap1\n  jump(tag_12)\ntag_13:\ntag_11:\n  pop\n  swap1\n  pop\n  tag_14\n  swap2\n  swap1\n  tag_15\n  jump\t// in\ntag_14:\n  pop\n  swap1\n  jump\t// out\ntag_15:\ntag_16:\n  dup1\n  dup3\n  gt\n  iszero\n  tag_17\n  jumpi\n  0x00\n  dup2\n  0x00\n  swap1\n  sstore\n  pop\n  0x01\n  add\n  jump(tag_16)\ntag_17:\n  pop\n  swap1\n  jump\t// out\n    /* \"#utility.yul\":7:187   */\ntag_6:\n    /* \"#utility.yul\":55:132   */\n  0x4e487b7100000000000000000000000000000000000000000000000000000000\n    /* \"#utility.yul\":52:53   */\n  0x00\n    /* \"#utility.yul\":45:133   */\n  mstore\n    /* \"#utility.yul\":152:156   */\n  0x41\n    /* \"#utility.yul\":149:150   */\n  0x04\n    /* \"#utility.yul\":142:157   */\n  mstore\n    /* \"#utility.yul\":176:180   */\n  0x24\n    /* \"#utility.yul\":173:174   */\n  0x00\n    /* \"#utility.yul\":166:181   */\n  revert\n    /* \"main.sol\":152:5437  contract CHAINLINK {... */\ntag_10:\n  dataSize(sub_0)\n  dup1\n  dataOffset(sub_0)\n  0x00\n  codecopy\n  0x00\n  return\nstop\n\nsub_0: assembly {\n        /* \"main.sol\":152:5437  contract CHAINLINK {... */\n      mstore(0x40, 0x80)\n      callvalue\n      dup1\n      iszero\n      tag_1\n      jumpi\n      revert(0x00, 0x00)\n    tag_1:\n      pop\n      jumpi(tag_2, lt(calldatasize, 0x04))\n      shr(0xe0, calldataload(0x00))\n      dup1\n      0x803863fb\n      gt\n      tag_12\n      jumpi\n      dup1\n      0x803863fb\n      eq\n      tag_7\n      jumpi\n      dup1\n      0x8457a66a\n      eq\n      tag_8\n      jumpi\n      dup1\n      0xbb33ce71\n      eq\n      tag_9\n      jumpi\n      dup1\n      0xc4cdb575\n      eq\n      tag_10\n      jumpi\n      dup1\n      0xe92626ae\n      eq\n      tag_11\n      jumpi\n      jump(tag_2)\n    tag_12:\n      dup1\n      0x22a51c29\n      eq\n      tag_3\n      jumpi\n      dup1\n      0x22d616d2\n      eq\n      tag_4\n      jumpi\n      dup1\n      0x3210243e\n      eq\n      tag_5\n      jumpi\n      dup1\n      0x49d26921\n      eq\n      tag_6\n      jumpi\n    tag_2:\n      revert(0x00, 0x00)\n        /* \"main.sol\":844:885  uint256 public constant DEDUCE_PRICE = 40 */\n    tag_3:\n      tag_13\n      tag_14\n      jump\t// in\n    tag_13:\n      mload(0x40)\n      tag_15\n      swap2\n      swap1\n      tag_16\n      jump\t// in\n    tag_15:\n      mload(0x40)\n      dup1\n      swap2\n      sub\n      swap1\n      return\n        /* \"main.sol\":3997:5435  function fufillReqEvent(uint256 id, uint256 result) public returns (uint256, bool) {... */\n    tag_4:\n      tag_17\n      0x04\n      dup1\n      calldatasize\n      sub\n      dup2\n      add\n      swap1\n      tag_18\n      swap2\n      swap1\n      tag_19\n      jump\t// in\n    tag_18:\n      tag_20\n      jump\t// in\n    tag_17:\n      mload(0x40)\n      tag_21\n      swap3\n      swap2\n      swap1\n      tag_22\n      jump\t// in\n    tag_21:\n      mload(0x40)\n      dup1\n      swap2\n      sub\n      swap1\n      return\n        /* \"main.sol\":744:788  uint256 public constant LIMIT_STAKE_NUM = 80 */\n    tag_5:\n      tag_23\n      tag_24\n      jump\t// in\n    tag_23:\n      mload(0x40)\n      tag_25\n      swap2\n      swap1\n      tag_16\n      jump\t// in\n    tag_25:\n      mload(0x40)\n      dup1\n      swap2\n      sub\n      swap1\n      return\n        /* \"main.sol\":637:688  mapping(address => uint256) public nodeStackBalance */\n    tag_6:\n      tag_26\n      0x04\n      dup1\n      calldatasize\n      sub\n      dup2\n      add\n      swap1\n      tag_27\n      swap2\n      swap1\n      tag_28\n      jump\t// in\n    tag_27:\n      tag_29\n      jump\t// in\n    tag_26:\n      mload(0x40)\n      tag_30\n      swap2\n      swap1\n      tag_16\n      jump\t// in\n    tag_30:\n      mload(0x40)\n      dup1\n      swap2\n      sub\n      swap1\n      return\n        /* \"main.sol\":600:630  uint256 public totalRequestNum */\n    tag_7:\n      tag_31\n      tag_32\n      jump\t// in\n    tag_31:\n      mload(0x40)\n      tag_33\n      swap2\n      swap1\n      tag_16\n      jump\t// in\n    tag_33:\n      mload(0x40)\n      dup1\n      swap2\n      sub\n      swap1\n      return\n        /* \"main.sol\":560:594  address[] public oracleAddressList */\n    tag_8:\n      tag_34\n      0x04\n      dup1\n      calldatasize\n      sub\n      dup2\n      add\n      swap1\n      tag_35\n      swap2\n      swap1\n      tag_36\n      jump\t// in\n    tag_35:\n      tag_37\n      jump\t// in\n    tag_34:\n      mload(0x40)\n      tag_38\n      swap2\n      swap1\n      tag_39\n      jump\t// in\n    tag_38:\n      mload(0x40)\n      dup1\n      swap2\n      sub\n      swap1\n      return\n        /* \"main.sol\":1029:1418  function registerOracleNode() public returns (bool) {... */\n    tag_9:\n      tag_40\n      tag_41\n      jump\t// in\n    tag_40:\n      mload(0x40)\n      tag_42\n      swap2\n      swap1\n      tag_43\n      jump\t// in\n    tag_42:\n      mload(0x40)\n      dup1\n      swap2\n      sub\n      swap1\n      return\n        /* \"main.sol\":1453:2109  function requestForMsg(string memory url, uint256 fee) public returns (bool) {... */\n    tag_10:\n      tag_44\n      0x04\n      dup1\n      calldatasize\n      sub\n      dup2\n      add\n      swap1\n      tag_45\n      swap2\n      swap1\n      tag_46\n      jump\t// in\n    tag_45:\n      tag_47\n      jump\t// in\n    tag_44:\n      mload(0x40)\n      tag_48\n      swap2\n      swap1\n      tag_43\n      jump\t// in\n    tag_48:\n      mload(0x40)\n      dup1\n      swap2\n      sub\n      swap1\n      return\n        /* \"main.sol\":794:838  uint256 public constant LIMIT_FEE_PRICE = 10 */\n    tag_11:\n      tag_49\n      tag_50\n      jump\t// in\n    tag_49:\n      mload(0x40)\n      tag_51\n      swap2\n      swap1\n      tag_16\n      jump\t// in\n    tag_51:\n      mload(0x40)\n      dup1\n      swap2\n      sub\n      swap1\n      return\n        /* \"main.sol\":844:885  uint256 public constant DEDUCE_PRICE = 40 */\n    tag_14:\n        /* \"main.sol\":883:885  40 */\n      0x28\n        /* \"main.sol\":844:885  uint256 public constant DEDUCE_PRICE = 40 */\n      dup2\n      jump\t// out\n        /* \"main.sol\":3997:5435  function fufillReqEvent(uint256 id, uint256 result) public returns (uint256, bool) {... */\n    tag_20:\n        /* \"main.sol\":4065:4072  uint256 */\n      0x00\n        /* \"main.sol\":4074:4078  bool */\n      0x00\n        /* \"main.sol\":4094:4121  isInReqList(id, msg.sender) */\n      tag_53\n        /* \"main.sol\":4106:4108  id */\n      dup5\n        /* \"main.sol\":4110:4120  msg.sender */\n      caller\n        /* \"main.sol\":4094:4105  isInReqList */\n      tag_54\n        /* \"main.sol\":4094:4121  isInReqList(id, msg.sender) */\n      jump\t// in\n    tag_53:\n        /* \"main.sol\":4090:4165  if (isInReqList(id, msg.sender)) {... */\n      iszero\n      tag_55\n      jumpi\n        /* \"main.sol\":4145:4146  0 */\n      0x00\n        /* \"main.sol\":4148:4153  false */\n      0x00\n        /* \"main.sol\":4137:4154  return (0, false) */\n      swap2\n      pop\n      swap2\n      pop\n      jump(tag_52)\n        /* \"main.sol\":4090:4165  if (isInReqList(id, msg.sender)) {... */\n    tag_55:\n        /* \"main.sol\":4174:4185  uint256 num */\n      0x00\n        /* \"main.sol\":4188:4199  requestList */\n      0x03\n        /* \"main.sol\":4188:4203  requestList[id] */\n      0x00\n        /* \"main.sol\":4200:4202  id */\n      dup7\n        /* \"main.sol\":4188:4203  requestList[id] */\n      dup2\n      mstore\n      0x20\n      add\n      swap1\n      dup2\n      mstore\n      0x20\n      add\n      0x00\n      keccak256\n        /* \"main.sol\":4188:4212  requestList[id].givenNum */\n      0x06\n      add\n      sload\n        /* \"main.sol\":4174:4212  uint256 num = requestList[id].givenNum */\n      swap1\n      pop\n        /* \"main.sol\":4255:4261  result */\n      dup4\n        /* \"main.sol\":4222:4233  requestList */\n      0x03\n        /* \"main.sol\":4222:4237  requestList[id] */\n      0x00\n        /* \"main.sol\":4234:4236  id */\n      dup8\n        /* \"main.sol\":4222:4237  requestList[id] */\n      dup2\n      mstore\n      0x20\n      add\n      swap1\n      dup2\n      mstore\n      0x20\n      add\n      0x00\n      keccak256\n        /* \"main.sol\":4222:4247  requestList[id].searchRes */\n      0x04\n      add\n        /* \"main.sol\":4248:4251  num */\n      dup3\n        /* \"main.sol\":4222:4252  requestList[id].searchRes[num] */\n      dup2\n      sload\n      dup2\n      lt\n      tag_56\n      jumpi\n      tag_57\n      tag_58\n      jump\t// in\n    tag_57:\n    tag_56:\n      swap1\n      0x00\n      mstore\n      keccak256(0x00, 0x20)\n      add\n        /* \"main.sol\":4222:4261  requestList[id].searchRes[num] = result */\n      dup2\n      swap1\n      sstore\n      pop\n        /* \"main.sol\":4309:4319  msg.sender */\n      caller\n        /* \"main.sol\":4271:4282  requestList */\n      0x03\n        /* \"main.sol\":4271:4286  requestList[id] */\n      0x00\n        /* \"main.sol\":4283:4285  id */\n      dup8\n        /* \"main.sol\":4271:4286  requestList[id] */\n      dup2\n      mstore\n      0x20\n      add\n      swap1\n      dup2\n      mstore\n      0x20\n      add\n      0x00\n      keccak256\n        /* \"main.sol\":4271:4301  requestList[id].resOracleNodes */\n      0x05\n      add\n        /* \"main.sol\":4302:4305  num */\n      dup3\n        /* \"main.sol\":4271:4306  requestList[id].resOracleNodes[num] */\n      dup2\n      sload\n      dup2\n      lt\n      tag_60\n      jumpi\n      tag_61\n      tag_58\n      jump\t// in\n    tag_61:\n    tag_60:\n      swap1\n      0x00\n      mstore\n      keccak256(0x00, 0x20)\n      add\n      0x00\n        /* \"main.sol\":4271:4319  requestList[id].resOracleNodes[num] = msg.sender */\n      0x0100\n      exp\n      dup2\n      sload\n      dup2\n      0xffffffffffffffffffffffffffffffffffffffff\n      mul\n      not\n      and\n      swap1\n      dup4\n      0xffffffffffffffffffffffffffffffffffffffff\n      and\n      mul\n      or\n      swap1\n      sstore\n      pop\n        /* \"main.sol\":4329:4340  requestList */\n      0x03\n        /* \"main.sol\":4329:4344  requestList[id] */\n      0x00\n        /* \"main.sol\":4341:4343  id */\n      dup7\n        /* \"main.sol\":4329:4344  requestList[id] */\n      dup2\n      mstore\n      0x20\n      add\n      swap1\n      dup2\n      mstore\n      0x20\n      add\n      0x00\n      keccak256\n        /* \"main.sol\":4329:4353  requestList[id].givenNum */\n      0x06\n      add\n      0x00\n        /* \"main.sol\":4329:4355  requestList[id].givenNum++ */\n      dup2\n      sload\n      dup1\n      swap3\n      swap2\n      swap1\n      tag_63\n      swap1\n      tag_64\n      jump\t// in\n    tag_63:\n      swap2\n      swap1\n      pop\n      sstore\n      pop\n        /* \"main.sol\":4484:4501  oracleAddressList */\n      0x00\n        /* \"main.sol\":4484:4508  oracleAddressList.length */\n      dup1\n      sload\n      swap1\n      pop\n        /* \"main.sol\":4480:4481  2 */\n      0x02\n        /* \"main.sol\":4480:4508  2 * oracleAddressList.length */\n      tag_65\n      swap2\n      swap1\n      tag_66\n      jump\t// in\n    tag_65:\n        /* \"main.sol\":4475:4476  3 */\n      0x03\n        /* \"main.sol\":4448:4459  requestList */\n      dup1\n        /* \"main.sol\":4448:4463  requestList[id] */\n      0x00\n        /* \"main.sol\":4460:4462  id */\n      dup9\n        /* \"main.sol\":4448:4463  requestList[id] */\n      dup2\n      mstore\n      0x20\n      add\n      swap1\n      dup2\n      mstore\n      0x20\n      add\n      0x00\n      keccak256\n        /* \"main.sol\":4448:4472  requestList[id].givenNum */\n      0x06\n      add\n      sload\n        /* \"main.sol\":4448:4476  requestList[id].givenNum * 3 */\n      tag_67\n      swap2\n      swap1\n      tag_66\n      jump\t// in\n    tag_67:\n        /* \"main.sol\":4448:4508  requestList[id].givenNum * 3 >= 2 * oracleAddressList.length */\n      lt\n        /* \"main.sol\":4444:5402  if (requestList[id].givenNum * 3 >= 2 * oracleAddressList.length) {... */\n      tag_68\n      jumpi\n        /* \"main.sol\":4524:4544  uint256 final_result */\n      0x00\n        /* \"main.sol\":4547:4548  0 */\n      0x00\n        /* \"main.sol\":4524:4548  uint256 final_result = 0 */\n      swap1\n      pop\n        /* \"main.sol\":4562:4580  uint256 square_sum */\n      0x00\n        /* \"main.sol\":4583:4584  0 */\n      0x00\n        /* \"main.sol\":4562:4584  uint256 square_sum = 0 */\n      swap1\n      pop\n        /* \"main.sol\":4603:4616  uint256 index */\n      0x00\n        /* \"main.sol\":4619:4620  0 */\n      0x00\n        /* \"main.sol\":4603:4620  uint256 index = 0 */\n      swap1\n      pop\n        /* \"main.sol\":4598:4986  for (uint256 index = 0; index < requestList[id].givenNum; index++) {... */\n    tag_69:\n        /* \"main.sol\":4630:4641  requestList */\n      0x03\n        /* \"main.sol\":4630:4645  requestList[id] */\n      0x00\n        /* \"main.sol\":4642:4644  id */\n      dup10\n        /* \"main.sol\":4630:4645  requestList[id] */\n      dup2\n      mstore\n      0x20\n      add\n      swap1\n      dup2\n      mstore\n      0x20\n      add\n      0x00\n      keccak256\n        /* \"main.sol\":4630:4654  requestList[id].givenNum */\n      0x06\n      add\n      sload\n        /* \"main.sol\":4622:4627  index */\n      dup2\n        /* \"main.sol\":4622:4654  index < requestList[id].givenNum */\n      lt\n        /* \"main.sol\":4598:4986  for (uint256 index = 0; index < requestList[id].givenNum; index++) {... */\n      iszero\n      tag_70\n      jumpi\n        /* \"main.sol\":4683:4700  address node_name */\n      0x00\n        /* \"main.sol\":4703:4714  requestList */\n      0x03\n        /* \"main.sol\":4703:4718  requestList[id] */\n      0x00\n        /* \"main.sol\":4715:4717  id */\n      dup11\n        /* \"main.sol\":4703:4718  requestList[id] */\n      dup2\n      mstore\n      0x20\n      add\n      swap1\n      dup2\n      mstore\n      0x20\n      add\n      0x00\n      keccak256\n        /* \"main.sol\":4703:4733  requestList[id].resOracleNodes */\n      0x05\n      add\n        /* \"main.sol\":4734:4739  index */\n      dup3\n        /* \"main.sol\":4703:4740  requestList[id].resOracleNodes[index] */\n      dup2\n      sload\n      dup2\n      lt\n      tag_72\n      jumpi\n      tag_73\n      tag_58\n      jump\t// in\n    tag_73:\n    tag_72:\n      swap1\n      0x00\n      mstore\n      keccak256(0x00, 0x20)\n      add\n      0x00\n      swap1\n      sload\n      swap1\n      0x0100\n      exp\n      swap1\n      div\n      0xffffffffffffffffffffffffffffffffffffffff\n      and\n        /* \"main.sol\":4683:4740  address node_name = requestList[id].resOracleNodes[index] */\n      swap1\n      pop\n        /* \"main.sol\":4814:4825  requestList */\n      0x03\n        /* \"main.sol\":4814:4829  requestList[id] */\n      0x00\n        /* \"main.sol\":4826:4828  id */\n      dup11\n        /* \"main.sol\":4814:4829  requestList[id] */\n      dup2\n      mstore\n      0x20\n      add\n      swap1\n      dup2\n      mstore\n      0x20\n      add\n      0x00\n      keccak256\n        /* \"main.sol\":4814:4838  requestList[id].givenNum */\n      0x06\n      add\n      sload\n        /* \"main.sol\":4789:4800  requestList */\n      0x03\n        /* \"main.sol\":4789:4807  requestList[index] */\n      0x00\n        /* \"main.sol\":4801:4806  index */\n      dup5\n        /* \"main.sol\":4789:4807  requestList[index] */\n      dup2\n      mstore\n      0x20\n      add\n      swap1\n      dup2\n      mstore\n      0x20\n      add\n      0x00\n      keccak256\n        /* \"main.sol\":4789:4811  requestList[index].Fee */\n      0x03\n      add\n      sload\n        /* \"main.sol\":4789:4838  requestList[index].Fee / requestList[id].givenNum */\n      tag_75\n      swap2\n      swap1\n      tag_76\n      jump\t// in\n    tag_75:\n        /* \"main.sol\":4758:4774  nodeStackBalance */\n      0x02\n        /* \"main.sol\":4758:4785  nodeStackBalance[node_name] */\n      0x00\n        /* \"main.sol\":4775:4784  node_name */\n      dup4\n        /* \"main.sol\":4758:4785  nodeStackBalance[node_name] */\n      0xffffffffffffffffffffffffffffffffffffffff\n      and\n      0xffffffffffffffffffffffffffffffffffffffff\n      and\n      dup2\n      mstore\n      0x20\n      add\n      swap1\n      dup2\n      mstore\n      0x20\n      add\n      0x00\n      keccak256\n      0x00\n        /* \"main.sol\":4758:4838  nodeStackBalance[node_name] += requestList[index].Fee / requestList[id].givenNum */\n      dup3\n      dup3\n      sload\n      tag_77\n      swap2\n      swap1\n      tag_78\n      jump\t// in\n    tag_77:\n      swap3\n      pop\n      pop\n      dup2\n      swap1\n      sstore\n      pop\n        /* \"main.sol\":4872:4883  requestList */\n      0x03\n        /* \"main.sol\":4872:4887  requestList[id] */\n      0x00\n        /* \"main.sol\":4884:4886  id */\n      dup11\n        /* \"main.sol\":4872:4887  requestList[id] */\n      dup2\n      mstore\n      0x20\n      add\n      swap1\n      dup2\n      mstore\n      0x20\n      add\n      0x00\n      keccak256\n        /* \"main.sol\":4872:4897  requestList[id].searchRes */\n      0x04\n      add\n        /* \"main.sol\":4898:4903  index */\n      dup3\n        /* \"main.sol\":4872:4904  requestList[id].searchRes[index] */\n      dup2\n      sload\n      dup2\n      lt\n      tag_79\n      jumpi\n      tag_80\n      tag_58\n      jump\t// in\n    tag_80:\n    tag_79:\n      swap1\n      0x00\n      mstore\n      keccak256(0x00, 0x20)\n      add\n      sload\n        /* \"main.sol\":4856:4904  final_result += requestList[id].searchRes[index] */\n      dup5\n      tag_82\n      swap2\n      swap1\n      tag_78\n      jump\t// in\n    tag_82:\n      swap4\n      pop\n        /* \"main.sol\":4970:4971  2 */\n      0x02\n        /* \"main.sol\":4936:4947  requestList */\n      0x03\n        /* \"main.sol\":4936:4951  requestList[id] */\n      0x00\n        /* \"main.sol\":4948:4950  id */\n      dup12\n        /* \"main.sol\":4936:4951  requestList[id] */\n      dup2\n      mstore\n      0x20\n      add\n      swap1\n      dup2\n      mstore\n      0x20\n      add\n      0x00\n      keccak256\n        /* \"main.sol\":4936:4961  requestList[id].searchRes */\n      0x04\n      add\n        /* \"main.sol\":4962:4967  index */\n      dup4\n        /* \"main.sol\":4936:4968  requestList[id].searchRes[index] */\n      dup2\n      sload\n      dup2\n      lt\n      tag_83\n      jumpi\n      tag_84\n      tag_58\n      jump\t// in\n    tag_84:\n    tag_83:\n      swap1\n      0x00\n      mstore\n      keccak256(0x00, 0x20)\n      add\n      sload\n        /* \"main.sol\":4936:4971  requestList[id].searchRes[index]**2 */\n      tag_86\n      swap2\n      swap1\n      tag_87\n      jump\t// in\n    tag_86:\n        /* \"main.sol\":4922:4971  square_sum += requestList[id].searchRes[index]**2 */\n      dup4\n      tag_88\n      swap2\n      swap1\n      tag_78\n      jump\t// in\n    tag_88:\n      swap3\n      pop\n        /* \"main.sol\":4665:4986  {... */\n      pop\n        /* \"main.sol\":4656:4663  index++ */\n      dup1\n      dup1\n      0x01\n      add\n      swap2\n      pop\n      pop\n        /* \"main.sol\":4598:4986  for (uint256 index = 0; index < requestList[id].givenNum; index++) {... */\n      jump(tag_69)\n    tag_70:\n      pop\n        /* \"main.sol\":4999:5029  TARGET_CONTRACT TargetContract */\n      0x00\n        /* \"main.sol\":5048:5059  requestList */\n      0x03\n        /* \"main.sol\":5048:5063  requestList[id] */\n      0x00\n        /* \"main.sol\":5060:5062  id */\n      dup10\n        /* \"main.sol\":5048:5063  requestList[id] */\n      dup2\n      mstore\n      0x20\n      add\n      swap1\n      dup2\n      mstore\n      0x20\n      add\n      0x00\n      keccak256\n        /* \"main.sol\":5048:5073  requestList[id].requester */\n      0x01\n      add\n      0x00\n      swap1\n      sload\n      swap1\n      0x0100\n      exp\n      swap1\n      div\n      0xffffffffffffffffffffffffffffffffffffffff\n      and\n        /* \"main.sol\":4999:5074  TARGET_CONTRACT TargetContract = TARGET_CONTRACT(requestList[id].requester) */\n      swap1\n      pop\n        /* \"main.sol\":5118:5129  requestList */\n      0x03\n        /* \"main.sol\":5118:5133  requestList[id] */\n      0x00\n        /* \"main.sol\":5130:5132  id */\n      dup10\n        /* \"main.sol\":5118:5133  requestList[id] */\n      dup2\n      mstore\n      0x20\n      add\n      swap1\n      dup2\n      mstore\n      0x20\n      add\n      0x00\n      keccak256\n        /* \"main.sol\":5118:5142  requestList[id].givenNum */\n      0x06\n      add\n      sload\n        /* \"main.sol\":5103:5115  final_result */\n      dup4\n        /* \"main.sol\":5103:5142  final_result / requestList[id].givenNum */\n      tag_89\n      swap2\n      swap1\n      tag_76\n      jump\t// in\n    tag_89:\n        /* \"main.sol\":5088:5142  final_result = final_result / requestList[id].givenNum */\n      swap3\n      pop\n        /* \"main.sol\":5191:5237  evaluateNodePerf(id, final_result, square_sum) */\n      tag_90\n        /* \"main.sol\":5208:5210  id */\n      dup9\n        /* \"main.sol\":5212:5224  final_result */\n      dup5\n        /* \"main.sol\":5226:5236  square_sum */\n      dup5\n        /* \"main.sol\":5191:5207  evaluateNodePerf */\n      tag_91\n        /* \"main.sol\":5191:5237  evaluateNodePerf(id, final_result, square_sum) */\n      jump\t// in\n    tag_90:\n      pop\n        /* \"main.sol\":5313:5327  TargetContract */\n      dup1\n        /* \"main.sol\":5313:5336  TargetContract.callData */\n      0xffffffffffffffffffffffffffffffffffffffff\n      and\n      0xe5d60ce1\n        /* \"main.sol\":5337:5349  final_result */\n      dup5\n        /* \"main.sol\":5313:5350  TargetContract.callData(final_result) */\n      mload(0x40)\n      dup3\n      0xffffffff\n      and\n      0xe0\n      shl\n      dup2\n      mstore\n      0x04\n      add\n      tag_92\n      swap2\n      swap1\n      tag_16\n      jump\t// in\n    tag_92:\n      0x20\n      mload(0x40)\n      dup1\n      dup4\n      sub\n      dup2\n      0x00\n      dup8\n      gas\n      call\n      iszero\n      dup1\n      iszero\n      tag_94\n      jumpi\n      returndatacopy(0x00, 0x00, returndatasize)\n      revert(0x00, returndatasize)\n    tag_94:\n      pop\n      pop\n      pop\n      pop\n      mload(0x40)\n      returndatasize\n      not(0x1f)\n      0x1f\n      dup3\n      add\n      and\n      dup3\n      add\n      dup1\n      0x40\n      mstore\n      pop\n      dup2\n      add\n      swap1\n      tag_95\n      swap2\n      swap1\n      tag_96\n      jump\t// in\n    tag_95:\n      pop\n        /* \"main.sol\":5372:5384  final_result */\n      dup3\n        /* \"main.sol\":5386:5390  true */\n      0x01\n        /* \"main.sol\":5364:5391  return (final_result, true) */\n      swap6\n      pop\n      swap6\n      pop\n      pop\n      pop\n      pop\n      pop\n      jump(tag_52)\n        /* \"main.sol\":4444:5402  if (requestList[id].givenNum * 3 >= 2 * oracleAddressList.length) {... */\n    tag_68:\n        /* \"main.sol\":5419:5420  0 */\n      0x00\n        /* \"main.sol\":5422:5427  false */\n      0x00\n        /* \"main.sol\":5411:5428  return (0, false) */\n      swap3\n      pop\n      swap3\n      pop\n      pop\n        /* \"main.sol\":3997:5435  function fufillReqEvent(uint256 id, uint256 result) public returns (uint256, bool) {... */\n    tag_52:\n      swap3\n      pop\n      swap3\n      swap1\n      pop\n      jump\t// out\n        /* \"main.sol\":744:788  uint256 public constant LIMIT_STAKE_NUM = 80 */\n    tag_24:\n        /* \"main.sol\":786:788  80 */\n      0x50\n        /* \"main.sol\":744:788  uint256 public constant LIMIT_STAKE_NUM = 80 */\n      dup2\n      jump\t// out\n        /* \"main.sol\":637:688  mapping(address => uint256) public nodeStackBalance */\n    tag_29:\n      mstore(0x20, 0x02)\n      dup1\n      0x00\n      mstore\n      keccak256(0x00, 0x40)\n      0x00\n      swap2\n      pop\n      swap1\n      pop\n      sload\n      dup2\n      jump\t// out\n        /* \"main.sol\":600:630  uint256 public totalRequestNum */\n    tag_32:\n      sload(0x01)\n      dup2\n      jump\t// out\n        /* \"main.sol\":560:594  address[] public oracleAddressList */\n    tag_37:\n      0x00\n      dup2\n      dup2\n      sload\n      dup2\n      lt\n      tag_97\n      jumpi\n      0x00\n      dup1\n      revert\n    tag_97:\n      swap1\n      0x00\n      mstore\n      keccak256(0x00, 0x20)\n      add\n      0x00\n      swap2\n      pop\n      sload\n      swap1\n      0x0100\n      exp\n      swap1\n      div\n      0xffffffffffffffffffffffffffffffffffffffff\n      and\n      dup2\n      jump\t// out\n        /* \"main.sol\":1029:1418  function registerOracleNode() public returns (bool) {... */\n    tag_41:\n        /* \"main.sol\":1075:1079  bool */\n      0x00\n        /* \"main.sol\":1132:1141  uint256 i */\n      0x00\n        /* \"main.sol\":1144:1145  0 */\n      0x00\n        /* \"main.sol\":1132:1145  uint256 i = 0 */\n      swap1\n      pop\n        /* \"main.sol\":1127:1291  for (uint256 i = 0; i < oracleAddressList.length; i++) {... */\n    tag_100:\n        /* \"main.sol\":1151:1168  oracleAddressList */\n      0x00\n        /* \"main.sol\":1151:1175  oracleAddressList.length */\n      dup1\n      sload\n      swap1\n      pop\n        /* \"main.sol\":1147:1148  i */\n      dup2\n        /* \"main.sol\":1147:1175  i < oracleAddressList.length */\n      lt\n        /* \"main.sol\":1127:1291  for (uint256 i = 0; i < oracleAddressList.length; i++) {... */\n      iszero\n      tag_101\n      jumpi\n        /* \"main.sol\":1224:1234  msg.sender */\n      caller\n        /* \"main.sol\":1200:1234  oracleAddressList[i] == msg.sender */\n      0xffffffffffffffffffffffffffffffffffffffff\n      and\n        /* \"main.sol\":1200:1217  oracleAddressList */\n      0x00\n        /* \"main.sol\":1218:1219  i */\n      dup3\n        /* \"main.sol\":1200:1220  oracleAddressList[i] */\n      dup2\n      sload\n      dup2\n      lt\n      tag_103\n      jumpi\n      tag_104\n      tag_58\n      jump\t// in\n    tag_104:\n    tag_103:\n      swap1\n      0x00\n      mstore\n      keccak256(0x00, 0x20)\n      add\n      0x00\n      swap1\n      sload\n      swap1\n      0x0100\n      exp\n      swap1\n      div\n      0xffffffffffffffffffffffffffffffffffffffff\n      and\n        /* \"main.sol\":1200:1234  oracleAddressList[i] == msg.sender */\n      0xffffffffffffffffffffffffffffffffffffffff\n      and\n      sub\n        /* \"main.sol\":1196:1281  if (oracleAddressList[i] == msg.sender) {... */\n      tag_106\n      jumpi\n        /* \"main.sol\":1261:1266  false */\n      0x00\n        /* \"main.sol\":1254:1266  return false */\n      swap2\n      pop\n      pop\n      jump(tag_99)\n        /* \"main.sol\":1196:1281  if (oracleAddressList[i] == msg.sender) {... */\n    tag_106:\n        /* \"main.sol\":1177:1180  i++ */\n      dup1\n      dup1\n      0x01\n      add\n      swap2\n      pop\n      pop\n        /* \"main.sol\":1127:1291  for (uint256 i = 0; i < oracleAddressList.length; i++) {... */\n      jump(tag_100)\n    tag_101:\n      pop\n        /* \"main.sol\":786:788  80 */\n      0x50\n        /* \"main.sol\":1300:1316  nodeStackBalance */\n      0x02\n        /* \"main.sol\":1300:1328  nodeStackBalance[msg.sender] */\n      0x00\n        /* \"main.sol\":1317:1327  msg.sender */\n      caller\n        /* \"main.sol\":1300:1328  nodeStackBalance[msg.sender] */\n      0xffffffffffffffffffffffffffffffffffffffff\n      and\n      0xffffffffffffffffffffffffffffffffffffffff\n      and\n      dup2\n      mstore\n      0x20\n      add\n      swap1\n      dup2\n      mstore\n      0x20\n      add\n      0x00\n      keccak256\n        /* \"main.sol\":1300:1346  nodeStackBalance[msg.sender] = LIMIT_STAKE_NUM */\n      dup2\n      swap1\n      sstore\n      pop\n        /* \"main.sol\":1356:1373  oracleAddressList */\n      0x00\n        /* \"main.sol\":1379:1389  msg.sender */\n      caller\n        /* \"main.sol\":1356:1390  oracleAddressList.push(msg.sender) */\n      swap1\n      dup1\n      0x01\n      dup2\n      sload\n      add\n      dup1\n      dup3\n      sstore\n      dup1\n      swap2\n      pop\n      pop\n      0x01\n      swap1\n      sub\n      swap1\n      0x00\n      mstore\n      keccak256(0x00, 0x20)\n      add\n      0x00\n      swap1\n      swap2\n      swap1\n      swap2\n      swap1\n      swap2\n      0x0100\n      exp\n      dup2\n      sload\n      dup2\n      0xffffffffffffffffffffffffffffffffffffffff\n      mul\n      not\n      and\n      swap1\n      dup4\n      0xffffffffffffffffffffffffffffffffffffffff\n      and\n      mul\n      or\n      swap1\n      sstore\n      pop\n        /* \"main.sol\":1407:1411  true */\n      0x01\n        /* \"main.sol\":1400:1411  return true */\n      swap1\n      pop\n        /* \"main.sol\":1029:1418  function registerOracleNode() public returns (bool) {... */\n    tag_99:\n      swap1\n      jump\t// out\n        /* \"main.sol\":1453:2109  function requestForMsg(string memory url, uint256 fee) public returns (bool) {... */\n    tag_47:\n        /* \"main.sol\":1524:1528  bool */\n      0x00\n        /* \"main.sol\":836:838  10 */\n      0x0a\n        /* \"main.sol\":1548:1551  fee */\n      dup3\n        /* \"main.sol\":1548:1570  fee >= LIMIT_FEE_PRICE */\n      lt\n      iszero\n        /* \"main.sol\":1540:1587  require(fee >= LIMIT_FEE_PRICE, \"too less fee\") */\n      tag_109\n      jumpi\n      mload(0x40)\n      0x08c379a000000000000000000000000000000000000000000000000000000000\n      dup2\n      mstore\n      0x04\n      add\n      tag_110\n      swap1\n      tag_111\n      jump\t// in\n    tag_110:\n      mload(0x40)\n      dup1\n      swap2\n      sub\n      swap1\n      revert\n    tag_109:\n        /* \"main.sol\":1629:1630  1 */\n      0x01\n        /* \"main.sol\":1601:1618  oracleAddressList */\n      0x00\n        /* \"main.sol\":1601:1625  oracleAddressList.length */\n      dup1\n      sload\n      swap1\n      pop\n        /* \"main.sol\":1601:1630  oracleAddressList.length <= 1 */\n      gt\n        /* \"main.sol\":1597:1669  if (oracleAddressList.length <= 1) {... */\n      tag_112\n      jumpi\n        /* \"main.sol\":1653:1658  false */\n      0x00\n        /* \"main.sol\":1646:1658  return false */\n      swap1\n      pop\n      jump(tag_108)\n        /* \"main.sol\":1597:1669  if (oracleAddressList.length <= 1) {... */\n    tag_112:\n        /* \"main.sol\":1679:1693  uint256 req_id */\n      0x00\n        /* \"main.sol\":1696:1711  totalRequestNum */\n      0x01\n      0x00\n        /* \"main.sol\":1696:1713  totalRequestNum++ */\n      dup2\n      sload\n      dup1\n      swap3\n      swap2\n      swap1\n      tag_113\n      swap1\n      tag_64\n      jump\t// in\n    tag_113:\n      swap2\n      swap1\n      pop\n      sstore\n        /* \"main.sol\":1679:1713  uint256 req_id = totalRequestNum++ */\n      swap1\n      pop\n        /* \"main.sol\":1746:2030  RequestBody({... */\n      mload(0x40)\n      dup1\n      0xe0\n      add\n      0x40\n      mstore\n      dup1\n        /* \"main.sol\":1776:1782  req_id */\n      dup3\n        /* \"main.sol\":1746:2030  RequestBody({... */\n      dup2\n      mstore\n      0x20\n      add\n        /* \"main.sol\":1807:1817  msg.sender */\n      caller\n        /* \"main.sol\":1746:2030  RequestBody({... */\n      0xffffffffffffffffffffffffffffffffffffffff\n      and\n      dup2\n      mstore\n      0x20\n      add\n        /* \"main.sol\":1836:1839  url */\n      dup6\n        /* \"main.sol\":1746:2030  RequestBody({... */\n      dup2\n      mstore\n      0x20\n      add\n        /* \"main.sol\":1858:1861  fee */\n      dup5\n        /* \"main.sol\":1746:2030  RequestBody({... */\n      dup2\n      mstore\n      0x20\n      add\n        /* \"main.sol\":1900:1917  oracleAddressList */\n      0x00\n        /* \"main.sol\":1900:1924  oracleAddressList.length */\n      dup1\n      sload\n      swap1\n      pop\n        /* \"main.sol\":1886:1925  new uint256[](oracleAddressList.length) */\n      0xffffffffffffffff\n      dup2\n      gt\n      iszero\n      tag_114\n      jumpi\n      tag_115\n      tag_116\n      jump\t// in\n    tag_115:\n    tag_114:\n      mload(0x40)\n      swap1\n      dup1\n      dup3\n      mstore\n      dup1\n      0x20\n      mul\n      0x20\n      add\n      dup3\n      add\n      0x40\n      mstore\n      dup1\n      iszero\n      tag_117\n      jumpi\n      dup2\n      0x20\n      add\n      0x20\n      dup3\n      mul\n      dup1\n      calldatasize\n      dup4\n      calldatacopy\n      dup1\n      dup3\n      add\n      swap2\n      pop\n      pop\n      swap1\n      pop\n    tag_117:\n      pop\n        /* \"main.sol\":1746:2030  RequestBody({... */\n      dup2\n      mstore\n      0x20\n      add\n        /* \"main.sol\":1969:1986  oracleAddressList */\n      0x00\n        /* \"main.sol\":1969:1993  oracleAddressList.length */\n      dup1\n      sload\n      swap1\n      pop\n        /* \"main.sol\":1955:1994  new address[](oracleAddressList.length) */\n      0xffffffffffffffff\n      dup2\n      gt\n      iszero\n      tag_118\n      jumpi\n      tag_119\n      tag_116\n      jump\t// in\n    tag_119:\n    tag_118:\n      mload(0x40)\n      swap1\n      dup1\n      dup3\n      mstore\n      dup1\n      0x20\n      mul\n      0x20\n      add\n      dup3\n      add\n      0x40\n      mstore\n      dup1\n      iszero\n      tag_120\n      jumpi\n      dup2\n      0x20\n      add\n      0x20\n      dup3\n      mul\n      dup1\n      calldatasize\n      dup4\n      calldatacopy\n      dup1\n      dup3\n      add\n      swap2\n      pop\n      pop\n      swap1\n      pop\n    tag_120:\n      pop\n        /* \"main.sol\":1746:2030  RequestBody({... */\n      dup2\n      mstore\n      0x20\n      add\n        /* \"main.sol\":2018:2019  0 */\n      0x00\n        /* \"main.sol\":1746:2030  RequestBody({... */\n      dup2\n      mstore\n      pop\n        /* \"main.sol\":1724:1735  requestList */\n      0x03\n        /* \"main.sol\":1724:1743  requestList[req_id] */\n      0x00\n        /* \"main.sol\":1736:1742  req_id */\n      dup4\n        /* \"main.sol\":1724:1743  requestList[req_id] */\n      dup2\n      mstore\n      0x20\n      add\n      swap1\n      dup2\n      mstore\n      0x20\n      add\n      0x00\n      keccak256\n        /* \"main.sol\":1724:2030  requestList[req_id] = RequestBody({... */\n      0x00\n      dup3\n      add\n      mload\n      dup2\n      0x00\n      add\n      sstore\n      0x20\n      dup3\n      add\n      mload\n      dup2\n      0x01\n      add\n      exp(0x0100, 0x00)\n      dup2\n      sload\n      dup2\n      0xffffffffffffffffffffffffffffffffffffffff\n      mul\n      not\n      and\n      swap1\n      dup4\n      0xffffffffffffffffffffffffffffffffffffffff\n      and\n      mul\n      or\n      swap1\n      sstore\n      pop\n      0x40\n      dup3\n      add\n      mload\n      dup2\n      0x02\n      add\n      swap1\n      dup2\n      tag_121\n      swap2\n      swap1\n      tag_122\n      jump\t// in\n    tag_121:\n      pop\n      0x60\n      dup3\n      add\n      mload\n      dup2\n      0x03\n      add\n      sstore\n      0x80\n      dup3\n      add\n      mload\n      dup2\n      0x04\n      add\n      swap1\n      dup1\n      mload\n      swap1\n      0x20\n      add\n      swap1\n      tag_123\n      swap3\n      swap2\n      swap1\n      tag_124\n      jump\t// in\n    tag_123:\n      pop\n      0xa0\n      dup3\n      add\n      mload\n      dup2\n      0x05\n      add\n      swap1\n      dup1\n      mload\n      swap1\n      0x20\n      add\n      swap1\n      tag_125\n      swap3\n      swap2\n      swap1\n      tag_126\n      jump\t// in\n    tag_125:\n      pop\n      0xc0\n      dup3\n      add\n      mload\n      dup2\n      0x06\n      add\n      sstore\n      swap1\n      pop\n      pop\n        /* \"main.sol\":2064:2070  req_id */\n      dup1\n        /* \"main.sol\":2045:2081  oracleRequestEvent(req_id, url, fee) */\n      0xff720fe3c931d07ee2cb53614d5790d5e186f7e2a84ed6aa4ad335a4f896e46a\n        /* \"main.sol\":2072:2075  url */\n      dup6\n        /* \"main.sol\":2077:2080  fee */\n      dup6\n        /* \"main.sol\":2045:2081  oracleRequestEvent(req_id, url, fee) */\n      mload(0x40)\n      tag_127\n      swap3\n      swap2\n      swap1\n      tag_128\n      jump\t// in\n    tag_127:\n      mload(0x40)\n      dup1\n      swap2\n      sub\n      swap1\n      log2\n        /* \"main.sol\":2098:2102  true */\n      0x01\n        /* \"main.sol\":2091:2102  return true */\n      swap2\n      pop\n      pop\n        /* \"main.sol\":1453:2109  function requestForMsg(string memory url, uint256 fee) public returns (bool) {... */\n    tag_108:\n      swap3\n      swap2\n      pop\n      pop\n      jump\t// out\n        /* \"main.sol\":794:838  uint256 public constant LIMIT_FEE_PRICE = 10 */\n    tag_50:\n        /* \"main.sol\":836:838  10 */\n      0x0a\n        /* \"main.sol\":794:838  uint256 public constant LIMIT_FEE_PRICE = 10 */\n      dup2\n      jump\t// out\n        /* \"main.sol\":2198:2659  function isInReqList(uint256 id, address addr) private view returns (bool) {... */\n    tag_54:\n        /* \"main.sol\":2267:2271  bool */\n      0x00\n        /* \"main.sol\":2309:2310  0 */\n      0x00\n        /* \"main.sol\":2287:2298  requestList */\n      0x03\n        /* \"main.sol\":2287:2302  requestList[id] */\n      0x00\n        /* \"main.sol\":2299:2301  id */\n      dup6\n        /* \"main.sol\":2287:2302  requestList[id] */\n      dup2\n      mstore\n      0x20\n      add\n      swap1\n      dup2\n      mstore\n      0x20\n      add\n      0x00\n      keccak256\n        /* \"main.sol\":2287:2305  requestList[id].id */\n      0x00\n      add\n      sload\n        /* \"main.sol\":2287:2310  requestList[id].id == 0 */\n      sub\n        /* \"main.sol\":2283:2349  if (requestList[id].id == 0) {... */\n      tag_130\n      jumpi\n        /* \"main.sol\":2333:2338  false */\n      0x00\n        /* \"main.sol\":2326:2338  return false */\n      swap1\n      pop\n      jump(tag_129)\n        /* \"main.sol\":2283:2349  if (requestList[id].id == 0) {... */\n    tag_130:\n        /* \"main.sol\":2358:2369  uint256 num */\n      0x00\n        /* \"main.sol\":2372:2383  requestList */\n      0x03\n        /* \"main.sol\":2372:2387  requestList[id] */\n      0x00\n        /* \"main.sol\":2384:2386  id */\n      dup6\n        /* \"main.sol\":2372:2387  requestList[id] */\n      dup2\n      mstore\n      0x20\n      add\n      swap1\n      dup2\n      mstore\n      0x20\n      add\n      0x00\n      keccak256\n        /* \"main.sol\":2372:2396  requestList[id].givenNum */\n      0x06\n      add\n      sload\n        /* \"main.sol\":2358:2396  uint256 num = requestList[id].givenNum */\n      swap1\n      pop\n        /* \"main.sol\":2417:2418  0 */\n      0x00\n        /* \"main.sol\":2410:2413  num */\n      dup2\n        /* \"main.sol\":2410:2418  num == 0 */\n      sub\n        /* \"main.sol\":2406:2457  if (num == 0) {... */\n      tag_131\n      jumpi\n        /* \"main.sol\":2441:2446  false */\n      0x00\n        /* \"main.sol\":2434:2446  return false */\n      swap2\n      pop\n      pop\n      jump(tag_129)\n        /* \"main.sol\":2406:2457  if (num == 0) {... */\n    tag_131:\n        /* \"main.sol\":2471:2484  uint256 index */\n      0x00\n        /* \"main.sol\":2487:2488  0 */\n      0x00\n        /* \"main.sol\":2471:2488  uint256 index = 0 */\n      swap1\n      pop\n        /* \"main.sol\":2466:2631  for (uint256 index = 0; index < num; index++) {... */\n    tag_132:\n        /* \"main.sol\":2498:2501  num */\n      dup2\n        /* \"main.sol\":2490:2495  index */\n      dup2\n        /* \"main.sol\":2490:2501  index < num */\n      lt\n        /* \"main.sol\":2466:2631  for (uint256 index = 0; index < num; index++) {... */\n      iszero\n      tag_133\n      jumpi\n        /* \"main.sol\":2571:2575  addr */\n      dup4\n        /* \"main.sol\":2530:2575  requestList[id].resOracleNodes[index] == addr */\n      0xffffffffffffffffffffffffffffffffffffffff\n      and\n        /* \"main.sol\":2530:2541  requestList */\n      0x03\n        /* \"main.sol\":2530:2545  requestList[id] */\n      0x00\n        /* \"main.sol\":2542:2544  id */\n      dup8\n        /* \"main.sol\":2530:2545  requestList[id] */\n      dup2\n      mstore\n      0x20\n      add\n      swap1\n      dup2\n      mstore\n      0x20\n      add\n      0x00\n      keccak256\n        /* \"main.sol\":2530:2560  requestList[id].resOracleNodes */\n      0x05\n      add\n        /* \"main.sol\":2561:2566  index */\n      dup3\n        /* \"main.sol\":2530:2567  requestList[id].resOracleNodes[index] */\n      dup2\n      sload\n      dup2\n      lt\n      tag_135\n      jumpi\n      tag_136\n      tag_58\n      jump\t// in\n    tag_136:\n    tag_135:\n      swap1\n      0x00\n      mstore\n      keccak256(0x00, 0x20)\n      add\n      0x00\n      swap1\n      sload\n      swap1\n      0x0100\n      exp\n      swap1\n      div\n      0xffffffffffffffffffffffffffffffffffffffff\n      and\n        /* \"main.sol\":2530:2575  requestList[id].resOracleNodes[index] == addr */\n      0xffffffffffffffffffffffffffffffffffffffff\n      and\n      sub\n        /* \"main.sol\":2526:2621  if (requestList[id].resOracleNodes[index] == addr) {... */\n      tag_138\n      jumpi\n        /* \"main.sol\":2602:2606  true */\n      0x01\n        /* \"main.sol\":2595:2606  return true */\n      swap3\n      pop\n      pop\n      pop\n      jump(tag_129)\n        /* \"main.sol\":2526:2621  if (requestList[id].resOracleNodes[index] == addr) {... */\n    tag_138:\n        /* \"main.sol\":2503:2510  index++ */\n      dup1\n      dup1\n      0x01\n      add\n      swap2\n      pop\n      pop\n        /* \"main.sol\":2466:2631  for (uint256 index = 0; index < num; index++) {... */\n      jump(tag_132)\n    tag_133:\n      pop\n        /* \"main.sol\":2647:2652  false */\n      0x00\n        /* \"main.sol\":2640:2652  return false */\n      swap2\n      pop\n      pop\n        /* \"main.sol\":2198:2659  function isInReqList(uint256 id, address addr) private view returns (bool) {... */\n    tag_129:\n      swap3\n      swap2\n      pop\n      pop\n      jump\t// out\n        /* \"main.sol\":3136:3947  function evaluateNodePerf(... */\n    tag_91:\n        /* \"main.sol\":3263:3267  bool */\n      0x00\n        /* \"main.sol\":3279:3294  uint256 std_num */\n      0x00\n        /* \"main.sol\":3352:3364  final_result */\n      dup4\n        /* \"main.sol\":3337:3349  final_result */\n      dup5\n        /* \"main.sol\":3337:3364  final_result * final_result */\n      tag_140\n      swap2\n      swap1\n      tag_66\n      jump\t// in\n    tag_140:\n        /* \"main.sol\":3310:3321  requestList */\n      0x03\n        /* \"main.sol\":3310:3325  requestList[id] */\n      0x00\n        /* \"main.sol\":3322:3324  id */\n      dup8\n        /* \"main.sol\":3310:3325  requestList[id] */\n      dup2\n      mstore\n      0x20\n      add\n      swap1\n      dup2\n      mstore\n      0x20\n      add\n      0x00\n      keccak256\n        /* \"main.sol\":3310:3334  requestList[id].givenNum */\n      0x06\n      add\n      sload\n        /* \"main.sol\":3297:3307  square_sum */\n      dup5\n        /* \"main.sol\":3297:3334  square_sum / requestList[id].givenNum */\n      tag_141\n      swap2\n      swap1\n      tag_76\n      jump\t// in\n    tag_141:\n        /* \"main.sol\":3297:3364  square_sum / requestList[id].givenNum - final_result * final_result */\n      tag_142\n      swap2\n      swap1\n      tag_143\n      jump\t// in\n    tag_142:\n        /* \"main.sol\":3279:3364  uint256 std_num = square_sum / requestList[id].givenNum - final_result * final_result */\n      swap1\n      pop\n        /* \"main.sol\":3379:3392  uint256 index */\n      0x00\n        /* \"main.sol\":3395:3396  0 */\n      0x00\n        /* \"main.sol\":3379:3396  uint256 index = 0 */\n      swap1\n      pop\n        /* \"main.sol\":3374:3920  for (uint256 index = 0; index < requestList[id].givenNum; index++) {... */\n    tag_144:\n        /* \"main.sol\":3406:3417  requestList */\n      0x03\n        /* \"main.sol\":3406:3421  requestList[id] */\n      0x00\n        /* \"main.sol\":3418:3420  id */\n      dup8\n        /* \"main.sol\":3406:3421  requestList[id] */\n      dup2\n      mstore\n      0x20\n      add\n      swap1\n      dup2\n      mstore\n      0x20\n      add\n      0x00\n      keccak256\n        /* \"main.sol\":3406:3430  requestList[id].givenNum */\n      0x06\n      add\n      sload\n        /* \"main.sol\":3398:3403  index */\n      dup2\n        /* \"main.sol\":3398:3430  index < requestList[id].givenNum */\n      lt\n        /* \"main.sol\":3374:3920  for (uint256 index = 0; index < requestList[id].givenNum; index++) {... */\n      iszero\n      tag_145\n      jumpi\n        /* \"main.sol\":3455:3472  address node_name */\n      0x00\n        /* \"main.sol\":3475:3486  requestList */\n      0x03\n        /* \"main.sol\":3475:3490  requestList[id] */\n      0x00\n        /* \"main.sol\":3487:3489  id */\n      dup9\n        /* \"main.sol\":3475:3490  requestList[id] */\n      dup2\n      mstore\n      0x20\n      add\n      swap1\n      dup2\n      mstore\n      0x20\n      add\n      0x00\n      keccak256\n        /* \"main.sol\":3475:3505  requestList[id].resOracleNodes */\n      0x05\n      add\n        /* \"main.sol\":3506:3511  index */\n      dup3\n        /* \"main.sol\":3475:3512  requestList[id].resOracleNodes[index] */\n      dup2\n      sload\n      dup2\n      lt\n      tag_147\n      jumpi\n      tag_148\n      tag_58\n      jump\t// in\n    tag_148:\n    tag_147:\n      swap1\n      0x00\n      mstore\n      keccak256(0x00, 0x20)\n      add\n      0x00\n      swap1\n      sload\n      swap1\n      0x0100\n      exp\n      swap1\n      div\n      0xffffffffffffffffffffffffffffffffffffffff\n      and\n        /* \"main.sol\":3455:3512  address node_name = requestList[id].resOracleNodes[index] */\n      swap1\n      pop\n        /* \"main.sol\":3526:3542  uint256 node_res */\n      0x00\n        /* \"main.sol\":3545:3556  requestList */\n      0x03\n        /* \"main.sol\":3545:3560  requestList[id] */\n      0x00\n        /* \"main.sol\":3557:3559  id */\n      dup10\n        /* \"main.sol\":3545:3560  requestList[id] */\n      dup2\n      mstore\n      0x20\n      add\n      swap1\n      dup2\n      mstore\n      0x20\n      add\n      0x00\n      keccak256\n        /* \"main.sol\":3545:3570  requestList[id].searchRes */\n      0x04\n      add\n        /* \"main.sol\":3571:3576  index */\n      dup4\n        /* \"main.sol\":3545:3577  requestList[id].searchRes[index] */\n      dup2\n      sload\n      dup2\n      lt\n      tag_150\n      jumpi\n      tag_151\n      tag_58\n      jump\t// in\n    tag_151:\n    tag_150:\n      swap1\n      0x00\n      mstore\n      keccak256(0x00, 0x20)\n      add\n      sload\n        /* \"main.sol\":3526:3577  uint256 node_res = requestList[id].searchRes[index] */\n      swap1\n      pop\n        /* \"main.sol\":3621:3629  node_res */\n      dup1\n        /* \"main.sol\":3610:3617  std_num */\n      dup5\n        /* \"main.sol\":3595:3607  final_result */\n      dup9\n        /* \"main.sol\":3595:3617  final_result + std_num */\n      tag_153\n      swap2\n      swap1\n      tag_78\n      jump\t// in\n    tag_153:\n        /* \"main.sol\":3595:3629  final_result + std_num <= node_res */\n      gt\n      iszero\n        /* \"main.sol\":3595:3667  final_result + std_num <= node_res || final_result - std_num >= node_res */\n      dup1\n      tag_154\n      jumpi\n      pop\n        /* \"main.sol\":3659:3667  node_res */\n      dup1\n        /* \"main.sol\":3648:3655  std_num */\n      dup5\n        /* \"main.sol\":3633:3645  final_result */\n      dup9\n        /* \"main.sol\":3633:3655  final_result - std_num */\n      tag_155\n      swap2\n      swap1\n      tag_143\n      jump\t// in\n    tag_155:\n        /* \"main.sol\":3633:3667  final_result - std_num >= node_res */\n      lt\n      iszero\n        /* \"main.sol\":3595:3667  final_result + std_num <= node_res || final_result - std_num >= node_res */\n    tag_154:\n        /* \"main.sol\":3591:3777  if (final_result + std_num <= node_res || final_result - std_num >= node_res) {... */\n      iszero\n      tag_156\n      jumpi\n        /* \"main.sol\":883:885  40 */\n      0x28\n        /* \"main.sol\":3719:3735  nodeStackBalance */\n      0x02\n        /* \"main.sol\":3719:3746  nodeStackBalance[node_name] */\n      0x00\n        /* \"main.sol\":3736:3745  node_name */\n      dup5\n        /* \"main.sol\":3719:3746  nodeStackBalance[node_name] */\n      0xffffffffffffffffffffffffffffffffffffffff\n      and\n      0xffffffffffffffffffffffffffffffffffffffff\n      and\n      dup2\n      mstore\n      0x20\n      add\n      swap1\n      dup2\n      mstore\n      0x20\n      add\n      0x00\n      keccak256\n      0x00\n        /* \"main.sol\":3719:3762  nodeStackBalance[node_name] -= DEDUCE_PRICE */\n      dup3\n      dup3\n      sload\n      tag_157\n      swap2\n      swap1\n      tag_143\n      jump\t// in\n    tag_157:\n      swap3\n      pop\n      pop\n      dup2\n      swap1\n      sstore\n      pop\n        /* \"main.sol\":3591:3777  if (final_result + std_num <= node_res || final_result - std_num >= node_res) {... */\n    tag_156:\n        /* \"main.sol\":3853:3854  0 */\n      0x00\n        /* \"main.sol\":3822:3838  nodeStackBalance */\n      0x02\n        /* \"main.sol\":3822:3849  nodeStackBalance[node_name] */\n      0x00\n        /* \"main.sol\":3839:3848  node_name */\n      dup5\n        /* \"main.sol\":3822:3849  nodeStackBalance[node_name] */\n      0xffffffffffffffffffffffffffffffffffffffff\n      and\n      0xffffffffffffffffffffffffffffffffffffffff\n      and\n      dup2\n      mstore\n      0x20\n      add\n      swap1\n      dup2\n      mstore\n      0x20\n      add\n      0x00\n      keccak256\n      sload\n        /* \"main.sol\":3822:3854  nodeStackBalance[node_name] <= 0 */\n      gt\n        /* \"main.sol\":3818:3910  if (nodeStackBalance[node_name] <= 0) {... */\n      tag_158\n      jumpi\n        /* \"main.sol\":3874:3895  removeItem(node_name) */\n      tag_159\n        /* \"main.sol\":3885:3894  node_name */\n      dup3\n        /* \"main.sol\":3874:3884  removeItem */\n      tag_160\n        /* \"main.sol\":3874:3895  removeItem(node_name) */\n      jump\t// in\n    tag_159:\n      pop\n        /* \"main.sol\":3818:3910  if (nodeStackBalance[node_name] <= 0) {... */\n    tag_158:\n        /* \"main.sol\":3441:3920  {... */\n      pop\n      pop\n        /* \"main.sol\":3432:3439  index++ */\n      dup1\n      dup1\n      0x01\n      add\n      swap2\n      pop\n      pop\n        /* \"main.sol\":3374:3920  for (uint256 index = 0; index < requestList[id].givenNum; index++) {... */\n      jump(tag_144)\n    tag_145:\n      pop\n        /* \"main.sol\":3936:3940  true */\n      0x01\n        /* \"main.sol\":3929:3940  return true */\n      swap2\n      pop\n      pop\n        /* \"main.sol\":3136:3947  function evaluateNodePerf(... */\n      swap4\n      swap3\n      pop\n      pop\n      pop\n      jump\t// out\n        /* \"main.sol\":2708:3092  function removeItem(address node_name) private returns (bool) {... */\n    tag_160:\n        /* \"main.sol\":2764:2768  bool */\n      0x00\n        /* \"main.sol\":2785:2794  uint256 i */\n      0x00\n        /* \"main.sol\":2797:2798  0 */\n      0x00\n        /* \"main.sol\":2785:2798  uint256 i = 0 */\n      swap1\n      pop\n        /* \"main.sol\":2780:3065  for (uint256 i = 0; i < oracleAddressList.length; i++) {... */\n    tag_162:\n        /* \"main.sol\":2804:2821  oracleAddressList */\n      0x00\n        /* \"main.sol\":2804:2828  oracleAddressList.length */\n      dup1\n      sload\n      swap1\n      pop\n        /* \"main.sol\":2800:2801  i */\n      dup2\n        /* \"main.sol\":2800:2828  i < oracleAddressList.length */\n      lt\n        /* \"main.sol\":2780:3065  for (uint256 i = 0; i < oracleAddressList.length; i++) {... */\n      iszero\n      tag_163\n      jumpi\n        /* \"main.sol\":2877:2886  node_name */\n      dup3\n        /* \"main.sol\":2853:2886  oracleAddressList[i] == node_name */\n      0xffffffffffffffffffffffffffffffffffffffff\n      and\n        /* \"main.sol\":2853:2870  oracleAddressList */\n      0x00\n        /* \"main.sol\":2871:2872  i */\n      dup3\n        /* \"main.sol\":2853:2873  oracleAddressList[i] */\n      dup2\n      sload\n      dup2\n      lt\n      tag_165\n      jumpi\n      tag_166\n      tag_58\n      jump\t// in\n    tag_166:\n    tag_165:\n      swap1\n      0x00\n      mstore\n      keccak256(0x00, 0x20)\n      add\n      0x00\n      swap1\n      sload\n      swap1\n      0x0100\n      exp\n      swap1\n      div\n      0xffffffffffffffffffffffffffffffffffffffff\n      and\n        /* \"main.sol\":2853:2886  oracleAddressList[i] == node_name */\n      0xffffffffffffffffffffffffffffffffffffffff\n      and\n      sub\n        /* \"main.sol\":2849:3055  if (oracleAddressList[i] == node_name) {... */\n      tag_168\n      jumpi\n        /* \"main.sol\":2929:2946  oracleAddressList */\n      0x00\n        /* \"main.sol\":2974:2975  1 */\n      0x01\n        /* \"main.sol\":2947:2964  oracleAddressList */\n      0x00\n        /* \"main.sol\":2947:2971  oracleAddressList.length */\n      dup1\n      sload\n      swap1\n      pop\n        /* \"main.sol\":2947:2975  oracleAddressList.length - 1 */\n      tag_169\n      swap2\n      swap1\n      tag_143\n      jump\t// in\n    tag_169:\n        /* \"main.sol\":2929:2976  oracleAddressList[oracleAddressList.length - 1] */\n      dup2\n      sload\n      dup2\n      lt\n      tag_170\n      jumpi\n      tag_171\n      tag_58\n      jump\t// in\n    tag_171:\n    tag_170:\n      swap1\n      0x00\n      mstore\n      keccak256(0x00, 0x20)\n      add\n      0x00\n      swap1\n      sload\n      swap1\n      0x0100\n      exp\n      swap1\n      div\n      0xffffffffffffffffffffffffffffffffffffffff\n      and\n        /* \"main.sol\":2906:2923  oracleAddressList */\n      0x00\n        /* \"main.sol\":2924:2925  i */\n      dup3\n        /* \"main.sol\":2906:2926  oracleAddressList[i] */\n      dup2\n      sload\n      dup2\n      lt\n      tag_173\n      jumpi\n      tag_174\n      tag_58\n      jump\t// in\n    tag_174:\n    tag_173:\n      swap1\n      0x00\n      mstore\n      keccak256(0x00, 0x20)\n      add\n      0x00\n        /* \"main.sol\":2906:2976  oracleAddressList[i] = oracleAddressList[oracleAddressList.length - 1] */\n      0x0100\n      exp\n      dup2\n      sload\n      dup2\n      0xffffffffffffffffffffffffffffffffffffffff\n      mul\n      not\n      and\n      swap1\n      dup4\n      0xffffffffffffffffffffffffffffffffffffffff\n      and\n      mul\n      or\n      swap1\n      sstore\n      pop\n        /* \"main.sol\":2994:3011  oracleAddressList */\n      0x00\n        /* \"main.sol\":2994:3017  oracleAddressList.pop() */\n      dup1\n      sload\n      dup1\n      tag_176\n      jumpi\n      tag_177\n      tag_178\n      jump\t// in\n    tag_177:\n    tag_176:\n      0x01\n      swap1\n      sub\n      dup2\n      dup2\n      swap1\n      0x00\n      mstore\n      keccak256(0x00, 0x20)\n      add\n      exp(0x0100, 0x00)\n      dup2\n      sload\n      swap1\n      0xffffffffffffffffffffffffffffffffffffffff\n      mul\n      not\n      and\n      swap1\n      sstore\n      swap1\n      sstore\n        /* \"main.sol\":3035:3040  break */\n      jump(tag_163)\n        /* \"main.sol\":2849:3055  if (oracleAddressList[i] == node_name) {... */\n    tag_168:\n        /* \"main.sol\":2830:2833  i++ */\n      dup1\n      dup1\n      0x01\n      add\n      swap2\n      pop\n      pop\n        /* \"main.sol\":2780:3065  for (uint256 i = 0; i < oracleAddressList.length; i++) {... */\n      jump(tag_162)\n    tag_163:\n      pop\n        /* \"main.sol\":3081:3085  true */\n      0x01\n        /* \"main.sol\":3074:3085  return true */\n      swap1\n      pop\n        /* \"main.sol\":2708:3092  function removeItem(address node_name) private returns (bool) {... */\n      swap2\n      swap1\n      pop\n      jump\t// out\n    tag_124:\n      dup3\n      dup1\n      sload\n      dup3\n      dup3\n      sstore\n      swap1\n      0x00\n      mstore\n      keccak256(0x00, 0x20)\n      swap1\n      dup2\n      add\n      swap3\n      dup3\n      iszero\n      tag_180\n      jumpi\n      swap2\n      0x20\n      mul\n      dup3\n      add\n    tag_181:\n      dup3\n      dup2\n      gt\n      iszero\n      tag_182\n      jumpi\n      dup3\n      mload\n      dup3\n      sstore\n      swap2\n      0x20\n      add\n      swap2\n      swap1\n      0x01\n      add\n      swap1\n      jump(tag_181)\n    tag_182:\n    tag_180:\n      pop\n      swap1\n      pop\n      tag_183\n      swap2\n      swap1\n      tag_184\n      jump\t// in\n    tag_183:\n      pop\n      swap1\n      jump\t// out\n    tag_126:\n      dup3\n      dup1\n      sload\n      dup3\n      dup3\n      sstore\n      swap1\n      0x00\n      mstore\n      keccak256(0x00, 0x20)\n      swap1\n      dup2\n      add\n      swap3\n      dup3\n      iszero\n      tag_185\n      jumpi\n      swap2\n      0x20\n      mul\n      dup3\n      add\n    tag_186:\n      dup3\n      dup2\n      gt\n      iszero\n      tag_187\n      jumpi\n      dup3\n      mload\n      dup3\n      exp(0x0100, 0x00)\n      dup2\n      sload\n      dup2\n      0xffffffffffffffffffffffffffffffffffffffff\n      mul\n      not\n      and\n      swap1\n      dup4\n      0xffffffffffffffffffffffffffffffffffffffff\n      and\n      mul\n      or\n      swap1\n      sstore\n      pop\n      swap2\n      0x20\n      add\n      swap2\n      swap1\n      0x01\n      add\n      swap1\n      jump(tag_186)\n    tag_187:\n    tag_185:\n      pop\n      swap1\n      pop\n      tag_188\n      swap2\n      swap1\n      tag_184\n      jump\t// in\n    tag_188:\n      pop\n      swap1\n      jump\t// out\n    tag_184:\n    tag_189:\n      dup1\n      dup3\n      gt\n      iszero\n      tag_190\n      jumpi\n      0x00\n      dup2\n      0x00\n      swap1\n      sstore\n      pop\n      0x01\n      add\n      jump(tag_189)\n    tag_190:\n      pop\n      swap1\n      jump\t// out\n        /* \"#utility.yul\":7:84   */\n    tag_191:\n        /* \"#utility.yul\":44:51   */\n      0x00\n        /* \"#utility.yul\":73:78   */\n      dup2\n        /* \"#utility.yul\":62:78   */\n      swap1\n      pop\n        /* \"#utility.yul\":7:84   */\n      swap2\n      swap1\n      pop\n      jump\t// out\n        /* \"#utility.yul\":90:208   */\n    tag_192:\n        /* \"#utility.yul\":177:201   */\n      tag_248\n        /* \"#utility.yul\":195:200   */\n      dup2\n        /* \"#utility.yul\":177:201   */\n      tag_191\n      jump\t// in\n    tag_248:\n        /* \"#utility.yul\":172:175   */\n      dup3\n        /* \"#utility.yul\":165:202   */\n      mstore\n        /* \"#utility.yul\":90:208   */\n      pop\n      pop\n      jump\t// out\n        /* \"#utility.yul\":214:436   */\n    tag_16:\n        /* \"#utility.yul\":307:311   */\n      0x00\n        /* \"#utility.yul\":345:347   */\n      0x20\n        /* \"#utility.yul\":334:343   */\n      dup3\n        /* \"#utility.yul\":330:348   */\n      add\n        /* \"#utility.yul\":322:348   */\n      swap1\n      pop\n        /* \"#utility.yul\":358:429   */\n      tag_250\n        /* \"#utility.yul\":426:427   */\n      0x00\n        /* \"#utility.yul\":415:424   */\n      dup4\n        /* \"#utility.yul\":411:428   */\n      add\n        /* \"#utility.yul\":402:408   */\n      dup5\n        /* \"#utility.yul\":358:429   */\n      tag_192\n      jump\t// in\n    tag_250:\n        /* \"#utility.yul\":214:436   */\n      swap3\n      swap2\n      pop\n      pop\n      jump\t// out\n        /* \"#utility.yul\":442:517   */\n    tag_193:\n        /* \"#utility.yul\":475:481   */\n      0x00\n        /* \"#utility.yul\":508:510   */\n      0x40\n        /* \"#utility.yul\":502:511   */\n      mload\n        /* \"#utility.yul\":492:511   */\n      swap1\n      pop\n        /* \"#utility.yul\":442:517   */\n      swap1\n      jump\t// out\n        /* \"#utility.yul\":523:640   */\n    tag_194:\n        /* \"#utility.yul\":632:633   */\n      0x00\n        /* \"#utility.yul\":629:630   */\n      0x00\n        /* \"#utility.yul\":622:634   */\n      revert\n        /* \"#utility.yul\":646:763   */\n    tag_195:\n        /* \"#utility.yul\":755:756   */\n      0x00\n        /* \"#utility.yul\":752:753   */\n      0x00\n        /* \"#utility.yul\":745:757   */\n      revert\n        /* \"#utility.yul\":769:891   */\n    tag_196:\n        /* \"#utility.yul\":842:866   */\n      tag_255\n        /* \"#utility.yul\":860:865   */\n      dup2\n        /* \"#utility.yul\":842:866   */\n      tag_191\n      jump\t// in\n    tag_255:\n        /* \"#utility.yul\":835:840   */\n      dup2\n        /* \"#utility.yul\":832:867   */\n      eq\n        /* \"#utility.yul\":822:885   */\n      tag_256\n      jumpi\n        /* \"#utility.yul\":881:882   */\n      0x00\n        /* \"#utility.yul\":878:879   */\n      0x00\n        /* \"#utility.yul\":871:883   */\n      revert\n        /* \"#utility.yul\":822:885   */\n    tag_256:\n        /* \"#utility.yul\":769:891   */\n      pop\n      jump\t// out\n        /* \"#utility.yul\":897:1036   */\n    tag_197:\n        /* \"#utility.yul\":943:948   */\n      0x00\n        /* \"#utility.yul\":981:987   */\n      dup2\n        /* \"#utility.yul\":968:988   */\n      calldataload\n        /* \"#utility.yul\":959:988   */\n      swap1\n      pop\n        /* \"#utility.yul\":997:1030   */\n      tag_258\n        /* \"#utility.yul\":1024:1029   */\n      dup2\n        /* \"#utility.yul\":997:1030   */\n      tag_196\n      jump\t// in\n    tag_258:\n        /* \"#utility.yul\":897:1036   */\n      swap3\n      swap2\n      pop\n      pop\n      jump\t// out\n        /* \"#utility.yul\":1042:1516   */\n    tag_19:\n        /* \"#utility.yul\":1110:1116   */\n      0x00\n        /* \"#utility.yul\":1118:1124   */\n      0x00\n        /* \"#utility.yul\":1167:1169   */\n      0x40\n        /* \"#utility.yul\":1155:1164   */\n      dup4\n        /* \"#utility.yul\":1146:1153   */\n      dup6\n        /* \"#utility.yul\":1142:1165   */\n      sub\n        /* \"#utility.yul\":1138:1170   */\n      slt\n        /* \"#utility.yul\":1135:1254   */\n      iszero\n      tag_260\n      jumpi\n        /* \"#utility.yul\":1173:1252   */\n      tag_261\n      tag_194\n      jump\t// in\n    tag_261:\n        /* \"#utility.yul\":1135:1254   */\n    tag_260:\n        /* \"#utility.yul\":1293:1294   */\n      0x00\n        /* \"#utility.yul\":1318:1371   */\n      tag_262\n        /* \"#utility.yul\":1363:1370   */\n      dup6\n        /* \"#utility.yul\":1354:1360   */\n      dup3\n        /* \"#utility.yul\":1343:1352   */\n      dup7\n        /* \"#utility.yul\":1339:1361   */\n      add\n        /* \"#utility.yul\":1318:1371   */\n      tag_197\n      jump\t// in\n    tag_262:\n        /* \"#utility.yul\":1308:1371   */\n      swap3\n      pop\n        /* \"#utility.yul\":1264:1381   */\n      pop\n        /* \"#utility.yul\":1420:1422   */\n      0x20\n        /* \"#utility.yul\":1446:1499   */\n      tag_263\n        /* \"#utility.yul\":1491:1498   */\n      dup6\n        /* \"#utility.yul\":1482:1488   */\n      dup3\n        /* \"#utility.yul\":1471:1480   */\n      dup7\n        /* \"#utility.yul\":1467:1489   */\n      add\n        /* \"#utility.yul\":1446:1499   */\n      tag_197\n      jump\t// in\n    tag_263:\n        /* \"#utility.yul\":1436:1499   */\n      swap2\n      pop\n        /* \"#utility.yul\":1391:1509   */\n      pop\n        /* \"#utility.yul\":1042:1516   */\n      swap3\n      pop\n      swap3\n      swap1\n      pop\n      jump\t// out\n        /* \"#utility.yul\":1522:1612   */\n    tag_198:\n        /* \"#utility.yul\":1556:1563   */\n      0x00\n        /* \"#utility.yul\":1599:1604   */\n      dup2\n        /* \"#utility.yul\":1592:1605   */\n      iszero\n        /* \"#utility.yul\":1585:1606   */\n      iszero\n        /* \"#utility.yul\":1574:1606   */\n      swap1\n      pop\n        /* \"#utility.yul\":1522:1612   */\n      swap2\n      swap1\n      pop\n      jump\t// out\n        /* \"#utility.yul\":1618:1727   */\n    tag_199:\n        /* \"#utility.yul\":1699:1720   */\n      tag_266\n        /* \"#utility.yul\":1714:1719   */\n      dup2\n        /* \"#utility.yul\":1699:1720   */\n      tag_198\n      jump\t// in\n    tag_266:\n        /* \"#utility.yul\":1694:1697   */\n      dup3\n        /* \"#utility.yul\":1687:1721   */\n      mstore\n        /* \"#utility.yul\":1618:1727   */\n      pop\n      pop\n      jump\t// out\n        /* \"#utility.yul\":1733:2053   */\n    tag_22:\n        /* \"#utility.yul\":1848:1852   */\n      0x00\n        /* \"#utility.yul\":1886:1888   */\n      0x40\n        /* \"#utility.yul\":1875:1884   */\n      dup3\n        /* \"#utility.yul\":1871:1889   */\n      add\n        /* \"#utility.yul\":1863:1889   */\n      swap1\n      pop\n        /* \"#utility.yul\":1899:1970   */\n      tag_268\n        /* \"#utility.yul\":1967:1968   */\n      0x00\n        /* \"#utility.yul\":1956:1965   */\n      dup4\n        /* \"#utility.yul\":1952:1969   */\n      add\n        /* \"#utility.yul\":1943:1949   */\n      dup6\n        /* \"#utility.yul\":1899:1970   */\n      tag_192\n      jump\t// in\n    tag_268:\n        /* \"#utility.yul\":1980:2046   */\n      tag_269\n        /* \"#utility.yul\":2042:2044   */\n      0x20\n        /* \"#utility.yul\":2031:2040   */\n      dup4\n        /* \"#utility.yul\":2027:2045   */\n      add\n        /* \"#utility.yul\":2018:2024   */\n      dup5\n        /* \"#utility.yul\":1980:2046   */\n      tag_199\n      jump\t// in\n    tag_269:\n        /* \"#utility.yul\":1733:2053   */\n      swap4\n      swap3\n      pop\n      pop\n      pop\n      jump\t// out\n        /* \"#utility.yul\":2059:2185   */\n    tag_200:\n        /* \"#utility.yul\":2096:2103   */\n      0x00\n        /* \"#utility.yul\":2136:2178   */\n      0xffffffffffffffffffffffffffffffffffffffff\n        /* \"#utility.yul\":2129:2134   */\n      dup3\n        /* \"#utility.yul\":2125:2179   */\n      and\n        /* \"#utility.yul\":2114:2179   */\n      swap1\n      pop\n        /* \"#utility.yul\":2059:2185   */\n      swap2\n      swap1\n      pop\n      jump\t// out\n        /* \"#utility.yul\":2191:2287   */\n    tag_201:\n        /* \"#utility.yul\":2228:2235   */\n      0x00\n        /* \"#utility.yul\":2257:2281   */\n      tag_272\n        /* \"#utility.yul\":2275:2280   */\n      dup3\n        /* \"#utility.yul\":2257:2281   */\n      tag_200\n      jump\t// in\n    tag_272:\n        /* \"#utility.yul\":2246:2281   */\n      swap1\n      pop\n        /* \"#utility.yul\":2191:2287   */\n      swap2\n      swap1\n      pop\n      jump\t// out\n        /* \"#utility.yul\":2293:2415   */\n    tag_202:\n        /* \"#utility.yul\":2366:2390   */\n      tag_274\n        /* \"#utility.yul\":2384:2389   */\n      dup2\n        /* \"#utility.yul\":2366:2390   */\n      tag_201\n      jump\t// in\n    tag_274:\n        /* \"#utility.yul\":2359:2364   */\n      dup2\n        /* \"#utility.yul\":2356:2391   */\n      eq\n        /* \"#utility.yul\":2346:2409   */\n      tag_275\n      jumpi\n        /* \"#utility.yul\":2405:2406   */\n      0x00\n        /* \"#utility.yul\":2402:2403   */\n      0x00\n        /* \"#utility.yul\":2395:2407   */\n      revert\n        /* \"#utility.yul\":2346:2409   */\n    tag_275:\n        /* \"#utility.yul\":2293:2415   */\n      pop\n      jump\t// out\n        /* \"#utility.yul\":2421:2560   */\n    tag_203:\n        /* \"#utility.yul\":2467:2472   */\n      0x00\n        /* \"#utility.yul\":2505:2511   */\n      dup2\n        /* \"#utility.yul\":2492:2512   */\n      calldataload\n        /* \"#utility.yul\":2483:2512   */\n      swap1\n      pop\n        /* \"#utility.yul\":2521:2554   */\n      tag_277\n        /* \"#utility.yul\":2548:2553   */\n      dup2\n        /* \"#utility.yul\":2521:2554   */\n      tag_202\n      jump\t// in\n    tag_277:\n        /* \"#utility.yul\":2421:2560   */\n      swap3\n      swap2\n      pop\n      pop\n      jump\t// out\n        /* \"#utility.yul\":2566:2895   */\n    tag_28:\n        /* \"#utility.yul\":2625:2631   */\n      0x00\n        /* \"#utility.yul\":2674:2676   */\n      0x20\n        /* \"#utility.yul\":2662:2671   */\n      dup3\n        /* \"#utility.yul\":2653:2660   */\n      dup5\n        /* \"#utility.yul\":2649:2672   */\n      sub\n        /* \"#utility.yul\":2645:2677   */\n      slt\n        /* \"#utility.yul\":2642:2761   */\n      iszero\n      tag_279\n      jumpi\n        /* \"#utility.yul\":2680:2759   */\n      tag_280\n      tag_194\n      jump\t// in\n    tag_280:\n        /* \"#utility.yul\":2642:2761   */\n    tag_279:\n        /* \"#utility.yul\":2800:2801   */\n      0x00\n        /* \"#utility.yul\":2825:2878   */\n      tag_281\n        /* \"#utility.yul\":2870:2877   */\n      dup5\n        /* \"#utility.yul\":2861:2867   */\n      dup3\n        /* \"#utility.yul\":2850:2859   */\n      dup6\n        /* \"#utility.yul\":2846:2868   */\n      add\n        /* \"#utility.yul\":2825:2878   */\n      tag_203\n      jump\t// in\n    tag_281:\n        /* \"#utility.yul\":2815:2878   */\n      swap2\n      pop\n        /* \"#utility.yul\":2771:2888   */\n      pop\n        /* \"#utility.yul\":2566:2895   */\n      swap3\n      swap2\n      pop\n      pop\n      jump\t// out\n        /* \"#utility.yul\":2901:3230   */\n    tag_36:\n        /* \"#utility.yul\":2960:2966   */\n      0x00\n        /* \"#utility.yul\":3009:3011   */\n      0x20\n        /* \"#utility.yul\":2997:3006   */\n      dup3\n        /* \"#utility.yul\":2988:2995   */\n      dup5\n        /* \"#utility.yul\":2984:3007   */\n      sub\n        /* \"#utility.yul\":2980:3012   */\n      slt\n        /* \"#utility.yul\":2977:3096   */\n      iszero\n      tag_283\n      jumpi\n        /* \"#utility.yul\":3015:3094   */\n      tag_284\n      tag_194\n      jump\t// in\n    tag_284:\n        /* \"#utility.yul\":2977:3096   */\n    tag_283:\n        /* \"#utility.yul\":3135:3136   */\n      0x00\n        /* \"#utility.yul\":3160:3213   */\n      tag_285\n        /* \"#utility.yul\":3205:3212   */\n      dup5\n        /* \"#utility.yul\":3196:3202   */\n      dup3\n        /* \"#utility.yul\":3185:3194   */\n      dup6\n        /* \"#utility.yul\":3181:3203   */\n      add\n        /* \"#utility.yul\":3160:3213   */\n      tag_197\n      jump\t// in\n    tag_285:\n        /* \"#utility.yul\":3150:3213   */\n      swap2\n      pop\n        /* \"#utility.yul\":3106:3223   */\n      pop\n        /* \"#utility.yul\":2901:3230   */\n      swap3\n      swap2\n      pop\n      pop\n      jump\t// out\n        /* \"#utility.yul\":3236:3354   */\n    tag_204:\n        /* \"#utility.yul\":3323:3347   */\n      tag_287\n        /* \"#utility.yul\":3341:3346   */\n      dup2\n        /* \"#utility.yul\":3323:3347   */\n      tag_201\n      jump\t// in\n    tag_287:\n        /* \"#utility.yul\":3318:3321   */\n      dup3\n        /* \"#utility.yul\":3311:3348   */\n      mstore\n        /* \"#utility.yul\":3236:3354   */\n      pop\n      pop\n      jump\t// out\n        /* \"#utility.yul\":3360:3582   */\n    tag_39:\n        /* \"#utility.yul\":3453:3457   */\n      0x00\n        /* \"#utility.yul\":3491:3493   */\n      0x20\n        /* \"#utility.yul\":3480:3489   */\n      dup3\n        /* \"#utility.yul\":3476:3494   */\n      add\n        /* \"#utility.yul\":3468:3494   */\n      swap1\n      pop\n        /* \"#utility.yul\":3504:3575   */\n      tag_289\n        /* \"#utility.yul\":3572:3573   */\n      0x00\n        /* \"#utility.yul\":3561:3570   */\n      dup4\n        /* \"#utility.yul\":3557:3574   */\n      add\n        /* \"#utility.yul\":3548:3554   */\n      dup5\n        /* \"#utility.yul\":3504:3575   */\n      tag_204\n      jump\t// in\n    tag_289:\n        /* \"#utility.yul\":3360:3582   */\n      swap3\n      swap2\n      pop\n      pop\n      jump\t// out\n        /* \"#utility.yul\":3588:3798   */\n    tag_43:\n        /* \"#utility.yul\":3675:3679   */\n      0x00\n        /* \"#utility.yul\":3713:3715   */\n      0x20\n        /* \"#utility.yul\":3702:3711   */\n      dup3\n        /* \"#utility.yul\":3698:3716   */\n      add\n        /* \"#utility.yul\":3690:3716   */\n      swap1\n      pop\n        /* \"#utility.yul\":3726:3791   */\n      tag_291\n        /* \"#utility.yul\":3788:3789   */\n      0x00\n        /* \"#utility.yul\":3777:3786   */\n      dup4\n        /* \"#utility.yul\":3773:3790   */\n      add\n        /* \"#utility.yul\":3764:3770   */\n      dup5\n        /* \"#utility.yul\":3726:3791   */\n      tag_199\n      jump\t// in\n    tag_291:\n        /* \"#utility.yul\":3588:3798   */\n      swap3\n      swap2\n      pop\n      pop\n      jump\t// out\n        /* \"#utility.yul\":3804:3921   */\n    tag_205:\n        /* \"#utility.yul\":3913:3914   */\n      0x00\n        /* \"#utility.yul\":3910:3911   */\n      0x00\n        /* \"#utility.yul\":3903:3915   */\n      revert\n        /* \"#utility.yul\":3927:4044   */\n    tag_206:\n        /* \"#utility.yul\":4036:4037   */\n      0x00\n        /* \"#utility.yul\":4033:4034   */\n      0x00\n        /* \"#utility.yul\":4026:4038   */\n      revert\n        /* \"#utility.yul\":4050:4152   */\n    tag_207:\n        /* \"#utility.yul\":4091:4097   */\n      0x00\n        /* \"#utility.yul\":4142:4144   */\n      0x1f\n        /* \"#utility.yul\":4138:4145   */\n      not\n        /* \"#utility.yul\":4133:4135   */\n      0x1f\n        /* \"#utility.yul\":4126:4131   */\n      dup4\n        /* \"#utility.yul\":4122:4136   */\n      add\n        /* \"#utility.yul\":4118:4146   */\n      and\n        /* \"#utility.yul\":4108:4146   */\n      swap1\n      pop\n        /* \"#utility.yul\":4050:4152   */\n      swap2\n      swap1\n      pop\n      jump\t// out\n        /* \"#utility.yul\":4158:4338   */\n    tag_116:\n        /* \"#utility.yul\":4206:4283   */\n      0x4e487b7100000000000000000000000000000000000000000000000000000000\n        /* \"#utility.yul\":4203:4204   */\n      0x00\n        /* \"#utility.yul\":4196:4284   */\n      mstore\n        /* \"#utility.yul\":4303:4307   */\n      0x41\n        /* \"#utility.yul\":4300:4301   */\n      0x04\n        /* \"#utility.yul\":4293:4308   */\n      mstore\n        /* \"#utility.yul\":4327:4331   */\n      0x24\n        /* \"#utility.yul\":4324:4325   */\n      0x00\n        /* \"#utility.yul\":4317:4332   */\n      revert\n        /* \"#utility.yul\":4344:4625   */\n    tag_208:\n        /* \"#utility.yul\":4427:4454   */\n      tag_297\n        /* \"#utility.yul\":4449:4453   */\n      dup3\n        /* \"#utility.yul\":4427:4454   */\n      tag_207\n      jump\t// in\n    tag_297:\n        /* \"#utility.yul\":4419:4425   */\n      dup2\n        /* \"#utility.yul\":4415:4455   */\n      add\n        /* \"#utility.yul\":4557:4563   */\n      dup2\n        /* \"#utility.yul\":4545:4555   */\n      dup2\n        /* \"#utility.yul\":4542:4564   */\n      lt\n        /* \"#utility.yul\":4521:4539   */\n      0xffffffffffffffff\n        /* \"#utility.yul\":4509:4519   */\n      dup3\n        /* \"#utility.yul\":4506:4540   */\n      gt\n        /* \"#utility.yul\":4503:4565   */\n      or\n        /* \"#utility.yul\":4500:4588   */\n      iszero\n      tag_298\n      jumpi\n        /* \"#utility.yul\":4568:4586   */\n      tag_299\n      tag_116\n      jump\t// in\n    tag_299:\n        /* \"#utility.yul\":4500:4588   */\n    tag_298:\n        /* \"#utility.yul\":4608:4618   */\n      dup1\n        /* \"#utility.yul\":4604:4606   */\n      0x40\n        /* \"#utility.yul\":4597:4619   */\n      mstore\n        /* \"#utility.yul\":4387:4625   */\n      pop\n        /* \"#utility.yul\":4344:4625   */\n      pop\n      pop\n      jump\t// out\n        /* \"#utility.yul\":4631:4760   */\n    tag_209:\n        /* \"#utility.yul\":4665:4671   */\n      0x00\n        /* \"#utility.yul\":4692:4712   */\n      tag_301\n      tag_193\n      jump\t// in\n    tag_301:\n        /* \"#utility.yul\":4682:4712   */\n      swap1\n      pop\n        /* \"#utility.yul\":4721:4754   */\n      tag_302\n        /* \"#utility.yul\":4749:4753   */\n      dup3\n        /* \"#utility.yul\":4741:4747   */\n      dup3\n        /* \"#utility.yul\":4721:4754   */\n      tag_208\n      jump\t// in\n    tag_302:\n        /* \"#utility.yul\":4631:4760   */\n      swap2\n      swap1\n      pop\n      jump\t// out\n        /* \"#utility.yul\":4766:5074   */\n    tag_210:\n        /* \"#utility.yul\":4828:4832   */\n      0x00\n        /* \"#utility.yul\":4918:4936   */\n      0xffffffffffffffff\n        /* \"#utility.yul\":4910:4916   */\n      dup3\n        /* \"#utility.yul\":4907:4937   */\n      gt\n        /* \"#utility.yul\":4904:4960   */\n      iszero\n      tag_304\n      jumpi\n        /* \"#utility.yul\":4940:4958   */\n      tag_305\n      tag_116\n      jump\t// in\n    tag_305:\n        /* \"#utility.yul\":4904:4960   */\n    tag_304:\n        /* \"#utility.yul\":4978:5007   */\n      tag_306\n        /* \"#utility.yul\":5000:5006   */\n      dup3\n        /* \"#utility.yul\":4978:5007   */\n      tag_207\n      jump\t// in\n    tag_306:\n        /* \"#utility.yul\":4970:5007   */\n      swap1\n      pop\n        /* \"#utility.yul\":5062:5066   */\n      0x20\n        /* \"#utility.yul\":5056:5060   */\n      dup2\n        /* \"#utility.yul\":5052:5067   */\n      add\n        /* \"#utility.yul\":5044:5067   */\n      swap1\n      pop\n        /* \"#utility.yul\":4766:5074   */\n      swap2\n      swap1\n      pop\n      jump\t// out\n        /* \"#utility.yul\":5080:5228   */\n    tag_211:\n        /* \"#utility.yul\":5178:5184   */\n      dup3\n        /* \"#utility.yul\":5173:5176   */\n      dup2\n        /* \"#utility.yul\":5168:5171   */\n      dup4\n        /* \"#utility.yul\":5155:5185   */\n      calldatacopy\n        /* \"#utility.yul\":5219:5220   */\n      0x00\n        /* \"#utility.yul\":5210:5216   */\n      dup4\n        /* \"#utility.yul\":5205:5208   */\n      dup4\n        /* \"#utility.yul\":5201:5217   */\n      add\n        /* \"#utility.yul\":5194:5221   */\n      mstore\n        /* \"#utility.yul\":5080:5228   */\n      pop\n      pop\n      pop\n      jump\t// out\n        /* \"#utility.yul\":5234:5659   */\n    tag_212:\n        /* \"#utility.yul\":5312:5317   */\n      0x00\n        /* \"#utility.yul\":5337:5403   */\n      tag_309\n        /* \"#utility.yul\":5353:5402   */\n      tag_310\n        /* \"#utility.yul\":5395:5401   */\n      dup5\n        /* \"#utility.yul\":5353:5402   */\n      tag_210\n      jump\t// in\n    tag_310:\n        /* \"#utility.yul\":5337:5403   */\n      tag_209\n      jump\t// in\n    tag_309:\n        /* \"#utility.yul\":5328:5403   */\n      swap1\n      pop\n        /* \"#utility.yul\":5426:5432   */\n      dup3\n        /* \"#utility.yul\":5419:5424   */\n      dup2\n        /* \"#utility.yul\":5412:5433   */\n      mstore\n        /* \"#utility.yul\":5464:5468   */\n      0x20\n        /* \"#utility.yul\":5457:5462   */\n      dup2\n        /* \"#utility.yul\":5453:5469   */\n      add\n        /* \"#utility.yul\":5502:5505   */\n      dup5\n        /* \"#utility.yul\":5493:5499   */\n      dup5\n        /* \"#utility.yul\":5488:5491   */\n      dup5\n        /* \"#utility.yul\":5484:5500   */\n      add\n        /* \"#utility.yul\":5481:5506   */\n      gt\n        /* \"#utility.yul\":5478:5590   */\n      iszero\n      tag_311\n      jumpi\n        /* \"#utility.yul\":5509:5588   */\n      tag_312\n      tag_206\n      jump\t// in\n    tag_312:\n        /* \"#utility.yul\":5478:5590   */\n    tag_311:\n        /* \"#utility.yul\":5599:5653   */\n      tag_313\n        /* \"#utility.yul\":5646:5652   */\n      dup5\n        /* \"#utility.yul\":5641:5644   */\n      dup3\n        /* \"#utility.yul\":5636:5639   */\n      dup6\n        /* \"#utility.yul\":5599:5653   */\n      tag_211\n      jump\t// in\n    tag_313:\n        /* \"#utility.yul\":5318:5659   */\n      pop\n        /* \"#utility.yul\":5234:5659   */\n      swap4\n      swap3\n      pop\n      pop\n      pop\n      jump\t// out\n        /* \"#utility.yul\":5679:6019   */\n    tag_213:\n        /* \"#utility.yul\":5735:5740   */\n      0x00\n        /* \"#utility.yul\":5784:5787   */\n      dup3\n        /* \"#utility.yul\":5777:5781   */\n      0x1f\n        /* \"#utility.yul\":5769:5775   */\n      dup4\n        /* \"#utility.yul\":5765:5782   */\n      add\n        /* \"#utility.yul\":5761:5788   */\n      slt\n        /* \"#utility.yul\":5751:5873   */\n      tag_315\n      jumpi\n        /* \"#utility.yul\":5792:5871   */\n      tag_316\n      tag_205\n      jump\t// in\n    tag_316:\n        /* \"#utility.yul\":5751:5873   */\n    tag_315:\n        /* \"#utility.yul\":5909:5915   */\n      dup2\n        /* \"#utility.yul\":5896:5916   */\n      calldataload\n        /* \"#utility.yul\":5934:6013   */\n      tag_317\n        /* \"#utility.yul\":6009:6012   */\n      dup5\n        /* \"#utility.yul\":6001:6007   */\n      dup3\n        /* \"#utility.yul\":5994:5998   */\n      0x20\n        /* \"#utility.yul\":5986:5992   */\n      dup7\n        /* \"#utility.yul\":5982:5999   */\n      add\n        /* \"#utility.yul\":5934:6013   */\n      tag_212\n      jump\t// in\n    tag_317:\n        /* \"#utility.yul\":5925:6013   */\n      swap2\n      pop\n        /* \"#utility.yul\":5741:6019   */\n      pop\n        /* \"#utility.yul\":5679:6019   */\n      swap3\n      swap2\n      pop\n      pop\n      jump\t// out\n        /* \"#utility.yul\":6025:6679   */\n    tag_46:\n        /* \"#utility.yul\":6103:6109   */\n      0x00\n        /* \"#utility.yul\":6111:6117   */\n      0x00\n        /* \"#utility.yul\":6160:6162   */\n      0x40\n        /* \"#utility.yul\":6148:6157   */\n      dup4\n        /* \"#utility.yul\":6139:6146   */\n      dup6\n        /* \"#utility.yul\":6135:6158   */\n      sub\n        /* \"#utility.yul\":6131:6163   */\n      slt\n        /* \"#utility.yul\":6128:6247   */\n      iszero\n      tag_319\n      jumpi\n        /* \"#utility.yul\":6166:6245   */\n      tag_320\n      tag_194\n      jump\t// in\n    tag_320:\n        /* \"#utility.yul\":6128:6247   */\n    tag_319:\n        /* \"#utility.yul\":6314:6315   */\n      0x00\n        /* \"#utility.yul\":6303:6312   */\n      dup4\n        /* \"#utility.yul\":6299:6316   */\n      add\n        /* \"#utility.yul\":6286:6317   */\n      calldataload\n        /* \"#utility.yul\":6344:6362   */\n      0xffffffffffffffff\n        /* \"#utility.yul\":6336:6342   */\n      dup2\n        /* \"#utility.yul\":6333:6363   */\n      gt\n        /* \"#utility.yul\":6330:6447   */\n      iszero\n      tag_321\n      jumpi\n        /* \"#utility.yul\":6366:6445   */\n      tag_322\n      tag_195\n      jump\t// in\n    tag_322:\n        /* \"#utility.yul\":6330:6447   */\n    tag_321:\n        /* \"#utility.yul\":6471:6534   */\n      tag_323\n        /* \"#utility.yul\":6526:6533   */\n      dup6\n        /* \"#utility.yul\":6517:6523   */\n      dup3\n        /* \"#utility.yul\":6506:6515   */\n      dup7\n        /* \"#utility.yul\":6502:6524   */\n      add\n        /* \"#utility.yul\":6471:6534   */\n      tag_213\n      jump\t// in\n    tag_323:\n        /* \"#utility.yul\":6461:6534   */\n      swap3\n      pop\n        /* \"#utility.yul\":6257:6544   */\n      pop\n        /* \"#utility.yul\":6583:6585   */\n      0x20\n        /* \"#utility.yul\":6609:6662   */\n      tag_324\n        /* \"#utility.yul\":6654:6661   */\n      dup6\n        /* \"#utility.yul\":6645:6651   */\n      dup3\n        /* \"#utility.yul\":6634:6643   */\n      dup7\n        /* \"#utility.yul\":6630:6652   */\n      add\n        /* \"#utility.yul\":6609:6662   */\n      tag_197\n      jump\t// in\n    tag_324:\n        /* \"#utility.yul\":6599:6662   */\n      swap2\n      pop\n        /* \"#utility.yul\":6554:6672   */\n      pop\n        /* \"#utility.yul\":6025:6679   */\n      swap3\n      pop\n      swap3\n      swap1\n      pop\n      jump\t// out\n        /* \"#utility.yul\":6685:6865   */\n    tag_58:\n        /* \"#utility.yul\":6733:6810   */\n      0x4e487b7100000000000000000000000000000000000000000000000000000000\n        /* \"#utility.yul\":6730:6731   */\n      0x00\n        /* \"#utility.yul\":6723:6811   */\n      mstore\n        /* \"#utility.yul\":6830:6834   */\n      0x32\n        /* \"#utility.yul\":6827:6828   */\n      0x04\n        /* \"#utility.yul\":6820:6835   */\n      mstore\n        /* \"#utility.yul\":6854:6858   */\n      0x24\n        /* \"#utility.yul\":6851:6852   */\n      0x00\n        /* \"#utility.yul\":6844:6859   */\n      revert\n        /* \"#utility.yul\":6871:7051   */\n    tag_214:\n        /* \"#utility.yul\":6919:6996   */\n      0x4e487b7100000000000000000000000000000000000000000000000000000000\n        /* \"#utility.yul\":6916:6917   */\n      0x00\n        /* \"#utility.yul\":6909:6997   */\n      mstore\n        /* \"#utility.yul\":7016:7020   */\n      0x11\n        /* \"#utility.yul\":7013:7014   */\n      0x04\n        /* \"#utility.yul\":7006:7021   */\n      mstore\n        /* \"#utility.yul\":7040:7044   */\n      0x24\n        /* \"#utility.yul\":7037:7038   */\n      0x00\n        /* \"#utility.yul\":7030:7045   */\n      revert\n        /* \"#utility.yul\":7057:7290   */\n    tag_64:\n        /* \"#utility.yul\":7096:7099   */\n      0x00\n        /* \"#utility.yul\":7119:7143   */\n      tag_328\n        /* \"#utility.yul\":7137:7142   */\n      dup3\n        /* \"#utility.yul\":7119:7143   */\n      tag_191\n      jump\t// in\n    tag_328:\n        /* \"#utility.yul\":7110:7143   */\n      swap2\n      pop\n        /* \"#utility.yul\":7165:7231   */\n      0xffffffffffffffffffffffffffffffffffffffffffffffffffffffffffffffff\n        /* \"#utility.yul\":7158:7163   */\n      dup3\n        /* \"#utility.yul\":7155:7232   */\n      sub\n        /* \"#utility.yul\":7152:7255   */\n      tag_329\n      jumpi\n        /* \"#utility.yul\":7235:7253   */\n      tag_330\n      tag_214\n      jump\t// in\n    tag_330:\n        /* \"#utility.yul\":7152:7255   */\n    tag_329:\n        /* \"#utility.yul\":7282:7283   */\n      0x01\n        /* \"#utility.yul\":7275:7280   */\n      dup3\n        /* \"#utility.yul\":7271:7284   */\n      add\n        /* \"#utility.yul\":7264:7284   */\n      swap1\n      pop\n        /* \"#utility.yul\":7057:7290   */\n      swap2\n      swap1\n      pop\n      jump\t// out\n        /* \"#utility.yul\":7296:7706   */\n    tag_66:\n        /* \"#utility.yul\":7336:7343   */\n      0x00\n        /* \"#utility.yul\":7359:7379   */\n      tag_332\n        /* \"#utility.yul\":7377:7378   */\n      dup3\n        /* \"#utility.yul\":7359:7379   */\n      tag_191\n      jump\t// in\n    tag_332:\n        /* \"#utility.yul\":7354:7379   */\n      swap2\n      pop\n        /* \"#utility.yul\":7393:7413   */\n      tag_333\n        /* \"#utility.yul\":7411:7412   */\n      dup4\n        /* \"#utility.yul\":7393:7413   */\n      tag_191\n      jump\t// in\n    tag_333:\n        /* \"#utility.yul\":7388:7413   */\n      swap3\n      pop\n        /* \"#utility.yul\":7448:7449   */\n      dup3\n        /* \"#utility.yul\":7445:7446   */\n      dup3\n        /* \"#utility.yul\":7441:7450   */\n      mul\n        /* \"#utility.yul\":7470:7500   */\n      tag_334\n        /* \"#utility.yul\":7488:7499   */\n      dup2\n        /* \"#utility.yul\":7470:7500   */\n      tag_191\n      jump\t// in\n    tag_334:\n        /* \"#utility.yul\":7459:7500   */\n      swap2\n      pop\n        /* \"#utility.yul\":7649:7650   */\n      dup3\n        /* \"#utility.yul\":7640:7647   */\n      dup3\n        /* \"#utility.yul\":7636:7651   */\n      div\n        /* \"#utility.yul\":7633:7634   */\n      dup5\n        /* \"#utility.yul\":7630:7652   */\n      eq\n        /* \"#utility.yul\":7610:7611   */\n      dup4\n        /* \"#utility.yul\":7603:7612   */\n      iszero\n        /* \"#utility.yul\":7583:7666   */\n      or\n        /* \"#utility.yul\":7560:7699   */\n      tag_335\n      jumpi\n        /* \"#utility.yul\":7679:7697   */\n      tag_336\n      tag_214\n      jump\t// in\n    tag_336:\n        /* \"#utility.yul\":7560:7699   */\n    tag_335:\n        /* \"#utility.yul\":7344:7706   */\n      pop\n        /* \"#utility.yul\":7296:7706   */\n      swap3\n      swap2\n      pop\n      pop\n      jump\t// out\n        /* \"#utility.yul\":7712:7892   */\n    tag_215:\n        /* \"#utility.yul\":7760:7837   */\n      0x4e487b7100000000000000000000000000000000000000000000000000000000\n        /* \"#utility.yul\":7757:7758   */\n      0x00\n        /* \"#utility.yul\":7750:7838   */\n      mstore\n        /* \"#utility.yul\":7857:7861   */\n      0x12\n        /* \"#utility.yul\":7854:7855   */\n      0x04\n        /* \"#utility.yul\":7847:7862   */\n      mstore\n        /* \"#utility.yul\":7881:7885   */\n      0x24\n        /* \"#utility.yul\":7878:7879   */\n      0x00\n        /* \"#utility.yul\":7871:7886   */\n      revert\n        /* \"#utility.yul\":7898:8083   */\n    tag_76:\n        /* \"#utility.yul\":7938:7939   */\n      0x00\n        /* \"#utility.yul\":7955:7975   */\n      tag_339\n        /* \"#utility.yul\":7973:7974   */\n      dup3\n        /* \"#utility.yul\":7955:7975   */\n      tag_191\n      jump\t// in\n    tag_339:\n        /* \"#utility.yul\":7950:7975   */\n      swap2\n      pop\n        /* \"#utility.yul\":7989:8009   */\n      tag_340\n        /* \"#utility.yul\":8007:8008   */\n      dup4\n        /* \"#utility.yul\":7989:8009   */\n      tag_191\n      jump\t// in\n    tag_340:\n        /* \"#utility.yul\":7984:8009   */\n      swap3\n      pop\n        /* \"#utility.yul\":8028:8029   */\n      dup3\n        /* \"#utility.yul\":8018:8053   */\n      tag_341\n      jumpi\n        /* \"#utility.yul\":8033:8051   */\n      tag_342\n      tag_215\n      jump\t// in\n    tag_342:\n        /* \"#utility.yul\":8018:8053   */\n    tag_341:\n        /* \"#utility.yul\":8075:8076   */\n      dup3\n        /* \"#utility.yul\":8072:8073   */\n      dup3\n        /* \"#utility.yul\":8068:8077   */\n      div\n        /* \"#utility.yul\":8063:8077   */\n      swap1\n      pop\n        /* \"#utility.yul\":7898:8083   */\n      swap3\n      swap2\n      pop\n      pop\n      jump\t// out\n        /* \"#utility.yul\":8089:8280   */\n    tag_78:\n        /* \"#utility.yul\":8129:8132   */\n      0x00\n        /* \"#utility.yul\":8148:8168   */\n      tag_344\n        /* \"#utility.yul\":8166:8167   */\n      dup3\n        /* \"#utility.yul\":8148:8168   */\n      tag_191\n      jump\t// in\n    tag_344:\n        /* \"#utility.yul\":8143:8168   */\n      swap2\n      pop\n        /* \"#utility.yul\":8182:8202   */\n      tag_345\n        /* \"#utility.yul\":8200:8201   */\n      dup4\n        /* \"#utility.yul\":8182:8202   */\n      tag_191\n      jump\t// in\n    tag_345:\n        /* \"#utility.yul\":8177:8202   */\n      swap3\n      pop\n        /* \"#utility.yul\":8225:8226   */\n      dup3\n        /* \"#utility.yul\":8222:8223   */\n      dup3\n        /* \"#utility.yul\":8218:8227   */\n      add\n        /* \"#utility.yul\":8211:8227   */\n      swap1\n      pop\n        /* \"#utility.yul\":8246:8249   */\n      dup1\n        /* \"#utility.yul\":8243:8244   */\n      dup3\n        /* \"#utility.yul\":8240:8250   */\n      gt\n        /* \"#utility.yul\":8237:8273   */\n      iszero\n      tag_346\n      jumpi\n        /* \"#utility.yul\":8253:8271   */\n      tag_347\n      tag_214\n      jump\t// in\n    tag_347:\n        /* \"#utility.yul\":8237:8273   */\n    tag_346:\n        /* \"#utility.yul\":8089:8280   */\n      swap3\n      swap2\n      pop\n      pop\n      jump\t// out\n        /* \"#utility.yul\":8286:8388   */\n    tag_216:\n        /* \"#utility.yul\":8328:8336   */\n      0x00\n        /* \"#utility.yul\":8375:8380   */\n      dup2\n        /* \"#utility.yul\":8372:8373   */\n      0x01\n        /* \"#utility.yul\":8368:8381   */\n      shr\n        /* \"#utility.yul\":8347:8381   */\n      swap1\n      pop\n        /* \"#utility.yul\":8286:8388   */\n      swap2\n      swap1\n      pop\n      jump\t// out\n        /* \"#utility.yul\":8394:9242   */\n    tag_217:\n        /* \"#utility.yul\":8455:8460   */\n      0x00\n        /* \"#utility.yul\":8462:8466   */\n      0x00\n        /* \"#utility.yul\":8486:8492   */\n      dup3\n        /* \"#utility.yul\":8477:8492   */\n      swap2\n      pop\n        /* \"#utility.yul\":8510:8515   */\n      dup4\n        /* \"#utility.yul\":8501:8515   */\n      swap1\n      pop\n        /* \"#utility.yul\":8524:9236   */\n    tag_350:\n        /* \"#utility.yul\":8545:8546   */\n      0x01\n        /* \"#utility.yul\":8535:8543   */\n      dup6\n        /* \"#utility.yul\":8532:8547   */\n      gt\n        /* \"#utility.yul\":8524:9236   */\n      iszero\n      tag_352\n      jumpi\n        /* \"#utility.yul\":8640:8644   */\n      dup1\n        /* \"#utility.yul\":8635:8638   */\n      dup7\n        /* \"#utility.yul\":8631:8645   */\n      div\n        /* \"#utility.yul\":8625:8629   */\n      dup2\n        /* \"#utility.yul\":8622:8646   */\n      gt\n        /* \"#utility.yul\":8619:8669   */\n      iszero\n      tag_353\n      jumpi\n        /* \"#utility.yul\":8649:8667   */\n      tag_354\n      tag_214\n      jump\t// in\n    tag_354:\n        /* \"#utility.yul\":8619:8669   */\n    tag_353:\n        /* \"#utility.yul\":8699:8700   */\n      0x01\n        /* \"#utility.yul\":8689:8697   */\n      dup6\n        /* \"#utility.yul\":8685:8701   */\n      and\n        /* \"#utility.yul\":8682:9133   */\n      iszero\n      tag_355\n      jumpi\n        /* \"#utility.yul\":9114:9118   */\n      dup1\n        /* \"#utility.yul\":9107:9112   */\n      dup3\n        /* \"#utility.yul\":9103:9119   */\n      mul\n        /* \"#utility.yul\":9094:9119   */\n      swap2\n      pop\n        /* \"#utility.yul\":8682:9133   */\n    tag_355:\n        /* \"#utility.yul\":9164:9168   */\n      dup1\n        /* \"#utility.yul\":9158:9162   */\n      dup2\n        /* \"#utility.yul\":9154:9169   */\n      mul\n        /* \"#utility.yul\":9146:9169   */\n      swap1\n      pop\n        /* \"#utility.yul\":9194:9226   */\n      tag_356\n        /* \"#utility.yul\":9217:9225   */\n      dup6\n        /* \"#utility.yul\":9194:9226   */\n      tag_216\n      jump\t// in\n    tag_356:\n        /* \"#utility.yul\":9182:9226   */\n      swap5\n      pop\n        /* \"#utility.yul\":8524:9236   */\n      jump(tag_350)\n    tag_352:\n        /* \"#utility.yul\":8394:9242   */\n      swap5\n      pop\n      swap5\n      swap3\n      pop\n      pop\n      pop\n      jump\t// out\n        /* \"#utility.yul\":9248:10321   */\n    tag_218:\n        /* \"#utility.yul\":9302:9307   */\n      0x00\n        /* \"#utility.yul\":9493:9501   */\n      dup3\n        /* \"#utility.yul\":9483:9523   */\n      tag_358\n      jumpi\n        /* \"#utility.yul\":9514:9515   */\n      0x01\n        /* \"#utility.yul\":9505:9515   */\n      swap1\n      pop\n        /* \"#utility.yul\":9516:9521   */\n      jump(tag_357)\n        /* \"#utility.yul\":9483:9523   */\n    tag_358:\n        /* \"#utility.yul\":9542:9546   */\n      dup2\n        /* \"#utility.yul\":9532:9568   */\n      tag_359\n      jumpi\n        /* \"#utility.yul\":9559:9560   */\n      0x00\n        /* \"#utility.yul\":9550:9560   */\n      swap1\n      pop\n        /* \"#utility.yul\":9561:9566   */\n      jump(tag_357)\n        /* \"#utility.yul\":9532:9568   */\n    tag_359:\n        /* \"#utility.yul\":9628:9632   */\n      dup2\n        /* \"#utility.yul\":9676:9677   */\n      0x01\n        /* \"#utility.yul\":9671:9698   */\n      dup2\n      eq\n      tag_361\n      jumpi\n        /* \"#utility.yul\":9712:9713   */\n      0x02\n        /* \"#utility.yul\":9707:9898   */\n      dup2\n      eq\n      tag_362\n      jumpi\n        /* \"#utility.yul\":9621:9898   */\n      jump(tag_360)\n        /* \"#utility.yul\":9671:9698   */\n    tag_361:\n        /* \"#utility.yul\":9689:9690   */\n      0x01\n        /* \"#utility.yul\":9680:9690   */\n      swap2\n      pop\n        /* \"#utility.yul\":9691:9696   */\n      pop\n      jump(tag_357)\n        /* \"#utility.yul\":9707:9898   */\n    tag_362:\n        /* \"#utility.yul\":9752:9755   */\n      0xff\n        /* \"#utility.yul\":9742:9750   */\n      dup5\n        /* \"#utility.yul\":9739:9756   */\n      gt\n        /* \"#utility.yul\":9736:9779   */\n      iszero\n      tag_363\n      jumpi\n        /* \"#utility.yul\":9759:9777   */\n      tag_364\n      tag_214\n      jump\t// in\n    tag_364:\n        /* \"#utility.yul\":9736:9779   */\n    tag_363:\n        /* \"#utility.yul\":9808:9816   */\n      dup4\n        /* \"#utility.yul\":9805:9806   */\n      0x02\n        /* \"#utility.yul\":9801:9817   */\n      exp\n        /* \"#utility.yul\":9792:9817   */\n      swap2\n      pop\n        /* \"#utility.yul\":9843:9846   */\n      dup5\n        /* \"#utility.yul\":9836:9841   */\n      dup3\n        /* \"#utility.yul\":9833:9847   */\n      gt\n        /* \"#utility.yul\":9830:9870   */\n      iszero\n      tag_365\n      jumpi\n        /* \"#utility.yul\":9850:9868   */\n      tag_366\n      tag_214\n      jump\t// in\n    tag_366:\n        /* \"#utility.yul\":9830:9870   */\n    tag_365:\n        /* \"#utility.yul\":9883:9888   */\n      pop\n      jump(tag_357)\n        /* \"#utility.yul\":9621:9898   */\n    tag_360:\n      pop\n        /* \"#utility.yul\":10007:10009   */\n      0x20\n        /* \"#utility.yul\":9997:10005   */\n      dup4\n        /* \"#utility.yul\":9994:10010   */\n      lt\n        /* \"#utility.yul\":9988:9991   */\n      0x0133\n        /* \"#utility.yul\":9982:9986   */\n      dup4\n        /* \"#utility.yul\":9979:9992   */\n      lt\n        /* \"#utility.yul\":9975:10011   */\n      and\n        /* \"#utility.yul\":9957:9959   */\n      0x4e\n        /* \"#utility.yul\":9947:9955   */\n      dup5\n        /* \"#utility.yul\":9944:9960   */\n      lt\n        /* \"#utility.yul\":9939:9941   */\n      0x0b\n        /* \"#utility.yul\":9933:9937   */\n      dup5\n        /* \"#utility.yul\":9930:9942   */\n      lt\n        /* \"#utility.yul\":9926:9961   */\n      and\n        /* \"#utility.yul\":9910:10021   */\n      or\n        /* \"#utility.yul\":9907:10153   */\n      iszero\n      tag_367\n      jumpi\n        /* \"#utility.yul\":10063:10071   */\n      dup3\n        /* \"#utility.yul\":10057:10061   */\n      dup3\n        /* \"#utility.yul\":10053:10072   */\n      exp\n        /* \"#utility.yul\":10044:10072   */\n      swap1\n      pop\n        /* \"#utility.yul\":10098:10101   */\n      dup4\n        /* \"#utility.yul\":10091:10096   */\n      dup2\n        /* \"#utility.yul\":10088:10102   */\n      gt\n        /* \"#utility.yul\":10085:10125   */\n      iszero\n      tag_368\n      jumpi\n        /* \"#utility.yul\":10105:10123   */\n      tag_369\n      tag_214\n      jump\t// in\n    tag_369:\n        /* \"#utility.yul\":10085:10125   */\n    tag_368:\n        /* \"#utility.yul\":10138:10143   */\n      jump(tag_357)\n        /* \"#utility.yul\":9907:10153   */\n    tag_367:\n        /* \"#utility.yul\":10178:10220   */\n      tag_370\n        /* \"#utility.yul\":10216:10219   */\n      dup5\n        /* \"#utility.yul\":10206:10214   */\n      dup5\n        /* \"#utility.yul\":10200:10204   */\n      dup5\n        /* \"#utility.yul\":10197:10198   */\n      0x01\n        /* \"#utility.yul\":10178:10220   */\n      tag_217\n      jump\t// in\n    tag_370:\n        /* \"#utility.yul\":10163:10220   */\n      swap3\n      pop\n      swap1\n      pop\n        /* \"#utility.yul\":10252:10256   */\n      dup2\n        /* \"#utility.yul\":10247:10250   */\n      dup5\n        /* \"#utility.yul\":10243:10257   */\n      div\n        /* \"#utility.yul\":10236:10241   */\n      dup2\n        /* \"#utility.yul\":10233:10258   */\n      gt\n        /* \"#utility.yul\":10230:10281   */\n      iszero\n      tag_371\n      jumpi\n        /* \"#utility.yul\":10261:10279   */\n      tag_372\n      tag_214\n      jump\t// in\n    tag_372:\n        /* \"#utility.yul\":10230:10281   */\n    tag_371:\n        /* \"#utility.yul\":10310:10314   */\n      dup2\n        /* \"#utility.yul\":10303:10308   */\n      dup2\n        /* \"#utility.yul\":10299:10315   */\n      mul\n        /* \"#utility.yul\":10290:10315   */\n      swap1\n      pop\n        /* \"#utility.yul\":9248:10321   */\n    tag_357:\n      swap4\n      swap3\n      pop\n      pop\n      pop\n      jump\t// out\n        /* \"#utility.yul\":10327:10413   */\n    tag_219:\n        /* \"#utility.yul\":10362:10369   */\n      0x00\n        /* \"#utility.yul\":10402:10406   */\n      0xff\n        /* \"#utility.yul\":10395:10400   */\n      dup3\n        /* \"#utility.yul\":10391:10407   */\n      and\n        /* \"#utility.yul\":10380:10407   */\n      swap1\n      pop\n        /* \"#utility.yul\":10327:10413   */\n      swap2\n      swap1\n      pop\n      jump\t// out\n        /* \"#utility.yul\":10419:10700   */\n    tag_87:\n        /* \"#utility.yul\":10477:10482   */\n      0x00\n        /* \"#utility.yul\":10501:10524   */\n      tag_375\n        /* \"#utility.yul\":10519:10523   */\n      dup3\n        /* \"#utility.yul\":10501:10524   */\n      tag_191\n      jump\t// in\n    tag_375:\n        /* \"#utility.yul\":10493:10524   */\n      swap2\n      pop\n        /* \"#utility.yul\":10545:10570   */\n      tag_376\n        /* \"#utility.yul\":10561:10569   */\n      dup4\n        /* \"#utility.yul\":10545:10570   */\n      tag_219\n      jump\t// in\n    tag_376:\n        /* \"#utility.yul\":10533:10570   */\n      swap3\n      pop\n        /* \"#utility.yul\":10589:10693   */\n      tag_377\n        /* \"#utility.yul\":10626:10692   */\n      0xffffffffffffffffffffffffffffffffffffffffffffffffffffffffffffffff\n        /* \"#utility.yul\":10616:10624   */\n      dup5\n        /* \"#utility.yul\":10610:10614   */\n      dup5\n        /* \"#utility.yul\":10589:10693   */\n      tag_218\n      jump\t// in\n    tag_377:\n        /* \"#utility.yul\":10580:10693   */\n      swap1\n      pop\n        /* \"#utility.yul\":10419:10700   */\n      swap3\n      swap2\n      pop\n      pop\n      jump\t// out\n        /* \"#utility.yul\":10706:10822   */\n    tag_220:\n        /* \"#utility.yul\":10776:10797   */\n      tag_379\n        /* \"#utility.yul\":10791:10796   */\n      dup2\n        /* \"#utility.yul\":10776:10797   */\n      tag_198\n      jump\t// in\n    tag_379:\n        /* \"#utility.yul\":10769:10774   */\n      dup2\n        /* \"#utility.yul\":10766:10798   */\n      eq\n        /* \"#utility.yul\":10756:10816   */\n      tag_380\n      jumpi\n        /* \"#utility.yul\":10812:10813   */\n      0x00\n        /* \"#utility.yul\":10809:10810   */\n      0x00\n        /* \"#utility.yul\":10802:10814   */\n      revert\n        /* \"#utility.yul\":10756:10816   */\n    tag_380:\n        /* \"#utility.yul\":10706:10822   */\n      pop\n      jump\t// out\n        /* \"#utility.yul\":10828:10965   */\n    tag_221:\n        /* \"#utility.yul\":10882:10887   */\n      0x00\n        /* \"#utility.yul\":10913:10919   */\n      dup2\n        /* \"#utility.yul\":10907:10920   */\n      mload\n        /* \"#utility.yul\":10898:10920   */\n      swap1\n      pop\n        /* \"#utility.yul\":10929:10959   */\n      tag_382\n        /* \"#utility.yul\":10953:10958   */\n      dup2\n        /* \"#utility.yul\":10929:10959   */\n      tag_220\n      jump\t// in\n    tag_382:\n        /* \"#utility.yul\":10828:10965   */\n      swap3\n      swap2\n      pop\n      pop\n      jump\t// out\n        /* \"#utility.yul\":10971:11316   */\n    tag_96:\n        /* \"#utility.yul\":11038:11044   */\n      0x00\n        /* \"#utility.yul\":11087:11089   */\n      0x20\n        /* \"#utility.yul\":11075:11084   */\n      dup3\n        /* \"#utility.yul\":11066:11073   */\n      dup5\n        /* \"#utility.yul\":11062:11085   */\n      sub\n        /* \"#utility.yul\":11058:11090   */\n      slt\n        /* \"#utility.yul\":11055:11174   */\n      iszero\n      tag_384\n      jumpi\n        /* \"#utility.yul\":11093:11172   */\n      tag_385\n      tag_194\n      jump\t// in\n    tag_385:\n        /* \"#utility.yul\":11055:11174   */\n    tag_384:\n        /* \"#utility.yul\":11213:11214   */\n      0x00\n        /* \"#utility.yul\":11238:11299   */\n      tag_386\n        /* \"#utility.yul\":11291:11298   */\n      dup5\n        /* \"#utility.yul\":11282:11288   */\n      dup3\n        /* \"#utility.yul\":11271:11280   */\n      dup6\n        /* \"#utility.yul\":11267:11289   */\n      add\n        /* \"#utility.yul\":11238:11299   */\n      tag_221\n      jump\t// in\n    tag_386:\n        /* \"#utility.yul\":11228:11299   */\n      swap2\n      pop\n        /* \"#utility.yul\":11184:11309   */\n      pop\n        /* \"#utility.yul\":10971:11316   */\n      swap3\n      swap2\n      pop\n      pop\n      jump\t// out\n        /* \"#utility.yul\":11322:11491   */\n    tag_222:\n        /* \"#utility.yul\":11406:11417   */\n      0x00\n        /* \"#utility.yul\":11440:11446   */\n      dup3\n        /* \"#utility.yul\":11435:11438   */\n      dup3\n        /* \"#utility.yul\":11428:11447   */\n      mstore\n        /* \"#utility.yul\":11480:11484   */\n      0x20\n        /* \"#utility.yul\":11475:11478   */\n      dup3\n        /* \"#utility.yul\":11471:11485   */\n      add\n        /* \"#utility.yul\":11456:11485   */\n      swap1\n      pop\n        /* \"#utility.yul\":11322:11491   */\n      swap3\n      swap2\n      pop\n      pop\n      jump\t// out\n        /* \"#utility.yul\":11497:11659   */\n    tag_223:\n        /* \"#utility.yul\":11637:11651   */\n      0x746f6f206c657373206665650000000000000000000000000000000000000000\n        /* \"#utility.yul\":11633:11634   */\n      0x00\n        /* \"#utility.yul\":11625:11631   */\n      dup3\n        /* \"#utility.yul\":11621:11635   */\n      add\n        /* \"#utility.yul\":11614:11652   */\n      mstore\n        /* \"#utility.yul\":11497:11659   */\n      pop\n      jump\t// out\n        /* \"#utility.yul\":11665:12031   */\n    tag_224:\n        /* \"#utility.yul\":11807:11810   */\n      0x00\n        /* \"#utility.yul\":11828:11895   */\n      tag_390\n        /* \"#utility.yul\":11892:11894   */\n      0x0c\n        /* \"#utility.yul\":11887:11890   */\n      dup4\n        /* \"#utility.yul\":11828:11895   */\n      tag_222\n      jump\t// in\n    tag_390:\n        /* \"#utility.yul\":11821:11895   */\n      swap2\n      pop\n        /* \"#utility.yul\":11904:11997   */\n      tag_391\n        /* \"#utility.yul\":11993:11996   */\n      dup3\n        /* \"#utility.yul\":11904:11997   */\n      tag_223\n      jump\t// in\n    tag_391:\n        /* \"#utility.yul\":12022:12024   */\n      0x20\n        /* \"#utility.yul\":12017:12020   */\n      dup3\n        /* \"#utility.yul\":12013:12025   */\n      add\n        /* \"#utility.yul\":12006:12025   */\n      swap1\n      pop\n        /* \"#utility.yul\":11665:12031   */\n      swap2\n      swap1\n      pop\n      jump\t// out\n        /* \"#utility.yul\":12037:12456   */\n    tag_111:\n        /* \"#utility.yul\":12203:12207   */\n      0x00\n        /* \"#utility.yul\":12241:12243   */\n      0x20\n        /* \"#utility.yul\":12230:12239   */\n      dup3\n        /* \"#utility.yul\":12226:12244   */\n      add\n        /* \"#utility.yul\":12218:12244   */\n      swap1\n      pop\n        /* \"#utility.yul\":12290:12299   */\n      dup2\n        /* \"#utility.yul\":12284:12288   */\n      dup2\n        /* \"#utility.yul\":12280:12300   */\n      sub\n        /* \"#utility.yul\":12276:12277   */\n      0x00\n        /* \"#utility.yul\":12265:12274   */\n      dup4\n        /* \"#utility.yul\":12261:12278   */\n      add\n        /* \"#utility.yul\":12254:12301   */\n      mstore\n        /* \"#utility.yul\":12318:12449   */\n      tag_393\n        /* \"#utility.yul\":12444:12448   */\n      dup2\n        /* \"#utility.yul\":12318:12449   */\n      tag_224\n      jump\t// in\n    tag_393:\n        /* \"#utility.yul\":12310:12449   */\n      swap1\n      pop\n        /* \"#utility.yul\":12037:12456   */\n      swap2\n      swap1\n      pop\n      jump\t// out\n        /* \"#utility.yul\":12462:12561   */\n    tag_225:\n        /* \"#utility.yul\":12514:12520   */\n      0x00\n        /* \"#utility.yul\":12548:12553   */\n      dup2\n        /* \"#utility.yul\":12542:12554   */\n      mload\n        /* \"#utility.yul\":12532:12554   */\n      swap1\n      pop\n        /* \"#utility.yul\":12462:12561   */\n      swap2\n      swap1\n      pop\n      jump\t// out\n        /* \"#utility.yul\":12567:12747   */\n    tag_226:\n        /* \"#utility.yul\":12615:12692   */\n      0x4e487b7100000000000000000000000000000000000000000000000000000000\n        /* \"#utility.yul\":12612:12613   */\n      0x00\n        /* \"#utility.yul\":12605:12693   */\n      mstore\n        /* \"#utility.yul\":12712:12716   */\n      0x22\n        /* \"#utility.yul\":12709:12710   */\n      0x04\n        /* \"#utility.yul\":12702:12717   */\n      mstore\n        /* \"#utility.yul\":12736:12740   */\n      0x24\n        /* \"#utility.yul\":12733:12734   */\n      0x00\n        /* \"#utility.yul\":12726:12741   */\n      revert\n        /* \"#utility.yul\":12753:13073   */\n    tag_227:\n        /* \"#utility.yul\":12797:12803   */\n      0x00\n        /* \"#utility.yul\":12834:12835   */\n      0x02\n        /* \"#utility.yul\":12828:12832   */\n      dup3\n        /* \"#utility.yul\":12824:12836   */\n      div\n        /* \"#utility.yul\":12814:12836   */\n      swap1\n      pop\n        /* \"#utility.yul\":12881:12882   */\n      0x01\n        /* \"#utility.yul\":12875:12879   */\n      dup3\n        /* \"#utility.yul\":12871:12883   */\n      and\n        /* \"#utility.yul\":12902:12920   */\n      dup1\n        /* \"#utility.yul\":12892:12973   */\n      tag_397\n      jumpi\n        /* \"#utility.yul\":12958:12962   */\n      0x7f\n        /* \"#utility.yul\":12950:12956   */\n      dup3\n        /* \"#utility.yul\":12946:12963   */\n      and\n        /* \"#utility.yul\":12936:12963   */\n      swap2\n      pop\n        /* \"#utility.yul\":12892:12973   */\n    tag_397:\n        /* \"#utility.yul\":13020:13022   */\n      0x20\n        /* \"#utility.yul\":13012:13018   */\n      dup3\n        /* \"#utility.yul\":13009:13023   */\n      lt\n        /* \"#utility.yul\":12989:13007   */\n      dup2\n        /* \"#utility.yul\":12986:13024   */\n      sub\n        /* \"#utility.yul\":12983:13067   */\n      tag_398\n      jumpi\n        /* \"#utility.yul\":13039:13057   */\n      tag_399\n      tag_226\n      jump\t// in\n    tag_399:\n        /* \"#utility.yul\":12983:13067   */\n    tag_398:\n        /* \"#utility.yul\":12804:13073   */\n      pop\n        /* \"#utility.yul\":12753:13073   */\n      swap2\n      swap1\n      pop\n      jump\t// out\n        /* \"#utility.yul\":13079:13220   */\n    tag_228:\n        /* \"#utility.yul\":13128:13132   */\n      0x00\n        /* \"#utility.yul\":13151:13154   */\n      dup2\n        /* \"#utility.yul\":13143:13154   */\n      swap1\n      pop\n        /* \"#utility.yul\":13174:13177   */\n      dup2\n        /* \"#utility.yul\":13171:13172   */\n      0x00\n        /* \"#utility.yul\":13164:13178   */\n      mstore\n        /* \"#utility.yul\":13208:13212   */\n      0x20\n        /* \"#utility.yul\":13205:13206   */\n      0x00\n        /* \"#utility.yul\":13195:13213   */\n      keccak256\n        /* \"#utility.yul\":13187:13213   */\n      swap1\n      pop\n        /* \"#utility.yul\":13079:13220   */\n      swap2\n      swap1\n      pop\n      jump\t// out\n        /* \"#utility.yul\":13226:13319   */\n    tag_229:\n        /* \"#utility.yul\":13263:13269   */\n      0x00\n        /* \"#utility.yul\":13310:13312   */\n      0x20\n        /* \"#utility.yul\":13305:13307   */\n      0x1f\n        /* \"#utility.yul\":13298:13303   */\n      dup4\n        /* \"#utility.yul\":13294:13308   */\n      add\n        /* \"#utility.yul\":13290:13313   */\n      div\n        /* \"#utility.yul\":13280:13313   */\n      swap1\n      pop\n        /* \"#utility.yul\":13226:13319   */\n      swap2\n      swap1\n      pop\n      jump\t// out\n        /* \"#utility.yul\":13325:13432   */\n    tag_230:\n        /* \"#utility.yul\":13369:13377   */\n      0x00\n        /* \"#utility.yul\":13419:13424   */\n      dup3\n        /* \"#utility.yul\":13413:13417   */\n      dup3\n        /* \"#utility.yul\":13409:13425   */\n      shl\n        /* \"#utility.yul\":13388:13425   */\n      swap1\n      pop\n        /* \"#utility.yul\":13325:13432   */\n      swap3\n      swap2\n      pop\n      pop\n      jump\t// out\n        /* \"#utility.yul\":13438:13831   */\n    tag_231:\n        /* \"#utility.yul\":13507:13513   */\n      0x00\n        /* \"#utility.yul\":13557:13558   */\n      0x08\n        /* \"#utility.yul\":13545:13555   */\n      dup4\n        /* \"#utility.yul\":13541:13559   */\n      mul\n        /* \"#utility.yul\":13580:13677   */\n      tag_404\n        /* \"#utility.yul\":13610:13676   */\n      0xffffffffffffffffffffffffffffffffffffffffffffffffffffffffffffffff\n        /* \"#utility.yul\":13599:13608   */\n      dup3\n        /* \"#utility.yul\":13580:13677   */\n      tag_230\n      jump\t// in\n    tag_404:\n        /* \"#utility.yul\":13698:13737   */\n      tag_405\n        /* \"#utility.yul\":13728:13736   */\n      dup7\n        /* \"#utility.yul\":13717:13726   */\n      dup4\n        /* \"#utility.yul\":13698:13737   */\n      tag_230\n      jump\t// in\n    tag_405:\n        /* \"#utility.yul\":13686:13737   */\n      swap6\n      pop\n        /* \"#utility.yul\":13770:13774   */\n      dup1\n        /* \"#utility.yul\":13766:13775   */\n      not\n        /* \"#utility.yul\":13759:13764   */\n      dup5\n        /* \"#utility.yul\":13755:13776   */\n      and\n        /* \"#utility.yul\":13746:13776   */\n      swap4\n      pop\n        /* \"#utility.yul\":13819:13823   */\n      dup1\n        /* \"#utility.yul\":13809:13817   */\n      dup7\n        /* \"#utility.yul\":13805:13824   */\n      and\n        /* \"#utility.yul\":13798:13803   */\n      dup5\n        /* \"#utility.yul\":13795:13825   */\n      or\n        /* \"#utility.yul\":13785:13825   */\n      swap3\n      pop\n        /* \"#utility.yul\":13514:13831   */\n      pop\n      pop\n        /* \"#utility.yul\":13438:13831   */\n      swap4\n      swap3\n      pop\n      pop\n      pop\n      jump\t// out\n        /* \"#utility.yul\":13837:13897   */\n    tag_232:\n        /* \"#utility.yul\":13865:13868   */\n      0x00\n        /* \"#utility.yul\":13886:13891   */\n      dup2\n        /* \"#utility.yul\":13879:13891   */\n      swap1\n      pop\n        /* \"#utility.yul\":13837:13897   */\n      swap2\n      swap1\n      pop\n      jump\t// out\n        /* \"#utility.yul\":13903:14045   */\n    tag_233:\n        /* \"#utility.yul\":13953:13962   */\n      0x00\n        /* \"#utility.yul\":13986:14039   */\n      tag_408\n        /* \"#utility.yul\":14004:14038   */\n      tag_409\n        /* \"#utility.yul\":14013:14037   */\n      tag_410\n        /* \"#utility.yul\":14031:14036   */\n      dup5\n        /* \"#utility.yul\":14013:14037   */\n      tag_191\n      jump\t// in\n    tag_410:\n        /* \"#utility.yul\":14004:14038   */\n      tag_232\n      jump\t// in\n    tag_409:\n        /* \"#utility.yul\":13986:14039   */\n      tag_191\n      jump\t// in\n    tag_408:\n        /* \"#utility.yul\":13973:14039   */\n      swap1\n      pop\n        /* \"#utility.yul\":13903:14045   */\n      swap2\n      swap1\n      pop\n      jump\t// out\n        /* \"#utility.yul\":14051:14126   */\n    tag_234:\n        /* \"#utility.yul\":14094:14097   */\n      0x00\n        /* \"#utility.yul\":14115:14120   */\n      dup2\n        /* \"#utility.yul\":14108:14120   */\n      swap1\n      pop\n        /* \"#utility.yul\":14051:14126   */\n      swap2\n      swap1\n      pop\n      jump\t// out\n        /* \"#utility.yul\":14132:14401   */\n    tag_235:\n        /* \"#utility.yul\":14242:14281   */\n      tag_413\n        /* \"#utility.yul\":14273:14280   */\n      dup4\n        /* \"#utility.yul\":14242:14281   */\n      tag_233\n      jump\t// in\n    tag_413:\n        /* \"#utility.yul\":14303:14394   */\n      tag_414\n        /* \"#utility.yul\":14352:14393   */\n      tag_415\n        /* \"#utility.yul\":14376:14392   */\n      dup3\n        /* \"#utility.yul\":14352:14393   */\n      tag_234\n      jump\t// in\n    tag_415:\n        /* \"#utility.yul\":14344:14350   */\n      dup5\n        /* \"#utility.yul\":14337:14341   */\n      dup5\n        /* \"#utility.yul\":14331:14342   */\n      sload\n        /* \"#utility.yul\":14303:14394   */\n      tag_231\n      jump\t// in\n    tag_414:\n        /* \"#utility.yul\":14297:14301   */\n      dup3\n        /* \"#utility.yul\":14290:14395   */\n      sstore\n        /* \"#utility.yul\":14208:14401   */\n      pop\n        /* \"#utility.yul\":14132:14401   */\n      pop\n      pop\n      pop\n      jump\t// out\n        /* \"#utility.yul\":14407:14480   */\n    tag_236:\n        /* \"#utility.yul\":14452:14455   */\n      0x00\n        /* \"#utility.yul\":14473:14474   */\n      0x00\n        /* \"#utility.yul\":14466:14474   */\n      swap1\n      pop\n        /* \"#utility.yul\":14407:14480   */\n      swap1\n      jump\t// out\n        /* \"#utility.yul\":14486:14675   */\n    tag_237:\n        /* \"#utility.yul\":14563:14595   */\n      tag_418\n      tag_236\n      jump\t// in\n    tag_418:\n        /* \"#utility.yul\":14604:14669   */\n      tag_419\n        /* \"#utility.yul\":14662:14668   */\n      dup2\n        /* \"#utility.yul\":14654:14660   */\n      dup5\n        /* \"#utility.yul\":14648:14652   */\n      dup5\n        /* \"#utility.yul\":14604:14669   */\n      tag_235\n      jump\t// in\n    tag_419:\n        /* \"#utility.yul\":14539:14675   */\n      pop\n        /* \"#utility.yul\":14486:14675   */\n      pop\n      pop\n      jump\t// out\n        /* \"#utility.yul\":14681:14867   */\n    tag_238:\n        /* \"#utility.yul\":14741:14861   */\n    tag_421:\n        /* \"#utility.yul\":14758:14761   */\n      dup2\n        /* \"#utility.yul\":14751:14756   */\n      dup2\n        /* \"#utility.yul\":14748:14762   */\n      lt\n        /* \"#utility.yul\":14741:14861   */\n      iszero\n      tag_423\n      jumpi\n        /* \"#utility.yul\":14812:14851   */\n      tag_424\n        /* \"#utility.yul\":14849:14850   */\n      0x00\n        /* \"#utility.yul\":14842:14847   */\n      dup3\n        /* \"#utility.yul\":14812:14851   */\n      tag_237\n      jump\t// in\n    tag_424:\n        /* \"#utility.yul\":14785:14786   */\n      0x01\n        /* \"#utility.yul\":14778:14783   */\n      dup2\n        /* \"#utility.yul\":14774:14787   */\n      add\n        /* \"#utility.yul\":14765:14787   */\n      swap1\n      pop\n        /* \"#utility.yul\":14741:14861   */\n      jump(tag_421)\n    tag_423:\n        /* \"#utility.yul\":14681:14867   */\n      pop\n      pop\n      jump\t// out\n        /* \"#utility.yul\":14873:15416   */\n    tag_239:\n        /* \"#utility.yul\":14974:14976   */\n      0x1f\n        /* \"#utility.yul\":14969:14972   */\n      dup3\n        /* \"#utility.yul\":14966:14977   */\n      gt\n        /* \"#utility.yul\":14963:15409   */\n      iszero\n      tag_426\n      jumpi\n        /* \"#utility.yul\":15008:15046   */\n      tag_427\n        /* \"#utility.yul\":15040:15045   */\n      dup2\n        /* \"#utility.yul\":15008:15046   */\n      tag_228\n      jump\t// in\n    tag_427:\n        /* \"#utility.yul\":15092:15121   */\n      tag_428\n        /* \"#utility.yul\":15110:15120   */\n      dup5\n        /* \"#utility.yul\":15092:15121   */\n      tag_229\n      jump\t// in\n    tag_428:\n        /* \"#utility.yul\":15082:15090   */\n      dup2\n        /* \"#utility.yul\":15078:15122   */\n      add\n        /* \"#utility.yul\":15275:15277   */\n      0x20\n        /* \"#utility.yul\":15263:15273   */\n      dup6\n        /* \"#utility.yul\":15260:15278   */\n      lt\n        /* \"#utility.yul\":15257:15306   */\n      iszero\n      tag_429\n      jumpi\n        /* \"#utility.yul\":15296:15304   */\n      dup2\n        /* \"#utility.yul\":15281:15304   */\n      swap1\n      pop\n        /* \"#utility.yul\":15257:15306   */\n    tag_429:\n        /* \"#utility.yul\":15319:15399   */\n      tag_430\n        /* \"#utility.yul\":15375:15397   */\n      tag_431\n        /* \"#utility.yul\":15393:15396   */\n      dup6\n        /* \"#utility.yul\":15375:15397   */\n      tag_229\n      jump\t// in\n    tag_431:\n        /* \"#utility.yul\":15365:15373   */\n      dup4\n        /* \"#utility.yul\":15361:15398   */\n      add\n        /* \"#utility.yul\":15348:15359   */\n      dup3\n        /* \"#utility.yul\":15319:15399   */\n      tag_238\n      jump\t// in\n    tag_430:\n        /* \"#utility.yul\":14978:15409   */\n      pop\n      pop\n        /* \"#utility.yul\":14963:15409   */\n    tag_426:\n        /* \"#utility.yul\":14873:15416   */\n      pop\n      pop\n      pop\n      jump\t// out\n        /* \"#utility.yul\":15422:15539   */\n    tag_240:\n        /* \"#utility.yul\":15476:15484   */\n      0x00\n        /* \"#utility.yul\":15526:15531   */\n      dup3\n        /* \"#utility.yul\":15520:15524   */\n      dup3\n        /* \"#utility.yul\":15516:15532   */\n      shr\n        /* \"#utility.yul\":15495:15532   */\n      swap1\n      pop\n        /* \"#utility.yul\":15422:15539   */\n      swap3\n      swap2\n      pop\n      pop\n      jump\t// out\n        /* \"#utility.yul\":15545:15714   */\n    tag_241:\n        /* \"#utility.yul\":15589:15595   */\n      0x00\n        /* \"#utility.yul\":15622:15673   */\n      tag_434\n        /* \"#utility.yul\":15670:15671   */\n      0x00\n        /* \"#utility.yul\":15666:15672   */\n      not\n        /* \"#utility.yul\":15658:15663   */\n      dup5\n        /* \"#utility.yul\":15655:15656   */\n      0x08\n        /* \"#utility.yul\":15651:15664   */\n      mul\n        /* \"#utility.yul\":15622:15673   */\n      tag_240\n      jump\t// in\n    tag_434:\n        /* \"#utility.yul\":15618:15674   */\n      not\n        /* \"#utility.yul\":15703:15707   */\n      dup1\n        /* \"#utility.yul\":15697:15701   */\n      dup4\n        /* \"#utility.yul\":15693:15708   */\n      and\n        /* \"#utility.yul\":15683:15708   */\n      swap2\n      pop\n        /* \"#utility.yul\":15596:15714   */\n      pop\n        /* \"#utility.yul\":15545:15714   */\n      swap3\n      swap2\n      pop\n      pop\n      jump\t// out\n        /* \"#utility.yul\":15719:16014   */\n    tag_242:\n        /* \"#utility.yul\":15795:15799   */\n      0x00\n        /* \"#utility.yul\":15941:15970   */\n      tag_436\n        /* \"#utility.yul\":15966:15969   */\n      dup4\n        /* \"#utility.yul\":15960:15964   */\n      dup4\n        /* \"#utility.yul\":15941:15970   */\n      tag_241\n      jump\t// in\n    tag_436:\n        /* \"#utility.yul\":15933:15970   */\n      swap2\n      pop\n        /* \"#utility.yul\":16003:16006   */\n      dup3\n        /* \"#utility.yul\":16000:16001   */\n      0x02\n        /* \"#utility.yul\":15996:16007   */\n      mul\n        /* \"#utility.yul\":15990:15994   */\n      dup3\n        /* \"#utility.yul\":15987:16008   */\n      or\n        /* \"#utility.yul\":15979:16008   */\n      swap1\n      pop\n        /* \"#utility.yul\":15719:16014   */\n      swap3\n      swap2\n      pop\n      pop\n      jump\t// out\n        /* \"#utility.yul\":16019:17414   */\n    tag_122:\n        /* \"#utility.yul\":16136:16173   */\n      tag_438\n        /* \"#utility.yul\":16169:16172   */\n      dup3\n        /* \"#utility.yul\":16136:16173   */\n      tag_225\n      jump\t// in\n    tag_438:\n        /* \"#utility.yul\":16238:16256   */\n      0xffffffffffffffff\n        /* \"#utility.yul\":16230:16236   */\n      dup2\n        /* \"#utility.yul\":16227:16257   */\n      gt\n        /* \"#utility.yul\":16224:16280   */\n      iszero\n      tag_439\n      jumpi\n        /* \"#utility.yul\":16260:16278   */\n      tag_440\n      tag_116\n      jump\t// in\n    tag_440:\n        /* \"#utility.yul\":16224:16280   */\n    tag_439:\n        /* \"#utility.yul\":16304:16342   */\n      tag_441\n        /* \"#utility.yul\":16336:16340   */\n      dup3\n        /* \"#utility.yul\":16330:16341   */\n      sload\n        /* \"#utility.yul\":16304:16342   */\n      tag_227\n      jump\t// in\n    tag_441:\n        /* \"#utility.yul\":16389:16456   */\n      tag_442\n        /* \"#utility.yul\":16449:16455   */\n      dup3\n        /* \"#utility.yul\":16441:16447   */\n      dup3\n        /* \"#utility.yul\":16435:16439   */\n      dup6\n        /* \"#utility.yul\":16389:16456   */\n      tag_239\n      jump\t// in\n    tag_442:\n        /* \"#utility.yul\":16483:16484   */\n      0x00\n        /* \"#utility.yul\":16507:16511   */\n      0x20\n        /* \"#utility.yul\":16494:16511   */\n      swap1\n      pop\n        /* \"#utility.yul\":16539:16541   */\n      0x1f\n        /* \"#utility.yul\":16531:16537   */\n      dup4\n        /* \"#utility.yul\":16528:16542   */\n      gt\n        /* \"#utility.yul\":16556:16557   */\n      0x01\n        /* \"#utility.yul\":16551:17169   */\n      dup2\n      eq\n      tag_444\n      jumpi\n        /* \"#utility.yul\":17213:17214   */\n      0x00\n        /* \"#utility.yul\":17230:17236   */\n      dup5\n        /* \"#utility.yul\":17227:17304   */\n      iszero\n      tag_445\n      jumpi\n        /* \"#utility.yul\":17279:17288   */\n      dup3\n        /* \"#utility.yul\":17274:17277   */\n      dup8\n        /* \"#utility.yul\":17270:17289   */\n      add\n        /* \"#utility.yul\":17264:17290   */\n      mload\n        /* \"#utility.yul\":17255:17290   */\n      swap1\n      pop\n        /* \"#utility.yul\":17227:17304   */\n    tag_445:\n        /* \"#utility.yul\":17330:17397   */\n      tag_446\n        /* \"#utility.yul\":17390:17396   */\n      dup6\n        /* \"#utility.yul\":17383:17388   */\n      dup3\n        /* \"#utility.yul\":17330:17397   */\n      tag_242\n      jump\t// in\n    tag_446:\n        /* \"#utility.yul\":17324:17328   */\n      dup7\n        /* \"#utility.yul\":17317:17398   */\n      sstore\n        /* \"#utility.yul\":17186:17408   */\n      pop\n        /* \"#utility.yul\":16521:17408   */\n      jump(tag_443)\n        /* \"#utility.yul\":16551:17169   */\n    tag_444:\n        /* \"#utility.yul\":16603:16607   */\n      0x1f\n        /* \"#utility.yul\":16599:16608   */\n      not\n        /* \"#utility.yul\":16591:16597   */\n      dup5\n        /* \"#utility.yul\":16587:16609   */\n      and\n        /* \"#utility.yul\":16637:16674   */\n      tag_447\n        /* \"#utility.yul\":16669:16673   */\n      dup7\n        /* \"#utility.yul\":16637:16674   */\n      tag_228\n      jump\t// in\n    tag_447:\n        /* \"#utility.yul\":16696:16697   */\n      0x00\n        /* \"#utility.yul\":16710:16918   */\n    tag_448:\n        /* \"#utility.yul\":16724:16731   */\n      dup3\n        /* \"#utility.yul\":16721:16722   */\n      dup2\n        /* \"#utility.yul\":16718:16732   */\n      lt\n        /* \"#utility.yul\":16710:16918   */\n      iszero\n      tag_450\n      jumpi\n        /* \"#utility.yul\":16803:16812   */\n      dup5\n        /* \"#utility.yul\":16798:16801   */\n      dup10\n        /* \"#utility.yul\":16794:16813   */\n      add\n        /* \"#utility.yul\":16788:16814   */\n      mload\n        /* \"#utility.yul\":16780:16786   */\n      dup3\n        /* \"#utility.yul\":16773:16815   */\n      sstore\n        /* \"#utility.yul\":16854:16855   */\n      0x01\n        /* \"#utility.yul\":16846:16852   */\n      dup3\n        /* \"#utility.yul\":16842:16856   */\n      add\n        /* \"#utility.yul\":16832:16856   */\n      swap2\n      pop\n        /* \"#utility.yul\":16901:16903   */\n      0x20\n        /* \"#utility.yul\":16890:16899   */\n      dup6\n        /* \"#utility.yul\":16886:16904   */\n      add\n        /* \"#utility.yul\":16873:16904   */\n      swap5\n      pop\n        /* \"#utility.yul\":16747:16751   */\n      0x20\n        /* \"#utility.yul\":16744:16745   */\n      dup2\n        /* \"#utility.yul\":16740:16752   */\n      add\n        /* \"#utility.yul\":16735:16752   */\n      swap1\n      pop\n        /* \"#utility.yul\":16710:16918   */\n      jump(tag_448)\n    tag_450:\n        /* \"#utility.yul\":16946:16952   */\n      dup7\n        /* \"#utility.yul\":16937:16944   */\n      dup4\n        /* \"#utility.yul\":16934:16953   */\n      lt\n        /* \"#utility.yul\":16931:17110   */\n      iszero\n      tag_451\n      jumpi\n        /* \"#utility.yul\":17004:17013   */\n      dup5\n        /* \"#utility.yul\":16999:17002   */\n      dup10\n        /* \"#utility.yul\":16995:17014   */\n      add\n        /* \"#utility.yul\":16989:17015   */\n      mload\n        /* \"#utility.yul\":17047:17095   */\n      tag_452\n        /* \"#utility.yul\":17089:17093   */\n      0x1f\n        /* \"#utility.yul\":17081:17087   */\n      dup10\n        /* \"#utility.yul\":17077:17094   */\n      and\n        /* \"#utility.yul\":17066:17075   */\n      dup3\n        /* \"#utility.yul\":17047:17095   */\n      tag_241\n      jump\t// in\n    tag_452:\n        /* \"#utility.yul\":17039:17045   */\n      dup4\n        /* \"#utility.yul\":17032:17096   */\n      sstore\n        /* \"#utility.yul\":16954:17110   */\n      pop\n        /* \"#utility.yul\":16931:17110   */\n    tag_451:\n        /* \"#utility.yul\":17156:17157   */\n      0x01\n        /* \"#utility.yul\":17152:17153   */\n      0x02\n        /* \"#utility.yul\":17144:17150   */\n      dup9\n        /* \"#utility.yul\":17140:17154   */\n      mul\n        /* \"#utility.yul\":17136:17158   */\n      add\n        /* \"#utility.yul\":17130:17134   */\n      dup9\n        /* \"#utility.yul\":17123:17159   */\n      sstore\n        /* \"#utility.yul\":16558:17169   */\n      pop\n      pop\n      pop\n        /* \"#utility.yul\":16521:17408   */\n    tag_443:\n      pop\n        /* \"#utility.yul\":16111:17414   */\n      pop\n      pop\n      pop\n        /* \"#utility.yul\":16019:17414   */\n      pop\n      pop\n      jump\t// out\n        /* \"#utility.yul\":17420:17559   */\n    tag_243:\n        /* \"#utility.yul\":17509:17515   */\n      dup3\n        /* \"#utility.yul\":17504:17507   */\n      dup2\n        /* \"#utility.yul\":17499:17502   */\n      dup4\n        /* \"#utility.yul\":17493:17516   */\n      mcopy\n        /* \"#utility.yul\":17550:17551   */\n      0x00\n        /* \"#utility.yul\":17541:17547   */\n      dup4\n        /* \"#utility.yul\":17536:17539   */\n      dup4\n        /* \"#utility.yul\":17532:17548   */\n      add\n        /* \"#utility.yul\":17525:17552   */\n      mstore\n        /* \"#utility.yul\":17420:17559   */\n      pop\n      pop\n      pop\n      jump\t// out\n        /* \"#utility.yul\":17565:17942   */\n    tag_244:\n        /* \"#utility.yul\":17653:17656   */\n      0x00\n        /* \"#utility.yul\":17681:17720   */\n      tag_455\n        /* \"#utility.yul\":17714:17719   */\n      dup3\n        /* \"#utility.yul\":17681:17720   */\n      tag_225\n      jump\t// in\n    tag_455:\n        /* \"#utility.yul\":17736:17807   */\n      tag_456\n        /* \"#utility.yul\":17800:17806   */\n      dup2\n        /* \"#utility.yul\":17795:17798   */\n      dup6\n        /* \"#utility.yul\":17736:17807   */\n      tag_222\n      jump\t// in\n    tag_456:\n        /* \"#utility.yul\":17729:17807   */\n      swap4\n      pop\n        /* \"#utility.yul\":17816:17881   */\n      tag_457\n        /* \"#utility.yul\":17874:17880   */\n      dup2\n        /* \"#utility.yul\":17869:17872   */\n      dup6\n        /* \"#utility.yul\":17862:17866   */\n      0x20\n        /* \"#utility.yul\":17855:17860   */\n      dup7\n        /* \"#utility.yul\":17851:17867   */\n      add\n        /* \"#utility.yul\":17816:17881   */\n      tag_243\n      jump\t// in\n    tag_457:\n        /* \"#utility.yul\":17906:17935   */\n      tag_458\n        /* \"#utility.yul\":17928:17934   */\n      dup2\n        /* \"#utility.yul\":17906:17935   */\n      tag_207\n      jump\t// in\n    tag_458:\n        /* \"#utility.yul\":17901:17904   */\n      dup5\n        /* \"#utility.yul\":17897:17936   */\n      add\n        /* \"#utility.yul\":17890:17936   */\n      swap2\n      pop\n        /* \"#utility.yul\":17657:17942   */\n      pop\n        /* \"#utility.yul\":17565:17942   */\n      swap3\n      swap2\n      pop\n      pop\n      jump\t// out\n        /* \"#utility.yul\":17948:18371   */\n    tag_128:\n        /* \"#utility.yul\":18089:18093   */\n      0x00\n        /* \"#utility.yul\":18127:18129   */\n      0x40\n        /* \"#utility.yul\":18116:18125   */\n      dup3\n        /* \"#utility.yul\":18112:18130   */\n      add\n        /* \"#utility.yul\":18104:18130   */\n      swap1\n      pop\n        /* \"#utility.yul\":18176:18185   */\n      dup2\n        /* \"#utility.yul\":18170:18174   */\n      dup2\n        /* \"#utility.yul\":18166:18186   */\n      sub\n        /* \"#utility.yul\":18162:18163   */\n      0x00\n        /* \"#utility.yul\":18151:18160   */\n      dup4\n        /* \"#utility.yul\":18147:18164   */\n      add\n        /* \"#utility.yul\":18140:18187   */\n      mstore\n        /* \"#utility.yul\":18204:18282   */\n      tag_460\n        /* \"#utility.yul\":18277:18281   */\n      dup2\n        /* \"#utility.yul\":18268:18274   */\n      dup6\n        /* \"#utility.yul\":18204:18282   */\n      tag_244\n      jump\t// in\n    tag_460:\n        /* \"#utility.yul\":18196:18282   */\n      swap1\n      pop\n        /* \"#utility.yul\":18292:18364   */\n      tag_461\n        /* \"#utility.yul\":18360:18362   */\n      0x20\n        /* \"#utility.yul\":18349:18358   */\n      dup4\n        /* \"#utility.yul\":18345:18363   */\n      add\n        /* \"#utility.yul\":18336:18342   */\n      dup5\n        /* \"#utility.yul\":18292:18364   */\n      tag_192\n      jump\t// in\n    tag_461:\n        /* \"#utility.yul\":17948:18371   */\n      swap4\n      swap3\n      pop\n      pop\n      pop\n      jump\t// out\n        /* \"#utility.yul\":18377:18571   */\n    tag_143:\n        /* \"#utility.yul\":18417:18421   */\n      0x00\n        /* \"#utility.yul\":18437:18457   */\n      tag_463\n        /* \"#utility.yul\":18455:18456   */\n      dup3\n        /* \"#utility.yul\":18437:18457   */\n      tag_191\n      jump\t// in\n    tag_463:\n        /* \"#utility.yul\":18432:18457   */\n      swap2\n      pop\n        /* \"#utility.yul\":18471:18491   */\n      tag_464\n        /* \"#utility.yul\":18489:18490   */\n      dup4\n        /* \"#utility.yul\":18471:18491   */\n      tag_191\n      jump\t// in\n    tag_464:\n        /* \"#utility.yul\":18466:18491   */\n      swap3\n      pop\n        /* \"#utility.yul\":18515:18516   */\n      dup3\n        /* \"#utility.yul\":18512:18513   */\n      dup3\n        /* \"#utility.yul\":18508:18517   */\n      sub\n        /* \"#utility.yul\":18500:18517   */\n      swap1\n      pop\n        /* \"#utility.yul\":18539:18540   */\n      dup2\n        /* \"#utility.yul\":18533:18537   */\n      dup2\n        /* \"#utility.yul\":18530:18541   */\n      gt\n        /* \"#utility.yul\":18527:18564   */\n      iszero\n      tag_465\n      jumpi\n        /* \"#utility.yul\":18544:18562   */\n      tag_466\n      tag_214\n      jump\t// in\n    tag_466:\n        /* \"#utility.yul\":18527:18564   */\n    tag_465:\n        /* \"#utility.yul\":18377:18571   */\n      swap3\n      swap2\n      pop\n      pop\n      jump\t// out\n        /* \"#utility.yul\":18577:18757   */\n    tag_178:\n        /* \"#utility.yul\":18625:18702   */\n      0x4e487b7100000000000000000000000000000000000000000000000000000000\n        /* \"#utility.yul\":18622:18623   */\n      0x00\n        /* \"#utility.yul\":18615:18703   */\n      mstore\n        /* \"#utility.yul\":18722:18726   */\n      0x31\n        /* \"#utility.yul\":18719:18720   */\n      0x04\n        /* \"#utility.yul\":18712:18727   */\n      mstore\n        /* \"#utility.yul\":18746:18750   */\n      0x24\n        /* \"#utility.yul\":18743:18744   */\n      0x00\n        /* \"#utility.yul\":18736:18751   */\n      revert\n\n    auxdata: 0xa2646970667358221220a0b099228afaf365a90cc4bf09dd9af86ebfd1318b3ec46f303e788f16781b6464736f6c634300081e0033\n}\n",
				"bytecode": {
					"linkReferences": {},
					"object": "608060405234801561000f575f5ffd5b505f6001819055505f67ffffffffffffffff8111156100315761003061011c565b5b60405190808252806020026020018201604052801561005f5781602001602082028036833780820191505090505b505f908051906020019061007492919061007a565b50610149565b828054828255905f5260205f209081019282156100f0579160200282015b828111156100ef578251825f6101000a81548173ffffffffffffffffffffffffffffffffffffffff021916908373ffffffffffffffffffffffffffffffffffffffff16021790555091602001919060010190610098565b5b5090506100fd9190610101565b5090565b5b80821115610118575f815f905550600101610102565b5090565b7f4e487b71000000000000000000000000000000000000000000000000000000005f52604160045260245ffd5b6119fa806101565f395ff3fe608060405234801561000f575f5ffd5b5060043610610091575f3560e01c8063803863fb11610064578063803863fb146101325780638457a66a14610150578063bb33ce7114610180578063c4cdb5751461019e578063e92626ae146101ce57610091565b806322a51c291461009557806322d616d2146100b35780633210243e146100e457806349d2692114610102575b5f5ffd5b61009d6101ec565b6040516100aa9190610efc565b60405180910390f35b6100cd60048036038101906100c89190610f50565b6101f1565b6040516100db929190610fa8565b60405180910390f35b6100ec6105b4565b6040516100f99190610efc565b60405180910390f35b61011c60048036038101906101179190611029565b6105b9565b6040516101299190610efc565b60405180910390f35b61013a6105ce565b6040516101479190610efc565b60405180910390f35b61016a60048036038101906101659190611054565b6105d4565b604051610177919061108e565b60405180910390f35b61018861060e565b60405161019591906110a7565b60405180910390f35b6101b860048036038101906101b391906111fc565b61074e565b6040516101c591906110a7565b60405180910390f35b6101d66109ad565b6040516101e39190610efc565b60405180910390f35b602881565b5f5f6101fd84336109b2565b1561020d575f5f915091506105ad565b5f60035f8681526020019081526020015f206006015490508360035f8781526020019081526020015f20600401828154811061024c5761024b611256565b5b905f5260205f2001819055503360035f8781526020019081526020015f20600501828154811061027f5761027e611256565b5b905f5260205f20015f6101000a81548173ffffffffffffffffffffffffffffffffffffffff021916908373ffffffffffffffffffffffffffffffffffffffff16021790555060035f8681526020019081526020015f206006015f8154809291906102e8906112b0565b91905055505f8054905060026102fe91906112f7565b6003805f8881526020019081526020015f206006015461031e91906112f7565b106105a5575f5f90505f5f90505f5f90505b60035f8981526020019081526020015f20600601548110156104b5575f60035f8a81526020019081526020015f20600501828154811061037357610372611256565b5b905f5260205f20015f9054906101000a900473ffffffffffffffffffffffffffffffffffffffff16905060035f8a81526020019081526020015f206006015460035f8481526020019081526020015f20600301546103d19190611365565b60025f8373ffffffffffffffffffffffffffffffffffffffff1673ffffffffffffffffffffffffffffffffffffffff1681526020019081526020015f205f82825461041c9190611395565b9250508190555060035f8a81526020019081526020015f20600401828154811061044957610448611256565b5b905f5260205f2001548461045d9190611395565b9350600260035f8b81526020019081526020015f20600401838154811061048757610486611256565b5b905f5260205f20015461049a9190611503565b836104a59190611395565b9250508080600101915050610330565b505f60035f8981526020019081526020015f206001015f9054906101000a900473ffffffffffffffffffffffffffffffffffffffff16905060035f8981526020019081526020015f20600601548361050d9190611365565b925061051a888484610aae565b508073ffffffffffffffffffffffffffffffffffffffff1663e5d60ce1846040518263ffffffff1660e01b81526004016105549190610efc565b6020604051808303815f875af1158015610570573d5f5f3e3d5ffd5b505050506040513d601f19601f820116820180604052508101906105949190611577565b5082600195509550505050506105ad565b5f5f92509250505b9250929050565b605081565b6002602052805f5260405f205f915090505481565b60015481565b5f81815481106105e2575f80fd5b905f5260205f20015f915054906101000a900473ffffffffffffffffffffffffffffffffffffffff1681565b5f5f5f90505b5f805490508110156106a3573373ffffffffffffffffffffffffffffffffffffffff165f828154811061064a57610649611256565b5b905f5260205f20015f9054906101000a900473ffffffffffffffffffffffffffffffffffffffff1673ffffffffffffffffffffffffffffffffffffffff1603610696575f91505061074b565b8080600101915050610614565b50605060025f3373ffffffffffffffffffffffffffffffffffffffff1673ffffffffffffffffffffffffffffffffffffffff1681526020019081526020015f20819055505f33908060018154018082558091505060019003905f5260205f20015f9091909190916101000a81548173ffffffffffffffffffffffffffffffffffffffff021916908373ffffffffffffffffffffffffffffffffffffffff160217905550600190505b90565b5f600a821015610793576040517f08c379a000000000000000000000000000000000000000000000000000000000815260040161078a906115fc565b60405180910390fd5b60015f80549050116107a7575f90506109a7565b5f60015f8154809291906107ba906112b0565b9190505590506040518060e001604052808281526020013373ffffffffffffffffffffffffffffffffffffffff1681526020018581526020018481526020015f8054905067ffffffffffffffff811115610817576108166110d8565b5b6040519080825280602002602001820160405280156108455781602001602082028036833780820191505090505b5081526020015f8054905067ffffffffffffffff811115610869576108686110d8565b5b6040519080825280602002602001820160405280156108975781602001602082028036833780820191505090505b5081526020015f81525060035f8381526020019081526020015f205f820151815f01556020820151816001015f6101000a81548173ffffffffffffffffffffffffffffffffffffffff021916908373ffffffffffffffffffffffffffffffffffffffff16021790555060408201518160020190816109159190611821565b5060608201518160030155608082015181600401908051906020019061093c929190610df7565b5060a0820151816005019080519060200190610959929190610e42565b5060c08201518160060155905050807fff720fe3c931d07ee2cb53614d5790d5e186f7e2a84ed6aa4ad335a4f896e46a8585604051610999929190611936565b60405180910390a260019150505b92915050565b600a81565b5f5f60035f8581526020019081526020015f205f0154036109d5575f9050610aa8565b5f60035f8581526020019081526020015f206006015490505f81036109fd575f915050610aa8565b5f5f90505b81811015610aa2578373ffffffffffffffffffffffffffffffffffffffff1660035f8781526020019081526020015f206005018281548110610a4757610a46611256565b5b905f5260205f20015f9054906101000a900473ffffffffffffffffffffffffffffffffffffffff1673ffffffffffffffffffffffffffffffffffffffff1603610a9557600192505050610aa8565b8080600101915050610a02565b505f9150505b92915050565b5f5f8384610abc91906112f7565b60035f8781526020019081526020015f206006015484610adc9190611365565b610ae69190611964565b90505f5f90505b60035f8781526020019081526020015f2060060154811015610c69575f60035f8881526020019081526020015f206005018281548110610b3057610b2f611256565b5b905f5260205f20015f9054906101000a900473ffffffffffffffffffffffffffffffffffffffff1690505f60035f8981526020019081526020015f206004018381548110610b8157610b80611256565b5b905f5260205f2001549050808488610b999190611395565b111580610bb15750808488610bae9190611964565b10155b15610c0b57602860025f8473ffffffffffffffffffffffffffffffffffffffff1673ffffffffffffffffffffffffffffffffffffffff1681526020019081526020015f205f828254610c039190611964565b925050819055505b5f60025f8473ffffffffffffffffffffffffffffffffffffffff1673ffffffffffffffffffffffffffffffffffffffff1681526020019081526020015f205411610c5a57610c5882610c76565b505b50508080600101915050610aed565b5060019150509392505050565b5f5f5f90505b5f80549050811015610ded578273ffffffffffffffffffffffffffffffffffffffff165f8281548110610cb257610cb1611256565b5b905f5260205f20015f9054906101000a900473ffffffffffffffffffffffffffffffffffffffff1673ffffffffffffffffffffffffffffffffffffffff1603610de0575f60015f80549050610d079190611964565b81548110610d1857610d17611256565b5b905f5260205f20015f9054906101000a900473ffffffffffffffffffffffffffffffffffffffff165f8281548110610d5357610d52611256565b5b905f5260205f20015f6101000a81548173ffffffffffffffffffffffffffffffffffffffff021916908373ffffffffffffffffffffffffffffffffffffffff1602179055505f805480610da957610da8611997565b5b600190038181905f5260205f20015f6101000a81549073ffffffffffffffffffffffffffffffffffffffff02191690559055610ded565b8080600101915050610c7c565b5060019050919050565b828054828255905f5260205f20908101928215610e31579160200282015b82811115610e30578251825591602001919060010190610e15565b5b509050610e3e9190610ec9565b5090565b828054828255905f5260205f20908101928215610eb8579160200282015b82811115610eb7578251825f6101000a81548173ffffffffffffffffffffffffffffffffffffffff021916908373ffffffffffffffffffffffffffffffffffffffff16021790555091602001919060010190610e60565b5b509050610ec59190610ec9565b5090565b5b80821115610ee0575f815f905550600101610eca565b5090565b5f819050919050565b610ef681610ee4565b82525050565b5f602082019050610f0f5f830184610eed565b92915050565b5f604051905090565b5f5ffd5b5f5ffd5b610f2f81610ee4565b8114610f39575f5ffd5b50565b5f81359050610f4a81610f26565b92915050565b5f5f60408385031215610f6657610f65610f1e565b5b5f610f7385828601610f3c565b9250506020610f8485828601610f3c565b9150509250929050565b5f8115159050919050565b610fa281610f8e565b82525050565b5f604082019050610fbb5f830185610eed565b610fc86020830184610f99565b9392505050565b5f73ffffffffffffffffffffffffffffffffffffffff82169050919050565b5f610ff882610fcf565b9050919050565b61100881610fee565b8114611012575f5ffd5b50565b5f8135905061102381610fff565b92915050565b5f6020828403121561103e5761103d610f1e565b5b5f61104b84828501611015565b91505092915050565b5f6020828403121561106957611068610f1e565b5b5f61107684828501610f3c565b91505092915050565b61108881610fee565b82525050565b5f6020820190506110a15f83018461107f565b92915050565b5f6020820190506110ba5f830184610f99565b92915050565b5f5ffd5b5f5ffd5b5f601f19601f8301169050919050565b7f4e487b71000000000000000000000000000000000000000000000000000000005f52604160045260245ffd5b61110e826110c8565b810181811067ffffffffffffffff8211171561112d5761112c6110d8565b5b80604052505050565b5f61113f610f15565b905061114b8282611105565b919050565b5f67ffffffffffffffff82111561116a576111696110d8565b5b611173826110c8565b9050602081019050919050565b828183375f83830152505050565b5f6111a061119b84611150565b611136565b9050828152602081018484840111156111bc576111bb6110c4565b5b6111c7848285611180565b509392505050565b5f82601f8301126111e3576111e26110c0565b5b81356111f384826020860161118e565b91505092915050565b5f5f6040838503121561121257611211610f1e565b5b5f83013567ffffffffffffffff81111561122f5761122e610f22565b5b61123b858286016111cf565b925050602061124c85828601610f3c565b9150509250929050565b7f4e487b71000000000000000000000000000000000000000000000000000000005f52603260045260245ffd5b7f4e487b71000000000000000000000000000000000000000000000000000000005f52601160045260245ffd5b5f6112ba82610ee4565b91507fffffffffffffffffffffffffffffffffffffffffffffffffffffffffffffffff82036112ec576112eb611283565b5b600182019050919050565b5f61130182610ee4565b915061130c83610ee4565b925082820261131a81610ee4565b9150828204841483151761133157611330611283565b5b5092915050565b7f4e487b71000000000000000000000000000000000000000000000000000000005f52601260045260245ffd5b5f61136f82610ee4565b915061137a83610ee4565b92508261138a57611389611338565b5b828204905092915050565b5f61139f82610ee4565b91506113aa83610ee4565b92508282019050808211156113c2576113c1611283565b5b92915050565b5f8160011c9050919050565b5f5f8291508390505b600185111561141d578086048111156113f9576113f8611283565b5b60018516156114085780820291505b8081029050611416856113c8565b94506113dd565b94509492505050565b5f8261143557600190506114f0565b81611442575f90506114f0565b8160018114611458576002811461146257611491565b60019150506114f0565b60ff84111561147457611473611283565b5b8360020a91508482111561148b5761148a611283565b5b506114f0565b5060208310610133831016604e8410600b84101617156114c65782820a9050838111156114c1576114c0611283565b5b6114f0565b6114d384848460016113d4565b925090508184048111156114ea576114e9611283565b5b81810290505b9392505050565b5f60ff82169050919050565b5f61150d82610ee4565b9150611518836114f7565b92506115457fffffffffffffffffffffffffffffffffffffffffffffffffffffffffffffffff8484611426565b905092915050565b61155681610f8e565b8114611560575f5ffd5b50565b5f815190506115718161154d565b92915050565b5f6020828403121561158c5761158b610f1e565b5b5f61159984828501611563565b91505092915050565b5f82825260208201905092915050565b7f746f6f206c6573732066656500000000000000000000000000000000000000005f82015250565b5f6115e6600c836115a2565b91506115f1826115b2565b602082019050919050565b5f6020820190508181035f830152611613816115da565b9050919050565b5f81519050919050565b7f4e487b71000000000000000000000000000000000000000000000000000000005f52602260045260245ffd5b5f600282049050600182168061166857607f821691505b60208210810361167b5761167a611624565b5b50919050565b5f819050815f5260205f209050919050565b5f6020601f8301049050919050565b5f82821b905092915050565b5f600883026116dd7fffffffffffffffffffffffffffffffffffffffffffffffffffffffffffffffff826116a2565b6116e786836116a2565b95508019841693508086168417925050509392505050565b5f819050919050565b5f61172261171d61171884610ee4565b6116ff565b610ee4565b9050919050565b5f819050919050565b61173b83611708565b61174f61174782611729565b8484546116ae565b825550505050565b5f5f905090565b611766611757565b611771818484611732565b505050565b5b81811015611794576117895f8261175e565b600181019050611777565b5050565b601f8211156117d9576117aa81611681565b6117b384611693565b810160208510156117c2578190505b6117d66117ce85611693565b830182611776565b50505b505050565b5f82821c905092915050565b5f6117f95f19846008026117de565b1980831691505092915050565b5f61181183836117ea565b9150826002028217905092915050565b61182a8261161a565b67ffffffffffffffff811115611843576118426110d8565b5b61184d8254611651565b611858828285611798565b5f60209050601f831160018114611889575f8415611877578287015190505b6118818582611806565b8655506118e8565b601f19841661189786611681565b5f5b828110156118be57848901518255600182019150602085019450602081019050611899565b868310156118db57848901516118d7601f8916826117ea565b8355505b6001600288020188555050505b505050505050565b8281835e5f83830152505050565b5f6119088261161a565b61191281856115a2565b93506119228185602086016118f0565b61192b816110c8565b840191505092915050565b5f6040820190508181035f83015261194e81856118fe565b905061195d6020830184610eed565b9392505050565b5f61196e82610ee4565b915061197983610ee4565b925082820390508181111561199157611990611283565b5b92915050565b7f4e487b71000000000000000000000000000000000000000000000000000000005f52603160045260245ffdfea2646970667358221220a0b099228afaf365a90cc4bf09dd9af86ebfd1318b3ec46f303e788f16781b6464736f6c634300081e0033",
					"opcodes": "PUSH1 0x80 PUSH1 0x40 MSTORE CALLVALUE DUP1 ISZERO PUSH2 0xF JUMPI PUSH0 PUSH0 REVERT JUMPDEST POP PUSH0 PUSH1 0x1 DUP2 SWAP1 SSTORE POP PUSH0 PUSH8 0xFFFFFFFFFFFFFFFF DUP2 GT ISZERO PUSH2 0x31 JUMPI PUSH2 0x30 PUSH2 0x11C JUMP JUMPDEST JUMPDEST PUSH1 0x40 MLOAD SWAP1 DUP1 DUP3 MSTORE DUP1 PUSH1 0x20 MUL PUSH1 0x20 ADD DUP3 ADD PUSH1 0x40 MSTORE DUP1 ISZERO PUSH2 0x5F JUMPI DUP2 PUSH1 0x20 ADD PUSH1 0x20 DUP3 MUL DUP1 CALLDATASIZE DUP4 CALLDATACOPY DUP1 DUP3 ADD SWAP2 POP POP SWAP1 POP JUMPDEST POP PUSH0 SWAP1 DUP1 MLOAD SWAP1 PUSH1 0x20 ADD SWAP1 PUSH2 0x74 SWAP3 SWAP2 SWAP1 PUSH2 0x7A JUMP JUMPDEST POP PUSH2 0x149 JUMP JUMPDEST DUP3 DUP1 SLOAD DUP3 DUP3 SSTORE SWAP1 PUSH0 MSTORE PUSH1 0x20 PUSH0 KECCAK256 SWAP1 DUP2 ADD SWAP3 DUP3 ISZERO PUSH2 0xF0 JUMPI SWAP2 PUSH1 0x20 MUL DUP3 ADD JUMPDEST DUP3 DUP2 GT ISZERO PUSH2 0xEF JUMPI DUP3 MLOAD DUP3 PUSH0 PUSH2 0x100 EXP DUP2 SLOAD DUP2 PUSH20 0xFFFFFFFFFFFFFFFFFFFFFFFFFFFFFFFFFFFFFFFF MUL NOT AND SWAP1 DUP4 PUSH20 0xFFFFFFFFFFFFFFFFFFFFFFFFFFFFFFFFFFFFFFFF AND MUL OR SWAP1 SSTORE POP SWAP2 PUSH1 0x20 ADD SWAP2 SWAP1 PUSH1 0x1 ADD SWAP1 PUSH2 0x98 JUMP JUMPDEST JUMPDEST POP SWAP1 POP PUSH2 0xFD SWAP2 SWAP1 PUSH2 0x101 JUMP JUMPDEST POP SWAP1 JUMP JUMPDEST JUMPDEST DUP1 DUP3 GT ISZERO PUSH2 0x118 JUMPI PUSH0 DUP2 PUSH0 SWAP1 SSTORE POP PUSH1 0x1 ADD PUSH2 0x102 JUMP JUMPDEST POP SWAP1 JUMP JUMPDEST PUSH32 0x4E487B7100000000000000000000000000000000000000000000000000000000 PUSH0 MSTORE PUSH1 0x41 PUSH1 0x4 MSTORE PUSH1 0x24 PUSH0 REVERT JUMPDEST PUSH2 0x19FA DUP1 PUSH2 0x156 PUSH0 CODECOPY PUSH0 RETURN INVALID PUSH1 0x80 PUSH1 0x40 MSTORE CALLVALUE DUP1 ISZERO PUSH2 0xF JUMPI PUSH0 PUSH0 REVERT JUMPDEST POP PUSH1 0x4 CALLDATASIZE LT PUSH2 0x91 JUMPI PUSH0 CALLDATALOAD PUSH1 0xE0 SHR DUP1 PUSH4 0x803863FB GT PUSH2 0x64 JUMPI DUP1 PUSH4 0x803863FB EQ PUSH2 0x132 JUMPI DUP1 PUSH4 0x8457A66A EQ PUSH2 0x150 JUMPI DUP1 PUSH4 0xBB33CE71 EQ PUSH2 0x180 JUMPI DUP1 PUSH4 0xC4CDB575 EQ PUSH2 0x19E JUMPI DUP1 PUSH4 0xE92626AE EQ PUSH2 0x1CE JUMPI PUSH2 0x91 JUMP JUMPDEST DUP1 PUSH4 0x22A51C29 EQ PUSH2 0x95 JUMPI DUP1 PUSH4 0x22D616D2 EQ PUSH2 0xB3 JUMPI DUP1 PUSH4 0x3210243E EQ PUSH2 0xE4 JUMPI DUP1 PUSH4 0x49D26921 EQ PUSH2 0x102 JUMPI JUMPDEST PUSH0 PUSH0 REVERT JUMPDEST PUSH2 0x9D PUSH2 0x1EC JUMP JUMPDEST PUSH1 0x40 MLOAD PUSH2 0xAA SWAP2 SWAP1 PUSH2 0xEFC JUMP JUMPDEST PUSH1 0x40 MLOAD DUP1 SWAP2 SUB SWAP1 RETURN JUMPDEST PUSH2 0xCD PUSH1 0x4 DUP1 CALLDATASIZE SUB DUP2 ADD SWAP1 PUSH2 0xC8 SWAP2 SWAP1 PUSH2 0xF50 JUMP JUMPDEST PUSH2 0x1F1 JUMP JUMPDEST PUSH1 0x40 MLOAD PUSH2 0xDB SWAP3 SWAP2 SWAP1 PUSH2 0xFA8 JUMP JUMPDEST PUSH1 0x40 MLOAD DUP1 SWAP2 SUB SWAP1 RETURN JUMPDEST PUSH2 0xEC PUSH2 0x5B4 JUMP JUMPDEST PUSH1 0x40 MLOAD PUSH2 0xF9 SWAP2 SWAP1 PUSH2 0xEFC JUMP JUMPDEST PUSH1 0x40 MLOAD DUP1 SWAP2 SUB SWAP1 RETURN JUMPDEST PUSH2 0x11C PUSH1 0x4 DUP1 CALLDATASIZE SUB DUP2 ADD SWAP1 PUSH2 0x117 SWAP2 SWAP1 PUSH2 0x1029 JUMP JUMPDEST PUSH2 0x5B9 JUMP JUMPDEST PUSH1 0x40 MLOAD PUSH2 0x129 SWAP2 SWAP1 PUSH2 0xEFC JUMP JUMPDEST PUSH1 0x40 MLOAD DUP1 SWAP2 SUB SWAP1 RETURN JUMPDEST PUSH2 0x13A PUSH2 0x5CE JUMP JUMPDEST PUSH1 0x40 MLOAD PUSH2 0x147 SWAP2 SWAP1 PUSH2 0xEFC JUMP JUMPDEST PUSH1 0x40 MLOAD DUP1 SWAP2 SUB SWAP1 RETURN JUMPDEST PUSH2 0x16A PUSH1 0x4 DUP1 CALLDATASIZE SUB DUP2 ADD SWAP1 PUSH2 0x165 SWAP2 SWAP1 PUSH2 0x1054 JUMP JUMPDEST PUSH2 0x5D4 JUMP JUMPDEST PUSH1 0x40 MLOAD PUSH2 0x177 SWAP2 SWAP1 PUSH2 0x108E JUMP JUMPDEST PUSH1 0x40 MLOAD DUP1 SWAP2 SUB SWAP1 RETURN JUMPDEST PUSH2 0x188 PUSH2 0x60E JUMP JUMPDEST PUSH1 0x40 MLOAD PUSH2 0x195 SWAP2 SWAP1 PUSH2 0x10A7 JUMP JUMPDEST PUSH1 0x40 MLOAD DUP1 SWAP2 SUB SWAP1 RETURN JUMPDEST PUSH2 0x1B8 PUSH1 0x4 DUP1 CALLDATASIZE SUB DUP2 ADD SWAP1 PUSH2 0x1B3 SWAP2 SWAP1 PUSH2 0x11FC JUMP JUMPDEST PUSH2 0x74E JUMP JUMPDEST PUSH1 0x40 MLOAD PUSH2 0x1C5 SWAP2 SWAP1 PUSH2 0x10A7 JUMP JUMPDEST PUSH1 0x40 MLOAD DUP1 SWAP2 SUB SWAP1 RETURN JUMPDEST PUSH2 0x1D6 PUSH2 0x9AD JUMP JUMPDEST PUSH1 0x40 MLOAD PUSH2 0x1E3 SWAP2 SWAP1 PUSH2 0xEFC JUMP JUMPDEST PUSH1 0x40 MLOAD DUP1 SWAP2 SUB SWAP1 RETURN JUMPDEST PUSH1 0x28 DUP2 JUMP JUMPDEST PUSH0 PUSH0 PUSH2 0x1FD DUP5 CALLER PUSH2 0x9B2 JUMP JUMPDEST ISZERO PUSH2 0x20D JUMPI PUSH0 PUSH0 SWAP2 POP SWAP2 POP PUSH2 0x5AD JUMP JUMPDEST PUSH0 PUSH1 0x3 PUSH0 DUP7 DUP2 MSTORE PUSH1 0x20 ADD SWAP1 DUP2 MSTORE PUSH1 0x20 ADD PUSH0 KECCAK256 PUSH1 0x6 ADD SLOAD SWAP1 POP DUP4 PUSH1 0x3 PUSH0 DUP8 DUP2 MSTORE PUSH1 0x20 ADD SWAP1 DUP2 MSTORE PUSH1 0x20 ADD PUSH0 KECCAK256 PUSH1 0x4 ADD DUP3 DUP2 SLOAD DUP2 LT PUSH2 0x24C JUMPI PUSH2 0x24B PUSH2 0x1256 JUMP JUMPDEST JUMPDEST SWAP1 PUSH0 MSTORE PUSH1 0x20 PUSH0 KECCAK256 ADD DUP2 SWAP1 SSTORE POP CALLER PUSH1 0x3 PUSH0 DUP8 DUP2 MSTORE PUSH1 0x20 ADD SWAP1 DUP2 MSTORE PUSH1 0x20 ADD PUSH0 KECCAK256 PUSH1 0x5 ADD DUP3 DUP2 SLOAD DUP2 LT PUSH2 0x27F JUMPI PUSH2 0x27E PUSH2 0x1256 JUMP JUMPDEST JUMPDEST SWAP1 PUSH0 MSTORE PUSH1 0x20 PUSH0 KECCAK256 ADD PUSH0 PUSH2 0x100 EXP DUP2 SLOAD DUP2 PUSH20 0xFFFFFFFFFFFFFFFFFFFFFFFFFFFFFFFFFFFFFFFF MUL NOT AND SWAP1 DUP4 PUSH20 0xFFFFFFFFFFFFFFFFFFFFFFFFFFFFFFFFFFFFFFFF AND MUL OR SWAP1 SSTORE POP PUSH1 0x3 PUSH0 DUP7 DUP2 MSTORE PUSH1 0x20 ADD SWAP1 DUP2 MSTORE PUSH1 0x20 ADD PUSH0 KECCAK256 PUSH1 0x6 ADD PUSH0 DUP2 SLOAD DUP1 SWAP3 SWAP2 SWAP1 PUSH2 0x2E8 SWAP1 PUSH2 0x12B0 JUMP JUMPDEST SWAP2 SWAP1 POP SSTORE POP PUSH0 DUP1 SLOAD SWAP1 POP PUSH1 0x2 PUSH2 0x2FE SWAP2 SWAP1 PUSH2 0x12F7 JUMP JUMPDEST PUSH1 0x3 DUP1 PUSH0 DUP9 DUP2 MSTORE PUSH1 0x20 ADD SWAP1 DUP2 MSTORE PUSH1 0x20 ADD PUSH0 KECCAK256 PUSH1 0x6 ADD SLOAD PUSH2 0x31E SWAP2 SWAP1 PUSH2 0x12F7 JUMP JUMPDEST LT PUSH2 0x5A5 JUMPI PUSH0 PUSH0 SWAP1 POP PUSH0 PUSH0 SWAP1 POP PUSH0 PUSH0 SWAP1 POP JUMPDEST PUSH1 0x3 PUSH0 DUP10 DUP2 MSTORE PUSH1 0x20 ADD SWAP1 DUP2 MSTORE PUSH1 0x20 ADD PUSH0 KECCAK256 PUSH1 0x6 ADD SLOAD DUP2 LT ISZERO PUSH2 0x4B5 JUMPI PUSH0 PUSH1 0x3 PUSH0 DUP11 DUP2 MSTORE PUSH1 0x20 ADD SWAP1 DUP2 MSTORE PUSH1 0x20 ADD PUSH0 KECCAK256 PUSH1 0x5 ADD DUP3 DUP2 SLOAD DUP2 LT PUSH2 0x373 JUMPI PUSH2 0x372 PUSH2 0x1256 JUMP JUMPDEST JUMPDEST SWAP1 PUSH0 MSTORE PUSH1 0x20 PUSH0 KECCAK256 ADD PUSH0 SWAP1 SLOAD SWAP1 PUSH2 0x100 EXP SWAP1 DIV PUSH20 0xFFFFFFFFFFFFFFFFFFFFFFFFFFFFFFFFFFFFFFFF AND SWAP1 POP PUSH1 0x3 PUSH0 DUP11 DUP2 MSTORE PUSH1 0x20 ADD SWAP1 DUP2 MSTORE PUSH1 0x20 ADD PUSH0 KECCAK256 PUSH1 0x6 ADD SLOAD PUSH1 0x3 PUSH0 DUP5 DUP2 MSTORE PUSH1 0x20 ADD SWAP1 DUP2 MSTORE PUSH1 0x20 ADD PUSH0 KECCAK256 PUSH1 0x3 ADD SLOAD PUSH2 0x3D1 SWAP2 SWAP1 PUSH2 0x1365 JUMP JUMPDEST PUSH1 0x2 PUSH0 DUP4 PUSH20 0xFFFFFFFFFFFFFFFFFFFFFFFFFFFFFFFFFFFFFFFF AND PUSH20 0xFFFFFFFFFFFFFFFFFFFFFFFFFFFFFFFFFFFFFFFF AND DUP2 MSTORE PUSH1 0x20 ADD SWAP1 DUP2 MSTORE PUSH1 0x20 ADD PUSH0 KECCAK256 PUSH0 DUP3 DUP3 SLOAD PUSH2 0x41C SWAP2 SWAP1 PUSH2 0x1395 JUMP JUMPDEST SWAP3 POP POP DUP2 SWAP1 SSTORE POP PUSH1 0x3 PUSH0 DUP11 DUP2 MSTORE PUSH1 0x20 ADD SWAP1 DUP2 MSTORE PUSH1 0x20 ADD PUSH0 KECCAK256 PUSH1 0x4 ADD DUP3 DUP2 SLOAD DUP2 LT PUSH2 0x449 JUMPI PUSH2 0x448 PUSH2 0x1256 JUMP JUMPDEST JUMPDEST SWAP1 PUSH0 MSTORE PUSH1 0x20 PUSH0 KECCAK256 ADD SLOAD DUP5 PUSH2 0x45D SWAP2 SWAP1 PUSH2 0x1395 JUMP JUMPDEST SWAP4 POP PUSH1 0x2 PUSH1 0x3 PUSH0 DUP12 DUP2 MSTORE PUSH1 0x20 ADD SWAP1 DUP2 MSTORE PUSH1 0x20 ADD PUSH0 KECCAK256 PUSH1 0x4 ADD DUP4 DUP2 SLOAD DUP2 LT PUSH2 0x487 JUMPI PUSH2 0x486 PUSH2 0x1256 JUMP JUMPDEST JUMPDEST SWAP1 PUSH0 MSTORE PUSH1 0x20 PUSH0 KECCAK256 ADD SLOAD PUSH2 0x49A SWAP2 SWAP1 PUSH2 0x1503 JUMP JUMPDEST DUP4 PUSH2 0x4A5 SWAP2 SWAP1 PUSH2 0x1395 JUMP JUMPDEST SWAP3 POP POP DUP1 DUP1 PUSH1 0x1 ADD SWAP2 POP POP PUSH2 0x330 JUMP JUMPDEST POP PUSH0 PUSH1 0x3 PUSH0 DUP10 DUP2 MSTORE PUSH1 0x20 ADD SWAP1 DUP2 MSTORE PUSH1 0x20 ADD PUSH0 KECCAK256 PUSH1 0x1 ADD PUSH0 SWAP1 SLOAD SWAP1 PUSH2 0x100 EXP SWAP1 DIV PUSH20 0xFFFFFFFFFFFFFFFFFFFFFFFFFFFFFFFFFFFFFFFF AND SWAP1 POP PUSH1 0x3 PUSH0 DUP10 DUP2 MSTORE PUSH1 0x20 ADD SWAP1 DUP2 MSTORE PUSH1 0x20 ADD PUSH0 KECCAK256 PUSH1 0x6 ADD SLOAD DUP4 PUSH2 0x50D SWAP2 SWAP1 PUSH2 0x1365 JUMP JUMPDEST SWAP3 POP PUSH2 0x51A DUP9 DUP5 DUP5 PUSH2 0xAAE JUMP JUMPDEST POP DUP1 PUSH20 0xFFFFFFFFFFFFFFFFFFFFFFFFFFFFFFFFFFFFFFFF AND PUSH4 0xE5D60CE1 DUP5 PUSH1 0x40 MLOAD DUP3 PUSH4 0xFFFFFFFF AND PUSH1 0xE0 SHL DUP2 MSTORE PUSH1 0x4 ADD PUSH2 0x554 SWAP2 SWAP1 PUSH2 0xEFC JUMP JUMPDEST PUSH1 0x20 PUSH1 0x40 MLOAD DUP1 DUP4 SUB DUP2 PUSH0 DUP8 GAS CALL ISZERO DUP1 ISZERO PUSH2 0x570 JUMPI RETURNDATASIZE PUSH0 PUSH0 RETURNDATACOPY RETURNDATASIZE PUSH0 REVERT JUMPDEST POP POP POP POP PUSH1 0x40 MLOAD RETURNDATASIZE PUSH1 0x1F NOT PUSH1 0x1F DUP3 ADD AND DUP3 ADD DUP1 PUSH1 0x40 MSTORE POP DUP2 ADD SWAP1 PUSH2 0x594 SWAP2 SWAP1 PUSH2 0x1577 JUMP JUMPDEST POP DUP3 PUSH1 0x1 SWAP6 POP SWAP6 POP POP POP POP POP PUSH2 0x5AD JUMP JUMPDEST PUSH0 PUSH0 SWAP3 POP SWAP3 POP POP JUMPDEST SWAP3 POP SWAP3 SWAP1 POP JUMP JUMPDEST PUSH1 0x50 DUP2 JUMP JUMPDEST PUSH1 0x2 PUSH1 0x20 MSTORE DUP1 PUSH0 MSTORE PUSH1 0x40 PUSH0 KECCAK256 PUSH0 SWAP2 POP SWAP1 POP SLOAD DUP2 JUMP JUMPDEST PUSH1 0x1 SLOAD DUP2 JUMP JUMPDEST PUSH0 DUP2 DUP2 SLOAD DUP2 LT PUSH2 0x5E2 JUMPI PUSH0 DUP1 REVERT JUMPDEST SWAP1 PUSH0 MSTORE PUSH1 0x20 PUSH0 KECCAK256 ADD PUSH0 SWAP2 POP SLOAD SWAP1 PUSH2 0x100 EXP SWAP1 DIV PUSH20 0xFFFFFFFFFFFFFFFFFFFFFFFFFFFFFFFFFFFFFFFF AND DUP2 JUMP JUMPDEST PUSH0 PUSH0 PUSH0 SWAP1 POP JUMPDEST PUSH0 DUP1 SLOAD SWAP1 POP DUP2 LT ISZERO PUSH2 0x6A3 JUMPI CALLER PUSH20 0xFFFFFFFFFFFFFFFFFFFFFFFFFFFFFFFFFFFFFFFF AND PUSH0 DUP3 DUP2 SLOAD DUP2 LT PUSH2 0x64A JUMPI PUSH2 0x649 PUSH2 0x1256 JUMP JUMPDEST JUMPDEST SWAP1 PUSH0 MSTORE PUSH1 0x20 PUSH0 KECCAK256 ADD PUSH0 SWAP1 SLOAD SWAP1 PUSH2 0x100 EXP SWAP1 DIV PUSH20 0xFFFFFFFFFFFFFFFFFFFFFFFFFFFFFFFFFFFFFFFF AND PUSH20 0xFFFFFFFFFFFFFFFFFFFFFFFFFFFFFFFFFFFFFFFF AND SUB PUSH2 0x696 JUMPI PUSH0 SWAP2 POP POP PUSH2 0x74B JUMP JUMPDEST DUP1 DUP1 PUSH1 0x1 ADD SWAP2 POP POP PUSH2 0x614 JUMP JUMPDEST POP PUSH1 0x50 PUSH1 0x2 PUSH0 CALLER PUSH20 0xFFFFFFFFFFFFFFFFFFFFFFFFFFFFFFFFFFFFFFFF AND PUSH20 0xFFFFFFFFFFFFFFFFFFFFFFFFFFFFFFFFFFFFFFFF AND DUP2 MSTORE PUSH1 0x20 ADD SWAP1 DUP2 MSTORE PUSH1 0x20 ADD PUSH0 KECCAK256 DUP2 SWAP1 SSTORE POP PUSH0 CALLER SWAP1 DUP1 PUSH1 0x1 DUP2 SLOAD ADD DUP1 DUP3 SSTORE DUP1 SWAP2 POP POP PUSH1 0x1 SWAP1 SUB SWAP1 PUSH0 MSTORE PUSH1 0x20 PUSH0 KECCAK256 ADD PUSH0 SWAP1 SWAP2 SWAP1 SWAP2 SWAP1 SWAP2 PUSH2 0x100 EXP DUP2 SLOAD DUP2 PUSH20 0xFFFFFFFFFFFFFFFFFFFFFFFFFFFFFFFFFFFFFFFF MUL NOT AND SWAP1 DUP4 PUSH20 0xFFFFFFFFFFFFFFFFFFFFFFFFFFFFFFFFFFFFFFFF AND MUL OR SWAP1 SSTORE POP PUSH1 0x1 SWAP1 POP JUMPDEST SWAP1 JUMP JUMPDEST PUSH0 PUSH1 0xA DUP3 LT ISZERO PUSH2 0x793 JUMPI PUSH1 0x40 MLOAD PUSH32 0x8C379A000000000000000000000000000000000000000000000000000000000 DUP2 MSTORE PUSH1 0x4 ADD PUSH2 0x78A SWAP1 PUSH2 0x15FC JUMP JUMPDEST PUSH1 0x40 MLOAD DUP1 SWAP2 SUB SWAP1 REVERT JUMPDEST PUSH1 0x1 PUSH0 DUP1 SLOAD SWAP1 POP GT PUSH2 0x7A7 JUMPI PUSH0 SWAP1 POP PUSH2 0x9A7 JUMP JUMPDEST PUSH0 PUSH1 0x1 PUSH0 DUP2 SLOAD DUP1 SWAP3 SWAP2 SWAP1 PUSH2 0x7BA SWAP1 PUSH2 0x12B0 JUMP JUMPDEST SWAP2 SWAP1 POP SSTORE SWAP1 POP PUSH1 0x40 MLOAD DUP1 PUSH1 0xE0 ADD PUSH1 0x40 MSTORE DUP1 DUP3 DUP2 MSTORE PUSH1 0x20 ADD CALLER PUSH20 0xFFFFFFFFFFFFFFFFFFFFFFFFFFFFFFFFFFFFFFFF AND DUP2 MSTORE PUSH1 0x20 ADD DUP6 DUP2 MSTORE PUSH1 0x20 ADD DUP5 DUP2 MSTORE PUSH1 0x20 ADD PUSH0 DUP1 SLOAD SWAP1 POP PUSH8 0xFFFFFFFFFFFFFFFF DUP2 GT ISZERO PUSH2 0x817 JUMPI PUSH2 0x816 PUSH2 0x10D8 JUMP JUMPDEST JUMPDEST PUSH1 0x40 MLOAD SWAP1 DUP1 DUP3 MSTORE DUP1 PUSH1 0x20 MUL PUSH1 0x20 ADD DUP3 ADD PUSH1 0x40 MSTORE DUP1 ISZERO PUSH2 0x845 JUMPI DUP2 PUSH1 0x20 ADD PUSH1 0x20 DUP3 MUL DUP1 CALLDATASIZE DUP4 CALLDATACOPY DUP1 DUP3 ADD SWAP2 POP POP SWAP1 POP JUMPDEST POP DUP2 MSTORE PUSH1 0x20 ADD PUSH0 DUP1 SLOAD SWAP1 POP PUSH8 0xFFFFFFFFFFFFFFFF DUP2 GT ISZERO PUSH2 0x869 JUMPI PUSH2 0x868 PUSH2 0x10D8 JUMP JUMPDEST JUMPDEST PUSH1 0x40 MLOAD SWAP1 DUP1 DUP3 MSTORE DUP1 PUSH1 0x20 MUL PUSH1 0x20 ADD DUP3 ADD PUSH1 0x40 MSTORE DUP1 ISZERO PUSH2 0x897 JUMPI DUP2 PUSH1 0x20 ADD PUSH1 0x20 DUP3 MUL DUP1 CALLDATASIZE DUP4 CALLDATACOPY DUP1 DUP3 ADD SWAP2 POP POP SWAP1 POP JUMPDEST POP DUP2 MSTORE PUSH1 0x20 ADD PUSH0 DUP2 MSTORE POP PUSH1 0x3 PUSH0 DUP4 DUP2 MSTORE PUSH1 0x20 ADD SWAP1 DUP2 MSTORE PUSH1 0x20 ADD PUSH0 KECCAK256 PUSH0 DUP3 ADD MLOAD DUP2 PUSH0 ADD SSTORE PUSH1 0x20 DUP3 ADD MLOAD DUP2 PUSH1 0x1 ADD PUSH0 PUSH2 0x100 EXP DUP2 SLOAD DUP2 PUSH20 0xFFFFFFFFFFFFFFFFFFFFFFFFFFFFFFFFFFFFFFFF MUL NOT AND SWAP1 DUP4 PUSH20 0xFFFFFFFFFFFFFFFFFFFFFFFFFFFFFFFFFFFFFFFF AND MUL OR SWAP1 SSTORE POP PUSH1 0x40 DUP3 ADD MLOAD DUP2 PUSH1 0x2 ADD SWAP1 DUP2 PUSH2 0x915 SWAP2 SWAP1 PUSH2 0x1821 JUMP JUMPDEST POP PUSH1 0x60 DUP3 ADD MLOAD DUP2 PUSH1 0x3 ADD SSTORE PUSH1 0x80 DUP3 ADD MLOAD DUP2 PUSH1 0x4 ADD SWAP1 DUP1 MLOAD SWAP1 PUSH1 0x20 ADD SWAP1 PUSH2 0x93C SWAP3 SWAP2 SWAP1 PUSH2 0xDF7 JUMP JUMPDEST POP PUSH1 0xA0 DUP3 ADD MLOAD DUP2 PUSH1 0x5 ADD SWAP1 DUP1 MLOAD SWAP1 PUSH1 0x20 ADD SWAP1 PUSH2 0x959 SWAP3 SWAP2 SWAP1 PUSH2 0xE42 JUMP JUMPDEST POP PUSH1 0xC0 DUP3 ADD MLOAD DUP2 PUSH1 0x6 ADD SSTORE SWAP1 POP POP DUP1 PUSH32 0xFF720FE3C931D07EE2CB53614D5790D5E186F7E2A84ED6AA4AD335A4F896E46A DUP6 DUP6 PUSH1 0x40 MLOAD PUSH2 0x999 SWAP3 SWAP2 SWAP1 PUSH2 0x1936 JUMP JUMPDEST PUSH1 0x40 MLOAD DUP1 SWAP2 SUB SWAP1 LOG2 PUSH1 0x1 SWAP2 POP POP JUMPDEST SWAP3 SWAP2 POP POP JUMP JUMPDEST PUSH1 0xA DUP2 JUMP JUMPDEST PUSH0 PUSH0 PUSH1 0x3 PUSH0 DUP6 DUP2 MSTORE PUSH1 0x20 ADD SWAP1 DUP2 MSTORE PUSH1 0x20 ADD PUSH0 KECCAK256 PUSH0 ADD SLOAD SUB PUSH2 0x9D5 JUMPI PUSH0 SWAP1 POP PUSH2 0xAA8 JUMP JUMPDEST PUSH0 PUSH1 0x3 PUSH0 DUP6 DUP2 MSTORE PUSH1 0x20 ADD SWAP1 DUP2 MSTORE PUSH1 0x20 ADD PUSH0 KECCAK256 PUSH1 0x6 ADD SLOAD SWAP1 POP PUSH0 DUP2 SUB PUSH2 0x9FD JUMPI PUSH0 SWAP2 POP POP PUSH2 0xAA8 JUMP JUMPDEST PUSH0 PUSH0 SWAP1 POP JUMPDEST DUP2 DUP2 LT ISZERO PUSH2 0xAA2 JUMPI DUP4 PUSH20 0xFFFFFFFFFFFFFFFFFFFFFFFFFFFFFFFFFFFFFFFF AND PUSH1 0x3 PUSH0 DUP8 DUP2 MSTORE PUSH1 0x20 ADD SWAP1 DUP2 MSTORE PUSH1 0x20 ADD PUSH0 KECCAK256 PUSH1 0x5 ADD DUP3 DUP2 SLOAD DUP2 LT PUSH2 0xA47 JUMPI PUSH2 0xA46 PUSH2 0x1256 JUMP JUMPDEST JUMPDEST SWAP1 PUSH0 MSTORE PUSH1 0x20 PUSH0 KECCAK256 ADD PUSH0 SWAP1 SLOAD SWAP1 PUSH2 0x100 EXP SWAP1 DIV PUSH20 0xFFFFFFFFFFFFFFFFFFFFFFFFFFFFFFFFFFFFFFFF AND PUSH20 0xFFFFFFFFFFFFFFFFFFFFFFFFFFFFFFFFFFFFFFFF AND SUB PUSH2 0xA95 JUMPI PUSH1 0x1 SWAP3 POP POP POP PUSH2 0xAA8 JUMP JUMPDEST DUP1 DUP1 PUSH1 0x1 ADD SWAP2 POP POP PUSH2 0xA02 JUMP JUMPDEST POP PUSH0 SWAP2 POP POP JUMPDEST SWAP3 SWAP2 POP POP JUMP JUMPDEST PUSH0 PUSH0 DUP4 DUP5 PUSH2 0xABC SWAP2 SWAP1 PUSH2 0x12F7 JUMP JUMPDEST PUSH1 0x3 PUSH0 DUP8 DUP2 MSTORE PUSH1 0x20 ADD SWAP1 DUP2 MSTORE PUSH1 0x20 ADD PUSH0 KECCAK256 PUSH1 0x6 ADD SLOAD DUP5 PUSH2 0xADC SWAP2 SWAP1 PUSH2 0x1365 JUMP JUMPDEST PUSH2 0xAE6 SWAP2 SWAP1 PUSH2 0x1964 JUMP JUMPDEST SWAP1 POP PUSH0 PUSH0 SWAP1 POP JUMPDEST PUSH1 0x3 PUSH0 DUP8 DUP2 MSTORE PUSH1 0x20 ADD SWAP1 DUP2 MSTORE PUSH1 0x20 ADD PUSH0 KECCAK256 PUSH1 0x6 ADD SLOAD DUP2 LT ISZERO PUSH2 0xC69 JUMPI PUSH0 PUSH1 0x3 PUSH0 DUP9 DUP2 MSTORE PUSH1 0x20 ADD SWAP1 DUP2 MSTORE PUSH1 0x20 ADD PUSH0 KECCAK256 PUSH1 0x5 ADD DUP3 DUP2 SLOAD DUP2 LT PUSH2 0xB30 JUMPI PUSH2 0xB2F PUSH2 0x1256 JUMP JUMPDEST JUMPDEST SWAP1 PUSH0 MSTORE PUSH1 0x20 PUSH0 KECCAK256 ADD PUSH0 SWAP1 SLOAD SWAP1 PUSH2 0x100 EXP SWAP1 DIV PUSH20 0xFFFFFFFFFFFFFFFFFFFFFFFFFFFFFFFFFFFFFFFF AND SWAP1 POP PUSH0 PUSH1 0x3 PUSH0 DUP10 DUP2 MSTORE PUSH1 0x20 ADD SWAP1 DUP2 MSTORE PUSH1 0x20 ADD PUSH0 KECCAK256 PUSH1 0x4 ADD DUP4 DUP2 SLOAD DUP2 LT PUSH2 0xB81 JUMPI PUSH2 0xB80 PUSH2 0x1256 JUMP JUMPDEST JUMPDEST SWAP1 PUSH0 MSTORE PUSH1 0x20 PUSH0 KECCAK256 ADD SLOAD SWAP1 POP DUP1 DUP5 DUP9 PUSH2 0xB99 SWAP2 SWAP1 PUSH2 0x1395 JUMP JUMPDEST GT ISZERO DUP1 PUSH2 0xBB1 JUMPI POP DUP1 DUP5 DUP9 PUSH2 0xBAE SWAP2 SWAP1 PUSH2 0x1964 JUMP JUMPDEST LT ISZERO JUMPDEST ISZERO PUSH2 0xC0B JUMPI PUSH1 0x28 PUSH1 0x2 PUSH0 DUP5 PUSH20 0xFFFFFFFFFFFFFFFFFFFFFFFFFFFFFFFFFFFFFFFF AND PUSH20 0xFFFFFFFFFFFFFFFFFFFFFFFFFFFFFFFFFFFFFFFF AND DUP2 MSTORE PUSH1 0x20 ADD SWAP1 DUP2 MSTORE PUSH1 0x20 ADD PUSH0 KECCAK256 PUSH0 DUP3 DUP3 SLOAD PUSH2 0xC03 SWAP2 SWAP1 PUSH2 0x1964 JUMP JUMPDEST SWAP3 POP POP DUP2 SWAP1 SSTORE POP JUMPDEST PUSH0 PUSH1 0x2 PUSH0 DUP5 PUSH20 0xFFFFFFFFFFFFFFFFFFFFFFFFFFFFFFFFFFFFFFFF AND PUSH20 0xFFFFFFFFFFFFFFFFFFFFFFFFFFFFFFFFFFFFFFFF AND DUP2 MSTORE PUSH1 0x20 ADD SWAP1 DUP2 MSTORE PUSH1 0x20 ADD PUSH0 KECCAK256 SLOAD GT PUSH2 0xC5A JUMPI PUSH2 0xC58 DUP3 PUSH2 0xC76 JUMP JUMPDEST POP JUMPDEST POP POP DUP1 DUP1 PUSH1 0x1 ADD SWAP2 POP POP PUSH2 0xAED JUMP JUMPDEST POP PUSH1 0x1 SWAP2 POP POP SWAP4 SWAP3 POP POP POP JUMP JUMPDEST PUSH0 PUSH0 PUSH0 SWAP1 POP JUMPDEST PUSH0 DUP1 SLOAD SWAP1 POP DUP2 LT ISZERO PUSH2 0xDED JUMPI DUP3 PUSH20 0xFFFFFFFFFFFFFFFFFFFFFFFFFFFFFFFFFFFFFFFF AND PUSH0 DUP3 DUP2 SLOAD DUP2 LT PUSH2 0xCB2 JUMPI PUSH2 0xCB1 PUSH2 0x1256 JUMP JUMPDEST JUMPDEST SWAP1 PUSH0 MSTORE PUSH1 0x20 PUSH0 KECCAK256 ADD PUSH0 SWAP1 SLOAD SWAP1 PUSH2 0x100 EXP SWAP1 DIV PUSH20 0xFFFFFFFFFFFFFFFFFFFFFFFFFFFFFFFFFFFFFFFF AND PUSH20 0xFFFFFFFFFFFFFFFFFFFFFFFFFFFFFFFFFFFFFFFF AND SUB PUSH2 0xDE0 JUMPI PUSH0 PUSH1 0x1 PUSH0 DUP1 SLOAD SWAP1 POP PUSH2 0xD07 SWAP2 SWAP1 PUSH2 0x1964 JUMP JUMPDEST DUP2 SLOAD DUP2 LT PUSH2 0xD18 JUMPI PUSH2 0xD17 PUSH2 0x1256 JUMP JUMPDEST JUMPDEST SWAP1 PUSH0 MSTORE PUSH1 0x20 PUSH0 KECCAK256 ADD PUSH0 SWAP1 SLOAD SWAP1 PUSH2 0x100 EXP SWAP1 DIV PUSH20 0xFFFFFFFFFFFFFFFFFFFFFFFFFFFFFFFFFFFFFFFF AND PUSH0 DUP3 DUP2 SLOAD DUP2 LT PUSH2 0xD53 JUMPI PUSH2 0xD52 PUSH2 0x1256 JUMP JUMPDEST JUMPDEST SWAP1 PUSH0 MSTORE PUSH1 0x20 PUSH0 KECCAK256 ADD PUSH0 PUSH2 0x100 EXP DUP2 SLOAD DUP2 PUSH20 0xFFFFFFFFFFFFFFFFFFFFFFFFFFFFFFFFFFFFFFFF MUL NOT AND SWAP1 DUP4 PUSH20 0xFFFFFFFFFFFFFFFFFFFFFFFFFFFFFFFFFFFFFFFF AND MUL OR SWAP1 SSTORE POP PUSH0 DUP1 SLOAD DUP1 PUSH2 0xDA9 JUMPI PUSH2 0xDA8 PUSH2 0x1997 JUMP JUMPDEST JUMPDEST PUSH1 0x1 SWAP1 SUB DUP2 DUP2 SWAP1 PUSH0 MSTORE PUSH1 0x20 PUSH0 KECCAK256 ADD PUSH0 PUSH2 0x100 EXP DUP2 SLOAD SWAP1 PUSH20 0xFFFFFFFFFFFFFFFFFFFFFFFFFFFFFFFFFFFFFFFF MUL NOT AND SWAP1 SSTORE SWAP1 SSTORE PUSH2 0xDED JUMP JUMPDEST DUP1 DUP1 PUSH1 0x1 ADD SWAP2 POP POP PUSH2 0xC7C JUMP JUMPDEST POP PUSH1 0x1 SWAP1 POP SWAP2 SWAP1 POP JUMP JUMPDEST DUP3 DUP1 SLOAD DUP3 DUP3 SSTORE SWAP1 PUSH0 MSTORE PUSH1 0x20 PUSH0 KECCAK256 SWAP1 DUP2 ADD SWAP3 DUP3 ISZERO PUSH2 0xE31 JUMPI SWAP2 PUSH1 0x20 MUL DUP3 ADD JUMPDEST DUP3 DUP2 GT ISZERO PUSH2 0xE30 JUMPI DUP3 MLOAD DUP3 SSTORE SWAP2 PUSH1 0x20 ADD SWAP2 SWAP1 PUSH1 0x1 ADD SWAP1 PUSH2 0xE15 JUMP JUMPDEST JUMPDEST POP SWAP1 POP PUSH2 0xE3E SWAP2 SWAP1 PUSH2 0xEC9 JUMP JUMPDEST POP SWAP1 JUMP JUMPDEST DUP3 DUP1 SLOAD DUP3 DUP3 SSTORE SWAP1 PUSH0 MSTORE PUSH1 0x20 PUSH0 KECCAK256 SWAP1 DUP2 ADD SWAP3 DUP3 ISZERO PUSH2 0xEB8 JUMPI SWAP2 PUSH1 0x20 MUL DUP3 ADD JUMPDEST DUP3 DUP2 GT ISZERO PUSH2 0xEB7 JUMPI DUP3 MLOAD DUP3 PUSH0 PUSH2 0x100 EXP DUP2 SLOAD DUP2 PUSH20 0xFFFFFFFFFFFFFFFFFFFFFFFFFFFFFFFFFFFFFFFF MUL NOT AND SWAP1 DUP4 PUSH20 0xFFFFFFFFFFFFFFFFFFFFFFFFFFFFFFFFFFFFFFFF AND MUL OR SWAP1 SSTORE POP SWAP2 PUSH1 0x20 ADD SWAP2 SWAP1 PUSH1 0x1 ADD SWAP1 PUSH2 0xE60 JUMP JUMPDEST JUMPDEST POP SWAP1 POP PUSH2 0xEC5 SWAP2 SWAP1 PUSH2 0xEC9 JUMP JUMPDEST POP SWAP1 JUMP JUMPDEST JUMPDEST DUP1 DUP3 GT ISZERO PUSH2 0xEE0 JUMPI PUSH0 DUP2 PUSH0 SWAP1 SSTORE POP PUSH1 0x1 ADD PUSH2 0xECA JUMP JUMPDEST POP SWAP1 JUMP JUMPDEST PUSH0 DUP2 SWAP1 POP SWAP2 SWAP1 POP JUMP JUMPDEST PUSH2 0xEF6 DUP2 PUSH2 0xEE4 JUMP JUMPDEST DUP3 MSTORE POP POP JUMP JUMPDEST PUSH0 PUSH1 0x20 DUP3 ADD SWAP1 POP PUSH2 0xF0F PUSH0 DUP4 ADD DUP5 PUSH2 0xEED JUMP JUMPDEST SWAP3 SWAP2 POP POP JUMP JUMPDEST PUSH0 PUSH1 0x40 MLOAD SWAP1 POP SWAP1 JUMP JUMPDEST PUSH0 PUSH0 REVERT JUMPDEST PUSH0 PUSH0 REVERT JUMPDEST PUSH2 0xF2F DUP2 PUSH2 0xEE4 JUMP JUMPDEST DUP2 EQ PUSH2 0xF39 JUMPI PUSH0 PUSH0 REVERT JUMPDEST POP JUMP JUMPDEST PUSH0 DUP2 CALLDATALOAD SWAP1 POP PUSH2 0xF4A DUP2 PUSH2 0xF26 JUMP JUMPDEST SWAP3 SWAP2 POP POP JUMP JUMPDEST PUSH0 PUSH0 PUSH1 0x40 DUP4 DUP6 SUB SLT ISZERO PUSH2 0xF66 JUMPI PUSH2 0xF65 PUSH2 0xF1E JUMP JUMPDEST JUMPDEST PUSH0 PUSH2 0xF73 DUP6 DUP3 DUP7 ADD PUSH2 0xF3C JUMP JUMPDEST SWAP3 POP POP PUSH1 0x20 PUSH2 0xF84 DUP6 DUP3 DUP7 ADD PUSH2 0xF3C JUMP JUMPDEST SWAP2 POP POP SWAP3 POP SWAP3 SWAP1 POP JUMP JUMPDEST PUSH0 DUP2 ISZERO ISZERO SWAP1 POP SWAP2 SWAP1 POP JUMP JUMPDEST PUSH2 0xFA2 DUP2 PUSH2 0xF8E JUMP JUMPDEST DUP3 MSTORE POP POP JUMP JUMPDEST PUSH0 PUSH1 0x40 DUP3 ADD SWAP1 POP PUSH2 0xFBB PUSH0 DUP4 ADD DUP6 PUSH2 0xEED JUMP JUMPDEST PUSH2 0xFC8 PUSH1 0x20 DUP4 ADD DUP5 PUSH2 0xF99 JUMP JUMPDEST SWAP4 SWAP3 POP POP POP JUMP JUMPDEST PUSH0 PUSH20 0xFFFFFFFFFFFFFFFFFFFFFFFFFFFFFFFFFFFFFFFF DUP3 AND SWAP1 POP SWAP2 SWAP1 POP JUMP JUMPDEST PUSH0 PUSH2 0xFF8 DUP3 PUSH2 0xFCF JUMP JUMPDEST SWAP1 POP SWAP2 SWAP1 POP JUMP JUMPDEST PUSH2 0x1008 DUP2 PUSH2 0xFEE JUMP JUMPDEST DUP2 EQ PUSH2 0x1012 JUMPI PUSH0 PUSH0 REVERT JUMPDEST POP JUMP JUMPDEST PUSH0 DUP2 CALLDATALOAD SWAP1 POP PUSH2 0x1023 DUP2 PUSH2 0xFFF JUMP JUMPDEST SWAP3 SWAP2 POP POP JUMP JUMPDEST PUSH0 PUSH1 0x20 DUP3 DUP5 SUB SLT ISZERO PUSH2 0x103E JUMPI PUSH2 0x103D PUSH2 0xF1E JUMP JUMPDEST JUMPDEST PUSH0 PUSH2 0x104B DUP5 DUP3 DUP6 ADD PUSH2 0x1015 JUMP JUMPDEST SWAP2 POP POP SWAP3 SWAP2 POP POP JUMP JUMPDEST PUSH0 PUSH1 0x20 DUP3 DUP5 SUB SLT ISZERO PUSH2 0x1069 JUMPI PUSH2 0x1068 PUSH2 0xF1E JUMP JUMPDEST JUMPDEST PUSH0 PUSH2 0x1076 DUP5 DUP3 DUP6 ADD PUSH2 0xF3C JUMP JUMPDEST SWAP2 POP POP SWAP3 SWAP2 POP POP JUMP JUMPDEST PUSH2 0x1088 DUP2 PUSH2 0xFEE JUMP JUMPDEST DUP3 MSTORE POP POP JUMP JUMPDEST PUSH0 PUSH1 0x20 DUP3 ADD SWAP1 POP PUSH2 0x10A1 PUSH0 DUP4 ADD DUP5 PUSH2 0x107F JUMP JUMPDEST SWAP3 SWAP2 POP POP JUMP JUMPDEST PUSH0 PUSH1 0x20 DUP3 ADD SWAP1 POP PUSH2 0x10BA PUSH0 DUP4 ADD DUP5 PUSH2 0xF99 JUMP JUMPDEST SWAP3 SWAP2 POP POP JUMP JUMPDEST PUSH0 PUSH0 REVERT JUMPDEST PUSH0 PUSH0 REVERT JUMPDEST PUSH0 PUSH1 0x1F NOT PUSH1 0x1F DUP4 ADD AND SWAP1 POP SWAP2 SWAP1 POP JUMP JUMPDEST PUSH32 0x4E487B7100000000000000000000000000000000000000000000000000000000 PUSH0 MSTORE PUSH1 0x41 PUSH1 0x4 MSTORE PUSH1 0x24 PUSH0 REVERT JUMPDEST PUSH2 0x110E DUP3 PUSH2 0x10C8 JUMP JUMPDEST DUP2 ADD DUP2 DUP2 LT PUSH8 0xFFFFFFFFFFFFFFFF DUP3 GT OR ISZERO PUSH2 0x112D JUMPI PUSH2 0x112C PUSH2 0x10D8 JUMP JUMPDEST JUMPDEST DUP1 PUSH1 0x40 MSTORE POP POP POP JUMP JUMPDEST PUSH0 PUSH2 0x113F PUSH2 0xF15 JUMP JUMPDEST SWAP1 POP PUSH2 0x114B DUP3 DUP3 PUSH2 0x1105 JUMP JUMPDEST SWAP2 SWAP1 POP JUMP JUMPDEST PUSH0 PUSH8 0xFFFFFFFFFFFFFFFF DUP3 GT ISZERO PUSH2 0x116A JUMPI PUSH2 0x1169 PUSH2 0x10D8 JUMP JUMPDEST JUMPDEST PUSH2 0x1173 DUP3 PUSH2 0x10C8 JUMP JUMPDEST SWAP1 POP PUSH1 0x20 DUP2 ADD SWAP1 POP SWAP2 SWAP1 POP JUMP JUMPDEST DUP3 DUP2 DUP4 CALLDATACOPY PUSH0 DUP4 DUP4 ADD MSTORE POP POP POP JUMP JUMPDEST PUSH0 PUSH2 0x11A0 PUSH2 0x119B DUP5 PUSH2 0x1150 JUMP JUMPDEST PUSH2 0x1136 JUMP JUMPDEST SWAP1 POP DUP3 DUP2 MSTORE PUSH1 0x20 DUP2 ADD DUP5 DUP5 DUP5 ADD GT ISZERO PUSH2 0x11BC JUMPI PUSH2 0x11BB PUSH2 0x10C4 JUMP JUMPDEST JUMPDEST PUSH2 0x11C7 DUP5 DUP3 DUP6 PUSH2 0x1180 JUMP JUMPDEST POP SWAP4 SWAP3 POP POP POP JUMP JUMPDEST PUSH0 DUP3 PUSH1 0x1F DUP4 ADD SLT PUSH2 0x11E3 JUMPI PUSH2 0x11E2 PUSH2 0x10C0 JUMP JUMPDEST JUMPDEST DUP2 CALLDATALOAD PUSH2 0x11F3 DUP5 DUP3 PUSH1 0x20 DUP7 ADD PUSH2 0x118E JUMP JUMPDEST SWAP2 POP POP SWAP3 SWAP2 POP POP JUMP JUMPDEST PUSH0 PUSH0 PUSH1 0x40 DUP4 DUP6 SUB SLT ISZERO PUSH2 0x1212 JUMPI PUSH2 0x1211 PUSH2 0xF1E JUMP JUMPDEST JUMPDEST PUSH0 DUP4 ADD CALLDATALOAD PUSH8 0xFFFFFFFFFFFFFFFF DUP2 GT ISZERO PUSH2 0x122F JUMPI PUSH2 0x122E PUSH2 0xF22 JUMP JUMPDEST JUMPDEST PUSH2 0x123B DUP6 DUP3 DUP7 ADD PUSH2 0x11CF JUMP JUMPDEST SWAP3 POP POP PUSH1 0x20 PUSH2 0x124C DUP6 DUP3 DUP7 ADD PUSH2 0xF3C JUMP JUMPDEST SWAP2 POP POP SWAP3 POP SWAP3 SWAP1 POP JUMP JUMPDEST PUSH32 0x4E487B7100000000000000000000000000000000000000000000000000000000 PUSH0 MSTORE PUSH1 0x32 PUSH1 0x4 MSTORE PUSH1 0x24 PUSH0 REVERT JUMPDEST PUSH32 0x4E487B7100000000000000000000000000000000000000000000000000000000 PUSH0 MSTORE PUSH1 0x11 PUSH1 0x4 MSTORE PUSH1 0x24 PUSH0 REVERT JUMPDEST PUSH0 PUSH2 0x12BA DUP3 PUSH2 0xEE4 JUMP JUMPDEST SWAP2 POP PUSH32 0xFFFFFFFFFFFFFFFFFFFFFFFFFFFFFFFFFFFFFFFFFFFFFFFFFFFFFFFFFFFFFFFF DUP3 SUB PUSH2 0x12EC JUMPI PUSH2 0x12EB PUSH2 0x1283 JUMP JUMPDEST JUMPDEST PUSH1 0x1 DUP3 ADD SWAP1 POP SWAP2 SWAP1 POP JUMP JUMPDEST PUSH0 PUSH2 0x1301 DUP3 PUSH2 0xEE4 JUMP JUMPDEST SWAP2 POP PUSH2 0x130C DUP4 PUSH2 0xEE4 JUMP JUMPDEST SWAP3 POP DUP3 DUP3 MUL PUSH2 0x131A DUP2 PUSH2 0xEE4 JUMP JUMPDEST SWAP2 POP DUP3 DUP3 DIV DUP5 EQ DUP4 ISZERO OR PUSH2 0x1331 JUMPI PUSH2 0x1330 PUSH2 0x1283 JUMP JUMPDEST JUMPDEST POP SWAP3 SWAP2 POP POP JUMP JUMPDEST PUSH32 0x4E487B7100000000000000000000000000000000000000000000000000000000 PUSH0 MSTORE PUSH1 0x12 PUSH1 0x4 MSTORE PUSH1 0x24 PUSH0 REVERT JUMPDEST PUSH0 PUSH2 0x136F DUP3 PUSH2 0xEE4 JUMP JUMPDEST SWAP2 POP PUSH2 0x137A DUP4 PUSH2 0xEE4 JUMP JUMPDEST SWAP3 POP DUP3 PUSH2 0x138A JUMPI PUSH2 0x1389 PUSH2 0x1338 JUMP JUMPDEST JUMPDEST DUP3 DUP3 DIV SWAP1 POP SWAP3 SWAP2 POP POP JUMP JUMPDEST PUSH0 PUSH2 0x139F DUP3 PUSH2 0xEE4 JUMP JUMPDEST SWAP2 POP PUSH2 0x13AA DUP4 PUSH2 0xEE4 JUMP JUMPDEST SWAP3 POP DUP3 DUP3 ADD SWAP1 POP DUP1 DUP3 GT ISZERO PUSH2 0x13C2 JUMPI PUSH2 0x13C1 PUSH2 0x1283 JUMP JUMPDEST JUMPDEST SWAP3 SWAP2 POP POP JUMP JUMPDEST PUSH0 DUP2 PUSH1 0x1 SHR SWAP1 POP SWAP2 SWAP1 POP JUMP JUMPDEST PUSH0 PUSH0 DUP3 SWAP2 POP DUP4 SWAP1 POP JUMPDEST PUSH1 0x1 DUP6 GT ISZERO PUSH2 0x141D JUMPI DUP1 DUP7 DIV DUP2 GT ISZERO PUSH2 0x13F9 JUMPI PUSH2 0x13F8 PUSH2 0x1283 JUMP JUMPDEST JUMPDEST PUSH1 0x1 DUP6 AND ISZERO PUSH2 0x1408 JUMPI DUP1 DUP3 MUL SWAP2 POP JUMPDEST DUP1 DUP2 MUL SWAP1 POP PUSH2 0x1416 DUP6 PUSH2 0x13C8 JUMP JUMPDEST SWAP5 POP PUSH2 0x13DD JUMP JUMPDEST SWAP5 POP SWAP5 SWAP3 POP POP POP JUMP JUMPDEST PUSH0 DUP3 PUSH2 0x1435 JUMPI PUSH1 0x1 SWAP1 POP PUSH2 0x14F0 JUMP JUMPDEST DUP2 PUSH2 0x1442 JUMPI PUSH0 SWAP1 POP PUSH2 0x14F0 JUMP JUMPDEST DUP2 PUSH1 0x1 DUP2 EQ PUSH2 0x1458 JUMPI PUSH1 0x2 DUP2 EQ PUSH2 0x1462 JUMPI PUSH2 0x1491 JUMP JUMPDEST PUSH1 0x1 SWAP2 POP POP PUSH2 0x14F0 JUMP JUMPDEST PUSH1 0xFF DUP5 GT ISZERO PUSH2 0x1474 JUMPI PUSH2 0x1473 PUSH2 0x1283 JUMP JUMPDEST JUMPDEST DUP4 PUSH1 0x2 EXP SWAP2 POP DUP5 DUP3 GT ISZERO PUSH2 0x148B JUMPI PUSH2 0x148A PUSH2 0x1283 JUMP JUMPDEST JUMPDEST POP PUSH2 0x14F0 JUMP JUMPDEST POP PUSH1 0x20 DUP4 LT PUSH2 0x133 DUP4 LT AND PUSH1 0x4E DUP5 LT PUSH1 0xB DUP5 LT AND OR ISZERO PUSH2 0x14C6 JUMPI DUP3 DUP3 EXP SWAP1 POP DUP4 DUP2 GT ISZERO PUSH2 0x14C1 JUMPI PUSH2 0x14C0 PUSH2 0x1283 JUMP JUMPDEST JUMPDEST PUSH2 0x14F0 JUMP JUMPDEST PUSH2 0x14D3 DUP5 DUP5 DUP5 PUSH1 0x1 PUSH2 0x13D4 JUMP JUMPDEST SWAP3 POP SWAP1 POP DUP2 DUP5 DIV DUP2 GT ISZERO PUSH2 0x14EA JUMPI PUSH2 0x14E9 PUSH2 0x1283 JUMP JUMPDEST JUMPDEST DUP2 DUP2 MUL SWAP1 POP JUMPDEST SWAP4 SWAP3 POP POP POP JUMP JUMPDEST PUSH0 PUSH1 0xFF DUP3 AND SWAP1 POP SWAP2 SWAP1 POP JUMP JUMPDEST PUSH0 PUSH2 0x150D DUP3 PUSH2 0xEE4 JUMP JUMPDEST SWAP2 POP PUSH2 0x1518 DUP4 PUSH2 0x14F7 JUMP JUMPDEST SWAP3 POP PUSH2 0x1545 PUSH32 0xFFFFFFFFFFFFFFFFFFFFFFFFFFFFFFFFFFFFFFFFFFFFFFFFFFFFFFFFFFFFFFFF DUP5 DUP5 PUSH2 0x1426 JUMP JUMPDEST SWAP1 POP SWAP3 SWAP2 POP POP JUMP JUMPDEST PUSH2 0x1556 DUP2 PUSH2 0xF8E JUMP JUMPDEST DUP2 EQ PUSH2 0x1560 JUMPI PUSH0 PUSH0 REVERT JUMPDEST POP JUMP JUMPDEST PUSH0 DUP2 MLOAD SWAP1 POP PUSH2 0x1571 DUP2 PUSH2 0x154D JUMP JUMPDEST SWAP3 SWAP2 POP POP JUMP JUMPDEST PUSH0 PUSH1 0x20 DUP3 DUP5 SUB SLT ISZERO PUSH2 0x158C JUMPI PUSH2 0x158B PUSH2 0xF1E JUMP JUMPDEST JUMPDEST PUSH0 PUSH2 0x1599 DUP5 DUP3 DUP6 ADD PUSH2 0x1563 JUMP JUMPDEST SWAP2 POP POP SWAP3 SWAP2 POP POP JUMP JUMPDEST PUSH0 DUP3 DUP3 MSTORE PUSH1 0x20 DUP3 ADD SWAP1 POP SWAP3 SWAP2 POP POP JUMP JUMPDEST PUSH32 0x746F6F206C657373206665650000000000000000000000000000000000000000 PUSH0 DUP3 ADD MSTORE POP JUMP JUMPDEST PUSH0 PUSH2 0x15E6 PUSH1 0xC DUP4 PUSH2 0x15A2 JUMP JUMPDEST SWAP2 POP PUSH2 0x15F1 DUP3 PUSH2 0x15B2 JUMP JUMPDEST PUSH1 0x20 DUP3 ADD SWAP1 POP SWAP2 SWAP1 POP JUMP JUMPDEST PUSH0 PUSH1 0x20 DUP3 ADD SWAP1 POP DUP2 DUP2 SUB PUSH0 DUP4 ADD MSTORE PUSH2 0x1613 DUP2 PUSH2 0x15DA JUMP JUMPDEST SWAP1 POP SWAP2 SWAP1 POP JUMP JUMPDEST PUSH0 DUP2 MLOAD SWAP1 POP SWAP2 SWAP1 POP JUMP JUMPDEST PUSH32 0x4E487B7100000000000000000000000000000000000000000000000000000000 PUSH0 MSTORE PUSH1 0x22 PUSH1 0x4 MSTORE PUSH1 0x24 PUSH0 REVERT JUMPDEST PUSH0 PUSH1 0x2 DUP3 DIV SWAP1 POP PUSH1 0x1 DUP3 AND DUP1 PUSH2 0x1668 JUMPI PUSH1 0x7F DUP3 AND SWAP2 POP JUMPDEST PUSH1 0x20 DUP3 LT DUP2 SUB PUSH2 0x167B JUMPI PUSH2 0x167A PUSH2 0x1624 JUMP JUMPDEST JUMPDEST POP SWAP2 SWAP1 POP JUMP JUMPDEST PUSH0 DUP2 SWAP1 POP DUP2 PUSH0 MSTORE PUSH1 0x20 PUSH0 KECCAK256 SWAP1 POP SWAP2 SWAP1 POP JUMP JUMPDEST PUSH0 PUSH1 0x20 PUSH1 0x1F DUP4 ADD DIV SWAP1 POP SWAP2 SWAP1 POP JUMP JUMPDEST PUSH0 DUP3 DUP3 SHL SWAP1 POP SWAP3 SWAP2 POP POP JUMP JUMPDEST PUSH0 PUSH1 0x8 DUP4 MUL PUSH2 0x16DD PUSH32 0xFFFFFFFFFFFFFFFFFFFFFFFFFFFFFFFFFFFFFFFFFFFFFFFFFFFFFFFFFFFFFFFF DUP3 PUSH2 0x16A2 JUMP JUMPDEST PUSH2 0x16E7 DUP7 DUP4 PUSH2 0x16A2 JUMP JUMPDEST SWAP6 POP DUP1 NOT DUP5 AND SWAP4 POP DUP1 DUP7 AND DUP5 OR SWAP3 POP POP POP SWAP4 SWAP3 POP POP POP JUMP JUMPDEST PUSH0 DUP2 SWAP1 POP SWAP2 SWAP1 POP JUMP JUMPDEST PUSH0 PUSH2 0x1722 PUSH2 0x171D PUSH2 0x1718 DUP5 PUSH2 0xEE4 JUMP JUMPDEST PUSH2 0x16FF JUMP JUMPDEST PUSH2 0xEE4 JUMP JUMPDEST SWAP1 POP SWAP2 SWAP1 POP JUMP JUMPDEST PUSH0 DUP2 SWAP1 POP SWAP2 SWAP1 POP JUMP JUMPDEST PUSH2 0x173B DUP4 PUSH2 0x1708 JUMP JUMPDEST PUSH2 0x174F PUSH2 0x1747 DUP3 PUSH2 0x1729 JUMP JUMPDEST DUP5 DUP5 SLOAD PUSH2 0x16AE JUMP JUMPDEST DUP3 SSTORE POP POP POP POP JUMP JUMPDEST PUSH0 PUSH0 SWAP1 POP SWAP1 JUMP JUMPDEST PUSH2 0x1766 PUSH2 0x1757 JUMP JUMPDEST PUSH2 0x1771 DUP2 DUP5 DUP5 PUSH2 0x1732 JUMP JUMPDEST POP POP POP JUMP JUMPDEST JUMPDEST DUP2 DUP2 LT ISZERO PUSH2 0x1794 JUMPI PUSH2 0x1789 PUSH0 DUP3 PUSH2 0x175E JUMP JUMPDEST PUSH1 0x1 DUP2 ADD SWAP1 POP PUSH2 0x1777 JUMP JUMPDEST POP POP JUMP JUMPDEST PUSH1 0x1F DUP3 GT ISZERO PUSH2 0x17D9 JUMPI PUSH2 0x17AA DUP2 PUSH2 0x1681 JUMP JUMPDEST PUSH2 0x17B3 DUP5 PUSH2 0x1693 JUMP JUMPDEST DUP2 ADD PUSH1 0x20 DUP6 LT ISZERO PUSH2 0x17C2 JUMPI DUP2 SWAP1 POP JUMPDEST PUSH2 0x17D6 PUSH2 0x17CE DUP6 PUSH2 0x1693 JUMP JUMPDEST DUP4 ADD DUP3 PUSH2 0x1776 JUMP JUMPDEST POP POP JUMPDEST POP POP POP JUMP JUMPDEST PUSH0 DUP3 DUP3 SHR SWAP1 POP SWAP3 SWAP2 POP POP JUMP JUMPDEST PUSH0 PUSH2 0x17F9 PUSH0 NOT DUP5 PUSH1 0x8 MUL PUSH2 0x17DE JUMP JUMPDEST NOT DUP1 DUP4 AND SWAP2 POP POP SWAP3 SWAP2 POP POP JUMP JUMPDEST PUSH0 PUSH2 0x1811 DUP4 DUP4 PUSH2 0x17EA JUMP JUMPDEST SWAP2 POP DUP3 PUSH1 0x2 MUL DUP3 OR SWAP1 POP SWAP3 SWAP2 POP POP JUMP JUMPDEST PUSH2 0x182A DUP3 PUSH2 0x161A JUMP JUMPDEST PUSH8 0xFFFFFFFFFFFFFFFF DUP2 GT ISZERO PUSH2 0x1843 JUMPI PUSH2 0x1842 PUSH2 0x10D8 JUMP JUMPDEST JUMPDEST PUSH2 0x184D DUP3 SLOAD PUSH2 0x1651 JUMP JUMPDEST PUSH2 0x1858 DUP3 DUP3 DUP6 PUSH2 0x1798 JUMP JUMPDEST PUSH0 PUSH1 0x20 SWAP1 POP PUSH1 0x1F DUP4 GT PUSH1 0x1 DUP2 EQ PUSH2 0x1889 JUMPI PUSH0 DUP5 ISZERO PUSH2 0x1877 JUMPI DUP3 DUP8 ADD MLOAD SWAP1 POP JUMPDEST PUSH2 0x1881 DUP6 DUP3 PUSH2 0x1806 JUMP JUMPDEST DUP7 SSTORE POP PUSH2 0x18E8 JUMP JUMPDEST PUSH1 0x1F NOT DUP5 AND PUSH2 0x1897 DUP7 PUSH2 0x1681 JUMP JUMPDEST PUSH0 JUMPDEST DUP3 DUP2 LT ISZERO PUSH2 0x18BE JUMPI DUP5 DUP10 ADD MLOAD DUP3 SSTORE PUSH1 0x1 DUP3 ADD SWAP2 POP PUSH1 0x20 DUP6 ADD SWAP5 POP PUSH1 0x20 DUP2 ADD SWAP1 POP PUSH2 0x1899 JUMP JUMPDEST DUP7 DUP4 LT ISZERO PUSH2 0x18DB JUMPI DUP5 DUP10 ADD MLOAD PUSH2 0x18D7 PUSH1 0x1F DUP10 AND DUP3 PUSH2 0x17EA JUMP JUMPDEST DUP4 SSTORE POP JUMPDEST PUSH1 0x1 PUSH1 0x2 DUP9 MUL ADD DUP9 SSTORE POP POP POP JUMPDEST POP POP POP POP POP POP JUMP JUMPDEST DUP3 DUP2 DUP4 MCOPY PUSH0 DUP4 DUP4 ADD MSTORE POP POP POP JUMP JUMPDEST PUSH0 PUSH2 0x1908 DUP3 PUSH2 0x161A JUMP JUMPDEST PUSH2 0x1912 DUP2 DUP6 PUSH2 0x15A2 JUMP JUMPDEST SWAP4 POP PUSH2 0x1922 DUP2 DUP6 PUSH1 0x20 DUP7 ADD PUSH2 0x18F0 JUMP JUMPDEST PUSH2 0x192B DUP2 PUSH2 0x10C8 JUMP JUMPDEST DUP5 ADD SWAP2 POP POP SWAP3 SWAP2 POP POP JUMP JUMPDEST PUSH0 PUSH1 0x40 DUP3 ADD SWAP1 POP DUP2 DUP2 SUB PUSH0 DUP4 ADD MSTORE PUSH2 0x194E DUP2 DUP6 PUSH2 0x18FE JUMP JUMPDEST SWAP1 POP PUSH2 0x195D PUSH1 0x20 DUP4 ADD DUP5 PUSH2 0xEED JUMP JUMPDEST SWAP4 SWAP3 POP POP POP JUMP JUMPDEST PUSH0 PUSH2 0x196E DUP3 PUSH2 0xEE4 JUMP JUMPDEST SWAP2 POP PUSH2 0x1979 DUP4 PUSH2 0xEE4 JUMP JUMPDEST SWAP3 POP DUP3 DUP3 SUB SWAP1 POP DUP2 DUP2 GT ISZERO PUSH2 0x1991 JUMPI PUSH2 0x1990 PUSH2 0x1283 JUMP JUMPDEST JUMPDEST SWAP3 SWAP2 POP POP JUMP JUMPDEST PUSH32 0x4E487B7100000000000000000000000000000000000000000000000000000000 PUSH0 MSTORE PUSH1 0x31 PUSH1 0x4 MSTORE PUSH1 0x24 PUSH0 REVERT INVALID LOG2 PUSH5 0x6970667358 0x22 SLT KECCAK256 LOG0 0xB0 SWAP10 0x22 DUP11 STATICCALL RETURN PUSH6 0xA90CC4BF09DD SWAP11 EXTCALL PUSH15 0xBFD1318B3EC46F303E788F16781B64 PUSH5 0x736F6C6343 STOP ADDMOD 0x1E STOP CALLER "
				},
				"gasEstimates": {
					"creation": {
						"codeDepositCost": "1330000",
						"executionCost": "infinite",
						"totalCost": "infinite"
					},
					"external": {
						"DEDUCE_PRICE()": "326",
						"LIMIT_FEE_PRICE()": "413",
						"LIMIT_STAKE_NUM()": "370",
						"fufillReqEvent(uint256,uint256)": "infinite",
						"nodeStackBalance(address)": "2869",
						"oracleAddressList(uint256)": "4965",
						"registerOracleNode()": "infinite",
						"requestForMsg(string,uint256)": "infinite",
						"totalRequestNum()": "2425"
					},
					"internal": {
						"evaluateNodePerf(uint256,uint256,uint256)": "infinite",
						"isInReqList(uint256,address)": "infinite",
						"removeItem(address)": "infinite"
					}
				},
				"methodIdentifiers": {
					"DEDUCE_PRICE()": "22a51c29",
					"LIMIT_FEE_PRICE()": "e92626ae",
					"LIMIT_STAKE_NUM()": "3210243e",
					"fufillReqEvent(uint256,uint256)": "22d616d2",
					"nodeStackBalance(address)": "49d26921",
					"oracleAddressList(uint256)": "8457a66a",
					"registerOracleNode()": "bb33ce71",
					"requestForMsg(string,uint256)": "c4cdb575",
					"totalRequestNum()": "803863fb"
				}
			},
			"storageLayout": {
				"storage": [
					{
						"astId": 45,
						"contract": "main.sol:CHAINLINK",
						"label": "oracleAddressList",
						"offset": 0,
						"slot": "0",
						"type": "t_array(t_address)dyn_storage"
					},
					{
						"astId": 47,
						"contract": "main.sol:CHAINLINK",
						"label": "totalRequestNum",
						"offset": 0,
						"slot": "1",
						"type": "t_uint256"
					},
					{
						"astId": 51,
						"contract": "main.sol:CHAINLINK",
						"label": "nodeStackBalance",
						"offset": 0,
						"slot": "2",
						"type": "t_mapping(t_address,t_uint256)"
					},
					{
						"astId": 56,
						"contract": "main.sol:CHAINLINK",
						"label": "requestList",
						"offset": 0,
						"slot": "3",
						"type": "t_mapping(t_uint256,t_struct(RequestBody)26_storage)"
					}
				],
				"types": {
					"t_address": {
						"encoding": "inplace",
						"label": "address",
						"numberOfBytes": "20"
					},
					"t_array(t_address)dyn_storage": {
						"base": "t_address",
						"encoding": "dynamic_array",
						"label": "address[]",
						"numberOfBytes": "32"
					},
					"t_array(t_uint256)dyn_storage": {
						"base": "t_uint256",
						"encoding": "dynamic_array",
						"label": "uint256[]",
						"numberOfBytes": "32"
					},
					"t_mapping(t_address,t_uint256)": {
						"encoding": "mapping",
						"key": "t_address",
						"label": "mapping(address => uint256)",
						"numberOfBytes": "32",
						"value": "t_uint256"
					},
					"t_mapping(t_uint256,t_struct(RequestBody)26_storage)": {
						"encoding": "mapping",
						"key": "t_uint256",
						"label": "mapping(uint256 => struct CHAINLINK.RequestBody)",
						"numberOfBytes": "32",
						"value": "t_struct(RequestBody)26_storage"
					},
					"t_string_storage": {
						"encoding": "bytes",
						"label": "string",
						"numberOfBytes": "32"
					},
					"t_struct(RequestBody)26_storage": {
						"encoding": "inplace",
						"label": "struct CHAINLINK.RequestBody",
						"members": [
							{
								"astId": 11,
								"contract": "main.sol:CHAINLINK",
								"label": "id",
								"offset": 0,
								"slot": "0",
								"type": "t_uint256"
							},
							{
								"astId": 13,
								"contract": "main.sol:CHAINLINK",
								"label": "requester",
								"offset": 0,
								"slot": "1",
								"type": "t_address"
							},
							{
								"astId": 15,
								"contract": "main.sol:CHAINLINK",
								"label": "url",
								"offset": 0,
								"slot": "2",
								"type": "t_string_storage"
							},
							{
								"astId": 17,
								"contract": "main.sol:CHAINLINK",
								"label": "Fee",
								"offset": 0,
								"slot": "3",
								"type": "t_uint256"
							},
							{
								"astId": 20,
								"contract": "main.sol:CHAINLINK",
								"label": "searchRes",
								"offset": 0,
								"slot": "4",
								"type": "t_array(t_uint256)dyn_storage"
							},
							{
								"astId": 23,
								"contract": "main.sol:CHAINLINK",
								"label": "resOracleNodes",
								"offset": 0,
								"slot": "5",
								"type": "t_array(t_address)dyn_storage"
							},
							{
								"astId": 25,
								"contract": "main.sol:CHAINLINK",
								"label": "givenNum",
								"offset": 0,
								"slot": "6",
								"type": "t_uint256"
							}
						],
						"numberOfBytes": "224"
					},
					"t_uint256": {
						"encoding": "inplace",
						"label": "uint256",
						"numberOfBytes": "32"
					}
				}
			},
			"userdoc": {
				"kind": "user",
				"methods": {},
				"version": 1
			}
		}
	}
}