{
	"link.sol": {
		"CHAINLINK": {
			"abi": [
				{
					"inputs": [],
					"stateMutability": "nonpayable",
					"type": "constructor"
				},
				{
					"anonymous": false,
					"inputs": [
						{
							"indexed": true,
							"internalType": "uint256",
							"name": "requestID",
							"type": "uint256"
						},
						{
							"indexed": false,
							"internalType": "string",
							"name": "url",
							"type": "string"
						},
						{
							"indexed": false,
							"internalType": "uint256",
							"name": "fee",
							"type": "uint256"
						}
					],
					"name": "oracleRequestEvent",
					"type": "event"
				},
				{
					"anonymous": false,
					"inputs": [
						{
							"indexed": true,
							"internalType": "uint256",
							"name": "requestID",
							"type": "uint256"
						},
						{
							"indexed": false,
							"internalType": "string",
							"name": "result",
							"type": "string"
						},
						{
							"indexed": false,
							"internalType": "uint256",
							"name": "nodeID",
							"type": "uint256"
						}
					],
					"name": "requestFulfulledEvent",
					"type": "event"
				},
				{
					"inputs": [
						{
							"internalType": "uint256",
							"name": "id",
							"type": "uint256"
						},
						{
							"internalType": "uint256",
							"name": "result",
							"type": "uint256"
						}
					],
					"name": "fufillReqEvent",
					"outputs": [
						{
							"internalType": "bool",
							"name": "",
							"type": "bool"
						}
					],
					"stateMutability": "nonpayable",
					"type": "function"
				},
				{
					"inputs": [
						{
							"internalType": "address",
							"name": "",
							"type": "address"
						}
					],
					"name": "nodeStackBalance",
					"outputs": [
						{
							"internalType": "uint256",
							"name": "",
							"type": "uint256"
						}
					],
					"stateMutability": "view",
					"type": "function"
				},
				{
					"inputs": [
						{
							"internalType": "uint256",
							"name": "",
							"type": "uint256"
						}
					],
					"name": "oracleAddressList",
					"outputs": [
						{
							"internalType": "address",
							"name": "",
							"type": "address"
						}
					],
					"stateMutability": "view",
					"type": "function"
				},
				{
					"inputs": [],
					"name": "registerOracleNode",
					"outputs": [
						{
							"internalType": "bool",
							"name": "",
							"type": "bool"
						}
					],
					"stateMutability": "nonpayable",
					"type": "function"
				},
				{
					"inputs": [
						{
							"internalType": "string",
							"name": "url",
							"type": "string"
						},
						{
							"internalType": "uint256",
							"name": "fee",
							"type": "uint256"
						}
					],
					"name": "requestForMsg",
					"outputs": [
						{
							"internalType": "bool",
							"name": "",
							"type": "bool"
						}
					],
					"stateMutability": "nonpayable",
					"type": "function"
				},
				{
					"inputs": [],
					"name": "totalRequestNum",
					"outputs": [
						{
							"internalType": "uint256",
							"name": "",
							"type": "uint256"
						}
					],
					"stateMutability": "view",
					"type": "function"
				}
			],
			"devdoc": {
				"kind": "dev",
				"methods": {},
				"version": 1
			},
			"evm": {
				"assembly": "    /* \"link.sol\":152:1787  contract CHAINLINK {... */\n  mstore(0x40, 0x80)\n    /* \"link.sol\":675:771  constructor() {... */\n  callvalue\n  dup1\n  iszero\n  tag_1\n  jumpi\n  revert(0x00, 0x00)\ntag_1:\n  pop\n    /* \"link.sol\":717:718  0 */\n  0x00\n    /* \"link.sol\":699:714  totalRequestNum */\n  0x01\n    /* \"link.sol\":699:718  totalRequestNum = 0 */\n  dup2\n  swap1\n  sstore\n  pop\n    /* \"link.sol\":762:763  0 */\n  0x00\n    /* \"link.sol\":748:764  new address[](0) */\n  0xffffffffffffffff\n  dup2\n  gt\n  iszero\n  tag_4\n  jumpi\n  tag_5\n  tag_6\n  jump\t// in\ntag_5:\ntag_4:\n  mload(0x40)\n  swap1\n  dup1\n  dup3\n  mstore\n  dup1\n  0x20\n  mul\n  0x20\n  add\n  dup3\n  add\n  0x40\n  mstore\n  dup1\n  iszero\n  tag_7\n  jumpi\n  dup2\n  0x20\n  add\n  0x20\n  dup3\n  mul\n  dup1\n  calldatasize\n  dup4\n  calldatacopy\n  dup1\n  dup3\n  add\n  swap2\n  pop\n  pop\n  swap1\n  pop\ntag_7:\n  pop\n    /* \"link.sol\":728:745  oracleAddressList */\n  0x00\n    /* \"link.sol\":728:764  oracleAddressList = new address[](0) */\n  swap1\n  dup1\n  mload\n  swap1\n  0x20\n  add\n  swap1\n  tag_8\n  swap3\n  swap2\n  swap1\n  tag_9\n  jump\t// in\ntag_8:\n  pop\n    /* \"link.sol\":152:1787  contract CHAINLINK {... */\n  jump(tag_10)\ntag_9:\n  dup3\n  dup1\n  sload\n  dup3\n  dup3\n  sstore\n  swap1\n  0x00\n  mstore\n  keccak256(0x00, 0x20)\n  swap1\n  dup2\n  add\n  swap3\n  dup3\n  iszero\n  tag_11\n  jumpi\n  swap2\n  0x20\n  mul\n  dup3\n  add\ntag_12:\n  dup3\n  dup2\n  gt\n  iszero\n  tag_13\n  jumpi\n  dup3\n  mload\n  dup3\n  exp(0x0100, 0x00)\n  dup2\n  sload\n  dup2\n  0xffffffffffffffffffffffffffffffffffffffff\n  mul\n  not\n  and\n  swap1\n  dup4\n  0xffffffffffffffffffffffffffffffffffffffff\n  and\n  mul\n  or\n  swap1\n  sstore\n  pop\n  swap2\n  0x20\n  add\n  swap2\n  swap1\n  0x01\n  add\n  swap1\n  jump(tag_12)\ntag_13:\ntag_11:\n  pop\n  swap1\n  pop\n  tag_14\n  swap2\n  swap1\n  tag_15\n  jump\t// in\ntag_14:\n  pop\n  swap1\n  jump\t// out\ntag_15:\ntag_16:\n  dup1\n  dup3\n  gt\n  iszero\n  tag_17\n  jumpi\n  0x00\n  dup2\n  0x00\n  swap1\n  sstore\n  pop\n  0x01\n  add\n  jump(tag_16)\ntag_17:\n  pop\n  swap1\n  jump\t// out\n    /* \"#utility.yul\":7:187   */\ntag_6:\n    /* \"#utility.yul\":55:132   */\n  0x4e487b7100000000000000000000000000000000000000000000000000000000\n    /* \"#utility.yul\":52:53   */\n  0x00\n    /* \"#utility.yul\":45:133   */\n  mstore\n    /* \"#utility.yul\":152:156   */\n  0x41\n    /* \"#utility.yul\":149:150   */\n  0x04\n    /* \"#utility.yul\":142:157   */\n  mstore\n    /* \"#utility.yul\":176:180   */\n  0x24\n    /* \"#utility.yul\":173:174   */\n  0x00\n    /* \"#utility.yul\":166:181   */\n  revert\n    /* \"link.sol\":152:1787  contract CHAINLINK {... */\ntag_10:\n  dataSize(sub_0)\n  dup1\n  dataOffset(sub_0)\n  0x00\n  codecopy\n  0x00\n  return\nstop\n\nsub_0: assembly {\n        /* \"link.sol\":152:1787  contract CHAINLINK {... */\n      mstore(0x40, 0x80)\n      callvalue\n      dup1\n      iszero\n      tag_1\n      jumpi\n      revert(0x00, 0x00)\n    tag_1:\n      pop\n      jumpi(tag_2, lt(calldatasize, 0x04))\n      shr(0xe0, calldataload(0x00))\n      dup1\n      0x22d616d2\n      eq\n      tag_3\n      jumpi\n      dup1\n      0x49d26921\n      eq\n      tag_4\n      jumpi\n      dup1\n      0x803863fb\n      eq\n      tag_5\n      jumpi\n      dup1\n      0x8457a66a\n      eq\n      tag_6\n      jumpi\n      dup1\n      0xbb33ce71\n      eq\n      tag_7\n      jumpi\n      dup1\n      0xc4cdb575\n      eq\n      tag_8\n      jumpi\n    tag_2:\n      revert(0x00, 0x00)\n        /* \"link.sol\":1646:1785  function fufillReqEvent(uint256 id, uint256 result) public returns (bool) {... */\n    tag_3:\n      tag_9\n      0x04\n      dup1\n      calldatasize\n      sub\n      dup2\n      add\n      swap1\n      tag_10\n      swap2\n      swap1\n      tag_11\n      jump\t// in\n    tag_10:\n      tag_12\n      jump\t// in\n    tag_9:\n      mload(0x40)\n      tag_13\n      swap2\n      swap1\n      tag_14\n      jump\t// in\n    tag_13:\n      mload(0x40)\n      dup1\n      swap2\n      sub\n      swap1\n      return\n        /* \"link.sol\":569:620  mapping(address => uint256) public nodeStackBalance */\n    tag_4:\n      tag_15\n      0x04\n      dup1\n      calldatasize\n      sub\n      dup2\n      add\n      swap1\n      tag_16\n      swap2\n      swap1\n      tag_17\n      jump\t// in\n    tag_16:\n      tag_18\n      jump\t// in\n    tag_15:\n      mload(0x40)\n      tag_19\n      swap2\n      swap1\n      tag_20\n      jump\t// in\n    tag_19:\n      mload(0x40)\n      dup1\n      swap2\n      sub\n      swap1\n      return\n        /* \"link.sol\":532:562  uint256 public totalRequestNum */\n    tag_5:\n      tag_21\n      tag_22\n      jump\t// in\n    tag_21:\n      mload(0x40)\n      tag_23\n      swap2\n      swap1\n      tag_20\n      jump\t// in\n    tag_23:\n      mload(0x40)\n      dup1\n      swap2\n      sub\n      swap1\n      return\n        /* \"link.sol\":492:526  address[] public oracleAddressList */\n    tag_6:\n      tag_24\n      0x04\n      dup1\n      calldatasize\n      sub\n      dup2\n      add\n      swap1\n      tag_25\n      swap2\n      swap1\n      tag_26\n      jump\t// in\n    tag_25:\n      tag_27\n      jump\t// in\n    tag_24:\n      mload(0x40)\n      tag_28\n      swap2\n      swap1\n      tag_29\n      jump\t// in\n    tag_28:\n      mload(0x40)\n      dup1\n      swap2\n      sub\n      swap1\n      return\n        /* \"link.sol\":812:1145  function registerOracleNode() public returns (bool) {... */\n    tag_7:\n      tag_30\n      tag_31\n      jump\t// in\n    tag_30:\n      mload(0x40)\n      tag_32\n      swap2\n      swap1\n      tag_14\n      jump\t// in\n    tag_32:\n      mload(0x40)\n      dup1\n      swap2\n      sub\n      swap1\n      return\n        /* \"link.sol\":1180:1640  function requestForMsg(string memory url, uint256 fee) public returns (bool) {... */\n    tag_8:\n      tag_33\n      0x04\n      dup1\n      calldatasize\n      sub\n      dup2\n      add\n      swap1\n      tag_34\n      swap2\n      swap1\n      tag_35\n      jump\t// in\n    tag_34:\n      tag_36\n      jump\t// in\n    tag_33:\n      mload(0x40)\n      tag_37\n      swap2\n      swap1\n      tag_14\n      jump\t// in\n    tag_37:\n      mload(0x40)\n      dup1\n      swap2\n      sub\n      swap1\n      return\n        /* \"link.sol\":1646:1785  function fufillReqEvent(uint256 id, uint256 result) public returns (bool) {... */\n    tag_12:\n        /* \"link.sol\":1714:1718  bool */\n      0x00\n        /* \"link.sol\":1751:1757  result */\n      dup2\n        /* \"link.sol\":1730:1740  requestMap */\n      0x03\n        /* \"link.sol\":1730:1744  requestMap[id] */\n      0x00\n        /* \"link.sol\":1741:1743  id */\n      dup6\n        /* \"link.sol\":1730:1744  requestMap[id] */\n      dup2\n      mstore\n      0x20\n      add\n      swap1\n      dup2\n      mstore\n      0x20\n      add\n      0x00\n      keccak256\n        /* \"link.sol\":1730:1748  requestMap[id].Res */\n      0x04\n      add\n        /* \"link.sol\":1730:1757  requestMap[id].Res = result */\n      dup2\n      swap1\n      sstore\n      pop\n        /* \"link.sol\":1774:1778  true */\n      0x01\n        /* \"link.sol\":1767:1778  return true */\n      swap1\n      pop\n        /* \"link.sol\":1646:1785  function fufillReqEvent(uint256 id, uint256 result) public returns (bool) {... */\n      swap3\n      swap2\n      pop\n      pop\n      jump\t// out\n        /* \"link.sol\":569:620  mapping(address => uint256) public nodeStackBalance */\n    tag_18:\n      mstore(0x20, 0x02)\n      dup1\n      0x00\n      mstore\n      keccak256(0x00, 0x40)\n      0x00\n      swap2\n      pop\n      swap1\n      pop\n      sload\n      dup2\n      jump\t// out\n        /* \"link.sol\":532:562  uint256 public totalRequestNum */\n    tag_22:\n      sload(0x01)\n      dup2\n      jump\t// out\n        /* \"link.sol\":492:526  address[] public oracleAddressList */\n    tag_27:\n      0x00\n      dup2\n      dup2\n      sload\n      dup2\n      lt\n      tag_39\n      jumpi\n      0x00\n      dup1\n      revert\n    tag_39:\n      swap1\n      0x00\n      mstore\n      keccak256(0x00, 0x20)\n      add\n      0x00\n      swap2\n      pop\n      sload\n      swap1\n      0x0100\n      exp\n      swap1\n      div\n      0xffffffffffffffffffffffffffffffffffffffff\n      and\n      dup2\n      jump\t// out\n        /* \"link.sol\":812:1145  function registerOracleNode() public returns (bool) {... */\n    tag_31:\n        /* \"link.sol\":858:862  bool */\n      0x00\n        /* \"link.sol\":915:924  uint256 i */\n      0x00\n        /* \"link.sol\":927:928  0 */\n      0x00\n        /* \"link.sol\":915:928  uint256 i = 0 */\n      swap1\n      pop\n        /* \"link.sol\":910:1074  for (uint256 i = 0; i < oracleAddressList.length; i++) {... */\n    tag_42:\n        /* \"link.sol\":934:951  oracleAddressList */\n      0x00\n        /* \"link.sol\":934:958  oracleAddressList.length */\n      dup1\n      sload\n      swap1\n      pop\n        /* \"link.sol\":930:931  i */\n      dup2\n        /* \"link.sol\":930:958  i < oracleAddressList.length */\n      lt\n        /* \"link.sol\":910:1074  for (uint256 i = 0; i < oracleAddressList.length; i++) {... */\n      iszero\n      tag_43\n      jumpi\n        /* \"link.sol\":1007:1017  msg.sender */\n      caller\n        /* \"link.sol\":983:1017  oracleAddressList[i] == msg.sender */\n      0xffffffffffffffffffffffffffffffffffffffff\n      and\n        /* \"link.sol\":983:1000  oracleAddressList */\n      0x00\n        /* \"link.sol\":1001:1002  i */\n      dup3\n        /* \"link.sol\":983:1003  oracleAddressList[i] */\n      dup2\n      sload\n      dup2\n      lt\n      tag_45\n      jumpi\n      tag_46\n      tag_47\n      jump\t// in\n    tag_46:\n    tag_45:\n      swap1\n      0x00\n      mstore\n      keccak256(0x00, 0x20)\n      add\n      0x00\n      swap1\n      sload\n      swap1\n      0x0100\n      exp\n      swap1\n      div\n      0xffffffffffffffffffffffffffffffffffffffff\n      and\n        /* \"link.sol\":983:1017  oracleAddressList[i] == msg.sender */\n      0xffffffffffffffffffffffffffffffffffffffff\n      and\n      sub\n        /* \"link.sol\":979:1064  if (oracleAddressList[i] == msg.sender) {... */\n      tag_49\n      jumpi\n        /* \"link.sol\":1044:1049  false */\n      0x00\n        /* \"link.sol\":1037:1049  return false */\n      swap2\n      pop\n      pop\n      jump(tag_41)\n        /* \"link.sol\":979:1064  if (oracleAddressList[i] == msg.sender) {... */\n    tag_49:\n        /* \"link.sol\":960:963  i++ */\n      dup1\n      dup1\n      0x01\n      add\n      swap2\n      pop\n      pop\n        /* \"link.sol\":910:1074  for (uint256 i = 0; i < oracleAddressList.length; i++) {... */\n      jump(tag_42)\n    tag_43:\n      pop\n        /* \"link.sol\":1083:1100  oracleAddressList */\n      0x00\n        /* \"link.sol\":1106:1116  msg.sender */\n      caller\n        /* \"link.sol\":1083:1117  oracleAddressList.push(msg.sender) */\n      swap1\n      dup1\n      0x01\n      dup2\n      sload\n      add\n      dup1\n      dup3\n      sstore\n      dup1\n      swap2\n      pop\n      pop\n      0x01\n      swap1\n      sub\n      swap1\n      0x00\n      mstore\n      keccak256(0x00, 0x20)\n      add\n      0x00\n      swap1\n      swap2\n      swap1\n      swap2\n      swap1\n      swap2\n      0x0100\n      exp\n      dup2\n      sload\n      dup2\n      0xffffffffffffffffffffffffffffffffffffffff\n      mul\n      not\n      and\n      swap1\n      dup4\n      0xffffffffffffffffffffffffffffffffffffffff\n      and\n      mul\n      or\n      swap1\n      sstore\n      pop\n        /* \"link.sol\":1134:1138  true */\n      0x01\n        /* \"link.sol\":1127:1138  return true */\n      swap1\n      pop\n        /* \"link.sol\":812:1145  function registerOracleNode() public returns (bool) {... */\n    tag_41:\n      swap1\n      jump\t// out\n        /* \"link.sol\":1180:1640  function requestForMsg(string memory url, uint256 fee) public returns (bool) {... */\n    tag_36:\n        /* \"link.sol\":1251:1255  bool */\n      0x00\n        /* \"link.sol\":1299:1300  1 */\n      0x01\n        /* \"link.sol\":1271:1288  oracleAddressList */\n      0x00\n        /* \"link.sol\":1271:1295  oracleAddressList.length */\n      dup1\n      sload\n      swap1\n      pop\n        /* \"link.sol\":1271:1300  oracleAddressList.length <= 1 */\n      gt\n        /* \"link.sol\":1267:1339  if (oracleAddressList.length <= 1) {... */\n      tag_52\n      jumpi\n        /* \"link.sol\":1323:1328  false */\n      0x00\n        /* \"link.sol\":1316:1328  return false */\n      swap1\n      pop\n      jump(tag_51)\n        /* \"link.sol\":1267:1339  if (oracleAddressList.length <= 1) {... */\n    tag_52:\n        /* \"link.sol\":1349:1363  uint256 req_id */\n      0x00\n        /* \"link.sol\":1366:1381  totalRequestNum */\n      0x01\n      0x00\n        /* \"link.sol\":1366:1383  totalRequestNum++ */\n      dup2\n      sload\n      dup1\n      swap3\n      swap2\n      swap1\n      tag_53\n      swap1\n      tag_54\n      jump\t// in\n    tag_53:\n      swap2\n      swap1\n      pop\n      sstore\n        /* \"link.sol\":1349:1383  uint256 req_id = totalRequestNum++ */\n      swap1\n      pop\n        /* \"link.sol\":1415:1561  RequestBody({... */\n      mload(0x40)\n      dup1\n      0xa0\n      add\n      0x40\n      mstore\n      dup1\n        /* \"link.sol\":1445:1451  req_id */\n      dup3\n        /* \"link.sol\":1415:1561  RequestBody({... */\n      dup2\n      mstore\n      0x20\n      add\n        /* \"link.sol\":1476:1486  msg.sender */\n      caller\n        /* \"link.sol\":1415:1561  RequestBody({... */\n      0xffffffffffffffffffffffffffffffffffffffff\n      and\n      dup2\n      mstore\n      0x20\n      add\n        /* \"link.sol\":1505:1508  url */\n      dup6\n        /* \"link.sol\":1415:1561  RequestBody({... */\n      dup2\n      mstore\n      0x20\n      add\n        /* \"link.sol\":1527:1530  fee */\n      dup5\n        /* \"link.sol\":1415:1561  RequestBody({... */\n      dup2\n      mstore\n      0x20\n      add\n        /* \"link.sol\":1549:1550  0 */\n      0x00\n        /* \"link.sol\":1415:1561  RequestBody({... */\n      dup2\n      mstore\n      pop\n        /* \"link.sol\":1394:1404  requestMap */\n      0x03\n        /* \"link.sol\":1394:1412  requestMap[req_id] */\n      0x00\n        /* \"link.sol\":1405:1411  req_id */\n      dup4\n        /* \"link.sol\":1394:1412  requestMap[req_id] */\n      dup2\n      mstore\n      0x20\n      add\n      swap1\n      dup2\n      mstore\n      0x20\n      add\n      0x00\n      keccak256\n        /* \"link.sol\":1394:1561  requestMap[req_id] = RequestBody({... */\n      0x00\n      dup3\n      add\n      mload\n      dup2\n      0x00\n      add\n      sstore\n      0x20\n      dup3\n      add\n      mload\n      dup2\n      0x01\n      add\n      exp(0x0100, 0x00)\n      dup2\n      sload\n      dup2\n      0xffffffffffffffffffffffffffffffffffffffff\n      mul\n      not\n      and\n      swap1\n      dup4\n      0xffffffffffffffffffffffffffffffffffffffff\n      and\n      mul\n      or\n      swap1\n      sstore\n      pop\n      0x40\n      dup3\n      add\n      mload\n      dup2\n      0x02\n      add\n      swap1\n      dup2\n      tag_55\n      swap2\n      swap1\n      tag_56\n      jump\t// in\n    tag_55:\n      pop\n      0x60\n      dup3\n      add\n      mload\n      dup2\n      0x03\n      add\n      sstore\n      0x80\n      dup3\n      add\n      mload\n      dup2\n      0x04\n      add\n      sstore\n      swap1\n      pop\n      pop\n        /* \"link.sol\":1595:1601  req_id */\n      dup1\n        /* \"link.sol\":1576:1612  oracleRequestEvent(req_id, url, fee) */\n      0xff720fe3c931d07ee2cb53614d5790d5e186f7e2a84ed6aa4ad335a4f896e46a\n        /* \"link.sol\":1603:1606  url */\n      dup6\n        /* \"link.sol\":1608:1611  fee */\n      dup6\n        /* \"link.sol\":1576:1612  oracleRequestEvent(req_id, url, fee) */\n      mload(0x40)\n      tag_57\n      swap3\n      swap2\n      swap1\n      tag_58\n      jump\t// in\n    tag_57:\n      mload(0x40)\n      dup1\n      swap2\n      sub\n      swap1\n      log2\n        /* \"link.sol\":1629:1633  true */\n      0x01\n        /* \"link.sol\":1622:1633  return true */\n      swap2\n      pop\n      pop\n        /* \"link.sol\":1180:1640  function requestForMsg(string memory url, uint256 fee) public returns (bool) {... */\n    tag_51:\n      swap3\n      swap2\n      pop\n      pop\n      jump\t// out\n        /* \"#utility.yul\":7:82   */\n    tag_59:\n        /* \"#utility.yul\":40:46   */\n      0x00\n        /* \"#utility.yul\":73:75   */\n      0x40\n        /* \"#utility.yul\":67:76   */\n      mload\n        /* \"#utility.yul\":57:76   */\n      swap1\n      pop\n        /* \"#utility.yul\":7:82   */\n      swap1\n      jump\t// out\n        /* \"#utility.yul\":88:205   */\n    tag_60:\n        /* \"#utility.yul\":197:198   */\n      0x00\n        /* \"#utility.yul\":194:195   */\n      0x00\n        /* \"#utility.yul\":187:199   */\n      revert\n        /* \"#utility.yul\":211:328   */\n    tag_61:\n        /* \"#utility.yul\":320:321   */\n      0x00\n        /* \"#utility.yul\":317:318   */\n      0x00\n        /* \"#utility.yul\":310:322   */\n      revert\n        /* \"#utility.yul\":334:411   */\n    tag_62:\n        /* \"#utility.yul\":371:378   */\n      0x00\n        /* \"#utility.yul\":400:405   */\n      dup2\n        /* \"#utility.yul\":389:405   */\n      swap1\n      pop\n        /* \"#utility.yul\":334:411   */\n      swap2\n      swap1\n      pop\n      jump\t// out\n        /* \"#utility.yul\":417:539   */\n    tag_63:\n        /* \"#utility.yul\":490:514   */\n      tag_111\n        /* \"#utility.yul\":508:513   */\n      dup2\n        /* \"#utility.yul\":490:514   */\n      tag_62\n      jump\t// in\n    tag_111:\n        /* \"#utility.yul\":483:488   */\n      dup2\n        /* \"#utility.yul\":480:515   */\n      eq\n        /* \"#utility.yul\":470:533   */\n      tag_112\n      jumpi\n        /* \"#utility.yul\":529:530   */\n      0x00\n        /* \"#utility.yul\":526:527   */\n      0x00\n        /* \"#utility.yul\":519:531   */\n      revert\n        /* \"#utility.yul\":470:533   */\n    tag_112:\n        /* \"#utility.yul\":417:539   */\n      pop\n      jump\t// out\n        /* \"#utility.yul\":545:684   */\n    tag_64:\n        /* \"#utility.yul\":591:596   */\n      0x00\n        /* \"#utility.yul\":629:635   */\n      dup2\n        /* \"#utility.yul\":616:636   */\n      calldataload\n        /* \"#utility.yul\":607:636   */\n      swap1\n      pop\n        /* \"#utility.yul\":645:678   */\n      tag_114\n        /* \"#utility.yul\":672:677   */\n      dup2\n        /* \"#utility.yul\":645:678   */\n      tag_63\n      jump\t// in\n    tag_114:\n        /* \"#utility.yul\":545:684   */\n      swap3\n      swap2\n      pop\n      pop\n      jump\t// out\n        /* \"#utility.yul\":690:1164   */\n    tag_11:\n        /* \"#utility.yul\":758:764   */\n      0x00\n        /* \"#utility.yul\":766:772   */\n      0x00\n        /* \"#utility.yul\":815:817   */\n      0x40\n        /* \"#utility.yul\":803:812   */\n      dup4\n        /* \"#utility.yul\":794:801   */\n      dup6\n        /* \"#utility.yul\":790:813   */\n      sub\n        /* \"#utility.yul\":786:818   */\n      slt\n        /* \"#utility.yul\":783:902   */\n      iszero\n      tag_116\n      jumpi\n        /* \"#utility.yul\":821:900   */\n      tag_117\n      tag_60\n      jump\t// in\n    tag_117:\n        /* \"#utility.yul\":783:902   */\n    tag_116:\n        /* \"#utility.yul\":941:942   */\n      0x00\n        /* \"#utility.yul\":966:1019   */\n      tag_118\n        /* \"#utility.yul\":1011:1018   */\n      dup6\n        /* \"#utility.yul\":1002:1008   */\n      dup3\n        /* \"#utility.yul\":991:1000   */\n      dup7\n        /* \"#utility.yul\":987:1009   */\n      add\n        /* \"#utility.yul\":966:1019   */\n      tag_64\n      jump\t// in\n    tag_118:\n        /* \"#utility.yul\":956:1019   */\n      swap3\n      pop\n        /* \"#utility.yul\":912:1029   */\n      pop\n        /* \"#utility.yul\":1068:1070   */\n      0x20\n        /* \"#utility.yul\":1094:1147   */\n      tag_119\n        /* \"#utility.yul\":1139:1146   */\n      dup6\n        /* \"#utility.yul\":1130:1136   */\n      dup3\n        /* \"#utility.yul\":1119:1128   */\n      dup7\n        /* \"#utility.yul\":1115:1137   */\n      add\n        /* \"#utility.yul\":1094:1147   */\n      tag_64\n      jump\t// in\n    tag_119:\n        /* \"#utility.yul\":1084:1147   */\n      swap2\n      pop\n        /* \"#utility.yul\":1039:1157   */\n      pop\n        /* \"#utility.yul\":690:1164   */\n      swap3\n      pop\n      swap3\n      swap1\n      pop\n      jump\t// out\n        /* \"#utility.yul\":1170:1260   */\n    tag_65:\n        /* \"#utility.yul\":1204:1211   */\n      0x00\n        /* \"#utility.yul\":1247:1252   */\n      dup2\n        /* \"#utility.yul\":1240:1253   */\n      iszero\n        /* \"#utility.yul\":1233:1254   */\n      iszero\n        /* \"#utility.yul\":1222:1254   */\n      swap1\n      pop\n        /* \"#utility.yul\":1170:1260   */\n      swap2\n      swap1\n      pop\n      jump\t// out\n        /* \"#utility.yul\":1266:1375   */\n    tag_66:\n        /* \"#utility.yul\":1347:1368   */\n      tag_122\n        /* \"#utility.yul\":1362:1367   */\n      dup2\n        /* \"#utility.yul\":1347:1368   */\n      tag_65\n      jump\t// in\n    tag_122:\n        /* \"#utility.yul\":1342:1345   */\n      dup3\n        /* \"#utility.yul\":1335:1369   */\n      mstore\n        /* \"#utility.yul\":1266:1375   */\n      pop\n      pop\n      jump\t// out\n        /* \"#utility.yul\":1381:1591   */\n    tag_14:\n        /* \"#utility.yul\":1468:1472   */\n      0x00\n        /* \"#utility.yul\":1506:1508   */\n      0x20\n        /* \"#utility.yul\":1495:1504   */\n      dup3\n        /* \"#utility.yul\":1491:1509   */\n      add\n        /* \"#utility.yul\":1483:1509   */\n      swap1\n      pop\n        /* \"#utility.yul\":1519:1584   */\n      tag_124\n        /* \"#utility.yul\":1581:1582   */\n      0x00\n        /* \"#utility.yul\":1570:1579   */\n      dup4\n        /* \"#utility.yul\":1566:1583   */\n      add\n        /* \"#utility.yul\":1557:1563   */\n      dup5\n        /* \"#utility.yul\":1519:1584   */\n      tag_66\n      jump\t// in\n    tag_124:\n        /* \"#utility.yul\":1381:1591   */\n      swap3\n      swap2\n      pop\n      pop\n      jump\t// out\n        /* \"#utility.yul\":1597:1723   */\n    tag_67:\n        /* \"#utility.yul\":1634:1641   */\n      0x00\n        /* \"#utility.yul\":1674:1716   */\n      0xffffffffffffffffffffffffffffffffffffffff\n        /* \"#utility.yul\":1667:1672   */\n      dup3\n        /* \"#utility.yul\":1663:1717   */\n      and\n        /* \"#utility.yul\":1652:1717   */\n      swap1\n      pop\n        /* \"#utility.yul\":1597:1723   */\n      swap2\n      swap1\n      pop\n      jump\t// out\n        /* \"#utility.yul\":1729:1825   */\n    tag_68:\n        /* \"#utility.yul\":1766:1773   */\n      0x00\n        /* \"#utility.yul\":1795:1819   */\n      tag_127\n        /* \"#utility.yul\":1813:1818   */\n      dup3\n        /* \"#utility.yul\":1795:1819   */\n      tag_67\n      jump\t// in\n    tag_127:\n        /* \"#utility.yul\":1784:1819   */\n      swap1\n      pop\n        /* \"#utility.yul\":1729:1825   */\n      swap2\n      swap1\n      pop\n      jump\t// out\n        /* \"#utility.yul\":1831:1953   */\n    tag_69:\n        /* \"#utility.yul\":1904:1928   */\n      tag_129\n        /* \"#utility.yul\":1922:1927   */\n      dup2\n        /* \"#utility.yul\":1904:1928   */\n      tag_68\n      jump\t// in\n    tag_129:\n        /* \"#utility.yul\":1897:1902   */\n      dup2\n        /* \"#utility.yul\":1894:1929   */\n      eq\n        /* \"#utility.yul\":1884:1947   */\n      tag_130\n      jumpi\n        /* \"#utility.yul\":1943:1944   */\n      0x00\n        /* \"#utility.yul\":1940:1941   */\n      0x00\n        /* \"#utility.yul\":1933:1945   */\n      revert\n        /* \"#utility.yul\":1884:1947   */\n    tag_130:\n        /* \"#utility.yul\":1831:1953   */\n      pop\n      jump\t// out\n        /* \"#utility.yul\":1959:2098   */\n    tag_70:\n        /* \"#utility.yul\":2005:2010   */\n      0x00\n        /* \"#utility.yul\":2043:2049   */\n      dup2\n        /* \"#utility.yul\":2030:2050   */\n      calldataload\n        /* \"#utility.yul\":2021:2050   */\n      swap1\n      pop\n        /* \"#utility.yul\":2059:2092   */\n      tag_132\n        /* \"#utility.yul\":2086:2091   */\n      dup2\n        /* \"#utility.yul\":2059:2092   */\n      tag_69\n      jump\t// in\n    tag_132:\n        /* \"#utility.yul\":1959:2098   */\n      swap3\n      swap2\n      pop\n      pop\n      jump\t// out\n        /* \"#utility.yul\":2104:2433   */\n    tag_17:\n        /* \"#utility.yul\":2163:2169   */\n      0x00\n        /* \"#utility.yul\":2212:2214   */\n      0x20\n        /* \"#utility.yul\":2200:2209   */\n      dup3\n        /* \"#utility.yul\":2191:2198   */\n      dup5\n        /* \"#utility.yul\":2187:2210   */\n      sub\n        /* \"#utility.yul\":2183:2215   */\n      slt\n        /* \"#utility.yul\":2180:2299   */\n      iszero\n      tag_134\n      jumpi\n        /* \"#utility.yul\":2218:2297   */\n      tag_135\n      tag_60\n      jump\t// in\n    tag_135:\n        /* \"#utility.yul\":2180:2299   */\n    tag_134:\n        /* \"#utility.yul\":2338:2339   */\n      0x00\n        /* \"#utility.yul\":2363:2416   */\n      tag_136\n        /* \"#utility.yul\":2408:2415   */\n      dup5\n        /* \"#utility.yul\":2399:2405   */\n      dup3\n        /* \"#utility.yul\":2388:2397   */\n      dup6\n        /* \"#utility.yul\":2384:2406   */\n      add\n        /* \"#utility.yul\":2363:2416   */\n      tag_70\n      jump\t// in\n    tag_136:\n        /* \"#utility.yul\":2353:2416   */\n      swap2\n      pop\n        /* \"#utility.yul\":2309:2426   */\n      pop\n        /* \"#utility.yul\":2104:2433   */\n      swap3\n      swap2\n      pop\n      pop\n      jump\t// out\n        /* \"#utility.yul\":2439:2557   */\n    tag_71:\n        /* \"#utility.yul\":2526:2550   */\n      tag_138\n        /* \"#utility.yul\":2544:2549   */\n      dup2\n        /* \"#utility.yul\":2526:2550   */\n      tag_62\n      jump\t// in\n    tag_138:\n        /* \"#utility.yul\":2521:2524   */\n      dup3\n        /* \"#utility.yul\":2514:2551   */\n      mstore\n        /* \"#utility.yul\":2439:2557   */\n      pop\n      pop\n      jump\t// out\n        /* \"#utility.yul\":2563:2785   */\n    tag_20:\n        /* \"#utility.yul\":2656:2660   */\n      0x00\n        /* \"#utility.yul\":2694:2696   */\n      0x20\n        /* \"#utility.yul\":2683:2692   */\n      dup3\n        /* \"#utility.yul\":2679:2697   */\n      add\n        /* \"#utility.yul\":2671:2697   */\n      swap1\n      pop\n        /* \"#utility.yul\":2707:2778   */\n      tag_140\n        /* \"#utility.yul\":2775:2776   */\n      0x00\n        /* \"#utility.yul\":2764:2773   */\n      dup4\n        /* \"#utility.yul\":2760:2777   */\n      add\n        /* \"#utility.yul\":2751:2757   */\n      dup5\n        /* \"#utility.yul\":2707:2778   */\n      tag_71\n      jump\t// in\n    tag_140:\n        /* \"#utility.yul\":2563:2785   */\n      swap3\n      swap2\n      pop\n      pop\n      jump\t// out\n        /* \"#utility.yul\":2791:3120   */\n    tag_26:\n        /* \"#utility.yul\":2850:2856   */\n      0x00\n        /* \"#utility.yul\":2899:2901   */\n      0x20\n        /* \"#utility.yul\":2887:2896   */\n      dup3\n        /* \"#utility.yul\":2878:2885   */\n      dup5\n        /* \"#utility.yul\":2874:2897   */\n      sub\n        /* \"#utility.yul\":2870:2902   */\n      slt\n        /* \"#utility.yul\":2867:2986   */\n      iszero\n      tag_142\n      jumpi\n        /* \"#utility.yul\":2905:2984   */\n      tag_143\n      tag_60\n      jump\t// in\n    tag_143:\n        /* \"#utility.yul\":2867:2986   */\n    tag_142:\n        /* \"#utility.yul\":3025:3026   */\n      0x00\n        /* \"#utility.yul\":3050:3103   */\n      tag_144\n        /* \"#utility.yul\":3095:3102   */\n      dup5\n        /* \"#utility.yul\":3086:3092   */\n      dup3\n        /* \"#utility.yul\":3075:3084   */\n      dup6\n        /* \"#utility.yul\":3071:3093   */\n      add\n        /* \"#utility.yul\":3050:3103   */\n      tag_64\n      jump\t// in\n    tag_144:\n        /* \"#utility.yul\":3040:3103   */\n      swap2\n      pop\n        /* \"#utility.yul\":2996:3113   */\n      pop\n        /* \"#utility.yul\":2791:3120   */\n      swap3\n      swap2\n      pop\n      pop\n      jump\t// out\n        /* \"#utility.yul\":3126:3244   */\n    tag_72:\n        /* \"#utility.yul\":3213:3237   */\n      tag_146\n        /* \"#utility.yul\":3231:3236   */\n      dup2\n        /* \"#utility.yul\":3213:3237   */\n      tag_68\n      jump\t// in\n    tag_146:\n        /* \"#utility.yul\":3208:3211   */\n      dup3\n        /* \"#utility.yul\":3201:3238   */\n      mstore\n        /* \"#utility.yul\":3126:3244   */\n      pop\n      pop\n      jump\t// out\n        /* \"#utility.yul\":3250:3472   */\n    tag_29:\n        /* \"#utility.yul\":3343:3347   */\n      0x00\n        /* \"#utility.yul\":3381:3383   */\n      0x20\n        /* \"#utility.yul\":3370:3379   */\n      dup3\n        /* \"#utility.yul\":3366:3384   */\n      add\n        /* \"#utility.yul\":3358:3384   */\n      swap1\n      pop\n        /* \"#utility.yul\":3394:3465   */\n      tag_148\n        /* \"#utility.yul\":3462:3463   */\n      0x00\n        /* \"#utility.yul\":3451:3460   */\n      dup4\n        /* \"#utility.yul\":3447:3464   */\n      add\n        /* \"#utility.yul\":3438:3444   */\n      dup5\n        /* \"#utility.yul\":3394:3465   */\n      tag_72\n      jump\t// in\n    tag_148:\n        /* \"#utility.yul\":3250:3472   */\n      swap3\n      swap2\n      pop\n      pop\n      jump\t// out\n        /* \"#utility.yul\":3478:3595   */\n    tag_73:\n        /* \"#utility.yul\":3587:3588   */\n      0x00\n        /* \"#utility.yul\":3584:3585   */\n      0x00\n        /* \"#utility.yul\":3577:3589   */\n      revert\n        /* \"#utility.yul\":3601:3718   */\n    tag_74:\n        /* \"#utility.yul\":3710:3711   */\n      0x00\n        /* \"#utility.yul\":3707:3708   */\n      0x00\n        /* \"#utility.yul\":3700:3712   */\n      revert\n        /* \"#utility.yul\":3724:3826   */\n    tag_75:\n        /* \"#utility.yul\":3765:3771   */\n      0x00\n        /* \"#utility.yul\":3816:3818   */\n      0x1f\n        /* \"#utility.yul\":3812:3819   */\n      not\n        /* \"#utility.yul\":3807:3809   */\n      0x1f\n        /* \"#utility.yul\":3800:3805   */\n      dup4\n        /* \"#utility.yul\":3796:3810   */\n      add\n        /* \"#utility.yul\":3792:3820   */\n      and\n        /* \"#utility.yul\":3782:3820   */\n      swap1\n      pop\n        /* \"#utility.yul\":3724:3826   */\n      swap2\n      swap1\n      pop\n      jump\t// out\n        /* \"#utility.yul\":3832:4012   */\n    tag_76:\n        /* \"#utility.yul\":3880:3957   */\n      0x4e487b7100000000000000000000000000000000000000000000000000000000\n        /* \"#utility.yul\":3877:3878   */\n      0x00\n        /* \"#utility.yul\":3870:3958   */\n      mstore\n        /* \"#utility.yul\":3977:3981   */\n      0x41\n        /* \"#utility.yul\":3974:3975   */\n      0x04\n        /* \"#utility.yul\":3967:3982   */\n      mstore\n        /* \"#utility.yul\":4001:4005   */\n      0x24\n        /* \"#utility.yul\":3998:3999   */\n      0x00\n        /* \"#utility.yul\":3991:4006   */\n      revert\n        /* \"#utility.yul\":4018:4299   */\n    tag_77:\n        /* \"#utility.yul\":4101:4128   */\n      tag_154\n        /* \"#utility.yul\":4123:4127   */\n      dup3\n        /* \"#utility.yul\":4101:4128   */\n      tag_75\n      jump\t// in\n    tag_154:\n        /* \"#utility.yul\":4093:4099   */\n      dup2\n        /* \"#utility.yul\":4089:4129   */\n      add\n        /* \"#utility.yul\":4231:4237   */\n      dup2\n        /* \"#utility.yul\":4219:4229   */\n      dup2\n        /* \"#utility.yul\":4216:4238   */\n      lt\n        /* \"#utility.yul\":4195:4213   */\n      0xffffffffffffffff\n        /* \"#utility.yul\":4183:4193   */\n      dup3\n        /* \"#utility.yul\":4180:4214   */\n      gt\n        /* \"#utility.yul\":4177:4239   */\n      or\n        /* \"#utility.yul\":4174:4262   */\n      iszero\n      tag_155\n      jumpi\n        /* \"#utility.yul\":4242:4260   */\n      tag_156\n      tag_76\n      jump\t// in\n    tag_156:\n        /* \"#utility.yul\":4174:4262   */\n    tag_155:\n        /* \"#utility.yul\":4282:4292   */\n      dup1\n        /* \"#utility.yul\":4278:4280   */\n      0x40\n        /* \"#utility.yul\":4271:4293   */\n      mstore\n        /* \"#utility.yul\":4061:4299   */\n      pop\n        /* \"#utility.yul\":4018:4299   */\n      pop\n      pop\n      jump\t// out\n        /* \"#utility.yul\":4305:4434   */\n    tag_78:\n        /* \"#utility.yul\":4339:4345   */\n      0x00\n        /* \"#utility.yul\":4366:4386   */\n      tag_158\n      tag_59\n      jump\t// in\n    tag_158:\n        /* \"#utility.yul\":4356:4386   */\n      swap1\n      pop\n        /* \"#utility.yul\":4395:4428   */\n      tag_159\n        /* \"#utility.yul\":4423:4427   */\n      dup3\n        /* \"#utility.yul\":4415:4421   */\n      dup3\n        /* \"#utility.yul\":4395:4428   */\n      tag_77\n      jump\t// in\n    tag_159:\n        /* \"#utility.yul\":4305:4434   */\n      swap2\n      swap1\n      pop\n      jump\t// out\n        /* \"#utility.yul\":4440:4748   */\n    tag_79:\n        /* \"#utility.yul\":4502:4506   */\n      0x00\n        /* \"#utility.yul\":4592:4610   */\n      0xffffffffffffffff\n        /* \"#utility.yul\":4584:4590   */\n      dup3\n        /* \"#utility.yul\":4581:4611   */\n      gt\n        /* \"#utility.yul\":4578:4634   */\n      iszero\n      tag_161\n      jumpi\n        /* \"#utility.yul\":4614:4632   */\n      tag_162\n      tag_76\n      jump\t// in\n    tag_162:\n        /* \"#utility.yul\":4578:4634   */\n    tag_161:\n        /* \"#utility.yul\":4652:4681   */\n      tag_163\n        /* \"#utility.yul\":4674:4680   */\n      dup3\n        /* \"#utility.yul\":4652:4681   */\n      tag_75\n      jump\t// in\n    tag_163:\n        /* \"#utility.yul\":4644:4681   */\n      swap1\n      pop\n        /* \"#utility.yul\":4736:4740   */\n      0x20\n        /* \"#utility.yul\":4730:4734   */\n      dup2\n        /* \"#utility.yul\":4726:4741   */\n      add\n        /* \"#utility.yul\":4718:4741   */\n      swap1\n      pop\n        /* \"#utility.yul\":4440:4748   */\n      swap2\n      swap1\n      pop\n      jump\t// out\n        /* \"#utility.yul\":4754:4902   */\n    tag_80:\n        /* \"#utility.yul\":4852:4858   */\n      dup3\n        /* \"#utility.yul\":4847:4850   */\n      dup2\n        /* \"#utility.yul\":4842:4845   */\n      dup4\n        /* \"#utility.yul\":4829:4859   */\n      calldatacopy\n        /* \"#utility.yul\":4893:4894   */\n      0x00\n        /* \"#utility.yul\":4884:4890   */\n      dup4\n        /* \"#utility.yul\":4879:4882   */\n      dup4\n        /* \"#utility.yul\":4875:4891   */\n      add\n        /* \"#utility.yul\":4868:4895   */\n      mstore\n        /* \"#utility.yul\":4754:4902   */\n      pop\n      pop\n      pop\n      jump\t// out\n        /* \"#utility.yul\":4908:5333   */\n    tag_81:\n        /* \"#utility.yul\":4986:4991   */\n      0x00\n        /* \"#utility.yul\":5011:5077   */\n      tag_166\n        /* \"#utility.yul\":5027:5076   */\n      tag_167\n        /* \"#utility.yul\":5069:5075   */\n      dup5\n        /* \"#utility.yul\":5027:5076   */\n      tag_79\n      jump\t// in\n    tag_167:\n        /* \"#utility.yul\":5011:5077   */\n      tag_78\n      jump\t// in\n    tag_166:\n        /* \"#utility.yul\":5002:5077   */\n      swap1\n      pop\n        /* \"#utility.yul\":5100:5106   */\n      dup3\n        /* \"#utility.yul\":5093:5098   */\n      dup2\n        /* \"#utility.yul\":5086:5107   */\n      mstore\n        /* \"#utility.yul\":5138:5142   */\n      0x20\n        /* \"#utility.yul\":5131:5136   */\n      dup2\n        /* \"#utility.yul\":5127:5143   */\n      add\n        /* \"#utility.yul\":5176:5179   */\n      dup5\n        /* \"#utility.yul\":5167:5173   */\n      dup5\n        /* \"#utility.yul\":5162:5165   */\n      dup5\n        /* \"#utility.yul\":5158:5174   */\n      add\n        /* \"#utility.yul\":5155:5180   */\n      gt\n        /* \"#utility.yul\":5152:5264   */\n      iszero\n      tag_168\n      jumpi\n        /* \"#utility.yul\":5183:5262   */\n      tag_169\n      tag_74\n      jump\t// in\n    tag_169:\n        /* \"#utility.yul\":5152:5264   */\n    tag_168:\n        /* \"#utility.yul\":5273:5327   */\n      tag_170\n        /* \"#utility.yul\":5320:5326   */\n      dup5\n        /* \"#utility.yul\":5315:5318   */\n      dup3\n        /* \"#utility.yul\":5310:5313   */\n      dup6\n        /* \"#utility.yul\":5273:5327   */\n      tag_80\n      jump\t// in\n    tag_170:\n        /* \"#utility.yul\":4992:5333   */\n      pop\n        /* \"#utility.yul\":4908:5333   */\n      swap4\n      swap3\n      pop\n      pop\n      pop\n      jump\t// out\n        /* \"#utility.yul\":5353:5693   */\n    tag_82:\n        /* \"#utility.yul\":5409:5414   */\n      0x00\n        /* \"#utility.yul\":5458:5461   */\n      dup3\n        /* \"#utility.yul\":5451:5455   */\n      0x1f\n        /* \"#utility.yul\":5443:5449   */\n      dup4\n        /* \"#utility.yul\":5439:5456   */\n      add\n        /* \"#utility.yul\":5435:5462   */\n      slt\n        /* \"#utility.yul\":5425:5547   */\n      tag_172\n      jumpi\n        /* \"#utility.yul\":5466:5545   */\n      tag_173\n      tag_73\n      jump\t// in\n    tag_173:\n        /* \"#utility.yul\":5425:5547   */\n    tag_172:\n        /* \"#utility.yul\":5583:5589   */\n      dup2\n        /* \"#utility.yul\":5570:5590   */\n      calldataload\n        /* \"#utility.yul\":5608:5687   */\n      tag_174\n        /* \"#utility.yul\":5683:5686   */\n      dup5\n        /* \"#utility.yul\":5675:5681   */\n      dup3\n        /* \"#utility.yul\":5668:5672   */\n      0x20\n        /* \"#utility.yul\":5660:5666   */\n      dup7\n        /* \"#utility.yul\":5656:5673   */\n      add\n        /* \"#utility.yul\":5608:5687   */\n      tag_81\n      jump\t// in\n    tag_174:\n        /* \"#utility.yul\":5599:5687   */\n      swap2\n      pop\n        /* \"#utility.yul\":5415:5693   */\n      pop\n        /* \"#utility.yul\":5353:5693   */\n      swap3\n      swap2\n      pop\n      pop\n      jump\t// out\n        /* \"#utility.yul\":5699:6353   */\n    tag_35:\n        /* \"#utility.yul\":5777:5783   */\n      0x00\n        /* \"#utility.yul\":5785:5791   */\n      0x00\n        /* \"#utility.yul\":5834:5836   */\n      0x40\n        /* \"#utility.yul\":5822:5831   */\n      dup4\n        /* \"#utility.yul\":5813:5820   */\n      dup6\n        /* \"#utility.yul\":5809:5832   */\n      sub\n        /* \"#utility.yul\":5805:5837   */\n      slt\n        /* \"#utility.yul\":5802:5921   */\n      iszero\n      tag_176\n      jumpi\n        /* \"#utility.yul\":5840:5919   */\n      tag_177\n      tag_60\n      jump\t// in\n    tag_177:\n        /* \"#utility.yul\":5802:5921   */\n    tag_176:\n        /* \"#utility.yul\":5988:5989   */\n      0x00\n        /* \"#utility.yul\":5977:5986   */\n      dup4\n        /* \"#utility.yul\":5973:5990   */\n      add\n        /* \"#utility.yul\":5960:5991   */\n      calldataload\n        /* \"#utility.yul\":6018:6036   */\n      0xffffffffffffffff\n        /* \"#utility.yul\":6010:6016   */\n      dup2\n        /* \"#utility.yul\":6007:6037   */\n      gt\n        /* \"#utility.yul\":6004:6121   */\n      iszero\n      tag_178\n      jumpi\n        /* \"#utility.yul\":6040:6119   */\n      tag_179\n      tag_61\n      jump\t// in\n    tag_179:\n        /* \"#utility.yul\":6004:6121   */\n    tag_178:\n        /* \"#utility.yul\":6145:6208   */\n      tag_180\n        /* \"#utility.yul\":6200:6207   */\n      dup6\n        /* \"#utility.yul\":6191:6197   */\n      dup3\n        /* \"#utility.yul\":6180:6189   */\n      dup7\n        /* \"#utility.yul\":6176:6198   */\n      add\n        /* \"#utility.yul\":6145:6208   */\n      tag_82\n      jump\t// in\n    tag_180:\n        /* \"#utility.yul\":6135:6208   */\n      swap3\n      pop\n        /* \"#utility.yul\":5931:6218   */\n      pop\n        /* \"#utility.yul\":6257:6259   */\n      0x20\n        /* \"#utility.yul\":6283:6336   */\n      tag_181\n        /* \"#utility.yul\":6328:6335   */\n      dup6\n        /* \"#utility.yul\":6319:6325   */\n      dup3\n        /* \"#utility.yul\":6308:6317   */\n      dup7\n        /* \"#utility.yul\":6304:6326   */\n      add\n        /* \"#utility.yul\":6283:6336   */\n      tag_64\n      jump\t// in\n    tag_181:\n        /* \"#utility.yul\":6273:6336   */\n      swap2\n      pop\n        /* \"#utility.yul\":6228:6346   */\n      pop\n        /* \"#utility.yul\":5699:6353   */\n      swap3\n      pop\n      swap3\n      swap1\n      pop\n      jump\t// out\n        /* \"#utility.yul\":6359:6539   */\n    tag_47:\n        /* \"#utility.yul\":6407:6484   */\n      0x4e487b7100000000000000000000000000000000000000000000000000000000\n        /* \"#utility.yul\":6404:6405   */\n      0x00\n        /* \"#utility.yul\":6397:6485   */\n      mstore\n        /* \"#utility.yul\":6504:6508   */\n      0x32\n        /* \"#utility.yul\":6501:6502   */\n      0x04\n        /* \"#utility.yul\":6494:6509   */\n      mstore\n        /* \"#utility.yul\":6528:6532   */\n      0x24\n        /* \"#utility.yul\":6525:6526   */\n      0x00\n        /* \"#utility.yul\":6518:6533   */\n      revert\n        /* \"#utility.yul\":6545:6725   */\n    tag_83:\n        /* \"#utility.yul\":6593:6670   */\n      0x4e487b7100000000000000000000000000000000000000000000000000000000\n        /* \"#utility.yul\":6590:6591   */\n      0x00\n        /* \"#utility.yul\":6583:6671   */\n      mstore\n        /* \"#utility.yul\":6690:6694   */\n      0x11\n        /* \"#utility.yul\":6687:6688   */\n      0x04\n        /* \"#utility.yul\":6680:6695   */\n      mstore\n        /* \"#utility.yul\":6714:6718   */\n      0x24\n        /* \"#utility.yul\":6711:6712   */\n      0x00\n        /* \"#utility.yul\":6704:6719   */\n      revert\n        /* \"#utility.yul\":6731:6964   */\n    tag_54:\n        /* \"#utility.yul\":6770:6773   */\n      0x00\n        /* \"#utility.yul\":6793:6817   */\n      tag_185\n        /* \"#utility.yul\":6811:6816   */\n      dup3\n        /* \"#utility.yul\":6793:6817   */\n      tag_62\n      jump\t// in\n    tag_185:\n        /* \"#utility.yul\":6784:6817   */\n      swap2\n      pop\n        /* \"#utility.yul\":6839:6905   */\n      0xffffffffffffffffffffffffffffffffffffffffffffffffffffffffffffffff\n        /* \"#utility.yul\":6832:6837   */\n      dup3\n        /* \"#utility.yul\":6829:6906   */\n      sub\n        /* \"#utility.yul\":6826:6929   */\n      tag_186\n      jumpi\n        /* \"#utility.yul\":6909:6927   */\n      tag_187\n      tag_83\n      jump\t// in\n    tag_187:\n        /* \"#utility.yul\":6826:6929   */\n    tag_186:\n        /* \"#utility.yul\":6956:6957   */\n      0x01\n        /* \"#utility.yul\":6949:6954   */\n      dup3\n        /* \"#utility.yul\":6945:6958   */\n      add\n        /* \"#utility.yul\":6938:6958   */\n      swap1\n      pop\n        /* \"#utility.yul\":6731:6964   */\n      swap2\n      swap1\n      pop\n      jump\t// out\n        /* \"#utility.yul\":6970:7069   */\n    tag_84:\n        /* \"#utility.yul\":7022:7028   */\n      0x00\n        /* \"#utility.yul\":7056:7061   */\n      dup2\n        /* \"#utility.yul\":7050:7062   */\n      mload\n        /* \"#utility.yul\":7040:7062   */\n      swap1\n      pop\n        /* \"#utility.yul\":6970:7069   */\n      swap2\n      swap1\n      pop\n      jump\t// out\n        /* \"#utility.yul\":7075:7255   */\n    tag_85:\n        /* \"#utility.yul\":7123:7200   */\n      0x4e487b7100000000000000000000000000000000000000000000000000000000\n        /* \"#utility.yul\":7120:7121   */\n      0x00\n        /* \"#utility.yul\":7113:7201   */\n      mstore\n        /* \"#utility.yul\":7220:7224   */\n      0x22\n        /* \"#utility.yul\":7217:7218   */\n      0x04\n        /* \"#utility.yul\":7210:7225   */\n      mstore\n        /* \"#utility.yul\":7244:7248   */\n      0x24\n        /* \"#utility.yul\":7241:7242   */\n      0x00\n        /* \"#utility.yul\":7234:7249   */\n      revert\n        /* \"#utility.yul\":7261:7581   */\n    tag_86:\n        /* \"#utility.yul\":7305:7311   */\n      0x00\n        /* \"#utility.yul\":7342:7343   */\n      0x02\n        /* \"#utility.yul\":7336:7340   */\n      dup3\n        /* \"#utility.yul\":7332:7344   */\n      div\n        /* \"#utility.yul\":7322:7344   */\n      swap1\n      pop\n        /* \"#utility.yul\":7389:7390   */\n      0x01\n        /* \"#utility.yul\":7383:7387   */\n      dup3\n        /* \"#utility.yul\":7379:7391   */\n      and\n        /* \"#utility.yul\":7410:7428   */\n      dup1\n        /* \"#utility.yul\":7400:7481   */\n      tag_191\n      jumpi\n        /* \"#utility.yul\":7466:7470   */\n      0x7f\n        /* \"#utility.yul\":7458:7464   */\n      dup3\n        /* \"#utility.yul\":7454:7471   */\n      and\n        /* \"#utility.yul\":7444:7471   */\n      swap2\n      pop\n        /* \"#utility.yul\":7400:7481   */\n    tag_191:\n        /* \"#utility.yul\":7528:7530   */\n      0x20\n        /* \"#utility.yul\":7520:7526   */\n      dup3\n        /* \"#utility.yul\":7517:7531   */\n      lt\n        /* \"#utility.yul\":7497:7515   */\n      dup2\n        /* \"#utility.yul\":7494:7532   */\n      sub\n        /* \"#utility.yul\":7491:7575   */\n      tag_192\n      jumpi\n        /* \"#utility.yul\":7547:7565   */\n      tag_193\n      tag_85\n      jump\t// in\n    tag_193:\n        /* \"#utility.yul\":7491:7575   */\n    tag_192:\n        /* \"#utility.yul\":7312:7581   */\n      pop\n        /* \"#utility.yul\":7261:7581   */\n      swap2\n      swap1\n      pop\n      jump\t// out\n        /* \"#utility.yul\":7587:7728   */\n    tag_87:\n        /* \"#utility.yul\":7636:7640   */\n      0x00\n        /* \"#utility.yul\":7659:7662   */\n      dup2\n        /* \"#utility.yul\":7651:7662   */\n      swap1\n      pop\n        /* \"#utility.yul\":7682:7685   */\n      dup2\n        /* \"#utility.yul\":7679:7680   */\n      0x00\n        /* \"#utility.yul\":7672:7686   */\n      mstore\n        /* \"#utility.yul\":7716:7720   */\n      0x20\n        /* \"#utility.yul\":7713:7714   */\n      0x00\n        /* \"#utility.yul\":7703:7721   */\n      keccak256\n        /* \"#utility.yul\":7695:7721   */\n      swap1\n      pop\n        /* \"#utility.yul\":7587:7728   */\n      swap2\n      swap1\n      pop\n      jump\t// out\n        /* \"#utility.yul\":7734:7827   */\n    tag_88:\n        /* \"#utility.yul\":7771:7777   */\n      0x00\n        /* \"#utility.yul\":7818:7820   */\n      0x20\n        /* \"#utility.yul\":7813:7815   */\n      0x1f\n        /* \"#utility.yul\":7806:7811   */\n      dup4\n        /* \"#utility.yul\":7802:7816   */\n      add\n        /* \"#utility.yul\":7798:7821   */\n      div\n        /* \"#utility.yul\":7788:7821   */\n      swap1\n      pop\n        /* \"#utility.yul\":7734:7827   */\n      swap2\n      swap1\n      pop\n      jump\t// out\n        /* \"#utility.yul\":7833:7940   */\n    tag_89:\n        /* \"#utility.yul\":7877:7885   */\n      0x00\n        /* \"#utility.yul\":7927:7932   */\n      dup3\n        /* \"#utility.yul\":7921:7925   */\n      dup3\n        /* \"#utility.yul\":7917:7933   */\n      shl\n        /* \"#utility.yul\":7896:7933   */\n      swap1\n      pop\n        /* \"#utility.yul\":7833:7940   */\n      swap3\n      swap2\n      pop\n      pop\n      jump\t// out\n        /* \"#utility.yul\":7946:8339   */\n    tag_90:\n        /* \"#utility.yul\":8015:8021   */\n      0x00\n        /* \"#utility.yul\":8065:8066   */\n      0x08\n        /* \"#utility.yul\":8053:8063   */\n      dup4\n        /* \"#utility.yul\":8049:8067   */\n      mul\n        /* \"#utility.yul\":8088:8185   */\n      tag_198\n        /* \"#utility.yul\":8118:8184   */\n      0xffffffffffffffffffffffffffffffffffffffffffffffffffffffffffffffff\n        /* \"#utility.yul\":8107:8116   */\n      dup3\n        /* \"#utility.yul\":8088:8185   */\n      tag_89\n      jump\t// in\n    tag_198:\n        /* \"#utility.yul\":8206:8245   */\n      tag_199\n        /* \"#utility.yul\":8236:8244   */\n      dup7\n        /* \"#utility.yul\":8225:8234   */\n      dup4\n        /* \"#utility.yul\":8206:8245   */\n      tag_89\n      jump\t// in\n    tag_199:\n        /* \"#utility.yul\":8194:8245   */\n      swap6\n      pop\n        /* \"#utility.yul\":8278:8282   */\n      dup1\n        /* \"#utility.yul\":8274:8283   */\n      not\n        /* \"#utility.yul\":8267:8272   */\n      dup5\n        /* \"#utility.yul\":8263:8284   */\n      and\n        /* \"#utility.yul\":8254:8284   */\n      swap4\n      pop\n        /* \"#utility.yul\":8327:8331   */\n      dup1\n        /* \"#utility.yul\":8317:8325   */\n      dup7\n        /* \"#utility.yul\":8313:8332   */\n      and\n        /* \"#utility.yul\":8306:8311   */\n      dup5\n        /* \"#utility.yul\":8303:8333   */\n      or\n        /* \"#utility.yul\":8293:8333   */\n      swap3\n      pop\n        /* \"#utility.yul\":8022:8339   */\n      pop\n      pop\n        /* \"#utility.yul\":7946:8339   */\n      swap4\n      swap3\n      pop\n      pop\n      pop\n      jump\t// out\n        /* \"#utility.yul\":8345:8405   */\n    tag_91:\n        /* \"#utility.yul\":8373:8376   */\n      0x00\n        /* \"#utility.yul\":8394:8399   */\n      dup2\n        /* \"#utility.yul\":8387:8399   */\n      swap1\n      pop\n        /* \"#utility.yul\":8345:8405   */\n      swap2\n      swap1\n      pop\n      jump\t// out\n        /* \"#utility.yul\":8411:8553   */\n    tag_92:\n        /* \"#utility.yul\":8461:8470   */\n      0x00\n        /* \"#utility.yul\":8494:8547   */\n      tag_202\n        /* \"#utility.yul\":8512:8546   */\n      tag_203\n        /* \"#utility.yul\":8521:8545   */\n      tag_204\n        /* \"#utility.yul\":8539:8544   */\n      dup5\n        /* \"#utility.yul\":8521:8545   */\n      tag_62\n      jump\t// in\n    tag_204:\n        /* \"#utility.yul\":8512:8546   */\n      tag_91\n      jump\t// in\n    tag_203:\n        /* \"#utility.yul\":8494:8547   */\n      tag_62\n      jump\t// in\n    tag_202:\n        /* \"#utility.yul\":8481:8547   */\n      swap1\n      pop\n        /* \"#utility.yul\":8411:8553   */\n      swap2\n      swap1\n      pop\n      jump\t// out\n        /* \"#utility.yul\":8559:8634   */\n    tag_93:\n        /* \"#utility.yul\":8602:8605   */\n      0x00\n        /* \"#utility.yul\":8623:8628   */\n      dup2\n        /* \"#utility.yul\":8616:8628   */\n      swap1\n      pop\n        /* \"#utility.yul\":8559:8634   */\n      swap2\n      swap1\n      pop\n      jump\t// out\n        /* \"#utility.yul\":8640:8909   */\n    tag_94:\n        /* \"#utility.yul\":8750:8789   */\n      tag_207\n        /* \"#utility.yul\":8781:8788   */\n      dup4\n        /* \"#utility.yul\":8750:8789   */\n      tag_92\n      jump\t// in\n    tag_207:\n        /* \"#utility.yul\":8811:8902   */\n      tag_208\n        /* \"#utility.yul\":8860:8901   */\n      tag_209\n        /* \"#utility.yul\":8884:8900   */\n      dup3\n        /* \"#utility.yul\":8860:8901   */\n      tag_93\n      jump\t// in\n    tag_209:\n        /* \"#utility.yul\":8852:8858   */\n      dup5\n        /* \"#utility.yul\":8845:8849   */\n      dup5\n        /* \"#utility.yul\":8839:8850   */\n      sload\n        /* \"#utility.yul\":8811:8902   */\n      tag_90\n      jump\t// in\n    tag_208:\n        /* \"#utility.yul\":8805:8809   */\n      dup3\n        /* \"#utility.yul\":8798:8903   */\n      sstore\n        /* \"#utility.yul\":8716:8909   */\n      pop\n        /* \"#utility.yul\":8640:8909   */\n      pop\n      pop\n      pop\n      jump\t// out\n        /* \"#utility.yul\":8915:8988   */\n    tag_95:\n        /* \"#utility.yul\":8960:8963   */\n      0x00\n        /* \"#utility.yul\":8981:8982   */\n      0x00\n        /* \"#utility.yul\":8974:8982   */\n      swap1\n      pop\n        /* \"#utility.yul\":8915:8988   */\n      swap1\n      jump\t// out\n        /* \"#utility.yul\":8994:9183   */\n    tag_96:\n        /* \"#utility.yul\":9071:9103   */\n      tag_212\n      tag_95\n      jump\t// in\n    tag_212:\n        /* \"#utility.yul\":9112:9177   */\n      tag_213\n        /* \"#utility.yul\":9170:9176   */\n      dup2\n        /* \"#utility.yul\":9162:9168   */\n      dup5\n        /* \"#utility.yul\":9156:9160   */\n      dup5\n        /* \"#utility.yul\":9112:9177   */\n      tag_94\n      jump\t// in\n    tag_213:\n        /* \"#utility.yul\":9047:9183   */\n      pop\n        /* \"#utility.yul\":8994:9183   */\n      pop\n      pop\n      jump\t// out\n        /* \"#utility.yul\":9189:9375   */\n    tag_97:\n        /* \"#utility.yul\":9249:9369   */\n    tag_215:\n        /* \"#utility.yul\":9266:9269   */\n      dup2\n        /* \"#utility.yul\":9259:9264   */\n      dup2\n        /* \"#utility.yul\":9256:9270   */\n      lt\n        /* \"#utility.yul\":9249:9369   */\n      iszero\n      tag_217\n      jumpi\n        /* \"#utility.yul\":9320:9359   */\n      tag_218\n        /* \"#utility.yul\":9357:9358   */\n      0x00\n        /* \"#utility.yul\":9350:9355   */\n      dup3\n        /* \"#utility.yul\":9320:9359   */\n      tag_96\n      jump\t// in\n    tag_218:\n        /* \"#utility.yul\":9293:9294   */\n      0x01\n        /* \"#utility.yul\":9286:9291   */\n      dup2\n        /* \"#utility.yul\":9282:9295   */\n      add\n        /* \"#utility.yul\":9273:9295   */\n      swap1\n      pop\n        /* \"#utility.yul\":9249:9369   */\n      jump(tag_215)\n    tag_217:\n        /* \"#utility.yul\":9189:9375   */\n      pop\n      pop\n      jump\t// out\n        /* \"#utility.yul\":9381:9924   */\n    tag_98:\n        /* \"#utility.yul\":9482:9484   */\n      0x1f\n        /* \"#utility.yul\":9477:9480   */\n      dup3\n        /* \"#utility.yul\":9474:9485   */\n      gt\n        /* \"#utility.yul\":9471:9917   */\n      iszero\n      tag_220\n      jumpi\n        /* \"#utility.yul\":9516:9554   */\n      tag_221\n        /* \"#utility.yul\":9548:9553   */\n      dup2\n        /* \"#utility.yul\":9516:9554   */\n      tag_87\n      jump\t// in\n    tag_221:\n        /* \"#utility.yul\":9600:9629   */\n      tag_222\n        /* \"#utility.yul\":9618:9628   */\n      dup5\n        /* \"#utility.yul\":9600:9629   */\n      tag_88\n      jump\t// in\n    tag_222:\n        /* \"#utility.yul\":9590:9598   */\n      dup2\n        /* \"#utility.yul\":9586:9630   */\n      add\n        /* \"#utility.yul\":9783:9785   */\n      0x20\n        /* \"#utility.yul\":9771:9781   */\n      dup6\n        /* \"#utility.yul\":9768:9786   */\n      lt\n        /* \"#utility.yul\":9765:9814   */\n      iszero\n      tag_223\n      jumpi\n        /* \"#utility.yul\":9804:9812   */\n      dup2\n        /* \"#utility.yul\":9789:9812   */\n      swap1\n      pop\n        /* \"#utility.yul\":9765:9814   */\n    tag_223:\n        /* \"#utility.yul\":9827:9907   */\n      tag_224\n        /* \"#utility.yul\":9883:9905   */\n      tag_225\n        /* \"#utility.yul\":9901:9904   */\n      dup6\n        /* \"#utility.yul\":9883:9905   */\n      tag_88\n      jump\t// in\n    tag_225:\n        /* \"#utility.yul\":9873:9881   */\n      dup4\n        /* \"#utility.yul\":9869:9906   */\n      add\n        /* \"#utility.yul\":9856:9867   */\n      dup3\n        /* \"#utility.yul\":9827:9907   */\n      tag_97\n      jump\t// in\n    tag_224:\n        /* \"#utility.yul\":9486:9917   */\n      pop\n      pop\n        /* \"#utility.yul\":9471:9917   */\n    tag_220:\n        /* \"#utility.yul\":9381:9924   */\n      pop\n      pop\n      pop\n      jump\t// out\n        /* \"#utility.yul\":9930:10047   */\n    tag_99:\n        /* \"#utility.yul\":9984:9992   */\n      0x00\n        /* \"#utility.yul\":10034:10039   */\n      dup3\n        /* \"#utility.yul\":10028:10032   */\n      dup3\n        /* \"#utility.yul\":10024:10040   */\n      shr\n        /* \"#utility.yul\":10003:10040   */\n      swap1\n      pop\n        /* \"#utility.yul\":9930:10047   */\n      swap3\n      swap2\n      pop\n      pop\n      jump\t// out\n        /* \"#utility.yul\":10053:10222   */\n    tag_100:\n        /* \"#utility.yul\":10097:10103   */\n      0x00\n        /* \"#utility.yul\":10130:10181   */\n      tag_228\n        /* \"#utility.yul\":10178:10179   */\n      0x00\n        /* \"#utility.yul\":10174:10180   */\n      not\n        /* \"#utility.yul\":10166:10171   */\n      dup5\n        /* \"#utility.yul\":10163:10164   */\n      0x08\n        /* \"#utility.yul\":10159:10172   */\n      mul\n        /* \"#utility.yul\":10130:10181   */\n      tag_99\n      jump\t// in\n    tag_228:\n        /* \"#utility.yul\":10126:10182   */\n      not\n        /* \"#utility.yul\":10211:10215   */\n      dup1\n        /* \"#utility.yul\":10205:10209   */\n      dup4\n        /* \"#utility.yul\":10201:10216   */\n      and\n        /* \"#utility.yul\":10191:10216   */\n      swap2\n      pop\n        /* \"#utility.yul\":10104:10222   */\n      pop\n        /* \"#utility.yul\":10053:10222   */\n      swap3\n      swap2\n      pop\n      pop\n      jump\t// out\n        /* \"#utility.yul\":10227:10522   */\n    tag_101:\n        /* \"#utility.yul\":10303:10307   */\n      0x00\n        /* \"#utility.yul\":10449:10478   */\n      tag_230\n        /* \"#utility.yul\":10474:10477   */\n      dup4\n        /* \"#utility.yul\":10468:10472   */\n      dup4\n        /* \"#utility.yul\":10449:10478   */\n      tag_100\n      jump\t// in\n    tag_230:\n        /* \"#utility.yul\":10441:10478   */\n      swap2\n      pop\n        /* \"#utility.yul\":10511:10514   */\n      dup3\n        /* \"#utility.yul\":10508:10509   */\n      0x02\n        /* \"#utility.yul\":10504:10515   */\n      mul\n        /* \"#utility.yul\":10498:10502   */\n      dup3\n        /* \"#utility.yul\":10495:10516   */\n      or\n        /* \"#utility.yul\":10487:10516   */\n      swap1\n      pop\n        /* \"#utility.yul\":10227:10522   */\n      swap3\n      swap2\n      pop\n      pop\n      jump\t// out\n        /* \"#utility.yul\":10527:11922   */\n    tag_56:\n        /* \"#utility.yul\":10644:10681   */\n      tag_232\n        /* \"#utility.yul\":10677:10680   */\n      dup3\n        /* \"#utility.yul\":10644:10681   */\n      tag_84\n      jump\t// in\n    tag_232:\n        /* \"#utility.yul\":10746:10764   */\n      0xffffffffffffffff\n        /* \"#utility.yul\":10738:10744   */\n      dup2\n        /* \"#utility.yul\":10735:10765   */\n      gt\n        /* \"#utility.yul\":10732:10788   */\n      iszero\n      tag_233\n      jumpi\n        /* \"#utility.yul\":10768:10786   */\n      tag_234\n      tag_76\n      jump\t// in\n    tag_234:\n        /* \"#utility.yul\":10732:10788   */\n    tag_233:\n        /* \"#utility.yul\":10812:10850   */\n      tag_235\n        /* \"#utility.yul\":10844:10848   */\n      dup3\n        /* \"#utility.yul\":10838:10849   */\n      sload\n        /* \"#utility.yul\":10812:10850   */\n      tag_86\n      jump\t// in\n    tag_235:\n        /* \"#utility.yul\":10897:10964   */\n      tag_236\n        /* \"#utility.yul\":10957:10963   */\n      dup3\n        /* \"#utility.yul\":10949:10955   */\n      dup3\n        /* \"#utility.yul\":10943:10947   */\n      dup6\n        /* \"#utility.yul\":10897:10964   */\n      tag_98\n      jump\t// in\n    tag_236:\n        /* \"#utility.yul\":10991:10992   */\n      0x00\n        /* \"#utility.yul\":11015:11019   */\n      0x20\n        /* \"#utility.yul\":11002:11019   */\n      swap1\n      pop\n        /* \"#utility.yul\":11047:11049   */\n      0x1f\n        /* \"#utility.yul\":11039:11045   */\n      dup4\n        /* \"#utility.yul\":11036:11050   */\n      gt\n        /* \"#utility.yul\":11064:11065   */\n      0x01\n        /* \"#utility.yul\":11059:11677   */\n      dup2\n      eq\n      tag_238\n      jumpi\n        /* \"#utility.yul\":11721:11722   */\n      0x00\n        /* \"#utility.yul\":11738:11744   */\n      dup5\n        /* \"#utility.yul\":11735:11812   */\n      iszero\n      tag_239\n      jumpi\n        /* \"#utility.yul\":11787:11796   */\n      dup3\n        /* \"#utility.yul\":11782:11785   */\n      dup8\n        /* \"#utility.yul\":11778:11797   */\n      add\n        /* \"#utility.yul\":11772:11798   */\n      mload\n        /* \"#utility.yul\":11763:11798   */\n      swap1\n      pop\n        /* \"#utility.yul\":11735:11812   */\n    tag_239:\n        /* \"#utility.yul\":11838:11905   */\n      tag_240\n        /* \"#utility.yul\":11898:11904   */\n      dup6\n        /* \"#utility.yul\":11891:11896   */\n      dup3\n        /* \"#utility.yul\":11838:11905   */\n      tag_101\n      jump\t// in\n    tag_240:\n        /* \"#utility.yul\":11832:11836   */\n      dup7\n        /* \"#utility.yul\":11825:11906   */\n      sstore\n        /* \"#utility.yul\":11694:11916   */\n      pop\n        /* \"#utility.yul\":11029:11916   */\n      jump(tag_237)\n        /* \"#utility.yul\":11059:11677   */\n    tag_238:\n        /* \"#utility.yul\":11111:11115   */\n      0x1f\n        /* \"#utility.yul\":11107:11116   */\n      not\n        /* \"#utility.yul\":11099:11105   */\n      dup5\n        /* \"#utility.yul\":11095:11117   */\n      and\n        /* \"#utility.yul\":11145:11182   */\n      tag_241\n        /* \"#utility.yul\":11177:11181   */\n      dup7\n        /* \"#utility.yul\":11145:11182   */\n      tag_87\n      jump\t// in\n    tag_241:\n        /* \"#utility.yul\":11204:11205   */\n      0x00\n        /* \"#utility.yul\":11218:11426   */\n    tag_242:\n        /* \"#utility.yul\":11232:11239   */\n      dup3\n        /* \"#utility.yul\":11229:11230   */\n      dup2\n        /* \"#utility.yul\":11226:11240   */\n      lt\n        /* \"#utility.yul\":11218:11426   */\n      iszero\n      tag_244\n      jumpi\n        /* \"#utility.yul\":11311:11320   */\n      dup5\n        /* \"#utility.yul\":11306:11309   */\n      dup10\n        /* \"#utility.yul\":11302:11321   */\n      add\n        /* \"#utility.yul\":11296:11322   */\n      mload\n        /* \"#utility.yul\":11288:11294   */\n      dup3\n        /* \"#utility.yul\":11281:11323   */\n      sstore\n        /* \"#utility.yul\":11362:11363   */\n      0x01\n        /* \"#utility.yul\":11354:11360   */\n      dup3\n        /* \"#utility.yul\":11350:11364   */\n      add\n        /* \"#utility.yul\":11340:11364   */\n      swap2\n      pop\n        /* \"#utility.yul\":11409:11411   */\n      0x20\n        /* \"#utility.yul\":11398:11407   */\n      dup6\n        /* \"#utility.yul\":11394:11412   */\n      add\n        /* \"#utility.yul\":11381:11412   */\n      swap5\n      pop\n        /* \"#utility.yul\":11255:11259   */\n      0x20\n        /* \"#utility.yul\":11252:11253   */\n      dup2\n        /* \"#utility.yul\":11248:11260   */\n      add\n        /* \"#utility.yul\":11243:11260   */\n      swap1\n      pop\n        /* \"#utility.yul\":11218:11426   */\n      jump(tag_242)\n    tag_244:\n        /* \"#utility.yul\":11454:11460   */\n      dup7\n        /* \"#utility.yul\":11445:11452   */\n      dup4\n        /* \"#utility.yul\":11442:11461   */\n      lt\n        /* \"#utility.yul\":11439:11618   */\n      iszero\n      tag_245\n      jumpi\n        /* \"#utility.yul\":11512:11521   */\n      dup5\n        /* \"#utility.yul\":11507:11510   */\n      dup10\n        /* \"#utility.yul\":11503:11522   */\n      add\n        /* \"#utility.yul\":11497:11523   */\n      mload\n        /* \"#utility.yul\":11555:11603   */\n      tag_246\n        /* \"#utility.yul\":11597:11601   */\n      0x1f\n        /* \"#utility.yul\":11589:11595   */\n      dup10\n        /* \"#utility.yul\":11585:11602   */\n      and\n        /* \"#utility.yul\":11574:11583   */\n      dup3\n        /* \"#utility.yul\":11555:11603   */\n      tag_100\n      jump\t// in\n    tag_246:\n        /* \"#utility.yul\":11547:11553   */\n      dup4\n        /* \"#utility.yul\":11540:11604   */\n      sstore\n        /* \"#utility.yul\":11462:11618   */\n      pop\n        /* \"#utility.yul\":11439:11618   */\n    tag_245:\n        /* \"#utility.yul\":11664:11665   */\n      0x01\n        /* \"#utility.yul\":11660:11661   */\n      0x02\n        /* \"#utility.yul\":11652:11658   */\n      dup9\n        /* \"#utility.yul\":11648:11662   */\n      mul\n        /* \"#utility.yul\":11644:11666   */\n      add\n        /* \"#utility.yul\":11638:11642   */\n      dup9\n        /* \"#utility.yul\":11631:11667   */\n      sstore\n        /* \"#utility.yul\":11066:11677   */\n      pop\n      pop\n      pop\n        /* \"#utility.yul\":11029:11916   */\n    tag_237:\n      pop\n        /* \"#utility.yul\":10619:11922   */\n      pop\n      pop\n      pop\n        /* \"#utility.yul\":10527:11922   */\n      pop\n      pop\n      jump\t// out\n        /* \"#utility.yul\":11928:12097   */\n    tag_102:\n        /* \"#utility.yul\":12012:12023   */\n      0x00\n        /* \"#utility.yul\":12046:12052   */\n      dup3\n        /* \"#utility.yul\":12041:12044   */\n      dup3\n        /* \"#utility.yul\":12034:12053   */\n      mstore\n        /* \"#utility.yul\":12086:12090   */\n      0x20\n        /* \"#utility.yul\":12081:12084   */\n      dup3\n        /* \"#utility.yul\":12077:12091   */\n      add\n        /* \"#utility.yul\":12062:12091   */\n      swap1\n      pop\n        /* \"#utility.yul\":11928:12097   */\n      swap3\n      swap2\n      pop\n      pop\n      jump\t// out\n        /* \"#utility.yul\":12103:12242   */\n    tag_103:\n        /* \"#utility.yul\":12192:12198   */\n      dup3\n        /* \"#utility.yul\":12187:12190   */\n      dup2\n        /* \"#utility.yul\":12182:12185   */\n      dup4\n        /* \"#utility.yul\":12176:12199   */\n      mcopy\n        /* \"#utility.yul\":12233:12234   */\n      0x00\n        /* \"#utility.yul\":12224:12230   */\n      dup4\n        /* \"#utility.yul\":12219:12222   */\n      dup4\n        /* \"#utility.yul\":12215:12231   */\n      add\n        /* \"#utility.yul\":12208:12235   */\n      mstore\n        /* \"#utility.yul\":12103:12242   */\n      pop\n      pop\n      pop\n      jump\t// out\n        /* \"#utility.yul\":12248:12625   */\n    tag_104:\n        /* \"#utility.yul\":12336:12339   */\n      0x00\n        /* \"#utility.yul\":12364:12403   */\n      tag_250\n        /* \"#utility.yul\":12397:12402   */\n      dup3\n        /* \"#utility.yul\":12364:12403   */\n      tag_84\n      jump\t// in\n    tag_250:\n        /* \"#utility.yul\":12419:12490   */\n      tag_251\n        /* \"#utility.yul\":12483:12489   */\n      dup2\n        /* \"#utility.yul\":12478:12481   */\n      dup6\n        /* \"#utility.yul\":12419:12490   */\n      tag_102\n      jump\t// in\n    tag_251:\n        /* \"#utility.yul\":12412:12490   */\n      swap4\n      pop\n        /* \"#utility.yul\":12499:12564   */\n      tag_252\n        /* \"#utility.yul\":12557:12563   */\n      dup2\n        /* \"#utility.yul\":12552:12555   */\n      dup6\n        /* \"#utility.yul\":12545:12549   */\n      0x20\n        /* \"#utility.yul\":12538:12543   */\n      dup7\n        /* \"#utility.yul\":12534:12550   */\n      add\n        /* \"#utility.yul\":12499:12564   */\n      tag_103\n      jump\t// in\n    tag_252:\n        /* \"#utility.yul\":12589:12618   */\n      tag_253\n        /* \"#utility.yul\":12611:12617   */\n      dup2\n        /* \"#utility.yul\":12589:12618   */\n      tag_75\n      jump\t// in\n    tag_253:\n        /* \"#utility.yul\":12584:12587   */\n      dup5\n        /* \"#utility.yul\":12580:12619   */\n      add\n        /* \"#utility.yul\":12573:12619   */\n      swap2\n      pop\n        /* \"#utility.yul\":12340:12625   */\n      pop\n        /* \"#utility.yul\":12248:12625   */\n      swap3\n      swap2\n      pop\n      pop\n      jump\t// out\n        /* \"#utility.yul\":12631:13054   */\n    tag_58:\n        /* \"#utility.yul\":12772:12776   */\n      0x00\n        /* \"#utility.yul\":12810:12812   */\n      0x40\n        /* \"#utility.yul\":12799:12808   */\n      dup3\n        /* \"#utility.yul\":12795:12813   */\n      add\n        /* \"#utility.yul\":12787:12813   */\n      swap1\n      pop\n        /* \"#utility.yul\":12859:12868   */\n      dup2\n        /* \"#utility.yul\":12853:12857   */\n      dup2\n        /* \"#utility.yul\":12849:12869   */\n      sub\n        /* \"#utility.yul\":12845:12846   */\n      0x00\n        /* \"#utility.yul\":12834:12843   */\n      dup4\n        /* \"#utility.yul\":12830:12847   */\n      add\n        /* \"#utility.yul\":12823:12870   */\n      mstore\n        /* \"#utility.yul\":12887:12965   */\n      tag_255\n        /* \"#utility.yul\":12960:12964   */\n      dup2\n        /* \"#utility.yul\":12951:12957   */\n      dup6\n        /* \"#utility.yul\":12887:12965   */\n      tag_104\n      jump\t// in\n    tag_255:\n        /* \"#utility.yul\":12879:12965   */\n      swap1\n      pop\n        /* \"#utility.yul\":12975:13047   */\n      tag_256\n        /* \"#utility.yul\":13043:13045   */\n      0x20\n        /* \"#utility.yul\":13032:13041   */\n      dup4\n        /* \"#utility.yul\":13028:13046   */\n      add\n        /* \"#utility.yul\":13019:13025   */\n      dup5\n        /* \"#utility.yul\":12975:13047   */\n      tag_71\n      jump\t// in\n    tag_256:\n        /* \"#utility.yul\":12631:13054   */\n      swap4\n      swap3\n      pop\n      pop\n      pop\n      jump\t// out\n\n    auxdata: 0xa2646970667358221220d20390100021f46378f12436838351cb9eed4dd021d06e2fb5ca1e9c5037cd9364736f6c634300081e0033\n}\n",
				"bytecode": {
					"linkReferences": {},
					"object": "608060405234801561000f575f5ffd5b505f6001819055505f67ffffffffffffffff8111156100315761003061011c565b5b60405190808252806020026020018201604052801561005f5781602001602082028036833780820191505090505b505f908051906020019061007492919061007a565b50610149565b828054828255905f5260205f209081019282156100f0579160200282015b828111156100ef578251825f6101000a81548173ffffffffffffffffffffffffffffffffffffffff021916908373ffffffffffffffffffffffffffffffffffffffff16021790555091602001919060010190610098565b5b5090506100fd9190610101565b5090565b5b80821115610118575f815f905550600101610102565b5090565b7f4e487b71000000000000000000000000000000000000000000000000000000005f52604160045260245ffd5b610b8f806101565f395ff3fe608060405234801561000f575f5ffd5b5060043610610060575f3560e01c806322d616d21461006457806349d2692114610094578063803863fb146100c45780638457a66a146100e2578063bb33ce7114610112578063c4cdb57514610130575b5f5ffd5b61007e60048036038101906100799190610457565b610160565b60405161008b91906104af565b60405180910390f35b6100ae60048036038101906100a99190610522565b610184565b6040516100bb919061055c565b60405180910390f35b6100cc610199565b6040516100d9919061055c565b60405180910390f35b6100fc60048036038101906100f79190610575565b61019f565b60405161010991906105af565b60405180910390f35b61011a6101d9565b60405161012791906104af565b60405180910390f35b61014a60048036038101906101459190610704565b6102d6565b60405161015791906104af565b60405180910390f35b5f8160035f8581526020019081526020015f20600401819055506001905092915050565b6002602052805f5260405f205f915090505481565b60015481565b5f81815481106101ad575f80fd5b905f5260205f20015f915054906101000a900473ffffffffffffffffffffffffffffffffffffffff1681565b5f5f5f90505b5f8054905081101561026e573373ffffffffffffffffffffffffffffffffffffffff165f82815481106102155761021461075e565b5b905f5260205f20015f9054906101000a900473ffffffffffffffffffffffffffffffffffffffff1673ffffffffffffffffffffffffffffffffffffffff1603610261575f9150506102d3565b80806001019150506101df565b505f33908060018154018082558091505060019003905f5260205f20015f9091909190916101000a81548173ffffffffffffffffffffffffffffffffffffffff021916908373ffffffffffffffffffffffffffffffffffffffff160217905550600190505b90565b5f60015f80549050116102eb575f905061040d565b5f60015f8154809291906102fe906107b8565b9190505590506040518060a001604052808281526020013373ffffffffffffffffffffffffffffffffffffffff1681526020018581526020018481526020015f81525060035f8381526020019081526020015f205f820151815f01556020820151816001015f6101000a81548173ffffffffffffffffffffffffffffffffffffffff021916908373ffffffffffffffffffffffffffffffffffffffff16021790555060408201518160020190816103b59190610a06565b506060820151816003015560808201518160040155905050807fff720fe3c931d07ee2cb53614d5790d5e186f7e2a84ed6aa4ad335a4f896e46a85856040516103ff929190610b2b565b60405180910390a260019150505b92915050565b5f604051905090565b5f5ffd5b5f5ffd5b5f819050919050565b61043681610424565b8114610440575f5ffd5b50565b5f813590506104518161042d565b92915050565b5f5f6040838503121561046d5761046c61041c565b5b5f61047a85828601610443565b925050602061048b85828601610443565b9150509250929050565b5f8115159050919050565b6104a981610495565b82525050565b5f6020820190506104c25f8301846104a0565b92915050565b5f73ffffffffffffffffffffffffffffffffffffffff82169050919050565b5f6104f1826104c8565b9050919050565b610501816104e7565b811461050b575f5ffd5b50565b5f8135905061051c816104f8565b92915050565b5f602082840312156105375761053661041c565b5b5f6105448482850161050e565b91505092915050565b61055681610424565b82525050565b5f60208201905061056f5f83018461054d565b92915050565b5f6020828403121561058a5761058961041c565b5b5f61059784828501610443565b91505092915050565b6105a9816104e7565b82525050565b5f6020820190506105c25f8301846105a0565b92915050565b5f5ffd5b5f5ffd5b5f601f19601f8301169050919050565b7f4e487b71000000000000000000000000000000000000000000000000000000005f52604160045260245ffd5b610616826105d0565b810181811067ffffffffffffffff82111715610635576106346105e0565b5b80604052505050565b5f610647610413565b9050610653828261060d565b919050565b5f67ffffffffffffffff821115610672576106716105e0565b5b61067b826105d0565b9050602081019050919050565b828183375f83830152505050565b5f6106a86106a384610658565b61063e565b9050828152602081018484840111156106c4576106c36105cc565b5b6106cf848285610688565b509392505050565b5f82601f8301126106eb576106ea6105c8565b5b81356106fb848260208601610696565b91505092915050565b5f5f6040838503121561071a5761071961041c565b5b5f83013567ffffffffffffffff81111561073757610736610420565b5b610743858286016106d7565b925050602061075485828601610443565b9150509250929050565b7f4e487b71000000000000000000000000000000000000000000000000000000005f52603260045260245ffd5b7f4e487b71000000000000000000000000000000000000000000000000000000005f52601160045260245ffd5b5f6107c282610424565b91507fffffffffffffffffffffffffffffffffffffffffffffffffffffffffffffffff82036107f4576107f361078b565b5b600182019050919050565b5f81519050919050565b7f4e487b71000000000000000000000000000000000000000000000000000000005f52602260045260245ffd5b5f600282049050600182168061084d57607f821691505b6020821081036108605761085f610809565b5b50919050565b5f819050815f5260205f209050919050565b5f6020601f8301049050919050565b5f82821b905092915050565b5f600883026108c27fffffffffffffffffffffffffffffffffffffffffffffffffffffffffffffffff82610887565b6108cc8683610887565b95508019841693508086168417925050509392505050565b5f819050919050565b5f6109076109026108fd84610424565b6108e4565b610424565b9050919050565b5f819050919050565b610920836108ed565b61093461092c8261090e565b848454610893565b825550505050565b5f5f905090565b61094b61093c565b610956818484610917565b505050565b5b818110156109795761096e5f82610943565b60018101905061095c565b5050565b601f8211156109be5761098f81610866565b61099884610878565b810160208510156109a7578190505b6109bb6109b385610878565b83018261095b565b50505b505050565b5f82821c905092915050565b5f6109de5f19846008026109c3565b1980831691505092915050565b5f6109f683836109cf565b9150826002028217905092915050565b610a0f826107ff565b67ffffffffffffffff811115610a2857610a276105e0565b5b610a328254610836565b610a3d82828561097d565b5f60209050601f831160018114610a6e575f8415610a5c578287015190505b610a6685826109eb565b865550610acd565b601f198416610a7c86610866565b5f5b82811015610aa357848901518255600182019150602085019450602081019050610a7e565b86831015610ac05784890151610abc601f8916826109cf565b8355505b6001600288020188555050505b505050505050565b5f82825260208201905092915050565b8281835e5f83830152505050565b5f610afd826107ff565b610b078185610ad5565b9350610b17818560208601610ae5565b610b20816105d0565b840191505092915050565b5f6040820190508181035f830152610b438185610af3565b9050610b52602083018461054d565b939250505056fea2646970667358221220d20390100021f46378f12436838351cb9eed4dd021d06e2fb5ca1e9c5037cd9364736f6c634300081e0033",
					"opcodes": "PUSH1 0x80 PUSH1 0x40 MSTORE CALLVALUE DUP1 ISZERO PUSH2 0xF JUMPI PUSH0 PUSH0 REVERT JUMPDEST POP PUSH0 PUSH1 0x1 DUP2 SWAP1 SSTORE POP PUSH0 PUSH8 0xFFFFFFFFFFFFFFFF DUP2 GT ISZERO PUSH2 0x31 JUMPI PUSH2 0x30 PUSH2 0x11C JUMP JUMPDEST JUMPDEST PUSH1 0x40 MLOAD SWAP1 DUP1 DUP3 MSTORE DUP1 PUSH1 0x20 MUL PUSH1 0x20 ADD DUP3 ADD PUSH1 0x40 MSTORE DUP1 ISZERO PUSH2 0x5F JUMPI DUP2 PUSH1 0x20 ADD PUSH1 0x20 DUP3 MUL DUP1 CALLDATASIZE DUP4 CALLDATACOPY DUP1 DUP3 ADD SWAP2 POP POP SWAP1 POP JUMPDEST POP PUSH0 SWAP1 DUP1 MLOAD SWAP1 PUSH1 0x20 ADD SWAP1 PUSH2 0x74 SWAP3 SWAP2 SWAP1 PUSH2 0x7A JUMP JUMPDEST POP PUSH2 0x149 JUMP JUMPDEST DUP3 DUP1 SLOAD DUP3 DUP3 SSTORE SWAP1 PUSH0 MSTORE PUSH1 0x20 PUSH0 KECCAK256 SWAP1 DUP2 ADD SWAP3 DUP3 ISZERO PUSH2 0xF0 JUMPI SWAP2 PUSH1 0x20 MUL DUP3 ADD JUMPDEST DUP3 DUP2 GT ISZERO PUSH2 0xEF JUMPI DUP3 MLOAD DUP3 PUSH0 PUSH2 0x100 EXP DUP2 SLOAD DUP2 PUSH20 0xFFFFFFFFFFFFFFFFFFFFFFFFFFFFFFFFFFFFFFFF MUL NOT AND SWAP1 DUP4 PUSH20 0xFFFFFFFFFFFFFFFFFFFFFFFFFFFFFFFFFFFFFFFF AND MUL OR SWAP1 SSTORE POP SWAP2 PUSH1 0x20 ADD SWAP2 SWAP1 PUSH1 0x1 ADD SWAP1 PUSH2 0x98 JUMP JUMPDEST JUMPDEST POP SWAP1 POP PUSH2 0xFD SWAP2 SWAP1 PUSH2 0x101 JUMP JUMPDEST POP SWAP1 JUMP JUMPDEST JUMPDEST DUP1 DUP3 GT ISZERO PUSH2 0x118 JUMPI PUSH0 DUP2 PUSH0 SWAP1 SSTORE POP PUSH1 0x1 ADD PUSH2 0x102 JUMP JUMPDEST POP SWAP1 JUMP JUMPDEST PUSH32 0x4E487B7100000000000000000000000000000000000000000000000000000000 PUSH0 MSTORE PUSH1 0x41 PUSH1 0x4 MSTORE PUSH1 0x24 PUSH0 REVERT JUMPDEST PUSH2 0xB8F DUP1 PUSH2 0x156 PUSH0 CODECOPY PUSH0 RETURN INVALID PUSH1 0x80 PUSH1 0x40 MSTORE CALLVALUE DUP1 ISZERO PUSH2 0xF JUMPI PUSH0 PUSH0 REVERT JUMPDEST POP PUSH1 0x4 CALLDATASIZE LT PUSH2 0x60 JUMPI PUSH0 CALLDATALOAD PUSH1 0xE0 SHR DUP1 PUSH4 0x22D616D2 EQ PUSH2 0x64 JUMPI DUP1 PUSH4 0x49D26921 EQ PUSH2 0x94 JUMPI DUP1 PUSH4 0x803863FB EQ PUSH2 0xC4 JUMPI DUP1 PUSH4 0x8457A66A EQ PUSH2 0xE2 JUMPI DUP1 PUSH4 0xBB33CE71 EQ PUSH2 0x112 JUMPI DUP1 PUSH4 0xC4CDB575 EQ PUSH2 0x130 JUMPI JUMPDEST PUSH0 PUSH0 REVERT JUMPDEST PUSH2 0x7E PUSH1 0x4 DUP1 CALLDATASIZE SUB DUP2 ADD SWAP1 PUSH2 0x79 SWAP2 SWAP1 PUSH2 0x457 JUMP JUMPDEST PUSH2 0x160 JUMP JUMPDEST PUSH1 0x40 MLOAD PUSH2 0x8B SWAP2 SWAP1 PUSH2 0x4AF JUMP JUMPDEST PUSH1 0x40 MLOAD DUP1 SWAP2 SUB SWAP1 RETURN JUMPDEST PUSH2 0xAE PUSH1 0x4 DUP1 CALLDATASIZE SUB DUP2 ADD SWAP1 PUSH2 0xA9 SWAP2 SWAP1 PUSH2 0x522 JUMP JUMPDEST PUSH2 0x184 JUMP JUMPDEST PUSH1 0x40 MLOAD PUSH2 0xBB SWAP2 SWAP1 PUSH2 0x55C JUMP JUMPDEST PUSH1 0x40 MLOAD DUP1 SWAP2 SUB SWAP1 RETURN JUMPDEST PUSH2 0xCC PUSH2 0x199 JUMP JUMPDEST PUSH1 0x40 MLOAD PUSH2 0xD9 SWAP2 SWAP1 PUSH2 0x55C JUMP JUMPDEST PUSH1 0x40 MLOAD DUP1 SWAP2 SUB SWAP1 RETURN JUMPDEST PUSH2 0xFC PUSH1 0x4 DUP1 CALLDATASIZE SUB DUP2 ADD SWAP1 PUSH2 0xF7 SWAP2 SWAP1 PUSH2 0x575 JUMP JUMPDEST PUSH2 0x19F JUMP JUMPDEST PUSH1 0x40 MLOAD PUSH2 0x109 SWAP2 SWAP1 PUSH2 0x5AF JUMP JUMPDEST PUSH1 0x40 MLOAD DUP1 SWAP2 SUB SWAP1 RETURN JUMPDEST PUSH2 0x11A PUSH2 0x1D9 JUMP JUMPDEST PUSH1 0x40 MLOAD PUSH2 0x127 SWAP2 SWAP1 PUSH2 0x4AF JUMP JUMPDEST PUSH1 0x40 MLOAD DUP1 SWAP2 SUB SWAP1 RETURN JUMPDEST PUSH2 0x14A PUSH1 0x4 DUP1 CALLDATASIZE SUB DUP2 ADD SWAP1 PUSH2 0x145 SWAP2 SWAP1 PUSH2 0x704 JUMP JUMPDEST PUSH2 0x2D6 JUMP JUMPDEST PUSH1 0x40 MLOAD PUSH2 0x157 SWAP2 SWAP1 PUSH2 0x4AF JUMP JUMPDEST PUSH1 0x40 MLOAD DUP1 SWAP2 SUB SWAP1 RETURN JUMPDEST PUSH0 DUP2 PUSH1 0x3 PUSH0 DUP6 DUP2 MSTORE PUSH1 0x20 ADD SWAP1 DUP2 MSTORE PUSH1 0x20 ADD PUSH0 KECCAK256 PUSH1 0x4 ADD DUP2 SWAP1 SSTORE POP PUSH1 0x1 SWAP1 POP SWAP3 SWAP2 POP POP JUMP JUMPDEST PUSH1 0x2 PUSH1 0x20 MSTORE DUP1 PUSH0 MSTORE PUSH1 0x40 PUSH0 KECCAK256 PUSH0 SWAP2 POP SWAP1 POP SLOAD DUP2 JUMP JUMPDEST PUSH1 0x1 SLOAD DUP2 JUMP JUMPDEST PUSH0 DUP2 DUP2 SLOAD DUP2 LT PUSH2 0x1AD JUMPI PUSH0 DUP1 REVERT JUMPDEST SWAP1 PUSH0 MSTORE PUSH1 0x20 PUSH0 KECCAK256 ADD PUSH0 SWAP2 POP SLOAD SWAP1 PUSH2 0x100 EXP SWAP1 DIV PUSH20 0xFFFFFFFFFFFFFFFFFFFFFFFFFFFFFFFFFFFFFFFF AND DUP2 JUMP JUMPDEST PUSH0 PUSH0 PUSH0 SWAP1 POP JUMPDEST PUSH0 DUP1 SLOAD SWAP1 POP DUP2 LT ISZERO PUSH2 0x26E JUMPI CALLER PUSH20 0xFFFFFFFFFFFFFFFFFFFFFFFFFFFFFFFFFFFFFFFF AND PUSH0 DUP3 DUP2 SLOAD DUP2 LT PUSH2 0x215 JUMPI PUSH2 0x214 PUSH2 0x75E JUMP JUMPDEST JUMPDEST SWAP1 PUSH0 MSTORE PUSH1 0x20 PUSH0 KECCAK256 ADD PUSH0 SWAP1 SLOAD SWAP1 PUSH2 0x100 EXP SWAP1 DIV PUSH20 0xFFFFFFFFFFFFFFFFFFFFFFFFFFFFFFFFFFFFFFFF AND PUSH20 0xFFFFFFFFFFFFFFFFFFFFFFFFFFFFFFFFFFFFFFFF AND SUB PUSH2 0x261 JUMPI PUSH0 SWAP2 POP POP PUSH2 0x2D3 JUMP JUMPDEST DUP1 DUP1 PUSH1 0x1 ADD SWAP2 POP POP PUSH2 0x1DF JUMP JUMPDEST POP PUSH0 CALLER SWAP1 DUP1 PUSH1 0x1 DUP2 SLOAD ADD DUP1 DUP3 SSTORE DUP1 SWAP2 POP POP PUSH1 0x1 SWAP1 SUB SWAP1 PUSH0 MSTORE PUSH1 0x20 PUSH0 KECCAK256 ADD PUSH0 SWAP1 SWAP2 SWAP1 SWAP2 SWAP1 SWAP2 PUSH2 0x100 EXP DUP2 SLOAD DUP2 PUSH20 0xFFFFFFFFFFFFFFFFFFFFFFFFFFFFFFFFFFFFFFFF MUL NOT AND SWAP1 DUP4 PUSH20 0xFFFFFFFFFFFFFFFFFFFFFFFFFFFFFFFFFFFFFFFF AND MUL OR SWAP1 SSTORE POP PUSH1 0x1 SWAP1 POP JUMPDEST SWAP1 JUMP JUMPDEST PUSH0 PUSH1 0x1 PUSH0 DUP1 SLOAD SWAP1 POP GT PUSH2 0x2EB JUMPI PUSH0 SWAP1 POP PUSH2 0x40D JUMP JUMPDEST PUSH0 PUSH1 0x1 PUSH0 DUP2 SLOAD DUP1 SWAP3 SWAP2 SWAP1 PUSH2 0x2FE SWAP1 PUSH2 0x7B8 JUMP JUMPDEST SWAP2 SWAP1 POP SSTORE SWAP1 POP PUSH1 0x40 MLOAD DUP1 PUSH1 0xA0 ADD PUSH1 0x40 MSTORE DUP1 DUP3 DUP2 MSTORE PUSH1 0x20 ADD CALLER PUSH20 0xFFFFFFFFFFFFFFFFFFFFFFFFFFFFFFFFFFFFFFFF AND DUP2 MSTORE PUSH1 0x20 ADD DUP6 DUP2 MSTORE PUSH1 0x20 ADD DUP5 DUP2 MSTORE PUSH1 0x20 ADD PUSH0 DUP2 MSTORE POP PUSH1 0x3 PUSH0 DUP4 DUP2 MSTORE PUSH1 0x20 ADD SWAP1 DUP2 MSTORE PUSH1 0x20 ADD PUSH0 KECCAK256 PUSH0 DUP3 ADD MLOAD DUP2 PUSH0 ADD SSTORE PUSH1 0x20 DUP3 ADD MLOAD DUP2 PUSH1 0x1 ADD PUSH0 PUSH2 0x100 EXP DUP2 SLOAD DUP2 PUSH20 0xFFFFFFFFFFFFFFFFFFFFFFFFFFFFFFFFFFFFFFFF MUL NOT AND SWAP1 DUP4 PUSH20 0xFFFFFFFFFFFFFFFFFFFFFFFFFFFFFFFFFFFFFFFF AND MUL OR SWAP1 SSTORE POP PUSH1 0x40 DUP3 ADD MLOAD DUP2 PUSH1 0x2 ADD SWAP1 DUP2 PUSH2 0x3B5 SWAP2 SWAP1 PUSH2 0xA06 JUMP JUMPDEST POP PUSH1 0x60 DUP3 ADD MLOAD DUP2 PUSH1 0x3 ADD SSTORE PUSH1 0x80 DUP3 ADD MLOAD DUP2 PUSH1 0x4 ADD SSTORE SWAP1 POP POP DUP1 PUSH32 0xFF720FE3C931D07EE2CB53614D5790D5E186F7E2A84ED6AA4AD335A4F896E46A DUP6 DUP6 PUSH1 0x40 MLOAD PUSH2 0x3FF SWAP3 SWAP2 SWAP1 PUSH2 0xB2B JUMP JUMPDEST PUSH1 0x40 MLOAD DUP1 SWAP2 SUB SWAP1 LOG2 PUSH1 0x1 SWAP2 POP POP JUMPDEST SWAP3 SWAP2 POP POP JUMP JUMPDEST PUSH0 PUSH1 0x40 MLOAD SWAP1 POP SWAP1 JUMP JUMPDEST PUSH0 PUSH0 REVERT JUMPDEST PUSH0 PUSH0 REVERT JUMPDEST PUSH0 DUP2 SWAP1 POP SWAP2 SWAP1 POP JUMP JUMPDEST PUSH2 0x436 DUP2 PUSH2 0x424 JUMP JUMPDEST DUP2 EQ PUSH2 0x440 JUMPI PUSH0 PUSH0 REVERT JUMPDEST POP JUMP JUMPDEST PUSH0 DUP2 CALLDATALOAD SWAP1 POP PUSH2 0x451 DUP2 PUSH2 0x42D JUMP JUMPDEST SWAP3 SWAP2 POP POP JUMP JUMPDEST PUSH0 PUSH0 PUSH1 0x40 DUP4 DUP6 SUB SLT ISZERO PUSH2 0x46D JUMPI PUSH2 0x46C PUSH2 0x41C JUMP JUMPDEST JUMPDEST PUSH0 PUSH2 0x47A DUP6 DUP3 DUP7 ADD PUSH2 0x443 JUMP JUMPDEST SWAP3 POP POP PUSH1 0x20 PUSH2 0x48B DUP6 DUP3 DUP7 ADD PUSH2 0x443 JUMP JUMPDEST SWAP2 POP POP SWAP3 POP SWAP3 SWAP1 POP JUMP JUMPDEST PUSH0 DUP2 ISZERO ISZERO SWAP1 POP SWAP2 SWAP1 POP JUMP JUMPDEST PUSH2 0x4A9 DUP2 PUSH2 0x495 JUMP JUMPDEST DUP3 MSTORE POP POP JUMP JUMPDEST PUSH0 PUSH1 0x20 DUP3 ADD SWAP1 POP PUSH2 0x4C2 PUSH0 DUP4 ADD DUP5 PUSH2 0x4A0 JUMP JUMPDEST SWAP3 SWAP2 POP POP JUMP JUMPDEST PUSH0 PUSH20 0xFFFFFFFFFFFFFFFFFFFFFFFFFFFFFFFFFFFFFFFF DUP3 AND SWAP1 POP SWAP2 SWAP1 POP JUMP JUMPDEST PUSH0 PUSH2 0x4F1 DUP3 PUSH2 0x4C8 JUMP JUMPDEST SWAP1 POP SWAP2 SWAP1 POP JUMP JUMPDEST PUSH2 0x501 DUP2 PUSH2 0x4E7 JUMP JUMPDEST DUP2 EQ PUSH2 0x50B JUMPI PUSH0 PUSH0 REVERT JUMPDEST POP JUMP JUMPDEST PUSH0 DUP2 CALLDATALOAD SWAP1 POP PUSH2 0x51C DUP2 PUSH2 0x4F8 JUMP JUMPDEST SWAP3 SWAP2 POP POP JUMP JUMPDEST PUSH0 PUSH1 0x20 DUP3 DUP5 SUB SLT ISZERO PUSH2 0x537 JUMPI PUSH2 0x536 PUSH2 0x41C JUMP JUMPDEST JUMPDEST PUSH0 PUSH2 0x544 DUP5 DUP3 DUP6 ADD PUSH2 0x50E JUMP JUMPDEST SWAP2 POP POP SWAP3 SWAP2 POP POP JUMP JUMPDEST PUSH2 0x556 DUP2 PUSH2 0x424 JUMP JUMPDEST DUP3 MSTORE POP POP JUMP JUMPDEST PUSH0 PUSH1 0x20 DUP3 ADD SWAP1 POP PUSH2 0x56F PUSH0 DUP4 ADD DUP5 PUSH2 0x54D JUMP JUMPDEST SWAP3 SWAP2 POP POP JUMP JUMPDEST PUSH0 PUSH1 0x20 DUP3 DUP5 SUB SLT ISZERO PUSH2 0x58A JUMPI PUSH2 0x589 PUSH2 0x41C JUMP JUMPDEST JUMPDEST PUSH0 PUSH2 0x597 DUP5 DUP3 DUP6 ADD PUSH2 0x443 JUMP JUMPDEST SWAP2 POP POP SWAP3 SWAP2 POP POP JUMP JUMPDEST PUSH2 0x5A9 DUP2 PUSH2 0x4E7 JUMP JUMPDEST DUP3 MSTORE POP POP JUMP JUMPDEST PUSH0 PUSH1 0x20 DUP3 ADD SWAP1 POP PUSH2 0x5C2 PUSH0 DUP4 ADD DUP5 PUSH2 0x5A0 JUMP JUMPDEST SWAP3 SWAP2 POP POP JUMP JUMPDEST PUSH0 PUSH0 REVERT JUMPDEST PUSH0 PUSH0 REVERT JUMPDEST PUSH0 PUSH1 0x1F NOT PUSH1 0x1F DUP4 ADD AND SWAP1 POP SWAP2 SWAP1 POP JUMP JUMPDEST PUSH32 0x4E487B7100000000000000000000000000000000000000000000000000000000 PUSH0 MSTORE PUSH1 0x41 PUSH1 0x4 MSTORE PUSH1 0x24 PUSH0 REVERT JUMPDEST PUSH2 0x616 DUP3 PUSH2 0x5D0 JUMP JUMPDEST DUP2 ADD DUP2 DUP2 LT PUSH8 0xFFFFFFFFFFFFFFFF DUP3 GT OR ISZERO PUSH2 0x635 JUMPI PUSH2 0x634 PUSH2 0x5E0 JUMP JUMPDEST JUMPDEST DUP1 PUSH1 0x40 MSTORE POP POP POP JUMP JUMPDEST PUSH0 PUSH2 0x647 PUSH2 0x413 JUMP JUMPDEST SWAP1 POP PUSH2 0x653 DUP3 DUP3 PUSH2 0x60D JUMP JUMPDEST SWAP2 SWAP1 POP JUMP JUMPDEST PUSH0 PUSH8 0xFFFFFFFFFFFFFFFF DUP3 GT ISZERO PUSH2 0x672 JUMPI PUSH2 0x671 PUSH2 0x5E0 JUMP JUMPDEST JUMPDEST PUSH2 0x67B DUP3 PUSH2 0x5D0 JUMP JUMPDEST SWAP1 POP PUSH1 0x20 DUP2 ADD SWAP1 POP SWAP2 SWAP1 POP JUMP JUMPDEST DUP3 DUP2 DUP4 CALLDATACOPY PUSH0 DUP4 DUP4 ADD MSTORE POP POP POP JUMP JUMPDEST PUSH0 PUSH2 0x6A8 PUSH2 0x6A3 DUP5 PUSH2 0x658 JUMP JUMPDEST PUSH2 0x63E JUMP JUMPDEST SWAP1 POP DUP3 DUP2 MSTORE PUSH1 0x20 DUP2 ADD DUP5 DUP5 DUP5 ADD GT ISZERO PUSH2 0x6C4 JUMPI PUSH2 0x6C3 PUSH2 0x5CC JUMP JUMPDEST JUMPDEST PUSH2 0x6CF DUP5 DUP3 DUP6 PUSH2 0x688 JUMP JUMPDEST POP SWAP4 SWAP3 POP POP POP JUMP JUMPDEST PUSH0 DUP3 PUSH1 0x1F DUP4 ADD SLT PUSH2 0x6EB JUMPI PUSH2 0x6EA PUSH2 0x5C8 JUMP JUMPDEST JUMPDEST DUP2 CALLDATALOAD PUSH2 0x6FB DUP5 DUP3 PUSH1 0x20 DUP7 ADD PUSH2 0x696 JUMP JUMPDEST SWAP2 POP POP SWAP3 SWAP2 POP POP JUMP JUMPDEST PUSH0 PUSH0 PUSH1 0x40 DUP4 DUP6 SUB SLT ISZERO PUSH2 0x71A JUMPI PUSH2 0x719 PUSH2 0x41C JUMP JUMPDEST JUMPDEST PUSH0 DUP4 ADD CALLDATALOAD PUSH8 0xFFFFFFFFFFFFFFFF DUP2 GT ISZERO PUSH2 0x737 JUMPI PUSH2 0x736 PUSH2 0x420 JUMP JUMPDEST JUMPDEST PUSH2 0x743 DUP6 DUP3 DUP7 ADD PUSH2 0x6D7 JUMP JUMPDEST SWAP3 POP POP PUSH1 0x20 PUSH2 0x754 DUP6 DUP3 DUP7 ADD PUSH2 0x443 JUMP JUMPDEST SWAP2 POP POP SWAP3 POP SWAP3 SWAP1 POP JUMP JUMPDEST PUSH32 0x4E487B7100000000000000000000000000000000000000000000000000000000 PUSH0 MSTORE PUSH1 0x32 PUSH1 0x4 MSTORE PUSH1 0x24 PUSH0 REVERT JUMPDEST PUSH32 0x4E487B7100000000000000000000000000000000000000000000000000000000 PUSH0 MSTORE PUSH1 0x11 PUSH1 0x4 MSTORE PUSH1 0x24 PUSH0 REVERT JUMPDEST PUSH0 PUSH2 0x7C2 DUP3 PUSH2 0x424 JUMP JUMPDEST SWAP2 POP PUSH32 0xFFFFFFFFFFFFFFFFFFFFFFFFFFFFFFFFFFFFFFFFFFFFFFFFFFFFFFFFFFFFFFFF DUP3 SUB PUSH2 0x7F4 JUMPI PUSH2 0x7F3 PUSH2 0x78B JUMP JUMPDEST JUMPDEST PUSH1 0x1 DUP3 ADD SWAP1 POP SWAP2 SWAP1 POP JUMP JUMPDEST PUSH0 DUP2 MLOAD SWAP1 POP SWAP2 SWAP1 POP JUMP JUMPDEST PUSH32 0x4E487B7100000000000000000000000000000000000000000000000000000000 PUSH0 MSTORE PUSH1 0x22 PUSH1 0x4 MSTORE PUSH1 0x24 PUSH0 REVERT JUMPDEST PUSH0 PUSH1 0x2 DUP3 DIV SWAP1 POP PUSH1 0x1 DUP3 AND DUP1 PUSH2 0x84D JUMPI PUSH1 0x7F DUP3 AND SWAP2 POP JUMPDEST PUSH1 0x20 DUP3 LT DUP2 SUB PUSH2 0x860 JUMPI PUSH2 0x85F PUSH2 0x809 JUMP JUMPDEST JUMPDEST POP SWAP2 SWAP1 POP JUMP JUMPDEST PUSH0 DUP2 SWAP1 POP DUP2 PUSH0 MSTORE PUSH1 0x20 PUSH0 KECCAK256 SWAP1 POP SWAP2 SWAP1 POP JUMP JUMPDEST PUSH0 PUSH1 0x20 PUSH1 0x1F DUP4 ADD DIV SWAP1 POP SWAP2 SWAP1 POP JUMP JUMPDEST PUSH0 DUP3 DUP3 SHL SWAP1 POP SWAP3 SWAP2 POP POP JUMP JUMPDEST PUSH0 PUSH1 0x8 DUP4 MUL PUSH2 0x8C2 PUSH32 0xFFFFFFFFFFFFFFFFFFFFFFFFFFFFFFFFFFFFFFFFFFFFFFFFFFFFFFFFFFFFFFFF DUP3 PUSH2 0x887 JUMP JUMPDEST PUSH2 0x8CC DUP7 DUP4 PUSH2 0x887 JUMP JUMPDEST SWAP6 POP DUP1 NOT DUP5 AND SWAP4 POP DUP1 DUP7 AND DUP5 OR SWAP3 POP POP POP SWAP4 SWAP3 POP POP POP JUMP JUMPDEST PUSH0 DUP2 SWAP1 POP SWAP2 SWAP1 POP JUMP JUMPDEST PUSH0 PUSH2 0x907 PUSH2 0x902 PUSH2 0x8FD DUP5 PUSH2 0x424 JUMP JUMPDEST PUSH2 0x8E4 JUMP JUMPDEST PUSH2 0x424 JUMP JUMPDEST SWAP1 POP SWAP2 SWAP1 POP JUMP JUMPDEST PUSH0 DUP2 SWAP1 POP SWAP2 SWAP1 POP JUMP JUMPDEST PUSH2 0x920 DUP4 PUSH2 0x8ED JUMP JUMPDEST PUSH2 0x934 PUSH2 0x92C DUP3 PUSH2 0x90E JUMP JUMPDEST DUP5 DUP5 SLOAD PUSH2 0x893 JUMP JUMPDEST DUP3 SSTORE POP POP POP POP JUMP JUMPDEST PUSH0 PUSH0 SWAP1 POP SWAP1 JUMP JUMPDEST PUSH2 0x94B PUSH2 0x93C JUMP JUMPDEST PUSH2 0x956 DUP2 DUP5 DUP5 PUSH2 0x917 JUMP JUMPDEST POP POP POP JUMP JUMPDEST JUMPDEST DUP2 DUP2 LT ISZERO PUSH2 0x979 JUMPI PUSH2 0x96E PUSH0 DUP3 PUSH2 0x943 JUMP JUMPDEST PUSH1 0x1 DUP2 ADD SWAP1 POP PUSH2 0x95C JUMP JUMPDEST POP POP JUMP JUMPDEST PUSH1 0x1F DUP3 GT ISZERO PUSH2 0x9BE JUMPI PUSH2 0x98F DUP2 PUSH2 0x866 JUMP JUMPDEST PUSH2 0x998 DUP5 PUSH2 0x878 JUMP JUMPDEST DUP2 ADD PUSH1 0x20 DUP6 LT ISZERO PUSH2 0x9A7 JUMPI DUP2 SWAP1 POP JUMPDEST PUSH2 0x9BB PUSH2 0x9B3 DUP6 PUSH2 0x878 JUMP JUMPDEST DUP4 ADD DUP3 PUSH2 0x95B JUMP JUMPDEST POP POP JUMPDEST POP POP POP JUMP JUMPDEST PUSH0 DUP3 DUP3 SHR SWAP1 POP SWAP3 SWAP2 POP POP JUMP JUMPDEST PUSH0 PUSH2 0x9DE PUSH0 NOT DUP5 PUSH1 0x8 MUL PUSH2 0x9C3 JUMP JUMPDEST NOT DUP1 DUP4 AND SWAP2 POP POP SWAP3 SWAP2 POP POP JUMP JUMPDEST PUSH0 PUSH2 0x9F6 DUP4 DUP4 PUSH2 0x9CF JUMP JUMPDEST SWAP2 POP DUP3 PUSH1 0x2 MUL DUP3 OR SWAP1 POP SWAP3 SWAP2 POP POP JUMP JUMPDEST PUSH2 0xA0F DUP3 PUSH2 0x7FF JUMP JUMPDEST PUSH8 0xFFFFFFFFFFFFFFFF DUP2 GT ISZERO PUSH2 0xA28 JUMPI PUSH2 0xA27 PUSH2 0x5E0 JUMP JUMPDEST JUMPDEST PUSH2 0xA32 DUP3 SLOAD PUSH2 0x836 JUMP JUMPDEST PUSH2 0xA3D DUP3 DUP3 DUP6 PUSH2 0x97D JUMP JUMPDEST PUSH0 PUSH1 0x20 SWAP1 POP PUSH1 0x1F DUP4 GT PUSH1 0x1 DUP2 EQ PUSH2 0xA6E JUMPI PUSH0 DUP5 ISZERO PUSH2 0xA5C JUMPI DUP3 DUP8 ADD MLOAD SWAP1 POP JUMPDEST PUSH2 0xA66 DUP6 DUP3 PUSH2 0x9EB JUMP JUMPDEST DUP7 SSTORE POP PUSH2 0xACD JUMP JUMPDEST PUSH1 0x1F NOT DUP5 AND PUSH2 0xA7C DUP7 PUSH2 0x866 JUMP JUMPDEST PUSH0 JUMPDEST DUP3 DUP2 LT ISZERO PUSH2 0xAA3 JUMPI DUP5 DUP10 ADD MLOAD DUP3 SSTORE PUSH1 0x1 DUP3 ADD SWAP2 POP PUSH1 0x20 DUP6 ADD SWAP5 POP PUSH1 0x20 DUP2 ADD SWAP1 POP PUSH2 0xA7E JUMP JUMPDEST DUP7 DUP4 LT ISZERO PUSH2 0xAC0 JUMPI DUP5 DUP10 ADD MLOAD PUSH2 0xABC PUSH1 0x1F DUP10 AND DUP3 PUSH2 0x9CF JUMP JUMPDEST DUP4 SSTORE POP JUMPDEST PUSH1 0x1 PUSH1 0x2 DUP9 MUL ADD DUP9 SSTORE POP POP POP JUMPDEST POP POP POP POP POP POP JUMP JUMPDEST PUSH0 DUP3 DUP3 MSTORE PUSH1 0x20 DUP3 ADD SWAP1 POP SWAP3 SWAP2 POP POP JUMP JUMPDEST DUP3 DUP2 DUP4 MCOPY PUSH0 DUP4 DUP4 ADD MSTORE POP POP POP JUMP JUMPDEST PUSH0 PUSH2 0xAFD DUP3 PUSH2 0x7FF JUMP JUMPDEST PUSH2 0xB07 DUP2 DUP6 PUSH2 0xAD5 JUMP JUMPDEST SWAP4 POP PUSH2 0xB17 DUP2 DUP6 PUSH1 0x20 DUP7 ADD PUSH2 0xAE5 JUMP JUMPDEST PUSH2 0xB20 DUP2 PUSH2 0x5D0 JUMP JUMPDEST DUP5 ADD SWAP2 POP POP SWAP3 SWAP2 POP POP JUMP JUMPDEST PUSH0 PUSH1 0x40 DUP3 ADD SWAP1 POP DUP2 DUP2 SUB PUSH0 DUP4 ADD MSTORE PUSH2 0xB43 DUP2 DUP6 PUSH2 0xAF3 JUMP JUMPDEST SWAP1 POP PUSH2 0xB52 PUSH1 0x20 DUP4 ADD DUP5 PUSH2 0x54D JUMP JUMPDEST SWAP4 SWAP3 POP POP POP JUMP INVALID LOG2 PUSH5 0x6970667358 0x22 SLT KECCAK256 0xD2 SUB SWAP1 LT STOP 0x21 DELEGATECALL PUSH4 0x78F12436 DUP4 DUP4 MLOAD 0xCB SWAP15 0xED 0x4D 0xD0 0x21 0xD0 PUSH15 0x2FB5CA1E9C5037CD9364736F6C6343 STOP ADDMOD 0x1E STOP CALLER "
				},
				"gasEstimates": {
					"creation": {
						"codeDepositCost": "591800",
						"executionCost": "infinite",
						"totalCost": "infinite"
					},
					"external": {
						"fufillReqEvent(uint256,uint256)": "infinite",
						"nodeStackBalance(address)": "2802",
						"oracleAddressList(uint256)": "4987",
						"registerOracleNode()": "infinite",
						"requestForMsg(string,uint256)": "infinite",
						"totalRequestNum()": "2447"
					}
				},
				"methodIdentifiers": {
					"fufillReqEvent(uint256,uint256)": "22d616d2",
					"nodeStackBalance(address)": "49d26921",
					"oracleAddressList(uint256)": "8457a66a",
					"registerOracleNode()": "bb33ce71",
					"requestForMsg(string,uint256)": "c4cdb575",
					"totalRequestNum()": "803863fb"
				}
			},
			"storageLayout": {
				"storage": [
					{
						"astId": 39,
						"contract": "link.sol:CHAINLINK",
						"label": "oracleAddressList",
						"offset": 0,
						"slot": "0",
						"type": "t_array(t_address)dyn_storage"
					},
					{
						"astId": 41,
						"contract": "link.sol:CHAINLINK",
						"label": "totalRequestNum",
						"offset": 0,
						"slot": "1",
						"type": "t_uint256"
					},
					{
						"astId": 45,
						"contract": "link.sol:CHAINLINK",
						"label": "nodeStackBalance",
						"offset": 0,
						"slot": "2",
						"type": "t_mapping(t_address,t_uint256)"
					},
					{
						"astId": 50,
						"contract": "link.sol:CHAINLINK",
						"label": "requestMap",
						"offset": 0,
						"slot": "3",
						"type": "t_mapping(t_uint256,t_struct(RequestBody)20_storage)"
					}
				],
				"types": {
					"t_address": {
						"encoding": "inplace",
						"label": "address",
						"numberOfBytes": "20"
					},
					"t_array(t_address)dyn_storage": {
						"base": "t_address",
						"encoding": "dynamic_array",
						"label": "address[]",
						"numberOfBytes": "32"
					},
					"t_mapping(t_address,t_uint256)": {
						"encoding": "mapping",
						"key": "t_address",
						"label": "mapping(address => uint256)",
						"numberOfBytes": "32",
						"value": "t_uint256"
					},
					"t_mapping(t_uint256,t_struct(RequestBody)20_storage)": {
						"encoding": "mapping",
						"key": "t_uint256",
						"label": "mapping(uint256 => struct CHAINLINK.RequestBody)",
						"numberOfBytes": "32",
						"value": "t_struct(RequestBody)20_storage"
					},
					"t_string_storage": {
						"encoding": "bytes",
						"label": "string",
						"numberOfBytes": "32"
					},
					"t_struct(RequestBody)20_storage": {
						"encoding": "inplace",
						"label": "struct CHAINLINK.RequestBody",
						"members": [
							{
								"astId": 11,
								"contract": "link.sol:CHAINLINK",
								"label": "id",
								"offset": 0,
								"slot": "0",
								"type": "t_uint256"
							},
							{
								"astId": 13,
								"contract": "link.sol:CHAINLINK",
								"label": "requester",
								"offset": 0,
								"slot": "1",
								"type": "t_address"
							},
							{
								"astId": 15,
								"contract": "link.sol:CHAINLINK",
								"label": "url",
								"offset": 0,
								"slot": "2",
								"type": "t_string_storage"
							},
							{
								"astId": 17,
								"contract": "link.sol:CHAINLINK",
								"label": "Fee",
								"offset": 0,
								"slot": "3",
								"type": "t_uint256"
							},
							{
								"astId": 19,
								"contract": "link.sol:CHAINLINK",
								"label": "Res",
								"offset": 0,
								"slot": "4",
								"type": "t_uint256"
							}
						],
						"numberOfBytes": "160"
					},
					"t_uint256": {
						"encoding": "inplace",
						"label": "uint256",
						"numberOfBytes": "32"
					}
				}
			},
			"userdoc": {
				"kind": "user",
				"methods": {},
				"version": 1
			}
		}
	}
}