{
	"main.sol": {
		"CHAINLINK": {
			"abi": [
				{
					"inputs": [],
					"stateMutability": "nonpayable",
					"type": "constructor"
				},
				{
					"anonymous": false,
					"inputs": [
						{
							"indexed": true,
							"internalType": "uint256",
							"name": "requestID",
							"type": "uint256"
						},
						{
							"indexed": false,
							"internalType": "address[]",
							"name": "node_list",
							"type": "address[]"
						},
						{
							"indexed": false,
							"internalType": "enum CHAINLINK.jobType",
							"name": "job_type",
							"type": "uint8"
						},
						{
							"indexed": false,
							"internalType": "string",
							"name": "url",
							"type": "string"
						},
						{
							"indexed": false,
							"internalType": "uint256",
							"name": "fee",
							"type": "uint256"
						}
					],
					"name": "oracleRequestEvent",
					"type": "event"
				},
				{
					"anonymous": false,
					"inputs": [
						{
							"indexed": true,
							"internalType": "uint256",
							"name": "requestID",
							"type": "uint256"
						},
						{
							"indexed": false,
							"internalType": "string",
							"name": "result",
							"type": "string"
						},
						{
							"indexed": false,
							"internalType": "uint256",
							"name": "nodeID",
							"type": "uint256"
						}
					],
					"name": "requestFulfulledEvent",
					"type": "event"
				},
				{
					"inputs": [],
					"name": "LIMIT_FEE_PRICE",
					"outputs": [
						{
							"internalType": "uint256",
							"name": "",
							"type": "uint256"
						}
					],
					"stateMutability": "view",
					"type": "function"
				},
				{
					"inputs": [],
					"name": "LIMIT_STAKE_NUM",
					"outputs": [
						{
							"internalType": "uint256",
							"name": "",
							"type": "uint256"
						}
					],
					"stateMutability": "view",
					"type": "function"
				},
				{
					"inputs": [],
					"name": "MAX_SEARCH_NUM",
					"outputs": [
						{
							"internalType": "uint256",
							"name": "",
							"type": "uint256"
						}
					],
					"stateMutability": "view",
					"type": "function"
				},
				{
					"inputs": [
						{
							"internalType": "uint256",
							"name": "id",
							"type": "uint256"
						},
						{
							"internalType": "uint256",
							"name": "result",
							"type": "uint256"
						}
					],
					"name": "fufillReqEvent",
					"outputs": [
						{
							"internalType": "bool",
							"name": "",
							"type": "bool"
						}
					],
					"stateMutability": "nonpayable",
					"type": "function"
				},
				{
					"inputs": [
						{
							"internalType": "uint256",
							"name": "",
							"type": "uint256"
						}
					],
					"name": "oracleAddressList",
					"outputs": [
						{
							"internalType": "address",
							"name": "",
							"type": "address"
						}
					],
					"stateMutability": "view",
					"type": "function"
				},
				{
					"inputs": [
						{
							"internalType": "address",
							"name": "",
							"type": "address"
						},
						{
							"internalType": "uint256",
							"name": "",
							"type": "uint256"
						}
					],
					"name": "oracleNodeJobType",
					"outputs": [
						{
							"internalType": "enum CHAINLINK.jobType",
							"name": "",
							"type": "uint8"
						}
					],
					"stateMutability": "view",
					"type": "function"
				},
				{
					"inputs": [
						{
							"internalType": "enum CHAINLINK.jobType[]",
							"name": "job_type_list",
							"type": "uint8[]"
						}
					],
					"name": "registerOracleNode",
					"outputs": [
						{
							"internalType": "bool",
							"name": "",
							"type": "bool"
						}
					],
					"stateMutability": "nonpayable",
					"type": "function"
				},
				{
					"inputs": [
						{
							"internalType": "string",
							"name": "url",
							"type": "string"
						},
						{
							"internalType": "enum CHAINLINK.jobType",
							"name": "jobtype",
							"type": "uint8"
						},
						{
							"internalType": "uint256",
							"name": "fee",
							"type": "uint256"
						}
					],
					"name": "requestForMsg",
					"outputs": [
						{
							"internalType": "bool",
							"name": "",
							"type": "bool"
						}
					],
					"stateMutability": "nonpayable",
					"type": "function"
				},
				{
					"inputs": [],
					"name": "totalRequestNum",
					"outputs": [
						{
							"internalType": "uint256",
							"name": "",
							"type": "uint256"
						}
					],
					"stateMutability": "view",
					"type": "function"
				},
				{
					"inputs": [
						{
							"internalType": "address",
							"name": "",
							"type": "address"
						}
					],
					"name": "userBalances",
					"outputs": [
						{
							"internalType": "uint256",
							"name": "",
							"type": "uint256"
						}
					],
					"stateMutability": "view",
					"type": "function"
				}
			],
			"devdoc": {
				"kind": "dev",
				"methods": {},
				"version": 1
			},
			"evm": {
				"assembly": "    /* \"main.sol\":152:5340  contract CHAINLINK {... */\n  mstore(0x40, 0x80)\n    /* \"main.sol\":1121:1217  constructor() {... */\n  callvalue\n  dup1\n  iszero\n  tag_1\n  jumpi\n  revert(0x00, 0x00)\ntag_1:\n  pop\n    /* \"main.sol\":1163:1164  0 */\n  0x00\n    /* \"main.sol\":1145:1160  totalRequestNum */\n  0x02\n    /* \"main.sol\":1145:1164  totalRequestNum = 0 */\n  dup2\n  swap1\n  sstore\n  pop\n    /* \"main.sol\":1208:1209  0 */\n  0x00\n    /* \"main.sol\":1194:1210  new address[](0) */\n  0xffffffffffffffff\n  dup2\n  gt\n  iszero\n  tag_4\n  jumpi\n  tag_5\n  tag_6\n  jump\t// in\ntag_5:\ntag_4:\n  mload(0x40)\n  swap1\n  dup1\n  dup3\n  mstore\n  dup1\n  0x20\n  mul\n  0x20\n  add\n  dup3\n  add\n  0x40\n  mstore\n  dup1\n  iszero\n  tag_7\n  jumpi\n  dup2\n  0x20\n  add\n  0x20\n  dup3\n  mul\n  dup1\n  calldatasize\n  dup4\n  calldatacopy\n  dup1\n  dup3\n  add\n  swap2\n  pop\n  pop\n  swap1\n  pop\ntag_7:\n  pop\n    /* \"main.sol\":1174:1191  oracleAddressList */\n  0x01\n    /* \"main.sol\":1174:1210  oracleAddressList = new address[](0) */\n  swap1\n  dup1\n  mload\n  swap1\n  0x20\n  add\n  swap1\n  tag_8\n  swap3\n  swap2\n  swap1\n  tag_9\n  jump\t// in\ntag_8:\n  pop\n    /* \"main.sol\":152:5340  contract CHAINLINK {... */\n  jump(tag_10)\ntag_9:\n  dup3\n  dup1\n  sload\n  dup3\n  dup3\n  sstore\n  swap1\n  0x00\n  mstore\n  keccak256(0x00, 0x20)\n  swap1\n  dup2\n  add\n  swap3\n  dup3\n  iszero\n  tag_11\n  jumpi\n  swap2\n  0x20\n  mul\n  dup3\n  add\ntag_12:\n  dup3\n  dup2\n  gt\n  iszero\n  tag_13\n  jumpi\n  dup3\n  mload\n  dup3\n  exp(0x0100, 0x00)\n  dup2\n  sload\n  dup2\n  0xffffffffffffffffffffffffffffffffffffffff\n  mul\n  not\n  and\n  swap1\n  dup4\n  0xffffffffffffffffffffffffffffffffffffffff\n  and\n  mul\n  or\n  swap1\n  sstore\n  pop\n  swap2\n  0x20\n  add\n  swap2\n  swap1\n  0x01\n  add\n  swap1\n  jump(tag_12)\ntag_13:\ntag_11:\n  pop\n  swap1\n  pop\n  tag_14\n  swap2\n  swap1\n  tag_15\n  jump\t// in\ntag_14:\n  pop\n  swap1\n  jump\t// out\ntag_15:\ntag_16:\n  dup1\n  dup3\n  gt\n  iszero\n  tag_17\n  jumpi\n  0x00\n  dup2\n  0x00\n  swap1\n  sstore\n  pop\n  0x01\n  add\n  jump(tag_16)\ntag_17:\n  pop\n  swap1\n  jump\t// out\n    /* \"#utility.yul\":7:187   */\ntag_6:\n    /* \"#utility.yul\":55:132   */\n  0x4e487b7100000000000000000000000000000000000000000000000000000000\n    /* \"#utility.yul\":52:53   */\n  0x00\n    /* \"#utility.yul\":45:133   */\n  mstore\n    /* \"#utility.yul\":152:156   */\n  0x41\n    /* \"#utility.yul\":149:150   */\n  0x04\n    /* \"#utility.yul\":142:157   */\n  mstore\n    /* \"#utility.yul\":176:180   */\n  0x24\n    /* \"#utility.yul\":173:174   */\n  0x00\n    /* \"#utility.yul\":166:181   */\n  revert\n    /* \"main.sol\":152:5340  contract CHAINLINK {... */\ntag_10:\n  dataSize(sub_0)\n  dup1\n  dataOffset(sub_0)\n  0x00\n  codecopy\n  0x00\n  return\nstop\n\nsub_0: assembly {\n        /* \"main.sol\":152:5340  contract CHAINLINK {... */\n      mstore(0x40, 0x80)\n      callvalue\n      dup1\n      iszero\n      tag_1\n      jumpi\n      revert(0x00, 0x00)\n    tag_1:\n      pop\n      jumpi(tag_2, lt(calldatasize, 0x04))\n      shr(0xe0, calldataload(0x00))\n      dup1\n      0x803863fb\n      gt\n      tag_13\n      jumpi\n      dup1\n      0x803863fb\n      eq\n      tag_8\n      jumpi\n      dup1\n      0x8457a66a\n      eq\n      tag_9\n      jumpi\n      dup1\n      0xd3155d16\n      eq\n      tag_10\n      jumpi\n      dup1\n      0xd9514950\n      eq\n      tag_11\n      jumpi\n      dup1\n      0xe92626ae\n      eq\n      tag_12\n      jumpi\n      jump(tag_2)\n    tag_13:\n      dup1\n      0x22d616d2\n      eq\n      tag_3\n      jumpi\n      dup1\n      0x26224c64\n      eq\n      tag_4\n      jumpi\n      dup1\n      0x2690eac4\n      eq\n      tag_5\n      jumpi\n      dup1\n      0x3063c634\n      eq\n      tag_6\n      jumpi\n      dup1\n      0x3210243e\n      eq\n      tag_7\n      jumpi\n    tag_2:\n      revert(0x00, 0x00)\n        /* \"main.sol\":4319:5338  function fufillReqEvent(uint256 id, uint256 result) public returns (bool) {... */\n    tag_3:\n      tag_14\n      0x04\n      dup1\n      calldatasize\n      sub\n      dup2\n      add\n      swap1\n      tag_15\n      swap2\n      swap1\n      tag_16\n      jump\t// in\n    tag_15:\n      tag_17\n      jump\t// in\n    tag_14:\n      mload(0x40)\n      tag_18\n      swap2\n      swap1\n      tag_19\n      jump\t// in\n    tag_18:\n      mload(0x40)\n      dup1\n      swap2\n      sub\n      swap1\n      return\n        /* \"main.sol\":868:915  mapping(address => uint256) public userBalances */\n    tag_4:\n      tag_20\n      0x04\n      dup1\n      calldatasize\n      sub\n      dup2\n      add\n      swap1\n      tag_21\n      swap2\n      swap1\n      tag_22\n      jump\t// in\n    tag_21:\n      tag_23\n      jump\t// in\n    tag_20:\n      mload(0x40)\n      tag_24\n      swap2\n      swap1\n      tag_25\n      jump\t// in\n    tag_24:\n      mload(0x40)\n      dup1\n      swap2\n      sub\n      swap1\n      return\n        /* \"main.sol\":730:784  mapping(address => jobType[]) public oracleNodeJobType */\n    tag_5:\n      tag_26\n      0x04\n      dup1\n      calldatasize\n      sub\n      dup2\n      add\n      swap1\n      tag_27\n      swap2\n      swap1\n      tag_28\n      jump\t// in\n    tag_27:\n      tag_29\n      jump\t// in\n    tag_26:\n      mload(0x40)\n      tag_30\n      swap2\n      swap1\n      tag_31\n      jump\t// in\n    tag_30:\n      mload(0x40)\n      dup1\n      swap2\n      sub\n      swap1\n      return\n        /* \"main.sol\":2880:3738  function requestForMsg(... */\n    tag_6:\n      tag_32\n      0x04\n      dup1\n      calldatasize\n      sub\n      dup2\n      add\n      swap1\n      tag_33\n      swap2\n      swap1\n      tag_34\n      jump\t// in\n    tag_33:\n      tag_35\n      jump\t// in\n    tag_32:\n      mload(0x40)\n      tag_36\n      swap2\n      swap1\n      tag_19\n      jump\t// in\n    tag_36:\n      mload(0x40)\n      dup1\n      swap2\n      sub\n      swap1\n      return\n        /* \"main.sol\":971:1015  uint256 public constant LIMIT_STAKE_NUM = 80 */\n    tag_7:\n      tag_37\n      tag_38\n      jump\t// in\n    tag_37:\n      mload(0x40)\n      tag_39\n      swap2\n      swap1\n      tag_25\n      jump\t// in\n    tag_39:\n      mload(0x40)\n      dup1\n      swap2\n      sub\n      swap1\n      return\n        /* \"main.sol\":831:861  uint256 public totalRequestNum */\n    tag_8:\n      tag_40\n      tag_41\n      jump\t// in\n    tag_40:\n      mload(0x40)\n      tag_42\n      swap2\n      swap1\n      tag_25\n      jump\t// in\n    tag_42:\n      mload(0x40)\n      dup1\n      swap2\n      sub\n      swap1\n      return\n        /* \"main.sol\":791:825  address[] public oracleAddressList */\n    tag_9:\n      tag_43\n      0x04\n      dup1\n      calldatasize\n      sub\n      dup2\n      add\n      swap1\n      tag_44\n      swap2\n      swap1\n      tag_45\n      jump\t// in\n    tag_44:\n      tag_46\n      jump\t// in\n    tag_43:\n      mload(0x40)\n      tag_47\n      swap2\n      swap1\n      tag_48\n      jump\t// in\n    tag_47:\n      mload(0x40)\n      dup1\n      swap2\n      sub\n      swap1\n      return\n        /* \"main.sol\":1021:1064  uint256 public constant MAX_SEARCH_NUM = 10 */\n    tag_10:\n      tag_49\n      tag_50\n      jump\t// in\n    tag_49:\n      mload(0x40)\n      tag_51\n      swap2\n      swap1\n      tag_25\n      jump\t// in\n    tag_51:\n      mload(0x40)\n      dup1\n      swap2\n      sub\n      swap1\n      return\n        /* \"main.sol\":1258:1604  function registerOracleNode(jobType[] memory job_type_list) public returns (bool) {... */\n    tag_11:\n      tag_52\n      0x04\n      dup1\n      calldatasize\n      sub\n      dup2\n      add\n      swap1\n      tag_53\n      swap2\n      swap1\n      tag_54\n      jump\t// in\n    tag_53:\n      tag_55\n      jump\t// in\n    tag_52:\n      mload(0x40)\n      tag_56\n      swap2\n      swap1\n      tag_19\n      jump\t// in\n    tag_56:\n      mload(0x40)\n      dup1\n      swap2\n      sub\n      swap1\n      return\n        /* \"main.sol\":1070:1114  uint256 public constant LIMIT_FEE_PRICE = 10 */\n    tag_12:\n      tag_57\n      tag_58\n      jump\t// in\n    tag_57:\n      mload(0x40)\n      tag_59\n      swap2\n      swap1\n      tag_25\n      jump\t// in\n    tag_59:\n      mload(0x40)\n      dup1\n      swap2\n      sub\n      swap1\n      return\n        /* \"main.sol\":4319:5338  function fufillReqEvent(uint256 id, uint256 result) public returns (bool) {... */\n    tag_17:\n        /* \"main.sol\":4387:4391  bool */\n      0x00\n        /* \"main.sol\":4407:4434  isInReqList(id, msg.sender) */\n      tag_61\n        /* \"main.sol\":4419:4421  id */\n      dup4\n        /* \"main.sol\":4423:4433  msg.sender */\n      caller\n        /* \"main.sol\":4407:4418  isInReqList */\n      tag_62\n        /* \"main.sol\":4407:4434  isInReqList(id, msg.sender) */\n      jump\t// in\n    tag_61:\n        /* \"main.sol\":4403:4473  if (isInReqList(id, msg.sender)) {... */\n      iszero\n      tag_63\n      jumpi\n        /* \"main.sol\":4457:4462  false */\n      0x00\n        /* \"main.sol\":4450:4462  return false */\n      swap1\n      pop\n      jump(tag_60)\n        /* \"main.sol\":4403:4473  if (isInReqList(id, msg.sender)) {... */\n    tag_63:\n        /* \"main.sol\":4482:4493  uint256 num */\n      0x00\n        /* \"main.sol\":4496:4507  requestList */\n      0x04\n        /* \"main.sol\":4496:4511  requestList[id] */\n      0x00\n        /* \"main.sol\":4508:4510  id */\n      dup6\n        /* \"main.sol\":4496:4511  requestList[id] */\n      dup2\n      mstore\n      0x20\n      add\n      swap1\n      dup2\n      mstore\n      0x20\n      add\n      0x00\n      keccak256\n        /* \"main.sol\":4496:4520  requestList[id].givenNum */\n      0x07\n      add\n      sload\n        /* \"main.sol\":4482:4520  uint256 num = requestList[id].givenNum */\n      swap1\n      pop\n        /* \"main.sol\":4563:4569  result */\n      dup3\n        /* \"main.sol\":4530:4541  requestList */\n      0x04\n        /* \"main.sol\":4530:4545  requestList[id] */\n      0x00\n        /* \"main.sol\":4542:4544  id */\n      dup7\n        /* \"main.sol\":4530:4545  requestList[id] */\n      dup2\n      mstore\n      0x20\n      add\n      swap1\n      dup2\n      mstore\n      0x20\n      add\n      0x00\n      keccak256\n        /* \"main.sol\":4530:4555  requestList[id].searchRes */\n      0x05\n      add\n        /* \"main.sol\":4556:4559  num */\n      dup3\n        /* \"main.sol\":4530:4560  requestList[id].searchRes[num] */\n      dup2\n      sload\n      dup2\n      lt\n      tag_64\n      jumpi\n      tag_65\n      tag_66\n      jump\t// in\n    tag_65:\n    tag_64:\n      swap1\n      0x00\n      mstore\n      keccak256(0x00, 0x20)\n      add\n        /* \"main.sol\":4530:4569  requestList[id].searchRes[num] = result */\n      dup2\n      swap1\n      sstore\n      pop\n        /* \"main.sol\":4614:4624  msg.sender */\n      caller\n        /* \"main.sol\":4579:4590  requestList */\n      0x04\n        /* \"main.sol\":4579:4594  requestList[id] */\n      0x00\n        /* \"main.sol\":4591:4593  id */\n      dup7\n        /* \"main.sol\":4579:4594  requestList[id] */\n      dup2\n      mstore\n      0x20\n      add\n      swap1\n      dup2\n      mstore\n      0x20\n      add\n      0x00\n      keccak256\n        /* \"main.sol\":4579:4606  requestList[id].oracleNodes */\n      0x06\n      add\n        /* \"main.sol\":4607:4610  num */\n      dup3\n        /* \"main.sol\":4579:4611  requestList[id].oracleNodes[num] */\n      dup2\n      sload\n      dup2\n      lt\n      tag_68\n      jumpi\n      tag_69\n      tag_66\n      jump\t// in\n    tag_69:\n    tag_68:\n      swap1\n      0x00\n      mstore\n      keccak256(0x00, 0x20)\n      add\n      0x00\n        /* \"main.sol\":4579:4624  requestList[id].oracleNodes[num] = msg.sender */\n      0x0100\n      exp\n      dup2\n      sload\n      dup2\n      0xffffffffffffffffffffffffffffffffffffffff\n      mul\n      not\n      and\n      swap1\n      dup4\n      0xffffffffffffffffffffffffffffffffffffffff\n      and\n      mul\n      or\n      swap1\n      sstore\n      pop\n        /* \"main.sol\":4634:4645  requestList */\n      0x04\n        /* \"main.sol\":4634:4649  requestList[id] */\n      0x00\n        /* \"main.sol\":4646:4648  id */\n      dup6\n        /* \"main.sol\":4634:4649  requestList[id] */\n      dup2\n      mstore\n      0x20\n      add\n      swap1\n      dup2\n      mstore\n      0x20\n      add\n      0x00\n      keccak256\n        /* \"main.sol\":4634:4658  requestList[id].givenNum */\n      0x07\n      add\n      0x00\n        /* \"main.sol\":4634:4660  requestList[id].givenNum++ */\n      dup2\n      sload\n      dup1\n      swap3\n      swap2\n      swap1\n      tag_71\n      swap1\n      tag_72\n      jump\t// in\n    tag_71:\n      swap2\n      swap1\n      pop\n      sstore\n      pop\n        /* \"main.sol\":1062:1064  10 */\n      0x0a\n        /* \"main.sol\":4753:4764  requestList */\n      0x04\n        /* \"main.sol\":4753:4768  requestList[id] */\n      0x00\n        /* \"main.sol\":4765:4767  id */\n      dup7\n        /* \"main.sol\":4753:4768  requestList[id] */\n      dup2\n      mstore\n      0x20\n      add\n      swap1\n      dup2\n      mstore\n      0x20\n      add\n      0x00\n      keccak256\n        /* \"main.sol\":4753:4777  requestList[id].givenNum */\n      0x07\n      add\n      sload\n        /* \"main.sol\":4753:4795  requestList[id].givenNum == MAX_SEARCH_NUM */\n      sub\n        /* \"main.sol\":4749:5311  if (requestList[id].givenNum == MAX_SEARCH_NUM) {... */\n      tag_73\n      jumpi\n        /* \"main.sol\":4811:4831  uint256 final_result */\n      0x00\n        /* \"main.sol\":4834:4835  0 */\n      0x00\n        /* \"main.sol\":4811:4835  uint256 final_result = 0 */\n      swap1\n      pop\n        /* \"main.sol\":4854:4863  uint256 i */\n      0x00\n        /* \"main.sol\":4866:4867  0 */\n      0x00\n        /* \"main.sol\":4854:4867  uint256 i = 0 */\n      swap1\n      pop\n        /* \"main.sol\":4849:5082  for (uint256 i = 0; i < requestList[id].givenNum; i++) {... */\n    tag_74:\n        /* \"main.sol\":4873:4884  requestList */\n      0x04\n        /* \"main.sol\":4873:4888  requestList[id] */\n      0x00\n        /* \"main.sol\":4885:4887  id */\n      dup8\n        /* \"main.sol\":4873:4888  requestList[id] */\n      dup2\n      mstore\n      0x20\n      add\n      swap1\n      dup2\n      mstore\n      0x20\n      add\n      0x00\n      keccak256\n        /* \"main.sol\":4873:4897  requestList[id].givenNum */\n      0x07\n      add\n      sload\n        /* \"main.sol\":4869:4870  i */\n      dup2\n        /* \"main.sol\":4869:4897  i < requestList[id].givenNum */\n      lt\n        /* \"main.sol\":4849:5082  for (uint256 i = 0; i < requestList[id].givenNum; i++) {... */\n      iszero\n      tag_75\n      jumpi\n        /* \"main.sol\":1062:1064  10 */\n      0x0a\n        /* \"main.sol\":4970:4981  requestList */\n      0x04\n        /* \"main.sol\":4970:4984  requestList[i] */\n      0x00\n        /* \"main.sol\":4982:4983  i */\n      dup4\n        /* \"main.sol\":4970:4984  requestList[i] */\n      dup2\n      mstore\n      0x20\n      add\n      swap1\n      dup2\n      mstore\n      0x20\n      add\n      0x00\n      keccak256\n        /* \"main.sol\":4970:4988  requestList[i].Fee */\n      0x04\n      add\n      sload\n        /* \"main.sol\":4970:5005  requestList[i].Fee / MAX_SEARCH_NUM */\n      tag_77\n      swap2\n      swap1\n      tag_78\n      jump\t// in\n    tag_77:\n        /* \"main.sol\":4922:4934  userBalances */\n      0x03\n        /* \"main.sol\":4922:4966  userBalances[requestList[id].oracleNodes[i]] */\n      0x00\n        /* \"main.sol\":4935:4946  requestList */\n      0x04\n        /* \"main.sol\":4935:4950  requestList[id] */\n      0x00\n        /* \"main.sol\":4947:4949  id */\n      dup11\n        /* \"main.sol\":4935:4950  requestList[id] */\n      dup2\n      mstore\n      0x20\n      add\n      swap1\n      dup2\n      mstore\n      0x20\n      add\n      0x00\n      keccak256\n        /* \"main.sol\":4935:4962  requestList[id].oracleNodes */\n      0x06\n      add\n        /* \"main.sol\":4963:4964  i */\n      dup5\n        /* \"main.sol\":4935:4965  requestList[id].oracleNodes[i] */\n      dup2\n      sload\n      dup2\n      lt\n      tag_79\n      jumpi\n      tag_80\n      tag_66\n      jump\t// in\n    tag_80:\n    tag_79:\n      swap1\n      0x00\n      mstore\n      keccak256(0x00, 0x20)\n      add\n      0x00\n      swap1\n      sload\n      swap1\n      0x0100\n      exp\n      swap1\n      div\n      0xffffffffffffffffffffffffffffffffffffffff\n      and\n        /* \"main.sol\":4922:4966  userBalances[requestList[id].oracleNodes[i]] */\n      0xffffffffffffffffffffffffffffffffffffffff\n      and\n      0xffffffffffffffffffffffffffffffffffffffff\n      and\n      dup2\n      mstore\n      0x20\n      add\n      swap1\n      dup2\n      mstore\n      0x20\n      add\n      0x00\n      keccak256\n      0x00\n        /* \"main.sol\":4922:5005  userBalances[requestList[id].oracleNodes[i]] += requestList[i].Fee / MAX_SEARCH_NUM */\n      dup3\n      dup3\n      sload\n      tag_82\n      swap2\n      swap1\n      tag_83\n      jump\t// in\n    tag_82:\n      swap3\n      pop\n      pop\n      dup2\n      swap1\n      sstore\n      pop\n        /* \"main.sol\":5039:5050  requestList */\n      0x04\n        /* \"main.sol\":5039:5054  requestList[id] */\n      0x00\n        /* \"main.sol\":5051:5053  id */\n      dup8\n        /* \"main.sol\":5039:5054  requestList[id] */\n      dup2\n      mstore\n      0x20\n      add\n      swap1\n      dup2\n      mstore\n      0x20\n      add\n      0x00\n      keccak256\n        /* \"main.sol\":5039:5064  requestList[id].searchRes */\n      0x05\n      add\n        /* \"main.sol\":5065:5066  i */\n      dup2\n        /* \"main.sol\":5039:5067  requestList[id].searchRes[i] */\n      dup2\n      sload\n      dup2\n      lt\n      tag_84\n      jumpi\n      tag_85\n      tag_66\n      jump\t// in\n    tag_85:\n    tag_84:\n      swap1\n      0x00\n      mstore\n      keccak256(0x00, 0x20)\n      add\n      sload\n        /* \"main.sol\":5023:5067  final_result += requestList[id].searchRes[i] */\n      dup3\n      tag_87\n      swap2\n      swap1\n      tag_83\n      jump\t// in\n    tag_87:\n      swap2\n      pop\n        /* \"main.sol\":4899:4902  i++ */\n      dup1\n      dup1\n      0x01\n      add\n      swap2\n      pop\n      pop\n        /* \"main.sol\":4849:5082  for (uint256 i = 0; i < requestList[id].givenNum; i++) {... */\n      jump(tag_74)\n    tag_75:\n      pop\n        /* \"main.sol\":5095:5125  TARGET_CONTRACT TargetContract */\n      0x00\n        /* \"main.sol\":5144:5155  requestList */\n      0x04\n        /* \"main.sol\":5144:5159  requestList[id] */\n      0x00\n        /* \"main.sol\":5156:5158  id */\n      dup8\n        /* \"main.sol\":5144:5159  requestList[id] */\n      dup2\n      mstore\n      0x20\n      add\n      swap1\n      dup2\n      mstore\n      0x20\n      add\n      0x00\n      keccak256\n        /* \"main.sol\":5144:5169  requestList[id].requester */\n      0x01\n      add\n      0x00\n      swap1\n      sload\n      swap1\n      0x0100\n      exp\n      swap1\n      div\n      0xffffffffffffffffffffffffffffffffffffffff\n      and\n        /* \"main.sol\":5095:5170  TARGET_CONTRACT TargetContract = TARGET_CONTRACT(requestList[id].requester) */\n      swap1\n      pop\n        /* \"main.sol\":5246:5260  TargetContract */\n      dup1\n        /* \"main.sol\":5246:5269  TargetContract.callData */\n      0xffffffffffffffffffffffffffffffffffffffff\n      and\n      0xe5d60ce1\n        /* \"main.sol\":1062:1064  10 */\n      0x0a\n        /* \"main.sol\":5270:5282  final_result */\n      dup5\n        /* \"main.sol\":5270:5299  final_result / MAX_SEARCH_NUM */\n      tag_88\n      swap2\n      swap1\n      tag_78\n      jump\t// in\n    tag_88:\n        /* \"main.sol\":5246:5300  TargetContract.callData(final_result / MAX_SEARCH_NUM) */\n      mload(0x40)\n      dup3\n      0xffffffff\n      and\n      0xe0\n      shl\n      dup2\n      mstore\n      0x04\n      add\n      tag_89\n      swap2\n      swap1\n      tag_25\n      jump\t// in\n    tag_89:\n      0x20\n      mload(0x40)\n      dup1\n      dup4\n      sub\n      dup2\n      0x00\n      dup8\n      gas\n      call\n      iszero\n      dup1\n      iszero\n      tag_91\n      jumpi\n      returndatacopy(0x00, 0x00, returndatasize)\n      revert(0x00, returndatasize)\n    tag_91:\n      pop\n      pop\n      pop\n      pop\n      mload(0x40)\n      returndatasize\n      not(0x1f)\n      0x1f\n      dup3\n      add\n      and\n      dup3\n      add\n      dup1\n      0x40\n      mstore\n      pop\n      dup2\n      add\n      swap1\n      tag_92\n      swap2\n      swap1\n      tag_93\n      jump\t// in\n    tag_92:\n      pop\n        /* \"main.sol\":4797:5311  {... */\n      pop\n      pop\n        /* \"main.sol\":4749:5311  if (requestList[id].givenNum == MAX_SEARCH_NUM) {... */\n    tag_73:\n        /* \"main.sol\":5327:5331  true */\n      0x01\n        /* \"main.sol\":5320:5331  return true */\n      swap2\n      pop\n      pop\n        /* \"main.sol\":4319:5338  function fufillReqEvent(uint256 id, uint256 result) public returns (bool) {... */\n    tag_60:\n      swap3\n      swap2\n      pop\n      pop\n      jump\t// out\n        /* \"main.sol\":868:915  mapping(address => uint256) public userBalances */\n    tag_23:\n      mstore(0x20, 0x03)\n      dup1\n      0x00\n      mstore\n      keccak256(0x00, 0x40)\n      0x00\n      swap2\n      pop\n      swap1\n      pop\n      sload\n      dup2\n      jump\t// out\n        /* \"main.sol\":730:784  mapping(address => jobType[]) public oracleNodeJobType */\n    tag_29:\n      mstore(0x20, 0x00)\n      dup2\n      0x00\n      mstore\n      keccak256(0x00, 0x40)\n      dup2\n      dup2\n      sload\n      dup2\n      lt\n      tag_94\n      jumpi\n      0x00\n      dup1\n      revert\n    tag_94:\n      swap1\n      0x00\n      mstore\n      keccak256(0x00, 0x20)\n      swap1\n      0x20\n      swap2\n      dup3\n      dup3\n      div\n      add\n      swap2\n      swap1\n      mod\n      swap2\n      pop\n      swap2\n      pop\n      swap1\n      sload\n      swap1\n      0x0100\n      exp\n      swap1\n      div\n      0xff\n      and\n      dup2\n      jump\t// out\n        /* \"main.sol\":2880:3738  function requestForMsg(... */\n    tag_35:\n        /* \"main.sol\":2998:3002  bool */\n      0x00\n        /* \"main.sol\":1112:1114  10 */\n      0x0a\n        /* \"main.sol\":3022:3025  fee */\n      dup3\n        /* \"main.sol\":3022:3044  fee >= LIMIT_FEE_PRICE */\n      lt\n      iszero\n        /* \"main.sol\":3022:3073  fee >= LIMIT_FEE_PRICE && fee % MAX_SEARCH_NUM == 0 */\n      dup1\n      iszero\n      tag_97\n      jumpi\n      pop\n        /* \"main.sol\":3072:3073  0 */\n      0x00\n        /* \"main.sol\":1062:1064  10 */\n      0x0a\n        /* \"main.sol\":3048:3051  fee */\n      dup4\n        /* \"main.sol\":3048:3068  fee % MAX_SEARCH_NUM */\n      tag_98\n      swap2\n      swap1\n      tag_99\n      jump\t// in\n    tag_98:\n        /* \"main.sol\":3048:3073  fee % MAX_SEARCH_NUM == 0 */\n      eq\n        /* \"main.sol\":3022:3073  fee >= LIMIT_FEE_PRICE && fee % MAX_SEARCH_NUM == 0 */\n    tag_97:\n        /* \"main.sol\":3014:3090  require(fee >= LIMIT_FEE_PRICE && fee % MAX_SEARCH_NUM == 0, \"too less fee\") */\n      tag_100\n      jumpi\n      mload(0x40)\n      0x08c379a000000000000000000000000000000000000000000000000000000000\n      dup2\n      mstore\n      0x04\n      add\n      tag_101\n      swap1\n      tag_102\n      jump\t// in\n    tag_101:\n      mload(0x40)\n      dup1\n      swap2\n      sub\n      swap1\n      revert\n    tag_100:\n        /* \"main.sol\":3136:3139  fee */\n      dup2\n        /* \"main.sol\":3108:3120  userBalances */\n      0x03\n        /* \"main.sol\":3108:3132  userBalances[msg.sender] */\n      0x00\n        /* \"main.sol\":3121:3131  msg.sender */\n      caller\n        /* \"main.sol\":3108:3132  userBalances[msg.sender] */\n      0xffffffffffffffffffffffffffffffffffffffff\n      and\n      0xffffffffffffffffffffffffffffffffffffffff\n      and\n      dup2\n      mstore\n      0x20\n      add\n      swap1\n      dup2\n      mstore\n      0x20\n      add\n      0x00\n      keccak256\n      sload\n        /* \"main.sol\":3108:3139  userBalances[msg.sender] >= fee */\n      lt\n      iszero\n        /* \"main.sol\":3100:3160  require(userBalances[msg.sender] >= fee, \"not enough money\") */\n      tag_103\n      jumpi\n      mload(0x40)\n      0x08c379a000000000000000000000000000000000000000000000000000000000\n      dup2\n      mstore\n      0x04\n      add\n      tag_104\n      swap1\n      tag_105\n      jump\t// in\n    tag_104:\n      mload(0x40)\n      dup1\n      swap2\n      sub\n      swap1\n      revert\n    tag_103:\n        /* \"main.sol\":3170:3197  address[] memory node_lists */\n      0x00\n        /* \"main.sol\":3200:3225  calculateReqNode(jobtype) */\n      tag_106\n        /* \"main.sol\":3217:3224  jobtype */\n      dup5\n        /* \"main.sol\":3200:3216  calculateReqNode */\n      tag_107\n        /* \"main.sol\":3200:3225  calculateReqNode(jobtype) */\n      jump\t// in\n    tag_106:\n        /* \"main.sol\":3170:3225  address[] memory node_lists = calculateReqNode(jobtype) */\n      swap1\n      pop\n        /* \"main.sol\":3235:3249  uint256 req_id */\n      0x00\n        /* \"main.sol\":3252:3267  totalRequestNum */\n      0x02\n      0x00\n        /* \"main.sol\":3252:3269  totalRequestNum++ */\n      dup2\n      sload\n      dup1\n      swap3\n      swap2\n      swap1\n      tag_108\n      swap1\n      tag_72\n      jump\t// in\n    tag_108:\n      swap2\n      swap1\n      pop\n      sstore\n        /* \"main.sol\":3235:3269  uint256 req_id = totalRequestNum++ */\n      swap1\n      pop\n        /* \"main.sol\":3302:3638  RequestBody({... */\n      mload(0x40)\n      dup1\n      0x0120\n      add\n      0x40\n      mstore\n      dup1\n        /* \"main.sol\":3332:3338  req_id */\n      dup3\n        /* \"main.sol\":3302:3638  RequestBody({... */\n      dup2\n      mstore\n      0x20\n      add\n        /* \"main.sol\":3363:3373  msg.sender */\n      caller\n        /* \"main.sol\":3302:3638  RequestBody({... */\n      0xffffffffffffffffffffffffffffffffffffffff\n      and\n      dup2\n      mstore\n      0x20\n      add\n        /* \"main.sol\":3397:3404  jobtype */\n      dup7\n        /* \"main.sol\":3302:3638  RequestBody({... */\n      0x02\n      dup2\n      gt\n      iszero\n      tag_109\n      jumpi\n      tag_110\n      tag_111\n      jump\t// in\n    tag_110:\n    tag_109:\n      dup2\n      mstore\n      0x20\n      add\n        /* \"main.sol\":3423:3426  url */\n      dup8\n        /* \"main.sol\":3302:3638  RequestBody({... */\n      dup2\n      mstore\n      0x20\n      add\n        /* \"main.sol\":3454:3464  node_lists */\n      dup4\n        /* \"main.sol\":3302:3638  RequestBody({... */\n      dup2\n      mstore\n      0x20\n      add\n        /* \"main.sol\":3483:3486  fee */\n      dup6\n        /* \"main.sol\":3302:3638  RequestBody({... */\n      dup2\n      mstore\n      0x20\n      add\n        /* \"main.sol\":3525:3535  node_lists */\n      dup4\n        /* \"main.sol\":3525:3542  node_lists.length */\n      mload\n        /* \"main.sol\":3511:3543  new uint256[](node_lists.length) */\n      0xffffffffffffffff\n      dup2\n      gt\n      iszero\n      tag_112\n      jumpi\n      tag_113\n      tag_114\n      jump\t// in\n    tag_113:\n    tag_112:\n      mload(0x40)\n      swap1\n      dup1\n      dup3\n      mstore\n      dup1\n      0x20\n      mul\n      0x20\n      add\n      dup3\n      add\n      0x40\n      mstore\n      dup1\n      iszero\n      tag_115\n      jumpi\n      dup2\n      0x20\n      add\n      0x20\n      dup3\n      mul\n      dup1\n      calldatasize\n      dup4\n      calldatacopy\n      dup1\n      dup3\n      add\n      swap2\n      pop\n      pop\n      swap1\n      pop\n    tag_115:\n      pop\n        /* \"main.sol\":3302:3638  RequestBody({... */\n      dup2\n      mstore\n      0x20\n      add\n        /* \"main.sol\":3584:3594  node_lists */\n      dup4\n        /* \"main.sol\":3584:3601  node_lists.length */\n      mload\n        /* \"main.sol\":3570:3602  new address[](node_lists.length) */\n      0xffffffffffffffff\n      dup2\n      gt\n      iszero\n      tag_116\n      jumpi\n      tag_117\n      tag_114\n      jump\t// in\n    tag_117:\n    tag_116:\n      mload(0x40)\n      swap1\n      dup1\n      dup3\n      mstore\n      dup1\n      0x20\n      mul\n      0x20\n      add\n      dup3\n      add\n      0x40\n      mstore\n      dup1\n      iszero\n      tag_118\n      jumpi\n      dup2\n      0x20\n      add\n      0x20\n      dup3\n      mul\n      dup1\n      calldatasize\n      dup4\n      calldatacopy\n      dup1\n      dup3\n      add\n      swap2\n      pop\n      pop\n      swap1\n      pop\n    tag_118:\n      pop\n        /* \"main.sol\":3302:3638  RequestBody({... */\n      dup2\n      mstore\n      0x20\n      add\n        /* \"main.sol\":3626:3627  0 */\n      0x00\n        /* \"main.sol\":3302:3638  RequestBody({... */\n      dup2\n      mstore\n      pop\n        /* \"main.sol\":3280:3291  requestList */\n      0x04\n        /* \"main.sol\":3280:3299  requestList[req_id] */\n      0x00\n        /* \"main.sol\":3292:3298  req_id */\n      dup4\n        /* \"main.sol\":3280:3299  requestList[req_id] */\n      dup2\n      mstore\n      0x20\n      add\n      swap1\n      dup2\n      mstore\n      0x20\n      add\n      0x00\n      keccak256\n        /* \"main.sol\":3280:3638  requestList[req_id] = RequestBody({... */\n      0x00\n      dup3\n      add\n      mload\n      dup2\n      0x00\n      add\n      sstore\n      0x20\n      dup3\n      add\n      mload\n      dup2\n      0x01\n      add\n      exp(0x0100, 0x00)\n      dup2\n      sload\n      dup2\n      0xffffffffffffffffffffffffffffffffffffffff\n      mul\n      not\n      and\n      swap1\n      dup4\n      0xffffffffffffffffffffffffffffffffffffffff\n      and\n      mul\n      or\n      swap1\n      sstore\n      pop\n      0x40\n      dup3\n      add\n      mload\n      dup2\n      0x01\n      add\n      exp(0x0100, 0x14)\n      dup2\n      sload\n      dup2\n      0xff\n      mul\n      not\n      and\n      swap1\n      dup4\n      0x02\n      dup2\n      gt\n      iszero\n      tag_119\n      jumpi\n      tag_120\n      tag_111\n      jump\t// in\n    tag_120:\n    tag_119:\n      mul\n      or\n      swap1\n      sstore\n      pop\n      0x60\n      dup3\n      add\n      mload\n      dup2\n      0x02\n      add\n      swap1\n      dup2\n      tag_121\n      swap2\n      swap1\n      tag_122\n      jump\t// in\n    tag_121:\n      pop\n      0x80\n      dup3\n      add\n      mload\n      dup2\n      0x03\n      add\n      swap1\n      dup1\n      mload\n      swap1\n      0x20\n      add\n      swap1\n      tag_123\n      swap3\n      swap2\n      swap1\n      tag_124\n      jump\t// in\n    tag_123:\n      pop\n      0xa0\n      dup3\n      add\n      mload\n      dup2\n      0x04\n      add\n      sstore\n      0xc0\n      dup3\n      add\n      mload\n      dup2\n      0x05\n      add\n      swap1\n      dup1\n      mload\n      swap1\n      0x20\n      add\n      swap1\n      tag_125\n      swap3\n      swap2\n      swap1\n      tag_126\n      jump\t// in\n    tag_125:\n      pop\n      0xe0\n      dup3\n      add\n      mload\n      dup2\n      0x06\n      add\n      swap1\n      dup1\n      mload\n      swap1\n      0x20\n      add\n      swap1\n      tag_127\n      swap3\n      swap2\n      swap1\n      tag_124\n      jump\t// in\n    tag_127:\n      pop\n      0x0100\n      dup3\n      add\n      mload\n      dup2\n      0x07\n      add\n      sstore\n      swap1\n      pop\n      pop\n        /* \"main.sol\":3672:3678  req_id */\n      dup1\n        /* \"main.sol\":3653:3710  oracleRequestEvent(req_id, node_lists, jobtype, url, fee) */\n      0xe84d10fa98af4ed68014b5eb0367cbcb5ee2664f554195989f89f9bc49709004\n        /* \"main.sol\":3680:3690  node_lists */\n      dup4\n        /* \"main.sol\":3692:3699  jobtype */\n      dup8\n        /* \"main.sol\":3701:3704  url */\n      dup10\n        /* \"main.sol\":3706:3709  fee */\n      dup9\n        /* \"main.sol\":3653:3710  oracleRequestEvent(req_id, node_lists, jobtype, url, fee) */\n      mload(0x40)\n      tag_128\n      swap5\n      swap4\n      swap3\n      swap2\n      swap1\n      tag_129\n      jump\t// in\n    tag_128:\n      mload(0x40)\n      dup1\n      swap2\n      sub\n      swap1\n      log2\n        /* \"main.sol\":3727:3731  true */\n      0x01\n        /* \"main.sol\":3720:3731  return true */\n      swap3\n      pop\n      pop\n      pop\n        /* \"main.sol\":2880:3738  function requestForMsg(... */\n      swap4\n      swap3\n      pop\n      pop\n      pop\n      jump\t// out\n        /* \"main.sol\":971:1015  uint256 public constant LIMIT_STAKE_NUM = 80 */\n    tag_38:\n        /* \"main.sol\":1013:1015  80 */\n      0x50\n        /* \"main.sol\":971:1015  uint256 public constant LIMIT_STAKE_NUM = 80 */\n      dup2\n      jump\t// out\n        /* \"main.sol\":831:861  uint256 public totalRequestNum */\n    tag_41:\n      sload(0x02)\n      dup2\n      jump\t// out\n        /* \"main.sol\":791:825  address[] public oracleAddressList */\n    tag_46:\n      0x01\n      dup2\n      dup2\n      sload\n      dup2\n      lt\n      tag_130\n      jumpi\n      0x00\n      dup1\n      revert\n    tag_130:\n      swap1\n      0x00\n      mstore\n      keccak256(0x00, 0x20)\n      add\n      0x00\n      swap2\n      pop\n      sload\n      swap1\n      0x0100\n      exp\n      swap1\n      div\n      0xffffffffffffffffffffffffffffffffffffffff\n      and\n      dup2\n      jump\t// out\n        /* \"main.sol\":1021:1064  uint256 public constant MAX_SEARCH_NUM = 10 */\n    tag_50:\n        /* \"main.sol\":1062:1064  10 */\n      0x0a\n        /* \"main.sol\":1021:1064  uint256 public constant MAX_SEARCH_NUM = 10 */\n      dup2\n      jump\t// out\n        /* \"main.sol\":1258:1604  function registerOracleNode(jobType[] memory job_type_list) public returns (bool) {... */\n    tag_55:\n        /* \"main.sol\":1334:1338  bool */\n      0x00\n        /* \"main.sol\":1013:1015  80 */\n      0x50\n        /* \"main.sol\":1358:1370  userBalances */\n      0x03\n        /* \"main.sol\":1358:1382  userBalances[msg.sender] */\n      0x00\n        /* \"main.sol\":1371:1381  msg.sender */\n      caller\n        /* \"main.sol\":1358:1382  userBalances[msg.sender] */\n      0xffffffffffffffffffffffffffffffffffffffff\n      and\n      0xffffffffffffffffffffffffffffffffffffffff\n      and\n      dup2\n      mstore\n      0x20\n      add\n      swap1\n      dup2\n      mstore\n      0x20\n      add\n      0x00\n      keccak256\n      sload\n        /* \"main.sol\":1358:1401  userBalances[msg.sender] >= LIMIT_STAKE_NUM */\n      lt\n      iszero\n        /* \"main.sol\":1350:1422  require(userBalances[msg.sender] >= LIMIT_STAKE_NUM, \"not enough money\") */\n      tag_133\n      jumpi\n      mload(0x40)\n      0x08c379a000000000000000000000000000000000000000000000000000000000\n      dup2\n      mstore\n      0x04\n      add\n      tag_134\n      swap1\n      tag_105\n      jump\t// in\n    tag_134:\n      mload(0x40)\n      dup1\n      swap2\n      sub\n      swap1\n      revert\n    tag_133:\n        /* \"main.sol\":1013:1015  80 */\n      0x50\n        /* \"main.sol\":1432:1444  userBalances */\n      0x03\n        /* \"main.sol\":1432:1456  userBalances[msg.sender] */\n      0x00\n        /* \"main.sol\":1445:1455  msg.sender */\n      caller\n        /* \"main.sol\":1432:1456  userBalances[msg.sender] */\n      0xffffffffffffffffffffffffffffffffffffffff\n      and\n      0xffffffffffffffffffffffffffffffffffffffff\n      and\n      dup2\n      mstore\n      0x20\n      add\n      swap1\n      dup2\n      mstore\n      0x20\n      add\n      0x00\n      keccak256\n      0x00\n        /* \"main.sol\":1432:1475  userBalances[msg.sender] -= LIMIT_STAKE_NUM */\n      dup3\n      dup3\n      sload\n      tag_135\n      swap2\n      swap1\n      tag_136\n      jump\t// in\n    tag_135:\n      swap3\n      pop\n      pop\n      dup2\n      swap1\n      sstore\n      pop\n        /* \"main.sol\":1517:1530  job_type_list */\n      dup2\n        /* \"main.sol\":1485:1502  oracleNodeJobType */\n      0x00\n        /* \"main.sol\":1485:1514  oracleNodeJobType[msg.sender] */\n      0x00\n        /* \"main.sol\":1503:1513  msg.sender */\n      caller\n        /* \"main.sol\":1485:1514  oracleNodeJobType[msg.sender] */\n      0xffffffffffffffffffffffffffffffffffffffff\n      and\n      0xffffffffffffffffffffffffffffffffffffffff\n      and\n      dup2\n      mstore\n      0x20\n      add\n      swap1\n      dup2\n      mstore\n      0x20\n      add\n      0x00\n      keccak256\n        /* \"main.sol\":1485:1530  oracleNodeJobType[msg.sender] = job_type_list */\n      swap1\n      dup1\n      mload\n      swap1\n      0x20\n      add\n      swap1\n      tag_137\n      swap3\n      swap2\n      swap1\n      tag_138\n      jump\t// in\n    tag_137:\n      pop\n        /* \"main.sol\":1540:1557  oracleAddressList */\n      0x01\n        /* \"main.sol\":1563:1573  msg.sender */\n      caller\n        /* \"main.sol\":1540:1574  oracleAddressList.push(msg.sender) */\n      swap1\n      dup1\n      0x01\n      dup2\n      sload\n      add\n      dup1\n      dup3\n      sstore\n      dup1\n      swap2\n      pop\n      pop\n      0x01\n      swap1\n      sub\n      swap1\n      0x00\n      mstore\n      keccak256(0x00, 0x20)\n      add\n      0x00\n      swap1\n      swap2\n      swap1\n      swap2\n      swap1\n      swap2\n      0x0100\n      exp\n      dup2\n      sload\n      dup2\n      0xffffffffffffffffffffffffffffffffffffffff\n      mul\n      not\n      and\n      swap1\n      dup4\n      0xffffffffffffffffffffffffffffffffffffffff\n      and\n      mul\n      or\n      swap1\n      sstore\n      pop\n        /* \"main.sol\":1592:1596  true */\n      0x01\n        /* \"main.sol\":1584:1597  return (true) */\n      swap1\n      pop\n        /* \"main.sol\":1258:1604  function registerOracleNode(jobType[] memory job_type_list) public returns (bool) {... */\n      swap2\n      swap1\n      pop\n      jump\t// out\n        /* \"main.sol\":1070:1114  uint256 public constant LIMIT_FEE_PRICE = 10 */\n    tag_58:\n        /* \"main.sol\":1112:1114  10 */\n      0x0a\n        /* \"main.sol\":1070:1114  uint256 public constant LIMIT_FEE_PRICE = 10 */\n      dup2\n      jump\t// out\n        /* \"main.sol\":3827:4269  function isInReqList(uint256 id, address addr) private view returns (bool) {... */\n    tag_62:\n        /* \"main.sol\":3896:3900  bool */\n      0x00\n        /* \"main.sol\":3938:3939  0 */\n      0x00\n        /* \"main.sol\":3916:3927  requestList */\n      0x04\n        /* \"main.sol\":3916:3931  requestList[id] */\n      0x00\n        /* \"main.sol\":3928:3930  id */\n      dup6\n        /* \"main.sol\":3916:3931  requestList[id] */\n      dup2\n      mstore\n      0x20\n      add\n      swap1\n      dup2\n      mstore\n      0x20\n      add\n      0x00\n      keccak256\n        /* \"main.sol\":3916:3934  requestList[id].id */\n      0x00\n      add\n      sload\n        /* \"main.sol\":3916:3939  requestList[id].id == 0 */\n      sub\n        /* \"main.sol\":3912:3978  if (requestList[id].id == 0) {... */\n      tag_141\n      jumpi\n        /* \"main.sol\":3962:3967  false */\n      0x00\n        /* \"main.sol\":3955:3967  return false */\n      swap1\n      pop\n      jump(tag_140)\n        /* \"main.sol\":3912:3978  if (requestList[id].id == 0) {... */\n    tag_141:\n        /* \"main.sol\":3987:3998  uint256 num */\n      0x00\n        /* \"main.sol\":4001:4012  requestList */\n      0x04\n        /* \"main.sol\":4001:4016  requestList[id] */\n      0x00\n        /* \"main.sol\":4013:4015  id */\n      dup6\n        /* \"main.sol\":4001:4016  requestList[id] */\n      dup2\n      mstore\n      0x20\n      add\n      swap1\n      dup2\n      mstore\n      0x20\n      add\n      0x00\n      keccak256\n        /* \"main.sol\":4001:4025  requestList[id].givenNum */\n      0x07\n      add\n      sload\n        /* \"main.sol\":3987:4025  uint256 num = requestList[id].givenNum */\n      swap1\n      pop\n        /* \"main.sol\":4046:4047  0 */\n      0x00\n        /* \"main.sol\":4039:4042  num */\n      dup2\n        /* \"main.sol\":4039:4047  num == 0 */\n      sub\n        /* \"main.sol\":4035:4086  if (num == 0) {... */\n      tag_142\n      jumpi\n        /* \"main.sol\":4070:4075  false */\n      0x00\n        /* \"main.sol\":4063:4075  return false */\n      swap2\n      pop\n      pop\n      jump(tag_140)\n        /* \"main.sol\":4035:4086  if (num == 0) {... */\n    tag_142:\n        /* \"main.sol\":4100:4109  uint256 i */\n      0x00\n        /* \"main.sol\":4112:4113  0 */\n      0x00\n        /* \"main.sol\":4100:4113  uint256 i = 0 */\n      swap1\n      pop\n        /* \"main.sol\":4095:4241  for (uint256 i = 0; i < num; i++) {... */\n    tag_143:\n        /* \"main.sol\":4119:4122  num */\n      dup2\n        /* \"main.sol\":4115:4116  i */\n      dup2\n        /* \"main.sol\":4115:4122  i < num */\n      lt\n        /* \"main.sol\":4095:4241  for (uint256 i = 0; i < num; i++) {... */\n      iszero\n      tag_144\n      jumpi\n        /* \"main.sol\":4181:4185  addr */\n      dup4\n        /* \"main.sol\":4147:4185  requestList[id].oracleNodes[i] == addr */\n      0xffffffffffffffffffffffffffffffffffffffff\n      and\n        /* \"main.sol\":4147:4158  requestList */\n      0x04\n        /* \"main.sol\":4147:4162  requestList[id] */\n      0x00\n        /* \"main.sol\":4159:4161  id */\n      dup8\n        /* \"main.sol\":4147:4162  requestList[id] */\n      dup2\n      mstore\n      0x20\n      add\n      swap1\n      dup2\n      mstore\n      0x20\n      add\n      0x00\n      keccak256\n        /* \"main.sol\":4147:4174  requestList[id].oracleNodes */\n      0x06\n      add\n        /* \"main.sol\":4175:4176  i */\n      dup3\n        /* \"main.sol\":4147:4177  requestList[id].oracleNodes[i] */\n      dup2\n      sload\n      dup2\n      lt\n      tag_146\n      jumpi\n      tag_147\n      tag_66\n      jump\t// in\n    tag_147:\n    tag_146:\n      swap1\n      0x00\n      mstore\n      keccak256(0x00, 0x20)\n      add\n      0x00\n      swap1\n      sload\n      swap1\n      0x0100\n      exp\n      swap1\n      div\n      0xffffffffffffffffffffffffffffffffffffffff\n      and\n        /* \"main.sol\":4147:4185  requestList[id].oracleNodes[i] == addr */\n      0xffffffffffffffffffffffffffffffffffffffff\n      and\n      sub\n        /* \"main.sol\":4143:4231  if (requestList[id].oracleNodes[i] == addr) {... */\n      tag_149\n      jumpi\n        /* \"main.sol\":4212:4216  true */\n      0x01\n        /* \"main.sol\":4205:4216  return true */\n      swap3\n      pop\n      pop\n      pop\n      jump(tag_140)\n        /* \"main.sol\":4143:4231  if (requestList[id].oracleNodes[i] == addr) {... */\n    tag_149:\n        /* \"main.sol\":4124:4127  i++ */\n      dup1\n      dup1\n      0x01\n      add\n      swap2\n      pop\n      pop\n        /* \"main.sol\":4095:4241  for (uint256 i = 0; i < num; i++) {... */\n      jump(tag_143)\n    tag_144:\n      pop\n        /* \"main.sol\":4257:4262  false */\n      0x00\n        /* \"main.sol\":4250:4262  return false */\n      swap2\n      pop\n      pop\n        /* \"main.sol\":3827:4269  function isInReqList(uint256 id, address addr) private view returns (bool) {... */\n    tag_140:\n      swap3\n      swap2\n      pop\n      pop\n      jump\t// out\n        /* \"main.sol\":1610:2845  function calculateReqNode(jobType job_type) private view returns (address[] memory) {... */\n    tag_107:\n        /* \"main.sol\":1676:1692  address[] memory */\n      0x60\n        /* \"main.sol\":1704:1721  uint256 num_count */\n      0x00\n        /* \"main.sol\":1724:1725  0 */\n      0x00\n        /* \"main.sol\":1704:1725  uint256 num_count = 0 */\n      swap1\n      pop\n        /* \"main.sol\":1740:1749  uint256 i */\n      0x00\n        /* \"main.sol\":1752:1753  0 */\n      0x00\n        /* \"main.sol\":1740:1753  uint256 i = 0 */\n      swap1\n      pop\n        /* \"main.sol\":1735:2143  for (uint256 i = 0; i < oracleAddressList.length; i++) {... */\n    tag_151:\n        /* \"main.sol\":1759:1776  oracleAddressList */\n      0x01\n        /* \"main.sol\":1759:1783  oracleAddressList.length */\n      dup1\n      sload\n      swap1\n      pop\n        /* \"main.sol\":1755:1756  i */\n      dup2\n        /* \"main.sol\":1755:1783  i < oracleAddressList.length */\n      lt\n        /* \"main.sol\":1735:2143  for (uint256 i = 0; i < oracleAddressList.length; i++) {... */\n      iszero\n      tag_152\n      jumpi\n        /* \"main.sol\":1804:1823  address oracle_addr */\n      0x00\n        /* \"main.sol\":1826:1843  oracleAddressList */\n      0x01\n        /* \"main.sol\":1844:1845  i */\n      dup3\n        /* \"main.sol\":1826:1846  oracleAddressList[i] */\n      dup2\n      sload\n      dup2\n      lt\n      tag_154\n      jumpi\n      tag_155\n      tag_66\n      jump\t// in\n    tag_155:\n    tag_154:\n      swap1\n      0x00\n      mstore\n      keccak256(0x00, 0x20)\n      add\n      0x00\n      swap1\n      sload\n      swap1\n      0x0100\n      exp\n      swap1\n      div\n      0xffffffffffffffffffffffffffffffffffffffff\n      and\n        /* \"main.sol\":1804:1846  address oracle_addr = oracleAddressList[i] */\n      swap1\n      pop\n        /* \"main.sol\":1860:1890  jobType[] memory job_type_list */\n      0x00\n        /* \"main.sol\":1893:1910  oracleNodeJobType */\n      0x00\n        /* \"main.sol\":1893:1923  oracleNodeJobType[oracle_addr] */\n      0x00\n        /* \"main.sol\":1911:1922  oracle_addr */\n      dup4\n        /* \"main.sol\":1893:1923  oracleNodeJobType[oracle_addr] */\n      0xffffffffffffffffffffffffffffffffffffffff\n      and\n      0xffffffffffffffffffffffffffffffffffffffff\n      and\n      dup2\n      mstore\n      0x20\n      add\n      swap1\n      dup2\n      mstore\n      0x20\n      add\n      0x00\n      keccak256\n        /* \"main.sol\":1860:1923  jobType[] memory job_type_list = oracleNodeJobType[oracle_addr] */\n      dup1\n      sload\n      dup1\n      0x20\n      mul\n      0x20\n      add\n      mload(0x40)\n      swap1\n      dup2\n      add\n      0x40\n      mstore\n      dup1\n      swap3\n      swap2\n      swap1\n      dup2\n      dup2\n      mstore\n      0x20\n      add\n      dup3\n      dup1\n      sload\n      dup1\n      iszero\n      tag_157\n      jumpi\n      0x20\n      mul\n      dup3\n      add\n      swap2\n      swap1\n      0x00\n      mstore\n      keccak256(0x00, 0x20)\n      swap1\n      0x00\n      swap1\n    tag_158:\n      dup3\n      dup3\n      swap1\n      sload\n      swap1\n      0x0100\n      exp\n      swap1\n      div\n      0xff\n      and\n      0x02\n      dup2\n      gt\n      iszero\n      tag_159\n      jumpi\n      tag_160\n      tag_111\n      jump\t// in\n    tag_160:\n    tag_159:\n      dup2\n      mstore\n      0x20\n      add\n      swap1\n      0x01\n      add\n      swap1\n      0x20\n      dup3\n      0x00\n      add\n      div\n      swap3\n      dup4\n      add\n      swap3\n      0x01\n      sub\n      dup3\n      mul\n      swap2\n      pop\n      dup1\n      dup5\n      gt\n      tag_158\n      jumpi\n      swap1\n      pop\n    tag_157:\n      pop\n      pop\n      pop\n      pop\n      pop\n      swap1\n      pop\n        /* \"main.sol\":1942:1951  uint256 j */\n      0x00\n        /* \"main.sol\":1954:1955  0 */\n      0x00\n        /* \"main.sol\":1942:1955  uint256 j = 0 */\n      swap1\n      pop\n        /* \"main.sol\":1937:2133  for (uint256 j = 0; j < job_type_list.length; j++) {... */\n    tag_161:\n        /* \"main.sol\":1961:1974  job_type_list */\n      dup2\n        /* \"main.sol\":1961:1981  job_type_list.length */\n      mload\n        /* \"main.sol\":1957:1958  j */\n      dup2\n        /* \"main.sol\":1957:1981  j < job_type_list.length */\n      lt\n        /* \"main.sol\":1937:2133  for (uint256 j = 0; j < job_type_list.length; j++) {... */\n      iszero\n      tag_162\n      jumpi\n        /* \"main.sol\":2030:2038  job_type */\n      dup7\n        /* \"main.sol\":2010:2038  job_type_list[j] == job_type */\n      0x02\n      dup2\n      gt\n      iszero\n      tag_164\n      jumpi\n      tag_165\n      tag_111\n      jump\t// in\n    tag_165:\n    tag_164:\n        /* \"main.sol\":2010:2023  job_type_list */\n      dup3\n        /* \"main.sol\":2024:2025  j */\n      dup3\n        /* \"main.sol\":2010:2026  job_type_list[j] */\n      dup2\n      mload\n      dup2\n      lt\n      tag_166\n      jumpi\n      tag_167\n      tag_66\n      jump\t// in\n    tag_167:\n    tag_166:\n      0x20\n      mul\n      0x20\n      add\n      add\n      mload\n        /* \"main.sol\":2010:2038  job_type_list[j] == job_type */\n      0x02\n      dup2\n      gt\n      iszero\n      tag_168\n      jumpi\n      tag_169\n      tag_111\n      jump\t// in\n    tag_169:\n    tag_168:\n      sub\n        /* \"main.sol\":2006:2119  if (job_type_list[j] == job_type) {... */\n      tag_170\n      jumpi\n        /* \"main.sol\":2062:2073  num_count++ */\n      dup5\n      dup1\n      tag_171\n      swap1\n      tag_72\n      jump\t// in\n    tag_171:\n      swap6\n      pop\n      pop\n        /* \"main.sol\":2095:2100  break */\n      jump(tag_162)\n        /* \"main.sol\":2006:2119  if (job_type_list[j] == job_type) {... */\n    tag_170:\n        /* \"main.sol\":1983:1986  j++ */\n      dup1\n      dup1\n      0x01\n      add\n      swap2\n      pop\n      pop\n        /* \"main.sol\":1937:2133  for (uint256 j = 0; j < job_type_list.length; j++) {... */\n      jump(tag_161)\n    tag_162:\n      pop\n        /* \"main.sol\":1790:2143  {... */\n      pop\n      pop\n        /* \"main.sol\":1785:1788  i++ */\n      dup1\n      dup1\n      0x01\n      add\n      swap2\n      pop\n      pop\n        /* \"main.sol\":1735:2143  for (uint256 i = 0; i < oracleAddressList.length; i++) {... */\n      jump(tag_151)\n    tag_152:\n      pop\n        /* \"main.sol\":2153:2184  address[] memory node_addr_list */\n      0x00\n        /* \"main.sol\":2201:2210  num_count */\n      dup2\n        /* \"main.sol\":2187:2211  new address[](num_count) */\n      0xffffffffffffffff\n      dup2\n      gt\n      iszero\n      tag_172\n      jumpi\n      tag_173\n      tag_114\n      jump\t// in\n    tag_173:\n    tag_172:\n      mload(0x40)\n      swap1\n      dup1\n      dup3\n      mstore\n      dup1\n      0x20\n      mul\n      0x20\n      add\n      dup3\n      add\n      0x40\n      mstore\n      dup1\n      iszero\n      tag_174\n      jumpi\n      dup2\n      0x20\n      add\n      0x20\n      dup3\n      mul\n      dup1\n      calldatasize\n      dup4\n      calldatacopy\n      dup1\n      dup3\n      add\n      swap2\n      pop\n      pop\n      swap1\n      pop\n    tag_174:\n      pop\n        /* \"main.sol\":2153:2211  address[] memory node_addr_list = new address[](num_count) */\n      swap1\n      pop\n        /* \"main.sol\":2221:2234  uint256 index */\n      0x00\n        /* \"main.sol\":2237:2238  0 */\n      0x00\n        /* \"main.sol\":2221:2238  uint256 index = 0 */\n      swap1\n      pop\n        /* \"main.sol\":2254:2263  uint256 i */\n      0x00\n        /* \"main.sol\":2266:2267  0 */\n      0x00\n        /* \"main.sol\":2254:2267  uint256 i = 0 */\n      swap1\n      pop\n        /* \"main.sol\":2249:2807  for (uint256 i = 0; i < oracleAddressList.length; i++) {... */\n    tag_175:\n        /* \"main.sol\":2273:2290  oracleAddressList */\n      0x01\n        /* \"main.sol\":2273:2297  oracleAddressList.length */\n      dup1\n      sload\n      swap1\n      pop\n        /* \"main.sol\":2269:2270  i */\n      dup2\n        /* \"main.sol\":2269:2297  i < oracleAddressList.length */\n      lt\n        /* \"main.sol\":2249:2807  for (uint256 i = 0; i < oracleAddressList.length; i++) {... */\n      iszero\n      tag_176\n      jumpi\n        /* \"main.sol\":2318:2337  address oracle_addr */\n      0x00\n        /* \"main.sol\":2340:2357  oracleAddressList */\n      0x01\n        /* \"main.sol\":2358:2359  i */\n      dup3\n        /* \"main.sol\":2340:2360  oracleAddressList[i] */\n      dup2\n      sload\n      dup2\n      lt\n      tag_178\n      jumpi\n      tag_179\n      tag_66\n      jump\t// in\n    tag_179:\n    tag_178:\n      swap1\n      0x00\n      mstore\n      keccak256(0x00, 0x20)\n      add\n      0x00\n      swap1\n      sload\n      swap1\n      0x0100\n      exp\n      swap1\n      div\n      0xffffffffffffffffffffffffffffffffffffffff\n      and\n        /* \"main.sol\":2318:2360  address oracle_addr = oracleAddressList[i] */\n      swap1\n      pop\n        /* \"main.sol\":2374:2404  jobType[] memory job_type_list */\n      0x00\n        /* \"main.sol\":2407:2424  oracleNodeJobType */\n      0x00\n        /* \"main.sol\":2407:2437  oracleNodeJobType[oracle_addr] */\n      0x00\n        /* \"main.sol\":2425:2436  oracle_addr */\n      dup4\n        /* \"main.sol\":2407:2437  oracleNodeJobType[oracle_addr] */\n      0xffffffffffffffffffffffffffffffffffffffff\n      and\n      0xffffffffffffffffffffffffffffffffffffffff\n      and\n      dup2\n      mstore\n      0x20\n      add\n      swap1\n      dup2\n      mstore\n      0x20\n      add\n      0x00\n      keccak256\n        /* \"main.sol\":2374:2437  jobType[] memory job_type_list = oracleNodeJobType[oracle_addr] */\n      dup1\n      sload\n      dup1\n      0x20\n      mul\n      0x20\n      add\n      mload(0x40)\n      swap1\n      dup2\n      add\n      0x40\n      mstore\n      dup1\n      swap3\n      swap2\n      swap1\n      dup2\n      dup2\n      mstore\n      0x20\n      add\n      dup3\n      dup1\n      sload\n      dup1\n      iszero\n      tag_181\n      jumpi\n      0x20\n      mul\n      dup3\n      add\n      swap2\n      swap1\n      0x00\n      mstore\n      keccak256(0x00, 0x20)\n      swap1\n      0x00\n      swap1\n    tag_182:\n      dup3\n      dup3\n      swap1\n      sload\n      swap1\n      0x0100\n      exp\n      swap1\n      div\n      0xff\n      and\n      0x02\n      dup2\n      gt\n      iszero\n      tag_183\n      jumpi\n      tag_184\n      tag_111\n      jump\t// in\n    tag_184:\n    tag_183:\n      dup2\n      mstore\n      0x20\n      add\n      swap1\n      0x01\n      add\n      swap1\n      0x20\n      dup3\n      0x00\n      add\n      div\n      swap3\n      dup4\n      add\n      swap3\n      0x01\n      sub\n      dup3\n      mul\n      swap2\n      pop\n      dup1\n      dup5\n      gt\n      tag_182\n      jumpi\n      swap1\n      pop\n    tag_181:\n      pop\n      pop\n      pop\n      pop\n      pop\n      swap1\n      pop\n        /* \"main.sol\":2451:2461  bool isJob */\n      0x00\n        /* \"main.sol\":2464:2469  false */\n      0x00\n        /* \"main.sol\":2451:2469  bool isJob = false */\n      swap1\n      pop\n        /* \"main.sol\":2488:2497  uint256 j */\n      0x00\n        /* \"main.sol\":2500:2501  0 */\n      0x00\n        /* \"main.sol\":2488:2501  uint256 j = 0 */\n      swap1\n      pop\n        /* \"main.sol\":2483:2680  for (uint256 j = 0; j < job_type_list.length; j++) {... */\n    tag_185:\n        /* \"main.sol\":2507:2520  job_type_list */\n      dup3\n        /* \"main.sol\":2507:2527  job_type_list.length */\n      mload\n        /* \"main.sol\":2503:2504  j */\n      dup2\n        /* \"main.sol\":2503:2527  j < job_type_list.length */\n      lt\n        /* \"main.sol\":2483:2680  for (uint256 j = 0; j < job_type_list.length; j++) {... */\n      iszero\n      tag_186\n      jumpi\n        /* \"main.sol\":2576:2584  job_type */\n      dup10\n        /* \"main.sol\":2556:2584  job_type_list[j] == job_type */\n      0x02\n      dup2\n      gt\n      iszero\n      tag_188\n      jumpi\n      tag_189\n      tag_111\n      jump\t// in\n    tag_189:\n    tag_188:\n        /* \"main.sol\":2556:2569  job_type_list */\n      dup4\n        /* \"main.sol\":2570:2571  j */\n      dup3\n        /* \"main.sol\":2556:2572  job_type_list[j] */\n      dup2\n      mload\n      dup2\n      lt\n      tag_190\n      jumpi\n      tag_191\n      tag_66\n      jump\t// in\n    tag_191:\n    tag_190:\n      0x20\n      mul\n      0x20\n      add\n      add\n      mload\n        /* \"main.sol\":2556:2584  job_type_list[j] == job_type */\n      0x02\n      dup2\n      gt\n      iszero\n      tag_192\n      jumpi\n      tag_193\n      tag_111\n      jump\t// in\n    tag_193:\n    tag_192:\n      sub\n        /* \"main.sol\":2552:2666  if (job_type_list[j] == job_type) {... */\n      tag_194\n      jumpi\n        /* \"main.sol\":2616:2620  true */\n      0x01\n        /* \"main.sol\":2608:2620  isJob = true */\n      swap2\n      pop\n        /* \"main.sol\":2642:2647  break */\n      jump(tag_186)\n        /* \"main.sol\":2552:2666  if (job_type_list[j] == job_type) {... */\n    tag_194:\n        /* \"main.sol\":2529:2532  j++ */\n      dup1\n      dup1\n      0x01\n      add\n      swap2\n      pop\n      pop\n        /* \"main.sol\":2483:2680  for (uint256 j = 0; j < job_type_list.length; j++) {... */\n      jump(tag_185)\n    tag_186:\n      pop\n        /* \"main.sol\":2697:2702  isJob */\n      dup1\n        /* \"main.sol\":2693:2797  if (isJob) {... */\n      iszero\n      tag_195\n      jumpi\n        /* \"main.sol\":2746:2757  oracle_addr */\n      dup3\n        /* \"main.sol\":2722:2736  node_addr_list */\n      dup7\n        /* \"main.sol\":2737:2742  index */\n      dup7\n        /* \"main.sol\":2722:2743  node_addr_list[index] */\n      dup2\n      mload\n      dup2\n      lt\n      tag_196\n      jumpi\n      tag_197\n      tag_66\n      jump\t// in\n    tag_197:\n    tag_196:\n      0x20\n      mul\n      0x20\n      add\n      add\n        /* \"main.sol\":2722:2757  node_addr_list[index] = oracle_addr */\n      swap1\n      0xffffffffffffffffffffffffffffffffffffffff\n      and\n      swap1\n      dup2\n      0xffffffffffffffffffffffffffffffffffffffff\n      and\n      dup2\n      mstore\n      pop\n      pop\n        /* \"main.sol\":2775:2782  index++ */\n      dup5\n      dup1\n      tag_198\n      swap1\n      tag_72\n      jump\t// in\n    tag_198:\n      swap6\n      pop\n      pop\n        /* \"main.sol\":2693:2797  if (isJob) {... */\n    tag_195:\n        /* \"main.sol\":2304:2807  {... */\n      pop\n      pop\n      pop\n        /* \"main.sol\":2299:2302  i++ */\n      dup1\n      dup1\n      0x01\n      add\n      swap2\n      pop\n      pop\n        /* \"main.sol\":2249:2807  for (uint256 i = 0; i < oracleAddressList.length; i++) {... */\n      jump(tag_175)\n    tag_176:\n      pop\n        /* \"main.sol\":2824:2838  node_addr_list */\n      dup2\n        /* \"main.sol\":2817:2838  return node_addr_list */\n      swap4\n      pop\n      pop\n      pop\n      pop\n        /* \"main.sol\":1610:2845  function calculateReqNode(jobType job_type) private view returns (address[] memory) {... */\n      swap2\n      swap1\n      pop\n      jump\t// out\n    tag_124:\n      dup3\n      dup1\n      sload\n      dup3\n      dup3\n      sstore\n      swap1\n      0x00\n      mstore\n      keccak256(0x00, 0x20)\n      swap1\n      dup2\n      add\n      swap3\n      dup3\n      iszero\n      tag_199\n      jumpi\n      swap2\n      0x20\n      mul\n      dup3\n      add\n    tag_200:\n      dup3\n      dup2\n      gt\n      iszero\n      tag_201\n      jumpi\n      dup3\n      mload\n      dup3\n      exp(0x0100, 0x00)\n      dup2\n      sload\n      dup2\n      0xffffffffffffffffffffffffffffffffffffffff\n      mul\n      not\n      and\n      swap1\n      dup4\n      0xffffffffffffffffffffffffffffffffffffffff\n      and\n      mul\n      or\n      swap1\n      sstore\n      pop\n      swap2\n      0x20\n      add\n      swap2\n      swap1\n      0x01\n      add\n      swap1\n      jump(tag_200)\n    tag_201:\n    tag_199:\n      pop\n      swap1\n      pop\n      tag_202\n      swap2\n      swap1\n      tag_203\n      jump\t// in\n    tag_202:\n      pop\n      swap1\n      jump\t// out\n    tag_126:\n      dup3\n      dup1\n      sload\n      dup3\n      dup3\n      sstore\n      swap1\n      0x00\n      mstore\n      keccak256(0x00, 0x20)\n      swap1\n      dup2\n      add\n      swap3\n      dup3\n      iszero\n      tag_204\n      jumpi\n      swap2\n      0x20\n      mul\n      dup3\n      add\n    tag_205:\n      dup3\n      dup2\n      gt\n      iszero\n      tag_206\n      jumpi\n      dup3\n      mload\n      dup3\n      sstore\n      swap2\n      0x20\n      add\n      swap2\n      swap1\n      0x01\n      add\n      swap1\n      jump(tag_205)\n    tag_206:\n    tag_204:\n      pop\n      swap1\n      pop\n      tag_207\n      swap2\n      swap1\n      tag_203\n      jump\t// in\n    tag_207:\n      pop\n      swap1\n      jump\t// out\n    tag_138:\n      dup3\n      dup1\n      sload\n      dup3\n      dup3\n      sstore\n      swap1\n      0x00\n      mstore\n      keccak256(0x00, 0x20)\n      swap1\n      0x1f\n      add\n      0x20\n      swap1\n      div\n      dup2\n      add\n      swap3\n      dup3\n      iszero\n      tag_208\n      jumpi\n      swap2\n      0x20\n      mul\n      dup3\n      add\n      0x00\n    tag_209:\n      dup4\n      dup3\n      gt\n      iszero\n      tag_210\n      jumpi\n      dup4\n      mload\n      dup4\n      dup3\n      0x0100\n      exp\n      dup2\n      sload\n      dup2\n      0xff\n      mul\n      not\n      and\n      swap1\n      dup4\n      0x02\n      dup2\n      gt\n      iszero\n      tag_211\n      jumpi\n      tag_212\n      tag_111\n      jump\t// in\n    tag_212:\n    tag_211:\n      mul\n      or\n      swap1\n      sstore\n      pop\n      swap3\n      0x20\n      add\n      swap3\n      0x01\n      add\n      0x20\n      dup2\n      0x00\n      add\n      div\n      swap3\n      dup4\n      add\n      swap3\n      0x01\n      sub\n      mul\n      jump(tag_209)\n    tag_210:\n      dup1\n      iszero\n      tag_213\n      jumpi\n      dup3\n      dup2\n      0x0100\n      exp\n      dup2\n      sload\n      swap1\n      0xff\n      mul\n      not\n      and\n      swap1\n      sstore\n      0x01\n      add\n      0x20\n      dup2\n      0x00\n      add\n      div\n      swap3\n      dup4\n      add\n      swap3\n      0x01\n      sub\n      mul\n      jump(tag_210)\n    tag_213:\n      pop\n    tag_208:\n      pop\n      swap1\n      pop\n      tag_214\n      swap2\n      swap1\n      tag_203\n      jump\t// in\n    tag_214:\n      pop\n      swap1\n      jump\t// out\n    tag_203:\n    tag_215:\n      dup1\n      dup3\n      gt\n      iszero\n      tag_216\n      jumpi\n      0x00\n      dup2\n      0x00\n      swap1\n      sstore\n      pop\n      0x01\n      add\n      jump(tag_215)\n    tag_216:\n      pop\n      swap1\n      jump\t// out\n        /* \"#utility.yul\":7:82   */\n    tag_217:\n        /* \"#utility.yul\":40:46   */\n      0x00\n        /* \"#utility.yul\":73:75   */\n      0x40\n        /* \"#utility.yul\":67:76   */\n      mload\n        /* \"#utility.yul\":57:76   */\n      swap1\n      pop\n        /* \"#utility.yul\":7:82   */\n      swap1\n      jump\t// out\n        /* \"#utility.yul\":88:205   */\n    tag_218:\n        /* \"#utility.yul\":197:198   */\n      0x00\n        /* \"#utility.yul\":194:195   */\n      0x00\n        /* \"#utility.yul\":187:199   */\n      revert\n        /* \"#utility.yul\":211:328   */\n    tag_219:\n        /* \"#utility.yul\":320:321   */\n      0x00\n        /* \"#utility.yul\":317:318   */\n      0x00\n        /* \"#utility.yul\":310:322   */\n      revert\n        /* \"#utility.yul\":334:411   */\n    tag_220:\n        /* \"#utility.yul\":371:378   */\n      0x00\n        /* \"#utility.yul\":400:405   */\n      dup2\n        /* \"#utility.yul\":389:405   */\n      swap1\n      pop\n        /* \"#utility.yul\":334:411   */\n      swap2\n      swap1\n      pop\n      jump\t// out\n        /* \"#utility.yul\":417:539   */\n    tag_221:\n        /* \"#utility.yul\":490:514   */\n      tag_292\n        /* \"#utility.yul\":508:513   */\n      dup2\n        /* \"#utility.yul\":490:514   */\n      tag_220\n      jump\t// in\n    tag_292:\n        /* \"#utility.yul\":483:488   */\n      dup2\n        /* \"#utility.yul\":480:515   */\n      eq\n        /* \"#utility.yul\":470:533   */\n      tag_293\n      jumpi\n        /* \"#utility.yul\":529:530   */\n      0x00\n        /* \"#utility.yul\":526:527   */\n      0x00\n        /* \"#utility.yul\":519:531   */\n      revert\n        /* \"#utility.yul\":470:533   */\n    tag_293:\n        /* \"#utility.yul\":417:539   */\n      pop\n      jump\t// out\n        /* \"#utility.yul\":545:684   */\n    tag_222:\n        /* \"#utility.yul\":591:596   */\n      0x00\n        /* \"#utility.yul\":629:635   */\n      dup2\n        /* \"#utility.yul\":616:636   */\n      calldataload\n        /* \"#utility.yul\":607:636   */\n      swap1\n      pop\n        /* \"#utility.yul\":645:678   */\n      tag_295\n        /* \"#utility.yul\":672:677   */\n      dup2\n        /* \"#utility.yul\":645:678   */\n      tag_221\n      jump\t// in\n    tag_295:\n        /* \"#utility.yul\":545:684   */\n      swap3\n      swap2\n      pop\n      pop\n      jump\t// out\n        /* \"#utility.yul\":690:1164   */\n    tag_16:\n        /* \"#utility.yul\":758:764   */\n      0x00\n        /* \"#utility.yul\":766:772   */\n      0x00\n        /* \"#utility.yul\":815:817   */\n      0x40\n        /* \"#utility.yul\":803:812   */\n      dup4\n        /* \"#utility.yul\":794:801   */\n      dup6\n        /* \"#utility.yul\":790:813   */\n      sub\n        /* \"#utility.yul\":786:818   */\n      slt\n        /* \"#utility.yul\":783:902   */\n      iszero\n      tag_297\n      jumpi\n        /* \"#utility.yul\":821:900   */\n      tag_298\n      tag_218\n      jump\t// in\n    tag_298:\n        /* \"#utility.yul\":783:902   */\n    tag_297:\n        /* \"#utility.yul\":941:942   */\n      0x00\n        /* \"#utility.yul\":966:1019   */\n      tag_299\n        /* \"#utility.yul\":1011:1018   */\n      dup6\n        /* \"#utility.yul\":1002:1008   */\n      dup3\n        /* \"#utility.yul\":991:1000   */\n      dup7\n        /* \"#utility.yul\":987:1009   */\n      add\n        /* \"#utility.yul\":966:1019   */\n      tag_222\n      jump\t// in\n    tag_299:\n        /* \"#utility.yul\":956:1019   */\n      swap3\n      pop\n        /* \"#utility.yul\":912:1029   */\n      pop\n        /* \"#utility.yul\":1068:1070   */\n      0x20\n        /* \"#utility.yul\":1094:1147   */\n      tag_300\n        /* \"#utility.yul\":1139:1146   */\n      dup6\n        /* \"#utility.yul\":1130:1136   */\n      dup3\n        /* \"#utility.yul\":1119:1128   */\n      dup7\n        /* \"#utility.yul\":1115:1137   */\n      add\n        /* \"#utility.yul\":1094:1147   */\n      tag_222\n      jump\t// in\n    tag_300:\n        /* \"#utility.yul\":1084:1147   */\n      swap2\n      pop\n        /* \"#utility.yul\":1039:1157   */\n      pop\n        /* \"#utility.yul\":690:1164   */\n      swap3\n      pop\n      swap3\n      swap1\n      pop\n      jump\t// out\n        /* \"#utility.yul\":1170:1260   */\n    tag_223:\n        /* \"#utility.yul\":1204:1211   */\n      0x00\n        /* \"#utility.yul\":1247:1252   */\n      dup2\n        /* \"#utility.yul\":1240:1253   */\n      iszero\n        /* \"#utility.yul\":1233:1254   */\n      iszero\n        /* \"#utility.yul\":1222:1254   */\n      swap1\n      pop\n        /* \"#utility.yul\":1170:1260   */\n      swap2\n      swap1\n      pop\n      jump\t// out\n        /* \"#utility.yul\":1266:1375   */\n    tag_224:\n        /* \"#utility.yul\":1347:1368   */\n      tag_303\n        /* \"#utility.yul\":1362:1367   */\n      dup2\n        /* \"#utility.yul\":1347:1368   */\n      tag_223\n      jump\t// in\n    tag_303:\n        /* \"#utility.yul\":1342:1345   */\n      dup3\n        /* \"#utility.yul\":1335:1369   */\n      mstore\n        /* \"#utility.yul\":1266:1375   */\n      pop\n      pop\n      jump\t// out\n        /* \"#utility.yul\":1381:1591   */\n    tag_19:\n        /* \"#utility.yul\":1468:1472   */\n      0x00\n        /* \"#utility.yul\":1506:1508   */\n      0x20\n        /* \"#utility.yul\":1495:1504   */\n      dup3\n        /* \"#utility.yul\":1491:1509   */\n      add\n        /* \"#utility.yul\":1483:1509   */\n      swap1\n      pop\n        /* \"#utility.yul\":1519:1584   */\n      tag_305\n        /* \"#utility.yul\":1581:1582   */\n      0x00\n        /* \"#utility.yul\":1570:1579   */\n      dup4\n        /* \"#utility.yul\":1566:1583   */\n      add\n        /* \"#utility.yul\":1557:1563   */\n      dup5\n        /* \"#utility.yul\":1519:1584   */\n      tag_224\n      jump\t// in\n    tag_305:\n        /* \"#utility.yul\":1381:1591   */\n      swap3\n      swap2\n      pop\n      pop\n      jump\t// out\n        /* \"#utility.yul\":1597:1723   */\n    tag_225:\n        /* \"#utility.yul\":1634:1641   */\n      0x00\n        /* \"#utility.yul\":1674:1716   */\n      0xffffffffffffffffffffffffffffffffffffffff\n        /* \"#utility.yul\":1667:1672   */\n      dup3\n        /* \"#utility.yul\":1663:1717   */\n      and\n        /* \"#utility.yul\":1652:1717   */\n      swap1\n      pop\n        /* \"#utility.yul\":1597:1723   */\n      swap2\n      swap1\n      pop\n      jump\t// out\n        /* \"#utility.yul\":1729:1825   */\n    tag_226:\n        /* \"#utility.yul\":1766:1773   */\n      0x00\n        /* \"#utility.yul\":1795:1819   */\n      tag_308\n        /* \"#utility.yul\":1813:1818   */\n      dup3\n        /* \"#utility.yul\":1795:1819   */\n      tag_225\n      jump\t// in\n    tag_308:\n        /* \"#utility.yul\":1784:1819   */\n      swap1\n      pop\n        /* \"#utility.yul\":1729:1825   */\n      swap2\n      swap1\n      pop\n      jump\t// out\n        /* \"#utility.yul\":1831:1953   */\n    tag_227:\n        /* \"#utility.yul\":1904:1928   */\n      tag_310\n        /* \"#utility.yul\":1922:1927   */\n      dup2\n        /* \"#utility.yul\":1904:1928   */\n      tag_226\n      jump\t// in\n    tag_310:\n        /* \"#utility.yul\":1897:1902   */\n      dup2\n        /* \"#utility.yul\":1894:1929   */\n      eq\n        /* \"#utility.yul\":1884:1947   */\n      tag_311\n      jumpi\n        /* \"#utility.yul\":1943:1944   */\n      0x00\n        /* \"#utility.yul\":1940:1941   */\n      0x00\n        /* \"#utility.yul\":1933:1945   */\n      revert\n        /* \"#utility.yul\":1884:1947   */\n    tag_311:\n        /* \"#utility.yul\":1831:1953   */\n      pop\n      jump\t// out\n        /* \"#utility.yul\":1959:2098   */\n    tag_228:\n        /* \"#utility.yul\":2005:2010   */\n      0x00\n        /* \"#utility.yul\":2043:2049   */\n      dup2\n        /* \"#utility.yul\":2030:2050   */\n      calldataload\n        /* \"#utility.yul\":2021:2050   */\n      swap1\n      pop\n        /* \"#utility.yul\":2059:2092   */\n      tag_313\n        /* \"#utility.yul\":2086:2091   */\n      dup2\n        /* \"#utility.yul\":2059:2092   */\n      tag_227\n      jump\t// in\n    tag_313:\n        /* \"#utility.yul\":1959:2098   */\n      swap3\n      swap2\n      pop\n      pop\n      jump\t// out\n        /* \"#utility.yul\":2104:2433   */\n    tag_22:\n        /* \"#utility.yul\":2163:2169   */\n      0x00\n        /* \"#utility.yul\":2212:2214   */\n      0x20\n        /* \"#utility.yul\":2200:2209   */\n      dup3\n        /* \"#utility.yul\":2191:2198   */\n      dup5\n        /* \"#utility.yul\":2187:2210   */\n      sub\n        /* \"#utility.yul\":2183:2215   */\n      slt\n        /* \"#utility.yul\":2180:2299   */\n      iszero\n      tag_315\n      jumpi\n        /* \"#utility.yul\":2218:2297   */\n      tag_316\n      tag_218\n      jump\t// in\n    tag_316:\n        /* \"#utility.yul\":2180:2299   */\n    tag_315:\n        /* \"#utility.yul\":2338:2339   */\n      0x00\n        /* \"#utility.yul\":2363:2416   */\n      tag_317\n        /* \"#utility.yul\":2408:2415   */\n      dup5\n        /* \"#utility.yul\":2399:2405   */\n      dup3\n        /* \"#utility.yul\":2388:2397   */\n      dup6\n        /* \"#utility.yul\":2384:2406   */\n      add\n        /* \"#utility.yul\":2363:2416   */\n      tag_228\n      jump\t// in\n    tag_317:\n        /* \"#utility.yul\":2353:2416   */\n      swap2\n      pop\n        /* \"#utility.yul\":2309:2426   */\n      pop\n        /* \"#utility.yul\":2104:2433   */\n      swap3\n      swap2\n      pop\n      pop\n      jump\t// out\n        /* \"#utility.yul\":2439:2557   */\n    tag_229:\n        /* \"#utility.yul\":2526:2550   */\n      tag_319\n        /* \"#utility.yul\":2544:2549   */\n      dup2\n        /* \"#utility.yul\":2526:2550   */\n      tag_220\n      jump\t// in\n    tag_319:\n        /* \"#utility.yul\":2521:2524   */\n      dup3\n        /* \"#utility.yul\":2514:2551   */\n      mstore\n        /* \"#utility.yul\":2439:2557   */\n      pop\n      pop\n      jump\t// out\n        /* \"#utility.yul\":2563:2785   */\n    tag_25:\n        /* \"#utility.yul\":2656:2660   */\n      0x00\n        /* \"#utility.yul\":2694:2696   */\n      0x20\n        /* \"#utility.yul\":2683:2692   */\n      dup3\n        /* \"#utility.yul\":2679:2697   */\n      add\n        /* \"#utility.yul\":2671:2697   */\n      swap1\n      pop\n        /* \"#utility.yul\":2707:2778   */\n      tag_321\n        /* \"#utility.yul\":2775:2776   */\n      0x00\n        /* \"#utility.yul\":2764:2773   */\n      dup4\n        /* \"#utility.yul\":2760:2777   */\n      add\n        /* \"#utility.yul\":2751:2757   */\n      dup5\n        /* \"#utility.yul\":2707:2778   */\n      tag_229\n      jump\t// in\n    tag_321:\n        /* \"#utility.yul\":2563:2785   */\n      swap3\n      swap2\n      pop\n      pop\n      jump\t// out\n        /* \"#utility.yul\":2791:3265   */\n    tag_28:\n        /* \"#utility.yul\":2859:2865   */\n      0x00\n        /* \"#utility.yul\":2867:2873   */\n      0x00\n        /* \"#utility.yul\":2916:2918   */\n      0x40\n        /* \"#utility.yul\":2904:2913   */\n      dup4\n        /* \"#utility.yul\":2895:2902   */\n      dup6\n        /* \"#utility.yul\":2891:2914   */\n      sub\n        /* \"#utility.yul\":2887:2919   */\n      slt\n        /* \"#utility.yul\":2884:3003   */\n      iszero\n      tag_323\n      jumpi\n        /* \"#utility.yul\":2922:3001   */\n      tag_324\n      tag_218\n      jump\t// in\n    tag_324:\n        /* \"#utility.yul\":2884:3003   */\n    tag_323:\n        /* \"#utility.yul\":3042:3043   */\n      0x00\n        /* \"#utility.yul\":3067:3120   */\n      tag_325\n        /* \"#utility.yul\":3112:3119   */\n      dup6\n        /* \"#utility.yul\":3103:3109   */\n      dup3\n        /* \"#utility.yul\":3092:3101   */\n      dup7\n        /* \"#utility.yul\":3088:3110   */\n      add\n        /* \"#utility.yul\":3067:3120   */\n      tag_228\n      jump\t// in\n    tag_325:\n        /* \"#utility.yul\":3057:3120   */\n      swap3\n      pop\n        /* \"#utility.yul\":3013:3130   */\n      pop\n        /* \"#utility.yul\":3169:3171   */\n      0x20\n        /* \"#utility.yul\":3195:3248   */\n      tag_326\n        /* \"#utility.yul\":3240:3247   */\n      dup6\n        /* \"#utility.yul\":3231:3237   */\n      dup3\n        /* \"#utility.yul\":3220:3229   */\n      dup7\n        /* \"#utility.yul\":3216:3238   */\n      add\n        /* \"#utility.yul\":3195:3248   */\n      tag_222\n      jump\t// in\n    tag_326:\n        /* \"#utility.yul\":3185:3248   */\n      swap2\n      pop\n        /* \"#utility.yul\":3140:3258   */\n      pop\n        /* \"#utility.yul\":2791:3265   */\n      swap3\n      pop\n      swap3\n      swap1\n      pop\n      jump\t// out\n        /* \"#utility.yul\":3271:3451   */\n    tag_111:\n        /* \"#utility.yul\":3319:3396   */\n      0x4e487b7100000000000000000000000000000000000000000000000000000000\n        /* \"#utility.yul\":3316:3317   */\n      0x00\n        /* \"#utility.yul\":3309:3397   */\n      mstore\n        /* \"#utility.yul\":3416:3420   */\n      0x21\n        /* \"#utility.yul\":3413:3414   */\n      0x04\n        /* \"#utility.yul\":3406:3421   */\n      mstore\n        /* \"#utility.yul\":3440:3444   */\n      0x24\n        /* \"#utility.yul\":3437:3438   */\n      0x00\n        /* \"#utility.yul\":3430:3445   */\n      revert\n        /* \"#utility.yul\":3457:3572   */\n    tag_230:\n        /* \"#utility.yul\":3540:3541   */\n      0x03\n        /* \"#utility.yul\":3533:3538   */\n      dup2\n        /* \"#utility.yul\":3530:3542   */\n      lt\n        /* \"#utility.yul\":3520:3566   */\n      tag_329\n      jumpi\n        /* \"#utility.yul\":3546:3564   */\n      tag_330\n      tag_111\n      jump\t// in\n    tag_330:\n        /* \"#utility.yul\":3520:3566   */\n    tag_329:\n        /* \"#utility.yul\":3457:3572   */\n      pop\n      jump\t// out\n        /* \"#utility.yul\":3578:3709   */\n    tag_231:\n        /* \"#utility.yul\":3625:3632   */\n      0x00\n        /* \"#utility.yul\":3654:3659   */\n      dup2\n        /* \"#utility.yul\":3643:3659   */\n      swap1\n      pop\n        /* \"#utility.yul\":3660:3703   */\n      tag_332\n        /* \"#utility.yul\":3697:3702   */\n      dup3\n        /* \"#utility.yul\":3660:3703   */\n      tag_230\n      jump\t// in\n    tag_332:\n        /* \"#utility.yul\":3578:3709   */\n      swap2\n      swap1\n      pop\n      jump\t// out\n        /* \"#utility.yul\":3715:3846   */\n    tag_232:\n        /* \"#utility.yul\":3773:3782   */\n      0x00\n        /* \"#utility.yul\":3806:3840   */\n      tag_334\n        /* \"#utility.yul\":3834:3839   */\n      dup3\n        /* \"#utility.yul\":3806:3840   */\n      tag_231\n      jump\t// in\n    tag_334:\n        /* \"#utility.yul\":3793:3840   */\n      swap1\n      pop\n        /* \"#utility.yul\":3715:3846   */\n      swap2\n      swap1\n      pop\n      jump\t// out\n        /* \"#utility.yul\":3852:3999   */\n    tag_233:\n        /* \"#utility.yul\":3947:3992   */\n      tag_336\n        /* \"#utility.yul\":3986:3991   */\n      dup2\n        /* \"#utility.yul\":3947:3992   */\n      tag_232\n      jump\t// in\n    tag_336:\n        /* \"#utility.yul\":3942:3945   */\n      dup3\n        /* \"#utility.yul\":3935:3993   */\n      mstore\n        /* \"#utility.yul\":3852:3999   */\n      pop\n      pop\n      jump\t// out\n        /* \"#utility.yul\":4005:4243   */\n    tag_31:\n        /* \"#utility.yul\":4106:4110   */\n      0x00\n        /* \"#utility.yul\":4144:4146   */\n      0x20\n        /* \"#utility.yul\":4133:4142   */\n      dup3\n        /* \"#utility.yul\":4129:4147   */\n      add\n        /* \"#utility.yul\":4121:4147   */\n      swap1\n      pop\n        /* \"#utility.yul\":4157:4236   */\n      tag_338\n        /* \"#utility.yul\":4233:4234   */\n      0x00\n        /* \"#utility.yul\":4222:4231   */\n      dup4\n        /* \"#utility.yul\":4218:4235   */\n      add\n        /* \"#utility.yul\":4209:4215   */\n      dup5\n        /* \"#utility.yul\":4157:4236   */\n      tag_233\n      jump\t// in\n    tag_338:\n        /* \"#utility.yul\":4005:4243   */\n      swap3\n      swap2\n      pop\n      pop\n      jump\t// out\n        /* \"#utility.yul\":4249:4366   */\n    tag_234:\n        /* \"#utility.yul\":4358:4359   */\n      0x00\n        /* \"#utility.yul\":4355:4356   */\n      0x00\n        /* \"#utility.yul\":4348:4360   */\n      revert\n        /* \"#utility.yul\":4372:4489   */\n    tag_235:\n        /* \"#utility.yul\":4481:4482   */\n      0x00\n        /* \"#utility.yul\":4478:4479   */\n      0x00\n        /* \"#utility.yul\":4471:4483   */\n      revert\n        /* \"#utility.yul\":4495:4597   */\n    tag_236:\n        /* \"#utility.yul\":4536:4542   */\n      0x00\n        /* \"#utility.yul\":4587:4589   */\n      0x1f\n        /* \"#utility.yul\":4583:4590   */\n      not\n        /* \"#utility.yul\":4578:4580   */\n      0x1f\n        /* \"#utility.yul\":4571:4576   */\n      dup4\n        /* \"#utility.yul\":4567:4581   */\n      add\n        /* \"#utility.yul\":4563:4591   */\n      and\n        /* \"#utility.yul\":4553:4591   */\n      swap1\n      pop\n        /* \"#utility.yul\":4495:4597   */\n      swap2\n      swap1\n      pop\n      jump\t// out\n        /* \"#utility.yul\":4603:4783   */\n    tag_114:\n        /* \"#utility.yul\":4651:4728   */\n      0x4e487b7100000000000000000000000000000000000000000000000000000000\n        /* \"#utility.yul\":4648:4649   */\n      0x00\n        /* \"#utility.yul\":4641:4729   */\n      mstore\n        /* \"#utility.yul\":4748:4752   */\n      0x41\n        /* \"#utility.yul\":4745:4746   */\n      0x04\n        /* \"#utility.yul\":4738:4753   */\n      mstore\n        /* \"#utility.yul\":4772:4776   */\n      0x24\n        /* \"#utility.yul\":4769:4770   */\n      0x00\n        /* \"#utility.yul\":4762:4777   */\n      revert\n        /* \"#utility.yul\":4789:5070   */\n    tag_237:\n        /* \"#utility.yul\":4872:4899   */\n      tag_344\n        /* \"#utility.yul\":4894:4898   */\n      dup3\n        /* \"#utility.yul\":4872:4899   */\n      tag_236\n      jump\t// in\n    tag_344:\n        /* \"#utility.yul\":4864:4870   */\n      dup2\n        /* \"#utility.yul\":4860:4900   */\n      add\n        /* \"#utility.yul\":5002:5008   */\n      dup2\n        /* \"#utility.yul\":4990:5000   */\n      dup2\n        /* \"#utility.yul\":4987:5009   */\n      lt\n        /* \"#utility.yul\":4966:4984   */\n      0xffffffffffffffff\n        /* \"#utility.yul\":4954:4964   */\n      dup3\n        /* \"#utility.yul\":4951:4985   */\n      gt\n        /* \"#utility.yul\":4948:5010   */\n      or\n        /* \"#utility.yul\":4945:5033   */\n      iszero\n      tag_345\n      jumpi\n        /* \"#utility.yul\":5013:5031   */\n      tag_346\n      tag_114\n      jump\t// in\n    tag_346:\n        /* \"#utility.yul\":4945:5033   */\n    tag_345:\n        /* \"#utility.yul\":5053:5063   */\n      dup1\n        /* \"#utility.yul\":5049:5051   */\n      0x40\n        /* \"#utility.yul\":5042:5064   */\n      mstore\n        /* \"#utility.yul\":4832:5070   */\n      pop\n        /* \"#utility.yul\":4789:5070   */\n      pop\n      pop\n      jump\t// out\n        /* \"#utility.yul\":5076:5205   */\n    tag_238:\n        /* \"#utility.yul\":5110:5116   */\n      0x00\n        /* \"#utility.yul\":5137:5157   */\n      tag_348\n      tag_217\n      jump\t// in\n    tag_348:\n        /* \"#utility.yul\":5127:5157   */\n      swap1\n      pop\n        /* \"#utility.yul\":5166:5199   */\n      tag_349\n        /* \"#utility.yul\":5194:5198   */\n      dup3\n        /* \"#utility.yul\":5186:5192   */\n      dup3\n        /* \"#utility.yul\":5166:5199   */\n      tag_237\n      jump\t// in\n    tag_349:\n        /* \"#utility.yul\":5076:5205   */\n      swap2\n      swap1\n      pop\n      jump\t// out\n        /* \"#utility.yul\":5211:5519   */\n    tag_239:\n        /* \"#utility.yul\":5273:5277   */\n      0x00\n        /* \"#utility.yul\":5363:5381   */\n      0xffffffffffffffff\n        /* \"#utility.yul\":5355:5361   */\n      dup3\n        /* \"#utility.yul\":5352:5382   */\n      gt\n        /* \"#utility.yul\":5349:5405   */\n      iszero\n      tag_351\n      jumpi\n        /* \"#utility.yul\":5385:5403   */\n      tag_352\n      tag_114\n      jump\t// in\n    tag_352:\n        /* \"#utility.yul\":5349:5405   */\n    tag_351:\n        /* \"#utility.yul\":5423:5452   */\n      tag_353\n        /* \"#utility.yul\":5445:5451   */\n      dup3\n        /* \"#utility.yul\":5423:5452   */\n      tag_236\n      jump\t// in\n    tag_353:\n        /* \"#utility.yul\":5415:5452   */\n      swap1\n      pop\n        /* \"#utility.yul\":5507:5511   */\n      0x20\n        /* \"#utility.yul\":5501:5505   */\n      dup2\n        /* \"#utility.yul\":5497:5512   */\n      add\n        /* \"#utility.yul\":5489:5512   */\n      swap1\n      pop\n        /* \"#utility.yul\":5211:5519   */\n      swap2\n      swap1\n      pop\n      jump\t// out\n        /* \"#utility.yul\":5525:5673   */\n    tag_240:\n        /* \"#utility.yul\":5623:5629   */\n      dup3\n        /* \"#utility.yul\":5618:5621   */\n      dup2\n        /* \"#utility.yul\":5613:5616   */\n      dup4\n        /* \"#utility.yul\":5600:5630   */\n      calldatacopy\n        /* \"#utility.yul\":5664:5665   */\n      0x00\n        /* \"#utility.yul\":5655:5661   */\n      dup4\n        /* \"#utility.yul\":5650:5653   */\n      dup4\n        /* \"#utility.yul\":5646:5662   */\n      add\n        /* \"#utility.yul\":5639:5666   */\n      mstore\n        /* \"#utility.yul\":5525:5673   */\n      pop\n      pop\n      pop\n      jump\t// out\n        /* \"#utility.yul\":5679:6104   */\n    tag_241:\n        /* \"#utility.yul\":5757:5762   */\n      0x00\n        /* \"#utility.yul\":5782:5848   */\n      tag_356\n        /* \"#utility.yul\":5798:5847   */\n      tag_357\n        /* \"#utility.yul\":5840:5846   */\n      dup5\n        /* \"#utility.yul\":5798:5847   */\n      tag_239\n      jump\t// in\n    tag_357:\n        /* \"#utility.yul\":5782:5848   */\n      tag_238\n      jump\t// in\n    tag_356:\n        /* \"#utility.yul\":5773:5848   */\n      swap1\n      pop\n        /* \"#utility.yul\":5871:5877   */\n      dup3\n        /* \"#utility.yul\":5864:5869   */\n      dup2\n        /* \"#utility.yul\":5857:5878   */\n      mstore\n        /* \"#utility.yul\":5909:5913   */\n      0x20\n        /* \"#utility.yul\":5902:5907   */\n      dup2\n        /* \"#utility.yul\":5898:5914   */\n      add\n        /* \"#utility.yul\":5947:5950   */\n      dup5\n        /* \"#utility.yul\":5938:5944   */\n      dup5\n        /* \"#utility.yul\":5933:5936   */\n      dup5\n        /* \"#utility.yul\":5929:5945   */\n      add\n        /* \"#utility.yul\":5926:5951   */\n      gt\n        /* \"#utility.yul\":5923:6035   */\n      iszero\n      tag_358\n      jumpi\n        /* \"#utility.yul\":5954:6033   */\n      tag_359\n      tag_235\n      jump\t// in\n    tag_359:\n        /* \"#utility.yul\":5923:6035   */\n    tag_358:\n        /* \"#utility.yul\":6044:6098   */\n      tag_360\n        /* \"#utility.yul\":6091:6097   */\n      dup5\n        /* \"#utility.yul\":6086:6089   */\n      dup3\n        /* \"#utility.yul\":6081:6084   */\n      dup6\n        /* \"#utility.yul\":6044:6098   */\n      tag_240\n      jump\t// in\n    tag_360:\n        /* \"#utility.yul\":5763:6104   */\n      pop\n        /* \"#utility.yul\":5679:6104   */\n      swap4\n      swap3\n      pop\n      pop\n      pop\n      jump\t// out\n        /* \"#utility.yul\":6124:6464   */\n    tag_242:\n        /* \"#utility.yul\":6180:6185   */\n      0x00\n        /* \"#utility.yul\":6229:6232   */\n      dup3\n        /* \"#utility.yul\":6222:6226   */\n      0x1f\n        /* \"#utility.yul\":6214:6220   */\n      dup4\n        /* \"#utility.yul\":6210:6227   */\n      add\n        /* \"#utility.yul\":6206:6233   */\n      slt\n        /* \"#utility.yul\":6196:6318   */\n      tag_362\n      jumpi\n        /* \"#utility.yul\":6237:6316   */\n      tag_363\n      tag_234\n      jump\t// in\n    tag_363:\n        /* \"#utility.yul\":6196:6318   */\n    tag_362:\n        /* \"#utility.yul\":6354:6360   */\n      dup2\n        /* \"#utility.yul\":6341:6361   */\n      calldataload\n        /* \"#utility.yul\":6379:6458   */\n      tag_364\n        /* \"#utility.yul\":6454:6457   */\n      dup5\n        /* \"#utility.yul\":6446:6452   */\n      dup3\n        /* \"#utility.yul\":6439:6443   */\n      0x20\n        /* \"#utility.yul\":6431:6437   */\n      dup7\n        /* \"#utility.yul\":6427:6444   */\n      add\n        /* \"#utility.yul\":6379:6458   */\n      tag_241\n      jump\t// in\n    tag_364:\n        /* \"#utility.yul\":6370:6458   */\n      swap2\n      pop\n        /* \"#utility.yul\":6186:6464   */\n      pop\n        /* \"#utility.yul\":6124:6464   */\n      swap3\n      swap2\n      pop\n      pop\n      jump\t// out\n        /* \"#utility.yul\":6470:6579   */\n    tag_243:\n        /* \"#utility.yul\":6553:6554   */\n      0x03\n        /* \"#utility.yul\":6546:6551   */\n      dup2\n        /* \"#utility.yul\":6543:6555   */\n      lt\n        /* \"#utility.yul\":6533:6573   */\n      tag_366\n      jumpi\n        /* \"#utility.yul\":6569:6570   */\n      0x00\n        /* \"#utility.yul\":6566:6567   */\n      0x00\n        /* \"#utility.yul\":6559:6571   */\n      revert\n        /* \"#utility.yul\":6533:6573   */\n    tag_366:\n        /* \"#utility.yul\":6470:6579   */\n      pop\n      jump\t// out\n        /* \"#utility.yul\":6585:6744   */\n    tag_244:\n        /* \"#utility.yul\":6641:6646   */\n      0x00\n        /* \"#utility.yul\":6679:6685   */\n      dup2\n        /* \"#utility.yul\":6666:6686   */\n      calldataload\n        /* \"#utility.yul\":6657:6686   */\n      swap1\n      pop\n        /* \"#utility.yul\":6695:6738   */\n      tag_368\n        /* \"#utility.yul\":6732:6737   */\n      dup2\n        /* \"#utility.yul\":6695:6738   */\n      tag_243\n      jump\t// in\n    tag_368:\n        /* \"#utility.yul\":6585:6744   */\n      swap3\n      swap2\n      pop\n      pop\n      jump\t// out\n        /* \"#utility.yul\":6750:7569   */\n    tag_34:\n        /* \"#utility.yul\":6847:6853   */\n      0x00\n        /* \"#utility.yul\":6855:6861   */\n      0x00\n        /* \"#utility.yul\":6863:6869   */\n      0x00\n        /* \"#utility.yul\":6912:6914   */\n      0x60\n        /* \"#utility.yul\":6900:6909   */\n      dup5\n        /* \"#utility.yul\":6891:6898   */\n      dup7\n        /* \"#utility.yul\":6887:6910   */\n      sub\n        /* \"#utility.yul\":6883:6915   */\n      slt\n        /* \"#utility.yul\":6880:6999   */\n      iszero\n      tag_370\n      jumpi\n        /* \"#utility.yul\":6918:6997   */\n      tag_371\n      tag_218\n      jump\t// in\n    tag_371:\n        /* \"#utility.yul\":6880:6999   */\n    tag_370:\n        /* \"#utility.yul\":7066:7067   */\n      0x00\n        /* \"#utility.yul\":7055:7064   */\n      dup5\n        /* \"#utility.yul\":7051:7068   */\n      add\n        /* \"#utility.yul\":7038:7069   */\n      calldataload\n        /* \"#utility.yul\":7096:7114   */\n      0xffffffffffffffff\n        /* \"#utility.yul\":7088:7094   */\n      dup2\n        /* \"#utility.yul\":7085:7115   */\n      gt\n        /* \"#utility.yul\":7082:7199   */\n      iszero\n      tag_372\n      jumpi\n        /* \"#utility.yul\":7118:7197   */\n      tag_373\n      tag_219\n      jump\t// in\n    tag_373:\n        /* \"#utility.yul\":7082:7199   */\n    tag_372:\n        /* \"#utility.yul\":7223:7286   */\n      tag_374\n        /* \"#utility.yul\":7278:7285   */\n      dup7\n        /* \"#utility.yul\":7269:7275   */\n      dup3\n        /* \"#utility.yul\":7258:7267   */\n      dup8\n        /* \"#utility.yul\":7254:7276   */\n      add\n        /* \"#utility.yul\":7223:7286   */\n      tag_242\n      jump\t// in\n    tag_374:\n        /* \"#utility.yul\":7213:7286   */\n      swap4\n      pop\n        /* \"#utility.yul\":7009:7296   */\n      pop\n        /* \"#utility.yul\":7335:7337   */\n      0x20\n        /* \"#utility.yul\":7361:7424   */\n      tag_375\n        /* \"#utility.yul\":7416:7423   */\n      dup7\n        /* \"#utility.yul\":7407:7413   */\n      dup3\n        /* \"#utility.yul\":7396:7405   */\n      dup8\n        /* \"#utility.yul\":7392:7414   */\n      add\n        /* \"#utility.yul\":7361:7424   */\n      tag_244\n      jump\t// in\n    tag_375:\n        /* \"#utility.yul\":7351:7424   */\n      swap3\n      pop\n        /* \"#utility.yul\":7306:7434   */\n      pop\n        /* \"#utility.yul\":7473:7475   */\n      0x40\n        /* \"#utility.yul\":7499:7552   */\n      tag_376\n        /* \"#utility.yul\":7544:7551   */\n      dup7\n        /* \"#utility.yul\":7535:7541   */\n      dup3\n        /* \"#utility.yul\":7524:7533   */\n      dup8\n        /* \"#utility.yul\":7520:7542   */\n      add\n        /* \"#utility.yul\":7499:7552   */\n      tag_222\n      jump\t// in\n    tag_376:\n        /* \"#utility.yul\":7489:7552   */\n      swap2\n      pop\n        /* \"#utility.yul\":7444:7562   */\n      pop\n        /* \"#utility.yul\":6750:7569   */\n      swap3\n      pop\n      swap3\n      pop\n      swap3\n      jump\t// out\n        /* \"#utility.yul\":7575:7904   */\n    tag_45:\n        /* \"#utility.yul\":7634:7640   */\n      0x00\n        /* \"#utility.yul\":7683:7685   */\n      0x20\n        /* \"#utility.yul\":7671:7680   */\n      dup3\n        /* \"#utility.yul\":7662:7669   */\n      dup5\n        /* \"#utility.yul\":7658:7681   */\n      sub\n        /* \"#utility.yul\":7654:7686   */\n      slt\n        /* \"#utility.yul\":7651:7770   */\n      iszero\n      tag_378\n      jumpi\n        /* \"#utility.yul\":7689:7768   */\n      tag_379\n      tag_218\n      jump\t// in\n    tag_379:\n        /* \"#utility.yul\":7651:7770   */\n    tag_378:\n        /* \"#utility.yul\":7809:7810   */\n      0x00\n        /* \"#utility.yul\":7834:7887   */\n      tag_380\n        /* \"#utility.yul\":7879:7886   */\n      dup5\n        /* \"#utility.yul\":7870:7876   */\n      dup3\n        /* \"#utility.yul\":7859:7868   */\n      dup6\n        /* \"#utility.yul\":7855:7877   */\n      add\n        /* \"#utility.yul\":7834:7887   */\n      tag_222\n      jump\t// in\n    tag_380:\n        /* \"#utility.yul\":7824:7887   */\n      swap2\n      pop\n        /* \"#utility.yul\":7780:7897   */\n      pop\n        /* \"#utility.yul\":7575:7904   */\n      swap3\n      swap2\n      pop\n      pop\n      jump\t// out\n        /* \"#utility.yul\":7910:8028   */\n    tag_245:\n        /* \"#utility.yul\":7997:8021   */\n      tag_382\n        /* \"#utility.yul\":8015:8020   */\n      dup2\n        /* \"#utility.yul\":7997:8021   */\n      tag_226\n      jump\t// in\n    tag_382:\n        /* \"#utility.yul\":7992:7995   */\n      dup3\n        /* \"#utility.yul\":7985:8022   */\n      mstore\n        /* \"#utility.yul\":7910:8028   */\n      pop\n      pop\n      jump\t// out\n        /* \"#utility.yul\":8034:8256   */\n    tag_48:\n        /* \"#utility.yul\":8127:8131   */\n      0x00\n        /* \"#utility.yul\":8165:8167   */\n      0x20\n        /* \"#utility.yul\":8154:8163   */\n      dup3\n        /* \"#utility.yul\":8150:8168   */\n      add\n        /* \"#utility.yul\":8142:8168   */\n      swap1\n      pop\n        /* \"#utility.yul\":8178:8249   */\n      tag_384\n        /* \"#utility.yul\":8246:8247   */\n      0x00\n        /* \"#utility.yul\":8235:8244   */\n      dup4\n        /* \"#utility.yul\":8231:8248   */\n      add\n        /* \"#utility.yul\":8222:8228   */\n      dup5\n        /* \"#utility.yul\":8178:8249   */\n      tag_245\n      jump\t// in\n    tag_384:\n        /* \"#utility.yul\":8034:8256   */\n      swap3\n      swap2\n      pop\n      pop\n      jump\t// out\n        /* \"#utility.yul\":8262:8583   */\n    tag_246:\n        /* \"#utility.yul\":8349:8353   */\n      0x00\n        /* \"#utility.yul\":8439:8457   */\n      0xffffffffffffffff\n        /* \"#utility.yul\":8431:8437   */\n      dup3\n        /* \"#utility.yul\":8428:8458   */\n      gt\n        /* \"#utility.yul\":8425:8481   */\n      iszero\n      tag_386\n      jumpi\n        /* \"#utility.yul\":8461:8479   */\n      tag_387\n      tag_114\n      jump\t// in\n    tag_387:\n        /* \"#utility.yul\":8425:8481   */\n    tag_386:\n        /* \"#utility.yul\":8511:8515   */\n      0x20\n        /* \"#utility.yul\":8503:8509   */\n      dup3\n        /* \"#utility.yul\":8499:8516   */\n      mul\n        /* \"#utility.yul\":8491:8516   */\n      swap1\n      pop\n        /* \"#utility.yul\":8571:8575   */\n      0x20\n        /* \"#utility.yul\":8565:8569   */\n      dup2\n        /* \"#utility.yul\":8561:8576   */\n      add\n        /* \"#utility.yul\":8553:8576   */\n      swap1\n      pop\n        /* \"#utility.yul\":8262:8583   */\n      swap2\n      swap1\n      pop\n      jump\t// out\n        /* \"#utility.yul\":8589:8706   */\n    tag_247:\n        /* \"#utility.yul\":8698:8699   */\n      0x00\n        /* \"#utility.yul\":8695:8696   */\n      0x00\n        /* \"#utility.yul\":8688:8700   */\n      revert\n        /* \"#utility.yul\":8744:9484   */\n    tag_248:\n        /* \"#utility.yul\":8850:8855   */\n      0x00\n        /* \"#utility.yul\":8875:8966   */\n      tag_390\n        /* \"#utility.yul\":8891:8965   */\n      tag_391\n        /* \"#utility.yul\":8958:8964   */\n      dup5\n        /* \"#utility.yul\":8891:8965   */\n      tag_246\n      jump\t// in\n    tag_391:\n        /* \"#utility.yul\":8875:8966   */\n      tag_238\n      jump\t// in\n    tag_390:\n        /* \"#utility.yul\":8866:8966   */\n      swap1\n      pop\n        /* \"#utility.yul\":8986:8991   */\n      dup1\n        /* \"#utility.yul\":9015:9021   */\n      dup4\n        /* \"#utility.yul\":9008:9013   */\n      dup3\n        /* \"#utility.yul\":9001:9022   */\n      mstore\n        /* \"#utility.yul\":9049:9053   */\n      0x20\n        /* \"#utility.yul\":9042:9047   */\n      dup3\n        /* \"#utility.yul\":9038:9054   */\n      add\n        /* \"#utility.yul\":9031:9054   */\n      swap1\n      pop\n        /* \"#utility.yul\":9102:9106   */\n      0x20\n        /* \"#utility.yul\":9094:9100   */\n      dup5\n        /* \"#utility.yul\":9090:9107   */\n      mul\n        /* \"#utility.yul\":9082:9088   */\n      dup4\n        /* \"#utility.yul\":9078:9108   */\n      add\n        /* \"#utility.yul\":9131:9134   */\n      dup6\n        /* \"#utility.yul\":9123:9129   */\n      dup2\n        /* \"#utility.yul\":9120:9135   */\n      gt\n        /* \"#utility.yul\":9117:9239   */\n      iszero\n      tag_392\n      jumpi\n        /* \"#utility.yul\":9150:9229   */\n      tag_393\n      tag_247\n      jump\t// in\n    tag_393:\n        /* \"#utility.yul\":9117:9239   */\n    tag_392:\n        /* \"#utility.yul\":9265:9271   */\n      dup4\n        /* \"#utility.yul\":9248:9478   */\n    tag_394:\n        /* \"#utility.yul\":9282:9288   */\n      dup2\n        /* \"#utility.yul\":9277:9280   */\n      dup2\n        /* \"#utility.yul\":9274:9289   */\n      lt\n        /* \"#utility.yul\":9248:9478   */\n      iszero\n      tag_396\n      jumpi\n        /* \"#utility.yul\":9357:9360   */\n      dup1\n        /* \"#utility.yul\":9386:9433   */\n      tag_397\n        /* \"#utility.yul\":9429:9432   */\n      dup9\n        /* \"#utility.yul\":9417:9427   */\n      dup3\n        /* \"#utility.yul\":9386:9433   */\n      tag_244\n      jump\t// in\n    tag_397:\n        /* \"#utility.yul\":9381:9384   */\n      dup5\n        /* \"#utility.yul\":9374:9434   */\n      mstore\n        /* \"#utility.yul\":9463:9467   */\n      0x20\n        /* \"#utility.yul\":9458:9461   */\n      dup5\n        /* \"#utility.yul\":9454:9468   */\n      add\n        /* \"#utility.yul\":9447:9468   */\n      swap4\n      pop\n        /* \"#utility.yul\":9324:9478   */\n      pop\n        /* \"#utility.yul\":9308:9312   */\n      0x20\n        /* \"#utility.yul\":9303:9306   */\n      dup2\n        /* \"#utility.yul\":9299:9313   */\n      add\n        /* \"#utility.yul\":9292:9313   */\n      swap1\n      pop\n        /* \"#utility.yul\":9248:9478   */\n      jump(tag_394)\n    tag_396:\n        /* \"#utility.yul\":9252:9273   */\n      pop\n        /* \"#utility.yul\":8856:9484   */\n      pop\n      pop\n        /* \"#utility.yul\":8744:9484   */\n      swap4\n      swap3\n      pop\n      pop\n      pop\n      jump\t// out\n        /* \"#utility.yul\":9522:9912   */\n    tag_249:\n        /* \"#utility.yul\":9603:9608   */\n      0x00\n        /* \"#utility.yul\":9652:9655   */\n      dup3\n        /* \"#utility.yul\":9645:9649   */\n      0x1f\n        /* \"#utility.yul\":9637:9643   */\n      dup4\n        /* \"#utility.yul\":9633:9650   */\n      add\n        /* \"#utility.yul\":9629:9656   */\n      slt\n        /* \"#utility.yul\":9619:9741   */\n      tag_399\n      jumpi\n        /* \"#utility.yul\":9660:9739   */\n      tag_400\n      tag_234\n      jump\t// in\n    tag_400:\n        /* \"#utility.yul\":9619:9741   */\n    tag_399:\n        /* \"#utility.yul\":9777:9783   */\n      dup2\n        /* \"#utility.yul\":9764:9784   */\n      calldataload\n        /* \"#utility.yul\":9802:9906   */\n      tag_401\n        /* \"#utility.yul\":9902:9905   */\n      dup5\n        /* \"#utility.yul\":9894:9900   */\n      dup3\n        /* \"#utility.yul\":9887:9891   */\n      0x20\n        /* \"#utility.yul\":9879:9885   */\n      dup7\n        /* \"#utility.yul\":9875:9892   */\n      add\n        /* \"#utility.yul\":9802:9906   */\n      tag_248\n      jump\t// in\n    tag_401:\n        /* \"#utility.yul\":9793:9906   */\n      swap2\n      pop\n        /* \"#utility.yul\":9609:9912   */\n      pop\n        /* \"#utility.yul\":9522:9912   */\n      swap3\n      swap2\n      pop\n      pop\n      jump\t// out\n        /* \"#utility.yul\":9918:10477   */\n    tag_54:\n        /* \"#utility.yul\":10012:10018   */\n      0x00\n        /* \"#utility.yul\":10061:10063   */\n      0x20\n        /* \"#utility.yul\":10049:10058   */\n      dup3\n        /* \"#utility.yul\":10040:10047   */\n      dup5\n        /* \"#utility.yul\":10036:10059   */\n      sub\n        /* \"#utility.yul\":10032:10064   */\n      slt\n        /* \"#utility.yul\":10029:10148   */\n      iszero\n      tag_403\n      jumpi\n        /* \"#utility.yul\":10067:10146   */\n      tag_404\n      tag_218\n      jump\t// in\n    tag_404:\n        /* \"#utility.yul\":10029:10148   */\n    tag_403:\n        /* \"#utility.yul\":10215:10216   */\n      0x00\n        /* \"#utility.yul\":10204:10213   */\n      dup3\n        /* \"#utility.yul\":10200:10217   */\n      add\n        /* \"#utility.yul\":10187:10218   */\n      calldataload\n        /* \"#utility.yul\":10245:10263   */\n      0xffffffffffffffff\n        /* \"#utility.yul\":10237:10243   */\n      dup2\n        /* \"#utility.yul\":10234:10264   */\n      gt\n        /* \"#utility.yul\":10231:10348   */\n      iszero\n      tag_405\n      jumpi\n        /* \"#utility.yul\":10267:10346   */\n      tag_406\n      tag_219\n      jump\t// in\n    tag_406:\n        /* \"#utility.yul\":10231:10348   */\n    tag_405:\n        /* \"#utility.yul\":10372:10460   */\n      tag_407\n        /* \"#utility.yul\":10452:10459   */\n      dup5\n        /* \"#utility.yul\":10443:10449   */\n      dup3\n        /* \"#utility.yul\":10432:10441   */\n      dup6\n        /* \"#utility.yul\":10428:10450   */\n      add\n        /* \"#utility.yul\":10372:10460   */\n      tag_249\n      jump\t// in\n    tag_407:\n        /* \"#utility.yul\":10362:10460   */\n      swap2\n      pop\n        /* \"#utility.yul\":10158:10470   */\n      pop\n        /* \"#utility.yul\":9918:10477   */\n      swap3\n      swap2\n      pop\n      pop\n      jump\t// out\n        /* \"#utility.yul\":10483:10663   */\n    tag_66:\n        /* \"#utility.yul\":10531:10608   */\n      0x4e487b7100000000000000000000000000000000000000000000000000000000\n        /* \"#utility.yul\":10528:10529   */\n      0x00\n        /* \"#utility.yul\":10521:10609   */\n      mstore\n        /* \"#utility.yul\":10628:10632   */\n      0x32\n        /* \"#utility.yul\":10625:10626   */\n      0x04\n        /* \"#utility.yul\":10618:10633   */\n      mstore\n        /* \"#utility.yul\":10652:10656   */\n      0x24\n        /* \"#utility.yul\":10649:10650   */\n      0x00\n        /* \"#utility.yul\":10642:10657   */\n      revert\n        /* \"#utility.yul\":10669:10849   */\n    tag_250:\n        /* \"#utility.yul\":10717:10794   */\n      0x4e487b7100000000000000000000000000000000000000000000000000000000\n        /* \"#utility.yul\":10714:10715   */\n      0x00\n        /* \"#utility.yul\":10707:10795   */\n      mstore\n        /* \"#utility.yul\":10814:10818   */\n      0x11\n        /* \"#utility.yul\":10811:10812   */\n      0x04\n        /* \"#utility.yul\":10804:10819   */\n      mstore\n        /* \"#utility.yul\":10838:10842   */\n      0x24\n        /* \"#utility.yul\":10835:10836   */\n      0x00\n        /* \"#utility.yul\":10828:10843   */\n      revert\n        /* \"#utility.yul\":10855:11088   */\n    tag_72:\n        /* \"#utility.yul\":10894:10897   */\n      0x00\n        /* \"#utility.yul\":10917:10941   */\n      tag_411\n        /* \"#utility.yul\":10935:10940   */\n      dup3\n        /* \"#utility.yul\":10917:10941   */\n      tag_220\n      jump\t// in\n    tag_411:\n        /* \"#utility.yul\":10908:10941   */\n      swap2\n      pop\n        /* \"#utility.yul\":10963:11029   */\n      0xffffffffffffffffffffffffffffffffffffffffffffffffffffffffffffffff\n        /* \"#utility.yul\":10956:10961   */\n      dup3\n        /* \"#utility.yul\":10953:11030   */\n      sub\n        /* \"#utility.yul\":10950:11053   */\n      tag_412\n      jumpi\n        /* \"#utility.yul\":11033:11051   */\n      tag_413\n      tag_250\n      jump\t// in\n    tag_413:\n        /* \"#utility.yul\":10950:11053   */\n    tag_412:\n        /* \"#utility.yul\":11080:11081   */\n      0x01\n        /* \"#utility.yul\":11073:11078   */\n      dup3\n        /* \"#utility.yul\":11069:11082   */\n      add\n        /* \"#utility.yul\":11062:11082   */\n      swap1\n      pop\n        /* \"#utility.yul\":10855:11088   */\n      swap2\n      swap1\n      pop\n      jump\t// out\n        /* \"#utility.yul\":11094:11274   */\n    tag_251:\n        /* \"#utility.yul\":11142:11219   */\n      0x4e487b7100000000000000000000000000000000000000000000000000000000\n        /* \"#utility.yul\":11139:11140   */\n      0x00\n        /* \"#utility.yul\":11132:11220   */\n      mstore\n        /* \"#utility.yul\":11239:11243   */\n      0x12\n        /* \"#utility.yul\":11236:11237   */\n      0x04\n        /* \"#utility.yul\":11229:11244   */\n      mstore\n        /* \"#utility.yul\":11263:11267   */\n      0x24\n        /* \"#utility.yul\":11260:11261   */\n      0x00\n        /* \"#utility.yul\":11253:11268   */\n      revert\n        /* \"#utility.yul\":11280:11465   */\n    tag_78:\n        /* \"#utility.yul\":11320:11321   */\n      0x00\n        /* \"#utility.yul\":11337:11357   */\n      tag_416\n        /* \"#utility.yul\":11355:11356   */\n      dup3\n        /* \"#utility.yul\":11337:11357   */\n      tag_220\n      jump\t// in\n    tag_416:\n        /* \"#utility.yul\":11332:11357   */\n      swap2\n      pop\n        /* \"#utility.yul\":11371:11391   */\n      tag_417\n        /* \"#utility.yul\":11389:11390   */\n      dup4\n        /* \"#utility.yul\":11371:11391   */\n      tag_220\n      jump\t// in\n    tag_417:\n        /* \"#utility.yul\":11366:11391   */\n      swap3\n      pop\n        /* \"#utility.yul\":11410:11411   */\n      dup3\n        /* \"#utility.yul\":11400:11435   */\n      tag_418\n      jumpi\n        /* \"#utility.yul\":11415:11433   */\n      tag_419\n      tag_251\n      jump\t// in\n    tag_419:\n        /* \"#utility.yul\":11400:11435   */\n    tag_418:\n        /* \"#utility.yul\":11457:11458   */\n      dup3\n        /* \"#utility.yul\":11454:11455   */\n      dup3\n        /* \"#utility.yul\":11450:11459   */\n      div\n        /* \"#utility.yul\":11445:11459   */\n      swap1\n      pop\n        /* \"#utility.yul\":11280:11465   */\n      swap3\n      swap2\n      pop\n      pop\n      jump\t// out\n        /* \"#utility.yul\":11471:11662   */\n    tag_83:\n        /* \"#utility.yul\":11511:11514   */\n      0x00\n        /* \"#utility.yul\":11530:11550   */\n      tag_421\n        /* \"#utility.yul\":11548:11549   */\n      dup3\n        /* \"#utility.yul\":11530:11550   */\n      tag_220\n      jump\t// in\n    tag_421:\n        /* \"#utility.yul\":11525:11550   */\n      swap2\n      pop\n        /* \"#utility.yul\":11564:11584   */\n      tag_422\n        /* \"#utility.yul\":11582:11583   */\n      dup4\n        /* \"#utility.yul\":11564:11584   */\n      tag_220\n      jump\t// in\n    tag_422:\n        /* \"#utility.yul\":11559:11584   */\n      swap3\n      pop\n        /* \"#utility.yul\":11607:11608   */\n      dup3\n        /* \"#utility.yul\":11604:11605   */\n      dup3\n        /* \"#utility.yul\":11600:11609   */\n      add\n        /* \"#utility.yul\":11593:11609   */\n      swap1\n      pop\n        /* \"#utility.yul\":11628:11631   */\n      dup1\n        /* \"#utility.yul\":11625:11626   */\n      dup3\n        /* \"#utility.yul\":11622:11632   */\n      gt\n        /* \"#utility.yul\":11619:11655   */\n      iszero\n      tag_423\n      jumpi\n        /* \"#utility.yul\":11635:11653   */\n      tag_424\n      tag_250\n      jump\t// in\n    tag_424:\n        /* \"#utility.yul\":11619:11655   */\n    tag_423:\n        /* \"#utility.yul\":11471:11662   */\n      swap3\n      swap2\n      pop\n      pop\n      jump\t// out\n        /* \"#utility.yul\":11668:11784   */\n    tag_252:\n        /* \"#utility.yul\":11738:11759   */\n      tag_426\n        /* \"#utility.yul\":11753:11758   */\n      dup2\n        /* \"#utility.yul\":11738:11759   */\n      tag_223\n      jump\t// in\n    tag_426:\n        /* \"#utility.yul\":11731:11736   */\n      dup2\n        /* \"#utility.yul\":11728:11760   */\n      eq\n        /* \"#utility.yul\":11718:11778   */\n      tag_427\n      jumpi\n        /* \"#utility.yul\":11774:11775   */\n      0x00\n        /* \"#utility.yul\":11771:11772   */\n      0x00\n        /* \"#utility.yul\":11764:11776   */\n      revert\n        /* \"#utility.yul\":11718:11778   */\n    tag_427:\n        /* \"#utility.yul\":11668:11784   */\n      pop\n      jump\t// out\n        /* \"#utility.yul\":11790:11927   */\n    tag_253:\n        /* \"#utility.yul\":11844:11849   */\n      0x00\n        /* \"#utility.yul\":11875:11881   */\n      dup2\n        /* \"#utility.yul\":11869:11882   */\n      mload\n        /* \"#utility.yul\":11860:11882   */\n      swap1\n      pop\n        /* \"#utility.yul\":11891:11921   */\n      tag_429\n        /* \"#utility.yul\":11915:11920   */\n      dup2\n        /* \"#utility.yul\":11891:11921   */\n      tag_252\n      jump\t// in\n    tag_429:\n        /* \"#utility.yul\":11790:11927   */\n      swap3\n      swap2\n      pop\n      pop\n      jump\t// out\n        /* \"#utility.yul\":11933:12278   */\n    tag_93:\n        /* \"#utility.yul\":12000:12006   */\n      0x00\n        /* \"#utility.yul\":12049:12051   */\n      0x20\n        /* \"#utility.yul\":12037:12046   */\n      dup3\n        /* \"#utility.yul\":12028:12035   */\n      dup5\n        /* \"#utility.yul\":12024:12047   */\n      sub\n        /* \"#utility.yul\":12020:12052   */\n      slt\n        /* \"#utility.yul\":12017:12136   */\n      iszero\n      tag_431\n      jumpi\n        /* \"#utility.yul\":12055:12134   */\n      tag_432\n      tag_218\n      jump\t// in\n    tag_432:\n        /* \"#utility.yul\":12017:12136   */\n    tag_431:\n        /* \"#utility.yul\":12175:12176   */\n      0x00\n        /* \"#utility.yul\":12200:12261   */\n      tag_433\n        /* \"#utility.yul\":12253:12260   */\n      dup5\n        /* \"#utility.yul\":12244:12250   */\n      dup3\n        /* \"#utility.yul\":12233:12242   */\n      dup6\n        /* \"#utility.yul\":12229:12251   */\n      add\n        /* \"#utility.yul\":12200:12261   */\n      tag_253\n      jump\t// in\n    tag_433:\n        /* \"#utility.yul\":12190:12261   */\n      swap2\n      pop\n        /* \"#utility.yul\":12146:12271   */\n      pop\n        /* \"#utility.yul\":11933:12278   */\n      swap3\n      swap2\n      pop\n      pop\n      jump\t// out\n        /* \"#utility.yul\":12284:12460   */\n    tag_99:\n        /* \"#utility.yul\":12316:12317   */\n      0x00\n        /* \"#utility.yul\":12333:12353   */\n      tag_435\n        /* \"#utility.yul\":12351:12352   */\n      dup3\n        /* \"#utility.yul\":12333:12353   */\n      tag_220\n      jump\t// in\n    tag_435:\n        /* \"#utility.yul\":12328:12353   */\n      swap2\n      pop\n        /* \"#utility.yul\":12367:12387   */\n      tag_436\n        /* \"#utility.yul\":12385:12386   */\n      dup4\n        /* \"#utility.yul\":12367:12387   */\n      tag_220\n      jump\t// in\n    tag_436:\n        /* \"#utility.yul\":12362:12387   */\n      swap3\n      pop\n        /* \"#utility.yul\":12406:12407   */\n      dup3\n        /* \"#utility.yul\":12396:12431   */\n      tag_437\n      jumpi\n        /* \"#utility.yul\":12411:12429   */\n      tag_438\n      tag_251\n      jump\t// in\n    tag_438:\n        /* \"#utility.yul\":12396:12431   */\n    tag_437:\n        /* \"#utility.yul\":12452:12453   */\n      dup3\n        /* \"#utility.yul\":12449:12450   */\n      dup3\n        /* \"#utility.yul\":12445:12454   */\n      mod\n        /* \"#utility.yul\":12440:12454   */\n      swap1\n      pop\n        /* \"#utility.yul\":12284:12460   */\n      swap3\n      swap2\n      pop\n      pop\n      jump\t// out\n        /* \"#utility.yul\":12466:12635   */\n    tag_254:\n        /* \"#utility.yul\":12550:12561   */\n      0x00\n        /* \"#utility.yul\":12584:12590   */\n      dup3\n        /* \"#utility.yul\":12579:12582   */\n      dup3\n        /* \"#utility.yul\":12572:12591   */\n      mstore\n        /* \"#utility.yul\":12624:12628   */\n      0x20\n        /* \"#utility.yul\":12619:12622   */\n      dup3\n        /* \"#utility.yul\":12615:12629   */\n      add\n        /* \"#utility.yul\":12600:12629   */\n      swap1\n      pop\n        /* \"#utility.yul\":12466:12635   */\n      swap3\n      swap2\n      pop\n      pop\n      jump\t// out\n        /* \"#utility.yul\":12641:12803   */\n    tag_255:\n        /* \"#utility.yul\":12781:12795   */\n      0x746f6f206c657373206665650000000000000000000000000000000000000000\n        /* \"#utility.yul\":12777:12778   */\n      0x00\n        /* \"#utility.yul\":12769:12775   */\n      dup3\n        /* \"#utility.yul\":12765:12779   */\n      add\n        /* \"#utility.yul\":12758:12796   */\n      mstore\n        /* \"#utility.yul\":12641:12803   */\n      pop\n      jump\t// out\n        /* \"#utility.yul\":12809:13175   */\n    tag_256:\n        /* \"#utility.yul\":12951:12954   */\n      0x00\n        /* \"#utility.yul\":12972:13039   */\n      tag_442\n        /* \"#utility.yul\":13036:13038   */\n      0x0c\n        /* \"#utility.yul\":13031:13034   */\n      dup4\n        /* \"#utility.yul\":12972:13039   */\n      tag_254\n      jump\t// in\n    tag_442:\n        /* \"#utility.yul\":12965:13039   */\n      swap2\n      pop\n        /* \"#utility.yul\":13048:13141   */\n      tag_443\n        /* \"#utility.yul\":13137:13140   */\n      dup3\n        /* \"#utility.yul\":13048:13141   */\n      tag_255\n      jump\t// in\n    tag_443:\n        /* \"#utility.yul\":13166:13168   */\n      0x20\n        /* \"#utility.yul\":13161:13164   */\n      dup3\n        /* \"#utility.yul\":13157:13169   */\n      add\n        /* \"#utility.yul\":13150:13169   */\n      swap1\n      pop\n        /* \"#utility.yul\":12809:13175   */\n      swap2\n      swap1\n      pop\n      jump\t// out\n        /* \"#utility.yul\":13181:13600   */\n    tag_102:\n        /* \"#utility.yul\":13347:13351   */\n      0x00\n        /* \"#utility.yul\":13385:13387   */\n      0x20\n        /* \"#utility.yul\":13374:13383   */\n      dup3\n        /* \"#utility.yul\":13370:13388   */\n      add\n        /* \"#utility.yul\":13362:13388   */\n      swap1\n      pop\n        /* \"#utility.yul\":13434:13443   */\n      dup2\n        /* \"#utility.yul\":13428:13432   */\n      dup2\n        /* \"#utility.yul\":13424:13444   */\n      sub\n        /* \"#utility.yul\":13420:13421   */\n      0x00\n        /* \"#utility.yul\":13409:13418   */\n      dup4\n        /* \"#utility.yul\":13405:13422   */\n      add\n        /* \"#utility.yul\":13398:13445   */\n      mstore\n        /* \"#utility.yul\":13462:13593   */\n      tag_445\n        /* \"#utility.yul\":13588:13592   */\n      dup2\n        /* \"#utility.yul\":13462:13593   */\n      tag_256\n      jump\t// in\n    tag_445:\n        /* \"#utility.yul\":13454:13593   */\n      swap1\n      pop\n        /* \"#utility.yul\":13181:13600   */\n      swap2\n      swap1\n      pop\n      jump\t// out\n        /* \"#utility.yul\":13606:13772   */\n    tag_257:\n        /* \"#utility.yul\":13746:13764   */\n      0x6e6f7420656e6f756768206d6f6e657900000000000000000000000000000000\n        /* \"#utility.yul\":13742:13743   */\n      0x00\n        /* \"#utility.yul\":13734:13740   */\n      dup3\n        /* \"#utility.yul\":13730:13744   */\n      add\n        /* \"#utility.yul\":13723:13765   */\n      mstore\n        /* \"#utility.yul\":13606:13772   */\n      pop\n      jump\t// out\n        /* \"#utility.yul\":13778:14144   */\n    tag_258:\n        /* \"#utility.yul\":13920:13923   */\n      0x00\n        /* \"#utility.yul\":13941:14008   */\n      tag_448\n        /* \"#utility.yul\":14005:14007   */\n      0x10\n        /* \"#utility.yul\":14000:14003   */\n      dup4\n        /* \"#utility.yul\":13941:14008   */\n      tag_254\n      jump\t// in\n    tag_448:\n        /* \"#utility.yul\":13934:14008   */\n      swap2\n      pop\n        /* \"#utility.yul\":14017:14110   */\n      tag_449\n        /* \"#utility.yul\":14106:14109   */\n      dup3\n        /* \"#utility.yul\":14017:14110   */\n      tag_257\n      jump\t// in\n    tag_449:\n        /* \"#utility.yul\":14135:14137   */\n      0x20\n        /* \"#utility.yul\":14130:14133   */\n      dup3\n        /* \"#utility.yul\":14126:14138   */\n      add\n        /* \"#utility.yul\":14119:14138   */\n      swap1\n      pop\n        /* \"#utility.yul\":13778:14144   */\n      swap2\n      swap1\n      pop\n      jump\t// out\n        /* \"#utility.yul\":14150:14569   */\n    tag_105:\n        /* \"#utility.yul\":14316:14320   */\n      0x00\n        /* \"#utility.yul\":14354:14356   */\n      0x20\n        /* \"#utility.yul\":14343:14352   */\n      dup3\n        /* \"#utility.yul\":14339:14357   */\n      add\n        /* \"#utility.yul\":14331:14357   */\n      swap1\n      pop\n        /* \"#utility.yul\":14403:14412   */\n      dup2\n        /* \"#utility.yul\":14397:14401   */\n      dup2\n        /* \"#utility.yul\":14393:14413   */\n      sub\n        /* \"#utility.yul\":14389:14390   */\n      0x00\n        /* \"#utility.yul\":14378:14387   */\n      dup4\n        /* \"#utility.yul\":14374:14391   */\n      add\n        /* \"#utility.yul\":14367:14414   */\n      mstore\n        /* \"#utility.yul\":14431:14562   */\n      tag_451\n        /* \"#utility.yul\":14557:14561   */\n      dup2\n        /* \"#utility.yul\":14431:14562   */\n      tag_258\n      jump\t// in\n    tag_451:\n        /* \"#utility.yul\":14423:14562   */\n      swap1\n      pop\n        /* \"#utility.yul\":14150:14569   */\n      swap2\n      swap1\n      pop\n      jump\t// out\n        /* \"#utility.yul\":14575:14674   */\n    tag_259:\n        /* \"#utility.yul\":14627:14633   */\n      0x00\n        /* \"#utility.yul\":14661:14666   */\n      dup2\n        /* \"#utility.yul\":14655:14667   */\n      mload\n        /* \"#utility.yul\":14645:14667   */\n      swap1\n      pop\n        /* \"#utility.yul\":14575:14674   */\n      swap2\n      swap1\n      pop\n      jump\t// out\n        /* \"#utility.yul\":14680:14860   */\n    tag_260:\n        /* \"#utility.yul\":14728:14805   */\n      0x4e487b7100000000000000000000000000000000000000000000000000000000\n        /* \"#utility.yul\":14725:14726   */\n      0x00\n        /* \"#utility.yul\":14718:14806   */\n      mstore\n        /* \"#utility.yul\":14825:14829   */\n      0x22\n        /* \"#utility.yul\":14822:14823   */\n      0x04\n        /* \"#utility.yul\":14815:14830   */\n      mstore\n        /* \"#utility.yul\":14849:14853   */\n      0x24\n        /* \"#utility.yul\":14846:14847   */\n      0x00\n        /* \"#utility.yul\":14839:14854   */\n      revert\n        /* \"#utility.yul\":14866:15186   */\n    tag_261:\n        /* \"#utility.yul\":14910:14916   */\n      0x00\n        /* \"#utility.yul\":14947:14948   */\n      0x02\n        /* \"#utility.yul\":14941:14945   */\n      dup3\n        /* \"#utility.yul\":14937:14949   */\n      div\n        /* \"#utility.yul\":14927:14949   */\n      swap1\n      pop\n        /* \"#utility.yul\":14994:14995   */\n      0x01\n        /* \"#utility.yul\":14988:14992   */\n      dup3\n        /* \"#utility.yul\":14984:14996   */\n      and\n        /* \"#utility.yul\":15015:15033   */\n      dup1\n        /* \"#utility.yul\":15005:15086   */\n      tag_455\n      jumpi\n        /* \"#utility.yul\":15071:15075   */\n      0x7f\n        /* \"#utility.yul\":15063:15069   */\n      dup3\n        /* \"#utility.yul\":15059:15076   */\n      and\n        /* \"#utility.yul\":15049:15076   */\n      swap2\n      pop\n        /* \"#utility.yul\":15005:15086   */\n    tag_455:\n        /* \"#utility.yul\":15133:15135   */\n      0x20\n        /* \"#utility.yul\":15125:15131   */\n      dup3\n        /* \"#utility.yul\":15122:15136   */\n      lt\n        /* \"#utility.yul\":15102:15120   */\n      dup2\n        /* \"#utility.yul\":15099:15137   */\n      sub\n        /* \"#utility.yul\":15096:15180   */\n      tag_456\n      jumpi\n        /* \"#utility.yul\":15152:15170   */\n      tag_457\n      tag_260\n      jump\t// in\n    tag_457:\n        /* \"#utility.yul\":15096:15180   */\n    tag_456:\n        /* \"#utility.yul\":14917:15186   */\n      pop\n        /* \"#utility.yul\":14866:15186   */\n      swap2\n      swap1\n      pop\n      jump\t// out\n        /* \"#utility.yul\":15192:15333   */\n    tag_262:\n        /* \"#utility.yul\":15241:15245   */\n      0x00\n        /* \"#utility.yul\":15264:15267   */\n      dup2\n        /* \"#utility.yul\":15256:15267   */\n      swap1\n      pop\n        /* \"#utility.yul\":15287:15290   */\n      dup2\n        /* \"#utility.yul\":15284:15285   */\n      0x00\n        /* \"#utility.yul\":15277:15291   */\n      mstore\n        /* \"#utility.yul\":15321:15325   */\n      0x20\n        /* \"#utility.yul\":15318:15319   */\n      0x00\n        /* \"#utility.yul\":15308:15326   */\n      keccak256\n        /* \"#utility.yul\":15300:15326   */\n      swap1\n      pop\n        /* \"#utility.yul\":15192:15333   */\n      swap2\n      swap1\n      pop\n      jump\t// out\n        /* \"#utility.yul\":15339:15432   */\n    tag_263:\n        /* \"#utility.yul\":15376:15382   */\n      0x00\n        /* \"#utility.yul\":15423:15425   */\n      0x20\n        /* \"#utility.yul\":15418:15420   */\n      0x1f\n        /* \"#utility.yul\":15411:15416   */\n      dup4\n        /* \"#utility.yul\":15407:15421   */\n      add\n        /* \"#utility.yul\":15403:15426   */\n      div\n        /* \"#utility.yul\":15393:15426   */\n      swap1\n      pop\n        /* \"#utility.yul\":15339:15432   */\n      swap2\n      swap1\n      pop\n      jump\t// out\n        /* \"#utility.yul\":15438:15545   */\n    tag_264:\n        /* \"#utility.yul\":15482:15490   */\n      0x00\n        /* \"#utility.yul\":15532:15537   */\n      dup3\n        /* \"#utility.yul\":15526:15530   */\n      dup3\n        /* \"#utility.yul\":15522:15538   */\n      shl\n        /* \"#utility.yul\":15501:15538   */\n      swap1\n      pop\n        /* \"#utility.yul\":15438:15545   */\n      swap3\n      swap2\n      pop\n      pop\n      jump\t// out\n        /* \"#utility.yul\":15551:15944   */\n    tag_265:\n        /* \"#utility.yul\":15620:15626   */\n      0x00\n        /* \"#utility.yul\":15670:15671   */\n      0x08\n        /* \"#utility.yul\":15658:15668   */\n      dup4\n        /* \"#utility.yul\":15654:15672   */\n      mul\n        /* \"#utility.yul\":15693:15790   */\n      tag_462\n        /* \"#utility.yul\":15723:15789   */\n      0xffffffffffffffffffffffffffffffffffffffffffffffffffffffffffffffff\n        /* \"#utility.yul\":15712:15721   */\n      dup3\n        /* \"#utility.yul\":15693:15790   */\n      tag_264\n      jump\t// in\n    tag_462:\n        /* \"#utility.yul\":15811:15850   */\n      tag_463\n        /* \"#utility.yul\":15841:15849   */\n      dup7\n        /* \"#utility.yul\":15830:15839   */\n      dup4\n        /* \"#utility.yul\":15811:15850   */\n      tag_264\n      jump\t// in\n    tag_463:\n        /* \"#utility.yul\":15799:15850   */\n      swap6\n      pop\n        /* \"#utility.yul\":15883:15887   */\n      dup1\n        /* \"#utility.yul\":15879:15888   */\n      not\n        /* \"#utility.yul\":15872:15877   */\n      dup5\n        /* \"#utility.yul\":15868:15889   */\n      and\n        /* \"#utility.yul\":15859:15889   */\n      swap4\n      pop\n        /* \"#utility.yul\":15932:15936   */\n      dup1\n        /* \"#utility.yul\":15922:15930   */\n      dup7\n        /* \"#utility.yul\":15918:15937   */\n      and\n        /* \"#utility.yul\":15911:15916   */\n      dup5\n        /* \"#utility.yul\":15908:15938   */\n      or\n        /* \"#utility.yul\":15898:15938   */\n      swap3\n      pop\n        /* \"#utility.yul\":15627:15944   */\n      pop\n      pop\n        /* \"#utility.yul\":15551:15944   */\n      swap4\n      swap3\n      pop\n      pop\n      pop\n      jump\t// out\n        /* \"#utility.yul\":15950:16010   */\n    tag_266:\n        /* \"#utility.yul\":15978:15981   */\n      0x00\n        /* \"#utility.yul\":15999:16004   */\n      dup2\n        /* \"#utility.yul\":15992:16004   */\n      swap1\n      pop\n        /* \"#utility.yul\":15950:16010   */\n      swap2\n      swap1\n      pop\n      jump\t// out\n        /* \"#utility.yul\":16016:16158   */\n    tag_267:\n        /* \"#utility.yul\":16066:16075   */\n      0x00\n        /* \"#utility.yul\":16099:16152   */\n      tag_466\n        /* \"#utility.yul\":16117:16151   */\n      tag_467\n        /* \"#utility.yul\":16126:16150   */\n      tag_468\n        /* \"#utility.yul\":16144:16149   */\n      dup5\n        /* \"#utility.yul\":16126:16150   */\n      tag_220\n      jump\t// in\n    tag_468:\n        /* \"#utility.yul\":16117:16151   */\n      tag_266\n      jump\t// in\n    tag_467:\n        /* \"#utility.yul\":16099:16152   */\n      tag_220\n      jump\t// in\n    tag_466:\n        /* \"#utility.yul\":16086:16152   */\n      swap1\n      pop\n        /* \"#utility.yul\":16016:16158   */\n      swap2\n      swap1\n      pop\n      jump\t// out\n        /* \"#utility.yul\":16164:16239   */\n    tag_268:\n        /* \"#utility.yul\":16207:16210   */\n      0x00\n        /* \"#utility.yul\":16228:16233   */\n      dup2\n        /* \"#utility.yul\":16221:16233   */\n      swap1\n      pop\n        /* \"#utility.yul\":16164:16239   */\n      swap2\n      swap1\n      pop\n      jump\t// out\n        /* \"#utility.yul\":16245:16514   */\n    tag_269:\n        /* \"#utility.yul\":16355:16394   */\n      tag_471\n        /* \"#utility.yul\":16386:16393   */\n      dup4\n        /* \"#utility.yul\":16355:16394   */\n      tag_267\n      jump\t// in\n    tag_471:\n        /* \"#utility.yul\":16416:16507   */\n      tag_472\n        /* \"#utility.yul\":16465:16506   */\n      tag_473\n        /* \"#utility.yul\":16489:16505   */\n      dup3\n        /* \"#utility.yul\":16465:16506   */\n      tag_268\n      jump\t// in\n    tag_473:\n        /* \"#utility.yul\":16457:16463   */\n      dup5\n        /* \"#utility.yul\":16450:16454   */\n      dup5\n        /* \"#utility.yul\":16444:16455   */\n      sload\n        /* \"#utility.yul\":16416:16507   */\n      tag_265\n      jump\t// in\n    tag_472:\n        /* \"#utility.yul\":16410:16414   */\n      dup3\n        /* \"#utility.yul\":16403:16508   */\n      sstore\n        /* \"#utility.yul\":16321:16514   */\n      pop\n        /* \"#utility.yul\":16245:16514   */\n      pop\n      pop\n      pop\n      jump\t// out\n        /* \"#utility.yul\":16520:16593   */\n    tag_270:\n        /* \"#utility.yul\":16565:16568   */\n      0x00\n        /* \"#utility.yul\":16586:16587   */\n      0x00\n        /* \"#utility.yul\":16579:16587   */\n      swap1\n      pop\n        /* \"#utility.yul\":16520:16593   */\n      swap1\n      jump\t// out\n        /* \"#utility.yul\":16599:16788   */\n    tag_271:\n        /* \"#utility.yul\":16676:16708   */\n      tag_476\n      tag_270\n      jump\t// in\n    tag_476:\n        /* \"#utility.yul\":16717:16782   */\n      tag_477\n        /* \"#utility.yul\":16775:16781   */\n      dup2\n        /* \"#utility.yul\":16767:16773   */\n      dup5\n        /* \"#utility.yul\":16761:16765   */\n      dup5\n        /* \"#utility.yul\":16717:16782   */\n      tag_269\n      jump\t// in\n    tag_477:\n        /* \"#utility.yul\":16652:16788   */\n      pop\n        /* \"#utility.yul\":16599:16788   */\n      pop\n      pop\n      jump\t// out\n        /* \"#utility.yul\":16794:16980   */\n    tag_272:\n        /* \"#utility.yul\":16854:16974   */\n    tag_479:\n        /* \"#utility.yul\":16871:16874   */\n      dup2\n        /* \"#utility.yul\":16864:16869   */\n      dup2\n        /* \"#utility.yul\":16861:16875   */\n      lt\n        /* \"#utility.yul\":16854:16974   */\n      iszero\n      tag_481\n      jumpi\n        /* \"#utility.yul\":16925:16964   */\n      tag_482\n        /* \"#utility.yul\":16962:16963   */\n      0x00\n        /* \"#utility.yul\":16955:16960   */\n      dup3\n        /* \"#utility.yul\":16925:16964   */\n      tag_271\n      jump\t// in\n    tag_482:\n        /* \"#utility.yul\":16898:16899   */\n      0x01\n        /* \"#utility.yul\":16891:16896   */\n      dup2\n        /* \"#utility.yul\":16887:16900   */\n      add\n        /* \"#utility.yul\":16878:16900   */\n      swap1\n      pop\n        /* \"#utility.yul\":16854:16974   */\n      jump(tag_479)\n    tag_481:\n        /* \"#utility.yul\":16794:16980   */\n      pop\n      pop\n      jump\t// out\n        /* \"#utility.yul\":16986:17529   */\n    tag_273:\n        /* \"#utility.yul\":17087:17089   */\n      0x1f\n        /* \"#utility.yul\":17082:17085   */\n      dup3\n        /* \"#utility.yul\":17079:17090   */\n      gt\n        /* \"#utility.yul\":17076:17522   */\n      iszero\n      tag_484\n      jumpi\n        /* \"#utility.yul\":17121:17159   */\n      tag_485\n        /* \"#utility.yul\":17153:17158   */\n      dup2\n        /* \"#utility.yul\":17121:17159   */\n      tag_262\n      jump\t// in\n    tag_485:\n        /* \"#utility.yul\":17205:17234   */\n      tag_486\n        /* \"#utility.yul\":17223:17233   */\n      dup5\n        /* \"#utility.yul\":17205:17234   */\n      tag_263\n      jump\t// in\n    tag_486:\n        /* \"#utility.yul\":17195:17203   */\n      dup2\n        /* \"#utility.yul\":17191:17235   */\n      add\n        /* \"#utility.yul\":17388:17390   */\n      0x20\n        /* \"#utility.yul\":17376:17386   */\n      dup6\n        /* \"#utility.yul\":17373:17391   */\n      lt\n        /* \"#utility.yul\":17370:17419   */\n      iszero\n      tag_487\n      jumpi\n        /* \"#utility.yul\":17409:17417   */\n      dup2\n        /* \"#utility.yul\":17394:17417   */\n      swap1\n      pop\n        /* \"#utility.yul\":17370:17419   */\n    tag_487:\n        /* \"#utility.yul\":17432:17512   */\n      tag_488\n        /* \"#utility.yul\":17488:17510   */\n      tag_489\n        /* \"#utility.yul\":17506:17509   */\n      dup6\n        /* \"#utility.yul\":17488:17510   */\n      tag_263\n      jump\t// in\n    tag_489:\n        /* \"#utility.yul\":17478:17486   */\n      dup4\n        /* \"#utility.yul\":17474:17511   */\n      add\n        /* \"#utility.yul\":17461:17472   */\n      dup3\n        /* \"#utility.yul\":17432:17512   */\n      tag_272\n      jump\t// in\n    tag_488:\n        /* \"#utility.yul\":17091:17522   */\n      pop\n      pop\n        /* \"#utility.yul\":17076:17522   */\n    tag_484:\n        /* \"#utility.yul\":16986:17529   */\n      pop\n      pop\n      pop\n      jump\t// out\n        /* \"#utility.yul\":17535:17652   */\n    tag_274:\n        /* \"#utility.yul\":17589:17597   */\n      0x00\n        /* \"#utility.yul\":17639:17644   */\n      dup3\n        /* \"#utility.yul\":17633:17637   */\n      dup3\n        /* \"#utility.yul\":17629:17645   */\n      shr\n        /* \"#utility.yul\":17608:17645   */\n      swap1\n      pop\n        /* \"#utility.yul\":17535:17652   */\n      swap3\n      swap2\n      pop\n      pop\n      jump\t// out\n        /* \"#utility.yul\":17658:17827   */\n    tag_275:\n        /* \"#utility.yul\":17702:17708   */\n      0x00\n        /* \"#utility.yul\":17735:17786   */\n      tag_492\n        /* \"#utility.yul\":17783:17784   */\n      0x00\n        /* \"#utility.yul\":17779:17785   */\n      not\n        /* \"#utility.yul\":17771:17776   */\n      dup5\n        /* \"#utility.yul\":17768:17769   */\n      0x08\n        /* \"#utility.yul\":17764:17777   */\n      mul\n        /* \"#utility.yul\":17735:17786   */\n      tag_274\n      jump\t// in\n    tag_492:\n        /* \"#utility.yul\":17731:17787   */\n      not\n        /* \"#utility.yul\":17816:17820   */\n      dup1\n        /* \"#utility.yul\":17810:17814   */\n      dup4\n        /* \"#utility.yul\":17806:17821   */\n      and\n        /* \"#utility.yul\":17796:17821   */\n      swap2\n      pop\n        /* \"#utility.yul\":17709:17827   */\n      pop\n        /* \"#utility.yul\":17658:17827   */\n      swap3\n      swap2\n      pop\n      pop\n      jump\t// out\n        /* \"#utility.yul\":17832:18127   */\n    tag_276:\n        /* \"#utility.yul\":17908:17912   */\n      0x00\n        /* \"#utility.yul\":18054:18083   */\n      tag_494\n        /* \"#utility.yul\":18079:18082   */\n      dup4\n        /* \"#utility.yul\":18073:18077   */\n      dup4\n        /* \"#utility.yul\":18054:18083   */\n      tag_275\n      jump\t// in\n    tag_494:\n        /* \"#utility.yul\":18046:18083   */\n      swap2\n      pop\n        /* \"#utility.yul\":18116:18119   */\n      dup3\n        /* \"#utility.yul\":18113:18114   */\n      0x02\n        /* \"#utility.yul\":18109:18120   */\n      mul\n        /* \"#utility.yul\":18103:18107   */\n      dup3\n        /* \"#utility.yul\":18100:18121   */\n      or\n        /* \"#utility.yul\":18092:18121   */\n      swap1\n      pop\n        /* \"#utility.yul\":17832:18127   */\n      swap3\n      swap2\n      pop\n      pop\n      jump\t// out\n        /* \"#utility.yul\":18132:19527   */\n    tag_122:\n        /* \"#utility.yul\":18249:18286   */\n      tag_496\n        /* \"#utility.yul\":18282:18285   */\n      dup3\n        /* \"#utility.yul\":18249:18286   */\n      tag_259\n      jump\t// in\n    tag_496:\n        /* \"#utility.yul\":18351:18369   */\n      0xffffffffffffffff\n        /* \"#utility.yul\":18343:18349   */\n      dup2\n        /* \"#utility.yul\":18340:18370   */\n      gt\n        /* \"#utility.yul\":18337:18393   */\n      iszero\n      tag_497\n      jumpi\n        /* \"#utility.yul\":18373:18391   */\n      tag_498\n      tag_114\n      jump\t// in\n    tag_498:\n        /* \"#utility.yul\":18337:18393   */\n    tag_497:\n        /* \"#utility.yul\":18417:18455   */\n      tag_499\n        /* \"#utility.yul\":18449:18453   */\n      dup3\n        /* \"#utility.yul\":18443:18454   */\n      sload\n        /* \"#utility.yul\":18417:18455   */\n      tag_261\n      jump\t// in\n    tag_499:\n        /* \"#utility.yul\":18502:18569   */\n      tag_500\n        /* \"#utility.yul\":18562:18568   */\n      dup3\n        /* \"#utility.yul\":18554:18560   */\n      dup3\n        /* \"#utility.yul\":18548:18552   */\n      dup6\n        /* \"#utility.yul\":18502:18569   */\n      tag_273\n      jump\t// in\n    tag_500:\n        /* \"#utility.yul\":18596:18597   */\n      0x00\n        /* \"#utility.yul\":18620:18624   */\n      0x20\n        /* \"#utility.yul\":18607:18624   */\n      swap1\n      pop\n        /* \"#utility.yul\":18652:18654   */\n      0x1f\n        /* \"#utility.yul\":18644:18650   */\n      dup4\n        /* \"#utility.yul\":18641:18655   */\n      gt\n        /* \"#utility.yul\":18669:18670   */\n      0x01\n        /* \"#utility.yul\":18664:19282   */\n      dup2\n      eq\n      tag_502\n      jumpi\n        /* \"#utility.yul\":19326:19327   */\n      0x00\n        /* \"#utility.yul\":19343:19349   */\n      dup5\n        /* \"#utility.yul\":19340:19417   */\n      iszero\n      tag_503\n      jumpi\n        /* \"#utility.yul\":19392:19401   */\n      dup3\n        /* \"#utility.yul\":19387:19390   */\n      dup8\n        /* \"#utility.yul\":19383:19402   */\n      add\n        /* \"#utility.yul\":19377:19403   */\n      mload\n        /* \"#utility.yul\":19368:19403   */\n      swap1\n      pop\n        /* \"#utility.yul\":19340:19417   */\n    tag_503:\n        /* \"#utility.yul\":19443:19510   */\n      tag_504\n        /* \"#utility.yul\":19503:19509   */\n      dup6\n        /* \"#utility.yul\":19496:19501   */\n      dup3\n        /* \"#utility.yul\":19443:19510   */\n      tag_276\n      jump\t// in\n    tag_504:\n        /* \"#utility.yul\":19437:19441   */\n      dup7\n        /* \"#utility.yul\":19430:19511   */\n      sstore\n        /* \"#utility.yul\":19299:19521   */\n      pop\n        /* \"#utility.yul\":18634:19521   */\n      jump(tag_501)\n        /* \"#utility.yul\":18664:19282   */\n    tag_502:\n        /* \"#utility.yul\":18716:18720   */\n      0x1f\n        /* \"#utility.yul\":18712:18721   */\n      not\n        /* \"#utility.yul\":18704:18710   */\n      dup5\n        /* \"#utility.yul\":18700:18722   */\n      and\n        /* \"#utility.yul\":18750:18787   */\n      tag_505\n        /* \"#utility.yul\":18782:18786   */\n      dup7\n        /* \"#utility.yul\":18750:18787   */\n      tag_262\n      jump\t// in\n    tag_505:\n        /* \"#utility.yul\":18809:18810   */\n      0x00\n        /* \"#utility.yul\":18823:19031   */\n    tag_506:\n        /* \"#utility.yul\":18837:18844   */\n      dup3\n        /* \"#utility.yul\":18834:18835   */\n      dup2\n        /* \"#utility.yul\":18831:18845   */\n      lt\n        /* \"#utility.yul\":18823:19031   */\n      iszero\n      tag_508\n      jumpi\n        /* \"#utility.yul\":18916:18925   */\n      dup5\n        /* \"#utility.yul\":18911:18914   */\n      dup10\n        /* \"#utility.yul\":18907:18926   */\n      add\n        /* \"#utility.yul\":18901:18927   */\n      mload\n        /* \"#utility.yul\":18893:18899   */\n      dup3\n        /* \"#utility.yul\":18886:18928   */\n      sstore\n        /* \"#utility.yul\":18967:18968   */\n      0x01\n        /* \"#utility.yul\":18959:18965   */\n      dup3\n        /* \"#utility.yul\":18955:18969   */\n      add\n        /* \"#utility.yul\":18945:18969   */\n      swap2\n      pop\n        /* \"#utility.yul\":19014:19016   */\n      0x20\n        /* \"#utility.yul\":19003:19012   */\n      dup6\n        /* \"#utility.yul\":18999:19017   */\n      add\n        /* \"#utility.yul\":18986:19017   */\n      swap5\n      pop\n        /* \"#utility.yul\":18860:18864   */\n      0x20\n        /* \"#utility.yul\":18857:18858   */\n      dup2\n        /* \"#utility.yul\":18853:18865   */\n      add\n        /* \"#utility.yul\":18848:18865   */\n      swap1\n      pop\n        /* \"#utility.yul\":18823:19031   */\n      jump(tag_506)\n    tag_508:\n        /* \"#utility.yul\":19059:19065   */\n      dup7\n        /* \"#utility.yul\":19050:19057   */\n      dup4\n        /* \"#utility.yul\":19047:19066   */\n      lt\n        /* \"#utility.yul\":19044:19223   */\n      iszero\n      tag_509\n      jumpi\n        /* \"#utility.yul\":19117:19126   */\n      dup5\n        /* \"#utility.yul\":19112:19115   */\n      dup10\n        /* \"#utility.yul\":19108:19127   */\n      add\n        /* \"#utility.yul\":19102:19128   */\n      mload\n        /* \"#utility.yul\":19160:19208   */\n      tag_510\n        /* \"#utility.yul\":19202:19206   */\n      0x1f\n        /* \"#utility.yul\":19194:19200   */\n      dup10\n        /* \"#utility.yul\":19190:19207   */\n      and\n        /* \"#utility.yul\":19179:19188   */\n      dup3\n        /* \"#utility.yul\":19160:19208   */\n      tag_275\n      jump\t// in\n    tag_510:\n        /* \"#utility.yul\":19152:19158   */\n      dup4\n        /* \"#utility.yul\":19145:19209   */\n      sstore\n        /* \"#utility.yul\":19067:19223   */\n      pop\n        /* \"#utility.yul\":19044:19223   */\n    tag_509:\n        /* \"#utility.yul\":19269:19270   */\n      0x01\n        /* \"#utility.yul\":19265:19266   */\n      0x02\n        /* \"#utility.yul\":19257:19263   */\n      dup9\n        /* \"#utility.yul\":19253:19267   */\n      mul\n        /* \"#utility.yul\":19249:19271   */\n      add\n        /* \"#utility.yul\":19243:19247   */\n      dup9\n        /* \"#utility.yul\":19236:19272   */\n      sstore\n        /* \"#utility.yul\":18671:19282   */\n      pop\n      pop\n      pop\n        /* \"#utility.yul\":18634:19521   */\n    tag_501:\n      pop\n        /* \"#utility.yul\":18224:19527   */\n      pop\n      pop\n      pop\n        /* \"#utility.yul\":18132:19527   */\n      pop\n      pop\n      jump\t// out\n        /* \"#utility.yul\":19533:19647   */\n    tag_277:\n        /* \"#utility.yul\":19600:19606   */\n      0x00\n        /* \"#utility.yul\":19634:19639   */\n      dup2\n        /* \"#utility.yul\":19628:19640   */\n      mload\n        /* \"#utility.yul\":19618:19640   */\n      swap1\n      pop\n        /* \"#utility.yul\":19533:19647   */\n      swap2\n      swap1\n      pop\n      jump\t// out\n        /* \"#utility.yul\":19653:19837   */\n    tag_278:\n        /* \"#utility.yul\":19752:19763   */\n      0x00\n        /* \"#utility.yul\":19786:19792   */\n      dup3\n        /* \"#utility.yul\":19781:19784   */\n      dup3\n        /* \"#utility.yul\":19774:19793   */\n      mstore\n        /* \"#utility.yul\":19826:19830   */\n      0x20\n        /* \"#utility.yul\":19821:19824   */\n      dup3\n        /* \"#utility.yul\":19817:19831   */\n      add\n        /* \"#utility.yul\":19802:19831   */\n      swap1\n      pop\n        /* \"#utility.yul\":19653:19837   */\n      swap3\n      swap2\n      pop\n      pop\n      jump\t// out\n        /* \"#utility.yul\":19843:19975   */\n    tag_279:\n        /* \"#utility.yul\":19910:19914   */\n      0x00\n        /* \"#utility.yul\":19933:19936   */\n      dup2\n        /* \"#utility.yul\":19925:19936   */\n      swap1\n      pop\n        /* \"#utility.yul\":19963:19967   */\n      0x20\n        /* \"#utility.yul\":19958:19961   */\n      dup3\n        /* \"#utility.yul\":19954:19968   */\n      add\n        /* \"#utility.yul\":19946:19968   */\n      swap1\n      pop\n        /* \"#utility.yul\":19843:19975   */\n      swap2\n      swap1\n      pop\n      jump\t// out\n        /* \"#utility.yul\":19981:20089   */\n    tag_280:\n        /* \"#utility.yul\":20058:20082   */\n      tag_515\n        /* \"#utility.yul\":20076:20081   */\n      dup2\n        /* \"#utility.yul\":20058:20082   */\n      tag_226\n      jump\t// in\n    tag_515:\n        /* \"#utility.yul\":20053:20056   */\n      dup3\n        /* \"#utility.yul\":20046:20083   */\n      mstore\n        /* \"#utility.yul\":19981:20089   */\n      pop\n      pop\n      jump\t// out\n        /* \"#utility.yul\":20095:20274   */\n    tag_281:\n        /* \"#utility.yul\":20164:20174   */\n      0x00\n        /* \"#utility.yul\":20185:20231   */\n      tag_517\n        /* \"#utility.yul\":20227:20230   */\n      dup4\n        /* \"#utility.yul\":20219:20225   */\n      dup4\n        /* \"#utility.yul\":20185:20231   */\n      tag_280\n      jump\t// in\n    tag_517:\n        /* \"#utility.yul\":20263:20267   */\n      0x20\n        /* \"#utility.yul\":20258:20261   */\n      dup4\n        /* \"#utility.yul\":20254:20268   */\n      add\n        /* \"#utility.yul\":20240:20268   */\n      swap1\n      pop\n        /* \"#utility.yul\":20095:20274   */\n      swap3\n      swap2\n      pop\n      pop\n      jump\t// out\n        /* \"#utility.yul\":20280:20393   */\n    tag_282:\n        /* \"#utility.yul\":20350:20354   */\n      0x00\n        /* \"#utility.yul\":20382:20386   */\n      0x20\n        /* \"#utility.yul\":20377:20380   */\n      dup3\n        /* \"#utility.yul\":20373:20387   */\n      add\n        /* \"#utility.yul\":20365:20387   */\n      swap1\n      pop\n        /* \"#utility.yul\":20280:20393   */\n      swap2\n      swap1\n      pop\n      jump\t// out\n        /* \"#utility.yul\":20429:21161   */\n    tag_283:\n        /* \"#utility.yul\":20548:20551   */\n      0x00\n        /* \"#utility.yul\":20577:20631   */\n      tag_520\n        /* \"#utility.yul\":20625:20630   */\n      dup3\n        /* \"#utility.yul\":20577:20631   */\n      tag_277\n      jump\t// in\n    tag_520:\n        /* \"#utility.yul\":20647:20733   */\n      tag_521\n        /* \"#utility.yul\":20726:20732   */\n      dup2\n        /* \"#utility.yul\":20721:20724   */\n      dup6\n        /* \"#utility.yul\":20647:20733   */\n      tag_278\n      jump\t// in\n    tag_521:\n        /* \"#utility.yul\":20640:20733   */\n      swap4\n      pop\n        /* \"#utility.yul\":20757:20813   */\n      tag_522\n        /* \"#utility.yul\":20807:20812   */\n      dup4\n        /* \"#utility.yul\":20757:20813   */\n      tag_279\n      jump\t// in\n    tag_522:\n        /* \"#utility.yul\":20836:20843   */\n      dup1\n        /* \"#utility.yul\":20867:20868   */\n      0x00\n        /* \"#utility.yul\":20852:21136   */\n    tag_523:\n        /* \"#utility.yul\":20877:20883   */\n      dup4\n        /* \"#utility.yul\":20874:20875   */\n      dup2\n        /* \"#utility.yul\":20871:20884   */\n      lt\n        /* \"#utility.yul\":20852:21136   */\n      iszero\n      tag_525\n      jumpi\n        /* \"#utility.yul\":20953:20959   */\n      dup2\n        /* \"#utility.yul\":20947:20960   */\n      mload\n        /* \"#utility.yul\":20980:21043   */\n      tag_526\n        /* \"#utility.yul\":21039:21042   */\n      dup9\n        /* \"#utility.yul\":21024:21037   */\n      dup3\n        /* \"#utility.yul\":20980:21043   */\n      tag_281\n      jump\t// in\n    tag_526:\n        /* \"#utility.yul\":20973:21043   */\n      swap8\n      pop\n        /* \"#utility.yul\":21066:21126   */\n      tag_527\n        /* \"#utility.yul\":21119:21125   */\n      dup4\n        /* \"#utility.yul\":21066:21126   */\n      tag_282\n      jump\t// in\n    tag_527:\n        /* \"#utility.yul\":21056:21126   */\n      swap3\n      pop\n        /* \"#utility.yul\":20912:21136   */\n      pop\n        /* \"#utility.yul\":20899:20900   */\n      0x01\n        /* \"#utility.yul\":20896:20897   */\n      dup2\n        /* \"#utility.yul\":20892:20901   */\n      add\n        /* \"#utility.yul\":20887:20901   */\n      swap1\n      pop\n        /* \"#utility.yul\":20852:21136   */\n      jump(tag_523)\n    tag_525:\n        /* \"#utility.yul\":20856:20870   */\n      pop\n        /* \"#utility.yul\":21152:21155   */\n      dup6\n        /* \"#utility.yul\":21145:21155   */\n      swap4\n      pop\n        /* \"#utility.yul\":20553:21161   */\n      pop\n      pop\n      pop\n        /* \"#utility.yul\":20429:21161   */\n      swap3\n      swap2\n      pop\n      pop\n      jump\t// out\n        /* \"#utility.yul\":21167:21306   */\n    tag_284:\n        /* \"#utility.yul\":21256:21262   */\n      dup3\n        /* \"#utility.yul\":21251:21254   */\n      dup2\n        /* \"#utility.yul\":21246:21249   */\n      dup4\n        /* \"#utility.yul\":21240:21263   */\n      mcopy\n        /* \"#utility.yul\":21297:21298   */\n      0x00\n        /* \"#utility.yul\":21288:21294   */\n      dup4\n        /* \"#utility.yul\":21283:21286   */\n      dup4\n        /* \"#utility.yul\":21279:21295   */\n      add\n        /* \"#utility.yul\":21272:21299   */\n      mstore\n        /* \"#utility.yul\":21167:21306   */\n      pop\n      pop\n      pop\n      jump\t// out\n        /* \"#utility.yul\":21312:21689   */\n    tag_285:\n        /* \"#utility.yul\":21400:21403   */\n      0x00\n        /* \"#utility.yul\":21428:21467   */\n      tag_530\n        /* \"#utility.yul\":21461:21466   */\n      dup3\n        /* \"#utility.yul\":21428:21467   */\n      tag_259\n      jump\t// in\n    tag_530:\n        /* \"#utility.yul\":21483:21554   */\n      tag_531\n        /* \"#utility.yul\":21547:21553   */\n      dup2\n        /* \"#utility.yul\":21542:21545   */\n      dup6\n        /* \"#utility.yul\":21483:21554   */\n      tag_254\n      jump\t// in\n    tag_531:\n        /* \"#utility.yul\":21476:21554   */\n      swap4\n      pop\n        /* \"#utility.yul\":21563:21628   */\n      tag_532\n        /* \"#utility.yul\":21621:21627   */\n      dup2\n        /* \"#utility.yul\":21616:21619   */\n      dup6\n        /* \"#utility.yul\":21609:21613   */\n      0x20\n        /* \"#utility.yul\":21602:21607   */\n      dup7\n        /* \"#utility.yul\":21598:21614   */\n      add\n        /* \"#utility.yul\":21563:21628   */\n      tag_284\n      jump\t// in\n    tag_532:\n        /* \"#utility.yul\":21653:21682   */\n      tag_533\n        /* \"#utility.yul\":21675:21681   */\n      dup2\n        /* \"#utility.yul\":21653:21682   */\n      tag_236\n      jump\t// in\n    tag_533:\n        /* \"#utility.yul\":21648:21651   */\n      dup5\n        /* \"#utility.yul\":21644:21683   */\n      add\n        /* \"#utility.yul\":21637:21683   */\n      swap2\n      pop\n        /* \"#utility.yul\":21404:21689   */\n      pop\n        /* \"#utility.yul\":21312:21689   */\n      swap3\n      swap2\n      pop\n      pop\n      jump\t// out\n        /* \"#utility.yul\":21695:22506   */\n    tag_129:\n        /* \"#utility.yul\":21950:21954   */\n      0x00\n        /* \"#utility.yul\":21988:21991   */\n      0x80\n        /* \"#utility.yul\":21977:21986   */\n      dup3\n        /* \"#utility.yul\":21973:21992   */\n      add\n        /* \"#utility.yul\":21965:21992   */\n      swap1\n      pop\n        /* \"#utility.yul\":22038:22047   */\n      dup2\n        /* \"#utility.yul\":22032:22036   */\n      dup2\n        /* \"#utility.yul\":22028:22048   */\n      sub\n        /* \"#utility.yul\":22024:22025   */\n      0x00\n        /* \"#utility.yul\":22013:22022   */\n      dup4\n        /* \"#utility.yul\":22009:22026   */\n      add\n        /* \"#utility.yul\":22002:22049   */\n      mstore\n        /* \"#utility.yul\":22066:22174   */\n      tag_535\n        /* \"#utility.yul\":22169:22173   */\n      dup2\n        /* \"#utility.yul\":22160:22166   */\n      dup8\n        /* \"#utility.yul\":22066:22174   */\n      tag_283\n      jump\t// in\n    tag_535:\n        /* \"#utility.yul\":22058:22174   */\n      swap1\n      pop\n        /* \"#utility.yul\":22184:22264   */\n      tag_536\n        /* \"#utility.yul\":22260:22262   */\n      0x20\n        /* \"#utility.yul\":22249:22258   */\n      dup4\n        /* \"#utility.yul\":22245:22263   */\n      add\n        /* \"#utility.yul\":22236:22242   */\n      dup7\n        /* \"#utility.yul\":22184:22264   */\n      tag_233\n      jump\t// in\n    tag_536:\n        /* \"#utility.yul\":22311:22320   */\n      dup2\n        /* \"#utility.yul\":22305:22309   */\n      dup2\n        /* \"#utility.yul\":22301:22321   */\n      sub\n        /* \"#utility.yul\":22296:22298   */\n      0x40\n        /* \"#utility.yul\":22285:22294   */\n      dup4\n        /* \"#utility.yul\":22281:22299   */\n      add\n        /* \"#utility.yul\":22274:22322   */\n      mstore\n        /* \"#utility.yul\":22339:22417   */\n      tag_537\n        /* \"#utility.yul\":22412:22416   */\n      dup2\n        /* \"#utility.yul\":22403:22409   */\n      dup6\n        /* \"#utility.yul\":22339:22417   */\n      tag_285\n      jump\t// in\n    tag_537:\n        /* \"#utility.yul\":22331:22417   */\n      swap1\n      pop\n        /* \"#utility.yul\":22427:22499   */\n      tag_538\n        /* \"#utility.yul\":22495:22497   */\n      0x60\n        /* \"#utility.yul\":22484:22493   */\n      dup4\n        /* \"#utility.yul\":22480:22498   */\n      add\n        /* \"#utility.yul\":22471:22477   */\n      dup5\n        /* \"#utility.yul\":22427:22499   */\n      tag_229\n      jump\t// in\n    tag_538:\n        /* \"#utility.yul\":21695:22506   */\n      swap6\n      swap5\n      pop\n      pop\n      pop\n      pop\n      pop\n      jump\t// out\n        /* \"#utility.yul\":22512:22706   */\n    tag_136:\n        /* \"#utility.yul\":22552:22556   */\n      0x00\n        /* \"#utility.yul\":22572:22592   */\n      tag_540\n        /* \"#utility.yul\":22590:22591   */\n      dup3\n        /* \"#utility.yul\":22572:22592   */\n      tag_220\n      jump\t// in\n    tag_540:\n        /* \"#utility.yul\":22567:22592   */\n      swap2\n      pop\n        /* \"#utility.yul\":22606:22626   */\n      tag_541\n        /* \"#utility.yul\":22624:22625   */\n      dup4\n        /* \"#utility.yul\":22606:22626   */\n      tag_220\n      jump\t// in\n    tag_541:\n        /* \"#utility.yul\":22601:22626   */\n      swap3\n      pop\n        /* \"#utility.yul\":22650:22651   */\n      dup3\n        /* \"#utility.yul\":22647:22648   */\n      dup3\n        /* \"#utility.yul\":22643:22652   */\n      sub\n        /* \"#utility.yul\":22635:22652   */\n      swap1\n      pop\n        /* \"#utility.yul\":22674:22675   */\n      dup2\n        /* \"#utility.yul\":22668:22672   */\n      dup2\n        /* \"#utility.yul\":22665:22676   */\n      gt\n        /* \"#utility.yul\":22662:22699   */\n      iszero\n      tag_542\n      jumpi\n        /* \"#utility.yul\":22679:22697   */\n      tag_543\n      tag_250\n      jump\t// in\n    tag_543:\n        /* \"#utility.yul\":22662:22699   */\n    tag_542:\n        /* \"#utility.yul\":22512:22706   */\n      swap3\n      swap2\n      pop\n      pop\n      jump\t// out\n\n    auxdata: 0xa2646970667358221220e6568d81b6c698878b27565c757286cce363da101ecc33a4249cf6f3564905e964736f6c634300081e0033\n}\n",
				"bytecode": {
					"linkReferences": {},
					"object": "608060405234801561000f575f5ffd5b505f6002819055505f67ffffffffffffffff8111156100315761003061011d565b5b60405190808252806020026020018201604052801561005f5781602001602082028036833780820191505090505b506001908051906020019061007592919061007b565b5061014a565b828054828255905f5260205f209081019282156100f1579160200282015b828111156100f0578251825f6101000a81548173ffffffffffffffffffffffffffffffffffffffff021916908373ffffffffffffffffffffffffffffffffffffffff16021790555091602001919060010190610099565b5b5090506100fe9190610102565b5090565b5b80821115610119575f815f905550600101610103565b5090565b7f4e487b71000000000000000000000000000000000000000000000000000000005f52604160045260245ffd5b611dcc806101575f395ff3fe608060405234801561000f575f5ffd5b506004361061009c575f3560e01c8063803863fb11610064578063803863fb1461017e5780638457a66a1461019c578063d3155d16146101cc578063d9514950146101ea578063e92626ae1461021a5761009c565b806322d616d2146100a057806326224c64146100d05780632690eac4146101005780633063c634146101305780633210243e14610160575b5f5ffd5b6100ba60048036038101906100b59190611198565b610238565b6040516100c791906111f0565b60405180910390f35b6100ea60048036038101906100e59190611263565b610547565b6040516100f7919061129d565b60405180910390f35b61011a600480360381019061011591906112b6565b61055c565b6040516101279190611367565b60405180910390f35b61014a600480360381019061014591906114df565b610599565b60405161015791906111f0565b60405180910390f35b6101686108f3565b604051610175919061129d565b60405180910390f35b6101866108f8565b604051610193919061129d565b60405180910390f35b6101b660048036038101906101b1919061154b565b6108fe565b6040516101c39190611585565b60405180910390f35b6101d4610939565b6040516101e1919061129d565b60405180910390f35b61020460048036038101906101ff9190611662565b61093e565b60405161021191906111f0565b60405180910390f35b610222610ace565b60405161022f919061129d565b60405180910390f35b5f6102438333610ad3565b15610250575f9050610541565b5f60045f8581526020019081526020015f206007015490508260045f8681526020019081526020015f20600501828154811061028f5761028e6116a9565b5b905f5260205f2001819055503360045f8681526020019081526020015f2060060182815481106102c2576102c16116a9565b5b905f5260205f20015f6101000a81548173ffffffffffffffffffffffffffffffffffffffff021916908373ffffffffffffffffffffffffffffffffffffffff16021790555060045f8581526020019081526020015f206007015f81548092919061032b90611703565b9190505550600a60045f8681526020019081526020015f20600701540361053b575f5f90505f5f90505b60045f8781526020019081526020015f206007015481101561047a57600a60045f8381526020019081526020015f20600401546103929190611777565b60035f60045f8a81526020019081526020015f2060060184815481106103bb576103ba6116a9565b5b905f5260205f20015f9054906101000a900473ffffffffffffffffffffffffffffffffffffffff1673ffffffffffffffffffffffffffffffffffffffff1673ffffffffffffffffffffffffffffffffffffffff1681526020019081526020015f205f82825461042a91906117a7565b9250508190555060045f8781526020019081526020015f206005018181548110610457576104566116a9565b5b905f5260205f2001548261046b91906117a7565b91508080600101915050610355565b505f60045f8781526020019081526020015f206001015f9054906101000a900473ffffffffffffffffffffffffffffffffffffffff1690508073ffffffffffffffffffffffffffffffffffffffff1663e5d60ce1600a846104db9190611777565b6040518263ffffffff1660e01b81526004016104f7919061129d565b6020604051808303815f875af1158015610513573d5f5f3e3d5ffd5b505050506040513d601f19601f820116820180604052508101906105379190611804565b5050505b60019150505b92915050565b6003602052805f5260405f205f915090505481565b5f602052815f5260405f208181548110610574575f80fd5b905f5260205f209060209182820401919006915091509054906101000a900460ff1681565b5f600a82101580156105b657505f600a836105b4919061182f565b145b6105f5576040517f08c379a00000000000000000000000000000000000000000000000000000000081526004016105ec906118b9565b60405180910390fd5b8160035f3373ffffffffffffffffffffffffffffffffffffffff1673ffffffffffffffffffffffffffffffffffffffff1681526020019081526020015f20541015610675576040517f08c379a000000000000000000000000000000000000000000000000000000000815260040161066c90611921565b60405180910390fd5b5f61067f84610bcf565b90505f60025f81548092919061069490611703565b9190505590506040518061012001604052808281526020013373ffffffffffffffffffffffffffffffffffffffff1681526020018660028111156106db576106da6112f4565b5b8152602001878152602001838152602001858152602001835167ffffffffffffffff81111561070d5761070c611398565b5b60405190808252806020026020018201604052801561073b5781602001602082028036833780820191505090505b508152602001835167ffffffffffffffff81111561075c5761075b611398565b5b60405190808252806020026020018201604052801561078a5781602001602082028036833780820191505090505b5081526020015f81525060045f8381526020019081526020015f205f820151815f01556020820151816001015f6101000a81548173ffffffffffffffffffffffffffffffffffffffff021916908373ffffffffffffffffffffffffffffffffffffffff16021790555060408201518160010160146101000a81548160ff0219169083600281111561081e5761081d6112f4565b5b021790555060608201518160020190816108389190611b46565b506080820151816003019080519060200190610855929190610fb6565b5060a0820151816004015560c082015181600501908051906020019061087c92919061103d565b5060e0820151816006019080519060200190610899929190610fb6565b506101008201518160070155905050807fe84d10fa98af4ed68014b5eb0367cbcb5ee2664f554195989f89f9bc49709004838789886040516108de9493929190611d12565b60405180910390a26001925050509392505050565b605081565b60025481565b6001818154811061090d575f80fd5b905f5260205f20015f915054906101000a900473ffffffffffffffffffffffffffffffffffffffff1681565b600a81565b5f605060035f3373ffffffffffffffffffffffffffffffffffffffff1673ffffffffffffffffffffffffffffffffffffffff1681526020019081526020015f205410156109c0576040517f08c379a00000000000000000000000000000000000000000000000000000000081526004016109b790611921565b60405180910390fd5b605060035f3373ffffffffffffffffffffffffffffffffffffffff1673ffffffffffffffffffffffffffffffffffffffff1681526020019081526020015f205f828254610a0d9190611d63565b92505081905550815f5f3373ffffffffffffffffffffffffffffffffffffffff1673ffffffffffffffffffffffffffffffffffffffff1681526020019081526020015f209080519060200190610a64929190611088565b50600133908060018154018082558091505060019003905f5260205f20015f9091909190916101000a81548173ffffffffffffffffffffffffffffffffffffffff021916908373ffffffffffffffffffffffffffffffffffffffff16021790555060019050919050565b600a81565b5f5f60045f8581526020019081526020015f205f015403610af6575f9050610bc9565b5f60045f8581526020019081526020015f206007015490505f8103610b1e575f915050610bc9565b5f5f90505b81811015610bc3578373ffffffffffffffffffffffffffffffffffffffff1660045f8781526020019081526020015f206006018281548110610b6857610b676116a9565b5b905f5260205f20015f9054906101000a900473ffffffffffffffffffffffffffffffffffffffff1673ffffffffffffffffffffffffffffffffffffffff1603610bb657600192505050610bc9565b8080600101915050610b23565b505f9150505b92915050565b60605f5f90505f5f90505b600180549050811015610d68575f60018281548110610bfc57610bfb6116a9565b5b905f5260205f20015f9054906101000a900473ffffffffffffffffffffffffffffffffffffffff1690505f5f5f8373ffffffffffffffffffffffffffffffffffffffff1673ffffffffffffffffffffffffffffffffffffffff1681526020019081526020015f20805480602002602001604051908101604052809291908181526020018280548015610cde57602002820191905f5260205f20905f905b82829054906101000a900460ff166002811115610cb957610cb86112f4565b5b815260200190600101906020825f01049283019260010382029150808411610c995790505b505050505090505f5f90505b8151811015610d5857866002811115610d0657610d056112f4565b5b828281518110610d1957610d186116a9565b5b60200260200101516002811115610d3357610d326112f4565b5b03610d4b578480610d4390611703565b955050610d58565b8080600101915050610cea565b5050508080600101915050610bda565b505f8167ffffffffffffffff811115610d8457610d83611398565b5b604051908082528060200260200182016040528015610db25781602001602082028036833780820191505090505b5090505f5f90505f5f90505b600180549050811015610faa575f60018281548110610de057610ddf6116a9565b5b905f5260205f20015f9054906101000a900473ffffffffffffffffffffffffffffffffffffffff1690505f5f5f8373ffffffffffffffffffffffffffffffffffffffff1673ffffffffffffffffffffffffffffffffffffffff1681526020019081526020015f20805480602002602001604051908101604052809291908181526020018280548015610ec257602002820191905f5260205f20905f905b82829054906101000a900460ff166002811115610e9d57610e9c6112f4565b5b815260200190600101906020825f01049283019260010382029150808411610e7d5790505b505050505090505f5f90505f5f90505b8251811015610f3657896002811115610eee57610eed6112f4565b5b838281518110610f0157610f006116a9565b5b60200260200101516002811115610f1b57610f1a6112f4565b5b03610f295760019150610f36565b8080600101915050610ed2565b508015610f9a5782868681518110610f5157610f506116a9565b5b602002602001019073ffffffffffffffffffffffffffffffffffffffff16908173ffffffffffffffffffffffffffffffffffffffff16815250508480610f9690611703565b9550505b5050508080600101915050610dbe565b50819350505050919050565b828054828255905f5260205f2090810192821561102c579160200282015b8281111561102b578251825f6101000a81548173ffffffffffffffffffffffffffffffffffffffff021916908373ffffffffffffffffffffffffffffffffffffffff16021790555091602001919060010190610fd4565b5b5090506110399190611139565b5090565b828054828255905f5260205f20908101928215611077579160200282015b8281111561107657825182559160200191906001019061105b565b5b5090506110849190611139565b5090565b828054828255905f5260205f2090601f01602090048101928215611128579160200282015f5b838211156110fa57835183826101000a81548160ff021916908360028111156110da576110d96112f4565b5b021790555092602001926001016020815f010492830192600103026110ae565b80156111265782816101000a81549060ff02191690556001016020815f010492830192600103026110fa565b505b5090506111359190611139565b5090565b5b80821115611150575f815f90555060010161113a565b5090565b5f604051905090565b5f5ffd5b5f5ffd5b5f819050919050565b61117781611165565b8114611181575f5ffd5b50565b5f813590506111928161116e565b92915050565b5f5f604083850312156111ae576111ad61115d565b5b5f6111bb85828601611184565b92505060206111cc85828601611184565b9150509250929050565b5f8115159050919050565b6111ea816111d6565b82525050565b5f6020820190506112035f8301846111e1565b92915050565b5f73ffffffffffffffffffffffffffffffffffffffff82169050919050565b5f61123282611209565b9050919050565b61124281611228565b811461124c575f5ffd5b50565b5f8135905061125d81611239565b92915050565b5f602082840312156112785761127761115d565b5b5f6112858482850161124f565b91505092915050565b61129781611165565b82525050565b5f6020820190506112b05f83018461128e565b92915050565b5f5f604083850312156112cc576112cb61115d565b5b5f6112d98582860161124f565b92505060206112ea85828601611184565b9150509250929050565b7f4e487b71000000000000000000000000000000000000000000000000000000005f52602160045260245ffd5b60038110611332576113316112f4565b5b50565b5f81905061134282611321565b919050565b5f61135182611335565b9050919050565b61136181611347565b82525050565b5f60208201905061137a5f830184611358565b92915050565b5f5ffd5b5f5ffd5b5f601f19601f8301169050919050565b7f4e487b71000000000000000000000000000000000000000000000000000000005f52604160045260245ffd5b6113ce82611388565b810181811067ffffffffffffffff821117156113ed576113ec611398565b5b80604052505050565b5f6113ff611154565b905061140b82826113c5565b919050565b5f67ffffffffffffffff82111561142a57611429611398565b5b61143382611388565b9050602081019050919050565b828183375f83830152505050565b5f61146061145b84611410565b6113f6565b90508281526020810184848401111561147c5761147b611384565b5b611487848285611440565b509392505050565b5f82601f8301126114a3576114a2611380565b5b81356114b384826020860161144e565b91505092915050565b600381106114c8575f5ffd5b50565b5f813590506114d9816114bc565b92915050565b5f5f5f606084860312156114f6576114f561115d565b5b5f84013567ffffffffffffffff81111561151357611512611161565b5b61151f8682870161148f565b9350506020611530868287016114cb565b925050604061154186828701611184565b9150509250925092565b5f602082840312156115605761155f61115d565b5b5f61156d84828501611184565b91505092915050565b61157f81611228565b82525050565b5f6020820190506115985f830184611576565b92915050565b5f67ffffffffffffffff8211156115b8576115b7611398565b5b602082029050602081019050919050565b5f5ffd5b5f6115df6115da8461159e565b6113f6565b90508083825260208201905060208402830185811115611602576116016115c9565b5b835b8181101561162b578061161788826114cb565b845260208401935050602081019050611604565b5050509392505050565b5f82601f83011261164957611648611380565b5b81356116598482602086016115cd565b91505092915050565b5f602082840312156116775761167661115d565b5b5f82013567ffffffffffffffff81111561169457611693611161565b5b6116a084828501611635565b91505092915050565b7f4e487b71000000000000000000000000000000000000000000000000000000005f52603260045260245ffd5b7f4e487b71000000000000000000000000000000000000000000000000000000005f52601160045260245ffd5b5f61170d82611165565b91507fffffffffffffffffffffffffffffffffffffffffffffffffffffffffffffffff820361173f5761173e6116d6565b5b600182019050919050565b7f4e487b71000000000000000000000000000000000000000000000000000000005f52601260045260245ffd5b5f61178182611165565b915061178c83611165565b92508261179c5761179b61174a565b5b828204905092915050565b5f6117b182611165565b91506117bc83611165565b92508282019050808211156117d4576117d36116d6565b5b92915050565b6117e3816111d6565b81146117ed575f5ffd5b50565b5f815190506117fe816117da565b92915050565b5f602082840312156118195761181861115d565b5b5f611826848285016117f0565b91505092915050565b5f61183982611165565b915061184483611165565b9250826118545761185361174a565b5b828206905092915050565b5f82825260208201905092915050565b7f746f6f206c6573732066656500000000000000000000000000000000000000005f82015250565b5f6118a3600c8361185f565b91506118ae8261186f565b602082019050919050565b5f6020820190508181035f8301526118d081611897565b9050919050565b7f6e6f7420656e6f756768206d6f6e6579000000000000000000000000000000005f82015250565b5f61190b60108361185f565b9150611916826118d7565b602082019050919050565b5f6020820190508181035f830152611938816118ff565b9050919050565b5f81519050919050565b7f4e487b71000000000000000000000000000000000000000000000000000000005f52602260045260245ffd5b5f600282049050600182168061198d57607f821691505b6020821081036119a05761199f611949565b5b50919050565b5f819050815f5260205f209050919050565b5f6020601f8301049050919050565b5f82821b905092915050565b5f60088302611a027fffffffffffffffffffffffffffffffffffffffffffffffffffffffffffffffff826119c7565b611a0c86836119c7565b95508019841693508086168417925050509392505050565b5f819050919050565b5f611a47611a42611a3d84611165565b611a24565b611165565b9050919050565b5f819050919050565b611a6083611a2d565b611a74611a6c82611a4e565b8484546119d3565b825550505050565b5f5f905090565b611a8b611a7c565b611a96818484611a57565b505050565b5b81811015611ab957611aae5f82611a83565b600181019050611a9c565b5050565b601f821115611afe57611acf816119a6565b611ad8846119b8565b81016020851015611ae7578190505b611afb611af3856119b8565b830182611a9b565b50505b505050565b5f82821c905092915050565b5f611b1e5f1984600802611b03565b1980831691505092915050565b5f611b368383611b0f565b9150826002028217905092915050565b611b4f8261193f565b67ffffffffffffffff811115611b6857611b67611398565b5b611b728254611976565b611b7d828285611abd565b5f60209050601f831160018114611bae575f8415611b9c578287015190505b611ba68582611b2b565b865550611c0d565b601f198416611bbc866119a6565b5f5b82811015611be357848901518255600182019150602085019450602081019050611bbe565b86831015611c005784890151611bfc601f891682611b0f565b8355505b6001600288020188555050505b505050505050565b5f81519050919050565b5f82825260208201905092915050565b5f819050602082019050919050565b611c4781611228565b82525050565b5f611c588383611c3e565b60208301905092915050565b5f602082019050919050565b5f611c7a82611c15565b611c848185611c1f565b9350611c8f83611c2f565b805f5b83811015611cbf578151611ca68882611c4d565b9750611cb183611c64565b925050600181019050611c92565b5085935050505092915050565b8281835e5f83830152505050565b5f611ce48261193f565b611cee818561185f565b9350611cfe818560208601611ccc565b611d0781611388565b840191505092915050565b5f6080820190508181035f830152611d2a8187611c70565b9050611d396020830186611358565b8181036040830152611d4b8185611cda565b9050611d5a606083018461128e565b95945050505050565b5f611d6d82611165565b9150611d7883611165565b9250828203905081811115611d9057611d8f6116d6565b5b9291505056fea2646970667358221220e6568d81b6c698878b27565c757286cce363da101ecc33a4249cf6f3564905e964736f6c634300081e0033",
					"opcodes": "PUSH1 0x80 PUSH1 0x40 MSTORE CALLVALUE DUP1 ISZERO PUSH2 0xF JUMPI PUSH0 PUSH0 REVERT JUMPDEST POP PUSH0 PUSH1 0x2 DUP2 SWAP1 SSTORE POP PUSH0 PUSH8 0xFFFFFFFFFFFFFFFF DUP2 GT ISZERO PUSH2 0x31 JUMPI PUSH2 0x30 PUSH2 0x11D JUMP JUMPDEST JUMPDEST PUSH1 0x40 MLOAD SWAP1 DUP1 DUP3 MSTORE DUP1 PUSH1 0x20 MUL PUSH1 0x20 ADD DUP3 ADD PUSH1 0x40 MSTORE DUP1 ISZERO PUSH2 0x5F JUMPI DUP2 PUSH1 0x20 ADD PUSH1 0x20 DUP3 MUL DUP1 CALLDATASIZE DUP4 CALLDATACOPY DUP1 DUP3 ADD SWAP2 POP POP SWAP1 POP JUMPDEST POP PUSH1 0x1 SWAP1 DUP1 MLOAD SWAP1 PUSH1 0x20 ADD SWAP1 PUSH2 0x75 SWAP3 SWAP2 SWAP1 PUSH2 0x7B JUMP JUMPDEST POP PUSH2 0x14A JUMP JUMPDEST DUP3 DUP1 SLOAD DUP3 DUP3 SSTORE SWAP1 PUSH0 MSTORE PUSH1 0x20 PUSH0 KECCAK256 SWAP1 DUP2 ADD SWAP3 DUP3 ISZERO PUSH2 0xF1 JUMPI SWAP2 PUSH1 0x20 MUL DUP3 ADD JUMPDEST DUP3 DUP2 GT ISZERO PUSH2 0xF0 JUMPI DUP3 MLOAD DUP3 PUSH0 PUSH2 0x100 EXP DUP2 SLOAD DUP2 PUSH20 0xFFFFFFFFFFFFFFFFFFFFFFFFFFFFFFFFFFFFFFFF MUL NOT AND SWAP1 DUP4 PUSH20 0xFFFFFFFFFFFFFFFFFFFFFFFFFFFFFFFFFFFFFFFF AND MUL OR SWAP1 SSTORE POP SWAP2 PUSH1 0x20 ADD SWAP2 SWAP1 PUSH1 0x1 ADD SWAP1 PUSH2 0x99 JUMP JUMPDEST JUMPDEST POP SWAP1 POP PUSH2 0xFE SWAP2 SWAP1 PUSH2 0x102 JUMP JUMPDEST POP SWAP1 JUMP JUMPDEST JUMPDEST DUP1 DUP3 GT ISZERO PUSH2 0x119 JUMPI PUSH0 DUP2 PUSH0 SWAP1 SSTORE POP PUSH1 0x1 ADD PUSH2 0x103 JUMP JUMPDEST POP SWAP1 JUMP JUMPDEST PUSH32 0x4E487B7100000000000000000000000000000000000000000000000000000000 PUSH0 MSTORE PUSH1 0x41 PUSH1 0x4 MSTORE PUSH1 0x24 PUSH0 REVERT JUMPDEST PUSH2 0x1DCC DUP1 PUSH2 0x157 PUSH0 CODECOPY PUSH0 RETURN INVALID PUSH1 0x80 PUSH1 0x40 MSTORE CALLVALUE DUP1 ISZERO PUSH2 0xF JUMPI PUSH0 PUSH0 REVERT JUMPDEST POP PUSH1 0x4 CALLDATASIZE LT PUSH2 0x9C JUMPI PUSH0 CALLDATALOAD PUSH1 0xE0 SHR DUP1 PUSH4 0x803863FB GT PUSH2 0x64 JUMPI DUP1 PUSH4 0x803863FB EQ PUSH2 0x17E JUMPI DUP1 PUSH4 0x8457A66A EQ PUSH2 0x19C JUMPI DUP1 PUSH4 0xD3155D16 EQ PUSH2 0x1CC JUMPI DUP1 PUSH4 0xD9514950 EQ PUSH2 0x1EA JUMPI DUP1 PUSH4 0xE92626AE EQ PUSH2 0x21A JUMPI PUSH2 0x9C JUMP JUMPDEST DUP1 PUSH4 0x22D616D2 EQ PUSH2 0xA0 JUMPI DUP1 PUSH4 0x26224C64 EQ PUSH2 0xD0 JUMPI DUP1 PUSH4 0x2690EAC4 EQ PUSH2 0x100 JUMPI DUP1 PUSH4 0x3063C634 EQ PUSH2 0x130 JUMPI DUP1 PUSH4 0x3210243E EQ PUSH2 0x160 JUMPI JUMPDEST PUSH0 PUSH0 REVERT JUMPDEST PUSH2 0xBA PUSH1 0x4 DUP1 CALLDATASIZE SUB DUP2 ADD SWAP1 PUSH2 0xB5 SWAP2 SWAP1 PUSH2 0x1198 JUMP JUMPDEST PUSH2 0x238 JUMP JUMPDEST PUSH1 0x40 MLOAD PUSH2 0xC7 SWAP2 SWAP1 PUSH2 0x11F0 JUMP JUMPDEST PUSH1 0x40 MLOAD DUP1 SWAP2 SUB SWAP1 RETURN JUMPDEST PUSH2 0xEA PUSH1 0x4 DUP1 CALLDATASIZE SUB DUP2 ADD SWAP1 PUSH2 0xE5 SWAP2 SWAP1 PUSH2 0x1263 JUMP JUMPDEST PUSH2 0x547 JUMP JUMPDEST PUSH1 0x40 MLOAD PUSH2 0xF7 SWAP2 SWAP1 PUSH2 0x129D JUMP JUMPDEST PUSH1 0x40 MLOAD DUP1 SWAP2 SUB SWAP1 RETURN JUMPDEST PUSH2 0x11A PUSH1 0x4 DUP1 CALLDATASIZE SUB DUP2 ADD SWAP1 PUSH2 0x115 SWAP2 SWAP1 PUSH2 0x12B6 JUMP JUMPDEST PUSH2 0x55C JUMP JUMPDEST PUSH1 0x40 MLOAD PUSH2 0x127 SWAP2 SWAP1 PUSH2 0x1367 JUMP JUMPDEST PUSH1 0x40 MLOAD DUP1 SWAP2 SUB SWAP1 RETURN JUMPDEST PUSH2 0x14A PUSH1 0x4 DUP1 CALLDATASIZE SUB DUP2 ADD SWAP1 PUSH2 0x145 SWAP2 SWAP1 PUSH2 0x14DF JUMP JUMPDEST PUSH2 0x599 JUMP JUMPDEST PUSH1 0x40 MLOAD PUSH2 0x157 SWAP2 SWAP1 PUSH2 0x11F0 JUMP JUMPDEST PUSH1 0x40 MLOAD DUP1 SWAP2 SUB SWAP1 RETURN JUMPDEST PUSH2 0x168 PUSH2 0x8F3 JUMP JUMPDEST PUSH1 0x40 MLOAD PUSH2 0x175 SWAP2 SWAP1 PUSH2 0x129D JUMP JUMPDEST PUSH1 0x40 MLOAD DUP1 SWAP2 SUB SWAP1 RETURN JUMPDEST PUSH2 0x186 PUSH2 0x8F8 JUMP JUMPDEST PUSH1 0x40 MLOAD PUSH2 0x193 SWAP2 SWAP1 PUSH2 0x129D JUMP JUMPDEST PUSH1 0x40 MLOAD DUP1 SWAP2 SUB SWAP1 RETURN JUMPDEST PUSH2 0x1B6 PUSH1 0x4 DUP1 CALLDATASIZE SUB DUP2 ADD SWAP1 PUSH2 0x1B1 SWAP2 SWAP1 PUSH2 0x154B JUMP JUMPDEST PUSH2 0x8FE JUMP JUMPDEST PUSH1 0x40 MLOAD PUSH2 0x1C3 SWAP2 SWAP1 PUSH2 0x1585 JUMP JUMPDEST PUSH1 0x40 MLOAD DUP1 SWAP2 SUB SWAP1 RETURN JUMPDEST PUSH2 0x1D4 PUSH2 0x939 JUMP JUMPDEST PUSH1 0x40 MLOAD PUSH2 0x1E1 SWAP2 SWAP1 PUSH2 0x129D JUMP JUMPDEST PUSH1 0x40 MLOAD DUP1 SWAP2 SUB SWAP1 RETURN JUMPDEST PUSH2 0x204 PUSH1 0x4 DUP1 CALLDATASIZE SUB DUP2 ADD SWAP1 PUSH2 0x1FF SWAP2 SWAP1 PUSH2 0x1662 JUMP JUMPDEST PUSH2 0x93E JUMP JUMPDEST PUSH1 0x40 MLOAD PUSH2 0x211 SWAP2 SWAP1 PUSH2 0x11F0 JUMP JUMPDEST PUSH1 0x40 MLOAD DUP1 SWAP2 SUB SWAP1 RETURN JUMPDEST PUSH2 0x222 PUSH2 0xACE JUMP JUMPDEST PUSH1 0x40 MLOAD PUSH2 0x22F SWAP2 SWAP1 PUSH2 0x129D JUMP JUMPDEST PUSH1 0x40 MLOAD DUP1 SWAP2 SUB SWAP1 RETURN JUMPDEST PUSH0 PUSH2 0x243 DUP4 CALLER PUSH2 0xAD3 JUMP JUMPDEST ISZERO PUSH2 0x250 JUMPI PUSH0 SWAP1 POP PUSH2 0x541 JUMP JUMPDEST PUSH0 PUSH1 0x4 PUSH0 DUP6 DUP2 MSTORE PUSH1 0x20 ADD SWAP1 DUP2 MSTORE PUSH1 0x20 ADD PUSH0 KECCAK256 PUSH1 0x7 ADD SLOAD SWAP1 POP DUP3 PUSH1 0x4 PUSH0 DUP7 DUP2 MSTORE PUSH1 0x20 ADD SWAP1 DUP2 MSTORE PUSH1 0x20 ADD PUSH0 KECCAK256 PUSH1 0x5 ADD DUP3 DUP2 SLOAD DUP2 LT PUSH2 0x28F JUMPI PUSH2 0x28E PUSH2 0x16A9 JUMP JUMPDEST JUMPDEST SWAP1 PUSH0 MSTORE PUSH1 0x20 PUSH0 KECCAK256 ADD DUP2 SWAP1 SSTORE POP CALLER PUSH1 0x4 PUSH0 DUP7 DUP2 MSTORE PUSH1 0x20 ADD SWAP1 DUP2 MSTORE PUSH1 0x20 ADD PUSH0 KECCAK256 PUSH1 0x6 ADD DUP3 DUP2 SLOAD DUP2 LT PUSH2 0x2C2 JUMPI PUSH2 0x2C1 PUSH2 0x16A9 JUMP JUMPDEST JUMPDEST SWAP1 PUSH0 MSTORE PUSH1 0x20 PUSH0 KECCAK256 ADD PUSH0 PUSH2 0x100 EXP DUP2 SLOAD DUP2 PUSH20 0xFFFFFFFFFFFFFFFFFFFFFFFFFFFFFFFFFFFFFFFF MUL NOT AND SWAP1 DUP4 PUSH20 0xFFFFFFFFFFFFFFFFFFFFFFFFFFFFFFFFFFFFFFFF AND MUL OR SWAP1 SSTORE POP PUSH1 0x4 PUSH0 DUP6 DUP2 MSTORE PUSH1 0x20 ADD SWAP1 DUP2 MSTORE PUSH1 0x20 ADD PUSH0 KECCAK256 PUSH1 0x7 ADD PUSH0 DUP2 SLOAD DUP1 SWAP3 SWAP2 SWAP1 PUSH2 0x32B SWAP1 PUSH2 0x1703 JUMP JUMPDEST SWAP2 SWAP1 POP SSTORE POP PUSH1 0xA PUSH1 0x4 PUSH0 DUP7 DUP2 MSTORE PUSH1 0x20 ADD SWAP1 DUP2 MSTORE PUSH1 0x20 ADD PUSH0 KECCAK256 PUSH1 0x7 ADD SLOAD SUB PUSH2 0x53B JUMPI PUSH0 PUSH0 SWAP1 POP PUSH0 PUSH0 SWAP1 POP JUMPDEST PUSH1 0x4 PUSH0 DUP8 DUP2 MSTORE PUSH1 0x20 ADD SWAP1 DUP2 MSTORE PUSH1 0x20 ADD PUSH0 KECCAK256 PUSH1 0x7 ADD SLOAD DUP2 LT ISZERO PUSH2 0x47A JUMPI PUSH1 0xA PUSH1 0x4 PUSH0 DUP4 DUP2 MSTORE PUSH1 0x20 ADD SWAP1 DUP2 MSTORE PUSH1 0x20 ADD PUSH0 KECCAK256 PUSH1 0x4 ADD SLOAD PUSH2 0x392 SWAP2 SWAP1 PUSH2 0x1777 JUMP JUMPDEST PUSH1 0x3 PUSH0 PUSH1 0x4 PUSH0 DUP11 DUP2 MSTORE PUSH1 0x20 ADD SWAP1 DUP2 MSTORE PUSH1 0x20 ADD PUSH0 KECCAK256 PUSH1 0x6 ADD DUP5 DUP2 SLOAD DUP2 LT PUSH2 0x3BB JUMPI PUSH2 0x3BA PUSH2 0x16A9 JUMP JUMPDEST JUMPDEST SWAP1 PUSH0 MSTORE PUSH1 0x20 PUSH0 KECCAK256 ADD PUSH0 SWAP1 SLOAD SWAP1 PUSH2 0x100 EXP SWAP1 DIV PUSH20 0xFFFFFFFFFFFFFFFFFFFFFFFFFFFFFFFFFFFFFFFF AND PUSH20 0xFFFFFFFFFFFFFFFFFFFFFFFFFFFFFFFFFFFFFFFF AND PUSH20 0xFFFFFFFFFFFFFFFFFFFFFFFFFFFFFFFFFFFFFFFF AND DUP2 MSTORE PUSH1 0x20 ADD SWAP1 DUP2 MSTORE PUSH1 0x20 ADD PUSH0 KECCAK256 PUSH0 DUP3 DUP3 SLOAD PUSH2 0x42A SWAP2 SWAP1 PUSH2 0x17A7 JUMP JUMPDEST SWAP3 POP POP DUP2 SWAP1 SSTORE POP PUSH1 0x4 PUSH0 DUP8 DUP2 MSTORE PUSH1 0x20 ADD SWAP1 DUP2 MSTORE PUSH1 0x20 ADD PUSH0 KECCAK256 PUSH1 0x5 ADD DUP2 DUP2 SLOAD DUP2 LT PUSH2 0x457 JUMPI PUSH2 0x456 PUSH2 0x16A9 JUMP JUMPDEST JUMPDEST SWAP1 PUSH0 MSTORE PUSH1 0x20 PUSH0 KECCAK256 ADD SLOAD DUP3 PUSH2 0x46B SWAP2 SWAP1 PUSH2 0x17A7 JUMP JUMPDEST SWAP2 POP DUP1 DUP1 PUSH1 0x1 ADD SWAP2 POP POP PUSH2 0x355 JUMP JUMPDEST POP PUSH0 PUSH1 0x4 PUSH0 DUP8 DUP2 MSTORE PUSH1 0x20 ADD SWAP1 DUP2 MSTORE PUSH1 0x20 ADD PUSH0 KECCAK256 PUSH1 0x1 ADD PUSH0 SWAP1 SLOAD SWAP1 PUSH2 0x100 EXP SWAP1 DIV PUSH20 0xFFFFFFFFFFFFFFFFFFFFFFFFFFFFFFFFFFFFFFFF AND SWAP1 POP DUP1 PUSH20 0xFFFFFFFFFFFFFFFFFFFFFFFFFFFFFFFFFFFFFFFF AND PUSH4 0xE5D60CE1 PUSH1 0xA DUP5 PUSH2 0x4DB SWAP2 SWAP1 PUSH2 0x1777 JUMP JUMPDEST PUSH1 0x40 MLOAD DUP3 PUSH4 0xFFFFFFFF AND PUSH1 0xE0 SHL DUP2 MSTORE PUSH1 0x4 ADD PUSH2 0x4F7 SWAP2 SWAP1 PUSH2 0x129D JUMP JUMPDEST PUSH1 0x20 PUSH1 0x40 MLOAD DUP1 DUP4 SUB DUP2 PUSH0 DUP8 GAS CALL ISZERO DUP1 ISZERO PUSH2 0x513 JUMPI RETURNDATASIZE PUSH0 PUSH0 RETURNDATACOPY RETURNDATASIZE PUSH0 REVERT JUMPDEST POP POP POP POP PUSH1 0x40 MLOAD RETURNDATASIZE PUSH1 0x1F NOT PUSH1 0x1F DUP3 ADD AND DUP3 ADD DUP1 PUSH1 0x40 MSTORE POP DUP2 ADD SWAP1 PUSH2 0x537 SWAP2 SWAP1 PUSH2 0x1804 JUMP JUMPDEST POP POP POP JUMPDEST PUSH1 0x1 SWAP2 POP POP JUMPDEST SWAP3 SWAP2 POP POP JUMP JUMPDEST PUSH1 0x3 PUSH1 0x20 MSTORE DUP1 PUSH0 MSTORE PUSH1 0x40 PUSH0 KECCAK256 PUSH0 SWAP2 POP SWAP1 POP SLOAD DUP2 JUMP JUMPDEST PUSH0 PUSH1 0x20 MSTORE DUP2 PUSH0 MSTORE PUSH1 0x40 PUSH0 KECCAK256 DUP2 DUP2 SLOAD DUP2 LT PUSH2 0x574 JUMPI PUSH0 DUP1 REVERT JUMPDEST SWAP1 PUSH0 MSTORE PUSH1 0x20 PUSH0 KECCAK256 SWAP1 PUSH1 0x20 SWAP2 DUP3 DUP3 DIV ADD SWAP2 SWAP1 MOD SWAP2 POP SWAP2 POP SWAP1 SLOAD SWAP1 PUSH2 0x100 EXP SWAP1 DIV PUSH1 0xFF AND DUP2 JUMP JUMPDEST PUSH0 PUSH1 0xA DUP3 LT ISZERO DUP1 ISZERO PUSH2 0x5B6 JUMPI POP PUSH0 PUSH1 0xA DUP4 PUSH2 0x5B4 SWAP2 SWAP1 PUSH2 0x182F JUMP JUMPDEST EQ JUMPDEST PUSH2 0x5F5 JUMPI PUSH1 0x40 MLOAD PUSH32 0x8C379A000000000000000000000000000000000000000000000000000000000 DUP2 MSTORE PUSH1 0x4 ADD PUSH2 0x5EC SWAP1 PUSH2 0x18B9 JUMP JUMPDEST PUSH1 0x40 MLOAD DUP1 SWAP2 SUB SWAP1 REVERT JUMPDEST DUP2 PUSH1 0x3 PUSH0 CALLER PUSH20 0xFFFFFFFFFFFFFFFFFFFFFFFFFFFFFFFFFFFFFFFF AND PUSH20 0xFFFFFFFFFFFFFFFFFFFFFFFFFFFFFFFFFFFFFFFF AND DUP2 MSTORE PUSH1 0x20 ADD SWAP1 DUP2 MSTORE PUSH1 0x20 ADD PUSH0 KECCAK256 SLOAD LT ISZERO PUSH2 0x675 JUMPI PUSH1 0x40 MLOAD PUSH32 0x8C379A000000000000000000000000000000000000000000000000000000000 DUP2 MSTORE PUSH1 0x4 ADD PUSH2 0x66C SWAP1 PUSH2 0x1921 JUMP JUMPDEST PUSH1 0x40 MLOAD DUP1 SWAP2 SUB SWAP1 REVERT JUMPDEST PUSH0 PUSH2 0x67F DUP5 PUSH2 0xBCF JUMP JUMPDEST SWAP1 POP PUSH0 PUSH1 0x2 PUSH0 DUP2 SLOAD DUP1 SWAP3 SWAP2 SWAP1 PUSH2 0x694 SWAP1 PUSH2 0x1703 JUMP JUMPDEST SWAP2 SWAP1 POP SSTORE SWAP1 POP PUSH1 0x40 MLOAD DUP1 PUSH2 0x120 ADD PUSH1 0x40 MSTORE DUP1 DUP3 DUP2 MSTORE PUSH1 0x20 ADD CALLER PUSH20 0xFFFFFFFFFFFFFFFFFFFFFFFFFFFFFFFFFFFFFFFF AND DUP2 MSTORE PUSH1 0x20 ADD DUP7 PUSH1 0x2 DUP2 GT ISZERO PUSH2 0x6DB JUMPI PUSH2 0x6DA PUSH2 0x12F4 JUMP JUMPDEST JUMPDEST DUP2 MSTORE PUSH1 0x20 ADD DUP8 DUP2 MSTORE PUSH1 0x20 ADD DUP4 DUP2 MSTORE PUSH1 0x20 ADD DUP6 DUP2 MSTORE PUSH1 0x20 ADD DUP4 MLOAD PUSH8 0xFFFFFFFFFFFFFFFF DUP2 GT ISZERO PUSH2 0x70D JUMPI PUSH2 0x70C PUSH2 0x1398 JUMP JUMPDEST JUMPDEST PUSH1 0x40 MLOAD SWAP1 DUP1 DUP3 MSTORE DUP1 PUSH1 0x20 MUL PUSH1 0x20 ADD DUP3 ADD PUSH1 0x40 MSTORE DUP1 ISZERO PUSH2 0x73B JUMPI DUP2 PUSH1 0x20 ADD PUSH1 0x20 DUP3 MUL DUP1 CALLDATASIZE DUP4 CALLDATACOPY DUP1 DUP3 ADD SWAP2 POP POP SWAP1 POP JUMPDEST POP DUP2 MSTORE PUSH1 0x20 ADD DUP4 MLOAD PUSH8 0xFFFFFFFFFFFFFFFF DUP2 GT ISZERO PUSH2 0x75C JUMPI PUSH2 0x75B PUSH2 0x1398 JUMP JUMPDEST JUMPDEST PUSH1 0x40 MLOAD SWAP1 DUP1 DUP3 MSTORE DUP1 PUSH1 0x20 MUL PUSH1 0x20 ADD DUP3 ADD PUSH1 0x40 MSTORE DUP1 ISZERO PUSH2 0x78A JUMPI DUP2 PUSH1 0x20 ADD PUSH1 0x20 DUP3 MUL DUP1 CALLDATASIZE DUP4 CALLDATACOPY DUP1 DUP3 ADD SWAP2 POP POP SWAP1 POP JUMPDEST POP DUP2 MSTORE PUSH1 0x20 ADD PUSH0 DUP2 MSTORE POP PUSH1 0x4 PUSH0 DUP4 DUP2 MSTORE PUSH1 0x20 ADD SWAP1 DUP2 MSTORE PUSH1 0x20 ADD PUSH0 KECCAK256 PUSH0 DUP3 ADD MLOAD DUP2 PUSH0 ADD SSTORE PUSH1 0x20 DUP3 ADD MLOAD DUP2 PUSH1 0x1 ADD PUSH0 PUSH2 0x100 EXP DUP2 SLOAD DUP2 PUSH20 0xFFFFFFFFFFFFFFFFFFFFFFFFFFFFFFFFFFFFFFFF MUL NOT AND SWAP1 DUP4 PUSH20 0xFFFFFFFFFFFFFFFFFFFFFFFFFFFFFFFFFFFFFFFF AND MUL OR SWAP1 SSTORE POP PUSH1 0x40 DUP3 ADD MLOAD DUP2 PUSH1 0x1 ADD PUSH1 0x14 PUSH2 0x100 EXP DUP2 SLOAD DUP2 PUSH1 0xFF MUL NOT AND SWAP1 DUP4 PUSH1 0x2 DUP2 GT ISZERO PUSH2 0x81E JUMPI PUSH2 0x81D PUSH2 0x12F4 JUMP JUMPDEST JUMPDEST MUL OR SWAP1 SSTORE POP PUSH1 0x60 DUP3 ADD MLOAD DUP2 PUSH1 0x2 ADD SWAP1 DUP2 PUSH2 0x838 SWAP2 SWAP1 PUSH2 0x1B46 JUMP JUMPDEST POP PUSH1 0x80 DUP3 ADD MLOAD DUP2 PUSH1 0x3 ADD SWAP1 DUP1 MLOAD SWAP1 PUSH1 0x20 ADD SWAP1 PUSH2 0x855 SWAP3 SWAP2 SWAP1 PUSH2 0xFB6 JUMP JUMPDEST POP PUSH1 0xA0 DUP3 ADD MLOAD DUP2 PUSH1 0x4 ADD SSTORE PUSH1 0xC0 DUP3 ADD MLOAD DUP2 PUSH1 0x5 ADD SWAP1 DUP1 MLOAD SWAP1 PUSH1 0x20 ADD SWAP1 PUSH2 0x87C SWAP3 SWAP2 SWAP1 PUSH2 0x103D JUMP JUMPDEST POP PUSH1 0xE0 DUP3 ADD MLOAD DUP2 PUSH1 0x6 ADD SWAP1 DUP1 MLOAD SWAP1 PUSH1 0x20 ADD SWAP1 PUSH2 0x899 SWAP3 SWAP2 SWAP1 PUSH2 0xFB6 JUMP JUMPDEST POP PUSH2 0x100 DUP3 ADD MLOAD DUP2 PUSH1 0x7 ADD SSTORE SWAP1 POP POP DUP1 PUSH32 0xE84D10FA98AF4ED68014B5EB0367CBCB5EE2664F554195989F89F9BC49709004 DUP4 DUP8 DUP10 DUP9 PUSH1 0x40 MLOAD PUSH2 0x8DE SWAP5 SWAP4 SWAP3 SWAP2 SWAP1 PUSH2 0x1D12 JUMP JUMPDEST PUSH1 0x40 MLOAD DUP1 SWAP2 SUB SWAP1 LOG2 PUSH1 0x1 SWAP3 POP POP POP SWAP4 SWAP3 POP POP POP JUMP JUMPDEST PUSH1 0x50 DUP2 JUMP JUMPDEST PUSH1 0x2 SLOAD DUP2 JUMP JUMPDEST PUSH1 0x1 DUP2 DUP2 SLOAD DUP2 LT PUSH2 0x90D JUMPI PUSH0 DUP1 REVERT JUMPDEST SWAP1 PUSH0 MSTORE PUSH1 0x20 PUSH0 KECCAK256 ADD PUSH0 SWAP2 POP SLOAD SWAP1 PUSH2 0x100 EXP SWAP1 DIV PUSH20 0xFFFFFFFFFFFFFFFFFFFFFFFFFFFFFFFFFFFFFFFF AND DUP2 JUMP JUMPDEST PUSH1 0xA DUP2 JUMP JUMPDEST PUSH0 PUSH1 0x50 PUSH1 0x3 PUSH0 CALLER PUSH20 0xFFFFFFFFFFFFFFFFFFFFFFFFFFFFFFFFFFFFFFFF AND PUSH20 0xFFFFFFFFFFFFFFFFFFFFFFFFFFFFFFFFFFFFFFFF AND DUP2 MSTORE PUSH1 0x20 ADD SWAP1 DUP2 MSTORE PUSH1 0x20 ADD PUSH0 KECCAK256 SLOAD LT ISZERO PUSH2 0x9C0 JUMPI PUSH1 0x40 MLOAD PUSH32 0x8C379A000000000000000000000000000000000000000000000000000000000 DUP2 MSTORE PUSH1 0x4 ADD PUSH2 0x9B7 SWAP1 PUSH2 0x1921 JUMP JUMPDEST PUSH1 0x40 MLOAD DUP1 SWAP2 SUB SWAP1 REVERT JUMPDEST PUSH1 0x50 PUSH1 0x3 PUSH0 CALLER PUSH20 0xFFFFFFFFFFFFFFFFFFFFFFFFFFFFFFFFFFFFFFFF AND PUSH20 0xFFFFFFFFFFFFFFFFFFFFFFFFFFFFFFFFFFFFFFFF AND DUP2 MSTORE PUSH1 0x20 ADD SWAP1 DUP2 MSTORE PUSH1 0x20 ADD PUSH0 KECCAK256 PUSH0 DUP3 DUP3 SLOAD PUSH2 0xA0D SWAP2 SWAP1 PUSH2 0x1D63 JUMP JUMPDEST SWAP3 POP POP DUP2 SWAP1 SSTORE POP DUP2 PUSH0 PUSH0 CALLER PUSH20 0xFFFFFFFFFFFFFFFFFFFFFFFFFFFFFFFFFFFFFFFF AND PUSH20 0xFFFFFFFFFFFFFFFFFFFFFFFFFFFFFFFFFFFFFFFF AND DUP2 MSTORE PUSH1 0x20 ADD SWAP1 DUP2 MSTORE PUSH1 0x20 ADD PUSH0 KECCAK256 SWAP1 DUP1 MLOAD SWAP1 PUSH1 0x20 ADD SWAP1 PUSH2 0xA64 SWAP3 SWAP2 SWAP1 PUSH2 0x1088 JUMP JUMPDEST POP PUSH1 0x1 CALLER SWAP1 DUP1 PUSH1 0x1 DUP2 SLOAD ADD DUP1 DUP3 SSTORE DUP1 SWAP2 POP POP PUSH1 0x1 SWAP1 SUB SWAP1 PUSH0 MSTORE PUSH1 0x20 PUSH0 KECCAK256 ADD PUSH0 SWAP1 SWAP2 SWAP1 SWAP2 SWAP1 SWAP2 PUSH2 0x100 EXP DUP2 SLOAD DUP2 PUSH20 0xFFFFFFFFFFFFFFFFFFFFFFFFFFFFFFFFFFFFFFFF MUL NOT AND SWAP1 DUP4 PUSH20 0xFFFFFFFFFFFFFFFFFFFFFFFFFFFFFFFFFFFFFFFF AND MUL OR SWAP1 SSTORE POP PUSH1 0x1 SWAP1 POP SWAP2 SWAP1 POP JUMP JUMPDEST PUSH1 0xA DUP2 JUMP JUMPDEST PUSH0 PUSH0 PUSH1 0x4 PUSH0 DUP6 DUP2 MSTORE PUSH1 0x20 ADD SWAP1 DUP2 MSTORE PUSH1 0x20 ADD PUSH0 KECCAK256 PUSH0 ADD SLOAD SUB PUSH2 0xAF6 JUMPI PUSH0 SWAP1 POP PUSH2 0xBC9 JUMP JUMPDEST PUSH0 PUSH1 0x4 PUSH0 DUP6 DUP2 MSTORE PUSH1 0x20 ADD SWAP1 DUP2 MSTORE PUSH1 0x20 ADD PUSH0 KECCAK256 PUSH1 0x7 ADD SLOAD SWAP1 POP PUSH0 DUP2 SUB PUSH2 0xB1E JUMPI PUSH0 SWAP2 POP POP PUSH2 0xBC9 JUMP JUMPDEST PUSH0 PUSH0 SWAP1 POP JUMPDEST DUP2 DUP2 LT ISZERO PUSH2 0xBC3 JUMPI DUP4 PUSH20 0xFFFFFFFFFFFFFFFFFFFFFFFFFFFFFFFFFFFFFFFF AND PUSH1 0x4 PUSH0 DUP8 DUP2 MSTORE PUSH1 0x20 ADD SWAP1 DUP2 MSTORE PUSH1 0x20 ADD PUSH0 KECCAK256 PUSH1 0x6 ADD DUP3 DUP2 SLOAD DUP2 LT PUSH2 0xB68 JUMPI PUSH2 0xB67 PUSH2 0x16A9 JUMP JUMPDEST JUMPDEST SWAP1 PUSH0 MSTORE PUSH1 0x20 PUSH0 KECCAK256 ADD PUSH0 SWAP1 SLOAD SWAP1 PUSH2 0x100 EXP SWAP1 DIV PUSH20 0xFFFFFFFFFFFFFFFFFFFFFFFFFFFFFFFFFFFFFFFF AND PUSH20 0xFFFFFFFFFFFFFFFFFFFFFFFFFFFFFFFFFFFFFFFF AND SUB PUSH2 0xBB6 JUMPI PUSH1 0x1 SWAP3 POP POP POP PUSH2 0xBC9 JUMP JUMPDEST DUP1 DUP1 PUSH1 0x1 ADD SWAP2 POP POP PUSH2 0xB23 JUMP JUMPDEST POP PUSH0 SWAP2 POP POP JUMPDEST SWAP3 SWAP2 POP POP JUMP JUMPDEST PUSH1 0x60 PUSH0 PUSH0 SWAP1 POP PUSH0 PUSH0 SWAP1 POP JUMPDEST PUSH1 0x1 DUP1 SLOAD SWAP1 POP DUP2 LT ISZERO PUSH2 0xD68 JUMPI PUSH0 PUSH1 0x1 DUP3 DUP2 SLOAD DUP2 LT PUSH2 0xBFC JUMPI PUSH2 0xBFB PUSH2 0x16A9 JUMP JUMPDEST JUMPDEST SWAP1 PUSH0 MSTORE PUSH1 0x20 PUSH0 KECCAK256 ADD PUSH0 SWAP1 SLOAD SWAP1 PUSH2 0x100 EXP SWAP1 DIV PUSH20 0xFFFFFFFFFFFFFFFFFFFFFFFFFFFFFFFFFFFFFFFF AND SWAP1 POP PUSH0 PUSH0 PUSH0 DUP4 PUSH20 0xFFFFFFFFFFFFFFFFFFFFFFFFFFFFFFFFFFFFFFFF AND PUSH20 0xFFFFFFFFFFFFFFFFFFFFFFFFFFFFFFFFFFFFFFFF AND DUP2 MSTORE PUSH1 0x20 ADD SWAP1 DUP2 MSTORE PUSH1 0x20 ADD PUSH0 KECCAK256 DUP1 SLOAD DUP1 PUSH1 0x20 MUL PUSH1 0x20 ADD PUSH1 0x40 MLOAD SWAP1 DUP2 ADD PUSH1 0x40 MSTORE DUP1 SWAP3 SWAP2 SWAP1 DUP2 DUP2 MSTORE PUSH1 0x20 ADD DUP3 DUP1 SLOAD DUP1 ISZERO PUSH2 0xCDE JUMPI PUSH1 0x20 MUL DUP3 ADD SWAP2 SWAP1 PUSH0 MSTORE PUSH1 0x20 PUSH0 KECCAK256 SWAP1 PUSH0 SWAP1 JUMPDEST DUP3 DUP3 SWAP1 SLOAD SWAP1 PUSH2 0x100 EXP SWAP1 DIV PUSH1 0xFF AND PUSH1 0x2 DUP2 GT ISZERO PUSH2 0xCB9 JUMPI PUSH2 0xCB8 PUSH2 0x12F4 JUMP JUMPDEST JUMPDEST DUP2 MSTORE PUSH1 0x20 ADD SWAP1 PUSH1 0x1 ADD SWAP1 PUSH1 0x20 DUP3 PUSH0 ADD DIV SWAP3 DUP4 ADD SWAP3 PUSH1 0x1 SUB DUP3 MUL SWAP2 POP DUP1 DUP5 GT PUSH2 0xC99 JUMPI SWAP1 POP JUMPDEST POP POP POP POP POP SWAP1 POP PUSH0 PUSH0 SWAP1 POP JUMPDEST DUP2 MLOAD DUP2 LT ISZERO PUSH2 0xD58 JUMPI DUP7 PUSH1 0x2 DUP2 GT ISZERO PUSH2 0xD06 JUMPI PUSH2 0xD05 PUSH2 0x12F4 JUMP JUMPDEST JUMPDEST DUP3 DUP3 DUP2 MLOAD DUP2 LT PUSH2 0xD19 JUMPI PUSH2 0xD18 PUSH2 0x16A9 JUMP JUMPDEST JUMPDEST PUSH1 0x20 MUL PUSH1 0x20 ADD ADD MLOAD PUSH1 0x2 DUP2 GT ISZERO PUSH2 0xD33 JUMPI PUSH2 0xD32 PUSH2 0x12F4 JUMP JUMPDEST JUMPDEST SUB PUSH2 0xD4B JUMPI DUP5 DUP1 PUSH2 0xD43 SWAP1 PUSH2 0x1703 JUMP JUMPDEST SWAP6 POP POP PUSH2 0xD58 JUMP JUMPDEST DUP1 DUP1 PUSH1 0x1 ADD SWAP2 POP POP PUSH2 0xCEA JUMP JUMPDEST POP POP POP DUP1 DUP1 PUSH1 0x1 ADD SWAP2 POP POP PUSH2 0xBDA JUMP JUMPDEST POP PUSH0 DUP2 PUSH8 0xFFFFFFFFFFFFFFFF DUP2 GT ISZERO PUSH2 0xD84 JUMPI PUSH2 0xD83 PUSH2 0x1398 JUMP JUMPDEST JUMPDEST PUSH1 0x40 MLOAD SWAP1 DUP1 DUP3 MSTORE DUP1 PUSH1 0x20 MUL PUSH1 0x20 ADD DUP3 ADD PUSH1 0x40 MSTORE DUP1 ISZERO PUSH2 0xDB2 JUMPI DUP2 PUSH1 0x20 ADD PUSH1 0x20 DUP3 MUL DUP1 CALLDATASIZE DUP4 CALLDATACOPY DUP1 DUP3 ADD SWAP2 POP POP SWAP1 POP JUMPDEST POP SWAP1 POP PUSH0 PUSH0 SWAP1 POP PUSH0 PUSH0 SWAP1 POP JUMPDEST PUSH1 0x1 DUP1 SLOAD SWAP1 POP DUP2 LT ISZERO PUSH2 0xFAA JUMPI PUSH0 PUSH1 0x1 DUP3 DUP2 SLOAD DUP2 LT PUSH2 0xDE0 JUMPI PUSH2 0xDDF PUSH2 0x16A9 JUMP JUMPDEST JUMPDEST SWAP1 PUSH0 MSTORE PUSH1 0x20 PUSH0 KECCAK256 ADD PUSH0 SWAP1 SLOAD SWAP1 PUSH2 0x100 EXP SWAP1 DIV PUSH20 0xFFFFFFFFFFFFFFFFFFFFFFFFFFFFFFFFFFFFFFFF AND SWAP1 POP PUSH0 PUSH0 PUSH0 DUP4 PUSH20 0xFFFFFFFFFFFFFFFFFFFFFFFFFFFFFFFFFFFFFFFF AND PUSH20 0xFFFFFFFFFFFFFFFFFFFFFFFFFFFFFFFFFFFFFFFF AND DUP2 MSTORE PUSH1 0x20 ADD SWAP1 DUP2 MSTORE PUSH1 0x20 ADD PUSH0 KECCAK256 DUP1 SLOAD DUP1 PUSH1 0x20 MUL PUSH1 0x20 ADD PUSH1 0x40 MLOAD SWAP1 DUP2 ADD PUSH1 0x40 MSTORE DUP1 SWAP3 SWAP2 SWAP1 DUP2 DUP2 MSTORE PUSH1 0x20 ADD DUP3 DUP1 SLOAD DUP1 ISZERO PUSH2 0xEC2 JUMPI PUSH1 0x20 MUL DUP3 ADD SWAP2 SWAP1 PUSH0 MSTORE PUSH1 0x20 PUSH0 KECCAK256 SWAP1 PUSH0 SWAP1 JUMPDEST DUP3 DUP3 SWAP1 SLOAD SWAP1 PUSH2 0x100 EXP SWAP1 DIV PUSH1 0xFF AND PUSH1 0x2 DUP2 GT ISZERO PUSH2 0xE9D JUMPI PUSH2 0xE9C PUSH2 0x12F4 JUMP JUMPDEST JUMPDEST DUP2 MSTORE PUSH1 0x20 ADD SWAP1 PUSH1 0x1 ADD SWAP1 PUSH1 0x20 DUP3 PUSH0 ADD DIV SWAP3 DUP4 ADD SWAP3 PUSH1 0x1 SUB DUP3 MUL SWAP2 POP DUP1 DUP5 GT PUSH2 0xE7D JUMPI SWAP1 POP JUMPDEST POP POP POP POP POP SWAP1 POP PUSH0 PUSH0 SWAP1 POP PUSH0 PUSH0 SWAP1 POP JUMPDEST DUP3 MLOAD DUP2 LT ISZERO PUSH2 0xF36 JUMPI DUP10 PUSH1 0x2 DUP2 GT ISZERO PUSH2 0xEEE JUMPI PUSH2 0xEED PUSH2 0x12F4 JUMP JUMPDEST JUMPDEST DUP4 DUP3 DUP2 MLOAD DUP2 LT PUSH2 0xF01 JUMPI PUSH2 0xF00 PUSH2 0x16A9 JUMP JUMPDEST JUMPDEST PUSH1 0x20 MUL PUSH1 0x20 ADD ADD MLOAD PUSH1 0x2 DUP2 GT ISZERO PUSH2 0xF1B JUMPI PUSH2 0xF1A PUSH2 0x12F4 JUMP JUMPDEST JUMPDEST SUB PUSH2 0xF29 JUMPI PUSH1 0x1 SWAP2 POP PUSH2 0xF36 JUMP JUMPDEST DUP1 DUP1 PUSH1 0x1 ADD SWAP2 POP POP PUSH2 0xED2 JUMP JUMPDEST POP DUP1 ISZERO PUSH2 0xF9A JUMPI DUP3 DUP7 DUP7 DUP2 MLOAD DUP2 LT PUSH2 0xF51 JUMPI PUSH2 0xF50 PUSH2 0x16A9 JUMP JUMPDEST JUMPDEST PUSH1 0x20 MUL PUSH1 0x20 ADD ADD SWAP1 PUSH20 0xFFFFFFFFFFFFFFFFFFFFFFFFFFFFFFFFFFFFFFFF AND SWAP1 DUP2 PUSH20 0xFFFFFFFFFFFFFFFFFFFFFFFFFFFFFFFFFFFFFFFF AND DUP2 MSTORE POP POP DUP5 DUP1 PUSH2 0xF96 SWAP1 PUSH2 0x1703 JUMP JUMPDEST SWAP6 POP POP JUMPDEST POP POP POP DUP1 DUP1 PUSH1 0x1 ADD SWAP2 POP POP PUSH2 0xDBE JUMP JUMPDEST POP DUP2 SWAP4 POP POP POP POP SWAP2 SWAP1 POP JUMP JUMPDEST DUP3 DUP1 SLOAD DUP3 DUP3 SSTORE SWAP1 PUSH0 MSTORE PUSH1 0x20 PUSH0 KECCAK256 SWAP1 DUP2 ADD SWAP3 DUP3 ISZERO PUSH2 0x102C JUMPI SWAP2 PUSH1 0x20 MUL DUP3 ADD JUMPDEST DUP3 DUP2 GT ISZERO PUSH2 0x102B JUMPI DUP3 MLOAD DUP3 PUSH0 PUSH2 0x100 EXP DUP2 SLOAD DUP2 PUSH20 0xFFFFFFFFFFFFFFFFFFFFFFFFFFFFFFFFFFFFFFFF MUL NOT AND SWAP1 DUP4 PUSH20 0xFFFFFFFFFFFFFFFFFFFFFFFFFFFFFFFFFFFFFFFF AND MUL OR SWAP1 SSTORE POP SWAP2 PUSH1 0x20 ADD SWAP2 SWAP1 PUSH1 0x1 ADD SWAP1 PUSH2 0xFD4 JUMP JUMPDEST JUMPDEST POP SWAP1 POP PUSH2 0x1039 SWAP2 SWAP1 PUSH2 0x1139 JUMP JUMPDEST POP SWAP1 JUMP JUMPDEST DUP3 DUP1 SLOAD DUP3 DUP3 SSTORE SWAP1 PUSH0 MSTORE PUSH1 0x20 PUSH0 KECCAK256 SWAP1 DUP2 ADD SWAP3 DUP3 ISZERO PUSH2 0x1077 JUMPI SWAP2 PUSH1 0x20 MUL DUP3 ADD JUMPDEST DUP3 DUP2 GT ISZERO PUSH2 0x1076 JUMPI DUP3 MLOAD DUP3 SSTORE SWAP2 PUSH1 0x20 ADD SWAP2 SWAP1 PUSH1 0x1 ADD SWAP1 PUSH2 0x105B JUMP JUMPDEST JUMPDEST POP SWAP1 POP PUSH2 0x1084 SWAP2 SWAP1 PUSH2 0x1139 JUMP JUMPDEST POP SWAP1 JUMP JUMPDEST DUP3 DUP1 SLOAD DUP3 DUP3 SSTORE SWAP1 PUSH0 MSTORE PUSH1 0x20 PUSH0 KECCAK256 SWAP1 PUSH1 0x1F ADD PUSH1 0x20 SWAP1 DIV DUP2 ADD SWAP3 DUP3 ISZERO PUSH2 0x1128 JUMPI SWAP2 PUSH1 0x20 MUL DUP3 ADD PUSH0 JUMPDEST DUP4 DUP3 GT ISZERO PUSH2 0x10FA JUMPI DUP4 MLOAD DUP4 DUP3 PUSH2 0x100 EXP DUP2 SLOAD DUP2 PUSH1 0xFF MUL NOT AND SWAP1 DUP4 PUSH1 0x2 DUP2 GT ISZERO PUSH2 0x10DA JUMPI PUSH2 0x10D9 PUSH2 0x12F4 JUMP JUMPDEST JUMPDEST MUL OR SWAP1 SSTORE POP SWAP3 PUSH1 0x20 ADD SWAP3 PUSH1 0x1 ADD PUSH1 0x20 DUP2 PUSH0 ADD DIV SWAP3 DUP4 ADD SWAP3 PUSH1 0x1 SUB MUL PUSH2 0x10AE JUMP JUMPDEST DUP1 ISZERO PUSH2 0x1126 JUMPI DUP3 DUP2 PUSH2 0x100 EXP DUP2 SLOAD SWAP1 PUSH1 0xFF MUL NOT AND SWAP1 SSTORE PUSH1 0x1 ADD PUSH1 0x20 DUP2 PUSH0 ADD DIV SWAP3 DUP4 ADD SWAP3 PUSH1 0x1 SUB MUL PUSH2 0x10FA JUMP JUMPDEST POP JUMPDEST POP SWAP1 POP PUSH2 0x1135 SWAP2 SWAP1 PUSH2 0x1139 JUMP JUMPDEST POP SWAP1 JUMP JUMPDEST JUMPDEST DUP1 DUP3 GT ISZERO PUSH2 0x1150 JUMPI PUSH0 DUP2 PUSH0 SWAP1 SSTORE POP PUSH1 0x1 ADD PUSH2 0x113A JUMP JUMPDEST POP SWAP1 JUMP JUMPDEST PUSH0 PUSH1 0x40 MLOAD SWAP1 POP SWAP1 JUMP JUMPDEST PUSH0 PUSH0 REVERT JUMPDEST PUSH0 PUSH0 REVERT JUMPDEST PUSH0 DUP2 SWAP1 POP SWAP2 SWAP1 POP JUMP JUMPDEST PUSH2 0x1177 DUP2 PUSH2 0x1165 JUMP JUMPDEST DUP2 EQ PUSH2 0x1181 JUMPI PUSH0 PUSH0 REVERT JUMPDEST POP JUMP JUMPDEST PUSH0 DUP2 CALLDATALOAD SWAP1 POP PUSH2 0x1192 DUP2 PUSH2 0x116E JUMP JUMPDEST SWAP3 SWAP2 POP POP JUMP JUMPDEST PUSH0 PUSH0 PUSH1 0x40 DUP4 DUP6 SUB SLT ISZERO PUSH2 0x11AE JUMPI PUSH2 0x11AD PUSH2 0x115D JUMP JUMPDEST JUMPDEST PUSH0 PUSH2 0x11BB DUP6 DUP3 DUP7 ADD PUSH2 0x1184 JUMP JUMPDEST SWAP3 POP POP PUSH1 0x20 PUSH2 0x11CC DUP6 DUP3 DUP7 ADD PUSH2 0x1184 JUMP JUMPDEST SWAP2 POP POP SWAP3 POP SWAP3 SWAP1 POP JUMP JUMPDEST PUSH0 DUP2 ISZERO ISZERO SWAP1 POP SWAP2 SWAP1 POP JUMP JUMPDEST PUSH2 0x11EA DUP2 PUSH2 0x11D6 JUMP JUMPDEST DUP3 MSTORE POP POP JUMP JUMPDEST PUSH0 PUSH1 0x20 DUP3 ADD SWAP1 POP PUSH2 0x1203 PUSH0 DUP4 ADD DUP5 PUSH2 0x11E1 JUMP JUMPDEST SWAP3 SWAP2 POP POP JUMP JUMPDEST PUSH0 PUSH20 0xFFFFFFFFFFFFFFFFFFFFFFFFFFFFFFFFFFFFFFFF DUP3 AND SWAP1 POP SWAP2 SWAP1 POP JUMP JUMPDEST PUSH0 PUSH2 0x1232 DUP3 PUSH2 0x1209 JUMP JUMPDEST SWAP1 POP SWAP2 SWAP1 POP JUMP JUMPDEST PUSH2 0x1242 DUP2 PUSH2 0x1228 JUMP JUMPDEST DUP2 EQ PUSH2 0x124C JUMPI PUSH0 PUSH0 REVERT JUMPDEST POP JUMP JUMPDEST PUSH0 DUP2 CALLDATALOAD SWAP1 POP PUSH2 0x125D DUP2 PUSH2 0x1239 JUMP JUMPDEST SWAP3 SWAP2 POP POP JUMP JUMPDEST PUSH0 PUSH1 0x20 DUP3 DUP5 SUB SLT ISZERO PUSH2 0x1278 JUMPI PUSH2 0x1277 PUSH2 0x115D JUMP JUMPDEST JUMPDEST PUSH0 PUSH2 0x1285 DUP5 DUP3 DUP6 ADD PUSH2 0x124F JUMP JUMPDEST SWAP2 POP POP SWAP3 SWAP2 POP POP JUMP JUMPDEST PUSH2 0x1297 DUP2 PUSH2 0x1165 JUMP JUMPDEST DUP3 MSTORE POP POP JUMP JUMPDEST PUSH0 PUSH1 0x20 DUP3 ADD SWAP1 POP PUSH2 0x12B0 PUSH0 DUP4 ADD DUP5 PUSH2 0x128E JUMP JUMPDEST SWAP3 SWAP2 POP POP JUMP JUMPDEST PUSH0 PUSH0 PUSH1 0x40 DUP4 DUP6 SUB SLT ISZERO PUSH2 0x12CC JUMPI PUSH2 0x12CB PUSH2 0x115D JUMP JUMPDEST JUMPDEST PUSH0 PUSH2 0x12D9 DUP6 DUP3 DUP7 ADD PUSH2 0x124F JUMP JUMPDEST SWAP3 POP POP PUSH1 0x20 PUSH2 0x12EA DUP6 DUP3 DUP7 ADD PUSH2 0x1184 JUMP JUMPDEST SWAP2 POP POP SWAP3 POP SWAP3 SWAP1 POP JUMP JUMPDEST PUSH32 0x4E487B7100000000000000000000000000000000000000000000000000000000 PUSH0 MSTORE PUSH1 0x21 PUSH1 0x4 MSTORE PUSH1 0x24 PUSH0 REVERT JUMPDEST PUSH1 0x3 DUP2 LT PUSH2 0x1332 JUMPI PUSH2 0x1331 PUSH2 0x12F4 JUMP JUMPDEST JUMPDEST POP JUMP JUMPDEST PUSH0 DUP2 SWAP1 POP PUSH2 0x1342 DUP3 PUSH2 0x1321 JUMP JUMPDEST SWAP2 SWAP1 POP JUMP JUMPDEST PUSH0 PUSH2 0x1351 DUP3 PUSH2 0x1335 JUMP JUMPDEST SWAP1 POP SWAP2 SWAP1 POP JUMP JUMPDEST PUSH2 0x1361 DUP2 PUSH2 0x1347 JUMP JUMPDEST DUP3 MSTORE POP POP JUMP JUMPDEST PUSH0 PUSH1 0x20 DUP3 ADD SWAP1 POP PUSH2 0x137A PUSH0 DUP4 ADD DUP5 PUSH2 0x1358 JUMP JUMPDEST SWAP3 SWAP2 POP POP JUMP JUMPDEST PUSH0 PUSH0 REVERT JUMPDEST PUSH0 PUSH0 REVERT JUMPDEST PUSH0 PUSH1 0x1F NOT PUSH1 0x1F DUP4 ADD AND SWAP1 POP SWAP2 SWAP1 POP JUMP JUMPDEST PUSH32 0x4E487B7100000000000000000000000000000000000000000000000000000000 PUSH0 MSTORE PUSH1 0x41 PUSH1 0x4 MSTORE PUSH1 0x24 PUSH0 REVERT JUMPDEST PUSH2 0x13CE DUP3 PUSH2 0x1388 JUMP JUMPDEST DUP2 ADD DUP2 DUP2 LT PUSH8 0xFFFFFFFFFFFFFFFF DUP3 GT OR ISZERO PUSH2 0x13ED JUMPI PUSH2 0x13EC PUSH2 0x1398 JUMP JUMPDEST JUMPDEST DUP1 PUSH1 0x40 MSTORE POP POP POP JUMP JUMPDEST PUSH0 PUSH2 0x13FF PUSH2 0x1154 JUMP JUMPDEST SWAP1 POP PUSH2 0x140B DUP3 DUP3 PUSH2 0x13C5 JUMP JUMPDEST SWAP2 SWAP1 POP JUMP JUMPDEST PUSH0 PUSH8 0xFFFFFFFFFFFFFFFF DUP3 GT ISZERO PUSH2 0x142A JUMPI PUSH2 0x1429 PUSH2 0x1398 JUMP JUMPDEST JUMPDEST PUSH2 0x1433 DUP3 PUSH2 0x1388 JUMP JUMPDEST SWAP1 POP PUSH1 0x20 DUP2 ADD SWAP1 POP SWAP2 SWAP1 POP JUMP JUMPDEST DUP3 DUP2 DUP4 CALLDATACOPY PUSH0 DUP4 DUP4 ADD MSTORE POP POP POP JUMP JUMPDEST PUSH0 PUSH2 0x1460 PUSH2 0x145B DUP5 PUSH2 0x1410 JUMP JUMPDEST PUSH2 0x13F6 JUMP JUMPDEST SWAP1 POP DUP3 DUP2 MSTORE PUSH1 0x20 DUP2 ADD DUP5 DUP5 DUP5 ADD GT ISZERO PUSH2 0x147C JUMPI PUSH2 0x147B PUSH2 0x1384 JUMP JUMPDEST JUMPDEST PUSH2 0x1487 DUP5 DUP3 DUP6 PUSH2 0x1440 JUMP JUMPDEST POP SWAP4 SWAP3 POP POP POP JUMP JUMPDEST PUSH0 DUP3 PUSH1 0x1F DUP4 ADD SLT PUSH2 0x14A3 JUMPI PUSH2 0x14A2 PUSH2 0x1380 JUMP JUMPDEST JUMPDEST DUP2 CALLDATALOAD PUSH2 0x14B3 DUP5 DUP3 PUSH1 0x20 DUP7 ADD PUSH2 0x144E JUMP JUMPDEST SWAP2 POP POP SWAP3 SWAP2 POP POP JUMP JUMPDEST PUSH1 0x3 DUP2 LT PUSH2 0x14C8 JUMPI PUSH0 PUSH0 REVERT JUMPDEST POP JUMP JUMPDEST PUSH0 DUP2 CALLDATALOAD SWAP1 POP PUSH2 0x14D9 DUP2 PUSH2 0x14BC JUMP JUMPDEST SWAP3 SWAP2 POP POP JUMP JUMPDEST PUSH0 PUSH0 PUSH0 PUSH1 0x60 DUP5 DUP7 SUB SLT ISZERO PUSH2 0x14F6 JUMPI PUSH2 0x14F5 PUSH2 0x115D JUMP JUMPDEST JUMPDEST PUSH0 DUP5 ADD CALLDATALOAD PUSH8 0xFFFFFFFFFFFFFFFF DUP2 GT ISZERO PUSH2 0x1513 JUMPI PUSH2 0x1512 PUSH2 0x1161 JUMP JUMPDEST JUMPDEST PUSH2 0x151F DUP7 DUP3 DUP8 ADD PUSH2 0x148F JUMP JUMPDEST SWAP4 POP POP PUSH1 0x20 PUSH2 0x1530 DUP7 DUP3 DUP8 ADD PUSH2 0x14CB JUMP JUMPDEST SWAP3 POP POP PUSH1 0x40 PUSH2 0x1541 DUP7 DUP3 DUP8 ADD PUSH2 0x1184 JUMP JUMPDEST SWAP2 POP POP SWAP3 POP SWAP3 POP SWAP3 JUMP JUMPDEST PUSH0 PUSH1 0x20 DUP3 DUP5 SUB SLT ISZERO PUSH2 0x1560 JUMPI PUSH2 0x155F PUSH2 0x115D JUMP JUMPDEST JUMPDEST PUSH0 PUSH2 0x156D DUP5 DUP3 DUP6 ADD PUSH2 0x1184 JUMP JUMPDEST SWAP2 POP POP SWAP3 SWAP2 POP POP JUMP JUMPDEST PUSH2 0x157F DUP2 PUSH2 0x1228 JUMP JUMPDEST DUP3 MSTORE POP POP JUMP JUMPDEST PUSH0 PUSH1 0x20 DUP3 ADD SWAP1 POP PUSH2 0x1598 PUSH0 DUP4 ADD DUP5 PUSH2 0x1576 JUMP JUMPDEST SWAP3 SWAP2 POP POP JUMP JUMPDEST PUSH0 PUSH8 0xFFFFFFFFFFFFFFFF DUP3 GT ISZERO PUSH2 0x15B8 JUMPI PUSH2 0x15B7 PUSH2 0x1398 JUMP JUMPDEST JUMPDEST PUSH1 0x20 DUP3 MUL SWAP1 POP PUSH1 0x20 DUP2 ADD SWAP1 POP SWAP2 SWAP1 POP JUMP JUMPDEST PUSH0 PUSH0 REVERT JUMPDEST PUSH0 PUSH2 0x15DF PUSH2 0x15DA DUP5 PUSH2 0x159E JUMP JUMPDEST PUSH2 0x13F6 JUMP JUMPDEST SWAP1 POP DUP1 DUP4 DUP3 MSTORE PUSH1 0x20 DUP3 ADD SWAP1 POP PUSH1 0x20 DUP5 MUL DUP4 ADD DUP6 DUP2 GT ISZERO PUSH2 0x1602 JUMPI PUSH2 0x1601 PUSH2 0x15C9 JUMP JUMPDEST JUMPDEST DUP4 JUMPDEST DUP2 DUP2 LT ISZERO PUSH2 0x162B JUMPI DUP1 PUSH2 0x1617 DUP9 DUP3 PUSH2 0x14CB JUMP JUMPDEST DUP5 MSTORE PUSH1 0x20 DUP5 ADD SWAP4 POP POP PUSH1 0x20 DUP2 ADD SWAP1 POP PUSH2 0x1604 JUMP JUMPDEST POP POP POP SWAP4 SWAP3 POP POP POP JUMP JUMPDEST PUSH0 DUP3 PUSH1 0x1F DUP4 ADD SLT PUSH2 0x1649 JUMPI PUSH2 0x1648 PUSH2 0x1380 JUMP JUMPDEST JUMPDEST DUP2 CALLDATALOAD PUSH2 0x1659 DUP5 DUP3 PUSH1 0x20 DUP7 ADD PUSH2 0x15CD JUMP JUMPDEST SWAP2 POP POP SWAP3 SWAP2 POP POP JUMP JUMPDEST PUSH0 PUSH1 0x20 DUP3 DUP5 SUB SLT ISZERO PUSH2 0x1677 JUMPI PUSH2 0x1676 PUSH2 0x115D JUMP JUMPDEST JUMPDEST PUSH0 DUP3 ADD CALLDATALOAD PUSH8 0xFFFFFFFFFFFFFFFF DUP2 GT ISZERO PUSH2 0x1694 JUMPI PUSH2 0x1693 PUSH2 0x1161 JUMP JUMPDEST JUMPDEST PUSH2 0x16A0 DUP5 DUP3 DUP6 ADD PUSH2 0x1635 JUMP JUMPDEST SWAP2 POP POP SWAP3 SWAP2 POP POP JUMP JUMPDEST PUSH32 0x4E487B7100000000000000000000000000000000000000000000000000000000 PUSH0 MSTORE PUSH1 0x32 PUSH1 0x4 MSTORE PUSH1 0x24 PUSH0 REVERT JUMPDEST PUSH32 0x4E487B7100000000000000000000000000000000000000000000000000000000 PUSH0 MSTORE PUSH1 0x11 PUSH1 0x4 MSTORE PUSH1 0x24 PUSH0 REVERT JUMPDEST PUSH0 PUSH2 0x170D DUP3 PUSH2 0x1165 JUMP JUMPDEST SWAP2 POP PUSH32 0xFFFFFFFFFFFFFFFFFFFFFFFFFFFFFFFFFFFFFFFFFFFFFFFFFFFFFFFFFFFFFFFF DUP3 SUB PUSH2 0x173F JUMPI PUSH2 0x173E PUSH2 0x16D6 JUMP JUMPDEST JUMPDEST PUSH1 0x1 DUP3 ADD SWAP1 POP SWAP2 SWAP1 POP JUMP JUMPDEST PUSH32 0x4E487B7100000000000000000000000000000000000000000000000000000000 PUSH0 MSTORE PUSH1 0x12 PUSH1 0x4 MSTORE PUSH1 0x24 PUSH0 REVERT JUMPDEST PUSH0 PUSH2 0x1781 DUP3 PUSH2 0x1165 JUMP JUMPDEST SWAP2 POP PUSH2 0x178C DUP4 PUSH2 0x1165 JUMP JUMPDEST SWAP3 POP DUP3 PUSH2 0x179C JUMPI PUSH2 0x179B PUSH2 0x174A JUMP JUMPDEST JUMPDEST DUP3 DUP3 DIV SWAP1 POP SWAP3 SWAP2 POP POP JUMP JUMPDEST PUSH0 PUSH2 0x17B1 DUP3 PUSH2 0x1165 JUMP JUMPDEST SWAP2 POP PUSH2 0x17BC DUP4 PUSH2 0x1165 JUMP JUMPDEST SWAP3 POP DUP3 DUP3 ADD SWAP1 POP DUP1 DUP3 GT ISZERO PUSH2 0x17D4 JUMPI PUSH2 0x17D3 PUSH2 0x16D6 JUMP JUMPDEST JUMPDEST SWAP3 SWAP2 POP POP JUMP JUMPDEST PUSH2 0x17E3 DUP2 PUSH2 0x11D6 JUMP JUMPDEST DUP2 EQ PUSH2 0x17ED JUMPI PUSH0 PUSH0 REVERT JUMPDEST POP JUMP JUMPDEST PUSH0 DUP2 MLOAD SWAP1 POP PUSH2 0x17FE DUP2 PUSH2 0x17DA JUMP JUMPDEST SWAP3 SWAP2 POP POP JUMP JUMPDEST PUSH0 PUSH1 0x20 DUP3 DUP5 SUB SLT ISZERO PUSH2 0x1819 JUMPI PUSH2 0x1818 PUSH2 0x115D JUMP JUMPDEST JUMPDEST PUSH0 PUSH2 0x1826 DUP5 DUP3 DUP6 ADD PUSH2 0x17F0 JUMP JUMPDEST SWAP2 POP POP SWAP3 SWAP2 POP POP JUMP JUMPDEST PUSH0 PUSH2 0x1839 DUP3 PUSH2 0x1165 JUMP JUMPDEST SWAP2 POP PUSH2 0x1844 DUP4 PUSH2 0x1165 JUMP JUMPDEST SWAP3 POP DUP3 PUSH2 0x1854 JUMPI PUSH2 0x1853 PUSH2 0x174A JUMP JUMPDEST JUMPDEST DUP3 DUP3 MOD SWAP1 POP SWAP3 SWAP2 POP POP JUMP JUMPDEST PUSH0 DUP3 DUP3 MSTORE PUSH1 0x20 DUP3 ADD SWAP1 POP SWAP3 SWAP2 POP POP JUMP JUMPDEST PUSH32 0x746F6F206C657373206665650000000000000000000000000000000000000000 PUSH0 DUP3 ADD MSTORE POP JUMP JUMPDEST PUSH0 PUSH2 0x18A3 PUSH1 0xC DUP4 PUSH2 0x185F JUMP JUMPDEST SWAP2 POP PUSH2 0x18AE DUP3 PUSH2 0x186F JUMP JUMPDEST PUSH1 0x20 DUP3 ADD SWAP1 POP SWAP2 SWAP1 POP JUMP JUMPDEST PUSH0 PUSH1 0x20 DUP3 ADD SWAP1 POP DUP2 DUP2 SUB PUSH0 DUP4 ADD MSTORE PUSH2 0x18D0 DUP2 PUSH2 0x1897 JUMP JUMPDEST SWAP1 POP SWAP2 SWAP1 POP JUMP JUMPDEST PUSH32 0x6E6F7420656E6F756768206D6F6E657900000000000000000000000000000000 PUSH0 DUP3 ADD MSTORE POP JUMP JUMPDEST PUSH0 PUSH2 0x190B PUSH1 0x10 DUP4 PUSH2 0x185F JUMP JUMPDEST SWAP2 POP PUSH2 0x1916 DUP3 PUSH2 0x18D7 JUMP JUMPDEST PUSH1 0x20 DUP3 ADD SWAP1 POP SWAP2 SWAP1 POP JUMP JUMPDEST PUSH0 PUSH1 0x20 DUP3 ADD SWAP1 POP DUP2 DUP2 SUB PUSH0 DUP4 ADD MSTORE PUSH2 0x1938 DUP2 PUSH2 0x18FF JUMP JUMPDEST SWAP1 POP SWAP2 SWAP1 POP JUMP JUMPDEST PUSH0 DUP2 MLOAD SWAP1 POP SWAP2 SWAP1 POP JUMP JUMPDEST PUSH32 0x4E487B7100000000000000000000000000000000000000000000000000000000 PUSH0 MSTORE PUSH1 0x22 PUSH1 0x4 MSTORE PUSH1 0x24 PUSH0 REVERT JUMPDEST PUSH0 PUSH1 0x2 DUP3 DIV SWAP1 POP PUSH1 0x1 DUP3 AND DUP1 PUSH2 0x198D JUMPI PUSH1 0x7F DUP3 AND SWAP2 POP JUMPDEST PUSH1 0x20 DUP3 LT DUP2 SUB PUSH2 0x19A0 JUMPI PUSH2 0x199F PUSH2 0x1949 JUMP JUMPDEST JUMPDEST POP SWAP2 SWAP1 POP JUMP JUMPDEST PUSH0 DUP2 SWAP1 POP DUP2 PUSH0 MSTORE PUSH1 0x20 PUSH0 KECCAK256 SWAP1 POP SWAP2 SWAP1 POP JUMP JUMPDEST PUSH0 PUSH1 0x20 PUSH1 0x1F DUP4 ADD DIV SWAP1 POP SWAP2 SWAP1 POP JUMP JUMPDEST PUSH0 DUP3 DUP3 SHL SWAP1 POP SWAP3 SWAP2 POP POP JUMP JUMPDEST PUSH0 PUSH1 0x8 DUP4 MUL PUSH2 0x1A02 PUSH32 0xFFFFFFFFFFFFFFFFFFFFFFFFFFFFFFFFFFFFFFFFFFFFFFFFFFFFFFFFFFFFFFFF DUP3 PUSH2 0x19C7 JUMP JUMPDEST PUSH2 0x1A0C DUP7 DUP4 PUSH2 0x19C7 JUMP JUMPDEST SWAP6 POP DUP1 NOT DUP5 AND SWAP4 POP DUP1 DUP7 AND DUP5 OR SWAP3 POP POP POP SWAP4 SWAP3 POP POP POP JUMP JUMPDEST PUSH0 DUP2 SWAP1 POP SWAP2 SWAP1 POP JUMP JUMPDEST PUSH0 PUSH2 0x1A47 PUSH2 0x1A42 PUSH2 0x1A3D DUP5 PUSH2 0x1165 JUMP JUMPDEST PUSH2 0x1A24 JUMP JUMPDEST PUSH2 0x1165 JUMP JUMPDEST SWAP1 POP SWAP2 SWAP1 POP JUMP JUMPDEST PUSH0 DUP2 SWAP1 POP SWAP2 SWAP1 POP JUMP JUMPDEST PUSH2 0x1A60 DUP4 PUSH2 0x1A2D JUMP JUMPDEST PUSH2 0x1A74 PUSH2 0x1A6C DUP3 PUSH2 0x1A4E JUMP JUMPDEST DUP5 DUP5 SLOAD PUSH2 0x19D3 JUMP JUMPDEST DUP3 SSTORE POP POP POP POP JUMP JUMPDEST PUSH0 PUSH0 SWAP1 POP SWAP1 JUMP JUMPDEST PUSH2 0x1A8B PUSH2 0x1A7C JUMP JUMPDEST PUSH2 0x1A96 DUP2 DUP5 DUP5 PUSH2 0x1A57 JUMP JUMPDEST POP POP POP JUMP JUMPDEST JUMPDEST DUP2 DUP2 LT ISZERO PUSH2 0x1AB9 JUMPI PUSH2 0x1AAE PUSH0 DUP3 PUSH2 0x1A83 JUMP JUMPDEST PUSH1 0x1 DUP2 ADD SWAP1 POP PUSH2 0x1A9C JUMP JUMPDEST POP POP JUMP JUMPDEST PUSH1 0x1F DUP3 GT ISZERO PUSH2 0x1AFE JUMPI PUSH2 0x1ACF DUP2 PUSH2 0x19A6 JUMP JUMPDEST PUSH2 0x1AD8 DUP5 PUSH2 0x19B8 JUMP JUMPDEST DUP2 ADD PUSH1 0x20 DUP6 LT ISZERO PUSH2 0x1AE7 JUMPI DUP2 SWAP1 POP JUMPDEST PUSH2 0x1AFB PUSH2 0x1AF3 DUP6 PUSH2 0x19B8 JUMP JUMPDEST DUP4 ADD DUP3 PUSH2 0x1A9B JUMP JUMPDEST POP POP JUMPDEST POP POP POP JUMP JUMPDEST PUSH0 DUP3 DUP3 SHR SWAP1 POP SWAP3 SWAP2 POP POP JUMP JUMPDEST PUSH0 PUSH2 0x1B1E PUSH0 NOT DUP5 PUSH1 0x8 MUL PUSH2 0x1B03 JUMP JUMPDEST NOT DUP1 DUP4 AND SWAP2 POP POP SWAP3 SWAP2 POP POP JUMP JUMPDEST PUSH0 PUSH2 0x1B36 DUP4 DUP4 PUSH2 0x1B0F JUMP JUMPDEST SWAP2 POP DUP3 PUSH1 0x2 MUL DUP3 OR SWAP1 POP SWAP3 SWAP2 POP POP JUMP JUMPDEST PUSH2 0x1B4F DUP3 PUSH2 0x193F JUMP JUMPDEST PUSH8 0xFFFFFFFFFFFFFFFF DUP2 GT ISZERO PUSH2 0x1B68 JUMPI PUSH2 0x1B67 PUSH2 0x1398 JUMP JUMPDEST JUMPDEST PUSH2 0x1B72 DUP3 SLOAD PUSH2 0x1976 JUMP JUMPDEST PUSH2 0x1B7D DUP3 DUP3 DUP6 PUSH2 0x1ABD JUMP JUMPDEST PUSH0 PUSH1 0x20 SWAP1 POP PUSH1 0x1F DUP4 GT PUSH1 0x1 DUP2 EQ PUSH2 0x1BAE JUMPI PUSH0 DUP5 ISZERO PUSH2 0x1B9C JUMPI DUP3 DUP8 ADD MLOAD SWAP1 POP JUMPDEST PUSH2 0x1BA6 DUP6 DUP3 PUSH2 0x1B2B JUMP JUMPDEST DUP7 SSTORE POP PUSH2 0x1C0D JUMP JUMPDEST PUSH1 0x1F NOT DUP5 AND PUSH2 0x1BBC DUP7 PUSH2 0x19A6 JUMP JUMPDEST PUSH0 JUMPDEST DUP3 DUP2 LT ISZERO PUSH2 0x1BE3 JUMPI DUP5 DUP10 ADD MLOAD DUP3 SSTORE PUSH1 0x1 DUP3 ADD SWAP2 POP PUSH1 0x20 DUP6 ADD SWAP5 POP PUSH1 0x20 DUP2 ADD SWAP1 POP PUSH2 0x1BBE JUMP JUMPDEST DUP7 DUP4 LT ISZERO PUSH2 0x1C00 JUMPI DUP5 DUP10 ADD MLOAD PUSH2 0x1BFC PUSH1 0x1F DUP10 AND DUP3 PUSH2 0x1B0F JUMP JUMPDEST DUP4 SSTORE POP JUMPDEST PUSH1 0x1 PUSH1 0x2 DUP9 MUL ADD DUP9 SSTORE POP POP POP JUMPDEST POP POP POP POP POP POP JUMP JUMPDEST PUSH0 DUP2 MLOAD SWAP1 POP SWAP2 SWAP1 POP JUMP JUMPDEST PUSH0 DUP3 DUP3 MSTORE PUSH1 0x20 DUP3 ADD SWAP1 POP SWAP3 SWAP2 POP POP JUMP JUMPDEST PUSH0 DUP2 SWAP1 POP PUSH1 0x20 DUP3 ADD SWAP1 POP SWAP2 SWAP1 POP JUMP JUMPDEST PUSH2 0x1C47 DUP2 PUSH2 0x1228 JUMP JUMPDEST DUP3 MSTORE POP POP JUMP JUMPDEST PUSH0 PUSH2 0x1C58 DUP4 DUP4 PUSH2 0x1C3E JUMP JUMPDEST PUSH1 0x20 DUP4 ADD SWAP1 POP SWAP3 SWAP2 POP POP JUMP JUMPDEST PUSH0 PUSH1 0x20 DUP3 ADD SWAP1 POP SWAP2 SWAP1 POP JUMP JUMPDEST PUSH0 PUSH2 0x1C7A DUP3 PUSH2 0x1C15 JUMP JUMPDEST PUSH2 0x1C84 DUP2 DUP6 PUSH2 0x1C1F JUMP JUMPDEST SWAP4 POP PUSH2 0x1C8F DUP4 PUSH2 0x1C2F JUMP JUMPDEST DUP1 PUSH0 JUMPDEST DUP4 DUP2 LT ISZERO PUSH2 0x1CBF JUMPI DUP2 MLOAD PUSH2 0x1CA6 DUP9 DUP3 PUSH2 0x1C4D JUMP JUMPDEST SWAP8 POP PUSH2 0x1CB1 DUP4 PUSH2 0x1C64 JUMP JUMPDEST SWAP3 POP POP PUSH1 0x1 DUP2 ADD SWAP1 POP PUSH2 0x1C92 JUMP JUMPDEST POP DUP6 SWAP4 POP POP POP POP SWAP3 SWAP2 POP POP JUMP JUMPDEST DUP3 DUP2 DUP4 MCOPY PUSH0 DUP4 DUP4 ADD MSTORE POP POP POP JUMP JUMPDEST PUSH0 PUSH2 0x1CE4 DUP3 PUSH2 0x193F JUMP JUMPDEST PUSH2 0x1CEE DUP2 DUP6 PUSH2 0x185F JUMP JUMPDEST SWAP4 POP PUSH2 0x1CFE DUP2 DUP6 PUSH1 0x20 DUP7 ADD PUSH2 0x1CCC JUMP JUMPDEST PUSH2 0x1D07 DUP2 PUSH2 0x1388 JUMP JUMPDEST DUP5 ADD SWAP2 POP POP SWAP3 SWAP2 POP POP JUMP JUMPDEST PUSH0 PUSH1 0x80 DUP3 ADD SWAP1 POP DUP2 DUP2 SUB PUSH0 DUP4 ADD MSTORE PUSH2 0x1D2A DUP2 DUP8 PUSH2 0x1C70 JUMP JUMPDEST SWAP1 POP PUSH2 0x1D39 PUSH1 0x20 DUP4 ADD DUP7 PUSH2 0x1358 JUMP JUMPDEST DUP2 DUP2 SUB PUSH1 0x40 DUP4 ADD MSTORE PUSH2 0x1D4B DUP2 DUP6 PUSH2 0x1CDA JUMP JUMPDEST SWAP1 POP PUSH2 0x1D5A PUSH1 0x60 DUP4 ADD DUP5 PUSH2 0x128E JUMP JUMPDEST SWAP6 SWAP5 POP POP POP POP POP JUMP JUMPDEST PUSH0 PUSH2 0x1D6D DUP3 PUSH2 0x1165 JUMP JUMPDEST SWAP2 POP PUSH2 0x1D78 DUP4 PUSH2 0x1165 JUMP JUMPDEST SWAP3 POP DUP3 DUP3 SUB SWAP1 POP DUP2 DUP2 GT ISZERO PUSH2 0x1D90 JUMPI PUSH2 0x1D8F PUSH2 0x16D6 JUMP JUMPDEST JUMPDEST SWAP3 SWAP2 POP POP JUMP INVALID LOG2 PUSH5 0x6970667358 0x22 SLT KECCAK256 DUPN 0x56 DUP14 DUP2 0xB6 0xC6 SWAP9 DUP8 DUP12 0x27 JUMP TLOAD PUSH22 0x7286CCE363DA101ECC33A4249CF6F3564905E964736F PUSH13 0x634300081E0033000000000000 "
				},
				"gasEstimates": {
					"creation": {
						"codeDepositCost": "1525600",
						"executionCost": "infinite",
						"totalCost": "infinite"
					},
					"external": {
						"LIMIT_FEE_PRICE()": "413",
						"LIMIT_STAKE_NUM()": "414",
						"MAX_SEARCH_NUM()": "369",
						"fufillReqEvent(uint256,uint256)": "infinite",
						"oracleAddressList(uint256)": "4966",
						"oracleNodeJobType(address,uint256)": "6948",
						"registerOracleNode(uint8[])": "infinite",
						"requestForMsg(string,uint8,uint256)": "infinite",
						"totalRequestNum()": "2425",
						"userBalances(address)": "2825"
					},
					"internal": {
						"calculateReqNode(enum CHAINLINK.jobType)": "infinite",
						"isInReqList(uint256,address)": "infinite"
					}
				},
				"methodIdentifiers": {
					"LIMIT_FEE_PRICE()": "e92626ae",
					"LIMIT_STAKE_NUM()": "3210243e",
					"MAX_SEARCH_NUM()": "d3155d16",
					"fufillReqEvent(uint256,uint256)": "22d616d2",
					"oracleAddressList(uint256)": "8457a66a",
					"oracleNodeJobType(address,uint256)": "2690eac4",
					"registerOracleNode(uint8[])": "d9514950",
					"requestForMsg(string,uint8,uint256)": "3063c634",
					"totalRequestNum()": "803863fb",
					"userBalances(address)": "26224c64"
				}
			},
			"storageLayout": {
				"storage": [
					{
						"astId": 64,
						"contract": "main.sol:CHAINLINK",
						"label": "oracleNodeJobType",
						"offset": 0,
						"slot": "0",
						"type": "t_mapping(t_address,t_array(t_enum(jobType)13)dyn_storage)"
					},
					{
						"astId": 67,
						"contract": "main.sol:CHAINLINK",
						"label": "oracleAddressList",
						"offset": 0,
						"slot": "1",
						"type": "t_array(t_address)dyn_storage"
					},
					{
						"astId": 69,
						"contract": "main.sol:CHAINLINK",
						"label": "totalRequestNum",
						"offset": 0,
						"slot": "2",
						"type": "t_uint256"
					},
					{
						"astId": 73,
						"contract": "main.sol:CHAINLINK",
						"label": "userBalances",
						"offset": 0,
						"slot": "3",
						"type": "t_mapping(t_address,t_uint256)"
					},
					{
						"astId": 78,
						"contract": "main.sol:CHAINLINK",
						"label": "requestList",
						"offset": 0,
						"slot": "4",
						"type": "t_mapping(t_uint256,t_struct(RequestBody)36_storage)"
					}
				],
				"types": {
					"t_address": {
						"encoding": "inplace",
						"label": "address",
						"numberOfBytes": "20"
					},
					"t_array(t_address)dyn_storage": {
						"base": "t_address",
						"encoding": "dynamic_array",
						"label": "address[]",
						"numberOfBytes": "32"
					},
					"t_array(t_enum(jobType)13)dyn_storage": {
						"base": "t_enum(jobType)13",
						"encoding": "dynamic_array",
						"label": "enum CHAINLINK.jobType[]",
						"numberOfBytes": "32"
					},
					"t_array(t_uint256)dyn_storage": {
						"base": "t_uint256",
						"encoding": "dynamic_array",
						"label": "uint256[]",
						"numberOfBytes": "32"
					},
					"t_enum(jobType)13": {
						"encoding": "inplace",
						"label": "enum CHAINLINK.jobType",
						"numberOfBytes": "1"
					},
					"t_mapping(t_address,t_array(t_enum(jobType)13)dyn_storage)": {
						"encoding": "mapping",
						"key": "t_address",
						"label": "mapping(address => enum CHAINLINK.jobType[])",
						"numberOfBytes": "32",
						"value": "t_array(t_enum(jobType)13)dyn_storage"
					},
					"t_mapping(t_address,t_uint256)": {
						"encoding": "mapping",
						"key": "t_address",
						"label": "mapping(address => uint256)",
						"numberOfBytes": "32",
						"value": "t_uint256"
					},
					"t_mapping(t_uint256,t_struct(RequestBody)36_storage)": {
						"encoding": "mapping",
						"key": "t_uint256",
						"label": "mapping(uint256 => struct CHAINLINK.RequestBody)",
						"numberOfBytes": "32",
						"value": "t_struct(RequestBody)36_storage"
					},
					"t_string_storage": {
						"encoding": "bytes",
						"label": "string",
						"numberOfBytes": "32"
					},
					"t_struct(RequestBody)36_storage": {
						"encoding": "inplace",
						"label": "struct CHAINLINK.RequestBody",
						"members": [
							{
								"astId": 15,
								"contract": "main.sol:CHAINLINK",
								"label": "id",
								"offset": 0,
								"slot": "0",
								"type": "t_uint256"
							},
							{
								"astId": 17,
								"contract": "main.sol:CHAINLINK",
								"label": "requester",
								"offset": 0,
								"slot": "1",
								"type": "t_address"
							},
							{
								"astId": 20,
								"contract": "main.sol:CHAINLINK",
								"label": "job_type",
								"offset": 20,
								"slot": "1",
								"type": "t_enum(jobType)13"
							},
							{
								"astId": 22,
								"contract": "main.sol:CHAINLINK",
								"label": "url",
								"offset": 0,
								"slot": "2",
								"type": "t_string_storage"
							},
							{
								"astId": 25,
								"contract": "main.sol:CHAINLINK",
								"label": "oracles_list",
								"offset": 0,
								"slot": "3",
								"type": "t_array(t_address)dyn_storage"
							},
							{
								"astId": 27,
								"contract": "main.sol:CHAINLINK",
								"label": "Fee",
								"offset": 0,
								"slot": "4",
								"type": "t_uint256"
							},
							{
								"astId": 30,
								"contract": "main.sol:CHAINLINK",
								"label": "searchRes",
								"offset": 0,
								"slot": "5",
								"type": "t_array(t_uint256)dyn_storage"
							},
							{
								"astId": 33,
								"contract": "main.sol:CHAINLINK",
								"label": "oracleNodes",
								"offset": 0,
								"slot": "6",
								"type": "t_array(t_address)dyn_storage"
							},
							{
								"astId": 35,
								"contract": "main.sol:CHAINLINK",
								"label": "givenNum",
								"offset": 0,
								"slot": "7",
								"type": "t_uint256"
							}
						],
						"numberOfBytes": "256"
					},
					"t_uint256": {
						"encoding": "inplace",
						"label": "uint256",
						"numberOfBytes": "32"
					}
				}
			},
			"userdoc": {
				"kind": "user",
				"methods": {},
				"version": 1
			}
		}
	}
}