{
	"main.sol": {
		"CHAINLINK": {
			"abi": [
				{
					"inputs": [],
					"stateMutability": "nonpayable",
					"type": "constructor"
				},
				{
					"anonymous": false,
					"inputs": [
						{
							"indexed": true,
							"internalType": "uint256",
							"name": "requestID",
							"type": "uint256"
						},
						{
							"indexed": false,
							"internalType": "address[]",
							"name": "node_list",
							"type": "address[]"
						},
						{
							"indexed": false,
							"internalType": "enum CHAINLINK.jobType",
							"name": "job_type",
							"type": "uint8"
						},
						{
							"indexed": false,
							"internalType": "string",
							"name": "url",
							"type": "string"
						},
						{
							"indexed": false,
							"internalType": "uint256",
							"name": "fee",
							"type": "uint256"
						}
					],
					"name": "oracleRequestEvent",
					"type": "event"
				},
				{
					"anonymous": false,
					"inputs": [
						{
							"indexed": true,
							"internalType": "uint256",
							"name": "requestID",
							"type": "uint256"
						},
						{
							"indexed": false,
							"internalType": "string",
							"name": "result",
							"type": "string"
						},
						{
							"indexed": false,
							"internalType": "uint256",
							"name": "nodeID",
							"type": "uint256"
						}
					],
					"name": "requestFulfulledEvent",
					"type": "event"
				},
				{
					"inputs": [],
					"name": "DEDUCE_PRICE",
					"outputs": [
						{
							"internalType": "uint256",
							"name": "",
							"type": "uint256"
						}
					],
					"stateMutability": "view",
					"type": "function"
				},
				{
					"inputs": [],
					"name": "LIMIT_FEE_PRICE",
					"outputs": [
						{
							"internalType": "uint256",
							"name": "",
							"type": "uint256"
						}
					],
					"stateMutability": "view",
					"type": "function"
				},
				{
					"inputs": [],
					"name": "LIMIT_STAKE_NUM",
					"outputs": [
						{
							"internalType": "uint256",
							"name": "",
							"type": "uint256"
						}
					],
					"stateMutability": "view",
					"type": "function"
				},
				{
					"inputs": [],
					"name": "MAX_SEARCH_NUM",
					"outputs": [
						{
							"internalType": "uint256",
							"name": "",
							"type": "uint256"
						}
					],
					"stateMutability": "view",
					"type": "function"
				},
				{
					"inputs": [
						{
							"internalType": "uint256",
							"name": "id",
							"type": "uint256"
						},
						{
							"internalType": "uint256",
							"name": "result",
							"type": "uint256"
						}
					],
					"name": "fufillReqEvent",
					"outputs": [
						{
							"internalType": "bool",
							"name": "",
							"type": "bool"
						}
					],
					"stateMutability": "nonpayable",
					"type": "function"
				},
				{
					"inputs": [
						{
							"internalType": "address",
							"name": "",
							"type": "address"
						}
					],
					"name": "nodeStackBalance",
					"outputs": [
						{
							"internalType": "uint256",
							"name": "",
							"type": "uint256"
						}
					],
					"stateMutability": "view",
					"type": "function"
				},
				{
					"inputs": [
						{
							"internalType": "uint256",
							"name": "",
							"type": "uint256"
						}
					],
					"name": "oracleAddressList",
					"outputs": [
						{
							"internalType": "address",
							"name": "",
							"type": "address"
						}
					],
					"stateMutability": "view",
					"type": "function"
				},
				{
					"inputs": [
						{
							"internalType": "address",
							"name": "",
							"type": "address"
						},
						{
							"internalType": "uint256",
							"name": "",
							"type": "uint256"
						}
					],
					"name": "oracleNodeJobType",
					"outputs": [
						{
							"internalType": "enum CHAINLINK.jobType",
							"name": "",
							"type": "uint8"
						}
					],
					"stateMutability": "view",
					"type": "function"
				},
				{
					"inputs": [
						{
							"internalType": "enum CHAINLINK.jobType[]",
							"name": "job_type_list",
							"type": "uint8[]"
						}
					],
					"name": "registerOracleNode",
					"outputs": [
						{
							"internalType": "bool",
							"name": "",
							"type": "bool"
						}
					],
					"stateMutability": "nonpayable",
					"type": "function"
				},
				{
					"inputs": [
						{
							"internalType": "string",
							"name": "url",
							"type": "string"
						},
						{
							"internalType": "enum CHAINLINK.jobType",
							"name": "jobtype",
							"type": "uint8"
						},
						{
							"internalType": "uint256",
							"name": "fee",
							"type": "uint256"
						}
					],
					"name": "requestForMsg",
					"outputs": [
						{
							"internalType": "bool",
							"name": "",
							"type": "bool"
						}
					],
					"stateMutability": "nonpayable",
					"type": "function"
				},
				{
					"inputs": [],
					"name": "totalRequestNum",
					"outputs": [
						{
							"internalType": "uint256",
							"name": "",
							"type": "uint256"
						}
					],
					"stateMutability": "view",
					"type": "function"
				}
			],
			"devdoc": {
				"kind": "dev",
				"methods": {},
				"version": 1
			},
			"evm": {
				"assembly": "    /* \"main.sol\":152:7071  contract CHAINLINK {... */\n  mstore(0x40, 0x80)\n    /* \"main.sol\":1172:1268  constructor() {... */\n  callvalue\n  dup1\n  iszero\n  tag_1\n  jumpi\n  revert(0x00, 0x00)\ntag_1:\n  pop\n    /* \"main.sol\":1214:1215  0 */\n  0x00\n    /* \"main.sol\":1196:1211  totalRequestNum */\n  0x02\n    /* \"main.sol\":1196:1215  totalRequestNum = 0 */\n  dup2\n  swap1\n  sstore\n  pop\n    /* \"main.sol\":1259:1260  0 */\n  0x00\n    /* \"main.sol\":1245:1261  new address[](0) */\n  0xffffffffffffffff\n  dup2\n  gt\n  iszero\n  tag_4\n  jumpi\n  tag_5\n  tag_6\n  jump\t// in\ntag_5:\ntag_4:\n  mload(0x40)\n  swap1\n  dup1\n  dup3\n  mstore\n  dup1\n  0x20\n  mul\n  0x20\n  add\n  dup3\n  add\n  0x40\n  mstore\n  dup1\n  iszero\n  tag_7\n  jumpi\n  dup2\n  0x20\n  add\n  0x20\n  dup3\n  mul\n  dup1\n  calldatasize\n  dup4\n  calldatacopy\n  dup1\n  dup3\n  add\n  swap2\n  pop\n  pop\n  swap1\n  pop\ntag_7:\n  pop\n    /* \"main.sol\":1225:1242  oracleAddressList */\n  0x01\n    /* \"main.sol\":1225:1261  oracleAddressList = new address[](0) */\n  swap1\n  dup1\n  mload\n  swap1\n  0x20\n  add\n  swap1\n  tag_8\n  swap3\n  swap2\n  swap1\n  tag_9\n  jump\t// in\ntag_8:\n  pop\n    /* \"main.sol\":152:7071  contract CHAINLINK {... */\n  jump(tag_10)\ntag_9:\n  dup3\n  dup1\n  sload\n  dup3\n  dup3\n  sstore\n  swap1\n  0x00\n  mstore\n  keccak256(0x00, 0x20)\n  swap1\n  dup2\n  add\n  swap3\n  dup3\n  iszero\n  tag_11\n  jumpi\n  swap2\n  0x20\n  mul\n  dup3\n  add\ntag_12:\n  dup3\n  dup2\n  gt\n  iszero\n  tag_13\n  jumpi\n  dup3\n  mload\n  dup3\n  exp(0x0100, 0x00)\n  dup2\n  sload\n  dup2\n  0xffffffffffffffffffffffffffffffffffffffff\n  mul\n  not\n  and\n  swap1\n  dup4\n  0xffffffffffffffffffffffffffffffffffffffff\n  and\n  mul\n  or\n  swap1\n  sstore\n  pop\n  swap2\n  0x20\n  add\n  swap2\n  swap1\n  0x01\n  add\n  swap1\n  jump(tag_12)\ntag_13:\ntag_11:\n  pop\n  swap1\n  pop\n  tag_14\n  swap2\n  swap1\n  tag_15\n  jump\t// in\ntag_14:\n  pop\n  swap1\n  jump\t// out\ntag_15:\ntag_16:\n  dup1\n  dup3\n  gt\n  iszero\n  tag_17\n  jumpi\n  0x00\n  dup2\n  0x00\n  swap1\n  sstore\n  pop\n  0x01\n  add\n  jump(tag_16)\ntag_17:\n  pop\n  swap1\n  jump\t// out\n    /* \"#utility.yul\":7:187   */\ntag_6:\n    /* \"#utility.yul\":55:132   */\n  0x4e487b7100000000000000000000000000000000000000000000000000000000\n    /* \"#utility.yul\":52:53   */\n  0x00\n    /* \"#utility.yul\":45:133   */\n  mstore\n    /* \"#utility.yul\":152:156   */\n  0x41\n    /* \"#utility.yul\":149:150   */\n  0x04\n    /* \"#utility.yul\":142:157   */\n  mstore\n    /* \"#utility.yul\":176:180   */\n  0x24\n    /* \"#utility.yul\":173:174   */\n  0x00\n    /* \"#utility.yul\":166:181   */\n  revert\n    /* \"main.sol\":152:7071  contract CHAINLINK {... */\ntag_10:\n  dataSize(sub_0)\n  dup1\n  dataOffset(sub_0)\n  0x00\n  codecopy\n  0x00\n  return\nstop\n\nsub_0: assembly {\n        /* \"main.sol\":152:7071  contract CHAINLINK {... */\n      mstore(0x40, 0x80)\n      callvalue\n      dup1\n      iszero\n      tag_1\n      jumpi\n      revert(0x00, 0x00)\n    tag_1:\n      pop\n      jumpi(tag_2, lt(calldatasize, 0x04))\n      shr(0xe0, calldataload(0x00))\n      dup1\n      0x49d26921\n      gt\n      tag_14\n      jumpi\n      dup1\n      0x49d26921\n      eq\n      tag_8\n      jumpi\n      dup1\n      0x803863fb\n      eq\n      tag_9\n      jumpi\n      dup1\n      0x8457a66a\n      eq\n      tag_10\n      jumpi\n      dup1\n      0xd3155d16\n      eq\n      tag_11\n      jumpi\n      dup1\n      0xd9514950\n      eq\n      tag_12\n      jumpi\n      dup1\n      0xe92626ae\n      eq\n      tag_13\n      jumpi\n      jump(tag_2)\n    tag_14:\n      dup1\n      0x22a51c29\n      eq\n      tag_3\n      jumpi\n      dup1\n      0x22d616d2\n      eq\n      tag_4\n      jumpi\n      dup1\n      0x2690eac4\n      eq\n      tag_5\n      jumpi\n      dup1\n      0x3063c634\n      eq\n      tag_6\n      jumpi\n      dup1\n      0x3210243e\n      eq\n      tag_7\n      jumpi\n    tag_2:\n      revert(0x00, 0x00)\n        /* \"main.sol\":1124:1165  uint256 public constant DEDUCE_PRICE = 40 */\n    tag_3:\n      tag_15\n      tag_16\n      jump\t// in\n    tag_15:\n      mload(0x40)\n      tag_17\n      swap2\n      swap1\n      tag_18\n      jump\t// in\n    tag_17:\n      mload(0x40)\n      dup1\n      swap2\n      sub\n      swap1\n      return\n        /* \"main.sol\":5752:7069  function fufillReqEvent(uint256 id, uint256 result) public returns (bool) {... */\n    tag_4:\n      tag_19\n      0x04\n      dup1\n      calldatasize\n      sub\n      dup2\n      add\n      swap1\n      tag_20\n      swap2\n      swap1\n      tag_21\n      jump\t// in\n    tag_20:\n      tag_22\n      jump\t// in\n    tag_19:\n      mload(0x40)\n      tag_23\n      swap2\n      swap1\n      tag_24\n      jump\t// in\n    tag_23:\n      mload(0x40)\n      dup1\n      swap2\n      sub\n      swap1\n      return\n        /* \"main.sol\":730:784  mapping(address => jobType[]) public oracleNodeJobType */\n    tag_5:\n      tag_25\n      0x04\n      dup1\n      calldatasize\n      sub\n      dup2\n      add\n      swap1\n      tag_26\n      swap2\n      swap1\n      tag_27\n      jump\t// in\n    tag_26:\n      tag_28\n      jump\t// in\n    tag_25:\n      mload(0x40)\n      tag_29\n      swap2\n      swap1\n      tag_30\n      jump\t// in\n    tag_29:\n      mload(0x40)\n      dup1\n      swap2\n      sub\n      swap1\n      return\n        /* \"main.sol\":3005:3867  function requestForMsg(... */\n    tag_6:\n      tag_31\n      0x04\n      dup1\n      calldatasize\n      sub\n      dup2\n      add\n      swap1\n      tag_32\n      swap2\n      swap1\n      tag_33\n      jump\t// in\n    tag_32:\n      tag_34\n      jump\t// in\n    tag_31:\n      mload(0x40)\n      tag_35\n      swap2\n      swap1\n      tag_24\n      jump\t// in\n    tag_35:\n      mload(0x40)\n      dup1\n      swap2\n      sub\n      swap1\n      return\n        /* \"main.sol\":975:1019  uint256 public constant LIMIT_STAKE_NUM = 80 */\n    tag_7:\n      tag_36\n      tag_37\n      jump\t// in\n    tag_36:\n      mload(0x40)\n      tag_38\n      swap2\n      swap1\n      tag_18\n      jump\t// in\n    tag_38:\n      mload(0x40)\n      dup1\n      swap2\n      sub\n      swap1\n      return\n        /* \"main.sol\":868:919  mapping(address => uint256) public nodeStackBalance */\n    tag_8:\n      tag_39\n      0x04\n      dup1\n      calldatasize\n      sub\n      dup2\n      add\n      swap1\n      tag_40\n      swap2\n      swap1\n      tag_41\n      jump\t// in\n    tag_40:\n      tag_42\n      jump\t// in\n    tag_39:\n      mload(0x40)\n      tag_43\n      swap2\n      swap1\n      tag_18\n      jump\t// in\n    tag_43:\n      mload(0x40)\n      dup1\n      swap2\n      sub\n      swap1\n      return\n        /* \"main.sol\":831:861  uint256 public totalRequestNum */\n    tag_9:\n      tag_44\n      tag_45\n      jump\t// in\n    tag_44:\n      mload(0x40)\n      tag_46\n      swap2\n      swap1\n      tag_18\n      jump\t// in\n    tag_46:\n      mload(0x40)\n      dup1\n      swap2\n      sub\n      swap1\n      return\n        /* \"main.sol\":791:825  address[] public oracleAddressList */\n    tag_10:\n      tag_47\n      0x04\n      dup1\n      calldatasize\n      sub\n      dup2\n      add\n      swap1\n      tag_48\n      swap2\n      swap1\n      tag_49\n      jump\t// in\n    tag_48:\n      tag_50\n      jump\t// in\n    tag_47:\n      mload(0x40)\n      tag_51\n      swap2\n      swap1\n      tag_52\n      jump\t// in\n    tag_51:\n      mload(0x40)\n      dup1\n      swap2\n      sub\n      swap1\n      return\n        /* \"main.sol\":1025:1068  uint256 public constant MAX_SEARCH_NUM = 10 */\n    tag_11:\n      tag_53\n      tag_54\n      jump\t// in\n    tag_53:\n      mload(0x40)\n      tag_55\n      swap2\n      swap1\n      tag_18\n      jump\t// in\n    tag_55:\n      mload(0x40)\n      dup1\n      swap2\n      sub\n      swap1\n      return\n        /* \"main.sol\":1309:1729  function registerOracleNode(jobType[] memory job_type_list) public returns (bool) {... */\n    tag_12:\n      tag_56\n      0x04\n      dup1\n      calldatasize\n      sub\n      dup2\n      add\n      swap1\n      tag_57\n      swap2\n      swap1\n      tag_58\n      jump\t// in\n    tag_57:\n      tag_59\n      jump\t// in\n    tag_56:\n      mload(0x40)\n      tag_60\n      swap2\n      swap1\n      tag_24\n      jump\t// in\n    tag_60:\n      mload(0x40)\n      dup1\n      swap2\n      sub\n      swap1\n      return\n        /* \"main.sol\":1074:1118  uint256 public constant LIMIT_FEE_PRICE = 10 */\n    tag_13:\n      tag_61\n      tag_62\n      jump\t// in\n    tag_61:\n      mload(0x40)\n      tag_63\n      swap2\n      swap1\n      tag_18\n      jump\t// in\n    tag_63:\n      mload(0x40)\n      dup1\n      swap2\n      sub\n      swap1\n      return\n        /* \"main.sol\":1124:1165  uint256 public constant DEDUCE_PRICE = 40 */\n    tag_16:\n        /* \"main.sol\":1163:1165  40 */\n      0x28\n        /* \"main.sol\":1124:1165  uint256 public constant DEDUCE_PRICE = 40 */\n      dup2\n      jump\t// out\n        /* \"main.sol\":5752:7069  function fufillReqEvent(uint256 id, uint256 result) public returns (bool) {... */\n    tag_22:\n        /* \"main.sol\":5820:5824  bool */\n      0x00\n        /* \"main.sol\":5840:5867  isInReqList(id, msg.sender) */\n      tag_65\n        /* \"main.sol\":5852:5854  id */\n      dup4\n        /* \"main.sol\":5856:5866  msg.sender */\n      caller\n        /* \"main.sol\":5840:5851  isInReqList */\n      tag_66\n        /* \"main.sol\":5840:5867  isInReqList(id, msg.sender) */\n      jump\t// in\n    tag_65:\n        /* \"main.sol\":5836:5906  if (isInReqList(id, msg.sender)) {... */\n      iszero\n      tag_67\n      jumpi\n        /* \"main.sol\":5890:5895  false */\n      0x00\n        /* \"main.sol\":5883:5895  return false */\n      swap1\n      pop\n      jump(tag_64)\n        /* \"main.sol\":5836:5906  if (isInReqList(id, msg.sender)) {... */\n    tag_67:\n        /* \"main.sol\":5915:5926  uint256 num */\n      0x00\n        /* \"main.sol\":5929:5940  requestList */\n      0x04\n        /* \"main.sol\":5929:5944  requestList[id] */\n      0x00\n        /* \"main.sol\":5941:5943  id */\n      dup6\n        /* \"main.sol\":5929:5944  requestList[id] */\n      dup2\n      mstore\n      0x20\n      add\n      swap1\n      dup2\n      mstore\n      0x20\n      add\n      0x00\n      keccak256\n        /* \"main.sol\":5929:5953  requestList[id].givenNum */\n      0x07\n      add\n      sload\n        /* \"main.sol\":5915:5953  uint256 num = requestList[id].givenNum */\n      swap1\n      pop\n        /* \"main.sol\":5996:6002  result */\n      dup3\n        /* \"main.sol\":5963:5974  requestList */\n      0x04\n        /* \"main.sol\":5963:5978  requestList[id] */\n      0x00\n        /* \"main.sol\":5975:5977  id */\n      dup7\n        /* \"main.sol\":5963:5978  requestList[id] */\n      dup2\n      mstore\n      0x20\n      add\n      swap1\n      dup2\n      mstore\n      0x20\n      add\n      0x00\n      keccak256\n        /* \"main.sol\":5963:5988  requestList[id].searchRes */\n      0x05\n      add\n        /* \"main.sol\":5989:5992  num */\n      dup3\n        /* \"main.sol\":5963:5993  requestList[id].searchRes[num] */\n      dup2\n      sload\n      dup2\n      lt\n      tag_68\n      jumpi\n      tag_69\n      tag_70\n      jump\t// in\n    tag_69:\n    tag_68:\n      swap1\n      0x00\n      mstore\n      keccak256(0x00, 0x20)\n      add\n        /* \"main.sol\":5963:6002  requestList[id].searchRes[num] = result */\n      dup2\n      swap1\n      sstore\n      pop\n        /* \"main.sol\":6047:6057  msg.sender */\n      caller\n        /* \"main.sol\":6012:6023  requestList */\n      0x04\n        /* \"main.sol\":6012:6027  requestList[id] */\n      0x00\n        /* \"main.sol\":6024:6026  id */\n      dup7\n        /* \"main.sol\":6012:6027  requestList[id] */\n      dup2\n      mstore\n      0x20\n      add\n      swap1\n      dup2\n      mstore\n      0x20\n      add\n      0x00\n      keccak256\n        /* \"main.sol\":6012:6039  requestList[id].oracleNodes */\n      0x06\n      add\n        /* \"main.sol\":6040:6043  num */\n      dup3\n        /* \"main.sol\":6012:6044  requestList[id].oracleNodes[num] */\n      dup2\n      sload\n      dup2\n      lt\n      tag_72\n      jumpi\n      tag_73\n      tag_70\n      jump\t// in\n    tag_73:\n    tag_72:\n      swap1\n      0x00\n      mstore\n      keccak256(0x00, 0x20)\n      add\n      0x00\n        /* \"main.sol\":6012:6057  requestList[id].oracleNodes[num] = msg.sender */\n      0x0100\n      exp\n      dup2\n      sload\n      dup2\n      0xffffffffffffffffffffffffffffffffffffffff\n      mul\n      not\n      and\n      swap1\n      dup4\n      0xffffffffffffffffffffffffffffffffffffffff\n      and\n      mul\n      or\n      swap1\n      sstore\n      pop\n        /* \"main.sol\":6067:6078  requestList */\n      0x04\n        /* \"main.sol\":6067:6082  requestList[id] */\n      0x00\n        /* \"main.sol\":6079:6081  id */\n      dup6\n        /* \"main.sol\":6067:6082  requestList[id] */\n      dup2\n      mstore\n      0x20\n      add\n      swap1\n      dup2\n      mstore\n      0x20\n      add\n      0x00\n      keccak256\n        /* \"main.sol\":6067:6091  requestList[id].givenNum */\n      0x07\n      add\n      0x00\n        /* \"main.sol\":6067:6093  requestList[id].givenNum++ */\n      dup2\n      sload\n      dup1\n      swap3\n      swap2\n      swap1\n      tag_75\n      swap1\n      tag_76\n      jump\t// in\n    tag_75:\n      swap2\n      swap1\n      pop\n      sstore\n      pop\n        /* \"main.sol\":1066:1068  10 */\n      0x0a\n        /* \"main.sol\":6186:6197  requestList */\n      0x04\n        /* \"main.sol\":6186:6201  requestList[id] */\n      0x00\n        /* \"main.sol\":6198:6200  id */\n      dup7\n        /* \"main.sol\":6186:6201  requestList[id] */\n      dup2\n      mstore\n      0x20\n      add\n      swap1\n      dup2\n      mstore\n      0x20\n      add\n      0x00\n      keccak256\n        /* \"main.sol\":6186:6210  requestList[id].givenNum */\n      0x07\n      add\n      sload\n        /* \"main.sol\":6186:6228  requestList[id].givenNum == MAX_SEARCH_NUM */\n      sub\n        /* \"main.sol\":6182:7042  if (requestList[id].givenNum == MAX_SEARCH_NUM) {... */\n      tag_77\n      jumpi\n        /* \"main.sol\":6244:6264  uint256 final_result */\n      0x00\n        /* \"main.sol\":6267:6268  0 */\n      0x00\n        /* \"main.sol\":6244:6268  uint256 final_result = 0 */\n      swap1\n      pop\n        /* \"main.sol\":6282:6297  uint256 std_num */\n      0x00\n        /* \"main.sol\":6300:6301  0 */\n      0x00\n        /* \"main.sol\":6282:6301  uint256 std_num = 0 */\n      swap1\n      pop\n        /* \"main.sol\":6320:6329  uint256 i */\n      0x00\n        /* \"main.sol\":6332:6333  0 */\n      0x00\n        /* \"main.sol\":6320:6333  uint256 i = 0 */\n      swap1\n      pop\n        /* \"main.sol\":6315:6612  for (uint256 i = 0; i < requestList[id].givenNum; i++) {... */\n    tag_78:\n        /* \"main.sol\":6339:6350  requestList */\n      0x04\n        /* \"main.sol\":6339:6354  requestList[id] */\n      0x00\n        /* \"main.sol\":6351:6353  id */\n      dup9\n        /* \"main.sol\":6339:6354  requestList[id] */\n      dup2\n      mstore\n      0x20\n      add\n      swap1\n      dup2\n      mstore\n      0x20\n      add\n      0x00\n      keccak256\n        /* \"main.sol\":6339:6363  requestList[id].givenNum */\n      0x07\n      add\n      sload\n        /* \"main.sol\":6335:6336  i */\n      dup2\n        /* \"main.sol\":6335:6363  i < requestList[id].givenNum */\n      lt\n        /* \"main.sol\":6315:6612  for (uint256 i = 0; i < requestList[id].givenNum; i++) {... */\n      iszero\n      tag_79\n      jumpi\n        /* \"main.sol\":1066:1068  10 */\n      0x0a\n        /* \"main.sol\":6440:6451  requestList */\n      0x04\n        /* \"main.sol\":6440:6454  requestList[i] */\n      0x00\n        /* \"main.sol\":6452:6453  i */\n      dup4\n        /* \"main.sol\":6440:6454  requestList[i] */\n      dup2\n      mstore\n      0x20\n      add\n      swap1\n      dup2\n      mstore\n      0x20\n      add\n      0x00\n      keccak256\n        /* \"main.sol\":6440:6458  requestList[i].Fee */\n      0x04\n      add\n      sload\n        /* \"main.sol\":6440:6475  requestList[i].Fee / MAX_SEARCH_NUM */\n      tag_81\n      swap2\n      swap1\n      tag_82\n      jump\t// in\n    tag_81:\n        /* \"main.sol\":6388:6404  nodeStackBalance */\n      0x03\n        /* \"main.sol\":6388:6436  nodeStackBalance[requestList[id].oracleNodes[i]] */\n      0x00\n        /* \"main.sol\":6405:6416  requestList */\n      0x04\n        /* \"main.sol\":6405:6420  requestList[id] */\n      0x00\n        /* \"main.sol\":6417:6419  id */\n      dup12\n        /* \"main.sol\":6405:6420  requestList[id] */\n      dup2\n      mstore\n      0x20\n      add\n      swap1\n      dup2\n      mstore\n      0x20\n      add\n      0x00\n      keccak256\n        /* \"main.sol\":6405:6432  requestList[id].oracleNodes */\n      0x06\n      add\n        /* \"main.sol\":6433:6434  i */\n      dup5\n        /* \"main.sol\":6405:6435  requestList[id].oracleNodes[i] */\n      dup2\n      sload\n      dup2\n      lt\n      tag_83\n      jumpi\n      tag_84\n      tag_70\n      jump\t// in\n    tag_84:\n    tag_83:\n      swap1\n      0x00\n      mstore\n      keccak256(0x00, 0x20)\n      add\n      0x00\n      swap1\n      sload\n      swap1\n      0x0100\n      exp\n      swap1\n      div\n      0xffffffffffffffffffffffffffffffffffffffff\n      and\n        /* \"main.sol\":6388:6436  nodeStackBalance[requestList[id].oracleNodes[i]] */\n      0xffffffffffffffffffffffffffffffffffffffff\n      and\n      0xffffffffffffffffffffffffffffffffffffffff\n      and\n      dup2\n      mstore\n      0x20\n      add\n      swap1\n      dup2\n      mstore\n      0x20\n      add\n      0x00\n      keccak256\n      0x00\n        /* \"main.sol\":6388:6475  nodeStackBalance[requestList[id].oracleNodes[i]] += requestList[i].Fee / MAX_SEARCH_NUM */\n      dup3\n      dup3\n      sload\n      tag_86\n      swap2\n      swap1\n      tag_87\n      jump\t// in\n    tag_86:\n      swap3\n      pop\n      pop\n      dup2\n      swap1\n      sstore\n      pop\n        /* \"main.sol\":6509:6520  requestList */\n      0x04\n        /* \"main.sol\":6509:6524  requestList[id] */\n      0x00\n        /* \"main.sol\":6521:6523  id */\n      dup9\n        /* \"main.sol\":6509:6524  requestList[id] */\n      dup2\n      mstore\n      0x20\n      add\n      swap1\n      dup2\n      mstore\n      0x20\n      add\n      0x00\n      keccak256\n        /* \"main.sol\":6509:6534  requestList[id].searchRes */\n      0x05\n      add\n        /* \"main.sol\":6535:6536  i */\n      dup2\n        /* \"main.sol\":6509:6537  requestList[id].searchRes[i] */\n      dup2\n      sload\n      dup2\n      lt\n      tag_88\n      jumpi\n      tag_89\n      tag_70\n      jump\t// in\n    tag_89:\n    tag_88:\n      swap1\n      0x00\n      mstore\n      keccak256(0x00, 0x20)\n      add\n      sload\n        /* \"main.sol\":6493:6537  final_result += requestList[id].searchRes[i] */\n      dup4\n      tag_91\n      swap2\n      swap1\n      tag_87\n      jump\t// in\n    tag_91:\n      swap3\n      pop\n        /* \"main.sol\":6596:6597  2 */\n      0x02\n        /* \"main.sol\":6566:6577  requestList */\n      0x04\n        /* \"main.sol\":6566:6581  requestList[id] */\n      0x00\n        /* \"main.sol\":6578:6580  id */\n      dup10\n        /* \"main.sol\":6566:6581  requestList[id] */\n      dup2\n      mstore\n      0x20\n      add\n      swap1\n      dup2\n      mstore\n      0x20\n      add\n      0x00\n      keccak256\n        /* \"main.sol\":6566:6591  requestList[id].searchRes */\n      0x05\n      add\n        /* \"main.sol\":6592:6593  i */\n      dup3\n        /* \"main.sol\":6566:6594  requestList[id].searchRes[i] */\n      dup2\n      sload\n      dup2\n      lt\n      tag_92\n      jumpi\n      tag_93\n      tag_70\n      jump\t// in\n    tag_93:\n    tag_92:\n      swap1\n      0x00\n      mstore\n      keccak256(0x00, 0x20)\n      add\n      sload\n        /* \"main.sol\":6566:6597  requestList[id].searchRes[i]**2 */\n      tag_95\n      swap2\n      swap1\n      tag_96\n      jump\t// in\n    tag_95:\n        /* \"main.sol\":6555:6597  std_num += requestList[id].searchRes[i]**2 */\n      dup3\n      tag_97\n      swap2\n      swap1\n      tag_87\n      jump\t// in\n    tag_97:\n      swap2\n      pop\n        /* \"main.sol\":6365:6368  i++ */\n      dup1\n      dup1\n      0x01\n      add\n      swap2\n      pop\n      pop\n        /* \"main.sol\":6315:6612  for (uint256 i = 0; i < requestList[id].givenNum; i++) {... */\n      jump(tag_78)\n    tag_79:\n      pop\n        /* \"main.sol\":6625:6655  TARGET_CONTRACT TargetContract */\n      0x00\n        /* \"main.sol\":6674:6685  requestList */\n      0x04\n        /* \"main.sol\":6674:6689  requestList[id] */\n      0x00\n        /* \"main.sol\":6686:6688  id */\n      dup9\n        /* \"main.sol\":6674:6689  requestList[id] */\n      dup2\n      mstore\n      0x20\n      add\n      swap1\n      dup2\n      mstore\n      0x20\n      add\n      0x00\n      keccak256\n        /* \"main.sol\":6674:6699  requestList[id].requester */\n      0x01\n      add\n      0x00\n      swap1\n      sload\n      swap1\n      0x0100\n      exp\n      swap1\n      div\n      0xffffffffffffffffffffffffffffffffffffffff\n      and\n        /* \"main.sol\":6625:6700  TARGET_CONTRACT TargetContract = TARGET_CONTRACT(requestList[id].requester) */\n      swap1\n      pop\n        /* \"main.sol\":6715:6758  evaluateNodePerf(id, final_result, std_num) */\n      tag_98\n        /* \"main.sol\":6732:6734  id */\n      dup8\n        /* \"main.sol\":6736:6748  final_result */\n      dup5\n        /* \"main.sol\":6750:6757  std_num */\n      dup5\n        /* \"main.sol\":6715:6731  evaluateNodePerf */\n      tag_99\n        /* \"main.sol\":6715:6758  evaluateNodePerf(id, final_result, std_num) */\n      jump\t// in\n    tag_98:\n      pop\n        /* \"main.sol\":1066:1068  10 */\n      0x0a\n        /* \"main.sol\":6788:6800  final_result */\n      dup4\n        /* \"main.sol\":6788:6817  final_result / MAX_SEARCH_NUM */\n      tag_100\n      swap2\n      swap1\n      tag_82\n      jump\t// in\n    tag_100:\n        /* \"main.sol\":6773:6817  final_result = final_result / MAX_SEARCH_NUM */\n      swap3\n      pop\n        /* \"main.sol\":6858:6870  final_result */\n      dup3\n        /* \"main.sol\":6843:6855  final_result */\n      dup4\n        /* \"main.sol\":6843:6870  final_result * final_result */\n      tag_101\n      swap2\n      swap1\n      tag_102\n      jump\t// in\n    tag_101:\n        /* \"main.sol\":6832:6870  std_num -= final_result * final_result */\n      dup3\n      tag_103\n      swap2\n      swap1\n      tag_104\n      jump\t// in\n    tag_103:\n      swap2\n      pop\n        /* \"main.sol\":1066:1068  10 */\n      0x0a\n        /* \"main.sol\":6894:6901  std_num */\n      dup3\n        /* \"main.sol\":6894:6918  std_num / MAX_SEARCH_NUM */\n      tag_105\n      swap2\n      swap1\n      tag_82\n      jump\t// in\n    tag_105:\n        /* \"main.sol\":6884:6918  std_num = std_num / MAX_SEARCH_NUM */\n      swap2\n      pop\n        /* \"main.sol\":6994:7008  TargetContract */\n      dup1\n        /* \"main.sol\":6994:7017  TargetContract.callData */\n      0xffffffffffffffffffffffffffffffffffffffff\n      and\n      0xe5d60ce1\n        /* \"main.sol\":7018:7030  final_result */\n      dup5\n        /* \"main.sol\":6994:7031  TargetContract.callData(final_result) */\n      mload(0x40)\n      dup3\n      0xffffffff\n      and\n      0xe0\n      shl\n      dup2\n      mstore\n      0x04\n      add\n      tag_106\n      swap2\n      swap1\n      tag_18\n      jump\t// in\n    tag_106:\n      0x20\n      mload(0x40)\n      dup1\n      dup4\n      sub\n      dup2\n      0x00\n      dup8\n      gas\n      call\n      iszero\n      dup1\n      iszero\n      tag_108\n      jumpi\n      returndatacopy(0x00, 0x00, returndatasize)\n      revert(0x00, returndatasize)\n    tag_108:\n      pop\n      pop\n      pop\n      pop\n      mload(0x40)\n      returndatasize\n      not(0x1f)\n      0x1f\n      dup3\n      add\n      and\n      dup3\n      add\n      dup1\n      0x40\n      mstore\n      pop\n      dup2\n      add\n      swap1\n      tag_109\n      swap2\n      swap1\n      tag_110\n      jump\t// in\n    tag_109:\n      pop\n        /* \"main.sol\":6230:7042  {... */\n      pop\n      pop\n      pop\n        /* \"main.sol\":6182:7042  if (requestList[id].givenNum == MAX_SEARCH_NUM) {... */\n    tag_77:\n        /* \"main.sol\":7058:7062  true */\n      0x01\n        /* \"main.sol\":7051:7062  return true */\n      swap2\n      pop\n      pop\n        /* \"main.sol\":5752:7069  function fufillReqEvent(uint256 id, uint256 result) public returns (bool) {... */\n    tag_64:\n      swap3\n      swap2\n      pop\n      pop\n      jump\t// out\n        /* \"main.sol\":730:784  mapping(address => jobType[]) public oracleNodeJobType */\n    tag_28:\n      mstore(0x20, 0x00)\n      dup2\n      0x00\n      mstore\n      keccak256(0x00, 0x40)\n      dup2\n      dup2\n      sload\n      dup2\n      lt\n      tag_111\n      jumpi\n      0x00\n      dup1\n      revert\n    tag_111:\n      swap1\n      0x00\n      mstore\n      keccak256(0x00, 0x20)\n      swap1\n      0x20\n      swap2\n      dup3\n      dup3\n      div\n      add\n      swap2\n      swap1\n      mod\n      swap2\n      pop\n      swap2\n      pop\n      swap1\n      sload\n      swap1\n      0x0100\n      exp\n      swap1\n      div\n      0xff\n      and\n      dup2\n      jump\t// out\n        /* \"main.sol\":3005:3867  function requestForMsg(... */\n    tag_34:\n        /* \"main.sol\":3123:3127  bool */\n      0x00\n        /* \"main.sol\":1116:1118  10 */\n      0x0a\n        /* \"main.sol\":3147:3150  fee */\n      dup3\n        /* \"main.sol\":3147:3169  fee >= LIMIT_FEE_PRICE */\n      lt\n      iszero\n        /* \"main.sol\":3147:3198  fee >= LIMIT_FEE_PRICE && fee % MAX_SEARCH_NUM == 0 */\n      dup1\n      iszero\n      tag_114\n      jumpi\n      pop\n        /* \"main.sol\":3197:3198  0 */\n      0x00\n        /* \"main.sol\":1066:1068  10 */\n      0x0a\n        /* \"main.sol\":3173:3176  fee */\n      dup4\n        /* \"main.sol\":3173:3193  fee % MAX_SEARCH_NUM */\n      tag_115\n      swap2\n      swap1\n      tag_116\n      jump\t// in\n    tag_115:\n        /* \"main.sol\":3173:3198  fee % MAX_SEARCH_NUM == 0 */\n      eq\n        /* \"main.sol\":3147:3198  fee >= LIMIT_FEE_PRICE && fee % MAX_SEARCH_NUM == 0 */\n    tag_114:\n        /* \"main.sol\":3139:3215  require(fee >= LIMIT_FEE_PRICE && fee % MAX_SEARCH_NUM == 0, \"too less fee\") */\n      tag_117\n      jumpi\n      mload(0x40)\n      0x08c379a000000000000000000000000000000000000000000000000000000000\n      dup2\n      mstore\n      0x04\n      add\n      tag_118\n      swap1\n      tag_119\n      jump\t// in\n    tag_118:\n      mload(0x40)\n      dup1\n      swap2\n      sub\n      swap1\n      revert\n    tag_117:\n        /* \"main.sol\":3265:3268  fee */\n      dup2\n        /* \"main.sol\":3233:3249  nodeStackBalance */\n      0x03\n        /* \"main.sol\":3233:3261  nodeStackBalance[msg.sender] */\n      0x00\n        /* \"main.sol\":3250:3260  msg.sender */\n      caller\n        /* \"main.sol\":3233:3261  nodeStackBalance[msg.sender] */\n      0xffffffffffffffffffffffffffffffffffffffff\n      and\n      0xffffffffffffffffffffffffffffffffffffffff\n      and\n      dup2\n      mstore\n      0x20\n      add\n      swap1\n      dup2\n      mstore\n      0x20\n      add\n      0x00\n      keccak256\n      sload\n        /* \"main.sol\":3233:3268  nodeStackBalance[msg.sender] >= fee */\n      lt\n      iszero\n        /* \"main.sol\":3225:3289  require(nodeStackBalance[msg.sender] >= fee, \"not enough money\") */\n      tag_120\n      jumpi\n      mload(0x40)\n      0x08c379a000000000000000000000000000000000000000000000000000000000\n      dup2\n      mstore\n      0x04\n      add\n      tag_121\n      swap1\n      tag_122\n      jump\t// in\n    tag_121:\n      mload(0x40)\n      dup1\n      swap2\n      sub\n      swap1\n      revert\n    tag_120:\n        /* \"main.sol\":3299:3326  address[] memory node_lists */\n      0x00\n        /* \"main.sol\":3329:3354  calculateReqNode(jobtype) */\n      tag_123\n        /* \"main.sol\":3346:3353  jobtype */\n      dup5\n        /* \"main.sol\":3329:3345  calculateReqNode */\n      tag_124\n        /* \"main.sol\":3329:3354  calculateReqNode(jobtype) */\n      jump\t// in\n    tag_123:\n        /* \"main.sol\":3299:3354  address[] memory node_lists = calculateReqNode(jobtype) */\n      swap1\n      pop\n        /* \"main.sol\":3364:3378  uint256 req_id */\n      0x00\n        /* \"main.sol\":3381:3396  totalRequestNum */\n      0x02\n      0x00\n        /* \"main.sol\":3381:3398  totalRequestNum++ */\n      dup2\n      sload\n      dup1\n      swap3\n      swap2\n      swap1\n      tag_125\n      swap1\n      tag_76\n      jump\t// in\n    tag_125:\n      swap2\n      swap1\n      pop\n      sstore\n        /* \"main.sol\":3364:3398  uint256 req_id = totalRequestNum++ */\n      swap1\n      pop\n        /* \"main.sol\":3431:3767  RequestBody({... */\n      mload(0x40)\n      dup1\n      0x0120\n      add\n      0x40\n      mstore\n      dup1\n        /* \"main.sol\":3461:3467  req_id */\n      dup3\n        /* \"main.sol\":3431:3767  RequestBody({... */\n      dup2\n      mstore\n      0x20\n      add\n        /* \"main.sol\":3492:3502  msg.sender */\n      caller\n        /* \"main.sol\":3431:3767  RequestBody({... */\n      0xffffffffffffffffffffffffffffffffffffffff\n      and\n      dup2\n      mstore\n      0x20\n      add\n        /* \"main.sol\":3526:3533  jobtype */\n      dup7\n        /* \"main.sol\":3431:3767  RequestBody({... */\n      0x02\n      dup2\n      gt\n      iszero\n      tag_126\n      jumpi\n      tag_127\n      tag_128\n      jump\t// in\n    tag_127:\n    tag_126:\n      dup2\n      mstore\n      0x20\n      add\n        /* \"main.sol\":3552:3555  url */\n      dup8\n        /* \"main.sol\":3431:3767  RequestBody({... */\n      dup2\n      mstore\n      0x20\n      add\n        /* \"main.sol\":3583:3593  node_lists */\n      dup4\n        /* \"main.sol\":3431:3767  RequestBody({... */\n      dup2\n      mstore\n      0x20\n      add\n        /* \"main.sol\":3612:3615  fee */\n      dup6\n        /* \"main.sol\":3431:3767  RequestBody({... */\n      dup2\n      mstore\n      0x20\n      add\n        /* \"main.sol\":3654:3664  node_lists */\n      dup4\n        /* \"main.sol\":3654:3671  node_lists.length */\n      mload\n        /* \"main.sol\":3640:3672  new uint256[](node_lists.length) */\n      0xffffffffffffffff\n      dup2\n      gt\n      iszero\n      tag_129\n      jumpi\n      tag_130\n      tag_131\n      jump\t// in\n    tag_130:\n    tag_129:\n      mload(0x40)\n      swap1\n      dup1\n      dup3\n      mstore\n      dup1\n      0x20\n      mul\n      0x20\n      add\n      dup3\n      add\n      0x40\n      mstore\n      dup1\n      iszero\n      tag_132\n      jumpi\n      dup2\n      0x20\n      add\n      0x20\n      dup3\n      mul\n      dup1\n      calldatasize\n      dup4\n      calldatacopy\n      dup1\n      dup3\n      add\n      swap2\n      pop\n      pop\n      swap1\n      pop\n    tag_132:\n      pop\n        /* \"main.sol\":3431:3767  RequestBody({... */\n      dup2\n      mstore\n      0x20\n      add\n        /* \"main.sol\":3713:3723  node_lists */\n      dup4\n        /* \"main.sol\":3713:3730  node_lists.length */\n      mload\n        /* \"main.sol\":3699:3731  new address[](node_lists.length) */\n      0xffffffffffffffff\n      dup2\n      gt\n      iszero\n      tag_133\n      jumpi\n      tag_134\n      tag_131\n      jump\t// in\n    tag_134:\n    tag_133:\n      mload(0x40)\n      swap1\n      dup1\n      dup3\n      mstore\n      dup1\n      0x20\n      mul\n      0x20\n      add\n      dup3\n      add\n      0x40\n      mstore\n      dup1\n      iszero\n      tag_135\n      jumpi\n      dup2\n      0x20\n      add\n      0x20\n      dup3\n      mul\n      dup1\n      calldatasize\n      dup4\n      calldatacopy\n      dup1\n      dup3\n      add\n      swap2\n      pop\n      pop\n      swap1\n      pop\n    tag_135:\n      pop\n        /* \"main.sol\":3431:3767  RequestBody({... */\n      dup2\n      mstore\n      0x20\n      add\n        /* \"main.sol\":3755:3756  0 */\n      0x00\n        /* \"main.sol\":3431:3767  RequestBody({... */\n      dup2\n      mstore\n      pop\n        /* \"main.sol\":3409:3420  requestList */\n      0x04\n        /* \"main.sol\":3409:3428  requestList[req_id] */\n      0x00\n        /* \"main.sol\":3421:3427  req_id */\n      dup4\n        /* \"main.sol\":3409:3428  requestList[req_id] */\n      dup2\n      mstore\n      0x20\n      add\n      swap1\n      dup2\n      mstore\n      0x20\n      add\n      0x00\n      keccak256\n        /* \"main.sol\":3409:3767  requestList[req_id] = RequestBody({... */\n      0x00\n      dup3\n      add\n      mload\n      dup2\n      0x00\n      add\n      sstore\n      0x20\n      dup3\n      add\n      mload\n      dup2\n      0x01\n      add\n      exp(0x0100, 0x00)\n      dup2\n      sload\n      dup2\n      0xffffffffffffffffffffffffffffffffffffffff\n      mul\n      not\n      and\n      swap1\n      dup4\n      0xffffffffffffffffffffffffffffffffffffffff\n      and\n      mul\n      or\n      swap1\n      sstore\n      pop\n      0x40\n      dup3\n      add\n      mload\n      dup2\n      0x01\n      add\n      exp(0x0100, 0x14)\n      dup2\n      sload\n      dup2\n      0xff\n      mul\n      not\n      and\n      swap1\n      dup4\n      0x02\n      dup2\n      gt\n      iszero\n      tag_136\n      jumpi\n      tag_137\n      tag_128\n      jump\t// in\n    tag_137:\n    tag_136:\n      mul\n      or\n      swap1\n      sstore\n      pop\n      0x60\n      dup3\n      add\n      mload\n      dup2\n      0x02\n      add\n      swap1\n      dup2\n      tag_138\n      swap2\n      swap1\n      tag_139\n      jump\t// in\n    tag_138:\n      pop\n      0x80\n      dup3\n      add\n      mload\n      dup2\n      0x03\n      add\n      swap1\n      dup1\n      mload\n      swap1\n      0x20\n      add\n      swap1\n      tag_140\n      swap3\n      swap2\n      swap1\n      tag_141\n      jump\t// in\n    tag_140:\n      pop\n      0xa0\n      dup3\n      add\n      mload\n      dup2\n      0x04\n      add\n      sstore\n      0xc0\n      dup3\n      add\n      mload\n      dup2\n      0x05\n      add\n      swap1\n      dup1\n      mload\n      swap1\n      0x20\n      add\n      swap1\n      tag_142\n      swap3\n      swap2\n      swap1\n      tag_143\n      jump\t// in\n    tag_142:\n      pop\n      0xe0\n      dup3\n      add\n      mload\n      dup2\n      0x06\n      add\n      swap1\n      dup1\n      mload\n      swap1\n      0x20\n      add\n      swap1\n      tag_144\n      swap3\n      swap2\n      swap1\n      tag_141\n      jump\t// in\n    tag_144:\n      pop\n      0x0100\n      dup3\n      add\n      mload\n      dup2\n      0x07\n      add\n      sstore\n      swap1\n      pop\n      pop\n        /* \"main.sol\":3801:3807  req_id */\n      dup1\n        /* \"main.sol\":3782:3839  oracleRequestEvent(req_id, node_lists, jobtype, url, fee) */\n      0xe84d10fa98af4ed68014b5eb0367cbcb5ee2664f554195989f89f9bc49709004\n        /* \"main.sol\":3809:3819  node_lists */\n      dup4\n        /* \"main.sol\":3821:3828  jobtype */\n      dup8\n        /* \"main.sol\":3830:3833  url */\n      dup10\n        /* \"main.sol\":3835:3838  fee */\n      dup9\n        /* \"main.sol\":3782:3839  oracleRequestEvent(req_id, node_lists, jobtype, url, fee) */\n      mload(0x40)\n      tag_145\n      swap5\n      swap4\n      swap3\n      swap2\n      swap1\n      tag_146\n      jump\t// in\n    tag_145:\n      mload(0x40)\n      dup1\n      swap2\n      sub\n      swap1\n      log2\n        /* \"main.sol\":3856:3860  true */\n      0x01\n        /* \"main.sol\":3849:3860  return true */\n      swap3\n      pop\n      pop\n      pop\n        /* \"main.sol\":3005:3867  function requestForMsg(... */\n      swap4\n      swap3\n      pop\n      pop\n      pop\n      jump\t// out\n        /* \"main.sol\":975:1019  uint256 public constant LIMIT_STAKE_NUM = 80 */\n    tag_37:\n        /* \"main.sol\":1017:1019  80 */\n      0x50\n        /* \"main.sol\":975:1019  uint256 public constant LIMIT_STAKE_NUM = 80 */\n      dup2\n      jump\t// out\n        /* \"main.sol\":868:919  mapping(address => uint256) public nodeStackBalance */\n    tag_42:\n      mstore(0x20, 0x03)\n      dup1\n      0x00\n      mstore\n      keccak256(0x00, 0x40)\n      0x00\n      swap2\n      pop\n      swap1\n      pop\n      sload\n      dup2\n      jump\t// out\n        /* \"main.sol\":831:861  uint256 public totalRequestNum */\n    tag_45:\n      sload(0x02)\n      dup2\n      jump\t// out\n        /* \"main.sol\":791:825  address[] public oracleAddressList */\n    tag_50:\n      0x01\n      dup2\n      dup2\n      sload\n      dup2\n      lt\n      tag_147\n      jumpi\n      0x00\n      dup1\n      revert\n    tag_147:\n      swap1\n      0x00\n      mstore\n      keccak256(0x00, 0x20)\n      add\n      0x00\n      swap2\n      pop\n      sload\n      swap1\n      0x0100\n      exp\n      swap1\n      div\n      0xffffffffffffffffffffffffffffffffffffffff\n      and\n      dup2\n      jump\t// out\n        /* \"main.sol\":1025:1068  uint256 public constant MAX_SEARCH_NUM = 10 */\n    tag_54:\n        /* \"main.sol\":1066:1068  10 */\n      0x0a\n        /* \"main.sol\":1025:1068  uint256 public constant MAX_SEARCH_NUM = 10 */\n      dup2\n      jump\t// out\n        /* \"main.sol\":1309:1729  function registerOracleNode(jobType[] memory job_type_list) public returns (bool) {... */\n    tag_59:\n        /* \"main.sol\":1385:1389  bool */\n      0x00\n        /* \"main.sol\":1017:1019  80 */\n      0x50\n        /* \"main.sol\":1554:1570  nodeStackBalance */\n      0x03\n        /* \"main.sol\":1554:1582  nodeStackBalance[msg.sender] */\n      0x00\n        /* \"main.sol\":1571:1581  msg.sender */\n      caller\n        /* \"main.sol\":1554:1582  nodeStackBalance[msg.sender] */\n      0xffffffffffffffffffffffffffffffffffffffff\n      and\n      0xffffffffffffffffffffffffffffffffffffffff\n      and\n      dup2\n      mstore\n      0x20\n      add\n      swap1\n      dup2\n      mstore\n      0x20\n      add\n      0x00\n      keccak256\n        /* \"main.sol\":1554:1600  nodeStackBalance[msg.sender] = LIMIT_STAKE_NUM */\n      dup2\n      swap1\n      sstore\n      pop\n        /* \"main.sol\":1642:1655  job_type_list */\n      dup2\n        /* \"main.sol\":1610:1627  oracleNodeJobType */\n      0x00\n        /* \"main.sol\":1610:1639  oracleNodeJobType[msg.sender] */\n      0x00\n        /* \"main.sol\":1628:1638  msg.sender */\n      caller\n        /* \"main.sol\":1610:1639  oracleNodeJobType[msg.sender] */\n      0xffffffffffffffffffffffffffffffffffffffff\n      and\n      0xffffffffffffffffffffffffffffffffffffffff\n      and\n      dup2\n      mstore\n      0x20\n      add\n      swap1\n      dup2\n      mstore\n      0x20\n      add\n      0x00\n      keccak256\n        /* \"main.sol\":1610:1655  oracleNodeJobType[msg.sender] = job_type_list */\n      swap1\n      dup1\n      mload\n      swap1\n      0x20\n      add\n      swap1\n      tag_150\n      swap3\n      swap2\n      swap1\n      tag_151\n      jump\t// in\n    tag_150:\n      pop\n        /* \"main.sol\":1665:1682  oracleAddressList */\n      0x01\n        /* \"main.sol\":1688:1698  msg.sender */\n      caller\n        /* \"main.sol\":1665:1699  oracleAddressList.push(msg.sender) */\n      swap1\n      dup1\n      0x01\n      dup2\n      sload\n      add\n      dup1\n      dup3\n      sstore\n      dup1\n      swap2\n      pop\n      pop\n      0x01\n      swap1\n      sub\n      swap1\n      0x00\n      mstore\n      keccak256(0x00, 0x20)\n      add\n      0x00\n      swap1\n      swap2\n      swap1\n      swap2\n      swap1\n      swap2\n      0x0100\n      exp\n      dup2\n      sload\n      dup2\n      0xffffffffffffffffffffffffffffffffffffffff\n      mul\n      not\n      and\n      swap1\n      dup4\n      0xffffffffffffffffffffffffffffffffffffffff\n      and\n      mul\n      or\n      swap1\n      sstore\n      pop\n        /* \"main.sol\":1717:1721  true */\n      0x01\n        /* \"main.sol\":1709:1722  return (true) */\n      swap1\n      pop\n        /* \"main.sol\":1309:1729  function registerOracleNode(jobType[] memory job_type_list) public returns (bool) {... */\n      swap2\n      swap1\n      pop\n      jump\t// out\n        /* \"main.sol\":1074:1118  uint256 public constant LIMIT_FEE_PRICE = 10 */\n    tag_62:\n        /* \"main.sol\":1116:1118  10 */\n      0x0a\n        /* \"main.sol\":1074:1118  uint256 public constant LIMIT_FEE_PRICE = 10 */\n      dup2\n      jump\t// out\n        /* \"main.sol\":3956:4398  function isInReqList(uint256 id, address addr) private view returns (bool) {... */\n    tag_66:\n        /* \"main.sol\":4025:4029  bool */\n      0x00\n        /* \"main.sol\":4067:4068  0 */\n      0x00\n        /* \"main.sol\":4045:4056  requestList */\n      0x04\n        /* \"main.sol\":4045:4060  requestList[id] */\n      0x00\n        /* \"main.sol\":4057:4059  id */\n      dup6\n        /* \"main.sol\":4045:4060  requestList[id] */\n      dup2\n      mstore\n      0x20\n      add\n      swap1\n      dup2\n      mstore\n      0x20\n      add\n      0x00\n      keccak256\n        /* \"main.sol\":4045:4063  requestList[id].id */\n      0x00\n      add\n      sload\n        /* \"main.sol\":4045:4068  requestList[id].id == 0 */\n      sub\n        /* \"main.sol\":4041:4107  if (requestList[id].id == 0) {... */\n      tag_154\n      jumpi\n        /* \"main.sol\":4091:4096  false */\n      0x00\n        /* \"main.sol\":4084:4096  return false */\n      swap1\n      pop\n      jump(tag_153)\n        /* \"main.sol\":4041:4107  if (requestList[id].id == 0) {... */\n    tag_154:\n        /* \"main.sol\":4116:4127  uint256 num */\n      0x00\n        /* \"main.sol\":4130:4141  requestList */\n      0x04\n        /* \"main.sol\":4130:4145  requestList[id] */\n      0x00\n        /* \"main.sol\":4142:4144  id */\n      dup6\n        /* \"main.sol\":4130:4145  requestList[id] */\n      dup2\n      mstore\n      0x20\n      add\n      swap1\n      dup2\n      mstore\n      0x20\n      add\n      0x00\n      keccak256\n        /* \"main.sol\":4130:4154  requestList[id].givenNum */\n      0x07\n      add\n      sload\n        /* \"main.sol\":4116:4154  uint256 num = requestList[id].givenNum */\n      swap1\n      pop\n        /* \"main.sol\":4175:4176  0 */\n      0x00\n        /* \"main.sol\":4168:4171  num */\n      dup2\n        /* \"main.sol\":4168:4176  num == 0 */\n      sub\n        /* \"main.sol\":4164:4215  if (num == 0) {... */\n      tag_155\n      jumpi\n        /* \"main.sol\":4199:4204  false */\n      0x00\n        /* \"main.sol\":4192:4204  return false */\n      swap2\n      pop\n      pop\n      jump(tag_153)\n        /* \"main.sol\":4164:4215  if (num == 0) {... */\n    tag_155:\n        /* \"main.sol\":4229:4238  uint256 i */\n      0x00\n        /* \"main.sol\":4241:4242  0 */\n      0x00\n        /* \"main.sol\":4229:4242  uint256 i = 0 */\n      swap1\n      pop\n        /* \"main.sol\":4224:4370  for (uint256 i = 0; i < num; i++) {... */\n    tag_156:\n        /* \"main.sol\":4248:4251  num */\n      dup2\n        /* \"main.sol\":4244:4245  i */\n      dup2\n        /* \"main.sol\":4244:4251  i < num */\n      lt\n        /* \"main.sol\":4224:4370  for (uint256 i = 0; i < num; i++) {... */\n      iszero\n      tag_157\n      jumpi\n        /* \"main.sol\":4310:4314  addr */\n      dup4\n        /* \"main.sol\":4276:4314  requestList[id].oracleNodes[i] == addr */\n      0xffffffffffffffffffffffffffffffffffffffff\n      and\n        /* \"main.sol\":4276:4287  requestList */\n      0x04\n        /* \"main.sol\":4276:4291  requestList[id] */\n      0x00\n        /* \"main.sol\":4288:4290  id */\n      dup8\n        /* \"main.sol\":4276:4291  requestList[id] */\n      dup2\n      mstore\n      0x20\n      add\n      swap1\n      dup2\n      mstore\n      0x20\n      add\n      0x00\n      keccak256\n        /* \"main.sol\":4276:4303  requestList[id].oracleNodes */\n      0x06\n      add\n        /* \"main.sol\":4304:4305  i */\n      dup3\n        /* \"main.sol\":4276:4306  requestList[id].oracleNodes[i] */\n      dup2\n      sload\n      dup2\n      lt\n      tag_159\n      jumpi\n      tag_160\n      tag_70\n      jump\t// in\n    tag_160:\n    tag_159:\n      swap1\n      0x00\n      mstore\n      keccak256(0x00, 0x20)\n      add\n      0x00\n      swap1\n      sload\n      swap1\n      0x0100\n      exp\n      swap1\n      div\n      0xffffffffffffffffffffffffffffffffffffffff\n      and\n        /* \"main.sol\":4276:4314  requestList[id].oracleNodes[i] == addr */\n      0xffffffffffffffffffffffffffffffffffffffff\n      and\n      sub\n        /* \"main.sol\":4272:4360  if (requestList[id].oracleNodes[i] == addr) {... */\n      tag_162\n      jumpi\n        /* \"main.sol\":4341:4345  true */\n      0x01\n        /* \"main.sol\":4334:4345  return true */\n      swap3\n      pop\n      pop\n      pop\n      jump(tag_153)\n        /* \"main.sol\":4272:4360  if (requestList[id].oracleNodes[i] == addr) {... */\n    tag_162:\n        /* \"main.sol\":4253:4256  i++ */\n      dup1\n      dup1\n      0x01\n      add\n      swap2\n      pop\n      pop\n        /* \"main.sol\":4224:4370  for (uint256 i = 0; i < num; i++) {... */\n      jump(tag_156)\n    tag_157:\n      pop\n        /* \"main.sol\":4386:4391  false */\n      0x00\n        /* \"main.sol\":4379:4391  return false */\n      swap2\n      pop\n      pop\n        /* \"main.sol\":3956:4398  function isInReqList(uint256 id, address addr) private view returns (bool) {... */\n    tag_153:\n      swap3\n      swap2\n      pop\n      pop\n      jump\t// out\n        /* \"main.sol\":4768:5702  function evaluateNodePerf(... */\n    tag_99:\n        /* \"main.sol\":4892:4896  bool */\n      0x00\n        /* \"main.sol\":4913:4922  uint256 i */\n      0x00\n        /* \"main.sol\":4925:4926  0 */\n      0x00\n        /* \"main.sol\":4913:4926  uint256 i = 0 */\n      swap1\n      pop\n        /* \"main.sol\":4908:5675  for (uint256 i = 0; i < MAX_SEARCH_NUM; i++) {... */\n    tag_164:\n        /* \"main.sol\":1066:1068  10 */\n      0x0a\n        /* \"main.sol\":4928:4929  i */\n      dup2\n        /* \"main.sol\":4928:4946  i < MAX_SEARCH_NUM */\n      lt\n        /* \"main.sol\":4908:5675  for (uint256 i = 0; i < MAX_SEARCH_NUM; i++) {... */\n      iszero\n      tag_165\n      jumpi\n        /* \"main.sol\":4967:4983  uint256 node_res */\n      0x00\n        /* \"main.sol\":4986:4997  requestList */\n      0x04\n        /* \"main.sol\":4986:5001  requestList[id] */\n      0x00\n        /* \"main.sol\":4998:5000  id */\n      dup8\n        /* \"main.sol\":4986:5001  requestList[id] */\n      dup2\n      mstore\n      0x20\n      add\n      swap1\n      dup2\n      mstore\n      0x20\n      add\n      0x00\n      keccak256\n        /* \"main.sol\":4986:5011  requestList[id].searchRes */\n      0x05\n      add\n        /* \"main.sol\":5012:5013  i */\n      dup3\n        /* \"main.sol\":4986:5014  requestList[id].searchRes[i] */\n      dup2\n      sload\n      dup2\n      lt\n      tag_167\n      jumpi\n      tag_168\n      tag_70\n      jump\t// in\n    tag_168:\n    tag_167:\n      swap1\n      0x00\n      mstore\n      keccak256(0x00, 0x20)\n      add\n      sload\n        /* \"main.sol\":4967:5014  uint256 node_res = requestList[id].searchRes[i] */\n      swap1\n      pop\n        /* \"main.sol\":5058:5066  node_res */\n      dup1\n        /* \"main.sol\":5047:5054  std_num */\n      dup5\n        /* \"main.sol\":5032:5044  final_result */\n      dup7\n        /* \"main.sol\":5032:5054  final_result - std_num */\n      tag_170\n      swap2\n      swap1\n      tag_104\n      jump\t// in\n    tag_170:\n        /* \"main.sol\":5032:5066  final_result - std_num >= node_res */\n      lt\n      iszero\n        /* \"main.sol\":5032:5104  final_result - std_num >= node_res || final_result + std_num <= node_res */\n      dup1\n      tag_171\n      jumpi\n      pop\n        /* \"main.sol\":5096:5104  node_res */\n      dup1\n        /* \"main.sol\":5085:5092  std_num */\n      dup5\n        /* \"main.sol\":5070:5082  final_result */\n      dup7\n        /* \"main.sol\":5070:5092  final_result + std_num */\n      tag_172\n      swap2\n      swap1\n      tag_87\n      jump\t// in\n    tag_172:\n        /* \"main.sol\":5070:5104  final_result + std_num <= node_res */\n      gt\n      iszero\n        /* \"main.sol\":5032:5104  final_result - std_num >= node_res || final_result + std_num <= node_res */\n    tag_171:\n        /* \"main.sol\":5028:5236  if (final_result - std_num >= node_res || final_result + std_num <= node_res) {... */\n      iszero\n      tag_173\n      jumpi\n        /* \"main.sol\":1163:1165  40 */\n      0x28\n        /* \"main.sol\":5156:5172  nodeStackBalance */\n      0x03\n        /* \"main.sol\":5156:5205  nodeStackBalance[requestList[id].oracles_list[i]] */\n      0x00\n        /* \"main.sol\":5173:5184  requestList */\n      0x04\n        /* \"main.sol\":5173:5188  requestList[id] */\n      0x00\n        /* \"main.sol\":5185:5187  id */\n      dup11\n        /* \"main.sol\":5173:5188  requestList[id] */\n      dup2\n      mstore\n      0x20\n      add\n      swap1\n      dup2\n      mstore\n      0x20\n      add\n      0x00\n      keccak256\n        /* \"main.sol\":5173:5201  requestList[id].oracles_list */\n      0x03\n      add\n        /* \"main.sol\":5202:5203  i */\n      dup6\n        /* \"main.sol\":5173:5204  requestList[id].oracles_list[i] */\n      dup2\n      sload\n      dup2\n      lt\n      tag_174\n      jumpi\n      tag_175\n      tag_70\n      jump\t// in\n    tag_175:\n    tag_174:\n      swap1\n      0x00\n      mstore\n      keccak256(0x00, 0x20)\n      add\n      0x00\n      swap1\n      sload\n      swap1\n      0x0100\n      exp\n      swap1\n      div\n      0xffffffffffffffffffffffffffffffffffffffff\n      and\n        /* \"main.sol\":5156:5205  nodeStackBalance[requestList[id].oracles_list[i]] */\n      0xffffffffffffffffffffffffffffffffffffffff\n      and\n      0xffffffffffffffffffffffffffffffffffffffff\n      and\n      dup2\n      mstore\n      0x20\n      add\n      swap1\n      dup2\n      mstore\n      0x20\n      add\n      0x00\n      keccak256\n      0x00\n        /* \"main.sol\":5156:5221  nodeStackBalance[requestList[id].oracles_list[i]] -= DEDUCE_PRICE */\n      dup3\n      dup3\n      sload\n      tag_177\n      swap2\n      swap1\n      tag_104\n      jump\t// in\n    tag_177:\n      swap3\n      pop\n      pop\n      dup2\n      swap1\n      sstore\n      pop\n        /* \"main.sol\":5028:5236  if (final_result - std_num >= node_res || final_result + std_num <= node_res) {... */\n    tag_173:\n        /* \"main.sol\":5334:5335  0 */\n      0x00\n        /* \"main.sol\":5281:5297  nodeStackBalance */\n      0x03\n        /* \"main.sol\":5281:5330  nodeStackBalance[requestList[id].oracles_list[i]] */\n      0x00\n        /* \"main.sol\":5298:5309  requestList */\n      0x04\n        /* \"main.sol\":5298:5313  requestList[id] */\n      0x00\n        /* \"main.sol\":5310:5312  id */\n      dup11\n        /* \"main.sol\":5298:5313  requestList[id] */\n      dup2\n      mstore\n      0x20\n      add\n      swap1\n      dup2\n      mstore\n      0x20\n      add\n      0x00\n      keccak256\n        /* \"main.sol\":5298:5326  requestList[id].oracles_list */\n      0x03\n      add\n        /* \"main.sol\":5327:5328  i */\n      dup6\n        /* \"main.sol\":5298:5329  requestList[id].oracles_list[i] */\n      dup2\n      sload\n      dup2\n      lt\n      tag_178\n      jumpi\n      tag_179\n      tag_70\n      jump\t// in\n    tag_179:\n    tag_178:\n      swap1\n      0x00\n      mstore\n      keccak256(0x00, 0x20)\n      add\n      0x00\n      swap1\n      sload\n      swap1\n      0x0100\n      exp\n      swap1\n      div\n      0xffffffffffffffffffffffffffffffffffffffff\n      and\n        /* \"main.sol\":5281:5330  nodeStackBalance[requestList[id].oracles_list[i]] */\n      0xffffffffffffffffffffffffffffffffffffffff\n      and\n      0xffffffffffffffffffffffffffffffffffffffff\n      and\n      dup2\n      mstore\n      0x20\n      add\n      swap1\n      dup2\n      mstore\n      0x20\n      add\n      0x00\n      keccak256\n      sload\n        /* \"main.sol\":5281:5335  nodeStackBalance[requestList[id].oracles_list[i]] <= 0 */\n      gt\n        /* \"main.sol\":5277:5665  if (nodeStackBalance[requestList[id].oracles_list[i]] <= 0) {... */\n      tag_181\n      jumpi\n        /* \"main.sol\":5355:5372  address node_name */\n      0x00\n        /* \"main.sol\":5375:5386  requestList */\n      0x04\n        /* \"main.sol\":5375:5390  requestList[id] */\n      0x00\n        /* \"main.sol\":5387:5389  id */\n      dup9\n        /* \"main.sol\":5375:5390  requestList[id] */\n      dup2\n      mstore\n      0x20\n      add\n      swap1\n      dup2\n      mstore\n      0x20\n      add\n      0x00\n      keccak256\n        /* \"main.sol\":5375:5403  requestList[id].oracles_list */\n      0x03\n      add\n        /* \"main.sol\":5404:5405  i */\n      dup4\n        /* \"main.sol\":5375:5406  requestList[id].oracles_list[i] */\n      dup2\n      sload\n      dup2\n      lt\n      tag_182\n      jumpi\n      tag_183\n      tag_70\n      jump\t// in\n    tag_183:\n    tag_182:\n      swap1\n      0x00\n      mstore\n      keccak256(0x00, 0x20)\n      add\n      0x00\n      swap1\n      sload\n      swap1\n      0x0100\n      exp\n      swap1\n      div\n      0xffffffffffffffffffffffffffffffffffffffff\n      and\n        /* \"main.sol\":5355:5406  address node_name = requestList[id].oracles_list[i] */\n      swap1\n      pop\n        /* \"main.sol\":5429:5438  uint256 j */\n      0x00\n        /* \"main.sol\":5441:5442  0 */\n      0x00\n        /* \"main.sol\":5429:5442  uint256 j = 0 */\n      swap1\n      pop\n        /* \"main.sol\":5424:5651  for (uint256 j = 0; j < oracleAddressList.length; j++) {... */\n    tag_185:\n        /* \"main.sol\":5448:5465  oracleAddressList */\n      0x01\n        /* \"main.sol\":5448:5472  oracleAddressList.length */\n      dup1\n      sload\n      swap1\n      pop\n        /* \"main.sol\":5444:5445  j */\n      dup2\n        /* \"main.sol\":5444:5472  j < oracleAddressList.length */\n      lt\n        /* \"main.sol\":5424:5651  for (uint256 j = 0; j < oracleAddressList.length; j++) {... */\n      iszero\n      tag_186\n      jumpi\n        /* \"main.sol\":5529:5538  node_name */\n      dup2\n        /* \"main.sol\":5505:5538  oracleAddressList[j] == node_name */\n      0xffffffffffffffffffffffffffffffffffffffff\n      and\n        /* \"main.sol\":5505:5522  oracleAddressList */\n      0x01\n        /* \"main.sol\":5523:5524  j */\n      dup3\n        /* \"main.sol\":5505:5525  oracleAddressList[j] */\n      dup2\n      sload\n      dup2\n      lt\n      tag_188\n      jumpi\n      tag_189\n      tag_70\n      jump\t// in\n    tag_189:\n    tag_188:\n      swap1\n      0x00\n      mstore\n      keccak256(0x00, 0x20)\n      add\n      0x00\n      swap1\n      sload\n      swap1\n      0x0100\n      exp\n      swap1\n      div\n      0xffffffffffffffffffffffffffffffffffffffff\n      and\n        /* \"main.sol\":5505:5538  oracleAddressList[j] == node_name */\n      0xffffffffffffffffffffffffffffffffffffffff\n      and\n      sub\n        /* \"main.sol\":5501:5633  if (oracleAddressList[j] == node_name) {... */\n      tag_191\n      jumpi\n        /* \"main.sol\":5566:5579  removeItem(j) */\n      tag_192\n        /* \"main.sol\":5577:5578  j */\n      dup2\n        /* \"main.sol\":5566:5576  removeItem */\n      tag_193\n        /* \"main.sol\":5566:5579  removeItem(j) */\n      jump\t// in\n    tag_192:\n      pop\n        /* \"main.sol\":5605:5610  break */\n      jump(tag_186)\n        /* \"main.sol\":5501:5633  if (oracleAddressList[j] == node_name) {... */\n    tag_191:\n        /* \"main.sol\":5474:5477  j++ */\n      dup1\n      dup1\n      0x01\n      add\n      swap2\n      pop\n      pop\n        /* \"main.sol\":5424:5651  for (uint256 j = 0; j < oracleAddressList.length; j++) {... */\n      jump(tag_185)\n    tag_186:\n      pop\n        /* \"main.sol\":5337:5665  {... */\n      pop\n        /* \"main.sol\":5277:5665  if (nodeStackBalance[requestList[id].oracles_list[i]] <= 0) {... */\n    tag_181:\n        /* \"main.sol\":4953:5675  {... */\n      pop\n        /* \"main.sol\":4948:4951  i++ */\n      dup1\n      dup1\n      0x01\n      add\n      swap2\n      pop\n      pop\n        /* \"main.sol\":4908:5675  for (uint256 i = 0; i < MAX_SEARCH_NUM; i++) {... */\n      jump(tag_164)\n    tag_165:\n      pop\n        /* \"main.sol\":5691:5695  true */\n      0x01\n        /* \"main.sol\":5684:5695  return true */\n      swap1\n      pop\n        /* \"main.sol\":4768:5702  function evaluateNodePerf(... */\n      swap4\n      swap3\n      pop\n      pop\n      pop\n      jump\t// out\n        /* \"main.sol\":1735:2970  function calculateReqNode(jobType job_type) private view returns (address[] memory) {... */\n    tag_124:\n        /* \"main.sol\":1801:1817  address[] memory */\n      0x60\n        /* \"main.sol\":1829:1846  uint256 num_count */\n      0x00\n        /* \"main.sol\":1849:1850  0 */\n      0x00\n        /* \"main.sol\":1829:1850  uint256 num_count = 0 */\n      swap1\n      pop\n        /* \"main.sol\":1865:1874  uint256 i */\n      0x00\n        /* \"main.sol\":1877:1878  0 */\n      0x00\n        /* \"main.sol\":1865:1878  uint256 i = 0 */\n      swap1\n      pop\n        /* \"main.sol\":1860:2268  for (uint256 i = 0; i < oracleAddressList.length; i++) {... */\n    tag_195:\n        /* \"main.sol\":1884:1901  oracleAddressList */\n      0x01\n        /* \"main.sol\":1884:1908  oracleAddressList.length */\n      dup1\n      sload\n      swap1\n      pop\n        /* \"main.sol\":1880:1881  i */\n      dup2\n        /* \"main.sol\":1880:1908  i < oracleAddressList.length */\n      lt\n        /* \"main.sol\":1860:2268  for (uint256 i = 0; i < oracleAddressList.length; i++) {... */\n      iszero\n      tag_196\n      jumpi\n        /* \"main.sol\":1929:1948  address oracle_addr */\n      0x00\n        /* \"main.sol\":1951:1968  oracleAddressList */\n      0x01\n        /* \"main.sol\":1969:1970  i */\n      dup3\n        /* \"main.sol\":1951:1971  oracleAddressList[i] */\n      dup2\n      sload\n      dup2\n      lt\n      tag_198\n      jumpi\n      tag_199\n      tag_70\n      jump\t// in\n    tag_199:\n    tag_198:\n      swap1\n      0x00\n      mstore\n      keccak256(0x00, 0x20)\n      add\n      0x00\n      swap1\n      sload\n      swap1\n      0x0100\n      exp\n      swap1\n      div\n      0xffffffffffffffffffffffffffffffffffffffff\n      and\n        /* \"main.sol\":1929:1971  address oracle_addr = oracleAddressList[i] */\n      swap1\n      pop\n        /* \"main.sol\":1985:2015  jobType[] memory job_type_list */\n      0x00\n        /* \"main.sol\":2018:2035  oracleNodeJobType */\n      0x00\n        /* \"main.sol\":2018:2048  oracleNodeJobType[oracle_addr] */\n      0x00\n        /* \"main.sol\":2036:2047  oracle_addr */\n      dup4\n        /* \"main.sol\":2018:2048  oracleNodeJobType[oracle_addr] */\n      0xffffffffffffffffffffffffffffffffffffffff\n      and\n      0xffffffffffffffffffffffffffffffffffffffff\n      and\n      dup2\n      mstore\n      0x20\n      add\n      swap1\n      dup2\n      mstore\n      0x20\n      add\n      0x00\n      keccak256\n        /* \"main.sol\":1985:2048  jobType[] memory job_type_list = oracleNodeJobType[oracle_addr] */\n      dup1\n      sload\n      dup1\n      0x20\n      mul\n      0x20\n      add\n      mload(0x40)\n      swap1\n      dup2\n      add\n      0x40\n      mstore\n      dup1\n      swap3\n      swap2\n      swap1\n      dup2\n      dup2\n      mstore\n      0x20\n      add\n      dup3\n      dup1\n      sload\n      dup1\n      iszero\n      tag_201\n      jumpi\n      0x20\n      mul\n      dup3\n      add\n      swap2\n      swap1\n      0x00\n      mstore\n      keccak256(0x00, 0x20)\n      swap1\n      0x00\n      swap1\n    tag_202:\n      dup3\n      dup3\n      swap1\n      sload\n      swap1\n      0x0100\n      exp\n      swap1\n      div\n      0xff\n      and\n      0x02\n      dup2\n      gt\n      iszero\n      tag_203\n      jumpi\n      tag_204\n      tag_128\n      jump\t// in\n    tag_204:\n    tag_203:\n      dup2\n      mstore\n      0x20\n      add\n      swap1\n      0x01\n      add\n      swap1\n      0x20\n      dup3\n      0x00\n      add\n      div\n      swap3\n      dup4\n      add\n      swap3\n      0x01\n      sub\n      dup3\n      mul\n      swap2\n      pop\n      dup1\n      dup5\n      gt\n      tag_202\n      jumpi\n      swap1\n      pop\n    tag_201:\n      pop\n      pop\n      pop\n      pop\n      pop\n      swap1\n      pop\n        /* \"main.sol\":2067:2076  uint256 j */\n      0x00\n        /* \"main.sol\":2079:2080  0 */\n      0x00\n        /* \"main.sol\":2067:2080  uint256 j = 0 */\n      swap1\n      pop\n        /* \"main.sol\":2062:2258  for (uint256 j = 0; j < job_type_list.length; j++) {... */\n    tag_205:\n        /* \"main.sol\":2086:2099  job_type_list */\n      dup2\n        /* \"main.sol\":2086:2106  job_type_list.length */\n      mload\n        /* \"main.sol\":2082:2083  j */\n      dup2\n        /* \"main.sol\":2082:2106  j < job_type_list.length */\n      lt\n        /* \"main.sol\":2062:2258  for (uint256 j = 0; j < job_type_list.length; j++) {... */\n      iszero\n      tag_206\n      jumpi\n        /* \"main.sol\":2155:2163  job_type */\n      dup7\n        /* \"main.sol\":2135:2163  job_type_list[j] == job_type */\n      0x02\n      dup2\n      gt\n      iszero\n      tag_208\n      jumpi\n      tag_209\n      tag_128\n      jump\t// in\n    tag_209:\n    tag_208:\n        /* \"main.sol\":2135:2148  job_type_list */\n      dup3\n        /* \"main.sol\":2149:2150  j */\n      dup3\n        /* \"main.sol\":2135:2151  job_type_list[j] */\n      dup2\n      mload\n      dup2\n      lt\n      tag_210\n      jumpi\n      tag_211\n      tag_70\n      jump\t// in\n    tag_211:\n    tag_210:\n      0x20\n      mul\n      0x20\n      add\n      add\n      mload\n        /* \"main.sol\":2135:2163  job_type_list[j] == job_type */\n      0x02\n      dup2\n      gt\n      iszero\n      tag_212\n      jumpi\n      tag_213\n      tag_128\n      jump\t// in\n    tag_213:\n    tag_212:\n      sub\n        /* \"main.sol\":2131:2244  if (job_type_list[j] == job_type) {... */\n      tag_214\n      jumpi\n        /* \"main.sol\":2187:2198  num_count++ */\n      dup5\n      dup1\n      tag_215\n      swap1\n      tag_76\n      jump\t// in\n    tag_215:\n      swap6\n      pop\n      pop\n        /* \"main.sol\":2220:2225  break */\n      jump(tag_206)\n        /* \"main.sol\":2131:2244  if (job_type_list[j] == job_type) {... */\n    tag_214:\n        /* \"main.sol\":2108:2111  j++ */\n      dup1\n      dup1\n      0x01\n      add\n      swap2\n      pop\n      pop\n        /* \"main.sol\":2062:2258  for (uint256 j = 0; j < job_type_list.length; j++) {... */\n      jump(tag_205)\n    tag_206:\n      pop\n        /* \"main.sol\":1915:2268  {... */\n      pop\n      pop\n        /* \"main.sol\":1910:1913  i++ */\n      dup1\n      dup1\n      0x01\n      add\n      swap2\n      pop\n      pop\n        /* \"main.sol\":1860:2268  for (uint256 i = 0; i < oracleAddressList.length; i++) {... */\n      jump(tag_195)\n    tag_196:\n      pop\n        /* \"main.sol\":2278:2309  address[] memory node_addr_list */\n      0x00\n        /* \"main.sol\":2326:2335  num_count */\n      dup2\n        /* \"main.sol\":2312:2336  new address[](num_count) */\n      0xffffffffffffffff\n      dup2\n      gt\n      iszero\n      tag_216\n      jumpi\n      tag_217\n      tag_131\n      jump\t// in\n    tag_217:\n    tag_216:\n      mload(0x40)\n      swap1\n      dup1\n      dup3\n      mstore\n      dup1\n      0x20\n      mul\n      0x20\n      add\n      dup3\n      add\n      0x40\n      mstore\n      dup1\n      iszero\n      tag_218\n      jumpi\n      dup2\n      0x20\n      add\n      0x20\n      dup3\n      mul\n      dup1\n      calldatasize\n      dup4\n      calldatacopy\n      dup1\n      dup3\n      add\n      swap2\n      pop\n      pop\n      swap1\n      pop\n    tag_218:\n      pop\n        /* \"main.sol\":2278:2336  address[] memory node_addr_list = new address[](num_count) */\n      swap1\n      pop\n        /* \"main.sol\":2346:2359  uint256 index */\n      0x00\n        /* \"main.sol\":2362:2363  0 */\n      0x00\n        /* \"main.sol\":2346:2363  uint256 index = 0 */\n      swap1\n      pop\n        /* \"main.sol\":2379:2388  uint256 i */\n      0x00\n        /* \"main.sol\":2391:2392  0 */\n      0x00\n        /* \"main.sol\":2379:2392  uint256 i = 0 */\n      swap1\n      pop\n        /* \"main.sol\":2374:2932  for (uint256 i = 0; i < oracleAddressList.length; i++) {... */\n    tag_219:\n        /* \"main.sol\":2398:2415  oracleAddressList */\n      0x01\n        /* \"main.sol\":2398:2422  oracleAddressList.length */\n      dup1\n      sload\n      swap1\n      pop\n        /* \"main.sol\":2394:2395  i */\n      dup2\n        /* \"main.sol\":2394:2422  i < oracleAddressList.length */\n      lt\n        /* \"main.sol\":2374:2932  for (uint256 i = 0; i < oracleAddressList.length; i++) {... */\n      iszero\n      tag_220\n      jumpi\n        /* \"main.sol\":2443:2462  address oracle_addr */\n      0x00\n        /* \"main.sol\":2465:2482  oracleAddressList */\n      0x01\n        /* \"main.sol\":2483:2484  i */\n      dup3\n        /* \"main.sol\":2465:2485  oracleAddressList[i] */\n      dup2\n      sload\n      dup2\n      lt\n      tag_222\n      jumpi\n      tag_223\n      tag_70\n      jump\t// in\n    tag_223:\n    tag_222:\n      swap1\n      0x00\n      mstore\n      keccak256(0x00, 0x20)\n      add\n      0x00\n      swap1\n      sload\n      swap1\n      0x0100\n      exp\n      swap1\n      div\n      0xffffffffffffffffffffffffffffffffffffffff\n      and\n        /* \"main.sol\":2443:2485  address oracle_addr = oracleAddressList[i] */\n      swap1\n      pop\n        /* \"main.sol\":2499:2529  jobType[] memory job_type_list */\n      0x00\n        /* \"main.sol\":2532:2549  oracleNodeJobType */\n      0x00\n        /* \"main.sol\":2532:2562  oracleNodeJobType[oracle_addr] */\n      0x00\n        /* \"main.sol\":2550:2561  oracle_addr */\n      dup4\n        /* \"main.sol\":2532:2562  oracleNodeJobType[oracle_addr] */\n      0xffffffffffffffffffffffffffffffffffffffff\n      and\n      0xffffffffffffffffffffffffffffffffffffffff\n      and\n      dup2\n      mstore\n      0x20\n      add\n      swap1\n      dup2\n      mstore\n      0x20\n      add\n      0x00\n      keccak256\n        /* \"main.sol\":2499:2562  jobType[] memory job_type_list = oracleNodeJobType[oracle_addr] */\n      dup1\n      sload\n      dup1\n      0x20\n      mul\n      0x20\n      add\n      mload(0x40)\n      swap1\n      dup2\n      add\n      0x40\n      mstore\n      dup1\n      swap3\n      swap2\n      swap1\n      dup2\n      dup2\n      mstore\n      0x20\n      add\n      dup3\n      dup1\n      sload\n      dup1\n      iszero\n      tag_225\n      jumpi\n      0x20\n      mul\n      dup3\n      add\n      swap2\n      swap1\n      0x00\n      mstore\n      keccak256(0x00, 0x20)\n      swap1\n      0x00\n      swap1\n    tag_226:\n      dup3\n      dup3\n      swap1\n      sload\n      swap1\n      0x0100\n      exp\n      swap1\n      div\n      0xff\n      and\n      0x02\n      dup2\n      gt\n      iszero\n      tag_227\n      jumpi\n      tag_228\n      tag_128\n      jump\t// in\n    tag_228:\n    tag_227:\n      dup2\n      mstore\n      0x20\n      add\n      swap1\n      0x01\n      add\n      swap1\n      0x20\n      dup3\n      0x00\n      add\n      div\n      swap3\n      dup4\n      add\n      swap3\n      0x01\n      sub\n      dup3\n      mul\n      swap2\n      pop\n      dup1\n      dup5\n      gt\n      tag_226\n      jumpi\n      swap1\n      pop\n    tag_225:\n      pop\n      pop\n      pop\n      pop\n      pop\n      swap1\n      pop\n        /* \"main.sol\":2576:2586  bool isJob */\n      0x00\n        /* \"main.sol\":2589:2594  false */\n      0x00\n        /* \"main.sol\":2576:2594  bool isJob = false */\n      swap1\n      pop\n        /* \"main.sol\":2613:2622  uint256 j */\n      0x00\n        /* \"main.sol\":2625:2626  0 */\n      0x00\n        /* \"main.sol\":2613:2626  uint256 j = 0 */\n      swap1\n      pop\n        /* \"main.sol\":2608:2805  for (uint256 j = 0; j < job_type_list.length; j++) {... */\n    tag_229:\n        /* \"main.sol\":2632:2645  job_type_list */\n      dup3\n        /* \"main.sol\":2632:2652  job_type_list.length */\n      mload\n        /* \"main.sol\":2628:2629  j */\n      dup2\n        /* \"main.sol\":2628:2652  j < job_type_list.length */\n      lt\n        /* \"main.sol\":2608:2805  for (uint256 j = 0; j < job_type_list.length; j++) {... */\n      iszero\n      tag_230\n      jumpi\n        /* \"main.sol\":2701:2709  job_type */\n      dup10\n        /* \"main.sol\":2681:2709  job_type_list[j] == job_type */\n      0x02\n      dup2\n      gt\n      iszero\n      tag_232\n      jumpi\n      tag_233\n      tag_128\n      jump\t// in\n    tag_233:\n    tag_232:\n        /* \"main.sol\":2681:2694  job_type_list */\n      dup4\n        /* \"main.sol\":2695:2696  j */\n      dup3\n        /* \"main.sol\":2681:2697  job_type_list[j] */\n      dup2\n      mload\n      dup2\n      lt\n      tag_234\n      jumpi\n      tag_235\n      tag_70\n      jump\t// in\n    tag_235:\n    tag_234:\n      0x20\n      mul\n      0x20\n      add\n      add\n      mload\n        /* \"main.sol\":2681:2709  job_type_list[j] == job_type */\n      0x02\n      dup2\n      gt\n      iszero\n      tag_236\n      jumpi\n      tag_237\n      tag_128\n      jump\t// in\n    tag_237:\n    tag_236:\n      sub\n        /* \"main.sol\":2677:2791  if (job_type_list[j] == job_type) {... */\n      tag_238\n      jumpi\n        /* \"main.sol\":2741:2745  true */\n      0x01\n        /* \"main.sol\":2733:2745  isJob = true */\n      swap2\n      pop\n        /* \"main.sol\":2767:2772  break */\n      jump(tag_230)\n        /* \"main.sol\":2677:2791  if (job_type_list[j] == job_type) {... */\n    tag_238:\n        /* \"main.sol\":2654:2657  j++ */\n      dup1\n      dup1\n      0x01\n      add\n      swap2\n      pop\n      pop\n        /* \"main.sol\":2608:2805  for (uint256 j = 0; j < job_type_list.length; j++) {... */\n      jump(tag_229)\n    tag_230:\n      pop\n        /* \"main.sol\":2822:2827  isJob */\n      dup1\n        /* \"main.sol\":2818:2922  if (isJob) {... */\n      iszero\n      tag_239\n      jumpi\n        /* \"main.sol\":2871:2882  oracle_addr */\n      dup3\n        /* \"main.sol\":2847:2861  node_addr_list */\n      dup7\n        /* \"main.sol\":2862:2867  index */\n      dup7\n        /* \"main.sol\":2847:2868  node_addr_list[index] */\n      dup2\n      mload\n      dup2\n      lt\n      tag_240\n      jumpi\n      tag_241\n      tag_70\n      jump\t// in\n    tag_241:\n    tag_240:\n      0x20\n      mul\n      0x20\n      add\n      add\n        /* \"main.sol\":2847:2882  node_addr_list[index] = oracle_addr */\n      swap1\n      0xffffffffffffffffffffffffffffffffffffffff\n      and\n      swap1\n      dup2\n      0xffffffffffffffffffffffffffffffffffffffff\n      and\n      dup2\n      mstore\n      pop\n      pop\n        /* \"main.sol\":2900:2907  index++ */\n      dup5\n      dup1\n      tag_242\n      swap1\n      tag_76\n      jump\t// in\n    tag_242:\n      swap6\n      pop\n      pop\n        /* \"main.sol\":2818:2922  if (isJob) {... */\n    tag_239:\n        /* \"main.sol\":2429:2932  {... */\n      pop\n      pop\n      pop\n        /* \"main.sol\":2424:2427  i++ */\n      dup1\n      dup1\n      0x01\n      add\n      swap2\n      pop\n      pop\n        /* \"main.sol\":2374:2932  for (uint256 i = 0; i < oracleAddressList.length; i++) {... */\n      jump(tag_219)\n    tag_220:\n      pop\n        /* \"main.sol\":2949:2963  node_addr_list */\n      dup2\n        /* \"main.sol\":2942:2963  return node_addr_list */\n      swap4\n      pop\n      pop\n      pop\n      pop\n        /* \"main.sol\":1735:2970  function calculateReqNode(jobType job_type) private view returns (address[] memory) {... */\n      swap2\n      swap1\n      pop\n      jump\t// out\n        /* \"main.sol\":4447:4724  function removeItem(uint256 index) private returns (bool) {... */\n    tag_193:\n        /* \"main.sol\":4499:4503  bool */\n      0x00\n        /* \"main.sol\":4531:4548  oracleAddressList */\n      0x01\n        /* \"main.sol\":4531:4555  oracleAddressList.length */\n      dup1\n      sload\n      swap1\n      pop\n        /* \"main.sol\":4523:4528  index */\n      dup3\n        /* \"main.sol\":4523:4555  index < oracleAddressList.length */\n      lt\n        /* \"main.sol\":4515:4579  require(index < oracleAddressList.length, \"index out of bounds\") */\n      tag_244\n      jumpi\n      mload(0x40)\n      0x08c379a000000000000000000000000000000000000000000000000000000000\n      dup2\n      mstore\n      0x04\n      add\n      tag_245\n      swap1\n      tag_246\n      jump\t// in\n    tag_245:\n      mload(0x40)\n      dup1\n      swap2\n      sub\n      swap1\n      revert\n    tag_244:\n        /* \"main.sol\":4616:4633  oracleAddressList */\n      0x01\n        /* \"main.sol\":4661:4662  1 */\n      dup1\n        /* \"main.sol\":4634:4651  oracleAddressList */\n      dup1\n        /* \"main.sol\":4634:4658  oracleAddressList.length */\n      dup1\n      sload\n      swap1\n      pop\n        /* \"main.sol\":4634:4662  oracleAddressList.length - 1 */\n      tag_247\n      swap2\n      swap1\n      tag_104\n      jump\t// in\n    tag_247:\n        /* \"main.sol\":4616:4663  oracleAddressList[oracleAddressList.length - 1] */\n      dup2\n      sload\n      dup2\n      lt\n      tag_248\n      jumpi\n      tag_249\n      tag_70\n      jump\t// in\n    tag_249:\n    tag_248:\n      swap1\n      0x00\n      mstore\n      keccak256(0x00, 0x20)\n      add\n      0x00\n      swap1\n      sload\n      swap1\n      0x0100\n      exp\n      swap1\n      div\n      0xffffffffffffffffffffffffffffffffffffffff\n      and\n        /* \"main.sol\":4589:4606  oracleAddressList */\n      0x01\n        /* \"main.sol\":4607:4612  index */\n      dup4\n        /* \"main.sol\":4589:4613  oracleAddressList[index] */\n      dup2\n      sload\n      dup2\n      lt\n      tag_251\n      jumpi\n      tag_252\n      tag_70\n      jump\t// in\n    tag_252:\n    tag_251:\n      swap1\n      0x00\n      mstore\n      keccak256(0x00, 0x20)\n      add\n      0x00\n        /* \"main.sol\":4589:4663  oracleAddressList[index] = oracleAddressList[oracleAddressList.length - 1] */\n      0x0100\n      exp\n      dup2\n      sload\n      dup2\n      0xffffffffffffffffffffffffffffffffffffffff\n      mul\n      not\n      and\n      swap1\n      dup4\n      0xffffffffffffffffffffffffffffffffffffffff\n      and\n      mul\n      or\n      swap1\n      sstore\n      pop\n        /* \"main.sol\":4673:4690  oracleAddressList */\n      0x01\n        /* \"main.sol\":4673:4696  oracleAddressList.pop() */\n      dup1\n      sload\n      dup1\n      tag_254\n      jumpi\n      tag_255\n      tag_256\n      jump\t// in\n    tag_255:\n    tag_254:\n      0x01\n      swap1\n      sub\n      dup2\n      dup2\n      swap1\n      0x00\n      mstore\n      keccak256(0x00, 0x20)\n      add\n      exp(0x0100, 0x00)\n      dup2\n      sload\n      swap1\n      0xffffffffffffffffffffffffffffffffffffffff\n      mul\n      not\n      and\n      swap1\n      sstore\n      swap1\n      sstore\n        /* \"main.sol\":4713:4717  true */\n      0x01\n        /* \"main.sol\":4706:4717  return true */\n      swap1\n      pop\n        /* \"main.sol\":4447:4724  function removeItem(uint256 index) private returns (bool) {... */\n      swap2\n      swap1\n      pop\n      jump\t// out\n    tag_141:\n      dup3\n      dup1\n      sload\n      dup3\n      dup3\n      sstore\n      swap1\n      0x00\n      mstore\n      keccak256(0x00, 0x20)\n      swap1\n      dup2\n      add\n      swap3\n      dup3\n      iszero\n      tag_258\n      jumpi\n      swap2\n      0x20\n      mul\n      dup3\n      add\n    tag_259:\n      dup3\n      dup2\n      gt\n      iszero\n      tag_260\n      jumpi\n      dup3\n      mload\n      dup3\n      exp(0x0100, 0x00)\n      dup2\n      sload\n      dup2\n      0xffffffffffffffffffffffffffffffffffffffff\n      mul\n      not\n      and\n      swap1\n      dup4\n      0xffffffffffffffffffffffffffffffffffffffff\n      and\n      mul\n      or\n      swap1\n      sstore\n      pop\n      swap2\n      0x20\n      add\n      swap2\n      swap1\n      0x01\n      add\n      swap1\n      jump(tag_259)\n    tag_260:\n    tag_258:\n      pop\n      swap1\n      pop\n      tag_261\n      swap2\n      swap1\n      tag_262\n      jump\t// in\n    tag_261:\n      pop\n      swap1\n      jump\t// out\n    tag_143:\n      dup3\n      dup1\n      sload\n      dup3\n      dup3\n      sstore\n      swap1\n      0x00\n      mstore\n      keccak256(0x00, 0x20)\n      swap1\n      dup2\n      add\n      swap3\n      dup3\n      iszero\n      tag_263\n      jumpi\n      swap2\n      0x20\n      mul\n      dup3\n      add\n    tag_264:\n      dup3\n      dup2\n      gt\n      iszero\n      tag_265\n      jumpi\n      dup3\n      mload\n      dup3\n      sstore\n      swap2\n      0x20\n      add\n      swap2\n      swap1\n      0x01\n      add\n      swap1\n      jump(tag_264)\n    tag_265:\n    tag_263:\n      pop\n      swap1\n      pop\n      tag_266\n      swap2\n      swap1\n      tag_262\n      jump\t// in\n    tag_266:\n      pop\n      swap1\n      jump\t// out\n    tag_151:\n      dup3\n      dup1\n      sload\n      dup3\n      dup3\n      sstore\n      swap1\n      0x00\n      mstore\n      keccak256(0x00, 0x20)\n      swap1\n      0x1f\n      add\n      0x20\n      swap1\n      div\n      dup2\n      add\n      swap3\n      dup3\n      iszero\n      tag_267\n      jumpi\n      swap2\n      0x20\n      mul\n      dup3\n      add\n      0x00\n    tag_268:\n      dup4\n      dup3\n      gt\n      iszero\n      tag_269\n      jumpi\n      dup4\n      mload\n      dup4\n      dup3\n      0x0100\n      exp\n      dup2\n      sload\n      dup2\n      0xff\n      mul\n      not\n      and\n      swap1\n      dup4\n      0x02\n      dup2\n      gt\n      iszero\n      tag_270\n      jumpi\n      tag_271\n      tag_128\n      jump\t// in\n    tag_271:\n    tag_270:\n      mul\n      or\n      swap1\n      sstore\n      pop\n      swap3\n      0x20\n      add\n      swap3\n      0x01\n      add\n      0x20\n      dup2\n      0x00\n      add\n      div\n      swap3\n      dup4\n      add\n      swap3\n      0x01\n      sub\n      mul\n      jump(tag_268)\n    tag_269:\n      dup1\n      iszero\n      tag_272\n      jumpi\n      dup3\n      dup2\n      0x0100\n      exp\n      dup2\n      sload\n      swap1\n      0xff\n      mul\n      not\n      and\n      swap1\n      sstore\n      0x01\n      add\n      0x20\n      dup2\n      0x00\n      add\n      div\n      swap3\n      dup4\n      add\n      swap3\n      0x01\n      sub\n      mul\n      jump(tag_269)\n    tag_272:\n      pop\n    tag_267:\n      pop\n      swap1\n      pop\n      tag_273\n      swap2\n      swap1\n      tag_262\n      jump\t// in\n    tag_273:\n      pop\n      swap1\n      jump\t// out\n    tag_262:\n    tag_274:\n      dup1\n      dup3\n      gt\n      iszero\n      tag_275\n      jumpi\n      0x00\n      dup2\n      0x00\n      swap1\n      sstore\n      pop\n      0x01\n      add\n      jump(tag_274)\n    tag_275:\n      pop\n      swap1\n      jump\t// out\n        /* \"#utility.yul\":7:84   */\n    tag_276:\n        /* \"#utility.yul\":44:51   */\n      0x00\n        /* \"#utility.yul\":73:78   */\n      dup2\n        /* \"#utility.yul\":62:78   */\n      swap1\n      pop\n        /* \"#utility.yul\":7:84   */\n      swap2\n      swap1\n      pop\n      jump\t// out\n        /* \"#utility.yul\":90:208   */\n    tag_277:\n        /* \"#utility.yul\":177:201   */\n      tag_354\n        /* \"#utility.yul\":195:200   */\n      dup2\n        /* \"#utility.yul\":177:201   */\n      tag_276\n      jump\t// in\n    tag_354:\n        /* \"#utility.yul\":172:175   */\n      dup3\n        /* \"#utility.yul\":165:202   */\n      mstore\n        /* \"#utility.yul\":90:208   */\n      pop\n      pop\n      jump\t// out\n        /* \"#utility.yul\":214:436   */\n    tag_18:\n        /* \"#utility.yul\":307:311   */\n      0x00\n        /* \"#utility.yul\":345:347   */\n      0x20\n        /* \"#utility.yul\":334:343   */\n      dup3\n        /* \"#utility.yul\":330:348   */\n      add\n        /* \"#utility.yul\":322:348   */\n      swap1\n      pop\n        /* \"#utility.yul\":358:429   */\n      tag_356\n        /* \"#utility.yul\":426:427   */\n      0x00\n        /* \"#utility.yul\":415:424   */\n      dup4\n        /* \"#utility.yul\":411:428   */\n      add\n        /* \"#utility.yul\":402:408   */\n      dup5\n        /* \"#utility.yul\":358:429   */\n      tag_277\n      jump\t// in\n    tag_356:\n        /* \"#utility.yul\":214:436   */\n      swap3\n      swap2\n      pop\n      pop\n      jump\t// out\n        /* \"#utility.yul\":442:517   */\n    tag_278:\n        /* \"#utility.yul\":475:481   */\n      0x00\n        /* \"#utility.yul\":508:510   */\n      0x40\n        /* \"#utility.yul\":502:511   */\n      mload\n        /* \"#utility.yul\":492:511   */\n      swap1\n      pop\n        /* \"#utility.yul\":442:517   */\n      swap1\n      jump\t// out\n        /* \"#utility.yul\":523:640   */\n    tag_279:\n        /* \"#utility.yul\":632:633   */\n      0x00\n        /* \"#utility.yul\":629:630   */\n      0x00\n        /* \"#utility.yul\":622:634   */\n      revert\n        /* \"#utility.yul\":646:763   */\n    tag_280:\n        /* \"#utility.yul\":755:756   */\n      0x00\n        /* \"#utility.yul\":752:753   */\n      0x00\n        /* \"#utility.yul\":745:757   */\n      revert\n        /* \"#utility.yul\":769:891   */\n    tag_281:\n        /* \"#utility.yul\":842:866   */\n      tag_361\n        /* \"#utility.yul\":860:865   */\n      dup2\n        /* \"#utility.yul\":842:866   */\n      tag_276\n      jump\t// in\n    tag_361:\n        /* \"#utility.yul\":835:840   */\n      dup2\n        /* \"#utility.yul\":832:867   */\n      eq\n        /* \"#utility.yul\":822:885   */\n      tag_362\n      jumpi\n        /* \"#utility.yul\":881:882   */\n      0x00\n        /* \"#utility.yul\":878:879   */\n      0x00\n        /* \"#utility.yul\":871:883   */\n      revert\n        /* \"#utility.yul\":822:885   */\n    tag_362:\n        /* \"#utility.yul\":769:891   */\n      pop\n      jump\t// out\n        /* \"#utility.yul\":897:1036   */\n    tag_282:\n        /* \"#utility.yul\":943:948   */\n      0x00\n        /* \"#utility.yul\":981:987   */\n      dup2\n        /* \"#utility.yul\":968:988   */\n      calldataload\n        /* \"#utility.yul\":959:988   */\n      swap1\n      pop\n        /* \"#utility.yul\":997:1030   */\n      tag_364\n        /* \"#utility.yul\":1024:1029   */\n      dup2\n        /* \"#utility.yul\":997:1030   */\n      tag_281\n      jump\t// in\n    tag_364:\n        /* \"#utility.yul\":897:1036   */\n      swap3\n      swap2\n      pop\n      pop\n      jump\t// out\n        /* \"#utility.yul\":1042:1516   */\n    tag_21:\n        /* \"#utility.yul\":1110:1116   */\n      0x00\n        /* \"#utility.yul\":1118:1124   */\n      0x00\n        /* \"#utility.yul\":1167:1169   */\n      0x40\n        /* \"#utility.yul\":1155:1164   */\n      dup4\n        /* \"#utility.yul\":1146:1153   */\n      dup6\n        /* \"#utility.yul\":1142:1165   */\n      sub\n        /* \"#utility.yul\":1138:1170   */\n      slt\n        /* \"#utility.yul\":1135:1254   */\n      iszero\n      tag_366\n      jumpi\n        /* \"#utility.yul\":1173:1252   */\n      tag_367\n      tag_279\n      jump\t// in\n    tag_367:\n        /* \"#utility.yul\":1135:1254   */\n    tag_366:\n        /* \"#utility.yul\":1293:1294   */\n      0x00\n        /* \"#utility.yul\":1318:1371   */\n      tag_368\n        /* \"#utility.yul\":1363:1370   */\n      dup6\n        /* \"#utility.yul\":1354:1360   */\n      dup3\n        /* \"#utility.yul\":1343:1352   */\n      dup7\n        /* \"#utility.yul\":1339:1361   */\n      add\n        /* \"#utility.yul\":1318:1371   */\n      tag_282\n      jump\t// in\n    tag_368:\n        /* \"#utility.yul\":1308:1371   */\n      swap3\n      pop\n        /* \"#utility.yul\":1264:1381   */\n      pop\n        /* \"#utility.yul\":1420:1422   */\n      0x20\n        /* \"#utility.yul\":1446:1499   */\n      tag_369\n        /* \"#utility.yul\":1491:1498   */\n      dup6\n        /* \"#utility.yul\":1482:1488   */\n      dup3\n        /* \"#utility.yul\":1471:1480   */\n      dup7\n        /* \"#utility.yul\":1467:1489   */\n      add\n        /* \"#utility.yul\":1446:1499   */\n      tag_282\n      jump\t// in\n    tag_369:\n        /* \"#utility.yul\":1436:1499   */\n      swap2\n      pop\n        /* \"#utility.yul\":1391:1509   */\n      pop\n        /* \"#utility.yul\":1042:1516   */\n      swap3\n      pop\n      swap3\n      swap1\n      pop\n      jump\t// out\n        /* \"#utility.yul\":1522:1612   */\n    tag_283:\n        /* \"#utility.yul\":1556:1563   */\n      0x00\n        /* \"#utility.yul\":1599:1604   */\n      dup2\n        /* \"#utility.yul\":1592:1605   */\n      iszero\n        /* \"#utility.yul\":1585:1606   */\n      iszero\n        /* \"#utility.yul\":1574:1606   */\n      swap1\n      pop\n        /* \"#utility.yul\":1522:1612   */\n      swap2\n      swap1\n      pop\n      jump\t// out\n        /* \"#utility.yul\":1618:1727   */\n    tag_284:\n        /* \"#utility.yul\":1699:1720   */\n      tag_372\n        /* \"#utility.yul\":1714:1719   */\n      dup2\n        /* \"#utility.yul\":1699:1720   */\n      tag_283\n      jump\t// in\n    tag_372:\n        /* \"#utility.yul\":1694:1697   */\n      dup3\n        /* \"#utility.yul\":1687:1721   */\n      mstore\n        /* \"#utility.yul\":1618:1727   */\n      pop\n      pop\n      jump\t// out\n        /* \"#utility.yul\":1733:1943   */\n    tag_24:\n        /* \"#utility.yul\":1820:1824   */\n      0x00\n        /* \"#utility.yul\":1858:1860   */\n      0x20\n        /* \"#utility.yul\":1847:1856   */\n      dup3\n        /* \"#utility.yul\":1843:1861   */\n      add\n        /* \"#utility.yul\":1835:1861   */\n      swap1\n      pop\n        /* \"#utility.yul\":1871:1936   */\n      tag_374\n        /* \"#utility.yul\":1933:1934   */\n      0x00\n        /* \"#utility.yul\":1922:1931   */\n      dup4\n        /* \"#utility.yul\":1918:1935   */\n      add\n        /* \"#utility.yul\":1909:1915   */\n      dup5\n        /* \"#utility.yul\":1871:1936   */\n      tag_284\n      jump\t// in\n    tag_374:\n        /* \"#utility.yul\":1733:1943   */\n      swap3\n      swap2\n      pop\n      pop\n      jump\t// out\n        /* \"#utility.yul\":1949:2075   */\n    tag_285:\n        /* \"#utility.yul\":1986:1993   */\n      0x00\n        /* \"#utility.yul\":2026:2068   */\n      0xffffffffffffffffffffffffffffffffffffffff\n        /* \"#utility.yul\":2019:2024   */\n      dup3\n        /* \"#utility.yul\":2015:2069   */\n      and\n        /* \"#utility.yul\":2004:2069   */\n      swap1\n      pop\n        /* \"#utility.yul\":1949:2075   */\n      swap2\n      swap1\n      pop\n      jump\t// out\n        /* \"#utility.yul\":2081:2177   */\n    tag_286:\n        /* \"#utility.yul\":2118:2125   */\n      0x00\n        /* \"#utility.yul\":2147:2171   */\n      tag_377\n        /* \"#utility.yul\":2165:2170   */\n      dup3\n        /* \"#utility.yul\":2147:2171   */\n      tag_285\n      jump\t// in\n    tag_377:\n        /* \"#utility.yul\":2136:2171   */\n      swap1\n      pop\n        /* \"#utility.yul\":2081:2177   */\n      swap2\n      swap1\n      pop\n      jump\t// out\n        /* \"#utility.yul\":2183:2305   */\n    tag_287:\n        /* \"#utility.yul\":2256:2280   */\n      tag_379\n        /* \"#utility.yul\":2274:2279   */\n      dup2\n        /* \"#utility.yul\":2256:2280   */\n      tag_286\n      jump\t// in\n    tag_379:\n        /* \"#utility.yul\":2249:2254   */\n      dup2\n        /* \"#utility.yul\":2246:2281   */\n      eq\n        /* \"#utility.yul\":2236:2299   */\n      tag_380\n      jumpi\n        /* \"#utility.yul\":2295:2296   */\n      0x00\n        /* \"#utility.yul\":2292:2293   */\n      0x00\n        /* \"#utility.yul\":2285:2297   */\n      revert\n        /* \"#utility.yul\":2236:2299   */\n    tag_380:\n        /* \"#utility.yul\":2183:2305   */\n      pop\n      jump\t// out\n        /* \"#utility.yul\":2311:2450   */\n    tag_288:\n        /* \"#utility.yul\":2357:2362   */\n      0x00\n        /* \"#utility.yul\":2395:2401   */\n      dup2\n        /* \"#utility.yul\":2382:2402   */\n      calldataload\n        /* \"#utility.yul\":2373:2402   */\n      swap1\n      pop\n        /* \"#utility.yul\":2411:2444   */\n      tag_382\n        /* \"#utility.yul\":2438:2443   */\n      dup2\n        /* \"#utility.yul\":2411:2444   */\n      tag_287\n      jump\t// in\n    tag_382:\n        /* \"#utility.yul\":2311:2450   */\n      swap3\n      swap2\n      pop\n      pop\n      jump\t// out\n        /* \"#utility.yul\":2456:2930   */\n    tag_27:\n        /* \"#utility.yul\":2524:2530   */\n      0x00\n        /* \"#utility.yul\":2532:2538   */\n      0x00\n        /* \"#utility.yul\":2581:2583   */\n      0x40\n        /* \"#utility.yul\":2569:2578   */\n      dup4\n        /* \"#utility.yul\":2560:2567   */\n      dup6\n        /* \"#utility.yul\":2556:2579   */\n      sub\n        /* \"#utility.yul\":2552:2584   */\n      slt\n        /* \"#utility.yul\":2549:2668   */\n      iszero\n      tag_384\n      jumpi\n        /* \"#utility.yul\":2587:2666   */\n      tag_385\n      tag_279\n      jump\t// in\n    tag_385:\n        /* \"#utility.yul\":2549:2668   */\n    tag_384:\n        /* \"#utility.yul\":2707:2708   */\n      0x00\n        /* \"#utility.yul\":2732:2785   */\n      tag_386\n        /* \"#utility.yul\":2777:2784   */\n      dup6\n        /* \"#utility.yul\":2768:2774   */\n      dup3\n        /* \"#utility.yul\":2757:2766   */\n      dup7\n        /* \"#utility.yul\":2753:2775   */\n      add\n        /* \"#utility.yul\":2732:2785   */\n      tag_288\n      jump\t// in\n    tag_386:\n        /* \"#utility.yul\":2722:2785   */\n      swap3\n      pop\n        /* \"#utility.yul\":2678:2795   */\n      pop\n        /* \"#utility.yul\":2834:2836   */\n      0x20\n        /* \"#utility.yul\":2860:2913   */\n      tag_387\n        /* \"#utility.yul\":2905:2912   */\n      dup6\n        /* \"#utility.yul\":2896:2902   */\n      dup3\n        /* \"#utility.yul\":2885:2894   */\n      dup7\n        /* \"#utility.yul\":2881:2903   */\n      add\n        /* \"#utility.yul\":2860:2913   */\n      tag_282\n      jump\t// in\n    tag_387:\n        /* \"#utility.yul\":2850:2913   */\n      swap2\n      pop\n        /* \"#utility.yul\":2805:2923   */\n      pop\n        /* \"#utility.yul\":2456:2930   */\n      swap3\n      pop\n      swap3\n      swap1\n      pop\n      jump\t// out\n        /* \"#utility.yul\":2936:3116   */\n    tag_128:\n        /* \"#utility.yul\":2984:3061   */\n      0x4e487b7100000000000000000000000000000000000000000000000000000000\n        /* \"#utility.yul\":2981:2982   */\n      0x00\n        /* \"#utility.yul\":2974:3062   */\n      mstore\n        /* \"#utility.yul\":3081:3085   */\n      0x21\n        /* \"#utility.yul\":3078:3079   */\n      0x04\n        /* \"#utility.yul\":3071:3086   */\n      mstore\n        /* \"#utility.yul\":3105:3109   */\n      0x24\n        /* \"#utility.yul\":3102:3103   */\n      0x00\n        /* \"#utility.yul\":3095:3110   */\n      revert\n        /* \"#utility.yul\":3122:3237   */\n    tag_289:\n        /* \"#utility.yul\":3205:3206   */\n      0x03\n        /* \"#utility.yul\":3198:3203   */\n      dup2\n        /* \"#utility.yul\":3195:3207   */\n      lt\n        /* \"#utility.yul\":3185:3231   */\n      tag_390\n      jumpi\n        /* \"#utility.yul\":3211:3229   */\n      tag_391\n      tag_128\n      jump\t// in\n    tag_391:\n        /* \"#utility.yul\":3185:3231   */\n    tag_390:\n        /* \"#utility.yul\":3122:3237   */\n      pop\n      jump\t// out\n        /* \"#utility.yul\":3243:3374   */\n    tag_290:\n        /* \"#utility.yul\":3290:3297   */\n      0x00\n        /* \"#utility.yul\":3319:3324   */\n      dup2\n        /* \"#utility.yul\":3308:3324   */\n      swap1\n      pop\n        /* \"#utility.yul\":3325:3368   */\n      tag_393\n        /* \"#utility.yul\":3362:3367   */\n      dup3\n        /* \"#utility.yul\":3325:3368   */\n      tag_289\n      jump\t// in\n    tag_393:\n        /* \"#utility.yul\":3243:3374   */\n      swap2\n      swap1\n      pop\n      jump\t// out\n        /* \"#utility.yul\":3380:3511   */\n    tag_291:\n        /* \"#utility.yul\":3438:3447   */\n      0x00\n        /* \"#utility.yul\":3471:3505   */\n      tag_395\n        /* \"#utility.yul\":3499:3504   */\n      dup3\n        /* \"#utility.yul\":3471:3505   */\n      tag_290\n      jump\t// in\n    tag_395:\n        /* \"#utility.yul\":3458:3505   */\n      swap1\n      pop\n        /* \"#utility.yul\":3380:3511   */\n      swap2\n      swap1\n      pop\n      jump\t// out\n        /* \"#utility.yul\":3517:3664   */\n    tag_292:\n        /* \"#utility.yul\":3612:3657   */\n      tag_397\n        /* \"#utility.yul\":3651:3656   */\n      dup2\n        /* \"#utility.yul\":3612:3657   */\n      tag_291\n      jump\t// in\n    tag_397:\n        /* \"#utility.yul\":3607:3610   */\n      dup3\n        /* \"#utility.yul\":3600:3658   */\n      mstore\n        /* \"#utility.yul\":3517:3664   */\n      pop\n      pop\n      jump\t// out\n        /* \"#utility.yul\":3670:3908   */\n    tag_30:\n        /* \"#utility.yul\":3771:3775   */\n      0x00\n        /* \"#utility.yul\":3809:3811   */\n      0x20\n        /* \"#utility.yul\":3798:3807   */\n      dup3\n        /* \"#utility.yul\":3794:3812   */\n      add\n        /* \"#utility.yul\":3786:3812   */\n      swap1\n      pop\n        /* \"#utility.yul\":3822:3901   */\n      tag_399\n        /* \"#utility.yul\":3898:3899   */\n      0x00\n        /* \"#utility.yul\":3887:3896   */\n      dup4\n        /* \"#utility.yul\":3883:3900   */\n      add\n        /* \"#utility.yul\":3874:3880   */\n      dup5\n        /* \"#utility.yul\":3822:3901   */\n      tag_292\n      jump\t// in\n    tag_399:\n        /* \"#utility.yul\":3670:3908   */\n      swap3\n      swap2\n      pop\n      pop\n      jump\t// out\n        /* \"#utility.yul\":3914:4031   */\n    tag_293:\n        /* \"#utility.yul\":4023:4024   */\n      0x00\n        /* \"#utility.yul\":4020:4021   */\n      0x00\n        /* \"#utility.yul\":4013:4025   */\n      revert\n        /* \"#utility.yul\":4037:4154   */\n    tag_294:\n        /* \"#utility.yul\":4146:4147   */\n      0x00\n        /* \"#utility.yul\":4143:4144   */\n      0x00\n        /* \"#utility.yul\":4136:4148   */\n      revert\n        /* \"#utility.yul\":4160:4262   */\n    tag_295:\n        /* \"#utility.yul\":4201:4207   */\n      0x00\n        /* \"#utility.yul\":4252:4254   */\n      0x1f\n        /* \"#utility.yul\":4248:4255   */\n      not\n        /* \"#utility.yul\":4243:4245   */\n      0x1f\n        /* \"#utility.yul\":4236:4241   */\n      dup4\n        /* \"#utility.yul\":4232:4246   */\n      add\n        /* \"#utility.yul\":4228:4256   */\n      and\n        /* \"#utility.yul\":4218:4256   */\n      swap1\n      pop\n        /* \"#utility.yul\":4160:4262   */\n      swap2\n      swap1\n      pop\n      jump\t// out\n        /* \"#utility.yul\":4268:4448   */\n    tag_131:\n        /* \"#utility.yul\":4316:4393   */\n      0x4e487b7100000000000000000000000000000000000000000000000000000000\n        /* \"#utility.yul\":4313:4314   */\n      0x00\n        /* \"#utility.yul\":4306:4394   */\n      mstore\n        /* \"#utility.yul\":4413:4417   */\n      0x41\n        /* \"#utility.yul\":4410:4411   */\n      0x04\n        /* \"#utility.yul\":4403:4418   */\n      mstore\n        /* \"#utility.yul\":4437:4441   */\n      0x24\n        /* \"#utility.yul\":4434:4435   */\n      0x00\n        /* \"#utility.yul\":4427:4442   */\n      revert\n        /* \"#utility.yul\":4454:4735   */\n    tag_296:\n        /* \"#utility.yul\":4537:4564   */\n      tag_405\n        /* \"#utility.yul\":4559:4563   */\n      dup3\n        /* \"#utility.yul\":4537:4564   */\n      tag_295\n      jump\t// in\n    tag_405:\n        /* \"#utility.yul\":4529:4535   */\n      dup2\n        /* \"#utility.yul\":4525:4565   */\n      add\n        /* \"#utility.yul\":4667:4673   */\n      dup2\n        /* \"#utility.yul\":4655:4665   */\n      dup2\n        /* \"#utility.yul\":4652:4674   */\n      lt\n        /* \"#utility.yul\":4631:4649   */\n      0xffffffffffffffff\n        /* \"#utility.yul\":4619:4629   */\n      dup3\n        /* \"#utility.yul\":4616:4650   */\n      gt\n        /* \"#utility.yul\":4613:4675   */\n      or\n        /* \"#utility.yul\":4610:4698   */\n      iszero\n      tag_406\n      jumpi\n        /* \"#utility.yul\":4678:4696   */\n      tag_407\n      tag_131\n      jump\t// in\n    tag_407:\n        /* \"#utility.yul\":4610:4698   */\n    tag_406:\n        /* \"#utility.yul\":4718:4728   */\n      dup1\n        /* \"#utility.yul\":4714:4716   */\n      0x40\n        /* \"#utility.yul\":4707:4729   */\n      mstore\n        /* \"#utility.yul\":4497:4735   */\n      pop\n        /* \"#utility.yul\":4454:4735   */\n      pop\n      pop\n      jump\t// out\n        /* \"#utility.yul\":4741:4870   */\n    tag_297:\n        /* \"#utility.yul\":4775:4781   */\n      0x00\n        /* \"#utility.yul\":4802:4822   */\n      tag_409\n      tag_278\n      jump\t// in\n    tag_409:\n        /* \"#utility.yul\":4792:4822   */\n      swap1\n      pop\n        /* \"#utility.yul\":4831:4864   */\n      tag_410\n        /* \"#utility.yul\":4859:4863   */\n      dup3\n        /* \"#utility.yul\":4851:4857   */\n      dup3\n        /* \"#utility.yul\":4831:4864   */\n      tag_296\n      jump\t// in\n    tag_410:\n        /* \"#utility.yul\":4741:4870   */\n      swap2\n      swap1\n      pop\n      jump\t// out\n        /* \"#utility.yul\":4876:5184   */\n    tag_298:\n        /* \"#utility.yul\":4938:4942   */\n      0x00\n        /* \"#utility.yul\":5028:5046   */\n      0xffffffffffffffff\n        /* \"#utility.yul\":5020:5026   */\n      dup3\n        /* \"#utility.yul\":5017:5047   */\n      gt\n        /* \"#utility.yul\":5014:5070   */\n      iszero\n      tag_412\n      jumpi\n        /* \"#utility.yul\":5050:5068   */\n      tag_413\n      tag_131\n      jump\t// in\n    tag_413:\n        /* \"#utility.yul\":5014:5070   */\n    tag_412:\n        /* \"#utility.yul\":5088:5117   */\n      tag_414\n        /* \"#utility.yul\":5110:5116   */\n      dup3\n        /* \"#utility.yul\":5088:5117   */\n      tag_295\n      jump\t// in\n    tag_414:\n        /* \"#utility.yul\":5080:5117   */\n      swap1\n      pop\n        /* \"#utility.yul\":5172:5176   */\n      0x20\n        /* \"#utility.yul\":5166:5170   */\n      dup2\n        /* \"#utility.yul\":5162:5177   */\n      add\n        /* \"#utility.yul\":5154:5177   */\n      swap1\n      pop\n        /* \"#utility.yul\":4876:5184   */\n      swap2\n      swap1\n      pop\n      jump\t// out\n        /* \"#utility.yul\":5190:5338   */\n    tag_299:\n        /* \"#utility.yul\":5288:5294   */\n      dup3\n        /* \"#utility.yul\":5283:5286   */\n      dup2\n        /* \"#utility.yul\":5278:5281   */\n      dup4\n        /* \"#utility.yul\":5265:5295   */\n      calldatacopy\n        /* \"#utility.yul\":5329:5330   */\n      0x00\n        /* \"#utility.yul\":5320:5326   */\n      dup4\n        /* \"#utility.yul\":5315:5318   */\n      dup4\n        /* \"#utility.yul\":5311:5327   */\n      add\n        /* \"#utility.yul\":5304:5331   */\n      mstore\n        /* \"#utility.yul\":5190:5338   */\n      pop\n      pop\n      pop\n      jump\t// out\n        /* \"#utility.yul\":5344:5769   */\n    tag_300:\n        /* \"#utility.yul\":5422:5427   */\n      0x00\n        /* \"#utility.yul\":5447:5513   */\n      tag_417\n        /* \"#utility.yul\":5463:5512   */\n      tag_418\n        /* \"#utility.yul\":5505:5511   */\n      dup5\n        /* \"#utility.yul\":5463:5512   */\n      tag_298\n      jump\t// in\n    tag_418:\n        /* \"#utility.yul\":5447:5513   */\n      tag_297\n      jump\t// in\n    tag_417:\n        /* \"#utility.yul\":5438:5513   */\n      swap1\n      pop\n        /* \"#utility.yul\":5536:5542   */\n      dup3\n        /* \"#utility.yul\":5529:5534   */\n      dup2\n        /* \"#utility.yul\":5522:5543   */\n      mstore\n        /* \"#utility.yul\":5574:5578   */\n      0x20\n        /* \"#utility.yul\":5567:5572   */\n      dup2\n        /* \"#utility.yul\":5563:5579   */\n      add\n        /* \"#utility.yul\":5612:5615   */\n      dup5\n        /* \"#utility.yul\":5603:5609   */\n      dup5\n        /* \"#utility.yul\":5598:5601   */\n      dup5\n        /* \"#utility.yul\":5594:5610   */\n      add\n        /* \"#utility.yul\":5591:5616   */\n      gt\n        /* \"#utility.yul\":5588:5700   */\n      iszero\n      tag_419\n      jumpi\n        /* \"#utility.yul\":5619:5698   */\n      tag_420\n      tag_294\n      jump\t// in\n    tag_420:\n        /* \"#utility.yul\":5588:5700   */\n    tag_419:\n        /* \"#utility.yul\":5709:5763   */\n      tag_421\n        /* \"#utility.yul\":5756:5762   */\n      dup5\n        /* \"#utility.yul\":5751:5754   */\n      dup3\n        /* \"#utility.yul\":5746:5749   */\n      dup6\n        /* \"#utility.yul\":5709:5763   */\n      tag_299\n      jump\t// in\n    tag_421:\n        /* \"#utility.yul\":5428:5769   */\n      pop\n        /* \"#utility.yul\":5344:5769   */\n      swap4\n      swap3\n      pop\n      pop\n      pop\n      jump\t// out\n        /* \"#utility.yul\":5789:6129   */\n    tag_301:\n        /* \"#utility.yul\":5845:5850   */\n      0x00\n        /* \"#utility.yul\":5894:5897   */\n      dup3\n        /* \"#utility.yul\":5887:5891   */\n      0x1f\n        /* \"#utility.yul\":5879:5885   */\n      dup4\n        /* \"#utility.yul\":5875:5892   */\n      add\n        /* \"#utility.yul\":5871:5898   */\n      slt\n        /* \"#utility.yul\":5861:5983   */\n      tag_423\n      jumpi\n        /* \"#utility.yul\":5902:5981   */\n      tag_424\n      tag_293\n      jump\t// in\n    tag_424:\n        /* \"#utility.yul\":5861:5983   */\n    tag_423:\n        /* \"#utility.yul\":6019:6025   */\n      dup2\n        /* \"#utility.yul\":6006:6026   */\n      calldataload\n        /* \"#utility.yul\":6044:6123   */\n      tag_425\n        /* \"#utility.yul\":6119:6122   */\n      dup5\n        /* \"#utility.yul\":6111:6117   */\n      dup3\n        /* \"#utility.yul\":6104:6108   */\n      0x20\n        /* \"#utility.yul\":6096:6102   */\n      dup7\n        /* \"#utility.yul\":6092:6109   */\n      add\n        /* \"#utility.yul\":6044:6123   */\n      tag_300\n      jump\t// in\n    tag_425:\n        /* \"#utility.yul\":6035:6123   */\n      swap2\n      pop\n        /* \"#utility.yul\":5851:6129   */\n      pop\n        /* \"#utility.yul\":5789:6129   */\n      swap3\n      swap2\n      pop\n      pop\n      jump\t// out\n        /* \"#utility.yul\":6135:6244   */\n    tag_302:\n        /* \"#utility.yul\":6218:6219   */\n      0x03\n        /* \"#utility.yul\":6211:6216   */\n      dup2\n        /* \"#utility.yul\":6208:6220   */\n      lt\n        /* \"#utility.yul\":6198:6238   */\n      tag_427\n      jumpi\n        /* \"#utility.yul\":6234:6235   */\n      0x00\n        /* \"#utility.yul\":6231:6232   */\n      0x00\n        /* \"#utility.yul\":6224:6236   */\n      revert\n        /* \"#utility.yul\":6198:6238   */\n    tag_427:\n        /* \"#utility.yul\":6135:6244   */\n      pop\n      jump\t// out\n        /* \"#utility.yul\":6250:6409   */\n    tag_303:\n        /* \"#utility.yul\":6306:6311   */\n      0x00\n        /* \"#utility.yul\":6344:6350   */\n      dup2\n        /* \"#utility.yul\":6331:6351   */\n      calldataload\n        /* \"#utility.yul\":6322:6351   */\n      swap1\n      pop\n        /* \"#utility.yul\":6360:6403   */\n      tag_429\n        /* \"#utility.yul\":6397:6402   */\n      dup2\n        /* \"#utility.yul\":6360:6403   */\n      tag_302\n      jump\t// in\n    tag_429:\n        /* \"#utility.yul\":6250:6409   */\n      swap3\n      swap2\n      pop\n      pop\n      jump\t// out\n        /* \"#utility.yul\":6415:7234   */\n    tag_33:\n        /* \"#utility.yul\":6512:6518   */\n      0x00\n        /* \"#utility.yul\":6520:6526   */\n      0x00\n        /* \"#utility.yul\":6528:6534   */\n      0x00\n        /* \"#utility.yul\":6577:6579   */\n      0x60\n        /* \"#utility.yul\":6565:6574   */\n      dup5\n        /* \"#utility.yul\":6556:6563   */\n      dup7\n        /* \"#utility.yul\":6552:6575   */\n      sub\n        /* \"#utility.yul\":6548:6580   */\n      slt\n        /* \"#utility.yul\":6545:6664   */\n      iszero\n      tag_431\n      jumpi\n        /* \"#utility.yul\":6583:6662   */\n      tag_432\n      tag_279\n      jump\t// in\n    tag_432:\n        /* \"#utility.yul\":6545:6664   */\n    tag_431:\n        /* \"#utility.yul\":6731:6732   */\n      0x00\n        /* \"#utility.yul\":6720:6729   */\n      dup5\n        /* \"#utility.yul\":6716:6733   */\n      add\n        /* \"#utility.yul\":6703:6734   */\n      calldataload\n        /* \"#utility.yul\":6761:6779   */\n      0xffffffffffffffff\n        /* \"#utility.yul\":6753:6759   */\n      dup2\n        /* \"#utility.yul\":6750:6780   */\n      gt\n        /* \"#utility.yul\":6747:6864   */\n      iszero\n      tag_433\n      jumpi\n        /* \"#utility.yul\":6783:6862   */\n      tag_434\n      tag_280\n      jump\t// in\n    tag_434:\n        /* \"#utility.yul\":6747:6864   */\n    tag_433:\n        /* \"#utility.yul\":6888:6951   */\n      tag_435\n        /* \"#utility.yul\":6943:6950   */\n      dup7\n        /* \"#utility.yul\":6934:6940   */\n      dup3\n        /* \"#utility.yul\":6923:6932   */\n      dup8\n        /* \"#utility.yul\":6919:6941   */\n      add\n        /* \"#utility.yul\":6888:6951   */\n      tag_301\n      jump\t// in\n    tag_435:\n        /* \"#utility.yul\":6878:6951   */\n      swap4\n      pop\n        /* \"#utility.yul\":6674:6961   */\n      pop\n        /* \"#utility.yul\":7000:7002   */\n      0x20\n        /* \"#utility.yul\":7026:7089   */\n      tag_436\n        /* \"#utility.yul\":7081:7088   */\n      dup7\n        /* \"#utility.yul\":7072:7078   */\n      dup3\n        /* \"#utility.yul\":7061:7070   */\n      dup8\n        /* \"#utility.yul\":7057:7079   */\n      add\n        /* \"#utility.yul\":7026:7089   */\n      tag_303\n      jump\t// in\n    tag_436:\n        /* \"#utility.yul\":7016:7089   */\n      swap3\n      pop\n        /* \"#utility.yul\":6971:7099   */\n      pop\n        /* \"#utility.yul\":7138:7140   */\n      0x40\n        /* \"#utility.yul\":7164:7217   */\n      tag_437\n        /* \"#utility.yul\":7209:7216   */\n      dup7\n        /* \"#utility.yul\":7200:7206   */\n      dup3\n        /* \"#utility.yul\":7189:7198   */\n      dup8\n        /* \"#utility.yul\":7185:7207   */\n      add\n        /* \"#utility.yul\":7164:7217   */\n      tag_282\n      jump\t// in\n    tag_437:\n        /* \"#utility.yul\":7154:7217   */\n      swap2\n      pop\n        /* \"#utility.yul\":7109:7227   */\n      pop\n        /* \"#utility.yul\":6415:7234   */\n      swap3\n      pop\n      swap3\n      pop\n      swap3\n      jump\t// out\n        /* \"#utility.yul\":7240:7569   */\n    tag_41:\n        /* \"#utility.yul\":7299:7305   */\n      0x00\n        /* \"#utility.yul\":7348:7350   */\n      0x20\n        /* \"#utility.yul\":7336:7345   */\n      dup3\n        /* \"#utility.yul\":7327:7334   */\n      dup5\n        /* \"#utility.yul\":7323:7346   */\n      sub\n        /* \"#utility.yul\":7319:7351   */\n      slt\n        /* \"#utility.yul\":7316:7435   */\n      iszero\n      tag_439\n      jumpi\n        /* \"#utility.yul\":7354:7433   */\n      tag_440\n      tag_279\n      jump\t// in\n    tag_440:\n        /* \"#utility.yul\":7316:7435   */\n    tag_439:\n        /* \"#utility.yul\":7474:7475   */\n      0x00\n        /* \"#utility.yul\":7499:7552   */\n      tag_441\n        /* \"#utility.yul\":7544:7551   */\n      dup5\n        /* \"#utility.yul\":7535:7541   */\n      dup3\n        /* \"#utility.yul\":7524:7533   */\n      dup6\n        /* \"#utility.yul\":7520:7542   */\n      add\n        /* \"#utility.yul\":7499:7552   */\n      tag_288\n      jump\t// in\n    tag_441:\n        /* \"#utility.yul\":7489:7552   */\n      swap2\n      pop\n        /* \"#utility.yul\":7445:7562   */\n      pop\n        /* \"#utility.yul\":7240:7569   */\n      swap3\n      swap2\n      pop\n      pop\n      jump\t// out\n        /* \"#utility.yul\":7575:7904   */\n    tag_49:\n        /* \"#utility.yul\":7634:7640   */\n      0x00\n        /* \"#utility.yul\":7683:7685   */\n      0x20\n        /* \"#utility.yul\":7671:7680   */\n      dup3\n        /* \"#utility.yul\":7662:7669   */\n      dup5\n        /* \"#utility.yul\":7658:7681   */\n      sub\n        /* \"#utility.yul\":7654:7686   */\n      slt\n        /* \"#utility.yul\":7651:7770   */\n      iszero\n      tag_443\n      jumpi\n        /* \"#utility.yul\":7689:7768   */\n      tag_444\n      tag_279\n      jump\t// in\n    tag_444:\n        /* \"#utility.yul\":7651:7770   */\n    tag_443:\n        /* \"#utility.yul\":7809:7810   */\n      0x00\n        /* \"#utility.yul\":7834:7887   */\n      tag_445\n        /* \"#utility.yul\":7879:7886   */\n      dup5\n        /* \"#utility.yul\":7870:7876   */\n      dup3\n        /* \"#utility.yul\":7859:7868   */\n      dup6\n        /* \"#utility.yul\":7855:7877   */\n      add\n        /* \"#utility.yul\":7834:7887   */\n      tag_282\n      jump\t// in\n    tag_445:\n        /* \"#utility.yul\":7824:7887   */\n      swap2\n      pop\n        /* \"#utility.yul\":7780:7897   */\n      pop\n        /* \"#utility.yul\":7575:7904   */\n      swap3\n      swap2\n      pop\n      pop\n      jump\t// out\n        /* \"#utility.yul\":7910:8028   */\n    tag_304:\n        /* \"#utility.yul\":7997:8021   */\n      tag_447\n        /* \"#utility.yul\":8015:8020   */\n      dup2\n        /* \"#utility.yul\":7997:8021   */\n      tag_286\n      jump\t// in\n    tag_447:\n        /* \"#utility.yul\":7992:7995   */\n      dup3\n        /* \"#utility.yul\":7985:8022   */\n      mstore\n        /* \"#utility.yul\":7910:8028   */\n      pop\n      pop\n      jump\t// out\n        /* \"#utility.yul\":8034:8256   */\n    tag_52:\n        /* \"#utility.yul\":8127:8131   */\n      0x00\n        /* \"#utility.yul\":8165:8167   */\n      0x20\n        /* \"#utility.yul\":8154:8163   */\n      dup3\n        /* \"#utility.yul\":8150:8168   */\n      add\n        /* \"#utility.yul\":8142:8168   */\n      swap1\n      pop\n        /* \"#utility.yul\":8178:8249   */\n      tag_449\n        /* \"#utility.yul\":8246:8247   */\n      0x00\n        /* \"#utility.yul\":8235:8244   */\n      dup4\n        /* \"#utility.yul\":8231:8248   */\n      add\n        /* \"#utility.yul\":8222:8228   */\n      dup5\n        /* \"#utility.yul\":8178:8249   */\n      tag_304\n      jump\t// in\n    tag_449:\n        /* \"#utility.yul\":8034:8256   */\n      swap3\n      swap2\n      pop\n      pop\n      jump\t// out\n        /* \"#utility.yul\":8262:8583   */\n    tag_305:\n        /* \"#utility.yul\":8349:8353   */\n      0x00\n        /* \"#utility.yul\":8439:8457   */\n      0xffffffffffffffff\n        /* \"#utility.yul\":8431:8437   */\n      dup3\n        /* \"#utility.yul\":8428:8458   */\n      gt\n        /* \"#utility.yul\":8425:8481   */\n      iszero\n      tag_451\n      jumpi\n        /* \"#utility.yul\":8461:8479   */\n      tag_452\n      tag_131\n      jump\t// in\n    tag_452:\n        /* \"#utility.yul\":8425:8481   */\n    tag_451:\n        /* \"#utility.yul\":8511:8515   */\n      0x20\n        /* \"#utility.yul\":8503:8509   */\n      dup3\n        /* \"#utility.yul\":8499:8516   */\n      mul\n        /* \"#utility.yul\":8491:8516   */\n      swap1\n      pop\n        /* \"#utility.yul\":8571:8575   */\n      0x20\n        /* \"#utility.yul\":8565:8569   */\n      dup2\n        /* \"#utility.yul\":8561:8576   */\n      add\n        /* \"#utility.yul\":8553:8576   */\n      swap1\n      pop\n        /* \"#utility.yul\":8262:8583   */\n      swap2\n      swap1\n      pop\n      jump\t// out\n        /* \"#utility.yul\":8589:8706   */\n    tag_306:\n        /* \"#utility.yul\":8698:8699   */\n      0x00\n        /* \"#utility.yul\":8695:8696   */\n      0x00\n        /* \"#utility.yul\":8688:8700   */\n      revert\n        /* \"#utility.yul\":8744:9484   */\n    tag_307:\n        /* \"#utility.yul\":8850:8855   */\n      0x00\n        /* \"#utility.yul\":8875:8966   */\n      tag_455\n        /* \"#utility.yul\":8891:8965   */\n      tag_456\n        /* \"#utility.yul\":8958:8964   */\n      dup5\n        /* \"#utility.yul\":8891:8965   */\n      tag_305\n      jump\t// in\n    tag_456:\n        /* \"#utility.yul\":8875:8966   */\n      tag_297\n      jump\t// in\n    tag_455:\n        /* \"#utility.yul\":8866:8966   */\n      swap1\n      pop\n        /* \"#utility.yul\":8986:8991   */\n      dup1\n        /* \"#utility.yul\":9015:9021   */\n      dup4\n        /* \"#utility.yul\":9008:9013   */\n      dup3\n        /* \"#utility.yul\":9001:9022   */\n      mstore\n        /* \"#utility.yul\":9049:9053   */\n      0x20\n        /* \"#utility.yul\":9042:9047   */\n      dup3\n        /* \"#utility.yul\":9038:9054   */\n      add\n        /* \"#utility.yul\":9031:9054   */\n      swap1\n      pop\n        /* \"#utility.yul\":9102:9106   */\n      0x20\n        /* \"#utility.yul\":9094:9100   */\n      dup5\n        /* \"#utility.yul\":9090:9107   */\n      mul\n        /* \"#utility.yul\":9082:9088   */\n      dup4\n        /* \"#utility.yul\":9078:9108   */\n      add\n        /* \"#utility.yul\":9131:9134   */\n      dup6\n        /* \"#utility.yul\":9123:9129   */\n      dup2\n        /* \"#utility.yul\":9120:9135   */\n      gt\n        /* \"#utility.yul\":9117:9239   */\n      iszero\n      tag_457\n      jumpi\n        /* \"#utility.yul\":9150:9229   */\n      tag_458\n      tag_306\n      jump\t// in\n    tag_458:\n        /* \"#utility.yul\":9117:9239   */\n    tag_457:\n        /* \"#utility.yul\":9265:9271   */\n      dup4\n        /* \"#utility.yul\":9248:9478   */\n    tag_459:\n        /* \"#utility.yul\":9282:9288   */\n      dup2\n        /* \"#utility.yul\":9277:9280   */\n      dup2\n        /* \"#utility.yul\":9274:9289   */\n      lt\n        /* \"#utility.yul\":9248:9478   */\n      iszero\n      tag_461\n      jumpi\n        /* \"#utility.yul\":9357:9360   */\n      dup1\n        /* \"#utility.yul\":9386:9433   */\n      tag_462\n        /* \"#utility.yul\":9429:9432   */\n      dup9\n        /* \"#utility.yul\":9417:9427   */\n      dup3\n        /* \"#utility.yul\":9386:9433   */\n      tag_303\n      jump\t// in\n    tag_462:\n        /* \"#utility.yul\":9381:9384   */\n      dup5\n        /* \"#utility.yul\":9374:9434   */\n      mstore\n        /* \"#utility.yul\":9463:9467   */\n      0x20\n        /* \"#utility.yul\":9458:9461   */\n      dup5\n        /* \"#utility.yul\":9454:9468   */\n      add\n        /* \"#utility.yul\":9447:9468   */\n      swap4\n      pop\n        /* \"#utility.yul\":9324:9478   */\n      pop\n        /* \"#utility.yul\":9308:9312   */\n      0x20\n        /* \"#utility.yul\":9303:9306   */\n      dup2\n        /* \"#utility.yul\":9299:9313   */\n      add\n        /* \"#utility.yul\":9292:9313   */\n      swap1\n      pop\n        /* \"#utility.yul\":9248:9478   */\n      jump(tag_459)\n    tag_461:\n        /* \"#utility.yul\":9252:9273   */\n      pop\n        /* \"#utility.yul\":8856:9484   */\n      pop\n      pop\n        /* \"#utility.yul\":8744:9484   */\n      swap4\n      swap3\n      pop\n      pop\n      pop\n      jump\t// out\n        /* \"#utility.yul\":9522:9912   */\n    tag_308:\n        /* \"#utility.yul\":9603:9608   */\n      0x00\n        /* \"#utility.yul\":9652:9655   */\n      dup3\n        /* \"#utility.yul\":9645:9649   */\n      0x1f\n        /* \"#utility.yul\":9637:9643   */\n      dup4\n        /* \"#utility.yul\":9633:9650   */\n      add\n        /* \"#utility.yul\":9629:9656   */\n      slt\n        /* \"#utility.yul\":9619:9741   */\n      tag_464\n      jumpi\n        /* \"#utility.yul\":9660:9739   */\n      tag_465\n      tag_293\n      jump\t// in\n    tag_465:\n        /* \"#utility.yul\":9619:9741   */\n    tag_464:\n        /* \"#utility.yul\":9777:9783   */\n      dup2\n        /* \"#utility.yul\":9764:9784   */\n      calldataload\n        /* \"#utility.yul\":9802:9906   */\n      tag_466\n        /* \"#utility.yul\":9902:9905   */\n      dup5\n        /* \"#utility.yul\":9894:9900   */\n      dup3\n        /* \"#utility.yul\":9887:9891   */\n      0x20\n        /* \"#utility.yul\":9879:9885   */\n      dup7\n        /* \"#utility.yul\":9875:9892   */\n      add\n        /* \"#utility.yul\":9802:9906   */\n      tag_307\n      jump\t// in\n    tag_466:\n        /* \"#utility.yul\":9793:9906   */\n      swap2\n      pop\n        /* \"#utility.yul\":9609:9912   */\n      pop\n        /* \"#utility.yul\":9522:9912   */\n      swap3\n      swap2\n      pop\n      pop\n      jump\t// out\n        /* \"#utility.yul\":9918:10477   */\n    tag_58:\n        /* \"#utility.yul\":10012:10018   */\n      0x00\n        /* \"#utility.yul\":10061:10063   */\n      0x20\n        /* \"#utility.yul\":10049:10058   */\n      dup3\n        /* \"#utility.yul\":10040:10047   */\n      dup5\n        /* \"#utility.yul\":10036:10059   */\n      sub\n        /* \"#utility.yul\":10032:10064   */\n      slt\n        /* \"#utility.yul\":10029:10148   */\n      iszero\n      tag_468\n      jumpi\n        /* \"#utility.yul\":10067:10146   */\n      tag_469\n      tag_279\n      jump\t// in\n    tag_469:\n        /* \"#utility.yul\":10029:10148   */\n    tag_468:\n        /* \"#utility.yul\":10215:10216   */\n      0x00\n        /* \"#utility.yul\":10204:10213   */\n      dup3\n        /* \"#utility.yul\":10200:10217   */\n      add\n        /* \"#utility.yul\":10187:10218   */\n      calldataload\n        /* \"#utility.yul\":10245:10263   */\n      0xffffffffffffffff\n        /* \"#utility.yul\":10237:10243   */\n      dup2\n        /* \"#utility.yul\":10234:10264   */\n      gt\n        /* \"#utility.yul\":10231:10348   */\n      iszero\n      tag_470\n      jumpi\n        /* \"#utility.yul\":10267:10346   */\n      tag_471\n      tag_280\n      jump\t// in\n    tag_471:\n        /* \"#utility.yul\":10231:10348   */\n    tag_470:\n        /* \"#utility.yul\":10372:10460   */\n      tag_472\n        /* \"#utility.yul\":10452:10459   */\n      dup5\n        /* \"#utility.yul\":10443:10449   */\n      dup3\n        /* \"#utility.yul\":10432:10441   */\n      dup6\n        /* \"#utility.yul\":10428:10450   */\n      add\n        /* \"#utility.yul\":10372:10460   */\n      tag_308\n      jump\t// in\n    tag_472:\n        /* \"#utility.yul\":10362:10460   */\n      swap2\n      pop\n        /* \"#utility.yul\":10158:10470   */\n      pop\n        /* \"#utility.yul\":9918:10477   */\n      swap3\n      swap2\n      pop\n      pop\n      jump\t// out\n        /* \"#utility.yul\":10483:10663   */\n    tag_70:\n        /* \"#utility.yul\":10531:10608   */\n      0x4e487b7100000000000000000000000000000000000000000000000000000000\n        /* \"#utility.yul\":10528:10529   */\n      0x00\n        /* \"#utility.yul\":10521:10609   */\n      mstore\n        /* \"#utility.yul\":10628:10632   */\n      0x32\n        /* \"#utility.yul\":10625:10626   */\n      0x04\n        /* \"#utility.yul\":10618:10633   */\n      mstore\n        /* \"#utility.yul\":10652:10656   */\n      0x24\n        /* \"#utility.yul\":10649:10650   */\n      0x00\n        /* \"#utility.yul\":10642:10657   */\n      revert\n        /* \"#utility.yul\":10669:10849   */\n    tag_309:\n        /* \"#utility.yul\":10717:10794   */\n      0x4e487b7100000000000000000000000000000000000000000000000000000000\n        /* \"#utility.yul\":10714:10715   */\n      0x00\n        /* \"#utility.yul\":10707:10795   */\n      mstore\n        /* \"#utility.yul\":10814:10818   */\n      0x11\n        /* \"#utility.yul\":10811:10812   */\n      0x04\n        /* \"#utility.yul\":10804:10819   */\n      mstore\n        /* \"#utility.yul\":10838:10842   */\n      0x24\n        /* \"#utility.yul\":10835:10836   */\n      0x00\n        /* \"#utility.yul\":10828:10843   */\n      revert\n        /* \"#utility.yul\":10855:11088   */\n    tag_76:\n        /* \"#utility.yul\":10894:10897   */\n      0x00\n        /* \"#utility.yul\":10917:10941   */\n      tag_476\n        /* \"#utility.yul\":10935:10940   */\n      dup3\n        /* \"#utility.yul\":10917:10941   */\n      tag_276\n      jump\t// in\n    tag_476:\n        /* \"#utility.yul\":10908:10941   */\n      swap2\n      pop\n        /* \"#utility.yul\":10963:11029   */\n      0xffffffffffffffffffffffffffffffffffffffffffffffffffffffffffffffff\n        /* \"#utility.yul\":10956:10961   */\n      dup3\n        /* \"#utility.yul\":10953:11030   */\n      sub\n        /* \"#utility.yul\":10950:11053   */\n      tag_477\n      jumpi\n        /* \"#utility.yul\":11033:11051   */\n      tag_478\n      tag_309\n      jump\t// in\n    tag_478:\n        /* \"#utility.yul\":10950:11053   */\n    tag_477:\n        /* \"#utility.yul\":11080:11081   */\n      0x01\n        /* \"#utility.yul\":11073:11078   */\n      dup3\n        /* \"#utility.yul\":11069:11082   */\n      add\n        /* \"#utility.yul\":11062:11082   */\n      swap1\n      pop\n        /* \"#utility.yul\":10855:11088   */\n      swap2\n      swap1\n      pop\n      jump\t// out\n        /* \"#utility.yul\":11094:11274   */\n    tag_310:\n        /* \"#utility.yul\":11142:11219   */\n      0x4e487b7100000000000000000000000000000000000000000000000000000000\n        /* \"#utility.yul\":11139:11140   */\n      0x00\n        /* \"#utility.yul\":11132:11220   */\n      mstore\n        /* \"#utility.yul\":11239:11243   */\n      0x12\n        /* \"#utility.yul\":11236:11237   */\n      0x04\n        /* \"#utility.yul\":11229:11244   */\n      mstore\n        /* \"#utility.yul\":11263:11267   */\n      0x24\n        /* \"#utility.yul\":11260:11261   */\n      0x00\n        /* \"#utility.yul\":11253:11268   */\n      revert\n        /* \"#utility.yul\":11280:11465   */\n    tag_82:\n        /* \"#utility.yul\":11320:11321   */\n      0x00\n        /* \"#utility.yul\":11337:11357   */\n      tag_481\n        /* \"#utility.yul\":11355:11356   */\n      dup3\n        /* \"#utility.yul\":11337:11357   */\n      tag_276\n      jump\t// in\n    tag_481:\n        /* \"#utility.yul\":11332:11357   */\n      swap2\n      pop\n        /* \"#utility.yul\":11371:11391   */\n      tag_482\n        /* \"#utility.yul\":11389:11390   */\n      dup4\n        /* \"#utility.yul\":11371:11391   */\n      tag_276\n      jump\t// in\n    tag_482:\n        /* \"#utility.yul\":11366:11391   */\n      swap3\n      pop\n        /* \"#utility.yul\":11410:11411   */\n      dup3\n        /* \"#utility.yul\":11400:11435   */\n      tag_483\n      jumpi\n        /* \"#utility.yul\":11415:11433   */\n      tag_484\n      tag_310\n      jump\t// in\n    tag_484:\n        /* \"#utility.yul\":11400:11435   */\n    tag_483:\n        /* \"#utility.yul\":11457:11458   */\n      dup3\n        /* \"#utility.yul\":11454:11455   */\n      dup3\n        /* \"#utility.yul\":11450:11459   */\n      div\n        /* \"#utility.yul\":11445:11459   */\n      swap1\n      pop\n        /* \"#utility.yul\":11280:11465   */\n      swap3\n      swap2\n      pop\n      pop\n      jump\t// out\n        /* \"#utility.yul\":11471:11662   */\n    tag_87:\n        /* \"#utility.yul\":11511:11514   */\n      0x00\n        /* \"#utility.yul\":11530:11550   */\n      tag_486\n        /* \"#utility.yul\":11548:11549   */\n      dup3\n        /* \"#utility.yul\":11530:11550   */\n      tag_276\n      jump\t// in\n    tag_486:\n        /* \"#utility.yul\":11525:11550   */\n      swap2\n      pop\n        /* \"#utility.yul\":11564:11584   */\n      tag_487\n        /* \"#utility.yul\":11582:11583   */\n      dup4\n        /* \"#utility.yul\":11564:11584   */\n      tag_276\n      jump\t// in\n    tag_487:\n        /* \"#utility.yul\":11559:11584   */\n      swap3\n      pop\n        /* \"#utility.yul\":11607:11608   */\n      dup3\n        /* \"#utility.yul\":11604:11605   */\n      dup3\n        /* \"#utility.yul\":11600:11609   */\n      add\n        /* \"#utility.yul\":11593:11609   */\n      swap1\n      pop\n        /* \"#utility.yul\":11628:11631   */\n      dup1\n        /* \"#utility.yul\":11625:11626   */\n      dup3\n        /* \"#utility.yul\":11622:11632   */\n      gt\n        /* \"#utility.yul\":11619:11655   */\n      iszero\n      tag_488\n      jumpi\n        /* \"#utility.yul\":11635:11653   */\n      tag_489\n      tag_309\n      jump\t// in\n    tag_489:\n        /* \"#utility.yul\":11619:11655   */\n    tag_488:\n        /* \"#utility.yul\":11471:11662   */\n      swap3\n      swap2\n      pop\n      pop\n      jump\t// out\n        /* \"#utility.yul\":11668:11770   */\n    tag_311:\n        /* \"#utility.yul\":11710:11718   */\n      0x00\n        /* \"#utility.yul\":11757:11762   */\n      dup2\n        /* \"#utility.yul\":11754:11755   */\n      0x01\n        /* \"#utility.yul\":11750:11763   */\n      shr\n        /* \"#utility.yul\":11729:11763   */\n      swap1\n      pop\n        /* \"#utility.yul\":11668:11770   */\n      swap2\n      swap1\n      pop\n      jump\t// out\n        /* \"#utility.yul\":11776:12624   */\n    tag_312:\n        /* \"#utility.yul\":11837:11842   */\n      0x00\n        /* \"#utility.yul\":11844:11848   */\n      0x00\n        /* \"#utility.yul\":11868:11874   */\n      dup3\n        /* \"#utility.yul\":11859:11874   */\n      swap2\n      pop\n        /* \"#utility.yul\":11892:11897   */\n      dup4\n        /* \"#utility.yul\":11883:11897   */\n      swap1\n      pop\n        /* \"#utility.yul\":11906:12618   */\n    tag_492:\n        /* \"#utility.yul\":11927:11928   */\n      0x01\n        /* \"#utility.yul\":11917:11925   */\n      dup6\n        /* \"#utility.yul\":11914:11929   */\n      gt\n        /* \"#utility.yul\":11906:12618   */\n      iszero\n      tag_494\n      jumpi\n        /* \"#utility.yul\":12022:12026   */\n      dup1\n        /* \"#utility.yul\":12017:12020   */\n      dup7\n        /* \"#utility.yul\":12013:12027   */\n      div\n        /* \"#utility.yul\":12007:12011   */\n      dup2\n        /* \"#utility.yul\":12004:12028   */\n      gt\n        /* \"#utility.yul\":12001:12051   */\n      iszero\n      tag_495\n      jumpi\n        /* \"#utility.yul\":12031:12049   */\n      tag_496\n      tag_309\n      jump\t// in\n    tag_496:\n        /* \"#utility.yul\":12001:12051   */\n    tag_495:\n        /* \"#utility.yul\":12081:12082   */\n      0x01\n        /* \"#utility.yul\":12071:12079   */\n      dup6\n        /* \"#utility.yul\":12067:12083   */\n      and\n        /* \"#utility.yul\":12064:12515   */\n      iszero\n      tag_497\n      jumpi\n        /* \"#utility.yul\":12496:12500   */\n      dup1\n        /* \"#utility.yul\":12489:12494   */\n      dup3\n        /* \"#utility.yul\":12485:12501   */\n      mul\n        /* \"#utility.yul\":12476:12501   */\n      swap2\n      pop\n        /* \"#utility.yul\":12064:12515   */\n    tag_497:\n        /* \"#utility.yul\":12546:12550   */\n      dup1\n        /* \"#utility.yul\":12540:12544   */\n      dup2\n        /* \"#utility.yul\":12536:12551   */\n      mul\n        /* \"#utility.yul\":12528:12551   */\n      swap1\n      pop\n        /* \"#utility.yul\":12576:12608   */\n      tag_498\n        /* \"#utility.yul\":12599:12607   */\n      dup6\n        /* \"#utility.yul\":12576:12608   */\n      tag_311\n      jump\t// in\n    tag_498:\n        /* \"#utility.yul\":12564:12608   */\n      swap5\n      pop\n        /* \"#utility.yul\":11906:12618   */\n      jump(tag_492)\n    tag_494:\n        /* \"#utility.yul\":11776:12624   */\n      swap5\n      pop\n      swap5\n      swap3\n      pop\n      pop\n      pop\n      jump\t// out\n        /* \"#utility.yul\":12630:13703   */\n    tag_313:\n        /* \"#utility.yul\":12684:12689   */\n      0x00\n        /* \"#utility.yul\":12875:12883   */\n      dup3\n        /* \"#utility.yul\":12865:12905   */\n      tag_500\n      jumpi\n        /* \"#utility.yul\":12896:12897   */\n      0x01\n        /* \"#utility.yul\":12887:12897   */\n      swap1\n      pop\n        /* \"#utility.yul\":12898:12903   */\n      jump(tag_499)\n        /* \"#utility.yul\":12865:12905   */\n    tag_500:\n        /* \"#utility.yul\":12924:12928   */\n      dup2\n        /* \"#utility.yul\":12914:12950   */\n      tag_501\n      jumpi\n        /* \"#utility.yul\":12941:12942   */\n      0x00\n        /* \"#utility.yul\":12932:12942   */\n      swap1\n      pop\n        /* \"#utility.yul\":12943:12948   */\n      jump(tag_499)\n        /* \"#utility.yul\":12914:12950   */\n    tag_501:\n        /* \"#utility.yul\":13010:13014   */\n      dup2\n        /* \"#utility.yul\":13058:13059   */\n      0x01\n        /* \"#utility.yul\":13053:13080   */\n      dup2\n      eq\n      tag_503\n      jumpi\n        /* \"#utility.yul\":13094:13095   */\n      0x02\n        /* \"#utility.yul\":13089:13280   */\n      dup2\n      eq\n      tag_504\n      jumpi\n        /* \"#utility.yul\":13003:13280   */\n      jump(tag_502)\n        /* \"#utility.yul\":13053:13080   */\n    tag_503:\n        /* \"#utility.yul\":13071:13072   */\n      0x01\n        /* \"#utility.yul\":13062:13072   */\n      swap2\n      pop\n        /* \"#utility.yul\":13073:13078   */\n      pop\n      jump(tag_499)\n        /* \"#utility.yul\":13089:13280   */\n    tag_504:\n        /* \"#utility.yul\":13134:13137   */\n      0xff\n        /* \"#utility.yul\":13124:13132   */\n      dup5\n        /* \"#utility.yul\":13121:13138   */\n      gt\n        /* \"#utility.yul\":13118:13161   */\n      iszero\n      tag_505\n      jumpi\n        /* \"#utility.yul\":13141:13159   */\n      tag_506\n      tag_309\n      jump\t// in\n    tag_506:\n        /* \"#utility.yul\":13118:13161   */\n    tag_505:\n        /* \"#utility.yul\":13190:13198   */\n      dup4\n        /* \"#utility.yul\":13187:13188   */\n      0x02\n        /* \"#utility.yul\":13183:13199   */\n      exp\n        /* \"#utility.yul\":13174:13199   */\n      swap2\n      pop\n        /* \"#utility.yul\":13225:13228   */\n      dup5\n        /* \"#utility.yul\":13218:13223   */\n      dup3\n        /* \"#utility.yul\":13215:13229   */\n      gt\n        /* \"#utility.yul\":13212:13252   */\n      iszero\n      tag_507\n      jumpi\n        /* \"#utility.yul\":13232:13250   */\n      tag_508\n      tag_309\n      jump\t// in\n    tag_508:\n        /* \"#utility.yul\":13212:13252   */\n    tag_507:\n        /* \"#utility.yul\":13265:13270   */\n      pop\n      jump(tag_499)\n        /* \"#utility.yul\":13003:13280   */\n    tag_502:\n      pop\n        /* \"#utility.yul\":13389:13391   */\n      0x20\n        /* \"#utility.yul\":13379:13387   */\n      dup4\n        /* \"#utility.yul\":13376:13392   */\n      lt\n        /* \"#utility.yul\":13370:13373   */\n      0x0133\n        /* \"#utility.yul\":13364:13368   */\n      dup4\n        /* \"#utility.yul\":13361:13374   */\n      lt\n        /* \"#utility.yul\":13357:13393   */\n      and\n        /* \"#utility.yul\":13339:13341   */\n      0x4e\n        /* \"#utility.yul\":13329:13337   */\n      dup5\n        /* \"#utility.yul\":13326:13342   */\n      lt\n        /* \"#utility.yul\":13321:13323   */\n      0x0b\n        /* \"#utility.yul\":13315:13319   */\n      dup5\n        /* \"#utility.yul\":13312:13324   */\n      lt\n        /* \"#utility.yul\":13308:13343   */\n      and\n        /* \"#utility.yul\":13292:13403   */\n      or\n        /* \"#utility.yul\":13289:13535   */\n      iszero\n      tag_509\n      jumpi\n        /* \"#utility.yul\":13445:13453   */\n      dup3\n        /* \"#utility.yul\":13439:13443   */\n      dup3\n        /* \"#utility.yul\":13435:13454   */\n      exp\n        /* \"#utility.yul\":13426:13454   */\n      swap1\n      pop\n        /* \"#utility.yul\":13480:13483   */\n      dup4\n        /* \"#utility.yul\":13473:13478   */\n      dup2\n        /* \"#utility.yul\":13470:13484   */\n      gt\n        /* \"#utility.yul\":13467:13507   */\n      iszero\n      tag_510\n      jumpi\n        /* \"#utility.yul\":13487:13505   */\n      tag_511\n      tag_309\n      jump\t// in\n    tag_511:\n        /* \"#utility.yul\":13467:13507   */\n    tag_510:\n        /* \"#utility.yul\":13520:13525   */\n      jump(tag_499)\n        /* \"#utility.yul\":13289:13535   */\n    tag_509:\n        /* \"#utility.yul\":13560:13602   */\n      tag_512\n        /* \"#utility.yul\":13598:13601   */\n      dup5\n        /* \"#utility.yul\":13588:13596   */\n      dup5\n        /* \"#utility.yul\":13582:13586   */\n      dup5\n        /* \"#utility.yul\":13579:13580   */\n      0x01\n        /* \"#utility.yul\":13560:13602   */\n      tag_312\n      jump\t// in\n    tag_512:\n        /* \"#utility.yul\":13545:13602   */\n      swap3\n      pop\n      swap1\n      pop\n        /* \"#utility.yul\":13634:13638   */\n      dup2\n        /* \"#utility.yul\":13629:13632   */\n      dup5\n        /* \"#utility.yul\":13625:13639   */\n      div\n        /* \"#utility.yul\":13618:13623   */\n      dup2\n        /* \"#utility.yul\":13615:13640   */\n      gt\n        /* \"#utility.yul\":13612:13663   */\n      iszero\n      tag_513\n      jumpi\n        /* \"#utility.yul\":13643:13661   */\n      tag_514\n      tag_309\n      jump\t// in\n    tag_514:\n        /* \"#utility.yul\":13612:13663   */\n    tag_513:\n        /* \"#utility.yul\":13692:13696   */\n      dup2\n        /* \"#utility.yul\":13685:13690   */\n      dup2\n        /* \"#utility.yul\":13681:13697   */\n      mul\n        /* \"#utility.yul\":13672:13697   */\n      swap1\n      pop\n        /* \"#utility.yul\":12630:13703   */\n    tag_499:\n      swap4\n      swap3\n      pop\n      pop\n      pop\n      jump\t// out\n        /* \"#utility.yul\":13709:13795   */\n    tag_314:\n        /* \"#utility.yul\":13744:13751   */\n      0x00\n        /* \"#utility.yul\":13784:13788   */\n      0xff\n        /* \"#utility.yul\":13777:13782   */\n      dup3\n        /* \"#utility.yul\":13773:13789   */\n      and\n        /* \"#utility.yul\":13762:13789   */\n      swap1\n      pop\n        /* \"#utility.yul\":13709:13795   */\n      swap2\n      swap1\n      pop\n      jump\t// out\n        /* \"#utility.yul\":13801:14082   */\n    tag_96:\n        /* \"#utility.yul\":13859:13864   */\n      0x00\n        /* \"#utility.yul\":13883:13906   */\n      tag_517\n        /* \"#utility.yul\":13901:13905   */\n      dup3\n        /* \"#utility.yul\":13883:13906   */\n      tag_276\n      jump\t// in\n    tag_517:\n        /* \"#utility.yul\":13875:13906   */\n      swap2\n      pop\n        /* \"#utility.yul\":13927:13952   */\n      tag_518\n        /* \"#utility.yul\":13943:13951   */\n      dup4\n        /* \"#utility.yul\":13927:13952   */\n      tag_314\n      jump\t// in\n    tag_518:\n        /* \"#utility.yul\":13915:13952   */\n      swap3\n      pop\n        /* \"#utility.yul\":13971:14075   */\n      tag_519\n        /* \"#utility.yul\":14008:14074   */\n      0xffffffffffffffffffffffffffffffffffffffffffffffffffffffffffffffff\n        /* \"#utility.yul\":13998:14006   */\n      dup5\n        /* \"#utility.yul\":13992:13996   */\n      dup5\n        /* \"#utility.yul\":13971:14075   */\n      tag_313\n      jump\t// in\n    tag_519:\n        /* \"#utility.yul\":13962:14075   */\n      swap1\n      pop\n        /* \"#utility.yul\":13801:14082   */\n      swap3\n      swap2\n      pop\n      pop\n      jump\t// out\n        /* \"#utility.yul\":14088:14498   */\n    tag_102:\n        /* \"#utility.yul\":14128:14135   */\n      0x00\n        /* \"#utility.yul\":14151:14171   */\n      tag_521\n        /* \"#utility.yul\":14169:14170   */\n      dup3\n        /* \"#utility.yul\":14151:14171   */\n      tag_276\n      jump\t// in\n    tag_521:\n        /* \"#utility.yul\":14146:14171   */\n      swap2\n      pop\n        /* \"#utility.yul\":14185:14205   */\n      tag_522\n        /* \"#utility.yul\":14203:14204   */\n      dup4\n        /* \"#utility.yul\":14185:14205   */\n      tag_276\n      jump\t// in\n    tag_522:\n        /* \"#utility.yul\":14180:14205   */\n      swap3\n      pop\n        /* \"#utility.yul\":14240:14241   */\n      dup3\n        /* \"#utility.yul\":14237:14238   */\n      dup3\n        /* \"#utility.yul\":14233:14242   */\n      mul\n        /* \"#utility.yul\":14262:14292   */\n      tag_523\n        /* \"#utility.yul\":14280:14291   */\n      dup2\n        /* \"#utility.yul\":14262:14292   */\n      tag_276\n      jump\t// in\n    tag_523:\n        /* \"#utility.yul\":14251:14292   */\n      swap2\n      pop\n        /* \"#utility.yul\":14441:14442   */\n      dup3\n        /* \"#utility.yul\":14432:14439   */\n      dup3\n        /* \"#utility.yul\":14428:14443   */\n      div\n        /* \"#utility.yul\":14425:14426   */\n      dup5\n        /* \"#utility.yul\":14422:14444   */\n      eq\n        /* \"#utility.yul\":14402:14403   */\n      dup4\n        /* \"#utility.yul\":14395:14404   */\n      iszero\n        /* \"#utility.yul\":14375:14458   */\n      or\n        /* \"#utility.yul\":14352:14491   */\n      tag_524\n      jumpi\n        /* \"#utility.yul\":14471:14489   */\n      tag_525\n      tag_309\n      jump\t// in\n    tag_525:\n        /* \"#utility.yul\":14352:14491   */\n    tag_524:\n        /* \"#utility.yul\":14136:14498   */\n      pop\n        /* \"#utility.yul\":14088:14498   */\n      swap3\n      swap2\n      pop\n      pop\n      jump\t// out\n        /* \"#utility.yul\":14504:14698   */\n    tag_104:\n        /* \"#utility.yul\":14544:14548   */\n      0x00\n        /* \"#utility.yul\":14564:14584   */\n      tag_527\n        /* \"#utility.yul\":14582:14583   */\n      dup3\n        /* \"#utility.yul\":14564:14584   */\n      tag_276\n      jump\t// in\n    tag_527:\n        /* \"#utility.yul\":14559:14584   */\n      swap2\n      pop\n        /* \"#utility.yul\":14598:14618   */\n      tag_528\n        /* \"#utility.yul\":14616:14617   */\n      dup4\n        /* \"#utility.yul\":14598:14618   */\n      tag_276\n      jump\t// in\n    tag_528:\n        /* \"#utility.yul\":14593:14618   */\n      swap3\n      pop\n        /* \"#utility.yul\":14642:14643   */\n      dup3\n        /* \"#utility.yul\":14639:14640   */\n      dup3\n        /* \"#utility.yul\":14635:14644   */\n      sub\n        /* \"#utility.yul\":14627:14644   */\n      swap1\n      pop\n        /* \"#utility.yul\":14666:14667   */\n      dup2\n        /* \"#utility.yul\":14660:14664   */\n      dup2\n        /* \"#utility.yul\":14657:14668   */\n      gt\n        /* \"#utility.yul\":14654:14691   */\n      iszero\n      tag_529\n      jumpi\n        /* \"#utility.yul\":14671:14689   */\n      tag_530\n      tag_309\n      jump\t// in\n    tag_530:\n        /* \"#utility.yul\":14654:14691   */\n    tag_529:\n        /* \"#utility.yul\":14504:14698   */\n      swap3\n      swap2\n      pop\n      pop\n      jump\t// out\n        /* \"#utility.yul\":14704:14820   */\n    tag_315:\n        /* \"#utility.yul\":14774:14795   */\n      tag_532\n        /* \"#utility.yul\":14789:14794   */\n      dup2\n        /* \"#utility.yul\":14774:14795   */\n      tag_283\n      jump\t// in\n    tag_532:\n        /* \"#utility.yul\":14767:14772   */\n      dup2\n        /* \"#utility.yul\":14764:14796   */\n      eq\n        /* \"#utility.yul\":14754:14814   */\n      tag_533\n      jumpi\n        /* \"#utility.yul\":14810:14811   */\n      0x00\n        /* \"#utility.yul\":14807:14808   */\n      0x00\n        /* \"#utility.yul\":14800:14812   */\n      revert\n        /* \"#utility.yul\":14754:14814   */\n    tag_533:\n        /* \"#utility.yul\":14704:14820   */\n      pop\n      jump\t// out\n        /* \"#utility.yul\":14826:14963   */\n    tag_316:\n        /* \"#utility.yul\":14880:14885   */\n      0x00\n        /* \"#utility.yul\":14911:14917   */\n      dup2\n        /* \"#utility.yul\":14905:14918   */\n      mload\n        /* \"#utility.yul\":14896:14918   */\n      swap1\n      pop\n        /* \"#utility.yul\":14927:14957   */\n      tag_535\n        /* \"#utility.yul\":14951:14956   */\n      dup2\n        /* \"#utility.yul\":14927:14957   */\n      tag_315\n      jump\t// in\n    tag_535:\n        /* \"#utility.yul\":14826:14963   */\n      swap3\n      swap2\n      pop\n      pop\n      jump\t// out\n        /* \"#utility.yul\":14969:15314   */\n    tag_110:\n        /* \"#utility.yul\":15036:15042   */\n      0x00\n        /* \"#utility.yul\":15085:15087   */\n      0x20\n        /* \"#utility.yul\":15073:15082   */\n      dup3\n        /* \"#utility.yul\":15064:15071   */\n      dup5\n        /* \"#utility.yul\":15060:15083   */\n      sub\n        /* \"#utility.yul\":15056:15088   */\n      slt\n        /* \"#utility.yul\":15053:15172   */\n      iszero\n      tag_537\n      jumpi\n        /* \"#utility.yul\":15091:15170   */\n      tag_538\n      tag_279\n      jump\t// in\n    tag_538:\n        /* \"#utility.yul\":15053:15172   */\n    tag_537:\n        /* \"#utility.yul\":15211:15212   */\n      0x00\n        /* \"#utility.yul\":15236:15297   */\n      tag_539\n        /* \"#utility.yul\":15289:15296   */\n      dup5\n        /* \"#utility.yul\":15280:15286   */\n      dup3\n        /* \"#utility.yul\":15269:15278   */\n      dup6\n        /* \"#utility.yul\":15265:15287   */\n      add\n        /* \"#utility.yul\":15236:15297   */\n      tag_316\n      jump\t// in\n    tag_539:\n        /* \"#utility.yul\":15226:15297   */\n      swap2\n      pop\n        /* \"#utility.yul\":15182:15307   */\n      pop\n        /* \"#utility.yul\":14969:15314   */\n      swap3\n      swap2\n      pop\n      pop\n      jump\t// out\n        /* \"#utility.yul\":15320:15496   */\n    tag_116:\n        /* \"#utility.yul\":15352:15353   */\n      0x00\n        /* \"#utility.yul\":15369:15389   */\n      tag_541\n        /* \"#utility.yul\":15387:15388   */\n      dup3\n        /* \"#utility.yul\":15369:15389   */\n      tag_276\n      jump\t// in\n    tag_541:\n        /* \"#utility.yul\":15364:15389   */\n      swap2\n      pop\n        /* \"#utility.yul\":15403:15423   */\n      tag_542\n        /* \"#utility.yul\":15421:15422   */\n      dup4\n        /* \"#utility.yul\":15403:15423   */\n      tag_276\n      jump\t// in\n    tag_542:\n        /* \"#utility.yul\":15398:15423   */\n      swap3\n      pop\n        /* \"#utility.yul\":15442:15443   */\n      dup3\n        /* \"#utility.yul\":15432:15467   */\n      tag_543\n      jumpi\n        /* \"#utility.yul\":15447:15465   */\n      tag_544\n      tag_310\n      jump\t// in\n    tag_544:\n        /* \"#utility.yul\":15432:15467   */\n    tag_543:\n        /* \"#utility.yul\":15488:15489   */\n      dup3\n        /* \"#utility.yul\":15485:15486   */\n      dup3\n        /* \"#utility.yul\":15481:15490   */\n      mod\n        /* \"#utility.yul\":15476:15490   */\n      swap1\n      pop\n        /* \"#utility.yul\":15320:15496   */\n      swap3\n      swap2\n      pop\n      pop\n      jump\t// out\n        /* \"#utility.yul\":15502:15671   */\n    tag_317:\n        /* \"#utility.yul\":15586:15597   */\n      0x00\n        /* \"#utility.yul\":15620:15626   */\n      dup3\n        /* \"#utility.yul\":15615:15618   */\n      dup3\n        /* \"#utility.yul\":15608:15627   */\n      mstore\n        /* \"#utility.yul\":15660:15664   */\n      0x20\n        /* \"#utility.yul\":15655:15658   */\n      dup3\n        /* \"#utility.yul\":15651:15665   */\n      add\n        /* \"#utility.yul\":15636:15665   */\n      swap1\n      pop\n        /* \"#utility.yul\":15502:15671   */\n      swap3\n      swap2\n      pop\n      pop\n      jump\t// out\n        /* \"#utility.yul\":15677:15839   */\n    tag_318:\n        /* \"#utility.yul\":15817:15831   */\n      0x746f6f206c657373206665650000000000000000000000000000000000000000\n        /* \"#utility.yul\":15813:15814   */\n      0x00\n        /* \"#utility.yul\":15805:15811   */\n      dup3\n        /* \"#utility.yul\":15801:15815   */\n      add\n        /* \"#utility.yul\":15794:15832   */\n      mstore\n        /* \"#utility.yul\":15677:15839   */\n      pop\n      jump\t// out\n        /* \"#utility.yul\":15845:16211   */\n    tag_319:\n        /* \"#utility.yul\":15987:15990   */\n      0x00\n        /* \"#utility.yul\":16008:16075   */\n      tag_548\n        /* \"#utility.yul\":16072:16074   */\n      0x0c\n        /* \"#utility.yul\":16067:16070   */\n      dup4\n        /* \"#utility.yul\":16008:16075   */\n      tag_317\n      jump\t// in\n    tag_548:\n        /* \"#utility.yul\":16001:16075   */\n      swap2\n      pop\n        /* \"#utility.yul\":16084:16177   */\n      tag_549\n        /* \"#utility.yul\":16173:16176   */\n      dup3\n        /* \"#utility.yul\":16084:16177   */\n      tag_318\n      jump\t// in\n    tag_549:\n        /* \"#utility.yul\":16202:16204   */\n      0x20\n        /* \"#utility.yul\":16197:16200   */\n      dup3\n        /* \"#utility.yul\":16193:16205   */\n      add\n        /* \"#utility.yul\":16186:16205   */\n      swap1\n      pop\n        /* \"#utility.yul\":15845:16211   */\n      swap2\n      swap1\n      pop\n      jump\t// out\n        /* \"#utility.yul\":16217:16636   */\n    tag_119:\n        /* \"#utility.yul\":16383:16387   */\n      0x00\n        /* \"#utility.yul\":16421:16423   */\n      0x20\n        /* \"#utility.yul\":16410:16419   */\n      dup3\n        /* \"#utility.yul\":16406:16424   */\n      add\n        /* \"#utility.yul\":16398:16424   */\n      swap1\n      pop\n        /* \"#utility.yul\":16470:16479   */\n      dup2\n        /* \"#utility.yul\":16464:16468   */\n      dup2\n        /* \"#utility.yul\":16460:16480   */\n      sub\n        /* \"#utility.yul\":16456:16457   */\n      0x00\n        /* \"#utility.yul\":16445:16454   */\n      dup4\n        /* \"#utility.yul\":16441:16458   */\n      add\n        /* \"#utility.yul\":16434:16481   */\n      mstore\n        /* \"#utility.yul\":16498:16629   */\n      tag_551\n        /* \"#utility.yul\":16624:16628   */\n      dup2\n        /* \"#utility.yul\":16498:16629   */\n      tag_319\n      jump\t// in\n    tag_551:\n        /* \"#utility.yul\":16490:16629   */\n      swap1\n      pop\n        /* \"#utility.yul\":16217:16636   */\n      swap2\n      swap1\n      pop\n      jump\t// out\n        /* \"#utility.yul\":16642:16808   */\n    tag_320:\n        /* \"#utility.yul\":16782:16800   */\n      0x6e6f7420656e6f756768206d6f6e657900000000000000000000000000000000\n        /* \"#utility.yul\":16778:16779   */\n      0x00\n        /* \"#utility.yul\":16770:16776   */\n      dup3\n        /* \"#utility.yul\":16766:16780   */\n      add\n        /* \"#utility.yul\":16759:16801   */\n      mstore\n        /* \"#utility.yul\":16642:16808   */\n      pop\n      jump\t// out\n        /* \"#utility.yul\":16814:17180   */\n    tag_321:\n        /* \"#utility.yul\":16956:16959   */\n      0x00\n        /* \"#utility.yul\":16977:17044   */\n      tag_554\n        /* \"#utility.yul\":17041:17043   */\n      0x10\n        /* \"#utility.yul\":17036:17039   */\n      dup4\n        /* \"#utility.yul\":16977:17044   */\n      tag_317\n      jump\t// in\n    tag_554:\n        /* \"#utility.yul\":16970:17044   */\n      swap2\n      pop\n        /* \"#utility.yul\":17053:17146   */\n      tag_555\n        /* \"#utility.yul\":17142:17145   */\n      dup3\n        /* \"#utility.yul\":17053:17146   */\n      tag_320\n      jump\t// in\n    tag_555:\n        /* \"#utility.yul\":17171:17173   */\n      0x20\n        /* \"#utility.yul\":17166:17169   */\n      dup3\n        /* \"#utility.yul\":17162:17174   */\n      add\n        /* \"#utility.yul\":17155:17174   */\n      swap1\n      pop\n        /* \"#utility.yul\":16814:17180   */\n      swap2\n      swap1\n      pop\n      jump\t// out\n        /* \"#utility.yul\":17186:17605   */\n    tag_122:\n        /* \"#utility.yul\":17352:17356   */\n      0x00\n        /* \"#utility.yul\":17390:17392   */\n      0x20\n        /* \"#utility.yul\":17379:17388   */\n      dup3\n        /* \"#utility.yul\":17375:17393   */\n      add\n        /* \"#utility.yul\":17367:17393   */\n      swap1\n      pop\n        /* \"#utility.yul\":17439:17448   */\n      dup2\n        /* \"#utility.yul\":17433:17437   */\n      dup2\n        /* \"#utility.yul\":17429:17449   */\n      sub\n        /* \"#utility.yul\":17425:17426   */\n      0x00\n        /* \"#utility.yul\":17414:17423   */\n      dup4\n        /* \"#utility.yul\":17410:17427   */\n      add\n        /* \"#utility.yul\":17403:17450   */\n      mstore\n        /* \"#utility.yul\":17467:17598   */\n      tag_557\n        /* \"#utility.yul\":17593:17597   */\n      dup2\n        /* \"#utility.yul\":17467:17598   */\n      tag_321\n      jump\t// in\n    tag_557:\n        /* \"#utility.yul\":17459:17598   */\n      swap1\n      pop\n        /* \"#utility.yul\":17186:17605   */\n      swap2\n      swap1\n      pop\n      jump\t// out\n        /* \"#utility.yul\":17611:17710   */\n    tag_322:\n        /* \"#utility.yul\":17663:17669   */\n      0x00\n        /* \"#utility.yul\":17697:17702   */\n      dup2\n        /* \"#utility.yul\":17691:17703   */\n      mload\n        /* \"#utility.yul\":17681:17703   */\n      swap1\n      pop\n        /* \"#utility.yul\":17611:17710   */\n      swap2\n      swap1\n      pop\n      jump\t// out\n        /* \"#utility.yul\":17716:17896   */\n    tag_323:\n        /* \"#utility.yul\":17764:17841   */\n      0x4e487b7100000000000000000000000000000000000000000000000000000000\n        /* \"#utility.yul\":17761:17762   */\n      0x00\n        /* \"#utility.yul\":17754:17842   */\n      mstore\n        /* \"#utility.yul\":17861:17865   */\n      0x22\n        /* \"#utility.yul\":17858:17859   */\n      0x04\n        /* \"#utility.yul\":17851:17866   */\n      mstore\n        /* \"#utility.yul\":17885:17889   */\n      0x24\n        /* \"#utility.yul\":17882:17883   */\n      0x00\n        /* \"#utility.yul\":17875:17890   */\n      revert\n        /* \"#utility.yul\":17902:18222   */\n    tag_324:\n        /* \"#utility.yul\":17946:17952   */\n      0x00\n        /* \"#utility.yul\":17983:17984   */\n      0x02\n        /* \"#utility.yul\":17977:17981   */\n      dup3\n        /* \"#utility.yul\":17973:17985   */\n      div\n        /* \"#utility.yul\":17963:17985   */\n      swap1\n      pop\n        /* \"#utility.yul\":18030:18031   */\n      0x01\n        /* \"#utility.yul\":18024:18028   */\n      dup3\n        /* \"#utility.yul\":18020:18032   */\n      and\n        /* \"#utility.yul\":18051:18069   */\n      dup1\n        /* \"#utility.yul\":18041:18122   */\n      tag_561\n      jumpi\n        /* \"#utility.yul\":18107:18111   */\n      0x7f\n        /* \"#utility.yul\":18099:18105   */\n      dup3\n        /* \"#utility.yul\":18095:18112   */\n      and\n        /* \"#utility.yul\":18085:18112   */\n      swap2\n      pop\n        /* \"#utility.yul\":18041:18122   */\n    tag_561:\n        /* \"#utility.yul\":18169:18171   */\n      0x20\n        /* \"#utility.yul\":18161:18167   */\n      dup3\n        /* \"#utility.yul\":18158:18172   */\n      lt\n        /* \"#utility.yul\":18138:18156   */\n      dup2\n        /* \"#utility.yul\":18135:18173   */\n      sub\n        /* \"#utility.yul\":18132:18216   */\n      tag_562\n      jumpi\n        /* \"#utility.yul\":18188:18206   */\n      tag_563\n      tag_323\n      jump\t// in\n    tag_563:\n        /* \"#utility.yul\":18132:18216   */\n    tag_562:\n        /* \"#utility.yul\":17953:18222   */\n      pop\n        /* \"#utility.yul\":17902:18222   */\n      swap2\n      swap1\n      pop\n      jump\t// out\n        /* \"#utility.yul\":18228:18369   */\n    tag_325:\n        /* \"#utility.yul\":18277:18281   */\n      0x00\n        /* \"#utility.yul\":18300:18303   */\n      dup2\n        /* \"#utility.yul\":18292:18303   */\n      swap1\n      pop\n        /* \"#utility.yul\":18323:18326   */\n      dup2\n        /* \"#utility.yul\":18320:18321   */\n      0x00\n        /* \"#utility.yul\":18313:18327   */\n      mstore\n        /* \"#utility.yul\":18357:18361   */\n      0x20\n        /* \"#utility.yul\":18354:18355   */\n      0x00\n        /* \"#utility.yul\":18344:18362   */\n      keccak256\n        /* \"#utility.yul\":18336:18362   */\n      swap1\n      pop\n        /* \"#utility.yul\":18228:18369   */\n      swap2\n      swap1\n      pop\n      jump\t// out\n        /* \"#utility.yul\":18375:18468   */\n    tag_326:\n        /* \"#utility.yul\":18412:18418   */\n      0x00\n        /* \"#utility.yul\":18459:18461   */\n      0x20\n        /* \"#utility.yul\":18454:18456   */\n      0x1f\n        /* \"#utility.yul\":18447:18452   */\n      dup4\n        /* \"#utility.yul\":18443:18457   */\n      add\n        /* \"#utility.yul\":18439:18462   */\n      div\n        /* \"#utility.yul\":18429:18462   */\n      swap1\n      pop\n        /* \"#utility.yul\":18375:18468   */\n      swap2\n      swap1\n      pop\n      jump\t// out\n        /* \"#utility.yul\":18474:18581   */\n    tag_327:\n        /* \"#utility.yul\":18518:18526   */\n      0x00\n        /* \"#utility.yul\":18568:18573   */\n      dup3\n        /* \"#utility.yul\":18562:18566   */\n      dup3\n        /* \"#utility.yul\":18558:18574   */\n      shl\n        /* \"#utility.yul\":18537:18574   */\n      swap1\n      pop\n        /* \"#utility.yul\":18474:18581   */\n      swap3\n      swap2\n      pop\n      pop\n      jump\t// out\n        /* \"#utility.yul\":18587:18980   */\n    tag_328:\n        /* \"#utility.yul\":18656:18662   */\n      0x00\n        /* \"#utility.yul\":18706:18707   */\n      0x08\n        /* \"#utility.yul\":18694:18704   */\n      dup4\n        /* \"#utility.yul\":18690:18708   */\n      mul\n        /* \"#utility.yul\":18729:18826   */\n      tag_568\n        /* \"#utility.yul\":18759:18825   */\n      0xffffffffffffffffffffffffffffffffffffffffffffffffffffffffffffffff\n        /* \"#utility.yul\":18748:18757   */\n      dup3\n        /* \"#utility.yul\":18729:18826   */\n      tag_327\n      jump\t// in\n    tag_568:\n        /* \"#utility.yul\":18847:18886   */\n      tag_569\n        /* \"#utility.yul\":18877:18885   */\n      dup7\n        /* \"#utility.yul\":18866:18875   */\n      dup4\n        /* \"#utility.yul\":18847:18886   */\n      tag_327\n      jump\t// in\n    tag_569:\n        /* \"#utility.yul\":18835:18886   */\n      swap6\n      pop\n        /* \"#utility.yul\":18919:18923   */\n      dup1\n        /* \"#utility.yul\":18915:18924   */\n      not\n        /* \"#utility.yul\":18908:18913   */\n      dup5\n        /* \"#utility.yul\":18904:18925   */\n      and\n        /* \"#utility.yul\":18895:18925   */\n      swap4\n      pop\n        /* \"#utility.yul\":18968:18972   */\n      dup1\n        /* \"#utility.yul\":18958:18966   */\n      dup7\n        /* \"#utility.yul\":18954:18973   */\n      and\n        /* \"#utility.yul\":18947:18952   */\n      dup5\n        /* \"#utility.yul\":18944:18974   */\n      or\n        /* \"#utility.yul\":18934:18974   */\n      swap3\n      pop\n        /* \"#utility.yul\":18663:18980   */\n      pop\n      pop\n        /* \"#utility.yul\":18587:18980   */\n      swap4\n      swap3\n      pop\n      pop\n      pop\n      jump\t// out\n        /* \"#utility.yul\":18986:19046   */\n    tag_329:\n        /* \"#utility.yul\":19014:19017   */\n      0x00\n        /* \"#utility.yul\":19035:19040   */\n      dup2\n        /* \"#utility.yul\":19028:19040   */\n      swap1\n      pop\n        /* \"#utility.yul\":18986:19046   */\n      swap2\n      swap1\n      pop\n      jump\t// out\n        /* \"#utility.yul\":19052:19194   */\n    tag_330:\n        /* \"#utility.yul\":19102:19111   */\n      0x00\n        /* \"#utility.yul\":19135:19188   */\n      tag_572\n        /* \"#utility.yul\":19153:19187   */\n      tag_573\n        /* \"#utility.yul\":19162:19186   */\n      tag_574\n        /* \"#utility.yul\":19180:19185   */\n      dup5\n        /* \"#utility.yul\":19162:19186   */\n      tag_276\n      jump\t// in\n    tag_574:\n        /* \"#utility.yul\":19153:19187   */\n      tag_329\n      jump\t// in\n    tag_573:\n        /* \"#utility.yul\":19135:19188   */\n      tag_276\n      jump\t// in\n    tag_572:\n        /* \"#utility.yul\":19122:19188   */\n      swap1\n      pop\n        /* \"#utility.yul\":19052:19194   */\n      swap2\n      swap1\n      pop\n      jump\t// out\n        /* \"#utility.yul\":19200:19275   */\n    tag_331:\n        /* \"#utility.yul\":19243:19246   */\n      0x00\n        /* \"#utility.yul\":19264:19269   */\n      dup2\n        /* \"#utility.yul\":19257:19269   */\n      swap1\n      pop\n        /* \"#utility.yul\":19200:19275   */\n      swap2\n      swap1\n      pop\n      jump\t// out\n        /* \"#utility.yul\":19281:19550   */\n    tag_332:\n        /* \"#utility.yul\":19391:19430   */\n      tag_577\n        /* \"#utility.yul\":19422:19429   */\n      dup4\n        /* \"#utility.yul\":19391:19430   */\n      tag_330\n      jump\t// in\n    tag_577:\n        /* \"#utility.yul\":19452:19543   */\n      tag_578\n        /* \"#utility.yul\":19501:19542   */\n      tag_579\n        /* \"#utility.yul\":19525:19541   */\n      dup3\n        /* \"#utility.yul\":19501:19542   */\n      tag_331\n      jump\t// in\n    tag_579:\n        /* \"#utility.yul\":19493:19499   */\n      dup5\n        /* \"#utility.yul\":19486:19490   */\n      dup5\n        /* \"#utility.yul\":19480:19491   */\n      sload\n        /* \"#utility.yul\":19452:19543   */\n      tag_328\n      jump\t// in\n    tag_578:\n        /* \"#utility.yul\":19446:19450   */\n      dup3\n        /* \"#utility.yul\":19439:19544   */\n      sstore\n        /* \"#utility.yul\":19357:19550   */\n      pop\n        /* \"#utility.yul\":19281:19550   */\n      pop\n      pop\n      pop\n      jump\t// out\n        /* \"#utility.yul\":19556:19629   */\n    tag_333:\n        /* \"#utility.yul\":19601:19604   */\n      0x00\n        /* \"#utility.yul\":19622:19623   */\n      0x00\n        /* \"#utility.yul\":19615:19623   */\n      swap1\n      pop\n        /* \"#utility.yul\":19556:19629   */\n      swap1\n      jump\t// out\n        /* \"#utility.yul\":19635:19824   */\n    tag_334:\n        /* \"#utility.yul\":19712:19744   */\n      tag_582\n      tag_333\n      jump\t// in\n    tag_582:\n        /* \"#utility.yul\":19753:19818   */\n      tag_583\n        /* \"#utility.yul\":19811:19817   */\n      dup2\n        /* \"#utility.yul\":19803:19809   */\n      dup5\n        /* \"#utility.yul\":19797:19801   */\n      dup5\n        /* \"#utility.yul\":19753:19818   */\n      tag_332\n      jump\t// in\n    tag_583:\n        /* \"#utility.yul\":19688:19824   */\n      pop\n        /* \"#utility.yul\":19635:19824   */\n      pop\n      pop\n      jump\t// out\n        /* \"#utility.yul\":19830:20016   */\n    tag_335:\n        /* \"#utility.yul\":19890:20010   */\n    tag_585:\n        /* \"#utility.yul\":19907:19910   */\n      dup2\n        /* \"#utility.yul\":19900:19905   */\n      dup2\n        /* \"#utility.yul\":19897:19911   */\n      lt\n        /* \"#utility.yul\":19890:20010   */\n      iszero\n      tag_587\n      jumpi\n        /* \"#utility.yul\":19961:20000   */\n      tag_588\n        /* \"#utility.yul\":19998:19999   */\n      0x00\n        /* \"#utility.yul\":19991:19996   */\n      dup3\n        /* \"#utility.yul\":19961:20000   */\n      tag_334\n      jump\t// in\n    tag_588:\n        /* \"#utility.yul\":19934:19935   */\n      0x01\n        /* \"#utility.yul\":19927:19932   */\n      dup2\n        /* \"#utility.yul\":19923:19936   */\n      add\n        /* \"#utility.yul\":19914:19936   */\n      swap1\n      pop\n        /* \"#utility.yul\":19890:20010   */\n      jump(tag_585)\n    tag_587:\n        /* \"#utility.yul\":19830:20016   */\n      pop\n      pop\n      jump\t// out\n        /* \"#utility.yul\":20022:20565   */\n    tag_336:\n        /* \"#utility.yul\":20123:20125   */\n      0x1f\n        /* \"#utility.yul\":20118:20121   */\n      dup3\n        /* \"#utility.yul\":20115:20126   */\n      gt\n        /* \"#utility.yul\":20112:20558   */\n      iszero\n      tag_590\n      jumpi\n        /* \"#utility.yul\":20157:20195   */\n      tag_591\n        /* \"#utility.yul\":20189:20194   */\n      dup2\n        /* \"#utility.yul\":20157:20195   */\n      tag_325\n      jump\t// in\n    tag_591:\n        /* \"#utility.yul\":20241:20270   */\n      tag_592\n        /* \"#utility.yul\":20259:20269   */\n      dup5\n        /* \"#utility.yul\":20241:20270   */\n      tag_326\n      jump\t// in\n    tag_592:\n        /* \"#utility.yul\":20231:20239   */\n      dup2\n        /* \"#utility.yul\":20227:20271   */\n      add\n        /* \"#utility.yul\":20424:20426   */\n      0x20\n        /* \"#utility.yul\":20412:20422   */\n      dup6\n        /* \"#utility.yul\":20409:20427   */\n      lt\n        /* \"#utility.yul\":20406:20455   */\n      iszero\n      tag_593\n      jumpi\n        /* \"#utility.yul\":20445:20453   */\n      dup2\n        /* \"#utility.yul\":20430:20453   */\n      swap1\n      pop\n        /* \"#utility.yul\":20406:20455   */\n    tag_593:\n        /* \"#utility.yul\":20468:20548   */\n      tag_594\n        /* \"#utility.yul\":20524:20546   */\n      tag_595\n        /* \"#utility.yul\":20542:20545   */\n      dup6\n        /* \"#utility.yul\":20524:20546   */\n      tag_326\n      jump\t// in\n    tag_595:\n        /* \"#utility.yul\":20514:20522   */\n      dup4\n        /* \"#utility.yul\":20510:20547   */\n      add\n        /* \"#utility.yul\":20497:20508   */\n      dup3\n        /* \"#utility.yul\":20468:20548   */\n      tag_335\n      jump\t// in\n    tag_594:\n        /* \"#utility.yul\":20127:20558   */\n      pop\n      pop\n        /* \"#utility.yul\":20112:20558   */\n    tag_590:\n        /* \"#utility.yul\":20022:20565   */\n      pop\n      pop\n      pop\n      jump\t// out\n        /* \"#utility.yul\":20571:20688   */\n    tag_337:\n        /* \"#utility.yul\":20625:20633   */\n      0x00\n        /* \"#utility.yul\":20675:20680   */\n      dup3\n        /* \"#utility.yul\":20669:20673   */\n      dup3\n        /* \"#utility.yul\":20665:20681   */\n      shr\n        /* \"#utility.yul\":20644:20681   */\n      swap1\n      pop\n        /* \"#utility.yul\":20571:20688   */\n      swap3\n      swap2\n      pop\n      pop\n      jump\t// out\n        /* \"#utility.yul\":20694:20863   */\n    tag_338:\n        /* \"#utility.yul\":20738:20744   */\n      0x00\n        /* \"#utility.yul\":20771:20822   */\n      tag_598\n        /* \"#utility.yul\":20819:20820   */\n      0x00\n        /* \"#utility.yul\":20815:20821   */\n      not\n        /* \"#utility.yul\":20807:20812   */\n      dup5\n        /* \"#utility.yul\":20804:20805   */\n      0x08\n        /* \"#utility.yul\":20800:20813   */\n      mul\n        /* \"#utility.yul\":20771:20822   */\n      tag_337\n      jump\t// in\n    tag_598:\n        /* \"#utility.yul\":20767:20823   */\n      not\n        /* \"#utility.yul\":20852:20856   */\n      dup1\n        /* \"#utility.yul\":20846:20850   */\n      dup4\n        /* \"#utility.yul\":20842:20857   */\n      and\n        /* \"#utility.yul\":20832:20857   */\n      swap2\n      pop\n        /* \"#utility.yul\":20745:20863   */\n      pop\n        /* \"#utility.yul\":20694:20863   */\n      swap3\n      swap2\n      pop\n      pop\n      jump\t// out\n        /* \"#utility.yul\":20868:21163   */\n    tag_339:\n        /* \"#utility.yul\":20944:20948   */\n      0x00\n        /* \"#utility.yul\":21090:21119   */\n      tag_600\n        /* \"#utility.yul\":21115:21118   */\n      dup4\n        /* \"#utility.yul\":21109:21113   */\n      dup4\n        /* \"#utility.yul\":21090:21119   */\n      tag_338\n      jump\t// in\n    tag_600:\n        /* \"#utility.yul\":21082:21119   */\n      swap2\n      pop\n        /* \"#utility.yul\":21152:21155   */\n      dup3\n        /* \"#utility.yul\":21149:21150   */\n      0x02\n        /* \"#utility.yul\":21145:21156   */\n      mul\n        /* \"#utility.yul\":21139:21143   */\n      dup3\n        /* \"#utility.yul\":21136:21157   */\n      or\n        /* \"#utility.yul\":21128:21157   */\n      swap1\n      pop\n        /* \"#utility.yul\":20868:21163   */\n      swap3\n      swap2\n      pop\n      pop\n      jump\t// out\n        /* \"#utility.yul\":21168:22563   */\n    tag_139:\n        /* \"#utility.yul\":21285:21322   */\n      tag_602\n        /* \"#utility.yul\":21318:21321   */\n      dup3\n        /* \"#utility.yul\":21285:21322   */\n      tag_322\n      jump\t// in\n    tag_602:\n        /* \"#utility.yul\":21387:21405   */\n      0xffffffffffffffff\n        /* \"#utility.yul\":21379:21385   */\n      dup2\n        /* \"#utility.yul\":21376:21406   */\n      gt\n        /* \"#utility.yul\":21373:21429   */\n      iszero\n      tag_603\n      jumpi\n        /* \"#utility.yul\":21409:21427   */\n      tag_604\n      tag_131\n      jump\t// in\n    tag_604:\n        /* \"#utility.yul\":21373:21429   */\n    tag_603:\n        /* \"#utility.yul\":21453:21491   */\n      tag_605\n        /* \"#utility.yul\":21485:21489   */\n      dup3\n        /* \"#utility.yul\":21479:21490   */\n      sload\n        /* \"#utility.yul\":21453:21491   */\n      tag_324\n      jump\t// in\n    tag_605:\n        /* \"#utility.yul\":21538:21605   */\n      tag_606\n        /* \"#utility.yul\":21598:21604   */\n      dup3\n        /* \"#utility.yul\":21590:21596   */\n      dup3\n        /* \"#utility.yul\":21584:21588   */\n      dup6\n        /* \"#utility.yul\":21538:21605   */\n      tag_336\n      jump\t// in\n    tag_606:\n        /* \"#utility.yul\":21632:21633   */\n      0x00\n        /* \"#utility.yul\":21656:21660   */\n      0x20\n        /* \"#utility.yul\":21643:21660   */\n      swap1\n      pop\n        /* \"#utility.yul\":21688:21690   */\n      0x1f\n        /* \"#utility.yul\":21680:21686   */\n      dup4\n        /* \"#utility.yul\":21677:21691   */\n      gt\n        /* \"#utility.yul\":21705:21706   */\n      0x01\n        /* \"#utility.yul\":21700:22318   */\n      dup2\n      eq\n      tag_608\n      jumpi\n        /* \"#utility.yul\":22362:22363   */\n      0x00\n        /* \"#utility.yul\":22379:22385   */\n      dup5\n        /* \"#utility.yul\":22376:22453   */\n      iszero\n      tag_609\n      jumpi\n        /* \"#utility.yul\":22428:22437   */\n      dup3\n        /* \"#utility.yul\":22423:22426   */\n      dup8\n        /* \"#utility.yul\":22419:22438   */\n      add\n        /* \"#utility.yul\":22413:22439   */\n      mload\n        /* \"#utility.yul\":22404:22439   */\n      swap1\n      pop\n        /* \"#utility.yul\":22376:22453   */\n    tag_609:\n        /* \"#utility.yul\":22479:22546   */\n      tag_610\n        /* \"#utility.yul\":22539:22545   */\n      dup6\n        /* \"#utility.yul\":22532:22537   */\n      dup3\n        /* \"#utility.yul\":22479:22546   */\n      tag_339\n      jump\t// in\n    tag_610:\n        /* \"#utility.yul\":22473:22477   */\n      dup7\n        /* \"#utility.yul\":22466:22547   */\n      sstore\n        /* \"#utility.yul\":22335:22557   */\n      pop\n        /* \"#utility.yul\":21670:22557   */\n      jump(tag_607)\n        /* \"#utility.yul\":21700:22318   */\n    tag_608:\n        /* \"#utility.yul\":21752:21756   */\n      0x1f\n        /* \"#utility.yul\":21748:21757   */\n      not\n        /* \"#utility.yul\":21740:21746   */\n      dup5\n        /* \"#utility.yul\":21736:21758   */\n      and\n        /* \"#utility.yul\":21786:21823   */\n      tag_611\n        /* \"#utility.yul\":21818:21822   */\n      dup7\n        /* \"#utility.yul\":21786:21823   */\n      tag_325\n      jump\t// in\n    tag_611:\n        /* \"#utility.yul\":21845:21846   */\n      0x00\n        /* \"#utility.yul\":21859:22067   */\n    tag_612:\n        /* \"#utility.yul\":21873:21880   */\n      dup3\n        /* \"#utility.yul\":21870:21871   */\n      dup2\n        /* \"#utility.yul\":21867:21881   */\n      lt\n        /* \"#utility.yul\":21859:22067   */\n      iszero\n      tag_614\n      jumpi\n        /* \"#utility.yul\":21952:21961   */\n      dup5\n        /* \"#utility.yul\":21947:21950   */\n      dup10\n        /* \"#utility.yul\":21943:21962   */\n      add\n        /* \"#utility.yul\":21937:21963   */\n      mload\n        /* \"#utility.yul\":21929:21935   */\n      dup3\n        /* \"#utility.yul\":21922:21964   */\n      sstore\n        /* \"#utility.yul\":22003:22004   */\n      0x01\n        /* \"#utility.yul\":21995:22001   */\n      dup3\n        /* \"#utility.yul\":21991:22005   */\n      add\n        /* \"#utility.yul\":21981:22005   */\n      swap2\n      pop\n        /* \"#utility.yul\":22050:22052   */\n      0x20\n        /* \"#utility.yul\":22039:22048   */\n      dup6\n        /* \"#utility.yul\":22035:22053   */\n      add\n        /* \"#utility.yul\":22022:22053   */\n      swap5\n      pop\n        /* \"#utility.yul\":21896:21900   */\n      0x20\n        /* \"#utility.yul\":21893:21894   */\n      dup2\n        /* \"#utility.yul\":21889:21901   */\n      add\n        /* \"#utility.yul\":21884:21901   */\n      swap1\n      pop\n        /* \"#utility.yul\":21859:22067   */\n      jump(tag_612)\n    tag_614:\n        /* \"#utility.yul\":22095:22101   */\n      dup7\n        /* \"#utility.yul\":22086:22093   */\n      dup4\n        /* \"#utility.yul\":22083:22102   */\n      lt\n        /* \"#utility.yul\":22080:22259   */\n      iszero\n      tag_615\n      jumpi\n        /* \"#utility.yul\":22153:22162   */\n      dup5\n        /* \"#utility.yul\":22148:22151   */\n      dup10\n        /* \"#utility.yul\":22144:22163   */\n      add\n        /* \"#utility.yul\":22138:22164   */\n      mload\n        /* \"#utility.yul\":22196:22244   */\n      tag_616\n        /* \"#utility.yul\":22238:22242   */\n      0x1f\n        /* \"#utility.yul\":22230:22236   */\n      dup10\n        /* \"#utility.yul\":22226:22243   */\n      and\n        /* \"#utility.yul\":22215:22224   */\n      dup3\n        /* \"#utility.yul\":22196:22244   */\n      tag_338\n      jump\t// in\n    tag_616:\n        /* \"#utility.yul\":22188:22194   */\n      dup4\n        /* \"#utility.yul\":22181:22245   */\n      sstore\n        /* \"#utility.yul\":22103:22259   */\n      pop\n        /* \"#utility.yul\":22080:22259   */\n    tag_615:\n        /* \"#utility.yul\":22305:22306   */\n      0x01\n        /* \"#utility.yul\":22301:22302   */\n      0x02\n        /* \"#utility.yul\":22293:22299   */\n      dup9\n        /* \"#utility.yul\":22289:22303   */\n      mul\n        /* \"#utility.yul\":22285:22307   */\n      add\n        /* \"#utility.yul\":22279:22283   */\n      dup9\n        /* \"#utility.yul\":22272:22308   */\n      sstore\n        /* \"#utility.yul\":21707:22318   */\n      pop\n      pop\n      pop\n        /* \"#utility.yul\":21670:22557   */\n    tag_607:\n      pop\n        /* \"#utility.yul\":21260:22563   */\n      pop\n      pop\n      pop\n        /* \"#utility.yul\":21168:22563   */\n      pop\n      pop\n      jump\t// out\n        /* \"#utility.yul\":22569:22683   */\n    tag_340:\n        /* \"#utility.yul\":22636:22642   */\n      0x00\n        /* \"#utility.yul\":22670:22675   */\n      dup2\n        /* \"#utility.yul\":22664:22676   */\n      mload\n        /* \"#utility.yul\":22654:22676   */\n      swap1\n      pop\n        /* \"#utility.yul\":22569:22683   */\n      swap2\n      swap1\n      pop\n      jump\t// out\n        /* \"#utility.yul\":22689:22873   */\n    tag_341:\n        /* \"#utility.yul\":22788:22799   */\n      0x00\n        /* \"#utility.yul\":22822:22828   */\n      dup3\n        /* \"#utility.yul\":22817:22820   */\n      dup3\n        /* \"#utility.yul\":22810:22829   */\n      mstore\n        /* \"#utility.yul\":22862:22866   */\n      0x20\n        /* \"#utility.yul\":22857:22860   */\n      dup3\n        /* \"#utility.yul\":22853:22867   */\n      add\n        /* \"#utility.yul\":22838:22867   */\n      swap1\n      pop\n        /* \"#utility.yul\":22689:22873   */\n      swap3\n      swap2\n      pop\n      pop\n      jump\t// out\n        /* \"#utility.yul\":22879:23011   */\n    tag_342:\n        /* \"#utility.yul\":22946:22950   */\n      0x00\n        /* \"#utility.yul\":22969:22972   */\n      dup2\n        /* \"#utility.yul\":22961:22972   */\n      swap1\n      pop\n        /* \"#utility.yul\":22999:23003   */\n      0x20\n        /* \"#utility.yul\":22994:22997   */\n      dup3\n        /* \"#utility.yul\":22990:23004   */\n      add\n        /* \"#utility.yul\":22982:23004   */\n      swap1\n      pop\n        /* \"#utility.yul\":22879:23011   */\n      swap2\n      swap1\n      pop\n      jump\t// out\n        /* \"#utility.yul\":23017:23125   */\n    tag_343:\n        /* \"#utility.yul\":23094:23118   */\n      tag_621\n        /* \"#utility.yul\":23112:23117   */\n      dup2\n        /* \"#utility.yul\":23094:23118   */\n      tag_286\n      jump\t// in\n    tag_621:\n        /* \"#utility.yul\":23089:23092   */\n      dup3\n        /* \"#utility.yul\":23082:23119   */\n      mstore\n        /* \"#utility.yul\":23017:23125   */\n      pop\n      pop\n      jump\t// out\n        /* \"#utility.yul\":23131:23310   */\n    tag_344:\n        /* \"#utility.yul\":23200:23210   */\n      0x00\n        /* \"#utility.yul\":23221:23267   */\n      tag_623\n        /* \"#utility.yul\":23263:23266   */\n      dup4\n        /* \"#utility.yul\":23255:23261   */\n      dup4\n        /* \"#utility.yul\":23221:23267   */\n      tag_343\n      jump\t// in\n    tag_623:\n        /* \"#utility.yul\":23299:23303   */\n      0x20\n        /* \"#utility.yul\":23294:23297   */\n      dup4\n        /* \"#utility.yul\":23290:23304   */\n      add\n        /* \"#utility.yul\":23276:23304   */\n      swap1\n      pop\n        /* \"#utility.yul\":23131:23310   */\n      swap3\n      swap2\n      pop\n      pop\n      jump\t// out\n        /* \"#utility.yul\":23316:23429   */\n    tag_345:\n        /* \"#utility.yul\":23386:23390   */\n      0x00\n        /* \"#utility.yul\":23418:23422   */\n      0x20\n        /* \"#utility.yul\":23413:23416   */\n      dup3\n        /* \"#utility.yul\":23409:23423   */\n      add\n        /* \"#utility.yul\":23401:23423   */\n      swap1\n      pop\n        /* \"#utility.yul\":23316:23429   */\n      swap2\n      swap1\n      pop\n      jump\t// out\n        /* \"#utility.yul\":23465:24197   */\n    tag_346:\n        /* \"#utility.yul\":23584:23587   */\n      0x00\n        /* \"#utility.yul\":23613:23667   */\n      tag_626\n        /* \"#utility.yul\":23661:23666   */\n      dup3\n        /* \"#utility.yul\":23613:23667   */\n      tag_340\n      jump\t// in\n    tag_626:\n        /* \"#utility.yul\":23683:23769   */\n      tag_627\n        /* \"#utility.yul\":23762:23768   */\n      dup2\n        /* \"#utility.yul\":23757:23760   */\n      dup6\n        /* \"#utility.yul\":23683:23769   */\n      tag_341\n      jump\t// in\n    tag_627:\n        /* \"#utility.yul\":23676:23769   */\n      swap4\n      pop\n        /* \"#utility.yul\":23793:23849   */\n      tag_628\n        /* \"#utility.yul\":23843:23848   */\n      dup4\n        /* \"#utility.yul\":23793:23849   */\n      tag_342\n      jump\t// in\n    tag_628:\n        /* \"#utility.yul\":23872:23879   */\n      dup1\n        /* \"#utility.yul\":23903:23904   */\n      0x00\n        /* \"#utility.yul\":23888:24172   */\n    tag_629:\n        /* \"#utility.yul\":23913:23919   */\n      dup4\n        /* \"#utility.yul\":23910:23911   */\n      dup2\n        /* \"#utility.yul\":23907:23920   */\n      lt\n        /* \"#utility.yul\":23888:24172   */\n      iszero\n      tag_631\n      jumpi\n        /* \"#utility.yul\":23989:23995   */\n      dup2\n        /* \"#utility.yul\":23983:23996   */\n      mload\n        /* \"#utility.yul\":24016:24079   */\n      tag_632\n        /* \"#utility.yul\":24075:24078   */\n      dup9\n        /* \"#utility.yul\":24060:24073   */\n      dup3\n        /* \"#utility.yul\":24016:24079   */\n      tag_344\n      jump\t// in\n    tag_632:\n        /* \"#utility.yul\":24009:24079   */\n      swap8\n      pop\n        /* \"#utility.yul\":24102:24162   */\n      tag_633\n        /* \"#utility.yul\":24155:24161   */\n      dup4\n        /* \"#utility.yul\":24102:24162   */\n      tag_345\n      jump\t// in\n    tag_633:\n        /* \"#utility.yul\":24092:24162   */\n      swap3\n      pop\n        /* \"#utility.yul\":23948:24172   */\n      pop\n        /* \"#utility.yul\":23935:23936   */\n      0x01\n        /* \"#utility.yul\":23932:23933   */\n      dup2\n        /* \"#utility.yul\":23928:23937   */\n      add\n        /* \"#utility.yul\":23923:23937   */\n      swap1\n      pop\n        /* \"#utility.yul\":23888:24172   */\n      jump(tag_629)\n    tag_631:\n        /* \"#utility.yul\":23892:23906   */\n      pop\n        /* \"#utility.yul\":24188:24191   */\n      dup6\n        /* \"#utility.yul\":24181:24191   */\n      swap4\n      pop\n        /* \"#utility.yul\":23589:24197   */\n      pop\n      pop\n      pop\n        /* \"#utility.yul\":23465:24197   */\n      swap3\n      swap2\n      pop\n      pop\n      jump\t// out\n        /* \"#utility.yul\":24203:24342   */\n    tag_347:\n        /* \"#utility.yul\":24292:24298   */\n      dup3\n        /* \"#utility.yul\":24287:24290   */\n      dup2\n        /* \"#utility.yul\":24282:24285   */\n      dup4\n        /* \"#utility.yul\":24276:24299   */\n      mcopy\n        /* \"#utility.yul\":24333:24334   */\n      0x00\n        /* \"#utility.yul\":24324:24330   */\n      dup4\n        /* \"#utility.yul\":24319:24322   */\n      dup4\n        /* \"#utility.yul\":24315:24331   */\n      add\n        /* \"#utility.yul\":24308:24335   */\n      mstore\n        /* \"#utility.yul\":24203:24342   */\n      pop\n      pop\n      pop\n      jump\t// out\n        /* \"#utility.yul\":24348:24725   */\n    tag_348:\n        /* \"#utility.yul\":24436:24439   */\n      0x00\n        /* \"#utility.yul\":24464:24503   */\n      tag_636\n        /* \"#utility.yul\":24497:24502   */\n      dup3\n        /* \"#utility.yul\":24464:24503   */\n      tag_322\n      jump\t// in\n    tag_636:\n        /* \"#utility.yul\":24519:24590   */\n      tag_637\n        /* \"#utility.yul\":24583:24589   */\n      dup2\n        /* \"#utility.yul\":24578:24581   */\n      dup6\n        /* \"#utility.yul\":24519:24590   */\n      tag_317\n      jump\t// in\n    tag_637:\n        /* \"#utility.yul\":24512:24590   */\n      swap4\n      pop\n        /* \"#utility.yul\":24599:24664   */\n      tag_638\n        /* \"#utility.yul\":24657:24663   */\n      dup2\n        /* \"#utility.yul\":24652:24655   */\n      dup6\n        /* \"#utility.yul\":24645:24649   */\n      0x20\n        /* \"#utility.yul\":24638:24643   */\n      dup7\n        /* \"#utility.yul\":24634:24650   */\n      add\n        /* \"#utility.yul\":24599:24664   */\n      tag_347\n      jump\t// in\n    tag_638:\n        /* \"#utility.yul\":24689:24718   */\n      tag_639\n        /* \"#utility.yul\":24711:24717   */\n      dup2\n        /* \"#utility.yul\":24689:24718   */\n      tag_295\n      jump\t// in\n    tag_639:\n        /* \"#utility.yul\":24684:24687   */\n      dup5\n        /* \"#utility.yul\":24680:24719   */\n      add\n        /* \"#utility.yul\":24673:24719   */\n      swap2\n      pop\n        /* \"#utility.yul\":24440:24725   */\n      pop\n        /* \"#utility.yul\":24348:24725   */\n      swap3\n      swap2\n      pop\n      pop\n      jump\t// out\n        /* \"#utility.yul\":24731:25542   */\n    tag_146:\n        /* \"#utility.yul\":24986:24990   */\n      0x00\n        /* \"#utility.yul\":25024:25027   */\n      0x80\n        /* \"#utility.yul\":25013:25022   */\n      dup3\n        /* \"#utility.yul\":25009:25028   */\n      add\n        /* \"#utility.yul\":25001:25028   */\n      swap1\n      pop\n        /* \"#utility.yul\":25074:25083   */\n      dup2\n        /* \"#utility.yul\":25068:25072   */\n      dup2\n        /* \"#utility.yul\":25064:25084   */\n      sub\n        /* \"#utility.yul\":25060:25061   */\n      0x00\n        /* \"#utility.yul\":25049:25058   */\n      dup4\n        /* \"#utility.yul\":25045:25062   */\n      add\n        /* \"#utility.yul\":25038:25085   */\n      mstore\n        /* \"#utility.yul\":25102:25210   */\n      tag_641\n        /* \"#utility.yul\":25205:25209   */\n      dup2\n        /* \"#utility.yul\":25196:25202   */\n      dup8\n        /* \"#utility.yul\":25102:25210   */\n      tag_346\n      jump\t// in\n    tag_641:\n        /* \"#utility.yul\":25094:25210   */\n      swap1\n      pop\n        /* \"#utility.yul\":25220:25300   */\n      tag_642\n        /* \"#utility.yul\":25296:25298   */\n      0x20\n        /* \"#utility.yul\":25285:25294   */\n      dup4\n        /* \"#utility.yul\":25281:25299   */\n      add\n        /* \"#utility.yul\":25272:25278   */\n      dup7\n        /* \"#utility.yul\":25220:25300   */\n      tag_292\n      jump\t// in\n    tag_642:\n        /* \"#utility.yul\":25347:25356   */\n      dup2\n        /* \"#utility.yul\":25341:25345   */\n      dup2\n        /* \"#utility.yul\":25337:25357   */\n      sub\n        /* \"#utility.yul\":25332:25334   */\n      0x40\n        /* \"#utility.yul\":25321:25330   */\n      dup4\n        /* \"#utility.yul\":25317:25335   */\n      add\n        /* \"#utility.yul\":25310:25358   */\n      mstore\n        /* \"#utility.yul\":25375:25453   */\n      tag_643\n        /* \"#utility.yul\":25448:25452   */\n      dup2\n        /* \"#utility.yul\":25439:25445   */\n      dup6\n        /* \"#utility.yul\":25375:25453   */\n      tag_348\n      jump\t// in\n    tag_643:\n        /* \"#utility.yul\":25367:25453   */\n      swap1\n      pop\n        /* \"#utility.yul\":25463:25535   */\n      tag_644\n        /* \"#utility.yul\":25531:25533   */\n      0x60\n        /* \"#utility.yul\":25520:25529   */\n      dup4\n        /* \"#utility.yul\":25516:25534   */\n      add\n        /* \"#utility.yul\":25507:25513   */\n      dup5\n        /* \"#utility.yul\":25463:25535   */\n      tag_277\n      jump\t// in\n    tag_644:\n        /* \"#utility.yul\":24731:25542   */\n      swap6\n      swap5\n      pop\n      pop\n      pop\n      pop\n      pop\n      jump\t// out\n        /* \"#utility.yul\":25548:25717   */\n    tag_349:\n        /* \"#utility.yul\":25688:25709   */\n      0x696e646578206f7574206f6620626f756e647300000000000000000000000000\n        /* \"#utility.yul\":25684:25685   */\n      0x00\n        /* \"#utility.yul\":25676:25682   */\n      dup3\n        /* \"#utility.yul\":25672:25686   */\n      add\n        /* \"#utility.yul\":25665:25710   */\n      mstore\n        /* \"#utility.yul\":25548:25717   */\n      pop\n      jump\t// out\n        /* \"#utility.yul\":25723:26089   */\n    tag_350:\n        /* \"#utility.yul\":25865:25868   */\n      0x00\n        /* \"#utility.yul\":25886:25953   */\n      tag_647\n        /* \"#utility.yul\":25950:25952   */\n      0x13\n        /* \"#utility.yul\":25945:25948   */\n      dup4\n        /* \"#utility.yul\":25886:25953   */\n      tag_317\n      jump\t// in\n    tag_647:\n        /* \"#utility.yul\":25879:25953   */\n      swap2\n      pop\n        /* \"#utility.yul\":25962:26055   */\n      tag_648\n        /* \"#utility.yul\":26051:26054   */\n      dup3\n        /* \"#utility.yul\":25962:26055   */\n      tag_349\n      jump\t// in\n    tag_648:\n        /* \"#utility.yul\":26080:26082   */\n      0x20\n        /* \"#utility.yul\":26075:26078   */\n      dup3\n        /* \"#utility.yul\":26071:26083   */\n      add\n        /* \"#utility.yul\":26064:26083   */\n      swap1\n      pop\n        /* \"#utility.yul\":25723:26089   */\n      swap2\n      swap1\n      pop\n      jump\t// out\n        /* \"#utility.yul\":26095:26514   */\n    tag_246:\n        /* \"#utility.yul\":26261:26265   */\n      0x00\n        /* \"#utility.yul\":26299:26301   */\n      0x20\n        /* \"#utility.yul\":26288:26297   */\n      dup3\n        /* \"#utility.yul\":26284:26302   */\n      add\n        /* \"#utility.yul\":26276:26302   */\n      swap1\n      pop\n        /* \"#utility.yul\":26348:26357   */\n      dup2\n        /* \"#utility.yul\":26342:26346   */\n      dup2\n        /* \"#utility.yul\":26338:26358   */\n      sub\n        /* \"#utility.yul\":26334:26335   */\n      0x00\n        /* \"#utility.yul\":26323:26332   */\n      dup4\n        /* \"#utility.yul\":26319:26336   */\n      add\n        /* \"#utility.yul\":26312:26359   */\n      mstore\n        /* \"#utility.yul\":26376:26507   */\n      tag_650\n        /* \"#utility.yul\":26502:26506   */\n      dup2\n        /* \"#utility.yul\":26376:26507   */\n      tag_350\n      jump\t// in\n    tag_650:\n        /* \"#utility.yul\":26368:26507   */\n      swap1\n      pop\n        /* \"#utility.yul\":26095:26514   */\n      swap2\n      swap1\n      pop\n      jump\t// out\n        /* \"#utility.yul\":26520:26700   */\n    tag_256:\n        /* \"#utility.yul\":26568:26645   */\n      0x4e487b7100000000000000000000000000000000000000000000000000000000\n        /* \"#utility.yul\":26565:26566   */\n      0x00\n        /* \"#utility.yul\":26558:26646   */\n      mstore\n        /* \"#utility.yul\":26665:26669   */\n      0x31\n        /* \"#utility.yul\":26662:26663   */\n      0x04\n        /* \"#utility.yul\":26655:26670   */\n      mstore\n        /* \"#utility.yul\":26689:26693   */\n      0x24\n        /* \"#utility.yul\":26686:26687   */\n      0x00\n        /* \"#utility.yul\":26679:26694   */\n      revert\n\n    auxdata: 0xa26469706673582212208c40385155850e82a07aa1bc2927082b3e432eb4fd8b64fb47a0b2d47c40e84064736f6c634300081e0033\n}\n",
				"bytecode": {
					"linkReferences": {},
					"object": "608060405234801561000f575f5ffd5b505f6002819055505f67ffffffffffffffff8111156100315761003061011d565b5b60405190808252806020026020018201604052801561005f5781602001602082028036833780820191505090505b506001908051906020019061007592919061007b565b5061014a565b828054828255905f5260205f209081019282156100f1579160200282015b828111156100f0578251825f6101000a81548173ffffffffffffffffffffffffffffffffffffffff021916908373ffffffffffffffffffffffffffffffffffffffff16021790555091602001919060010190610099565b5b5090506100fe9190610102565b5090565b5b80821115610119575f815f905550600101610103565b5090565b7f4e487b71000000000000000000000000000000000000000000000000000000005f52604160045260245ffd5b612428806101575f395ff3fe608060405234801561000f575f5ffd5b50600436106100a7575f3560e01c806349d269211161006f57806349d2692114610177578063803863fb146101a75780638457a66a146101c5578063d3155d16146101f5578063d951495014610213578063e92626ae14610243576100a7565b806322a51c29146100ab57806322d616d2146100c95780632690eac4146100f95780633063c634146101295780633210243e14610159575b5f5ffd5b6100b3610261565b6040516100c0919061156d565b60405180910390f35b6100e360048036038101906100de91906115c1565b610266565b6040516100f09190611619565b60405180910390f35b610113600480360381019061010e919061168c565b6105f9565b604051610120919061173d565b60405180910390f35b610143600480360381019061013e91906118b5565b610636565b6040516101509190611619565b60405180910390f35b610161610990565b60405161016e919061156d565b60405180910390f35b610191600480360381019061018c9190611921565b610995565b60405161019e919061156d565b60405180910390f35b6101af6109aa565b6040516101bc919061156d565b60405180910390f35b6101df60048036038101906101da919061194c565b6109b0565b6040516101ec9190611986565b60405180910390f35b6101fd6109eb565b60405161020a919061156d565b60405180910390f35b61022d60048036038101906102289190611a63565b6109f0565b60405161023a9190611619565b60405180910390f35b61024b610aee565b604051610258919061156d565b60405180910390f35b602881565b5f6102718333610af3565b1561027e575f90506105f3565b5f60045f8581526020019081526020015f206007015490508260045f8681526020019081526020015f2060050182815481106102bd576102bc611aaa565b5b905f5260205f2001819055503360045f8681526020019081526020015f2060060182815481106102f0576102ef611aaa565b5b905f5260205f20015f6101000a81548173ffffffffffffffffffffffffffffffffffffffff021916908373ffffffffffffffffffffffffffffffffffffffff16021790555060045f8581526020019081526020015f206007015f81548092919061035990611b04565b9190505550600a60045f8681526020019081526020015f2060070154036105ed575f5f90505f5f90505f5f90505b60045f8881526020019081526020015f20600701548110156104f457600a60045f8381526020019081526020015f20600401546103c49190611b78565b60035f60045f8b81526020019081526020015f2060060184815481106103ed576103ec611aaa565b5b905f5260205f20015f9054906101000a900473ffffffffffffffffffffffffffffffffffffffff1673ffffffffffffffffffffffffffffffffffffffff1673ffffffffffffffffffffffffffffffffffffffff1681526020019081526020015f205f82825461045c9190611ba8565b9250508190555060045f8881526020019081526020015f20600501818154811061048957610488611aaa565b5b905f5260205f2001548361049d9190611ba8565b9250600260045f8981526020019081526020015f2060050182815481106104c7576104c6611aaa565b5b905f5260205f2001546104da9190611d16565b826104e59190611ba8565b91508080600101915050610387565b505f60045f8881526020019081526020015f206001015f9054906101000a900473ffffffffffffffffffffffffffffffffffffffff169050610537878484610bef565b50600a836105459190611b78565b925082836105539190611d60565b8261055e9190611da1565b9150600a8261056d9190611b78565b91508073ffffffffffffffffffffffffffffffffffffffff1663e5d60ce1846040518263ffffffff1660e01b81526004016105a8919061156d565b6020604051808303815f875af11580156105c4573d5f5f3e3d5ffd5b505050506040513d601f19601f820116820180604052508101906105e89190611dfe565b505050505b60019150505b92915050565b5f602052815f5260405f208181548110610611575f80fd5b905f5260205f209060209182820401919006915091509054906101000a900460ff1681565b5f600a821015801561065357505f600a836106519190611e29565b145b610692576040517f08c379a000000000000000000000000000000000000000000000000000000000815260040161068990611eb3565b60405180910390fd5b8160035f3373ffffffffffffffffffffffffffffffffffffffff1673ffffffffffffffffffffffffffffffffffffffff1681526020019081526020015f20541015610712576040517f08c379a000000000000000000000000000000000000000000000000000000000815260040161070990611f1b565b60405180910390fd5b5f61071c84610e97565b90505f60025f81548092919061073190611b04565b9190505590506040518061012001604052808281526020013373ffffffffffffffffffffffffffffffffffffffff168152602001866002811115610778576107776116ca565b5b8152602001878152602001838152602001858152602001835167ffffffffffffffff8111156107aa576107a961176e565b5b6040519080825280602002602001820160405280156107d85781602001602082028036833780820191505090505b508152602001835167ffffffffffffffff8111156107f9576107f861176e565b5b6040519080825280602002602001820160405280156108275781602001602082028036833780820191505090505b5081526020015f81525060045f8381526020019081526020015f205f820151815f01556020820151816001015f6101000a81548173ffffffffffffffffffffffffffffffffffffffff021916908373ffffffffffffffffffffffffffffffffffffffff16021790555060408201518160010160146101000a81548160ff021916908360028111156108bb576108ba6116ca565b5b021790555060608201518160020190816108d59190612140565b5060808201518160030190805190602001906108f29291906113b7565b5060a0820151816004015560c082015181600501908051906020019061091992919061143e565b5060e08201518160060190805190602001906109369291906113b7565b506101008201518160070155905050807fe84d10fa98af4ed68014b5eb0367cbcb5ee2664f554195989f89f9bc497090048387898860405161097b949392919061230c565b60405180910390a26001925050509392505050565b605081565b6003602052805f5260405f205f915090505481565b60025481565b600181815481106109bf575f80fd5b905f5260205f20015f915054906101000a900473ffffffffffffffffffffffffffffffffffffffff1681565b600a81565b5f605060035f3373ffffffffffffffffffffffffffffffffffffffff1673ffffffffffffffffffffffffffffffffffffffff1681526020019081526020015f2081905550815f5f3373ffffffffffffffffffffffffffffffffffffffff1673ffffffffffffffffffffffffffffffffffffffff1681526020019081526020015f209080519060200190610a84929190611489565b50600133908060018154018082558091505060019003905f5260205f20015f9091909190916101000a81548173ffffffffffffffffffffffffffffffffffffffff021916908373ffffffffffffffffffffffffffffffffffffffff16021790555060019050919050565b600a81565b5f5f60045f8581526020019081526020015f205f015403610b16575f9050610be9565b5f60045f8581526020019081526020015f206007015490505f8103610b3e575f915050610be9565b5f5f90505b81811015610be3578373ffffffffffffffffffffffffffffffffffffffff1660045f8781526020019081526020015f206006018281548110610b8857610b87611aaa565b5b905f5260205f20015f9054906101000a900473ffffffffffffffffffffffffffffffffffffffff1673ffffffffffffffffffffffffffffffffffffffff1603610bd657600192505050610be9565b8080600101915050610b43565b505f9150505b92915050565b5f5f5f90505b600a811015610e8b575f60045f8781526020019081526020015f206005018281548110610c2557610c24611aaa565b5b905f5260205f2001549050808486610c3d9190611da1565b101580610c555750808486610c529190611ba8565b11155b15610cfc57602860035f60045f8a81526020019081526020015f206003018581548110610c8557610c84611aaa565b5b905f5260205f20015f9054906101000a900473ffffffffffffffffffffffffffffffffffffffff1673ffffffffffffffffffffffffffffffffffffffff1673ffffffffffffffffffffffffffffffffffffffff1681526020019081526020015f205f828254610cf49190611da1565b925050819055505b5f60035f60045f8a81526020019081526020015f206003018581548110610d2657610d25611aaa565b5b905f5260205f20015f9054906101000a900473ffffffffffffffffffffffffffffffffffffffff1673ffffffffffffffffffffffffffffffffffffffff1673ffffffffffffffffffffffffffffffffffffffff1681526020019081526020015f205411610e7d575f60045f8881526020019081526020015f206003018381548110610db457610db3611aaa565b5b905f5260205f20015f9054906101000a900473ffffffffffffffffffffffffffffffffffffffff1690505f5f90505b600180549050811015610e7a578173ffffffffffffffffffffffffffffffffffffffff1660018281548110610e1b57610e1a611aaa565b5b905f5260205f20015f9054906101000a900473ffffffffffffffffffffffffffffffffffffffff1673ffffffffffffffffffffffffffffffffffffffff1603610e6d57610e678161127e565b50610e7a565b8080600101915050610de3565b50505b508080600101915050610bf5565b50600190509392505050565b60605f5f90505f5f90505b600180549050811015611030575f60018281548110610ec457610ec3611aaa565b5b905f5260205f20015f9054906101000a900473ffffffffffffffffffffffffffffffffffffffff1690505f5f5f8373ffffffffffffffffffffffffffffffffffffffff1673ffffffffffffffffffffffffffffffffffffffff1681526020019081526020015f20805480602002602001604051908101604052809291908181526020018280548015610fa657602002820191905f5260205f20905f905b82829054906101000a900460ff166002811115610f8157610f806116ca565b5b815260200190600101906020825f01049283019260010382029150808411610f615790505b505050505090505f5f90505b815181101561102057866002811115610fce57610fcd6116ca565b5b828281518110610fe157610fe0611aaa565b5b60200260200101516002811115610ffb57610ffa6116ca565b5b0361101357848061100b90611b04565b955050611020565b8080600101915050610fb2565b5050508080600101915050610ea2565b505f8167ffffffffffffffff81111561104c5761104b61176e565b5b60405190808252806020026020018201604052801561107a5781602001602082028036833780820191505090505b5090505f5f90505f5f90505b600180549050811015611272575f600182815481106110a8576110a7611aaa565b5b905f5260205f20015f9054906101000a900473ffffffffffffffffffffffffffffffffffffffff1690505f5f5f8373ffffffffffffffffffffffffffffffffffffffff1673ffffffffffffffffffffffffffffffffffffffff1681526020019081526020015f2080548060200260200160405190810160405280929190818152602001828054801561118a57602002820191905f5260205f20905f905b82829054906101000a900460ff166002811115611165576111646116ca565b5b815260200190600101906020825f010492830192600103820291508084116111455790505b505050505090505f5f90505f5f90505b82518110156111fe578960028111156111b6576111b56116ca565b5b8382815181106111c9576111c8611aaa565b5b602002602001015160028111156111e3576111e26116ca565b5b036111f157600191506111fe565b808060010191505061119a565b508015611262578286868151811061121957611218611aaa565b5b602002602001019073ffffffffffffffffffffffffffffffffffffffff16908173ffffffffffffffffffffffffffffffffffffffff1681525050848061125e90611b04565b9550505b5050508080600101915050611086565b50819350505050919050565b5f60018054905082106112c6576040517f08c379a00000000000000000000000000000000000000000000000000000000081526004016112bd906123a7565b60405180910390fd5b60018080805490506112d89190611da1565b815481106112e9576112e8611aaa565b5b905f5260205f20015f9054906101000a900473ffffffffffffffffffffffffffffffffffffffff166001838154811061132557611324611aaa565b5b905f5260205f20015f6101000a81548173ffffffffffffffffffffffffffffffffffffffff021916908373ffffffffffffffffffffffffffffffffffffffff160217905550600180548061137c5761137b6123c5565b5b600190038181905f5260205f20015f6101000a81549073ffffffffffffffffffffffffffffffffffffffff0219169055905560019050919050565b828054828255905f5260205f2090810192821561142d579160200282015b8281111561142c578251825f6101000a81548173ffffffffffffffffffffffffffffffffffffffff021916908373ffffffffffffffffffffffffffffffffffffffff160217905550916020019190600101906113d5565b5b50905061143a919061153a565b5090565b828054828255905f5260205f20908101928215611478579160200282015b8281111561147757825182559160200191906001019061145c565b5b509050611485919061153a565b5090565b828054828255905f5260205f2090601f01602090048101928215611529579160200282015f5b838211156114fb57835183826101000a81548160ff021916908360028111156114db576114da6116ca565b5b021790555092602001926001016020815f010492830192600103026114af565b80156115275782816101000a81549060ff02191690556001016020815f010492830192600103026114fb565b505b509050611536919061153a565b5090565b5b80821115611551575f815f90555060010161153b565b5090565b5f819050919050565b61156781611555565b82525050565b5f6020820190506115805f83018461155e565b92915050565b5f604051905090565b5f5ffd5b5f5ffd5b6115a081611555565b81146115aa575f5ffd5b50565b5f813590506115bb81611597565b92915050565b5f5f604083850312156115d7576115d661158f565b5b5f6115e4858286016115ad565b92505060206115f5858286016115ad565b9150509250929050565b5f8115159050919050565b611613816115ff565b82525050565b5f60208201905061162c5f83018461160a565b92915050565b5f73ffffffffffffffffffffffffffffffffffffffff82169050919050565b5f61165b82611632565b9050919050565b61166b81611651565b8114611675575f5ffd5b50565b5f8135905061168681611662565b92915050565b5f5f604083850312156116a2576116a161158f565b5b5f6116af85828601611678565b92505060206116c0858286016115ad565b9150509250929050565b7f4e487b71000000000000000000000000000000000000000000000000000000005f52602160045260245ffd5b60038110611708576117076116ca565b5b50565b5f819050611718826116f7565b919050565b5f6117278261170b565b9050919050565b6117378161171d565b82525050565b5f6020820190506117505f83018461172e565b92915050565b5f5ffd5b5f5ffd5b5f601f19601f8301169050919050565b7f4e487b71000000000000000000000000000000000000000000000000000000005f52604160045260245ffd5b6117a48261175e565b810181811067ffffffffffffffff821117156117c3576117c261176e565b5b80604052505050565b5f6117d5611586565b90506117e1828261179b565b919050565b5f67ffffffffffffffff821115611800576117ff61176e565b5b6118098261175e565b9050602081019050919050565b828183375f83830152505050565b5f611836611831846117e6565b6117cc565b9050828152602081018484840111156118525761185161175a565b5b61185d848285611816565b509392505050565b5f82601f83011261187957611878611756565b5b8135611889848260208601611824565b91505092915050565b6003811061189e575f5ffd5b50565b5f813590506118af81611892565b92915050565b5f5f5f606084860312156118cc576118cb61158f565b5b5f84013567ffffffffffffffff8111156118e9576118e8611593565b5b6118f586828701611865565b9350506020611906868287016118a1565b9250506040611917868287016115ad565b9150509250925092565b5f602082840312156119365761193561158f565b5b5f61194384828501611678565b91505092915050565b5f602082840312156119615761196061158f565b5b5f61196e848285016115ad565b91505092915050565b61198081611651565b82525050565b5f6020820190506119995f830184611977565b92915050565b5f67ffffffffffffffff8211156119b9576119b861176e565b5b602082029050602081019050919050565b5f5ffd5b5f6119e06119db8461199f565b6117cc565b90508083825260208201905060208402830185811115611a0357611a026119ca565b5b835b81811015611a2c5780611a1888826118a1565b845260208401935050602081019050611a05565b5050509392505050565b5f82601f830112611a4a57611a49611756565b5b8135611a5a8482602086016119ce565b91505092915050565b5f60208284031215611a7857611a7761158f565b5b5f82013567ffffffffffffffff811115611a9557611a94611593565b5b611aa184828501611a36565b91505092915050565b7f4e487b71000000000000000000000000000000000000000000000000000000005f52603260045260245ffd5b7f4e487b71000000000000000000000000000000000000000000000000000000005f52601160045260245ffd5b5f611b0e82611555565b91507fffffffffffffffffffffffffffffffffffffffffffffffffffffffffffffffff8203611b4057611b3f611ad7565b5b600182019050919050565b7f4e487b71000000000000000000000000000000000000000000000000000000005f52601260045260245ffd5b5f611b8282611555565b9150611b8d83611555565b925082611b9d57611b9c611b4b565b5b828204905092915050565b5f611bb282611555565b9150611bbd83611555565b9250828201905080821115611bd557611bd4611ad7565b5b92915050565b5f8160011c9050919050565b5f5f8291508390505b6001851115611c3057808604811115611c0c57611c0b611ad7565b5b6001851615611c1b5780820291505b8081029050611c2985611bdb565b9450611bf0565b94509492505050565b5f82611c485760019050611d03565b81611c55575f9050611d03565b8160018114611c6b5760028114611c7557611ca4565b6001915050611d03565b60ff841115611c8757611c86611ad7565b5b8360020a915084821115611c9e57611c9d611ad7565b5b50611d03565b5060208310610133831016604e8410600b8410161715611cd95782820a905083811115611cd457611cd3611ad7565b5b611d03565b611ce68484846001611be7565b92509050818404811115611cfd57611cfc611ad7565b5b81810290505b9392505050565b5f60ff82169050919050565b5f611d2082611555565b9150611d2b83611d0a565b9250611d587fffffffffffffffffffffffffffffffffffffffffffffffffffffffffffffffff8484611c39565b905092915050565b5f611d6a82611555565b9150611d7583611555565b9250828202611d8381611555565b91508282048414831517611d9a57611d99611ad7565b5b5092915050565b5f611dab82611555565b9150611db683611555565b9250828203905081811115611dce57611dcd611ad7565b5b92915050565b611ddd816115ff565b8114611de7575f5ffd5b50565b5f81519050611df881611dd4565b92915050565b5f60208284031215611e1357611e1261158f565b5b5f611e2084828501611dea565b91505092915050565b5f611e3382611555565b9150611e3e83611555565b925082611e4e57611e4d611b4b565b5b828206905092915050565b5f82825260208201905092915050565b7f746f6f206c6573732066656500000000000000000000000000000000000000005f82015250565b5f611e9d600c83611e59565b9150611ea882611e69565b602082019050919050565b5f6020820190508181035f830152611eca81611e91565b9050919050565b7f6e6f7420656e6f756768206d6f6e6579000000000000000000000000000000005f82015250565b5f611f05601083611e59565b9150611f1082611ed1565b602082019050919050565b5f6020820190508181035f830152611f3281611ef9565b9050919050565b5f81519050919050565b7f4e487b71000000000000000000000000000000000000000000000000000000005f52602260045260245ffd5b5f6002820490506001821680611f8757607f821691505b602082108103611f9a57611f99611f43565b5b50919050565b5f819050815f5260205f209050919050565b5f6020601f8301049050919050565b5f82821b905092915050565b5f60088302611ffc7fffffffffffffffffffffffffffffffffffffffffffffffffffffffffffffffff82611fc1565b6120068683611fc1565b95508019841693508086168417925050509392505050565b5f819050919050565b5f61204161203c61203784611555565b61201e565b611555565b9050919050565b5f819050919050565b61205a83612027565b61206e61206682612048565b848454611fcd565b825550505050565b5f5f905090565b612085612076565b612090818484612051565b505050565b5b818110156120b3576120a85f8261207d565b600181019050612096565b5050565b601f8211156120f8576120c981611fa0565b6120d284611fb2565b810160208510156120e1578190505b6120f56120ed85611fb2565b830182612095565b50505b505050565b5f82821c905092915050565b5f6121185f19846008026120fd565b1980831691505092915050565b5f6121308383612109565b9150826002028217905092915050565b61214982611f39565b67ffffffffffffffff8111156121625761216161176e565b5b61216c8254611f70565b6121778282856120b7565b5f60209050601f8311600181146121a8575f8415612196578287015190505b6121a08582612125565b865550612207565b601f1984166121b686611fa0565b5f5b828110156121dd578489015182556001820191506020850194506020810190506121b8565b868310156121fa57848901516121f6601f891682612109565b8355505b6001600288020188555050505b505050505050565b5f81519050919050565b5f82825260208201905092915050565b5f819050602082019050919050565b61224181611651565b82525050565b5f6122528383612238565b60208301905092915050565b5f602082019050919050565b5f6122748261220f565b61227e8185612219565b935061228983612229565b805f5b838110156122b95781516122a08882612247565b97506122ab8361225e565b92505060018101905061228c565b5085935050505092915050565b8281835e5f83830152505050565b5f6122de82611f39565b6122e88185611e59565b93506122f88185602086016122c6565b6123018161175e565b840191505092915050565b5f6080820190508181035f830152612324818761226a565b9050612333602083018661172e565b818103604083015261234581856122d4565b9050612354606083018461155e565b95945050505050565b7f696e646578206f7574206f6620626f756e6473000000000000000000000000005f82015250565b5f612391601383611e59565b915061239c8261235d565b602082019050919050565b5f6020820190508181035f8301526123be81612385565b9050919050565b7f4e487b71000000000000000000000000000000000000000000000000000000005f52603160045260245ffdfea26469706673582212208c40385155850e82a07aa1bc2927082b3e432eb4fd8b64fb47a0b2d47c40e84064736f6c634300081e0033",
					"opcodes": "PUSH1 0x80 PUSH1 0x40 MSTORE CALLVALUE DUP1 ISZERO PUSH2 0xF JUMPI PUSH0 PUSH0 REVERT JUMPDEST POP PUSH0 PUSH1 0x2 DUP2 SWAP1 SSTORE POP PUSH0 PUSH8 0xFFFFFFFFFFFFFFFF DUP2 GT ISZERO PUSH2 0x31 JUMPI PUSH2 0x30 PUSH2 0x11D JUMP JUMPDEST JUMPDEST PUSH1 0x40 MLOAD SWAP1 DUP1 DUP3 MSTORE DUP1 PUSH1 0x20 MUL PUSH1 0x20 ADD DUP3 ADD PUSH1 0x40 MSTORE DUP1 ISZERO PUSH2 0x5F JUMPI DUP2 PUSH1 0x20 ADD PUSH1 0x20 DUP3 MUL DUP1 CALLDATASIZE DUP4 CALLDATACOPY DUP1 DUP3 ADD SWAP2 POP POP SWAP1 POP JUMPDEST POP PUSH1 0x1 SWAP1 DUP1 MLOAD SWAP1 PUSH1 0x20 ADD SWAP1 PUSH2 0x75 SWAP3 SWAP2 SWAP1 PUSH2 0x7B JUMP JUMPDEST POP PUSH2 0x14A JUMP JUMPDEST DUP3 DUP1 SLOAD DUP3 DUP3 SSTORE SWAP1 PUSH0 MSTORE PUSH1 0x20 PUSH0 KECCAK256 SWAP1 DUP2 ADD SWAP3 DUP3 ISZERO PUSH2 0xF1 JUMPI SWAP2 PUSH1 0x20 MUL DUP3 ADD JUMPDEST DUP3 DUP2 GT ISZERO PUSH2 0xF0 JUMPI DUP3 MLOAD DUP3 PUSH0 PUSH2 0x100 EXP DUP2 SLOAD DUP2 PUSH20 0xFFFFFFFFFFFFFFFFFFFFFFFFFFFFFFFFFFFFFFFF MUL NOT AND SWAP1 DUP4 PUSH20 0xFFFFFFFFFFFFFFFFFFFFFFFFFFFFFFFFFFFFFFFF AND MUL OR SWAP1 SSTORE POP SWAP2 PUSH1 0x20 ADD SWAP2 SWAP1 PUSH1 0x1 ADD SWAP1 PUSH2 0x99 JUMP JUMPDEST JUMPDEST POP SWAP1 POP PUSH2 0xFE SWAP2 SWAP1 PUSH2 0x102 JUMP JUMPDEST POP SWAP1 JUMP JUMPDEST JUMPDEST DUP1 DUP3 GT ISZERO PUSH2 0x119 JUMPI PUSH0 DUP2 PUSH0 SWAP1 SSTORE POP PUSH1 0x1 ADD PUSH2 0x103 JUMP JUMPDEST POP SWAP1 JUMP JUMPDEST PUSH32 0x4E487B7100000000000000000000000000000000000000000000000000000000 PUSH0 MSTORE PUSH1 0x41 PUSH1 0x4 MSTORE PUSH1 0x24 PUSH0 REVERT JUMPDEST PUSH2 0x2428 DUP1 PUSH2 0x157 PUSH0 CODECOPY PUSH0 RETURN INVALID PUSH1 0x80 PUSH1 0x40 MSTORE CALLVALUE DUP1 ISZERO PUSH2 0xF JUMPI PUSH0 PUSH0 REVERT JUMPDEST POP PUSH1 0x4 CALLDATASIZE LT PUSH2 0xA7 JUMPI PUSH0 CALLDATALOAD PUSH1 0xE0 SHR DUP1 PUSH4 0x49D26921 GT PUSH2 0x6F JUMPI DUP1 PUSH4 0x49D26921 EQ PUSH2 0x177 JUMPI DUP1 PUSH4 0x803863FB EQ PUSH2 0x1A7 JUMPI DUP1 PUSH4 0x8457A66A EQ PUSH2 0x1C5 JUMPI DUP1 PUSH4 0xD3155D16 EQ PUSH2 0x1F5 JUMPI DUP1 PUSH4 0xD9514950 EQ PUSH2 0x213 JUMPI DUP1 PUSH4 0xE92626AE EQ PUSH2 0x243 JUMPI PUSH2 0xA7 JUMP JUMPDEST DUP1 PUSH4 0x22A51C29 EQ PUSH2 0xAB JUMPI DUP1 PUSH4 0x22D616D2 EQ PUSH2 0xC9 JUMPI DUP1 PUSH4 0x2690EAC4 EQ PUSH2 0xF9 JUMPI DUP1 PUSH4 0x3063C634 EQ PUSH2 0x129 JUMPI DUP1 PUSH4 0x3210243E EQ PUSH2 0x159 JUMPI JUMPDEST PUSH0 PUSH0 REVERT JUMPDEST PUSH2 0xB3 PUSH2 0x261 JUMP JUMPDEST PUSH1 0x40 MLOAD PUSH2 0xC0 SWAP2 SWAP1 PUSH2 0x156D JUMP JUMPDEST PUSH1 0x40 MLOAD DUP1 SWAP2 SUB SWAP1 RETURN JUMPDEST PUSH2 0xE3 PUSH1 0x4 DUP1 CALLDATASIZE SUB DUP2 ADD SWAP1 PUSH2 0xDE SWAP2 SWAP1 PUSH2 0x15C1 JUMP JUMPDEST PUSH2 0x266 JUMP JUMPDEST PUSH1 0x40 MLOAD PUSH2 0xF0 SWAP2 SWAP1 PUSH2 0x1619 JUMP JUMPDEST PUSH1 0x40 MLOAD DUP1 SWAP2 SUB SWAP1 RETURN JUMPDEST PUSH2 0x113 PUSH1 0x4 DUP1 CALLDATASIZE SUB DUP2 ADD SWAP1 PUSH2 0x10E SWAP2 SWAP1 PUSH2 0x168C JUMP JUMPDEST PUSH2 0x5F9 JUMP JUMPDEST PUSH1 0x40 MLOAD PUSH2 0x120 SWAP2 SWAP1 PUSH2 0x173D JUMP JUMPDEST PUSH1 0x40 MLOAD DUP1 SWAP2 SUB SWAP1 RETURN JUMPDEST PUSH2 0x143 PUSH1 0x4 DUP1 CALLDATASIZE SUB DUP2 ADD SWAP1 PUSH2 0x13E SWAP2 SWAP1 PUSH2 0x18B5 JUMP JUMPDEST PUSH2 0x636 JUMP JUMPDEST PUSH1 0x40 MLOAD PUSH2 0x150 SWAP2 SWAP1 PUSH2 0x1619 JUMP JUMPDEST PUSH1 0x40 MLOAD DUP1 SWAP2 SUB SWAP1 RETURN JUMPDEST PUSH2 0x161 PUSH2 0x990 JUMP JUMPDEST PUSH1 0x40 MLOAD PUSH2 0x16E SWAP2 SWAP1 PUSH2 0x156D JUMP JUMPDEST PUSH1 0x40 MLOAD DUP1 SWAP2 SUB SWAP1 RETURN JUMPDEST PUSH2 0x191 PUSH1 0x4 DUP1 CALLDATASIZE SUB DUP2 ADD SWAP1 PUSH2 0x18C SWAP2 SWAP1 PUSH2 0x1921 JUMP JUMPDEST PUSH2 0x995 JUMP JUMPDEST PUSH1 0x40 MLOAD PUSH2 0x19E SWAP2 SWAP1 PUSH2 0x156D JUMP JUMPDEST PUSH1 0x40 MLOAD DUP1 SWAP2 SUB SWAP1 RETURN JUMPDEST PUSH2 0x1AF PUSH2 0x9AA JUMP JUMPDEST PUSH1 0x40 MLOAD PUSH2 0x1BC SWAP2 SWAP1 PUSH2 0x156D JUMP JUMPDEST PUSH1 0x40 MLOAD DUP1 SWAP2 SUB SWAP1 RETURN JUMPDEST PUSH2 0x1DF PUSH1 0x4 DUP1 CALLDATASIZE SUB DUP2 ADD SWAP1 PUSH2 0x1DA SWAP2 SWAP1 PUSH2 0x194C JUMP JUMPDEST PUSH2 0x9B0 JUMP JUMPDEST PUSH1 0x40 MLOAD PUSH2 0x1EC SWAP2 SWAP1 PUSH2 0x1986 JUMP JUMPDEST PUSH1 0x40 MLOAD DUP1 SWAP2 SUB SWAP1 RETURN JUMPDEST PUSH2 0x1FD PUSH2 0x9EB JUMP JUMPDEST PUSH1 0x40 MLOAD PUSH2 0x20A SWAP2 SWAP1 PUSH2 0x156D JUMP JUMPDEST PUSH1 0x40 MLOAD DUP1 SWAP2 SUB SWAP1 RETURN JUMPDEST PUSH2 0x22D PUSH1 0x4 DUP1 CALLDATASIZE SUB DUP2 ADD SWAP1 PUSH2 0x228 SWAP2 SWAP1 PUSH2 0x1A63 JUMP JUMPDEST PUSH2 0x9F0 JUMP JUMPDEST PUSH1 0x40 MLOAD PUSH2 0x23A SWAP2 SWAP1 PUSH2 0x1619 JUMP JUMPDEST PUSH1 0x40 MLOAD DUP1 SWAP2 SUB SWAP1 RETURN JUMPDEST PUSH2 0x24B PUSH2 0xAEE JUMP JUMPDEST PUSH1 0x40 MLOAD PUSH2 0x258 SWAP2 SWAP1 PUSH2 0x156D JUMP JUMPDEST PUSH1 0x40 MLOAD DUP1 SWAP2 SUB SWAP1 RETURN JUMPDEST PUSH1 0x28 DUP2 JUMP JUMPDEST PUSH0 PUSH2 0x271 DUP4 CALLER PUSH2 0xAF3 JUMP JUMPDEST ISZERO PUSH2 0x27E JUMPI PUSH0 SWAP1 POP PUSH2 0x5F3 JUMP JUMPDEST PUSH0 PUSH1 0x4 PUSH0 DUP6 DUP2 MSTORE PUSH1 0x20 ADD SWAP1 DUP2 MSTORE PUSH1 0x20 ADD PUSH0 KECCAK256 PUSH1 0x7 ADD SLOAD SWAP1 POP DUP3 PUSH1 0x4 PUSH0 DUP7 DUP2 MSTORE PUSH1 0x20 ADD SWAP1 DUP2 MSTORE PUSH1 0x20 ADD PUSH0 KECCAK256 PUSH1 0x5 ADD DUP3 DUP2 SLOAD DUP2 LT PUSH2 0x2BD JUMPI PUSH2 0x2BC PUSH2 0x1AAA JUMP JUMPDEST JUMPDEST SWAP1 PUSH0 MSTORE PUSH1 0x20 PUSH0 KECCAK256 ADD DUP2 SWAP1 SSTORE POP CALLER PUSH1 0x4 PUSH0 DUP7 DUP2 MSTORE PUSH1 0x20 ADD SWAP1 DUP2 MSTORE PUSH1 0x20 ADD PUSH0 KECCAK256 PUSH1 0x6 ADD DUP3 DUP2 SLOAD DUP2 LT PUSH2 0x2F0 JUMPI PUSH2 0x2EF PUSH2 0x1AAA JUMP JUMPDEST JUMPDEST SWAP1 PUSH0 MSTORE PUSH1 0x20 PUSH0 KECCAK256 ADD PUSH0 PUSH2 0x100 EXP DUP2 SLOAD DUP2 PUSH20 0xFFFFFFFFFFFFFFFFFFFFFFFFFFFFFFFFFFFFFFFF MUL NOT AND SWAP1 DUP4 PUSH20 0xFFFFFFFFFFFFFFFFFFFFFFFFFFFFFFFFFFFFFFFF AND MUL OR SWAP1 SSTORE POP PUSH1 0x4 PUSH0 DUP6 DUP2 MSTORE PUSH1 0x20 ADD SWAP1 DUP2 MSTORE PUSH1 0x20 ADD PUSH0 KECCAK256 PUSH1 0x7 ADD PUSH0 DUP2 SLOAD DUP1 SWAP3 SWAP2 SWAP1 PUSH2 0x359 SWAP1 PUSH2 0x1B04 JUMP JUMPDEST SWAP2 SWAP1 POP SSTORE POP PUSH1 0xA PUSH1 0x4 PUSH0 DUP7 DUP2 MSTORE PUSH1 0x20 ADD SWAP1 DUP2 MSTORE PUSH1 0x20 ADD PUSH0 KECCAK256 PUSH1 0x7 ADD SLOAD SUB PUSH2 0x5ED JUMPI PUSH0 PUSH0 SWAP1 POP PUSH0 PUSH0 SWAP1 POP PUSH0 PUSH0 SWAP1 POP JUMPDEST PUSH1 0x4 PUSH0 DUP9 DUP2 MSTORE PUSH1 0x20 ADD SWAP1 DUP2 MSTORE PUSH1 0x20 ADD PUSH0 KECCAK256 PUSH1 0x7 ADD SLOAD DUP2 LT ISZERO PUSH2 0x4F4 JUMPI PUSH1 0xA PUSH1 0x4 PUSH0 DUP4 DUP2 MSTORE PUSH1 0x20 ADD SWAP1 DUP2 MSTORE PUSH1 0x20 ADD PUSH0 KECCAK256 PUSH1 0x4 ADD SLOAD PUSH2 0x3C4 SWAP2 SWAP1 PUSH2 0x1B78 JUMP JUMPDEST PUSH1 0x3 PUSH0 PUSH1 0x4 PUSH0 DUP12 DUP2 MSTORE PUSH1 0x20 ADD SWAP1 DUP2 MSTORE PUSH1 0x20 ADD PUSH0 KECCAK256 PUSH1 0x6 ADD DUP5 DUP2 SLOAD DUP2 LT PUSH2 0x3ED JUMPI PUSH2 0x3EC PUSH2 0x1AAA JUMP JUMPDEST JUMPDEST SWAP1 PUSH0 MSTORE PUSH1 0x20 PUSH0 KECCAK256 ADD PUSH0 SWAP1 SLOAD SWAP1 PUSH2 0x100 EXP SWAP1 DIV PUSH20 0xFFFFFFFFFFFFFFFFFFFFFFFFFFFFFFFFFFFFFFFF AND PUSH20 0xFFFFFFFFFFFFFFFFFFFFFFFFFFFFFFFFFFFFFFFF AND PUSH20 0xFFFFFFFFFFFFFFFFFFFFFFFFFFFFFFFFFFFFFFFF AND DUP2 MSTORE PUSH1 0x20 ADD SWAP1 DUP2 MSTORE PUSH1 0x20 ADD PUSH0 KECCAK256 PUSH0 DUP3 DUP3 SLOAD PUSH2 0x45C SWAP2 SWAP1 PUSH2 0x1BA8 JUMP JUMPDEST SWAP3 POP POP DUP2 SWAP1 SSTORE POP PUSH1 0x4 PUSH0 DUP9 DUP2 MSTORE PUSH1 0x20 ADD SWAP1 DUP2 MSTORE PUSH1 0x20 ADD PUSH0 KECCAK256 PUSH1 0x5 ADD DUP2 DUP2 SLOAD DUP2 LT PUSH2 0x489 JUMPI PUSH2 0x488 PUSH2 0x1AAA JUMP JUMPDEST JUMPDEST SWAP1 PUSH0 MSTORE PUSH1 0x20 PUSH0 KECCAK256 ADD SLOAD DUP4 PUSH2 0x49D SWAP2 SWAP1 PUSH2 0x1BA8 JUMP JUMPDEST SWAP3 POP PUSH1 0x2 PUSH1 0x4 PUSH0 DUP10 DUP2 MSTORE PUSH1 0x20 ADD SWAP1 DUP2 MSTORE PUSH1 0x20 ADD PUSH0 KECCAK256 PUSH1 0x5 ADD DUP3 DUP2 SLOAD DUP2 LT PUSH2 0x4C7 JUMPI PUSH2 0x4C6 PUSH2 0x1AAA JUMP JUMPDEST JUMPDEST SWAP1 PUSH0 MSTORE PUSH1 0x20 PUSH0 KECCAK256 ADD SLOAD PUSH2 0x4DA SWAP2 SWAP1 PUSH2 0x1D16 JUMP JUMPDEST DUP3 PUSH2 0x4E5 SWAP2 SWAP1 PUSH2 0x1BA8 JUMP JUMPDEST SWAP2 POP DUP1 DUP1 PUSH1 0x1 ADD SWAP2 POP POP PUSH2 0x387 JUMP JUMPDEST POP PUSH0 PUSH1 0x4 PUSH0 DUP9 DUP2 MSTORE PUSH1 0x20 ADD SWAP1 DUP2 MSTORE PUSH1 0x20 ADD PUSH0 KECCAK256 PUSH1 0x1 ADD PUSH0 SWAP1 SLOAD SWAP1 PUSH2 0x100 EXP SWAP1 DIV PUSH20 0xFFFFFFFFFFFFFFFFFFFFFFFFFFFFFFFFFFFFFFFF AND SWAP1 POP PUSH2 0x537 DUP8 DUP5 DUP5 PUSH2 0xBEF JUMP JUMPDEST POP PUSH1 0xA DUP4 PUSH2 0x545 SWAP2 SWAP1 PUSH2 0x1B78 JUMP JUMPDEST SWAP3 POP DUP3 DUP4 PUSH2 0x553 SWAP2 SWAP1 PUSH2 0x1D60 JUMP JUMPDEST DUP3 PUSH2 0x55E SWAP2 SWAP1 PUSH2 0x1DA1 JUMP JUMPDEST SWAP2 POP PUSH1 0xA DUP3 PUSH2 0x56D SWAP2 SWAP1 PUSH2 0x1B78 JUMP JUMPDEST SWAP2 POP DUP1 PUSH20 0xFFFFFFFFFFFFFFFFFFFFFFFFFFFFFFFFFFFFFFFF AND PUSH4 0xE5D60CE1 DUP5 PUSH1 0x40 MLOAD DUP3 PUSH4 0xFFFFFFFF AND PUSH1 0xE0 SHL DUP2 MSTORE PUSH1 0x4 ADD PUSH2 0x5A8 SWAP2 SWAP1 PUSH2 0x156D JUMP JUMPDEST PUSH1 0x20 PUSH1 0x40 MLOAD DUP1 DUP4 SUB DUP2 PUSH0 DUP8 GAS CALL ISZERO DUP1 ISZERO PUSH2 0x5C4 JUMPI RETURNDATASIZE PUSH0 PUSH0 RETURNDATACOPY RETURNDATASIZE PUSH0 REVERT JUMPDEST POP POP POP POP PUSH1 0x40 MLOAD RETURNDATASIZE PUSH1 0x1F NOT PUSH1 0x1F DUP3 ADD AND DUP3 ADD DUP1 PUSH1 0x40 MSTORE POP DUP2 ADD SWAP1 PUSH2 0x5E8 SWAP2 SWAP1 PUSH2 0x1DFE JUMP JUMPDEST POP POP POP POP JUMPDEST PUSH1 0x1 SWAP2 POP POP JUMPDEST SWAP3 SWAP2 POP POP JUMP JUMPDEST PUSH0 PUSH1 0x20 MSTORE DUP2 PUSH0 MSTORE PUSH1 0x40 PUSH0 KECCAK256 DUP2 DUP2 SLOAD DUP2 LT PUSH2 0x611 JUMPI PUSH0 DUP1 REVERT JUMPDEST SWAP1 PUSH0 MSTORE PUSH1 0x20 PUSH0 KECCAK256 SWAP1 PUSH1 0x20 SWAP2 DUP3 DUP3 DIV ADD SWAP2 SWAP1 MOD SWAP2 POP SWAP2 POP SWAP1 SLOAD SWAP1 PUSH2 0x100 EXP SWAP1 DIV PUSH1 0xFF AND DUP2 JUMP JUMPDEST PUSH0 PUSH1 0xA DUP3 LT ISZERO DUP1 ISZERO PUSH2 0x653 JUMPI POP PUSH0 PUSH1 0xA DUP4 PUSH2 0x651 SWAP2 SWAP1 PUSH2 0x1E29 JUMP JUMPDEST EQ JUMPDEST PUSH2 0x692 JUMPI PUSH1 0x40 MLOAD PUSH32 0x8C379A000000000000000000000000000000000000000000000000000000000 DUP2 MSTORE PUSH1 0x4 ADD PUSH2 0x689 SWAP1 PUSH2 0x1EB3 JUMP JUMPDEST PUSH1 0x40 MLOAD DUP1 SWAP2 SUB SWAP1 REVERT JUMPDEST DUP2 PUSH1 0x3 PUSH0 CALLER PUSH20 0xFFFFFFFFFFFFFFFFFFFFFFFFFFFFFFFFFFFFFFFF AND PUSH20 0xFFFFFFFFFFFFFFFFFFFFFFFFFFFFFFFFFFFFFFFF AND DUP2 MSTORE PUSH1 0x20 ADD SWAP1 DUP2 MSTORE PUSH1 0x20 ADD PUSH0 KECCAK256 SLOAD LT ISZERO PUSH2 0x712 JUMPI PUSH1 0x40 MLOAD PUSH32 0x8C379A000000000000000000000000000000000000000000000000000000000 DUP2 MSTORE PUSH1 0x4 ADD PUSH2 0x709 SWAP1 PUSH2 0x1F1B JUMP JUMPDEST PUSH1 0x40 MLOAD DUP1 SWAP2 SUB SWAP1 REVERT JUMPDEST PUSH0 PUSH2 0x71C DUP5 PUSH2 0xE97 JUMP JUMPDEST SWAP1 POP PUSH0 PUSH1 0x2 PUSH0 DUP2 SLOAD DUP1 SWAP3 SWAP2 SWAP1 PUSH2 0x731 SWAP1 PUSH2 0x1B04 JUMP JUMPDEST SWAP2 SWAP1 POP SSTORE SWAP1 POP PUSH1 0x40 MLOAD DUP1 PUSH2 0x120 ADD PUSH1 0x40 MSTORE DUP1 DUP3 DUP2 MSTORE PUSH1 0x20 ADD CALLER PUSH20 0xFFFFFFFFFFFFFFFFFFFFFFFFFFFFFFFFFFFFFFFF AND DUP2 MSTORE PUSH1 0x20 ADD DUP7 PUSH1 0x2 DUP2 GT ISZERO PUSH2 0x778 JUMPI PUSH2 0x777 PUSH2 0x16CA JUMP JUMPDEST JUMPDEST DUP2 MSTORE PUSH1 0x20 ADD DUP8 DUP2 MSTORE PUSH1 0x20 ADD DUP4 DUP2 MSTORE PUSH1 0x20 ADD DUP6 DUP2 MSTORE PUSH1 0x20 ADD DUP4 MLOAD PUSH8 0xFFFFFFFFFFFFFFFF DUP2 GT ISZERO PUSH2 0x7AA JUMPI PUSH2 0x7A9 PUSH2 0x176E JUMP JUMPDEST JUMPDEST PUSH1 0x40 MLOAD SWAP1 DUP1 DUP3 MSTORE DUP1 PUSH1 0x20 MUL PUSH1 0x20 ADD DUP3 ADD PUSH1 0x40 MSTORE DUP1 ISZERO PUSH2 0x7D8 JUMPI DUP2 PUSH1 0x20 ADD PUSH1 0x20 DUP3 MUL DUP1 CALLDATASIZE DUP4 CALLDATACOPY DUP1 DUP3 ADD SWAP2 POP POP SWAP1 POP JUMPDEST POP DUP2 MSTORE PUSH1 0x20 ADD DUP4 MLOAD PUSH8 0xFFFFFFFFFFFFFFFF DUP2 GT ISZERO PUSH2 0x7F9 JUMPI PUSH2 0x7F8 PUSH2 0x176E JUMP JUMPDEST JUMPDEST PUSH1 0x40 MLOAD SWAP1 DUP1 DUP3 MSTORE DUP1 PUSH1 0x20 MUL PUSH1 0x20 ADD DUP3 ADD PUSH1 0x40 MSTORE DUP1 ISZERO PUSH2 0x827 JUMPI DUP2 PUSH1 0x20 ADD PUSH1 0x20 DUP3 MUL DUP1 CALLDATASIZE DUP4 CALLDATACOPY DUP1 DUP3 ADD SWAP2 POP POP SWAP1 POP JUMPDEST POP DUP2 MSTORE PUSH1 0x20 ADD PUSH0 DUP2 MSTORE POP PUSH1 0x4 PUSH0 DUP4 DUP2 MSTORE PUSH1 0x20 ADD SWAP1 DUP2 MSTORE PUSH1 0x20 ADD PUSH0 KECCAK256 PUSH0 DUP3 ADD MLOAD DUP2 PUSH0 ADD SSTORE PUSH1 0x20 DUP3 ADD MLOAD DUP2 PUSH1 0x1 ADD PUSH0 PUSH2 0x100 EXP DUP2 SLOAD DUP2 PUSH20 0xFFFFFFFFFFFFFFFFFFFFFFFFFFFFFFFFFFFFFFFF MUL NOT AND SWAP1 DUP4 PUSH20 0xFFFFFFFFFFFFFFFFFFFFFFFFFFFFFFFFFFFFFFFF AND MUL OR SWAP1 SSTORE POP PUSH1 0x40 DUP3 ADD MLOAD DUP2 PUSH1 0x1 ADD PUSH1 0x14 PUSH2 0x100 EXP DUP2 SLOAD DUP2 PUSH1 0xFF MUL NOT AND SWAP1 DUP4 PUSH1 0x2 DUP2 GT ISZERO PUSH2 0x8BB JUMPI PUSH2 0x8BA PUSH2 0x16CA JUMP JUMPDEST JUMPDEST MUL OR SWAP1 SSTORE POP PUSH1 0x60 DUP3 ADD MLOAD DUP2 PUSH1 0x2 ADD SWAP1 DUP2 PUSH2 0x8D5 SWAP2 SWAP1 PUSH2 0x2140 JUMP JUMPDEST POP PUSH1 0x80 DUP3 ADD MLOAD DUP2 PUSH1 0x3 ADD SWAP1 DUP1 MLOAD SWAP1 PUSH1 0x20 ADD SWAP1 PUSH2 0x8F2 SWAP3 SWAP2 SWAP1 PUSH2 0x13B7 JUMP JUMPDEST POP PUSH1 0xA0 DUP3 ADD MLOAD DUP2 PUSH1 0x4 ADD SSTORE PUSH1 0xC0 DUP3 ADD MLOAD DUP2 PUSH1 0x5 ADD SWAP1 DUP1 MLOAD SWAP1 PUSH1 0x20 ADD SWAP1 PUSH2 0x919 SWAP3 SWAP2 SWAP1 PUSH2 0x143E JUMP JUMPDEST POP PUSH1 0xE0 DUP3 ADD MLOAD DUP2 PUSH1 0x6 ADD SWAP1 DUP1 MLOAD SWAP1 PUSH1 0x20 ADD SWAP1 PUSH2 0x936 SWAP3 SWAP2 SWAP1 PUSH2 0x13B7 JUMP JUMPDEST POP PUSH2 0x100 DUP3 ADD MLOAD DUP2 PUSH1 0x7 ADD SSTORE SWAP1 POP POP DUP1 PUSH32 0xE84D10FA98AF4ED68014B5EB0367CBCB5EE2664F554195989F89F9BC49709004 DUP4 DUP8 DUP10 DUP9 PUSH1 0x40 MLOAD PUSH2 0x97B SWAP5 SWAP4 SWAP3 SWAP2 SWAP1 PUSH2 0x230C JUMP JUMPDEST PUSH1 0x40 MLOAD DUP1 SWAP2 SUB SWAP1 LOG2 PUSH1 0x1 SWAP3 POP POP POP SWAP4 SWAP3 POP POP POP JUMP JUMPDEST PUSH1 0x50 DUP2 JUMP JUMPDEST PUSH1 0x3 PUSH1 0x20 MSTORE DUP1 PUSH0 MSTORE PUSH1 0x40 PUSH0 KECCAK256 PUSH0 SWAP2 POP SWAP1 POP SLOAD DUP2 JUMP JUMPDEST PUSH1 0x2 SLOAD DUP2 JUMP JUMPDEST PUSH1 0x1 DUP2 DUP2 SLOAD DUP2 LT PUSH2 0x9BF JUMPI PUSH0 DUP1 REVERT JUMPDEST SWAP1 PUSH0 MSTORE PUSH1 0x20 PUSH0 KECCAK256 ADD PUSH0 SWAP2 POP SLOAD SWAP1 PUSH2 0x100 EXP SWAP1 DIV PUSH20 0xFFFFFFFFFFFFFFFFFFFFFFFFFFFFFFFFFFFFFFFF AND DUP2 JUMP JUMPDEST PUSH1 0xA DUP2 JUMP JUMPDEST PUSH0 PUSH1 0x50 PUSH1 0x3 PUSH0 CALLER PUSH20 0xFFFFFFFFFFFFFFFFFFFFFFFFFFFFFFFFFFFFFFFF AND PUSH20 0xFFFFFFFFFFFFFFFFFFFFFFFFFFFFFFFFFFFFFFFF AND DUP2 MSTORE PUSH1 0x20 ADD SWAP1 DUP2 MSTORE PUSH1 0x20 ADD PUSH0 KECCAK256 DUP2 SWAP1 SSTORE POP DUP2 PUSH0 PUSH0 CALLER PUSH20 0xFFFFFFFFFFFFFFFFFFFFFFFFFFFFFFFFFFFFFFFF AND PUSH20 0xFFFFFFFFFFFFFFFFFFFFFFFFFFFFFFFFFFFFFFFF AND DUP2 MSTORE PUSH1 0x20 ADD SWAP1 DUP2 MSTORE PUSH1 0x20 ADD PUSH0 KECCAK256 SWAP1 DUP1 MLOAD SWAP1 PUSH1 0x20 ADD SWAP1 PUSH2 0xA84 SWAP3 SWAP2 SWAP1 PUSH2 0x1489 JUMP JUMPDEST POP PUSH1 0x1 CALLER SWAP1 DUP1 PUSH1 0x1 DUP2 SLOAD ADD DUP1 DUP3 SSTORE DUP1 SWAP2 POP POP PUSH1 0x1 SWAP1 SUB SWAP1 PUSH0 MSTORE PUSH1 0x20 PUSH0 KECCAK256 ADD PUSH0 SWAP1 SWAP2 SWAP1 SWAP2 SWAP1 SWAP2 PUSH2 0x100 EXP DUP2 SLOAD DUP2 PUSH20 0xFFFFFFFFFFFFFFFFFFFFFFFFFFFFFFFFFFFFFFFF MUL NOT AND SWAP1 DUP4 PUSH20 0xFFFFFFFFFFFFFFFFFFFFFFFFFFFFFFFFFFFFFFFF AND MUL OR SWAP1 SSTORE POP PUSH1 0x1 SWAP1 POP SWAP2 SWAP1 POP JUMP JUMPDEST PUSH1 0xA DUP2 JUMP JUMPDEST PUSH0 PUSH0 PUSH1 0x4 PUSH0 DUP6 DUP2 MSTORE PUSH1 0x20 ADD SWAP1 DUP2 MSTORE PUSH1 0x20 ADD PUSH0 KECCAK256 PUSH0 ADD SLOAD SUB PUSH2 0xB16 JUMPI PUSH0 SWAP1 POP PUSH2 0xBE9 JUMP JUMPDEST PUSH0 PUSH1 0x4 PUSH0 DUP6 DUP2 MSTORE PUSH1 0x20 ADD SWAP1 DUP2 MSTORE PUSH1 0x20 ADD PUSH0 KECCAK256 PUSH1 0x7 ADD SLOAD SWAP1 POP PUSH0 DUP2 SUB PUSH2 0xB3E JUMPI PUSH0 SWAP2 POP POP PUSH2 0xBE9 JUMP JUMPDEST PUSH0 PUSH0 SWAP1 POP JUMPDEST DUP2 DUP2 LT ISZERO PUSH2 0xBE3 JUMPI DUP4 PUSH20 0xFFFFFFFFFFFFFFFFFFFFFFFFFFFFFFFFFFFFFFFF AND PUSH1 0x4 PUSH0 DUP8 DUP2 MSTORE PUSH1 0x20 ADD SWAP1 DUP2 MSTORE PUSH1 0x20 ADD PUSH0 KECCAK256 PUSH1 0x6 ADD DUP3 DUP2 SLOAD DUP2 LT PUSH2 0xB88 JUMPI PUSH2 0xB87 PUSH2 0x1AAA JUMP JUMPDEST JUMPDEST SWAP1 PUSH0 MSTORE PUSH1 0x20 PUSH0 KECCAK256 ADD PUSH0 SWAP1 SLOAD SWAP1 PUSH2 0x100 EXP SWAP1 DIV PUSH20 0xFFFFFFFFFFFFFFFFFFFFFFFFFFFFFFFFFFFFFFFF AND PUSH20 0xFFFFFFFFFFFFFFFFFFFFFFFFFFFFFFFFFFFFFFFF AND SUB PUSH2 0xBD6 JUMPI PUSH1 0x1 SWAP3 POP POP POP PUSH2 0xBE9 JUMP JUMPDEST DUP1 DUP1 PUSH1 0x1 ADD SWAP2 POP POP PUSH2 0xB43 JUMP JUMPDEST POP PUSH0 SWAP2 POP POP JUMPDEST SWAP3 SWAP2 POP POP JUMP JUMPDEST PUSH0 PUSH0 PUSH0 SWAP1 POP JUMPDEST PUSH1 0xA DUP2 LT ISZERO PUSH2 0xE8B JUMPI PUSH0 PUSH1 0x4 PUSH0 DUP8 DUP2 MSTORE PUSH1 0x20 ADD SWAP1 DUP2 MSTORE PUSH1 0x20 ADD PUSH0 KECCAK256 PUSH1 0x5 ADD DUP3 DUP2 SLOAD DUP2 LT PUSH2 0xC25 JUMPI PUSH2 0xC24 PUSH2 0x1AAA JUMP JUMPDEST JUMPDEST SWAP1 PUSH0 MSTORE PUSH1 0x20 PUSH0 KECCAK256 ADD SLOAD SWAP1 POP DUP1 DUP5 DUP7 PUSH2 0xC3D SWAP2 SWAP1 PUSH2 0x1DA1 JUMP JUMPDEST LT ISZERO DUP1 PUSH2 0xC55 JUMPI POP DUP1 DUP5 DUP7 PUSH2 0xC52 SWAP2 SWAP1 PUSH2 0x1BA8 JUMP JUMPDEST GT ISZERO JUMPDEST ISZERO PUSH2 0xCFC JUMPI PUSH1 0x28 PUSH1 0x3 PUSH0 PUSH1 0x4 PUSH0 DUP11 DUP2 MSTORE PUSH1 0x20 ADD SWAP1 DUP2 MSTORE PUSH1 0x20 ADD PUSH0 KECCAK256 PUSH1 0x3 ADD DUP6 DUP2 SLOAD DUP2 LT PUSH2 0xC85 JUMPI PUSH2 0xC84 PUSH2 0x1AAA JUMP JUMPDEST JUMPDEST SWAP1 PUSH0 MSTORE PUSH1 0x20 PUSH0 KECCAK256 ADD PUSH0 SWAP1 SLOAD SWAP1 PUSH2 0x100 EXP SWAP1 DIV PUSH20 0xFFFFFFFFFFFFFFFFFFFFFFFFFFFFFFFFFFFFFFFF AND PUSH20 0xFFFFFFFFFFFFFFFFFFFFFFFFFFFFFFFFFFFFFFFF AND PUSH20 0xFFFFFFFFFFFFFFFFFFFFFFFFFFFFFFFFFFFFFFFF AND DUP2 MSTORE PUSH1 0x20 ADD SWAP1 DUP2 MSTORE PUSH1 0x20 ADD PUSH0 KECCAK256 PUSH0 DUP3 DUP3 SLOAD PUSH2 0xCF4 SWAP2 SWAP1 PUSH2 0x1DA1 JUMP JUMPDEST SWAP3 POP POP DUP2 SWAP1 SSTORE POP JUMPDEST PUSH0 PUSH1 0x3 PUSH0 PUSH1 0x4 PUSH0 DUP11 DUP2 MSTORE PUSH1 0x20 ADD SWAP1 DUP2 MSTORE PUSH1 0x20 ADD PUSH0 KECCAK256 PUSH1 0x3 ADD DUP6 DUP2 SLOAD DUP2 LT PUSH2 0xD26 JUMPI PUSH2 0xD25 PUSH2 0x1AAA JUMP JUMPDEST JUMPDEST SWAP1 PUSH0 MSTORE PUSH1 0x20 PUSH0 KECCAK256 ADD PUSH0 SWAP1 SLOAD SWAP1 PUSH2 0x100 EXP SWAP1 DIV PUSH20 0xFFFFFFFFFFFFFFFFFFFFFFFFFFFFFFFFFFFFFFFF AND PUSH20 0xFFFFFFFFFFFFFFFFFFFFFFFFFFFFFFFFFFFFFFFF AND PUSH20 0xFFFFFFFFFFFFFFFFFFFFFFFFFFFFFFFFFFFFFFFF AND DUP2 MSTORE PUSH1 0x20 ADD SWAP1 DUP2 MSTORE PUSH1 0x20 ADD PUSH0 KECCAK256 SLOAD GT PUSH2 0xE7D JUMPI PUSH0 PUSH1 0x4 PUSH0 DUP9 DUP2 MSTORE PUSH1 0x20 ADD SWAP1 DUP2 MSTORE PUSH1 0x20 ADD PUSH0 KECCAK256 PUSH1 0x3 ADD DUP4 DUP2 SLOAD DUP2 LT PUSH2 0xDB4 JUMPI PUSH2 0xDB3 PUSH2 0x1AAA JUMP JUMPDEST JUMPDEST SWAP1 PUSH0 MSTORE PUSH1 0x20 PUSH0 KECCAK256 ADD PUSH0 SWAP1 SLOAD SWAP1 PUSH2 0x100 EXP SWAP1 DIV PUSH20 0xFFFFFFFFFFFFFFFFFFFFFFFFFFFFFFFFFFFFFFFF AND SWAP1 POP PUSH0 PUSH0 SWAP1 POP JUMPDEST PUSH1 0x1 DUP1 SLOAD SWAP1 POP DUP2 LT ISZERO PUSH2 0xE7A JUMPI DUP2 PUSH20 0xFFFFFFFFFFFFFFFFFFFFFFFFFFFFFFFFFFFFFFFF AND PUSH1 0x1 DUP3 DUP2 SLOAD DUP2 LT PUSH2 0xE1B JUMPI PUSH2 0xE1A PUSH2 0x1AAA JUMP JUMPDEST JUMPDEST SWAP1 PUSH0 MSTORE PUSH1 0x20 PUSH0 KECCAK256 ADD PUSH0 SWAP1 SLOAD SWAP1 PUSH2 0x100 EXP SWAP1 DIV PUSH20 0xFFFFFFFFFFFFFFFFFFFFFFFFFFFFFFFFFFFFFFFF AND PUSH20 0xFFFFFFFFFFFFFFFFFFFFFFFFFFFFFFFFFFFFFFFF AND SUB PUSH2 0xE6D JUMPI PUSH2 0xE67 DUP2 PUSH2 0x127E JUMP JUMPDEST POP PUSH2 0xE7A JUMP JUMPDEST DUP1 DUP1 PUSH1 0x1 ADD SWAP2 POP POP PUSH2 0xDE3 JUMP JUMPDEST POP POP JUMPDEST POP DUP1 DUP1 PUSH1 0x1 ADD SWAP2 POP POP PUSH2 0xBF5 JUMP JUMPDEST POP PUSH1 0x1 SWAP1 POP SWAP4 SWAP3 POP POP POP JUMP JUMPDEST PUSH1 0x60 PUSH0 PUSH0 SWAP1 POP PUSH0 PUSH0 SWAP1 POP JUMPDEST PUSH1 0x1 DUP1 SLOAD SWAP1 POP DUP2 LT ISZERO PUSH2 0x1030 JUMPI PUSH0 PUSH1 0x1 DUP3 DUP2 SLOAD DUP2 LT PUSH2 0xEC4 JUMPI PUSH2 0xEC3 PUSH2 0x1AAA JUMP JUMPDEST JUMPDEST SWAP1 PUSH0 MSTORE PUSH1 0x20 PUSH0 KECCAK256 ADD PUSH0 SWAP1 SLOAD SWAP1 PUSH2 0x100 EXP SWAP1 DIV PUSH20 0xFFFFFFFFFFFFFFFFFFFFFFFFFFFFFFFFFFFFFFFF AND SWAP1 POP PUSH0 PUSH0 PUSH0 DUP4 PUSH20 0xFFFFFFFFFFFFFFFFFFFFFFFFFFFFFFFFFFFFFFFF AND PUSH20 0xFFFFFFFFFFFFFFFFFFFFFFFFFFFFFFFFFFFFFFFF AND DUP2 MSTORE PUSH1 0x20 ADD SWAP1 DUP2 MSTORE PUSH1 0x20 ADD PUSH0 KECCAK256 DUP1 SLOAD DUP1 PUSH1 0x20 MUL PUSH1 0x20 ADD PUSH1 0x40 MLOAD SWAP1 DUP2 ADD PUSH1 0x40 MSTORE DUP1 SWAP3 SWAP2 SWAP1 DUP2 DUP2 MSTORE PUSH1 0x20 ADD DUP3 DUP1 SLOAD DUP1 ISZERO PUSH2 0xFA6 JUMPI PUSH1 0x20 MUL DUP3 ADD SWAP2 SWAP1 PUSH0 MSTORE PUSH1 0x20 PUSH0 KECCAK256 SWAP1 PUSH0 SWAP1 JUMPDEST DUP3 DUP3 SWAP1 SLOAD SWAP1 PUSH2 0x100 EXP SWAP1 DIV PUSH1 0xFF AND PUSH1 0x2 DUP2 GT ISZERO PUSH2 0xF81 JUMPI PUSH2 0xF80 PUSH2 0x16CA JUMP JUMPDEST JUMPDEST DUP2 MSTORE PUSH1 0x20 ADD SWAP1 PUSH1 0x1 ADD SWAP1 PUSH1 0x20 DUP3 PUSH0 ADD DIV SWAP3 DUP4 ADD SWAP3 PUSH1 0x1 SUB DUP3 MUL SWAP2 POP DUP1 DUP5 GT PUSH2 0xF61 JUMPI SWAP1 POP JUMPDEST POP POP POP POP POP SWAP1 POP PUSH0 PUSH0 SWAP1 POP JUMPDEST DUP2 MLOAD DUP2 LT ISZERO PUSH2 0x1020 JUMPI DUP7 PUSH1 0x2 DUP2 GT ISZERO PUSH2 0xFCE JUMPI PUSH2 0xFCD PUSH2 0x16CA JUMP JUMPDEST JUMPDEST DUP3 DUP3 DUP2 MLOAD DUP2 LT PUSH2 0xFE1 JUMPI PUSH2 0xFE0 PUSH2 0x1AAA JUMP JUMPDEST JUMPDEST PUSH1 0x20 MUL PUSH1 0x20 ADD ADD MLOAD PUSH1 0x2 DUP2 GT ISZERO PUSH2 0xFFB JUMPI PUSH2 0xFFA PUSH2 0x16CA JUMP JUMPDEST JUMPDEST SUB PUSH2 0x1013 JUMPI DUP5 DUP1 PUSH2 0x100B SWAP1 PUSH2 0x1B04 JUMP JUMPDEST SWAP6 POP POP PUSH2 0x1020 JUMP JUMPDEST DUP1 DUP1 PUSH1 0x1 ADD SWAP2 POP POP PUSH2 0xFB2 JUMP JUMPDEST POP POP POP DUP1 DUP1 PUSH1 0x1 ADD SWAP2 POP POP PUSH2 0xEA2 JUMP JUMPDEST POP PUSH0 DUP2 PUSH8 0xFFFFFFFFFFFFFFFF DUP2 GT ISZERO PUSH2 0x104C JUMPI PUSH2 0x104B PUSH2 0x176E JUMP JUMPDEST JUMPDEST PUSH1 0x40 MLOAD SWAP1 DUP1 DUP3 MSTORE DUP1 PUSH1 0x20 MUL PUSH1 0x20 ADD DUP3 ADD PUSH1 0x40 MSTORE DUP1 ISZERO PUSH2 0x107A JUMPI DUP2 PUSH1 0x20 ADD PUSH1 0x20 DUP3 MUL DUP1 CALLDATASIZE DUP4 CALLDATACOPY DUP1 DUP3 ADD SWAP2 POP POP SWAP1 POP JUMPDEST POP SWAP1 POP PUSH0 PUSH0 SWAP1 POP PUSH0 PUSH0 SWAP1 POP JUMPDEST PUSH1 0x1 DUP1 SLOAD SWAP1 POP DUP2 LT ISZERO PUSH2 0x1272 JUMPI PUSH0 PUSH1 0x1 DUP3 DUP2 SLOAD DUP2 LT PUSH2 0x10A8 JUMPI PUSH2 0x10A7 PUSH2 0x1AAA JUMP JUMPDEST JUMPDEST SWAP1 PUSH0 MSTORE PUSH1 0x20 PUSH0 KECCAK256 ADD PUSH0 SWAP1 SLOAD SWAP1 PUSH2 0x100 EXP SWAP1 DIV PUSH20 0xFFFFFFFFFFFFFFFFFFFFFFFFFFFFFFFFFFFFFFFF AND SWAP1 POP PUSH0 PUSH0 PUSH0 DUP4 PUSH20 0xFFFFFFFFFFFFFFFFFFFFFFFFFFFFFFFFFFFFFFFF AND PUSH20 0xFFFFFFFFFFFFFFFFFFFFFFFFFFFFFFFFFFFFFFFF AND DUP2 MSTORE PUSH1 0x20 ADD SWAP1 DUP2 MSTORE PUSH1 0x20 ADD PUSH0 KECCAK256 DUP1 SLOAD DUP1 PUSH1 0x20 MUL PUSH1 0x20 ADD PUSH1 0x40 MLOAD SWAP1 DUP2 ADD PUSH1 0x40 MSTORE DUP1 SWAP3 SWAP2 SWAP1 DUP2 DUP2 MSTORE PUSH1 0x20 ADD DUP3 DUP1 SLOAD DUP1 ISZERO PUSH2 0x118A JUMPI PUSH1 0x20 MUL DUP3 ADD SWAP2 SWAP1 PUSH0 MSTORE PUSH1 0x20 PUSH0 KECCAK256 SWAP1 PUSH0 SWAP1 JUMPDEST DUP3 DUP3 SWAP1 SLOAD SWAP1 PUSH2 0x100 EXP SWAP1 DIV PUSH1 0xFF AND PUSH1 0x2 DUP2 GT ISZERO PUSH2 0x1165 JUMPI PUSH2 0x1164 PUSH2 0x16CA JUMP JUMPDEST JUMPDEST DUP2 MSTORE PUSH1 0x20 ADD SWAP1 PUSH1 0x1 ADD SWAP1 PUSH1 0x20 DUP3 PUSH0 ADD DIV SWAP3 DUP4 ADD SWAP3 PUSH1 0x1 SUB DUP3 MUL SWAP2 POP DUP1 DUP5 GT PUSH2 0x1145 JUMPI SWAP1 POP JUMPDEST POP POP POP POP POP SWAP1 POP PUSH0 PUSH0 SWAP1 POP PUSH0 PUSH0 SWAP1 POP JUMPDEST DUP3 MLOAD DUP2 LT ISZERO PUSH2 0x11FE JUMPI DUP10 PUSH1 0x2 DUP2 GT ISZERO PUSH2 0x11B6 JUMPI PUSH2 0x11B5 PUSH2 0x16CA JUMP JUMPDEST JUMPDEST DUP4 DUP3 DUP2 MLOAD DUP2 LT PUSH2 0x11C9 JUMPI PUSH2 0x11C8 PUSH2 0x1AAA JUMP JUMPDEST JUMPDEST PUSH1 0x20 MUL PUSH1 0x20 ADD ADD MLOAD PUSH1 0x2 DUP2 GT ISZERO PUSH2 0x11E3 JUMPI PUSH2 0x11E2 PUSH2 0x16CA JUMP JUMPDEST JUMPDEST SUB PUSH2 0x11F1 JUMPI PUSH1 0x1 SWAP2 POP PUSH2 0x11FE JUMP JUMPDEST DUP1 DUP1 PUSH1 0x1 ADD SWAP2 POP POP PUSH2 0x119A JUMP JUMPDEST POP DUP1 ISZERO PUSH2 0x1262 JUMPI DUP3 DUP7 DUP7 DUP2 MLOAD DUP2 LT PUSH2 0x1219 JUMPI PUSH2 0x1218 PUSH2 0x1AAA JUMP JUMPDEST JUMPDEST PUSH1 0x20 MUL PUSH1 0x20 ADD ADD SWAP1 PUSH20 0xFFFFFFFFFFFFFFFFFFFFFFFFFFFFFFFFFFFFFFFF AND SWAP1 DUP2 PUSH20 0xFFFFFFFFFFFFFFFFFFFFFFFFFFFFFFFFFFFFFFFF AND DUP2 MSTORE POP POP DUP5 DUP1 PUSH2 0x125E SWAP1 PUSH2 0x1B04 JUMP JUMPDEST SWAP6 POP POP JUMPDEST POP POP POP DUP1 DUP1 PUSH1 0x1 ADD SWAP2 POP POP PUSH2 0x1086 JUMP JUMPDEST POP DUP2 SWAP4 POP POP POP POP SWAP2 SWAP1 POP JUMP JUMPDEST PUSH0 PUSH1 0x1 DUP1 SLOAD SWAP1 POP DUP3 LT PUSH2 0x12C6 JUMPI PUSH1 0x40 MLOAD PUSH32 0x8C379A000000000000000000000000000000000000000000000000000000000 DUP2 MSTORE PUSH1 0x4 ADD PUSH2 0x12BD SWAP1 PUSH2 0x23A7 JUMP JUMPDEST PUSH1 0x40 MLOAD DUP1 SWAP2 SUB SWAP1 REVERT JUMPDEST PUSH1 0x1 DUP1 DUP1 DUP1 SLOAD SWAP1 POP PUSH2 0x12D8 SWAP2 SWAP1 PUSH2 0x1DA1 JUMP JUMPDEST DUP2 SLOAD DUP2 LT PUSH2 0x12E9 JUMPI PUSH2 0x12E8 PUSH2 0x1AAA JUMP JUMPDEST JUMPDEST SWAP1 PUSH0 MSTORE PUSH1 0x20 PUSH0 KECCAK256 ADD PUSH0 SWAP1 SLOAD SWAP1 PUSH2 0x100 EXP SWAP1 DIV PUSH20 0xFFFFFFFFFFFFFFFFFFFFFFFFFFFFFFFFFFFFFFFF AND PUSH1 0x1 DUP4 DUP2 SLOAD DUP2 LT PUSH2 0x1325 JUMPI PUSH2 0x1324 PUSH2 0x1AAA JUMP JUMPDEST JUMPDEST SWAP1 PUSH0 MSTORE PUSH1 0x20 PUSH0 KECCAK256 ADD PUSH0 PUSH2 0x100 EXP DUP2 SLOAD DUP2 PUSH20 0xFFFFFFFFFFFFFFFFFFFFFFFFFFFFFFFFFFFFFFFF MUL NOT AND SWAP1 DUP4 PUSH20 0xFFFFFFFFFFFFFFFFFFFFFFFFFFFFFFFFFFFFFFFF AND MUL OR SWAP1 SSTORE POP PUSH1 0x1 DUP1 SLOAD DUP1 PUSH2 0x137C JUMPI PUSH2 0x137B PUSH2 0x23C5 JUMP JUMPDEST JUMPDEST PUSH1 0x1 SWAP1 SUB DUP2 DUP2 SWAP1 PUSH0 MSTORE PUSH1 0x20 PUSH0 KECCAK256 ADD PUSH0 PUSH2 0x100 EXP DUP2 SLOAD SWAP1 PUSH20 0xFFFFFFFFFFFFFFFFFFFFFFFFFFFFFFFFFFFFFFFF MUL NOT AND SWAP1 SSTORE SWAP1 SSTORE PUSH1 0x1 SWAP1 POP SWAP2 SWAP1 POP JUMP JUMPDEST DUP3 DUP1 SLOAD DUP3 DUP3 SSTORE SWAP1 PUSH0 MSTORE PUSH1 0x20 PUSH0 KECCAK256 SWAP1 DUP2 ADD SWAP3 DUP3 ISZERO PUSH2 0x142D JUMPI SWAP2 PUSH1 0x20 MUL DUP3 ADD JUMPDEST DUP3 DUP2 GT ISZERO PUSH2 0x142C JUMPI DUP3 MLOAD DUP3 PUSH0 PUSH2 0x100 EXP DUP2 SLOAD DUP2 PUSH20 0xFFFFFFFFFFFFFFFFFFFFFFFFFFFFFFFFFFFFFFFF MUL NOT AND SWAP1 DUP4 PUSH20 0xFFFFFFFFFFFFFFFFFFFFFFFFFFFFFFFFFFFFFFFF AND MUL OR SWAP1 SSTORE POP SWAP2 PUSH1 0x20 ADD SWAP2 SWAP1 PUSH1 0x1 ADD SWAP1 PUSH2 0x13D5 JUMP JUMPDEST JUMPDEST POP SWAP1 POP PUSH2 0x143A SWAP2 SWAP1 PUSH2 0x153A JUMP JUMPDEST POP SWAP1 JUMP JUMPDEST DUP3 DUP1 SLOAD DUP3 DUP3 SSTORE SWAP1 PUSH0 MSTORE PUSH1 0x20 PUSH0 KECCAK256 SWAP1 DUP2 ADD SWAP3 DUP3 ISZERO PUSH2 0x1478 JUMPI SWAP2 PUSH1 0x20 MUL DUP3 ADD JUMPDEST DUP3 DUP2 GT ISZERO PUSH2 0x1477 JUMPI DUP3 MLOAD DUP3 SSTORE SWAP2 PUSH1 0x20 ADD SWAP2 SWAP1 PUSH1 0x1 ADD SWAP1 PUSH2 0x145C JUMP JUMPDEST JUMPDEST POP SWAP1 POP PUSH2 0x1485 SWAP2 SWAP1 PUSH2 0x153A JUMP JUMPDEST POP SWAP1 JUMP JUMPDEST DUP3 DUP1 SLOAD DUP3 DUP3 SSTORE SWAP1 PUSH0 MSTORE PUSH1 0x20 PUSH0 KECCAK256 SWAP1 PUSH1 0x1F ADD PUSH1 0x20 SWAP1 DIV DUP2 ADD SWAP3 DUP3 ISZERO PUSH2 0x1529 JUMPI SWAP2 PUSH1 0x20 MUL DUP3 ADD PUSH0 JUMPDEST DUP4 DUP3 GT ISZERO PUSH2 0x14FB JUMPI DUP4 MLOAD DUP4 DUP3 PUSH2 0x100 EXP DUP2 SLOAD DUP2 PUSH1 0xFF MUL NOT AND SWAP1 DUP4 PUSH1 0x2 DUP2 GT ISZERO PUSH2 0x14DB JUMPI PUSH2 0x14DA PUSH2 0x16CA JUMP JUMPDEST JUMPDEST MUL OR SWAP1 SSTORE POP SWAP3 PUSH1 0x20 ADD SWAP3 PUSH1 0x1 ADD PUSH1 0x20 DUP2 PUSH0 ADD DIV SWAP3 DUP4 ADD SWAP3 PUSH1 0x1 SUB MUL PUSH2 0x14AF JUMP JUMPDEST DUP1 ISZERO PUSH2 0x1527 JUMPI DUP3 DUP2 PUSH2 0x100 EXP DUP2 SLOAD SWAP1 PUSH1 0xFF MUL NOT AND SWAP1 SSTORE PUSH1 0x1 ADD PUSH1 0x20 DUP2 PUSH0 ADD DIV SWAP3 DUP4 ADD SWAP3 PUSH1 0x1 SUB MUL PUSH2 0x14FB JUMP JUMPDEST POP JUMPDEST POP SWAP1 POP PUSH2 0x1536 SWAP2 SWAP1 PUSH2 0x153A JUMP JUMPDEST POP SWAP1 JUMP JUMPDEST JUMPDEST DUP1 DUP3 GT ISZERO PUSH2 0x1551 JUMPI PUSH0 DUP2 PUSH0 SWAP1 SSTORE POP PUSH1 0x1 ADD PUSH2 0x153B JUMP JUMPDEST POP SWAP1 JUMP JUMPDEST PUSH0 DUP2 SWAP1 POP SWAP2 SWAP1 POP JUMP JUMPDEST PUSH2 0x1567 DUP2 PUSH2 0x1555 JUMP JUMPDEST DUP3 MSTORE POP POP JUMP JUMPDEST PUSH0 PUSH1 0x20 DUP3 ADD SWAP1 POP PUSH2 0x1580 PUSH0 DUP4 ADD DUP5 PUSH2 0x155E JUMP JUMPDEST SWAP3 SWAP2 POP POP JUMP JUMPDEST PUSH0 PUSH1 0x40 MLOAD SWAP1 POP SWAP1 JUMP JUMPDEST PUSH0 PUSH0 REVERT JUMPDEST PUSH0 PUSH0 REVERT JUMPDEST PUSH2 0x15A0 DUP2 PUSH2 0x1555 JUMP JUMPDEST DUP2 EQ PUSH2 0x15AA JUMPI PUSH0 PUSH0 REVERT JUMPDEST POP JUMP JUMPDEST PUSH0 DUP2 CALLDATALOAD SWAP1 POP PUSH2 0x15BB DUP2 PUSH2 0x1597 JUMP JUMPDEST SWAP3 SWAP2 POP POP JUMP JUMPDEST PUSH0 PUSH0 PUSH1 0x40 DUP4 DUP6 SUB SLT ISZERO PUSH2 0x15D7 JUMPI PUSH2 0x15D6 PUSH2 0x158F JUMP JUMPDEST JUMPDEST PUSH0 PUSH2 0x15E4 DUP6 DUP3 DUP7 ADD PUSH2 0x15AD JUMP JUMPDEST SWAP3 POP POP PUSH1 0x20 PUSH2 0x15F5 DUP6 DUP3 DUP7 ADD PUSH2 0x15AD JUMP JUMPDEST SWAP2 POP POP SWAP3 POP SWAP3 SWAP1 POP JUMP JUMPDEST PUSH0 DUP2 ISZERO ISZERO SWAP1 POP SWAP2 SWAP1 POP JUMP JUMPDEST PUSH2 0x1613 DUP2 PUSH2 0x15FF JUMP JUMPDEST DUP3 MSTORE POP POP JUMP JUMPDEST PUSH0 PUSH1 0x20 DUP3 ADD SWAP1 POP PUSH2 0x162C PUSH0 DUP4 ADD DUP5 PUSH2 0x160A JUMP JUMPDEST SWAP3 SWAP2 POP POP JUMP JUMPDEST PUSH0 PUSH20 0xFFFFFFFFFFFFFFFFFFFFFFFFFFFFFFFFFFFFFFFF DUP3 AND SWAP1 POP SWAP2 SWAP1 POP JUMP JUMPDEST PUSH0 PUSH2 0x165B DUP3 PUSH2 0x1632 JUMP JUMPDEST SWAP1 POP SWAP2 SWAP1 POP JUMP JUMPDEST PUSH2 0x166B DUP2 PUSH2 0x1651 JUMP JUMPDEST DUP2 EQ PUSH2 0x1675 JUMPI PUSH0 PUSH0 REVERT JUMPDEST POP JUMP JUMPDEST PUSH0 DUP2 CALLDATALOAD SWAP1 POP PUSH2 0x1686 DUP2 PUSH2 0x1662 JUMP JUMPDEST SWAP3 SWAP2 POP POP JUMP JUMPDEST PUSH0 PUSH0 PUSH1 0x40 DUP4 DUP6 SUB SLT ISZERO PUSH2 0x16A2 JUMPI PUSH2 0x16A1 PUSH2 0x158F JUMP JUMPDEST JUMPDEST PUSH0 PUSH2 0x16AF DUP6 DUP3 DUP7 ADD PUSH2 0x1678 JUMP JUMPDEST SWAP3 POP POP PUSH1 0x20 PUSH2 0x16C0 DUP6 DUP3 DUP7 ADD PUSH2 0x15AD JUMP JUMPDEST SWAP2 POP POP SWAP3 POP SWAP3 SWAP1 POP JUMP JUMPDEST PUSH32 0x4E487B7100000000000000000000000000000000000000000000000000000000 PUSH0 MSTORE PUSH1 0x21 PUSH1 0x4 MSTORE PUSH1 0x24 PUSH0 REVERT JUMPDEST PUSH1 0x3 DUP2 LT PUSH2 0x1708 JUMPI PUSH2 0x1707 PUSH2 0x16CA JUMP JUMPDEST JUMPDEST POP JUMP JUMPDEST PUSH0 DUP2 SWAP1 POP PUSH2 0x1718 DUP3 PUSH2 0x16F7 JUMP JUMPDEST SWAP2 SWAP1 POP JUMP JUMPDEST PUSH0 PUSH2 0x1727 DUP3 PUSH2 0x170B JUMP JUMPDEST SWAP1 POP SWAP2 SWAP1 POP JUMP JUMPDEST PUSH2 0x1737 DUP2 PUSH2 0x171D JUMP JUMPDEST DUP3 MSTORE POP POP JUMP JUMPDEST PUSH0 PUSH1 0x20 DUP3 ADD SWAP1 POP PUSH2 0x1750 PUSH0 DUP4 ADD DUP5 PUSH2 0x172E JUMP JUMPDEST SWAP3 SWAP2 POP POP JUMP JUMPDEST PUSH0 PUSH0 REVERT JUMPDEST PUSH0 PUSH0 REVERT JUMPDEST PUSH0 PUSH1 0x1F NOT PUSH1 0x1F DUP4 ADD AND SWAP1 POP SWAP2 SWAP1 POP JUMP JUMPDEST PUSH32 0x4E487B7100000000000000000000000000000000000000000000000000000000 PUSH0 MSTORE PUSH1 0x41 PUSH1 0x4 MSTORE PUSH1 0x24 PUSH0 REVERT JUMPDEST PUSH2 0x17A4 DUP3 PUSH2 0x175E JUMP JUMPDEST DUP2 ADD DUP2 DUP2 LT PUSH8 0xFFFFFFFFFFFFFFFF DUP3 GT OR ISZERO PUSH2 0x17C3 JUMPI PUSH2 0x17C2 PUSH2 0x176E JUMP JUMPDEST JUMPDEST DUP1 PUSH1 0x40 MSTORE POP POP POP JUMP JUMPDEST PUSH0 PUSH2 0x17D5 PUSH2 0x1586 JUMP JUMPDEST SWAP1 POP PUSH2 0x17E1 DUP3 DUP3 PUSH2 0x179B JUMP JUMPDEST SWAP2 SWAP1 POP JUMP JUMPDEST PUSH0 PUSH8 0xFFFFFFFFFFFFFFFF DUP3 GT ISZERO PUSH2 0x1800 JUMPI PUSH2 0x17FF PUSH2 0x176E JUMP JUMPDEST JUMPDEST PUSH2 0x1809 DUP3 PUSH2 0x175E JUMP JUMPDEST SWAP1 POP PUSH1 0x20 DUP2 ADD SWAP1 POP SWAP2 SWAP1 POP JUMP JUMPDEST DUP3 DUP2 DUP4 CALLDATACOPY PUSH0 DUP4 DUP4 ADD MSTORE POP POP POP JUMP JUMPDEST PUSH0 PUSH2 0x1836 PUSH2 0x1831 DUP5 PUSH2 0x17E6 JUMP JUMPDEST PUSH2 0x17CC JUMP JUMPDEST SWAP1 POP DUP3 DUP2 MSTORE PUSH1 0x20 DUP2 ADD DUP5 DUP5 DUP5 ADD GT ISZERO PUSH2 0x1852 JUMPI PUSH2 0x1851 PUSH2 0x175A JUMP JUMPDEST JUMPDEST PUSH2 0x185D DUP5 DUP3 DUP6 PUSH2 0x1816 JUMP JUMPDEST POP SWAP4 SWAP3 POP POP POP JUMP JUMPDEST PUSH0 DUP3 PUSH1 0x1F DUP4 ADD SLT PUSH2 0x1879 JUMPI PUSH2 0x1878 PUSH2 0x1756 JUMP JUMPDEST JUMPDEST DUP2 CALLDATALOAD PUSH2 0x1889 DUP5 DUP3 PUSH1 0x20 DUP7 ADD PUSH2 0x1824 JUMP JUMPDEST SWAP2 POP POP SWAP3 SWAP2 POP POP JUMP JUMPDEST PUSH1 0x3 DUP2 LT PUSH2 0x189E JUMPI PUSH0 PUSH0 REVERT JUMPDEST POP JUMP JUMPDEST PUSH0 DUP2 CALLDATALOAD SWAP1 POP PUSH2 0x18AF DUP2 PUSH2 0x1892 JUMP JUMPDEST SWAP3 SWAP2 POP POP JUMP JUMPDEST PUSH0 PUSH0 PUSH0 PUSH1 0x60 DUP5 DUP7 SUB SLT ISZERO PUSH2 0x18CC JUMPI PUSH2 0x18CB PUSH2 0x158F JUMP JUMPDEST JUMPDEST PUSH0 DUP5 ADD CALLDATALOAD PUSH8 0xFFFFFFFFFFFFFFFF DUP2 GT ISZERO PUSH2 0x18E9 JUMPI PUSH2 0x18E8 PUSH2 0x1593 JUMP JUMPDEST JUMPDEST PUSH2 0x18F5 DUP7 DUP3 DUP8 ADD PUSH2 0x1865 JUMP JUMPDEST SWAP4 POP POP PUSH1 0x20 PUSH2 0x1906 DUP7 DUP3 DUP8 ADD PUSH2 0x18A1 JUMP JUMPDEST SWAP3 POP POP PUSH1 0x40 PUSH2 0x1917 DUP7 DUP3 DUP8 ADD PUSH2 0x15AD JUMP JUMPDEST SWAP2 POP POP SWAP3 POP SWAP3 POP SWAP3 JUMP JUMPDEST PUSH0 PUSH1 0x20 DUP3 DUP5 SUB SLT ISZERO PUSH2 0x1936 JUMPI PUSH2 0x1935 PUSH2 0x158F JUMP JUMPDEST JUMPDEST PUSH0 PUSH2 0x1943 DUP5 DUP3 DUP6 ADD PUSH2 0x1678 JUMP JUMPDEST SWAP2 POP POP SWAP3 SWAP2 POP POP JUMP JUMPDEST PUSH0 PUSH1 0x20 DUP3 DUP5 SUB SLT ISZERO PUSH2 0x1961 JUMPI PUSH2 0x1960 PUSH2 0x158F JUMP JUMPDEST JUMPDEST PUSH0 PUSH2 0x196E DUP5 DUP3 DUP6 ADD PUSH2 0x15AD JUMP JUMPDEST SWAP2 POP POP SWAP3 SWAP2 POP POP JUMP JUMPDEST PUSH2 0x1980 DUP2 PUSH2 0x1651 JUMP JUMPDEST DUP3 MSTORE POP POP JUMP JUMPDEST PUSH0 PUSH1 0x20 DUP3 ADD SWAP1 POP PUSH2 0x1999 PUSH0 DUP4 ADD DUP5 PUSH2 0x1977 JUMP JUMPDEST SWAP3 SWAP2 POP POP JUMP JUMPDEST PUSH0 PUSH8 0xFFFFFFFFFFFFFFFF DUP3 GT ISZERO PUSH2 0x19B9 JUMPI PUSH2 0x19B8 PUSH2 0x176E JUMP JUMPDEST JUMPDEST PUSH1 0x20 DUP3 MUL SWAP1 POP PUSH1 0x20 DUP2 ADD SWAP1 POP SWAP2 SWAP1 POP JUMP JUMPDEST PUSH0 PUSH0 REVERT JUMPDEST PUSH0 PUSH2 0x19E0 PUSH2 0x19DB DUP5 PUSH2 0x199F JUMP JUMPDEST PUSH2 0x17CC JUMP JUMPDEST SWAP1 POP DUP1 DUP4 DUP3 MSTORE PUSH1 0x20 DUP3 ADD SWAP1 POP PUSH1 0x20 DUP5 MUL DUP4 ADD DUP6 DUP2 GT ISZERO PUSH2 0x1A03 JUMPI PUSH2 0x1A02 PUSH2 0x19CA JUMP JUMPDEST JUMPDEST DUP4 JUMPDEST DUP2 DUP2 LT ISZERO PUSH2 0x1A2C JUMPI DUP1 PUSH2 0x1A18 DUP9 DUP3 PUSH2 0x18A1 JUMP JUMPDEST DUP5 MSTORE PUSH1 0x20 DUP5 ADD SWAP4 POP POP PUSH1 0x20 DUP2 ADD SWAP1 POP PUSH2 0x1A05 JUMP JUMPDEST POP POP POP SWAP4 SWAP3 POP POP POP JUMP JUMPDEST PUSH0 DUP3 PUSH1 0x1F DUP4 ADD SLT PUSH2 0x1A4A JUMPI PUSH2 0x1A49 PUSH2 0x1756 JUMP JUMPDEST JUMPDEST DUP2 CALLDATALOAD PUSH2 0x1A5A DUP5 DUP3 PUSH1 0x20 DUP7 ADD PUSH2 0x19CE JUMP JUMPDEST SWAP2 POP POP SWAP3 SWAP2 POP POP JUMP JUMPDEST PUSH0 PUSH1 0x20 DUP3 DUP5 SUB SLT ISZERO PUSH2 0x1A78 JUMPI PUSH2 0x1A77 PUSH2 0x158F JUMP JUMPDEST JUMPDEST PUSH0 DUP3 ADD CALLDATALOAD PUSH8 0xFFFFFFFFFFFFFFFF DUP2 GT ISZERO PUSH2 0x1A95 JUMPI PUSH2 0x1A94 PUSH2 0x1593 JUMP JUMPDEST JUMPDEST PUSH2 0x1AA1 DUP5 DUP3 DUP6 ADD PUSH2 0x1A36 JUMP JUMPDEST SWAP2 POP POP SWAP3 SWAP2 POP POP JUMP JUMPDEST PUSH32 0x4E487B7100000000000000000000000000000000000000000000000000000000 PUSH0 MSTORE PUSH1 0x32 PUSH1 0x4 MSTORE PUSH1 0x24 PUSH0 REVERT JUMPDEST PUSH32 0x4E487B7100000000000000000000000000000000000000000000000000000000 PUSH0 MSTORE PUSH1 0x11 PUSH1 0x4 MSTORE PUSH1 0x24 PUSH0 REVERT JUMPDEST PUSH0 PUSH2 0x1B0E DUP3 PUSH2 0x1555 JUMP JUMPDEST SWAP2 POP PUSH32 0xFFFFFFFFFFFFFFFFFFFFFFFFFFFFFFFFFFFFFFFFFFFFFFFFFFFFFFFFFFFFFFFF DUP3 SUB PUSH2 0x1B40 JUMPI PUSH2 0x1B3F PUSH2 0x1AD7 JUMP JUMPDEST JUMPDEST PUSH1 0x1 DUP3 ADD SWAP1 POP SWAP2 SWAP1 POP JUMP JUMPDEST PUSH32 0x4E487B7100000000000000000000000000000000000000000000000000000000 PUSH0 MSTORE PUSH1 0x12 PUSH1 0x4 MSTORE PUSH1 0x24 PUSH0 REVERT JUMPDEST PUSH0 PUSH2 0x1B82 DUP3 PUSH2 0x1555 JUMP JUMPDEST SWAP2 POP PUSH2 0x1B8D DUP4 PUSH2 0x1555 JUMP JUMPDEST SWAP3 POP DUP3 PUSH2 0x1B9D JUMPI PUSH2 0x1B9C PUSH2 0x1B4B JUMP JUMPDEST JUMPDEST DUP3 DUP3 DIV SWAP1 POP SWAP3 SWAP2 POP POP JUMP JUMPDEST PUSH0 PUSH2 0x1BB2 DUP3 PUSH2 0x1555 JUMP JUMPDEST SWAP2 POP PUSH2 0x1BBD DUP4 PUSH2 0x1555 JUMP JUMPDEST SWAP3 POP DUP3 DUP3 ADD SWAP1 POP DUP1 DUP3 GT ISZERO PUSH2 0x1BD5 JUMPI PUSH2 0x1BD4 PUSH2 0x1AD7 JUMP JUMPDEST JUMPDEST SWAP3 SWAP2 POP POP JUMP JUMPDEST PUSH0 DUP2 PUSH1 0x1 SHR SWAP1 POP SWAP2 SWAP1 POP JUMP JUMPDEST PUSH0 PUSH0 DUP3 SWAP2 POP DUP4 SWAP1 POP JUMPDEST PUSH1 0x1 DUP6 GT ISZERO PUSH2 0x1C30 JUMPI DUP1 DUP7 DIV DUP2 GT ISZERO PUSH2 0x1C0C JUMPI PUSH2 0x1C0B PUSH2 0x1AD7 JUMP JUMPDEST JUMPDEST PUSH1 0x1 DUP6 AND ISZERO PUSH2 0x1C1B JUMPI DUP1 DUP3 MUL SWAP2 POP JUMPDEST DUP1 DUP2 MUL SWAP1 POP PUSH2 0x1C29 DUP6 PUSH2 0x1BDB JUMP JUMPDEST SWAP5 POP PUSH2 0x1BF0 JUMP JUMPDEST SWAP5 POP SWAP5 SWAP3 POP POP POP JUMP JUMPDEST PUSH0 DUP3 PUSH2 0x1C48 JUMPI PUSH1 0x1 SWAP1 POP PUSH2 0x1D03 JUMP JUMPDEST DUP2 PUSH2 0x1C55 JUMPI PUSH0 SWAP1 POP PUSH2 0x1D03 JUMP JUMPDEST DUP2 PUSH1 0x1 DUP2 EQ PUSH2 0x1C6B JUMPI PUSH1 0x2 DUP2 EQ PUSH2 0x1C75 JUMPI PUSH2 0x1CA4 JUMP JUMPDEST PUSH1 0x1 SWAP2 POP POP PUSH2 0x1D03 JUMP JUMPDEST PUSH1 0xFF DUP5 GT ISZERO PUSH2 0x1C87 JUMPI PUSH2 0x1C86 PUSH2 0x1AD7 JUMP JUMPDEST JUMPDEST DUP4 PUSH1 0x2 EXP SWAP2 POP DUP5 DUP3 GT ISZERO PUSH2 0x1C9E JUMPI PUSH2 0x1C9D PUSH2 0x1AD7 JUMP JUMPDEST JUMPDEST POP PUSH2 0x1D03 JUMP JUMPDEST POP PUSH1 0x20 DUP4 LT PUSH2 0x133 DUP4 LT AND PUSH1 0x4E DUP5 LT PUSH1 0xB DUP5 LT AND OR ISZERO PUSH2 0x1CD9 JUMPI DUP3 DUP3 EXP SWAP1 POP DUP4 DUP2 GT ISZERO PUSH2 0x1CD4 JUMPI PUSH2 0x1CD3 PUSH2 0x1AD7 JUMP JUMPDEST JUMPDEST PUSH2 0x1D03 JUMP JUMPDEST PUSH2 0x1CE6 DUP5 DUP5 DUP5 PUSH1 0x1 PUSH2 0x1BE7 JUMP JUMPDEST SWAP3 POP SWAP1 POP DUP2 DUP5 DIV DUP2 GT ISZERO PUSH2 0x1CFD JUMPI PUSH2 0x1CFC PUSH2 0x1AD7 JUMP JUMPDEST JUMPDEST DUP2 DUP2 MUL SWAP1 POP JUMPDEST SWAP4 SWAP3 POP POP POP JUMP JUMPDEST PUSH0 PUSH1 0xFF DUP3 AND SWAP1 POP SWAP2 SWAP1 POP JUMP JUMPDEST PUSH0 PUSH2 0x1D20 DUP3 PUSH2 0x1555 JUMP JUMPDEST SWAP2 POP PUSH2 0x1D2B DUP4 PUSH2 0x1D0A JUMP JUMPDEST SWAP3 POP PUSH2 0x1D58 PUSH32 0xFFFFFFFFFFFFFFFFFFFFFFFFFFFFFFFFFFFFFFFFFFFFFFFFFFFFFFFFFFFFFFFF DUP5 DUP5 PUSH2 0x1C39 JUMP JUMPDEST SWAP1 POP SWAP3 SWAP2 POP POP JUMP JUMPDEST PUSH0 PUSH2 0x1D6A DUP3 PUSH2 0x1555 JUMP JUMPDEST SWAP2 POP PUSH2 0x1D75 DUP4 PUSH2 0x1555 JUMP JUMPDEST SWAP3 POP DUP3 DUP3 MUL PUSH2 0x1D83 DUP2 PUSH2 0x1555 JUMP JUMPDEST SWAP2 POP DUP3 DUP3 DIV DUP5 EQ DUP4 ISZERO OR PUSH2 0x1D9A JUMPI PUSH2 0x1D99 PUSH2 0x1AD7 JUMP JUMPDEST JUMPDEST POP SWAP3 SWAP2 POP POP JUMP JUMPDEST PUSH0 PUSH2 0x1DAB DUP3 PUSH2 0x1555 JUMP JUMPDEST SWAP2 POP PUSH2 0x1DB6 DUP4 PUSH2 0x1555 JUMP JUMPDEST SWAP3 POP DUP3 DUP3 SUB SWAP1 POP DUP2 DUP2 GT ISZERO PUSH2 0x1DCE JUMPI PUSH2 0x1DCD PUSH2 0x1AD7 JUMP JUMPDEST JUMPDEST SWAP3 SWAP2 POP POP JUMP JUMPDEST PUSH2 0x1DDD DUP2 PUSH2 0x15FF JUMP JUMPDEST DUP2 EQ PUSH2 0x1DE7 JUMPI PUSH0 PUSH0 REVERT JUMPDEST POP JUMP JUMPDEST PUSH0 DUP2 MLOAD SWAP1 POP PUSH2 0x1DF8 DUP2 PUSH2 0x1DD4 JUMP JUMPDEST SWAP3 SWAP2 POP POP JUMP JUMPDEST PUSH0 PUSH1 0x20 DUP3 DUP5 SUB SLT ISZERO PUSH2 0x1E13 JUMPI PUSH2 0x1E12 PUSH2 0x158F JUMP JUMPDEST JUMPDEST PUSH0 PUSH2 0x1E20 DUP5 DUP3 DUP6 ADD PUSH2 0x1DEA JUMP JUMPDEST SWAP2 POP POP SWAP3 SWAP2 POP POP JUMP JUMPDEST PUSH0 PUSH2 0x1E33 DUP3 PUSH2 0x1555 JUMP JUMPDEST SWAP2 POP PUSH2 0x1E3E DUP4 PUSH2 0x1555 JUMP JUMPDEST SWAP3 POP DUP3 PUSH2 0x1E4E JUMPI PUSH2 0x1E4D PUSH2 0x1B4B JUMP JUMPDEST JUMPDEST DUP3 DUP3 MOD SWAP1 POP SWAP3 SWAP2 POP POP JUMP JUMPDEST PUSH0 DUP3 DUP3 MSTORE PUSH1 0x20 DUP3 ADD SWAP1 POP SWAP3 SWAP2 POP POP JUMP JUMPDEST PUSH32 0x746F6F206C657373206665650000000000000000000000000000000000000000 PUSH0 DUP3 ADD MSTORE POP JUMP JUMPDEST PUSH0 PUSH2 0x1E9D PUSH1 0xC DUP4 PUSH2 0x1E59 JUMP JUMPDEST SWAP2 POP PUSH2 0x1EA8 DUP3 PUSH2 0x1E69 JUMP JUMPDEST PUSH1 0x20 DUP3 ADD SWAP1 POP SWAP2 SWAP1 POP JUMP JUMPDEST PUSH0 PUSH1 0x20 DUP3 ADD SWAP1 POP DUP2 DUP2 SUB PUSH0 DUP4 ADD MSTORE PUSH2 0x1ECA DUP2 PUSH2 0x1E91 JUMP JUMPDEST SWAP1 POP SWAP2 SWAP1 POP JUMP JUMPDEST PUSH32 0x6E6F7420656E6F756768206D6F6E657900000000000000000000000000000000 PUSH0 DUP3 ADD MSTORE POP JUMP JUMPDEST PUSH0 PUSH2 0x1F05 PUSH1 0x10 DUP4 PUSH2 0x1E59 JUMP JUMPDEST SWAP2 POP PUSH2 0x1F10 DUP3 PUSH2 0x1ED1 JUMP JUMPDEST PUSH1 0x20 DUP3 ADD SWAP1 POP SWAP2 SWAP1 POP JUMP JUMPDEST PUSH0 PUSH1 0x20 DUP3 ADD SWAP1 POP DUP2 DUP2 SUB PUSH0 DUP4 ADD MSTORE PUSH2 0x1F32 DUP2 PUSH2 0x1EF9 JUMP JUMPDEST SWAP1 POP SWAP2 SWAP1 POP JUMP JUMPDEST PUSH0 DUP2 MLOAD SWAP1 POP SWAP2 SWAP1 POP JUMP JUMPDEST PUSH32 0x4E487B7100000000000000000000000000000000000000000000000000000000 PUSH0 MSTORE PUSH1 0x22 PUSH1 0x4 MSTORE PUSH1 0x24 PUSH0 REVERT JUMPDEST PUSH0 PUSH1 0x2 DUP3 DIV SWAP1 POP PUSH1 0x1 DUP3 AND DUP1 PUSH2 0x1F87 JUMPI PUSH1 0x7F DUP3 AND SWAP2 POP JUMPDEST PUSH1 0x20 DUP3 LT DUP2 SUB PUSH2 0x1F9A JUMPI PUSH2 0x1F99 PUSH2 0x1F43 JUMP JUMPDEST JUMPDEST POP SWAP2 SWAP1 POP JUMP JUMPDEST PUSH0 DUP2 SWAP1 POP DUP2 PUSH0 MSTORE PUSH1 0x20 PUSH0 KECCAK256 SWAP1 POP SWAP2 SWAP1 POP JUMP JUMPDEST PUSH0 PUSH1 0x20 PUSH1 0x1F DUP4 ADD DIV SWAP1 POP SWAP2 SWAP1 POP JUMP JUMPDEST PUSH0 DUP3 DUP3 SHL SWAP1 POP SWAP3 SWAP2 POP POP JUMP JUMPDEST PUSH0 PUSH1 0x8 DUP4 MUL PUSH2 0x1FFC PUSH32 0xFFFFFFFFFFFFFFFFFFFFFFFFFFFFFFFFFFFFFFFFFFFFFFFFFFFFFFFFFFFFFFFF DUP3 PUSH2 0x1FC1 JUMP JUMPDEST PUSH2 0x2006 DUP7 DUP4 PUSH2 0x1FC1 JUMP JUMPDEST SWAP6 POP DUP1 NOT DUP5 AND SWAP4 POP DUP1 DUP7 AND DUP5 OR SWAP3 POP POP POP SWAP4 SWAP3 POP POP POP JUMP JUMPDEST PUSH0 DUP2 SWAP1 POP SWAP2 SWAP1 POP JUMP JUMPDEST PUSH0 PUSH2 0x2041 PUSH2 0x203C PUSH2 0x2037 DUP5 PUSH2 0x1555 JUMP JUMPDEST PUSH2 0x201E JUMP JUMPDEST PUSH2 0x1555 JUMP JUMPDEST SWAP1 POP SWAP2 SWAP1 POP JUMP JUMPDEST PUSH0 DUP2 SWAP1 POP SWAP2 SWAP1 POP JUMP JUMPDEST PUSH2 0x205A DUP4 PUSH2 0x2027 JUMP JUMPDEST PUSH2 0x206E PUSH2 0x2066 DUP3 PUSH2 0x2048 JUMP JUMPDEST DUP5 DUP5 SLOAD PUSH2 0x1FCD JUMP JUMPDEST DUP3 SSTORE POP POP POP POP JUMP JUMPDEST PUSH0 PUSH0 SWAP1 POP SWAP1 JUMP JUMPDEST PUSH2 0x2085 PUSH2 0x2076 JUMP JUMPDEST PUSH2 0x2090 DUP2 DUP5 DUP5 PUSH2 0x2051 JUMP JUMPDEST POP POP POP JUMP JUMPDEST JUMPDEST DUP2 DUP2 LT ISZERO PUSH2 0x20B3 JUMPI PUSH2 0x20A8 PUSH0 DUP3 PUSH2 0x207D JUMP JUMPDEST PUSH1 0x1 DUP2 ADD SWAP1 POP PUSH2 0x2096 JUMP JUMPDEST POP POP JUMP JUMPDEST PUSH1 0x1F DUP3 GT ISZERO PUSH2 0x20F8 JUMPI PUSH2 0x20C9 DUP2 PUSH2 0x1FA0 JUMP JUMPDEST PUSH2 0x20D2 DUP5 PUSH2 0x1FB2 JUMP JUMPDEST DUP2 ADD PUSH1 0x20 DUP6 LT ISZERO PUSH2 0x20E1 JUMPI DUP2 SWAP1 POP JUMPDEST PUSH2 0x20F5 PUSH2 0x20ED DUP6 PUSH2 0x1FB2 JUMP JUMPDEST DUP4 ADD DUP3 PUSH2 0x2095 JUMP JUMPDEST POP POP JUMPDEST POP POP POP JUMP JUMPDEST PUSH0 DUP3 DUP3 SHR SWAP1 POP SWAP3 SWAP2 POP POP JUMP JUMPDEST PUSH0 PUSH2 0x2118 PUSH0 NOT DUP5 PUSH1 0x8 MUL PUSH2 0x20FD JUMP JUMPDEST NOT DUP1 DUP4 AND SWAP2 POP POP SWAP3 SWAP2 POP POP JUMP JUMPDEST PUSH0 PUSH2 0x2130 DUP4 DUP4 PUSH2 0x2109 JUMP JUMPDEST SWAP2 POP DUP3 PUSH1 0x2 MUL DUP3 OR SWAP1 POP SWAP3 SWAP2 POP POP JUMP JUMPDEST PUSH2 0x2149 DUP3 PUSH2 0x1F39 JUMP JUMPDEST PUSH8 0xFFFFFFFFFFFFFFFF DUP2 GT ISZERO PUSH2 0x2162 JUMPI PUSH2 0x2161 PUSH2 0x176E JUMP JUMPDEST JUMPDEST PUSH2 0x216C DUP3 SLOAD PUSH2 0x1F70 JUMP JUMPDEST PUSH2 0x2177 DUP3 DUP3 DUP6 PUSH2 0x20B7 JUMP JUMPDEST PUSH0 PUSH1 0x20 SWAP1 POP PUSH1 0x1F DUP4 GT PUSH1 0x1 DUP2 EQ PUSH2 0x21A8 JUMPI PUSH0 DUP5 ISZERO PUSH2 0x2196 JUMPI DUP3 DUP8 ADD MLOAD SWAP1 POP JUMPDEST PUSH2 0x21A0 DUP6 DUP3 PUSH2 0x2125 JUMP JUMPDEST DUP7 SSTORE POP PUSH2 0x2207 JUMP JUMPDEST PUSH1 0x1F NOT DUP5 AND PUSH2 0x21B6 DUP7 PUSH2 0x1FA0 JUMP JUMPDEST PUSH0 JUMPDEST DUP3 DUP2 LT ISZERO PUSH2 0x21DD JUMPI DUP5 DUP10 ADD MLOAD DUP3 SSTORE PUSH1 0x1 DUP3 ADD SWAP2 POP PUSH1 0x20 DUP6 ADD SWAP5 POP PUSH1 0x20 DUP2 ADD SWAP1 POP PUSH2 0x21B8 JUMP JUMPDEST DUP7 DUP4 LT ISZERO PUSH2 0x21FA JUMPI DUP5 DUP10 ADD MLOAD PUSH2 0x21F6 PUSH1 0x1F DUP10 AND DUP3 PUSH2 0x2109 JUMP JUMPDEST DUP4 SSTORE POP JUMPDEST PUSH1 0x1 PUSH1 0x2 DUP9 MUL ADD DUP9 SSTORE POP POP POP JUMPDEST POP POP POP POP POP POP JUMP JUMPDEST PUSH0 DUP2 MLOAD SWAP1 POP SWAP2 SWAP1 POP JUMP JUMPDEST PUSH0 DUP3 DUP3 MSTORE PUSH1 0x20 DUP3 ADD SWAP1 POP SWAP3 SWAP2 POP POP JUMP JUMPDEST PUSH0 DUP2 SWAP1 POP PUSH1 0x20 DUP3 ADD SWAP1 POP SWAP2 SWAP1 POP JUMP JUMPDEST PUSH2 0x2241 DUP2 PUSH2 0x1651 JUMP JUMPDEST DUP3 MSTORE POP POP JUMP JUMPDEST PUSH0 PUSH2 0x2252 DUP4 DUP4 PUSH2 0x2238 JUMP JUMPDEST PUSH1 0x20 DUP4 ADD SWAP1 POP SWAP3 SWAP2 POP POP JUMP JUMPDEST PUSH0 PUSH1 0x20 DUP3 ADD SWAP1 POP SWAP2 SWAP1 POP JUMP JUMPDEST PUSH0 PUSH2 0x2274 DUP3 PUSH2 0x220F JUMP JUMPDEST PUSH2 0x227E DUP2 DUP6 PUSH2 0x2219 JUMP JUMPDEST SWAP4 POP PUSH2 0x2289 DUP4 PUSH2 0x2229 JUMP JUMPDEST DUP1 PUSH0 JUMPDEST DUP4 DUP2 LT ISZERO PUSH2 0x22B9 JUMPI DUP2 MLOAD PUSH2 0x22A0 DUP9 DUP3 PUSH2 0x2247 JUMP JUMPDEST SWAP8 POP PUSH2 0x22AB DUP4 PUSH2 0x225E JUMP JUMPDEST SWAP3 POP POP PUSH1 0x1 DUP2 ADD SWAP1 POP PUSH2 0x228C JUMP JUMPDEST POP DUP6 SWAP4 POP POP POP POP SWAP3 SWAP2 POP POP JUMP JUMPDEST DUP3 DUP2 DUP4 MCOPY PUSH0 DUP4 DUP4 ADD MSTORE POP POP POP JUMP JUMPDEST PUSH0 PUSH2 0x22DE DUP3 PUSH2 0x1F39 JUMP JUMPDEST PUSH2 0x22E8 DUP2 DUP6 PUSH2 0x1E59 JUMP JUMPDEST SWAP4 POP PUSH2 0x22F8 DUP2 DUP6 PUSH1 0x20 DUP7 ADD PUSH2 0x22C6 JUMP JUMPDEST PUSH2 0x2301 DUP2 PUSH2 0x175E JUMP JUMPDEST DUP5 ADD SWAP2 POP POP SWAP3 SWAP2 POP POP JUMP JUMPDEST PUSH0 PUSH1 0x80 DUP3 ADD SWAP1 POP DUP2 DUP2 SUB PUSH0 DUP4 ADD MSTORE PUSH2 0x2324 DUP2 DUP8 PUSH2 0x226A JUMP JUMPDEST SWAP1 POP PUSH2 0x2333 PUSH1 0x20 DUP4 ADD DUP7 PUSH2 0x172E JUMP JUMPDEST DUP2 DUP2 SUB PUSH1 0x40 DUP4 ADD MSTORE PUSH2 0x2345 DUP2 DUP6 PUSH2 0x22D4 JUMP JUMPDEST SWAP1 POP PUSH2 0x2354 PUSH1 0x60 DUP4 ADD DUP5 PUSH2 0x155E JUMP JUMPDEST SWAP6 SWAP5 POP POP POP POP POP JUMP JUMPDEST PUSH32 0x696E646578206F7574206F6620626F756E647300000000000000000000000000 PUSH0 DUP3 ADD MSTORE POP JUMP JUMPDEST PUSH0 PUSH2 0x2391 PUSH1 0x13 DUP4 PUSH2 0x1E59 JUMP JUMPDEST SWAP2 POP PUSH2 0x239C DUP3 PUSH2 0x235D JUMP JUMPDEST PUSH1 0x20 DUP3 ADD SWAP1 POP SWAP2 SWAP1 POP JUMP JUMPDEST PUSH0 PUSH1 0x20 DUP3 ADD SWAP1 POP DUP2 DUP2 SUB PUSH0 DUP4 ADD MSTORE PUSH2 0x23BE DUP2 PUSH2 0x2385 JUMP JUMPDEST SWAP1 POP SWAP2 SWAP1 POP JUMP JUMPDEST PUSH32 0x4E487B7100000000000000000000000000000000000000000000000000000000 PUSH0 MSTORE PUSH1 0x31 PUSH1 0x4 MSTORE PUSH1 0x24 PUSH0 REVERT INVALID LOG2 PUSH5 0x6970667358 0x22 SLT KECCAK256 DUP13 BLOCKHASH CODESIZE MLOAD SSTORE DUP6 0xE DUP3 LOG0 PUSH27 0xA1BC2927082B3E432EB4FD8B64FB47A0B2D47C40E84064736F6C63 NUMBER STOP ADDMOD 0x1E STOP CALLER "
				},
				"gasEstimates": {
					"creation": {
						"codeDepositCost": "1851200",
						"executionCost": "infinite",
						"totalCost": "infinite"
					},
					"external": {
						"DEDUCE_PRICE()": "326",
						"LIMIT_FEE_PRICE()": "435",
						"LIMIT_STAKE_NUM()": "414",
						"MAX_SEARCH_NUM()": "391",
						"fufillReqEvent(uint256,uint256)": "infinite",
						"nodeStackBalance(address)": "2802",
						"oracleAddressList(uint256)": "4988",
						"oracleNodeJobType(address,uint256)": "6948",
						"registerOracleNode(uint8[])": "infinite",
						"requestForMsg(string,uint8,uint256)": "infinite",
						"totalRequestNum()": "2447"
					},
					"internal": {
						"calculateReqNode(enum CHAINLINK.jobType)": "infinite",
						"evaluateNodePerf(uint256,uint256,uint256)": "infinite",
						"isInReqList(uint256,address)": "infinite",
						"removeItem(uint256)": "infinite"
					}
				},
				"methodIdentifiers": {
					"DEDUCE_PRICE()": "22a51c29",
					"LIMIT_FEE_PRICE()": "e92626ae",
					"LIMIT_STAKE_NUM()": "3210243e",
					"MAX_SEARCH_NUM()": "d3155d16",
					"fufillReqEvent(uint256,uint256)": "22d616d2",
					"nodeStackBalance(address)": "49d26921",
					"oracleAddressList(uint256)": "8457a66a",
					"oracleNodeJobType(address,uint256)": "2690eac4",
					"registerOracleNode(uint8[])": "d9514950",
					"requestForMsg(string,uint8,uint256)": "3063c634",
					"totalRequestNum()": "803863fb"
				}
			},
			"storageLayout": {
				"storage": [
					{
						"astId": 64,
						"contract": "main.sol:CHAINLINK",
						"label": "oracleNodeJobType",
						"offset": 0,
						"slot": "0",
						"type": "t_mapping(t_address,t_array(t_enum(jobType)13)dyn_storage)"
					},
					{
						"astId": 67,
						"contract": "main.sol:CHAINLINK",
						"label": "oracleAddressList",
						"offset": 0,
						"slot": "1",
						"type": "t_array(t_address)dyn_storage"
					},
					{
						"astId": 69,
						"contract": "main.sol:CHAINLINK",
						"label": "totalRequestNum",
						"offset": 0,
						"slot": "2",
						"type": "t_uint256"
					},
					{
						"astId": 73,
						"contract": "main.sol:CHAINLINK",
						"label": "nodeStackBalance",
						"offset": 0,
						"slot": "3",
						"type": "t_mapping(t_address,t_uint256)"
					},
					{
						"astId": 78,
						"contract": "main.sol:CHAINLINK",
						"label": "requestList",
						"offset": 0,
						"slot": "4",
						"type": "t_mapping(t_uint256,t_struct(RequestBody)36_storage)"
					}
				],
				"types": {
					"t_address": {
						"encoding": "inplace",
						"label": "address",
						"numberOfBytes": "20"
					},
					"t_array(t_address)dyn_storage": {
						"base": "t_address",
						"encoding": "dynamic_array",
						"label": "address[]",
						"numberOfBytes": "32"
					},
					"t_array(t_enum(jobType)13)dyn_storage": {
						"base": "t_enum(jobType)13",
						"encoding": "dynamic_array",
						"label": "enum CHAINLINK.jobType[]",
						"numberOfBytes": "32"
					},
					"t_array(t_uint256)dyn_storage": {
						"base": "t_uint256",
						"encoding": "dynamic_array",
						"label": "uint256[]",
						"numberOfBytes": "32"
					},
					"t_enum(jobType)13": {
						"encoding": "inplace",
						"label": "enum CHAINLINK.jobType",
						"numberOfBytes": "1"
					},
					"t_mapping(t_address,t_array(t_enum(jobType)13)dyn_storage)": {
						"encoding": "mapping",
						"key": "t_address",
						"label": "mapping(address => enum CHAINLINK.jobType[])",
						"numberOfBytes": "32",
						"value": "t_array(t_enum(jobType)13)dyn_storage"
					},
					"t_mapping(t_address,t_uint256)": {
						"encoding": "mapping",
						"key": "t_address",
						"label": "mapping(address => uint256)",
						"numberOfBytes": "32",
						"value": "t_uint256"
					},
					"t_mapping(t_uint256,t_struct(RequestBody)36_storage)": {
						"encoding": "mapping",
						"key": "t_uint256",
						"label": "mapping(uint256 => struct CHAINLINK.RequestBody)",
						"numberOfBytes": "32",
						"value": "t_struct(RequestBody)36_storage"
					},
					"t_string_storage": {
						"encoding": "bytes",
						"label": "string",
						"numberOfBytes": "32"
					},
					"t_struct(RequestBody)36_storage": {
						"encoding": "inplace",
						"label": "struct CHAINLINK.RequestBody",
						"members": [
							{
								"astId": 15,
								"contract": "main.sol:CHAINLINK",
								"label": "id",
								"offset": 0,
								"slot": "0",
								"type": "t_uint256"
							},
							{
								"astId": 17,
								"contract": "main.sol:CHAINLINK",
								"label": "requester",
								"offset": 0,
								"slot": "1",
								"type": "t_address"
							},
							{
								"astId": 20,
								"contract": "main.sol:CHAINLINK",
								"label": "job_type",
								"offset": 20,
								"slot": "1",
								"type": "t_enum(jobType)13"
							},
							{
								"astId": 22,
								"contract": "main.sol:CHAINLINK",
								"label": "url",
								"offset": 0,
								"slot": "2",
								"type": "t_string_storage"
							},
							{
								"astId": 25,
								"contract": "main.sol:CHAINLINK",
								"label": "oracles_list",
								"offset": 0,
								"slot": "3",
								"type": "t_array(t_address)dyn_storage"
							},
							{
								"astId": 27,
								"contract": "main.sol:CHAINLINK",
								"label": "Fee",
								"offset": 0,
								"slot": "4",
								"type": "t_uint256"
							},
							{
								"astId": 30,
								"contract": "main.sol:CHAINLINK",
								"label": "searchRes",
								"offset": 0,
								"slot": "5",
								"type": "t_array(t_uint256)dyn_storage"
							},
							{
								"astId": 33,
								"contract": "main.sol:CHAINLINK",
								"label": "oracleNodes",
								"offset": 0,
								"slot": "6",
								"type": "t_array(t_address)dyn_storage"
							},
							{
								"astId": 35,
								"contract": "main.sol:CHAINLINK",
								"label": "givenNum",
								"offset": 0,
								"slot": "7",
								"type": "t_uint256"
							}
						],
						"numberOfBytes": "256"
					},
					"t_uint256": {
						"encoding": "inplace",
						"label": "uint256",
						"numberOfBytes": "32"
					}
				}
			},
			"userdoc": {
				"kind": "user",
				"methods": {},
				"version": 1
			}
		}
	}
}