{
	"main_with_job.sol": {
		"CHAINLINK": {
			"abi": [
				{
					"inputs": [],
					"stateMutability": "nonpayable",
					"type": "constructor"
				},
				{
					"anonymous": false,
					"inputs": [
						{
							"indexed": true,
							"internalType": "uint256",
							"name": "requestID",
							"type": "uint256"
						},
						{
							"indexed": false,
							"internalType": "address[]",
							"name": "node_list",
							"type": "address[]"
						},
						{
							"indexed": false,
							"internalType": "enum CHAINLINK.jobType",
							"name": "job_type",
							"type": "uint8"
						},
						{
							"indexed": false,
							"internalType": "string",
							"name": "url",
							"type": "string"
						},
						{
							"indexed": false,
							"internalType": "uint256",
							"name": "fee",
							"type": "uint256"
						}
					],
					"name": "oracleRequestEvent",
					"type": "event"
				},
				{
					"anonymous": false,
					"inputs": [
						{
							"indexed": true,
							"internalType": "uint256",
							"name": "requestID",
							"type": "uint256"
						},
						{
							"indexed": false,
							"internalType": "string",
							"name": "result",
							"type": "string"
						},
						{
							"indexed": false,
							"internalType": "uint256",
							"name": "nodeID",
							"type": "uint256"
						}
					],
					"name": "requestFulfulledEvent",
					"type": "event"
				},
				{
					"inputs": [],
					"name": "DEDUCE_PRICE",
					"outputs": [
						{
							"internalType": "uint256",
							"name": "",
							"type": "uint256"
						}
					],
					"stateMutability": "view",
					"type": "function"
				},
				{
					"inputs": [],
					"name": "LIMIT_FEE_PRICE",
					"outputs": [
						{
							"internalType": "uint256",
							"name": "",
							"type": "uint256"
						}
					],
					"stateMutability": "view",
					"type": "function"
				},
				{
					"inputs": [],
					"name": "LIMIT_STAKE_NUM",
					"outputs": [
						{
							"internalType": "uint256",
							"name": "",
							"type": "uint256"
						}
					],
					"stateMutability": "view",
					"type": "function"
				},
				{
					"inputs": [
						{
							"internalType": "uint256",
							"name": "id",
							"type": "uint256"
						},
						{
							"internalType": "uint256",
							"name": "result",
							"type": "uint256"
						}
					],
					"name": "fufillReqEvent",
					"outputs": [
						{
							"internalType": "uint256",
							"name": "",
							"type": "uint256"
						},
						{
							"internalType": "bool",
							"name": "",
							"type": "bool"
						}
					],
					"stateMutability": "nonpayable",
					"type": "function"
				},
				{
					"inputs": [
						{
							"internalType": "address",
							"name": "",
							"type": "address"
						}
					],
					"name": "nodeStackBalance",
					"outputs": [
						{
							"internalType": "uint256",
							"name": "",
							"type": "uint256"
						}
					],
					"stateMutability": "view",
					"type": "function"
				},
				{
					"inputs": [
						{
							"internalType": "uint256",
							"name": "",
							"type": "uint256"
						}
					],
					"name": "oracleAddressList",
					"outputs": [
						{
							"internalType": "address",
							"name": "",
							"type": "address"
						}
					],
					"stateMutability": "view",
					"type": "function"
				},
				{
					"inputs": [
						{
							"internalType": "address",
							"name": "",
							"type": "address"
						},
						{
							"internalType": "uint256",
							"name": "",
							"type": "uint256"
						}
					],
					"name": "oracleNodeJobType",
					"outputs": [
						{
							"internalType": "enum CHAINLINK.jobType",
							"name": "",
							"type": "uint8"
						}
					],
					"stateMutability": "view",
					"type": "function"
				},
				{
					"inputs": [
						{
							"internalType": "enum CHAINLINK.jobType[]",
							"name": "job_type_list",
							"type": "uint8[]"
						}
					],
					"name": "registerOracleNode",
					"outputs": [
						{
							"internalType": "bool",
							"name": "",
							"type": "bool"
						}
					],
					"stateMutability": "nonpayable",
					"type": "function"
				},
				{
					"inputs": [
						{
							"internalType": "string",
							"name": "url",
							"type": "string"
						},
						{
							"internalType": "enum CHAINLINK.jobType",
							"name": "jobtype",
							"type": "uint8"
						},
						{
							"internalType": "uint256",
							"name": "fee",
							"type": "uint256"
						}
					],
					"name": "requestForMsg",
					"outputs": [
						{
							"internalType": "bool",
							"name": "",
							"type": "bool"
						}
					],
					"stateMutability": "nonpayable",
					"type": "function"
				},
				{
					"inputs": [],
					"name": "totalRequestNum",
					"outputs": [
						{
							"internalType": "uint256",
							"name": "",
							"type": "uint256"
						}
					],
					"stateMutability": "view",
					"type": "function"
				}
			],
			"devdoc": {
				"kind": "dev",
				"methods": {},
				"version": 1
			},
			"evm": {
				"assembly": "    /* \"main_with_job.sol\":152:7223  contract CHAINLINK {... */\n  mstore(0x40, 0x80)\n    /* \"main_with_job.sol\":1126:1222  constructor() {... */\n  callvalue\n  dup1\n  iszero\n  tag_1\n  jumpi\n  revert(0x00, 0x00)\ntag_1:\n  pop\n    /* \"main_with_job.sol\":1168:1169  0 */\n  0x00\n    /* \"main_with_job.sol\":1150:1165  totalRequestNum */\n  0x02\n    /* \"main_with_job.sol\":1150:1169  totalRequestNum = 0 */\n  dup2\n  swap1\n  sstore\n  pop\n    /* \"main_with_job.sol\":1213:1214  0 */\n  0x00\n    /* \"main_with_job.sol\":1199:1215  new address[](0) */\n  0xffffffffffffffff\n  dup2\n  gt\n  iszero\n  tag_4\n  jumpi\n  tag_5\n  tag_6\n  jump\t// in\ntag_5:\ntag_4:\n  mload(0x40)\n  swap1\n  dup1\n  dup3\n  mstore\n  dup1\n  0x20\n  mul\n  0x20\n  add\n  dup3\n  add\n  0x40\n  mstore\n  dup1\n  iszero\n  tag_7\n  jumpi\n  dup2\n  0x20\n  add\n  0x20\n  dup3\n  mul\n  dup1\n  calldatasize\n  dup4\n  calldatacopy\n  dup1\n  dup3\n  add\n  swap2\n  pop\n  pop\n  swap1\n  pop\ntag_7:\n  pop\n    /* \"main_with_job.sol\":1179:1196  oracleAddressList */\n  0x01\n    /* \"main_with_job.sol\":1179:1215  oracleAddressList = new address[](0) */\n  swap1\n  dup1\n  mload\n  swap1\n  0x20\n  add\n  swap1\n  tag_8\n  swap3\n  swap2\n  swap1\n  tag_9\n  jump\t// in\ntag_8:\n  pop\n    /* \"main_with_job.sol\":152:7223  contract CHAINLINK {... */\n  jump(tag_10)\ntag_9:\n  dup3\n  dup1\n  sload\n  dup3\n  dup3\n  sstore\n  swap1\n  0x00\n  mstore\n  keccak256(0x00, 0x20)\n  swap1\n  dup2\n  add\n  swap3\n  dup3\n  iszero\n  tag_11\n  jumpi\n  swap2\n  0x20\n  mul\n  dup3\n  add\ntag_12:\n  dup3\n  dup2\n  gt\n  iszero\n  tag_13\n  jumpi\n  dup3\n  mload\n  dup3\n  exp(0x0100, 0x00)\n  dup2\n  sload\n  dup2\n  0xffffffffffffffffffffffffffffffffffffffff\n  mul\n  not\n  and\n  swap1\n  dup4\n  0xffffffffffffffffffffffffffffffffffffffff\n  and\n  mul\n  or\n  swap1\n  sstore\n  pop\n  swap2\n  0x20\n  add\n  swap2\n  swap1\n  0x01\n  add\n  swap1\n  jump(tag_12)\ntag_13:\ntag_11:\n  pop\n  swap1\n  pop\n  tag_14\n  swap2\n  swap1\n  tag_15\n  jump\t// in\ntag_14:\n  pop\n  swap1\n  jump\t// out\ntag_15:\ntag_16:\n  dup1\n  dup3\n  gt\n  iszero\n  tag_17\n  jumpi\n  0x00\n  dup2\n  0x00\n  swap1\n  sstore\n  pop\n  0x01\n  add\n  jump(tag_16)\ntag_17:\n  pop\n  swap1\n  jump\t// out\n    /* \"#utility.yul\":7:187   */\ntag_6:\n    /* \"#utility.yul\":55:132   */\n  0x4e487b7100000000000000000000000000000000000000000000000000000000\n    /* \"#utility.yul\":52:53   */\n  0x00\n    /* \"#utility.yul\":45:133   */\n  mstore\n    /* \"#utility.yul\":152:156   */\n  0x41\n    /* \"#utility.yul\":149:150   */\n  0x04\n    /* \"#utility.yul\":142:157   */\n  mstore\n    /* \"#utility.yul\":176:180   */\n  0x24\n    /* \"#utility.yul\":173:174   */\n  0x00\n    /* \"#utility.yul\":166:181   */\n  revert\n    /* \"main_with_job.sol\":152:7223  contract CHAINLINK {... */\ntag_10:\n  dataSize(sub_0)\n  dup1\n  dataOffset(sub_0)\n  0x00\n  codecopy\n  0x00\n  return\nstop\n\nsub_0: assembly {\n        /* \"main_with_job.sol\":152:7223  contract CHAINLINK {... */\n      mstore(0x40, 0x80)\n      callvalue\n      dup1\n      iszero\n      tag_1\n      jumpi\n      revert(0x00, 0x00)\n    tag_1:\n      pop\n      jumpi(tag_2, lt(calldatasize, 0x04))\n      shr(0xe0, calldataload(0x00))\n      dup1\n      0x49d26921\n      gt\n      tag_13\n      jumpi\n      dup1\n      0x49d26921\n      eq\n      tag_8\n      jumpi\n      dup1\n      0x803863fb\n      eq\n      tag_9\n      jumpi\n      dup1\n      0x8457a66a\n      eq\n      tag_10\n      jumpi\n      dup1\n      0xd9514950\n      eq\n      tag_11\n      jumpi\n      dup1\n      0xe92626ae\n      eq\n      tag_12\n      jumpi\n      jump(tag_2)\n    tag_13:\n      dup1\n      0x22a51c29\n      eq\n      tag_3\n      jumpi\n      dup1\n      0x22d616d2\n      eq\n      tag_4\n      jumpi\n      dup1\n      0x2690eac4\n      eq\n      tag_5\n      jumpi\n      dup1\n      0x3063c634\n      eq\n      tag_6\n      jumpi\n      dup1\n      0x3210243e\n      eq\n      tag_7\n      jumpi\n    tag_2:\n      revert(0x00, 0x00)\n        /* \"main_with_job.sol\":1078:1119  uint256 public constant DEDUCE_PRICE = 40 */\n    tag_3:\n      tag_14\n      tag_15\n      jump\t// in\n    tag_14:\n      mload(0x40)\n      tag_16\n      swap2\n      swap1\n      tag_17\n      jump\t// in\n    tag_16:\n      mload(0x40)\n      dup1\n      swap2\n      sub\n      swap1\n      return\n        /* \"main_with_job.sol\":5750:7221  function fufillReqEvent(uint256 id, uint256 result) public returns (uint256 ,bool) {... */\n    tag_4:\n      tag_18\n      0x04\n      dup1\n      calldatasize\n      sub\n      dup2\n      add\n      swap1\n      tag_19\n      swap2\n      swap1\n      tag_20\n      jump\t// in\n    tag_19:\n      tag_21\n      jump\t// in\n    tag_18:\n      mload(0x40)\n      tag_22\n      swap3\n      swap2\n      swap1\n      tag_23\n      jump\t// in\n    tag_22:\n      mload(0x40)\n      dup1\n      swap2\n      sub\n      swap1\n      return\n        /* \"main_with_job.sol\":733:787  mapping(address => jobType[]) public oracleNodeJobType */\n    tag_5:\n      tag_24\n      0x04\n      dup1\n      calldatasize\n      sub\n      dup2\n      add\n      swap1\n      tag_25\n      swap2\n      swap1\n      tag_26\n      jump\t// in\n    tag_25:\n      tag_27\n      jump\t// in\n    tag_24:\n      mload(0x40)\n      tag_28\n      swap2\n      swap1\n      tag_29\n      jump\t// in\n    tag_28:\n      mload(0x40)\n      dup1\n      swap2\n      sub\n      swap1\n      return\n        /* \"main_with_job.sol\":2964:3808  function requestForMsg(... */\n    tag_6:\n      tag_30\n      0x04\n      dup1\n      calldatasize\n      sub\n      dup2\n      add\n      swap1\n      tag_31\n      swap2\n      swap1\n      tag_32\n      jump\t// in\n    tag_31:\n      tag_33\n      jump\t// in\n    tag_30:\n      mload(0x40)\n      tag_34\n      swap2\n      swap1\n      tag_35\n      jump\t// in\n    tag_34:\n      mload(0x40)\n      dup1\n      swap2\n      sub\n      swap1\n      return\n        /* \"main_with_job.sol\":978:1022  uint256 public constant LIMIT_STAKE_NUM = 80 */\n    tag_7:\n      tag_36\n      tag_37\n      jump\t// in\n    tag_36:\n      mload(0x40)\n      tag_38\n      swap2\n      swap1\n      tag_17\n      jump\t// in\n    tag_38:\n      mload(0x40)\n      dup1\n      swap2\n      sub\n      swap1\n      return\n        /* \"main_with_job.sol\":871:922  mapping(address => uint256) public nodeStackBalance */\n    tag_8:\n      tag_39\n      0x04\n      dup1\n      calldatasize\n      sub\n      dup2\n      add\n      swap1\n      tag_40\n      swap2\n      swap1\n      tag_41\n      jump\t// in\n    tag_40:\n      tag_42\n      jump\t// in\n    tag_39:\n      mload(0x40)\n      tag_43\n      swap2\n      swap1\n      tag_17\n      jump\t// in\n    tag_43:\n      mload(0x40)\n      dup1\n      swap2\n      sub\n      swap1\n      return\n        /* \"main_with_job.sol\":834:864  uint256 public totalRequestNum */\n    tag_9:\n      tag_44\n      tag_45\n      jump\t// in\n    tag_44:\n      mload(0x40)\n      tag_46\n      swap2\n      swap1\n      tag_17\n      jump\t// in\n    tag_46:\n      mload(0x40)\n      dup1\n      swap2\n      sub\n      swap1\n      return\n        /* \"main_with_job.sol\":794:828  address[] public oracleAddressList */\n    tag_10:\n      tag_47\n      0x04\n      dup1\n      calldatasize\n      sub\n      dup2\n      add\n      swap1\n      tag_48\n      swap2\n      swap1\n      tag_49\n      jump\t// in\n    tag_48:\n      tag_50\n      jump\t// in\n    tag_47:\n      mload(0x40)\n      tag_51\n      swap2\n      swap1\n      tag_52\n      jump\t// in\n    tag_51:\n      mload(0x40)\n      dup1\n      swap2\n      sub\n      swap1\n      return\n        /* \"main_with_job.sol\":1263:1683  function registerOracleNode(jobType[] memory job_type_list) public returns (bool) {... */\n    tag_11:\n      tag_53\n      0x04\n      dup1\n      calldatasize\n      sub\n      dup2\n      add\n      swap1\n      tag_54\n      swap2\n      swap1\n      tag_55\n      jump\t// in\n    tag_54:\n      tag_56\n      jump\t// in\n    tag_53:\n      mload(0x40)\n      tag_57\n      swap2\n      swap1\n      tag_35\n      jump\t// in\n    tag_57:\n      mload(0x40)\n      dup1\n      swap2\n      sub\n      swap1\n      return\n        /* \"main_with_job.sol\":1028:1072  uint256 public constant LIMIT_FEE_PRICE = 10 */\n    tag_12:\n      tag_58\n      tag_59\n      jump\t// in\n    tag_58:\n      mload(0x40)\n      tag_60\n      swap2\n      swap1\n      tag_17\n      jump\t// in\n    tag_60:\n      mload(0x40)\n      dup1\n      swap2\n      sub\n      swap1\n      return\n        /* \"main_with_job.sol\":1078:1119  uint256 public constant DEDUCE_PRICE = 40 */\n    tag_15:\n        /* \"main_with_job.sol\":1117:1119  40 */\n      0x28\n        /* \"main_with_job.sol\":1078:1119  uint256 public constant DEDUCE_PRICE = 40 */\n      dup2\n      jump\t// out\n        /* \"main_with_job.sol\":5750:7221  function fufillReqEvent(uint256 id, uint256 result) public returns (uint256 ,bool) {... */\n    tag_21:\n        /* \"main_with_job.sol\":5818:5825  uint256 */\n      0x00\n        /* \"main_with_job.sol\":5827:5831  bool */\n      0x00\n        /* \"main_with_job.sol\":5847:5874  isInReqList(id, msg.sender) */\n      tag_62\n        /* \"main_with_job.sol\":5859:5861  id */\n      dup5\n        /* \"main_with_job.sol\":5863:5873  msg.sender */\n      caller\n        /* \"main_with_job.sol\":5847:5858  isInReqList */\n      tag_63\n        /* \"main_with_job.sol\":5847:5874  isInReqList(id, msg.sender) */\n      jump\t// in\n    tag_62:\n        /* \"main_with_job.sol\":5843:5918  if (isInReqList(id, msg.sender)) {... */\n      iszero\n      tag_64\n      jumpi\n        /* \"main_with_job.sol\":5898:5899  0 */\n      0x00\n        /* \"main_with_job.sol\":5901:5906  false */\n      0x00\n        /* \"main_with_job.sol\":5890:5907  return (0, false) */\n      swap2\n      pop\n      swap2\n      pop\n      jump(tag_61)\n        /* \"main_with_job.sol\":5843:5918  if (isInReqList(id, msg.sender)) {... */\n    tag_64:\n        /* \"main_with_job.sol\":5927:5938  uint256 num */\n      0x00\n        /* \"main_with_job.sol\":5941:5952  requestList */\n      0x04\n        /* \"main_with_job.sol\":5941:5956  requestList[id] */\n      0x00\n        /* \"main_with_job.sol\":5953:5955  id */\n      dup7\n        /* \"main_with_job.sol\":5941:5956  requestList[id] */\n      dup2\n      mstore\n      0x20\n      add\n      swap1\n      dup2\n      mstore\n      0x20\n      add\n      0x00\n      keccak256\n        /* \"main_with_job.sol\":5941:5965  requestList[id].givenNum */\n      0x07\n      add\n      sload\n        /* \"main_with_job.sol\":5927:5965  uint256 num = requestList[id].givenNum */\n      swap1\n      pop\n        /* \"main_with_job.sol\":6008:6014  result */\n      dup4\n        /* \"main_with_job.sol\":5975:5986  requestList */\n      0x04\n        /* \"main_with_job.sol\":5975:5990  requestList[id] */\n      0x00\n        /* \"main_with_job.sol\":5987:5989  id */\n      dup8\n        /* \"main_with_job.sol\":5975:5990  requestList[id] */\n      dup2\n      mstore\n      0x20\n      add\n      swap1\n      dup2\n      mstore\n      0x20\n      add\n      0x00\n      keccak256\n        /* \"main_with_job.sol\":5975:6000  requestList[id].searchRes */\n      0x05\n      add\n        /* \"main_with_job.sol\":6001:6004  num */\n      dup3\n        /* \"main_with_job.sol\":5975:6005  requestList[id].searchRes[num] */\n      dup2\n      sload\n      dup2\n      lt\n      tag_65\n      jumpi\n      tag_66\n      tag_67\n      jump\t// in\n    tag_66:\n    tag_65:\n      swap1\n      0x00\n      mstore\n      keccak256(0x00, 0x20)\n      add\n        /* \"main_with_job.sol\":5975:6014  requestList[id].searchRes[num] = result */\n      dup2\n      swap1\n      sstore\n      pop\n        /* \"main_with_job.sol\":6062:6072  msg.sender */\n      caller\n        /* \"main_with_job.sol\":6024:6035  requestList */\n      0x04\n        /* \"main_with_job.sol\":6024:6039  requestList[id] */\n      0x00\n        /* \"main_with_job.sol\":6036:6038  id */\n      dup8\n        /* \"main_with_job.sol\":6024:6039  requestList[id] */\n      dup2\n      mstore\n      0x20\n      add\n      swap1\n      dup2\n      mstore\n      0x20\n      add\n      0x00\n      keccak256\n        /* \"main_with_job.sol\":6024:6054  requestList[id].resOracleNodes */\n      0x06\n      add\n        /* \"main_with_job.sol\":6055:6058  num */\n      dup3\n        /* \"main_with_job.sol\":6024:6059  requestList[id].resOracleNodes[num] */\n      dup2\n      sload\n      dup2\n      lt\n      tag_69\n      jumpi\n      tag_70\n      tag_67\n      jump\t// in\n    tag_70:\n    tag_69:\n      swap1\n      0x00\n      mstore\n      keccak256(0x00, 0x20)\n      add\n      0x00\n        /* \"main_with_job.sol\":6024:6072  requestList[id].resOracleNodes[num] = msg.sender */\n      0x0100\n      exp\n      dup2\n      sload\n      dup2\n      0xffffffffffffffffffffffffffffffffffffffff\n      mul\n      not\n      and\n      swap1\n      dup4\n      0xffffffffffffffffffffffffffffffffffffffff\n      and\n      mul\n      or\n      swap1\n      sstore\n      pop\n        /* \"main_with_job.sol\":6082:6093  requestList */\n      0x04\n        /* \"main_with_job.sol\":6082:6097  requestList[id] */\n      0x00\n        /* \"main_with_job.sol\":6094:6096  id */\n      dup7\n        /* \"main_with_job.sol\":6082:6097  requestList[id] */\n      dup2\n      mstore\n      0x20\n      add\n      swap1\n      dup2\n      mstore\n      0x20\n      add\n      0x00\n      keccak256\n        /* \"main_with_job.sol\":6082:6106  requestList[id].givenNum */\n      0x07\n      add\n      0x00\n        /* \"main_with_job.sol\":6082:6108  requestList[id].givenNum++ */\n      dup2\n      sload\n      dup1\n      swap3\n      swap2\n      swap1\n      tag_72\n      swap1\n      tag_73\n      jump\t// in\n    tag_72:\n      swap2\n      swap1\n      pop\n      sstore\n      pop\n        /* \"main_with_job.sol\":6237:6248  requestList */\n      0x04\n        /* \"main_with_job.sol\":6237:6252  requestList[id] */\n      0x00\n        /* \"main_with_job.sol\":6249:6251  id */\n      dup7\n        /* \"main_with_job.sol\":6237:6252  requestList[id] */\n      dup2\n      mstore\n      0x20\n      add\n      swap1\n      dup2\n      mstore\n      0x20\n      add\n      0x00\n      keccak256\n        /* \"main_with_job.sol\":6237:6265  requestList[id].oracles_list */\n      0x03\n      add\n        /* \"main_with_job.sol\":6237:6272  requestList[id].oracles_list.length */\n      dup1\n      sload\n      swap1\n      pop\n        /* \"main_with_job.sol\":6233:6234  2 */\n      0x02\n        /* \"main_with_job.sol\":6233:6272  2 * requestList[id].oracles_list.length */\n      tag_74\n      swap2\n      swap1\n      tag_75\n      jump\t// in\n    tag_74:\n        /* \"main_with_job.sol\":6228:6229  3 */\n      0x03\n        /* \"main_with_job.sol\":6201:6212  requestList */\n      0x04\n        /* \"main_with_job.sol\":6201:6216  requestList[id] */\n      0x00\n        /* \"main_with_job.sol\":6213:6215  id */\n      dup9\n        /* \"main_with_job.sol\":6201:6216  requestList[id] */\n      dup2\n      mstore\n      0x20\n      add\n      swap1\n      dup2\n      mstore\n      0x20\n      add\n      0x00\n      keccak256\n        /* \"main_with_job.sol\":6201:6225  requestList[id].givenNum */\n      0x07\n      add\n      sload\n        /* \"main_with_job.sol\":6201:6229  requestList[id].givenNum * 3 */\n      tag_76\n      swap2\n      swap1\n      tag_75\n      jump\t// in\n    tag_76:\n        /* \"main_with_job.sol\":6201:6272  requestList[id].givenNum * 3 >= 2 * requestList[id].oracles_list.length */\n      lt\n        /* \"main_with_job.sol\":6197:7188  if (requestList[id].givenNum * 3 >= 2 * requestList[id].oracles_list.length) {... */\n      tag_77\n      jumpi\n        /* \"main_with_job.sol\":6288:6308  uint256 final_result */\n      0x00\n        /* \"main_with_job.sol\":6311:6312  0 */\n      0x00\n        /* \"main_with_job.sol\":6288:6312  uint256 final_result = 0 */\n      swap1\n      pop\n        /* \"main_with_job.sol\":6326:6341  uint256 std_num */\n      0x00\n        /* \"main_with_job.sol\":6344:6345  0 */\n      0x00\n        /* \"main_with_job.sol\":6326:6345  uint256 std_num = 0 */\n      swap1\n      pop\n        /* \"main_with_job.sol\":6364:6377  uint256 index */\n      0x00\n        /* \"main_with_job.sol\":6380:6381  0 */\n      0x00\n        /* \"main_with_job.sol\":6364:6381  uint256 index = 0 */\n      swap1\n      pop\n        /* \"main_with_job.sol\":6359:6697  for (uint256 index = 0; index < requestList[id].givenNum; index++) {... */\n    tag_78:\n        /* \"main_with_job.sol\":6391:6402  requestList */\n      0x04\n        /* \"main_with_job.sol\":6391:6406  requestList[id] */\n      0x00\n        /* \"main_with_job.sol\":6403:6405  id */\n      dup10\n        /* \"main_with_job.sol\":6391:6406  requestList[id] */\n      dup2\n      mstore\n      0x20\n      add\n      swap1\n      dup2\n      mstore\n      0x20\n      add\n      0x00\n      keccak256\n        /* \"main_with_job.sol\":6391:6415  requestList[id].givenNum */\n      0x07\n      add\n      sload\n        /* \"main_with_job.sol\":6383:6388  index */\n      dup2\n        /* \"main_with_job.sol\":6383:6415  index < requestList[id].givenNum */\n      lt\n        /* \"main_with_job.sol\":6359:6697  for (uint256 index = 0; index < requestList[id].givenNum; index++) {... */\n      iszero\n      tag_79\n      jumpi\n        /* \"main_with_job.sol\":6528:6539  requestList */\n      0x04\n        /* \"main_with_job.sol\":6528:6543  requestList[id] */\n      0x00\n        /* \"main_with_job.sol\":6540:6542  id */\n      dup10\n        /* \"main_with_job.sol\":6528:6543  requestList[id] */\n      dup2\n      mstore\n      0x20\n      add\n      swap1\n      dup2\n      mstore\n      0x20\n      add\n      0x00\n      keccak256\n        /* \"main_with_job.sol\":6528:6552  requestList[id].givenNum */\n      0x07\n      add\n      sload\n        /* \"main_with_job.sol\":6503:6514  requestList */\n      0x04\n        /* \"main_with_job.sol\":6503:6521  requestList[index] */\n      0x00\n        /* \"main_with_job.sol\":6515:6520  index */\n      dup4\n        /* \"main_with_job.sol\":6503:6521  requestList[index] */\n      dup2\n      mstore\n      0x20\n      add\n      swap1\n      dup2\n      mstore\n      0x20\n      add\n      0x00\n      keccak256\n        /* \"main_with_job.sol\":6503:6525  requestList[index].Fee */\n      0x04\n      add\n      sload\n        /* \"main_with_job.sol\":6503:6552  requestList[index].Fee / requestList[id].givenNum */\n      tag_81\n      swap2\n      swap1\n      tag_82\n      jump\t// in\n    tag_81:\n        /* \"main_with_job.sol\":6444:6460  nodeStackBalance */\n      0x03\n        /* \"main_with_job.sol\":6444:6499  nodeStackBalance[requestList[id].resOracleNodes[index]] */\n      0x00\n        /* \"main_with_job.sol\":6461:6472  requestList */\n      0x04\n        /* \"main_with_job.sol\":6461:6476  requestList[id] */\n      0x00\n        /* \"main_with_job.sol\":6473:6475  id */\n      dup13\n        /* \"main_with_job.sol\":6461:6476  requestList[id] */\n      dup2\n      mstore\n      0x20\n      add\n      swap1\n      dup2\n      mstore\n      0x20\n      add\n      0x00\n      keccak256\n        /* \"main_with_job.sol\":6461:6491  requestList[id].resOracleNodes */\n      0x06\n      add\n        /* \"main_with_job.sol\":6492:6497  index */\n      dup5\n        /* \"main_with_job.sol\":6461:6498  requestList[id].resOracleNodes[index] */\n      dup2\n      sload\n      dup2\n      lt\n      tag_83\n      jumpi\n      tag_84\n      tag_67\n      jump\t// in\n    tag_84:\n    tag_83:\n      swap1\n      0x00\n      mstore\n      keccak256(0x00, 0x20)\n      add\n      0x00\n      swap1\n      sload\n      swap1\n      0x0100\n      exp\n      swap1\n      div\n      0xffffffffffffffffffffffffffffffffffffffff\n      and\n        /* \"main_with_job.sol\":6444:6499  nodeStackBalance[requestList[id].resOracleNodes[index]] */\n      0xffffffffffffffffffffffffffffffffffffffff\n      and\n      0xffffffffffffffffffffffffffffffffffffffff\n      and\n      dup2\n      mstore\n      0x20\n      add\n      swap1\n      dup2\n      mstore\n      0x20\n      add\n      0x00\n      keccak256\n      0x00\n        /* \"main_with_job.sol\":6444:6552  nodeStackBalance[requestList[id].resOracleNodes[index]] += requestList[index].Fee / requestList[id].givenNum */\n      dup3\n      dup3\n      sload\n      tag_86\n      swap2\n      swap1\n      tag_87\n      jump\t// in\n    tag_86:\n      swap3\n      pop\n      pop\n      dup2\n      swap1\n      sstore\n      pop\n        /* \"main_with_job.sol\":6586:6597  requestList */\n      0x04\n        /* \"main_with_job.sol\":6586:6601  requestList[id] */\n      0x00\n        /* \"main_with_job.sol\":6598:6600  id */\n      dup10\n        /* \"main_with_job.sol\":6586:6601  requestList[id] */\n      dup2\n      mstore\n      0x20\n      add\n      swap1\n      dup2\n      mstore\n      0x20\n      add\n      0x00\n      keccak256\n        /* \"main_with_job.sol\":6586:6611  requestList[id].searchRes */\n      0x05\n      add\n        /* \"main_with_job.sol\":6612:6617  index */\n      dup2\n        /* \"main_with_job.sol\":6586:6618  requestList[id].searchRes[index] */\n      dup2\n      sload\n      dup2\n      lt\n      tag_88\n      jumpi\n      tag_89\n      tag_67\n      jump\t// in\n    tag_89:\n    tag_88:\n      swap1\n      0x00\n      mstore\n      keccak256(0x00, 0x20)\n      add\n      sload\n        /* \"main_with_job.sol\":6570:6618  final_result += requestList[id].searchRes[index] */\n      dup4\n      tag_91\n      swap2\n      swap1\n      tag_87\n      jump\t// in\n    tag_91:\n      swap3\n      pop\n        /* \"main_with_job.sol\":6681:6682  2 */\n      0x02\n        /* \"main_with_job.sol\":6647:6658  requestList */\n      0x04\n        /* \"main_with_job.sol\":6647:6662  requestList[id] */\n      0x00\n        /* \"main_with_job.sol\":6659:6661  id */\n      dup11\n        /* \"main_with_job.sol\":6647:6662  requestList[id] */\n      dup2\n      mstore\n      0x20\n      add\n      swap1\n      dup2\n      mstore\n      0x20\n      add\n      0x00\n      keccak256\n        /* \"main_with_job.sol\":6647:6672  requestList[id].searchRes */\n      0x05\n      add\n        /* \"main_with_job.sol\":6673:6678  index */\n      dup3\n        /* \"main_with_job.sol\":6647:6679  requestList[id].searchRes[index] */\n      dup2\n      sload\n      dup2\n      lt\n      tag_92\n      jumpi\n      tag_93\n      tag_67\n      jump\t// in\n    tag_93:\n    tag_92:\n      swap1\n      0x00\n      mstore\n      keccak256(0x00, 0x20)\n      add\n      sload\n        /* \"main_with_job.sol\":6647:6682  requestList[id].searchRes[index]**2 */\n      tag_95\n      swap2\n      swap1\n      tag_96\n      jump\t// in\n    tag_95:\n        /* \"main_with_job.sol\":6636:6682  std_num += requestList[id].searchRes[index]**2 */\n      dup3\n      tag_97\n      swap2\n      swap1\n      tag_87\n      jump\t// in\n    tag_97:\n      swap2\n      pop\n        /* \"main_with_job.sol\":6417:6424  index++ */\n      dup1\n      dup1\n      0x01\n      add\n      swap2\n      pop\n      pop\n        /* \"main_with_job.sol\":6359:6697  for (uint256 index = 0; index < requestList[id].givenNum; index++) {... */\n      jump(tag_78)\n    tag_79:\n      pop\n        /* \"main_with_job.sol\":6710:6740  TARGET_CONTRACT TargetContract */\n      0x00\n        /* \"main_with_job.sol\":6759:6770  requestList */\n      0x04\n        /* \"main_with_job.sol\":6759:6774  requestList[id] */\n      0x00\n        /* \"main_with_job.sol\":6771:6773  id */\n      dup10\n        /* \"main_with_job.sol\":6759:6774  requestList[id] */\n      dup2\n      mstore\n      0x20\n      add\n      swap1\n      dup2\n      mstore\n      0x20\n      add\n      0x00\n      keccak256\n        /* \"main_with_job.sol\":6759:6784  requestList[id].requester */\n      0x01\n      add\n      0x00\n      swap1\n      sload\n      swap1\n      0x0100\n      exp\n      swap1\n      div\n      0xffffffffffffffffffffffffffffffffffffffff\n      and\n        /* \"main_with_job.sol\":6710:6785  TARGET_CONTRACT TargetContract = TARGET_CONTRACT(requestList[id].requester) */\n      swap1\n      pop\n        /* \"main_with_job.sol\":6800:6843  evaluateNodePerf(id, final_result, std_num) */\n      tag_98\n        /* \"main_with_job.sol\":6817:6819  id */\n      dup9\n        /* \"main_with_job.sol\":6821:6833  final_result */\n      dup5\n        /* \"main_with_job.sol\":6835:6842  std_num */\n      dup5\n        /* \"main_with_job.sol\":6800:6816  evaluateNodePerf */\n      tag_99\n        /* \"main_with_job.sol\":6800:6843  evaluateNodePerf(id, final_result, std_num) */\n      jump\t// in\n    tag_98:\n      pop\n        /* \"main_with_job.sol\":6888:6899  requestList */\n      0x04\n        /* \"main_with_job.sol\":6888:6903  requestList[id] */\n      0x00\n        /* \"main_with_job.sol\":6900:6902  id */\n      dup10\n        /* \"main_with_job.sol\":6888:6903  requestList[id] */\n      dup2\n      mstore\n      0x20\n      add\n      swap1\n      dup2\n      mstore\n      0x20\n      add\n      0x00\n      keccak256\n        /* \"main_with_job.sol\":6888:6912  requestList[id].givenNum */\n      0x07\n      add\n      sload\n        /* \"main_with_job.sol\":6873:6885  final_result */\n      dup4\n        /* \"main_with_job.sol\":6873:6912  final_result / requestList[id].givenNum */\n      tag_100\n      swap2\n      swap1\n      tag_82\n      jump\t// in\n    tag_100:\n        /* \"main_with_job.sol\":6858:6912  final_result = final_result / requestList[id].givenNum */\n      swap3\n      pop\n        /* \"main_with_job.sol\":6953:6965  final_result */\n      dup3\n        /* \"main_with_job.sol\":6938:6950  final_result */\n      dup4\n        /* \"main_with_job.sol\":6938:6965  final_result * final_result */\n      tag_101\n      swap2\n      swap1\n      tag_75\n      jump\t// in\n    tag_101:\n        /* \"main_with_job.sol\":6927:6965  std_num -= final_result * final_result */\n      dup3\n      tag_102\n      swap2\n      swap1\n      tag_103\n      jump\t// in\n    tag_102:\n      swap2\n      pop\n        /* \"main_with_job.sol\":6999:7010  requestList */\n      0x04\n        /* \"main_with_job.sol\":6999:7014  requestList[id] */\n      0x00\n        /* \"main_with_job.sol\":7011:7013  id */\n      dup10\n        /* \"main_with_job.sol\":6999:7014  requestList[id] */\n      dup2\n      mstore\n      0x20\n      add\n      swap1\n      dup2\n      mstore\n      0x20\n      add\n      0x00\n      keccak256\n        /* \"main_with_job.sol\":6999:7023  requestList[id].givenNum */\n      0x07\n      add\n      sload\n        /* \"main_with_job.sol\":6989:6996  std_num */\n      dup3\n        /* \"main_with_job.sol\":6989:7023  std_num / requestList[id].givenNum */\n      tag_104\n      swap2\n      swap1\n      tag_82\n      jump\t// in\n    tag_104:\n        /* \"main_with_job.sol\":6979:7023  std_num = std_num / requestList[id].givenNum */\n      swap2\n      pop\n        /* \"main_with_job.sol\":7099:7113  TargetContract */\n      dup1\n        /* \"main_with_job.sol\":7099:7122  TargetContract.callData */\n      0xffffffffffffffffffffffffffffffffffffffff\n      and\n      0xe5d60ce1\n        /* \"main_with_job.sol\":7123:7135  final_result */\n      dup5\n        /* \"main_with_job.sol\":7099:7136  TargetContract.callData(final_result) */\n      mload(0x40)\n      dup3\n      0xffffffff\n      and\n      0xe0\n      shl\n      dup2\n      mstore\n      0x04\n      add\n      tag_105\n      swap2\n      swap1\n      tag_17\n      jump\t// in\n    tag_105:\n      0x20\n      mload(0x40)\n      dup1\n      dup4\n      sub\n      dup2\n      0x00\n      dup8\n      gas\n      call\n      iszero\n      dup1\n      iszero\n      tag_107\n      jumpi\n      returndatacopy(0x00, 0x00, returndatasize)\n      revert(0x00, returndatasize)\n    tag_107:\n      pop\n      pop\n      pop\n      pop\n      mload(0x40)\n      returndatasize\n      not(0x1f)\n      0x1f\n      dup3\n      add\n      and\n      dup3\n      add\n      dup1\n      0x40\n      mstore\n      pop\n      dup2\n      add\n      swap1\n      tag_108\n      swap2\n      swap1\n      tag_109\n      jump\t// in\n    tag_108:\n      pop\n        /* \"main_with_job.sol\":7158:7170  final_result */\n      dup3\n        /* \"main_with_job.sol\":7172:7176  true */\n      0x01\n        /* \"main_with_job.sol\":7150:7177  return (final_result, true) */\n      swap6\n      pop\n      swap6\n      pop\n      pop\n      pop\n      pop\n      pop\n      jump(tag_61)\n        /* \"main_with_job.sol\":6197:7188  if (requestList[id].givenNum * 3 >= 2 * requestList[id].oracles_list.length) {... */\n    tag_77:\n        /* \"main_with_job.sol\":7205:7206  0 */\n      0x00\n        /* \"main_with_job.sol\":7208:7213  false */\n      0x00\n        /* \"main_with_job.sol\":7197:7214  return (0, false) */\n      swap3\n      pop\n      swap3\n      pop\n      pop\n        /* \"main_with_job.sol\":5750:7221  function fufillReqEvent(uint256 id, uint256 result) public returns (uint256 ,bool) {... */\n    tag_61:\n      swap3\n      pop\n      swap3\n      swap1\n      pop\n      jump\t// out\n        /* \"main_with_job.sol\":733:787  mapping(address => jobType[]) public oracleNodeJobType */\n    tag_27:\n      mstore(0x20, 0x00)\n      dup2\n      0x00\n      mstore\n      keccak256(0x00, 0x40)\n      dup2\n      dup2\n      sload\n      dup2\n      lt\n      tag_110\n      jumpi\n      0x00\n      dup1\n      revert\n    tag_110:\n      swap1\n      0x00\n      mstore\n      keccak256(0x00, 0x20)\n      swap1\n      0x20\n      swap2\n      dup3\n      dup3\n      div\n      add\n      swap2\n      swap1\n      mod\n      swap2\n      pop\n      swap2\n      pop\n      swap1\n      sload\n      swap1\n      0x0100\n      exp\n      swap1\n      div\n      0xff\n      and\n      dup2\n      jump\t// out\n        /* \"main_with_job.sol\":2964:3808  function requestForMsg(... */\n    tag_33:\n        /* \"main_with_job.sol\":3082:3086  bool */\n      0x00\n        /* \"main_with_job.sol\":1070:1072  10 */\n      0x0a\n        /* \"main_with_job.sol\":3106:3109  fee */\n      dup3\n        /* \"main_with_job.sol\":3106:3128  fee >= LIMIT_FEE_PRICE */\n      lt\n      iszero\n        /* \"main_with_job.sol\":3098:3145  require(fee >= LIMIT_FEE_PRICE, \"too less fee\") */\n      tag_113\n      jumpi\n      mload(0x40)\n      0x08c379a000000000000000000000000000000000000000000000000000000000\n      dup2\n      mstore\n      0x04\n      add\n      tag_114\n      swap1\n      tag_115\n      jump\t// in\n    tag_114:\n      mload(0x40)\n      dup1\n      swap2\n      sub\n      swap1\n      revert\n    tag_113:\n        /* \"main_with_job.sol\":3187:3188  1 */\n      0x01\n        /* \"main_with_job.sol\":3159:3176  oracleAddressList */\n      dup1\n        /* \"main_with_job.sol\":3159:3183  oracleAddressList.length */\n      dup1\n      sload\n      swap1\n      pop\n        /* \"main_with_job.sol\":3159:3188  oracleAddressList.length <= 1 */\n      gt\n        /* \"main_with_job.sol\":3155:3227  if (oracleAddressList.length <= 1) {... */\n      tag_116\n      jumpi\n        /* \"main_with_job.sol\":3211:3216  false */\n      0x00\n        /* \"main_with_job.sol\":3204:3216  return false */\n      swap1\n      pop\n      jump(tag_112)\n        /* \"main_with_job.sol\":3155:3227  if (oracleAddressList.length <= 1) {... */\n    tag_116:\n        /* \"main_with_job.sol\":3236:3263  address[] memory node_lists */\n      0x00\n        /* \"main_with_job.sol\":3266:3291  calculateReqNode(jobtype) */\n      tag_117\n        /* \"main_with_job.sol\":3283:3290  jobtype */\n      dup5\n        /* \"main_with_job.sol\":3266:3282  calculateReqNode */\n      tag_118\n        /* \"main_with_job.sol\":3266:3291  calculateReqNode(jobtype) */\n      jump\t// in\n    tag_117:\n        /* \"main_with_job.sol\":3236:3291  address[] memory node_lists = calculateReqNode(jobtype) */\n      swap1\n      pop\n        /* \"main_with_job.sol\":3302:3316  uint256 req_id */\n      0x00\n        /* \"main_with_job.sol\":3319:3334  totalRequestNum */\n      0x02\n      0x00\n        /* \"main_with_job.sol\":3319:3336  totalRequestNum++ */\n      dup2\n      sload\n      dup1\n      swap3\n      swap2\n      swap1\n      tag_119\n      swap1\n      tag_73\n      jump\t// in\n    tag_119:\n      swap2\n      swap1\n      pop\n      sstore\n        /* \"main_with_job.sol\":3302:3336  uint256 req_id = totalRequestNum++ */\n      swap1\n      pop\n        /* \"main_with_job.sol\":3369:3708  RequestBody({... */\n      mload(0x40)\n      dup1\n      0x0120\n      add\n      0x40\n      mstore\n      dup1\n        /* \"main_with_job.sol\":3399:3405  req_id */\n      dup3\n        /* \"main_with_job.sol\":3369:3708  RequestBody({... */\n      dup2\n      mstore\n      0x20\n      add\n        /* \"main_with_job.sol\":3430:3440  msg.sender */\n      caller\n        /* \"main_with_job.sol\":3369:3708  RequestBody({... */\n      0xffffffffffffffffffffffffffffffffffffffff\n      and\n      dup2\n      mstore\n      0x20\n      add\n        /* \"main_with_job.sol\":3464:3471  jobtype */\n      dup7\n        /* \"main_with_job.sol\":3369:3708  RequestBody({... */\n      0x02\n      dup2\n      gt\n      iszero\n      tag_120\n      jumpi\n      tag_121\n      tag_122\n      jump\t// in\n    tag_121:\n    tag_120:\n      dup2\n      mstore\n      0x20\n      add\n        /* \"main_with_job.sol\":3490:3493  url */\n      dup8\n        /* \"main_with_job.sol\":3369:3708  RequestBody({... */\n      dup2\n      mstore\n      0x20\n      add\n        /* \"main_with_job.sol\":3521:3531  node_lists */\n      dup4\n        /* \"main_with_job.sol\":3369:3708  RequestBody({... */\n      dup2\n      mstore\n      0x20\n      add\n        /* \"main_with_job.sol\":3550:3553  fee */\n      dup6\n        /* \"main_with_job.sol\":3369:3708  RequestBody({... */\n      dup2\n      mstore\n      0x20\n      add\n        /* \"main_with_job.sol\":3592:3602  node_lists */\n      dup4\n        /* \"main_with_job.sol\":3592:3609  node_lists.length */\n      mload\n        /* \"main_with_job.sol\":3578:3610  new uint256[](node_lists.length) */\n      0xffffffffffffffff\n      dup2\n      gt\n      iszero\n      tag_123\n      jumpi\n      tag_124\n      tag_125\n      jump\t// in\n    tag_124:\n    tag_123:\n      mload(0x40)\n      swap1\n      dup1\n      dup3\n      mstore\n      dup1\n      0x20\n      mul\n      0x20\n      add\n      dup3\n      add\n      0x40\n      mstore\n      dup1\n      iszero\n      tag_126\n      jumpi\n      dup2\n      0x20\n      add\n      0x20\n      dup3\n      mul\n      dup1\n      calldatasize\n      dup4\n      calldatacopy\n      dup1\n      dup3\n      add\n      swap2\n      pop\n      pop\n      swap1\n      pop\n    tag_126:\n      pop\n        /* \"main_with_job.sol\":3369:3708  RequestBody({... */\n      dup2\n      mstore\n      0x20\n      add\n        /* \"main_with_job.sol\":3654:3664  node_lists */\n      dup4\n        /* \"main_with_job.sol\":3654:3671  node_lists.length */\n      mload\n        /* \"main_with_job.sol\":3640:3672  new address[](node_lists.length) */\n      0xffffffffffffffff\n      dup2\n      gt\n      iszero\n      tag_127\n      jumpi\n      tag_128\n      tag_125\n      jump\t// in\n    tag_128:\n    tag_127:\n      mload(0x40)\n      swap1\n      dup1\n      dup3\n      mstore\n      dup1\n      0x20\n      mul\n      0x20\n      add\n      dup3\n      add\n      0x40\n      mstore\n      dup1\n      iszero\n      tag_129\n      jumpi\n      dup2\n      0x20\n      add\n      0x20\n      dup3\n      mul\n      dup1\n      calldatasize\n      dup4\n      calldatacopy\n      dup1\n      dup3\n      add\n      swap2\n      pop\n      pop\n      swap1\n      pop\n    tag_129:\n      pop\n        /* \"main_with_job.sol\":3369:3708  RequestBody({... */\n      dup2\n      mstore\n      0x20\n      add\n        /* \"main_with_job.sol\":3696:3697  0 */\n      0x00\n        /* \"main_with_job.sol\":3369:3708  RequestBody({... */\n      dup2\n      mstore\n      pop\n        /* \"main_with_job.sol\":3347:3358  requestList */\n      0x04\n        /* \"main_with_job.sol\":3347:3366  requestList[req_id] */\n      0x00\n        /* \"main_with_job.sol\":3359:3365  req_id */\n      dup4\n        /* \"main_with_job.sol\":3347:3366  requestList[req_id] */\n      dup2\n      mstore\n      0x20\n      add\n      swap1\n      dup2\n      mstore\n      0x20\n      add\n      0x00\n      keccak256\n        /* \"main_with_job.sol\":3347:3708  requestList[req_id] = RequestBody({... */\n      0x00\n      dup3\n      add\n      mload\n      dup2\n      0x00\n      add\n      sstore\n      0x20\n      dup3\n      add\n      mload\n      dup2\n      0x01\n      add\n      exp(0x0100, 0x00)\n      dup2\n      sload\n      dup2\n      0xffffffffffffffffffffffffffffffffffffffff\n      mul\n      not\n      and\n      swap1\n      dup4\n      0xffffffffffffffffffffffffffffffffffffffff\n      and\n      mul\n      or\n      swap1\n      sstore\n      pop\n      0x40\n      dup3\n      add\n      mload\n      dup2\n      0x01\n      add\n      exp(0x0100, 0x14)\n      dup2\n      sload\n      dup2\n      0xff\n      mul\n      not\n      and\n      swap1\n      dup4\n      0x02\n      dup2\n      gt\n      iszero\n      tag_130\n      jumpi\n      tag_131\n      tag_122\n      jump\t// in\n    tag_131:\n    tag_130:\n      mul\n      or\n      swap1\n      sstore\n      pop\n      0x60\n      dup3\n      add\n      mload\n      dup2\n      0x02\n      add\n      swap1\n      dup2\n      tag_132\n      swap2\n      swap1\n      tag_133\n      jump\t// in\n    tag_132:\n      pop\n      0x80\n      dup3\n      add\n      mload\n      dup2\n      0x03\n      add\n      swap1\n      dup1\n      mload\n      swap1\n      0x20\n      add\n      swap1\n      tag_134\n      swap3\n      swap2\n      swap1\n      tag_135\n      jump\t// in\n    tag_134:\n      pop\n      0xa0\n      dup3\n      add\n      mload\n      dup2\n      0x04\n      add\n      sstore\n      0xc0\n      dup3\n      add\n      mload\n      dup2\n      0x05\n      add\n      swap1\n      dup1\n      mload\n      swap1\n      0x20\n      add\n      swap1\n      tag_136\n      swap3\n      swap2\n      swap1\n      tag_137\n      jump\t// in\n    tag_136:\n      pop\n      0xe0\n      dup3\n      add\n      mload\n      dup2\n      0x06\n      add\n      swap1\n      dup1\n      mload\n      swap1\n      0x20\n      add\n      swap1\n      tag_138\n      swap3\n      swap2\n      swap1\n      tag_135\n      jump\t// in\n    tag_138:\n      pop\n      0x0100\n      dup3\n      add\n      mload\n      dup2\n      0x07\n      add\n      sstore\n      swap1\n      pop\n      pop\n        /* \"main_with_job.sol\":3742:3748  req_id */\n      dup1\n        /* \"main_with_job.sol\":3723:3780  oracleRequestEvent(req_id, node_lists, jobtype, url, fee) */\n      0xe84d10fa98af4ed68014b5eb0367cbcb5ee2664f554195989f89f9bc49709004\n        /* \"main_with_job.sol\":3750:3760  node_lists */\n      dup4\n        /* \"main_with_job.sol\":3762:3769  jobtype */\n      dup8\n        /* \"main_with_job.sol\":3771:3774  url */\n      dup10\n        /* \"main_with_job.sol\":3776:3779  fee */\n      dup9\n        /* \"main_with_job.sol\":3723:3780  oracleRequestEvent(req_id, node_lists, jobtype, url, fee) */\n      mload(0x40)\n      tag_139\n      swap5\n      swap4\n      swap3\n      swap2\n      swap1\n      tag_140\n      jump\t// in\n    tag_139:\n      mload(0x40)\n      dup1\n      swap2\n      sub\n      swap1\n      log2\n        /* \"main_with_job.sol\":3797:3801  true */\n      0x01\n        /* \"main_with_job.sol\":3790:3801  return true */\n      swap3\n      pop\n      pop\n      pop\n        /* \"main_with_job.sol\":2964:3808  function requestForMsg(... */\n    tag_112:\n      swap4\n      swap3\n      pop\n      pop\n      pop\n      jump\t// out\n        /* \"main_with_job.sol\":978:1022  uint256 public constant LIMIT_STAKE_NUM = 80 */\n    tag_37:\n        /* \"main_with_job.sol\":1020:1022  80 */\n      0x50\n        /* \"main_with_job.sol\":978:1022  uint256 public constant LIMIT_STAKE_NUM = 80 */\n      dup2\n      jump\t// out\n        /* \"main_with_job.sol\":871:922  mapping(address => uint256) public nodeStackBalance */\n    tag_42:\n      mstore(0x20, 0x03)\n      dup1\n      0x00\n      mstore\n      keccak256(0x00, 0x40)\n      0x00\n      swap2\n      pop\n      swap1\n      pop\n      sload\n      dup2\n      jump\t// out\n        /* \"main_with_job.sol\":834:864  uint256 public totalRequestNum */\n    tag_45:\n      sload(0x02)\n      dup2\n      jump\t// out\n        /* \"main_with_job.sol\":794:828  address[] public oracleAddressList */\n    tag_50:\n      0x01\n      dup2\n      dup2\n      sload\n      dup2\n      lt\n      tag_141\n      jumpi\n      0x00\n      dup1\n      revert\n    tag_141:\n      swap1\n      0x00\n      mstore\n      keccak256(0x00, 0x20)\n      add\n      0x00\n      swap2\n      pop\n      sload\n      swap1\n      0x0100\n      exp\n      swap1\n      div\n      0xffffffffffffffffffffffffffffffffffffffff\n      and\n      dup2\n      jump\t// out\n        /* \"main_with_job.sol\":1263:1683  function registerOracleNode(jobType[] memory job_type_list) public returns (bool) {... */\n    tag_56:\n        /* \"main_with_job.sol\":1339:1343  bool */\n      0x00\n        /* \"main_with_job.sol\":1020:1022  80 */\n      0x50\n        /* \"main_with_job.sol\":1508:1524  nodeStackBalance */\n      0x03\n        /* \"main_with_job.sol\":1508:1536  nodeStackBalance[msg.sender] */\n      0x00\n        /* \"main_with_job.sol\":1525:1535  msg.sender */\n      caller\n        /* \"main_with_job.sol\":1508:1536  nodeStackBalance[msg.sender] */\n      0xffffffffffffffffffffffffffffffffffffffff\n      and\n      0xffffffffffffffffffffffffffffffffffffffff\n      and\n      dup2\n      mstore\n      0x20\n      add\n      swap1\n      dup2\n      mstore\n      0x20\n      add\n      0x00\n      keccak256\n        /* \"main_with_job.sol\":1508:1554  nodeStackBalance[msg.sender] = LIMIT_STAKE_NUM */\n      dup2\n      swap1\n      sstore\n      pop\n        /* \"main_with_job.sol\":1596:1609  job_type_list */\n      dup2\n        /* \"main_with_job.sol\":1564:1581  oracleNodeJobType */\n      0x00\n        /* \"main_with_job.sol\":1564:1593  oracleNodeJobType[msg.sender] */\n      0x00\n        /* \"main_with_job.sol\":1582:1592  msg.sender */\n      caller\n        /* \"main_with_job.sol\":1564:1593  oracleNodeJobType[msg.sender] */\n      0xffffffffffffffffffffffffffffffffffffffff\n      and\n      0xffffffffffffffffffffffffffffffffffffffff\n      and\n      dup2\n      mstore\n      0x20\n      add\n      swap1\n      dup2\n      mstore\n      0x20\n      add\n      0x00\n      keccak256\n        /* \"main_with_job.sol\":1564:1609  oracleNodeJobType[msg.sender] = job_type_list */\n      swap1\n      dup1\n      mload\n      swap1\n      0x20\n      add\n      swap1\n      tag_144\n      swap3\n      swap2\n      swap1\n      tag_145\n      jump\t// in\n    tag_144:\n      pop\n        /* \"main_with_job.sol\":1619:1636  oracleAddressList */\n      0x01\n        /* \"main_with_job.sol\":1642:1652  msg.sender */\n      caller\n        /* \"main_with_job.sol\":1619:1653  oracleAddressList.push(msg.sender) */\n      swap1\n      dup1\n      0x01\n      dup2\n      sload\n      add\n      dup1\n      dup3\n      sstore\n      dup1\n      swap2\n      pop\n      pop\n      0x01\n      swap1\n      sub\n      swap1\n      0x00\n      mstore\n      keccak256(0x00, 0x20)\n      add\n      0x00\n      swap1\n      swap2\n      swap1\n      swap2\n      swap1\n      swap2\n      0x0100\n      exp\n      dup2\n      sload\n      dup2\n      0xffffffffffffffffffffffffffffffffffffffff\n      mul\n      not\n      and\n      swap1\n      dup4\n      0xffffffffffffffffffffffffffffffffffffffff\n      and\n      mul\n      or\n      swap1\n      sstore\n      pop\n        /* \"main_with_job.sol\":1671:1675  true */\n      0x01\n        /* \"main_with_job.sol\":1663:1676  return (true) */\n      swap1\n      pop\n        /* \"main_with_job.sol\":1263:1683  function registerOracleNode(jobType[] memory job_type_list) public returns (bool) {... */\n      swap2\n      swap1\n      pop\n      jump\t// out\n        /* \"main_with_job.sol\":1028:1072  uint256 public constant LIMIT_FEE_PRICE = 10 */\n    tag_59:\n        /* \"main_with_job.sol\":1070:1072  10 */\n      0x0a\n        /* \"main_with_job.sol\":1028:1072  uint256 public constant LIMIT_FEE_PRICE = 10 */\n      dup2\n      jump\t// out\n        /* \"main_with_job.sol\":3897:4358  function isInReqList(uint256 id, address addr) private view returns (bool) {... */\n    tag_63:\n        /* \"main_with_job.sol\":3966:3970  bool */\n      0x00\n        /* \"main_with_job.sol\":4008:4009  0 */\n      0x00\n        /* \"main_with_job.sol\":3986:3997  requestList */\n      0x04\n        /* \"main_with_job.sol\":3986:4001  requestList[id] */\n      0x00\n        /* \"main_with_job.sol\":3998:4000  id */\n      dup6\n        /* \"main_with_job.sol\":3986:4001  requestList[id] */\n      dup2\n      mstore\n      0x20\n      add\n      swap1\n      dup2\n      mstore\n      0x20\n      add\n      0x00\n      keccak256\n        /* \"main_with_job.sol\":3986:4004  requestList[id].id */\n      0x00\n      add\n      sload\n        /* \"main_with_job.sol\":3986:4009  requestList[id].id == 0 */\n      sub\n        /* \"main_with_job.sol\":3982:4048  if (requestList[id].id == 0) {... */\n      tag_148\n      jumpi\n        /* \"main_with_job.sol\":4032:4037  false */\n      0x00\n        /* \"main_with_job.sol\":4025:4037  return false */\n      swap1\n      pop\n      jump(tag_147)\n        /* \"main_with_job.sol\":3982:4048  if (requestList[id].id == 0) {... */\n    tag_148:\n        /* \"main_with_job.sol\":4057:4068  uint256 num */\n      0x00\n        /* \"main_with_job.sol\":4071:4082  requestList */\n      0x04\n        /* \"main_with_job.sol\":4071:4086  requestList[id] */\n      0x00\n        /* \"main_with_job.sol\":4083:4085  id */\n      dup6\n        /* \"main_with_job.sol\":4071:4086  requestList[id] */\n      dup2\n      mstore\n      0x20\n      add\n      swap1\n      dup2\n      mstore\n      0x20\n      add\n      0x00\n      keccak256\n        /* \"main_with_job.sol\":4071:4095  requestList[id].givenNum */\n      0x07\n      add\n      sload\n        /* \"main_with_job.sol\":4057:4095  uint256 num = requestList[id].givenNum */\n      swap1\n      pop\n        /* \"main_with_job.sol\":4116:4117  0 */\n      0x00\n        /* \"main_with_job.sol\":4109:4112  num */\n      dup2\n        /* \"main_with_job.sol\":4109:4117  num == 0 */\n      sub\n        /* \"main_with_job.sol\":4105:4156  if (num == 0) {... */\n      tag_149\n      jumpi\n        /* \"main_with_job.sol\":4140:4145  false */\n      0x00\n        /* \"main_with_job.sol\":4133:4145  return false */\n      swap2\n      pop\n      pop\n      jump(tag_147)\n        /* \"main_with_job.sol\":4105:4156  if (num == 0) {... */\n    tag_149:\n        /* \"main_with_job.sol\":4170:4183  uint256 index */\n      0x00\n        /* \"main_with_job.sol\":4186:4187  0 */\n      0x00\n        /* \"main_with_job.sol\":4170:4187  uint256 index = 0 */\n      swap1\n      pop\n        /* \"main_with_job.sol\":4165:4330  for (uint256 index = 0; index < num; index++) {... */\n    tag_150:\n        /* \"main_with_job.sol\":4197:4200  num */\n      dup2\n        /* \"main_with_job.sol\":4189:4194  index */\n      dup2\n        /* \"main_with_job.sol\":4189:4200  index < num */\n      lt\n        /* \"main_with_job.sol\":4165:4330  for (uint256 index = 0; index < num; index++) {... */\n      iszero\n      tag_151\n      jumpi\n        /* \"main_with_job.sol\":4270:4274  addr */\n      dup4\n        /* \"main_with_job.sol\":4229:4274  requestList[id].resOracleNodes[index] == addr */\n      0xffffffffffffffffffffffffffffffffffffffff\n      and\n        /* \"main_with_job.sol\":4229:4240  requestList */\n      0x04\n        /* \"main_with_job.sol\":4229:4244  requestList[id] */\n      0x00\n        /* \"main_with_job.sol\":4241:4243  id */\n      dup8\n        /* \"main_with_job.sol\":4229:4244  requestList[id] */\n      dup2\n      mstore\n      0x20\n      add\n      swap1\n      dup2\n      mstore\n      0x20\n      add\n      0x00\n      keccak256\n        /* \"main_with_job.sol\":4229:4259  requestList[id].resOracleNodes */\n      0x06\n      add\n        /* \"main_with_job.sol\":4260:4265  index */\n      dup3\n        /* \"main_with_job.sol\":4229:4266  requestList[id].resOracleNodes[index] */\n      dup2\n      sload\n      dup2\n      lt\n      tag_153\n      jumpi\n      tag_154\n      tag_67\n      jump\t// in\n    tag_154:\n    tag_153:\n      swap1\n      0x00\n      mstore\n      keccak256(0x00, 0x20)\n      add\n      0x00\n      swap1\n      sload\n      swap1\n      0x0100\n      exp\n      swap1\n      div\n      0xffffffffffffffffffffffffffffffffffffffff\n      and\n        /* \"main_with_job.sol\":4229:4274  requestList[id].resOracleNodes[index] == addr */\n      0xffffffffffffffffffffffffffffffffffffffff\n      and\n      sub\n        /* \"main_with_job.sol\":4225:4320  if (requestList[id].resOracleNodes[index] == addr) {... */\n      tag_156\n      jumpi\n        /* \"main_with_job.sol\":4301:4305  true */\n      0x01\n        /* \"main_with_job.sol\":4294:4305  return true */\n      swap3\n      pop\n      pop\n      pop\n      jump(tag_147)\n        /* \"main_with_job.sol\":4225:4320  if (requestList[id].resOracleNodes[index] == addr) {... */\n    tag_156:\n        /* \"main_with_job.sol\":4202:4209  index++ */\n      dup1\n      dup1\n      0x01\n      add\n      swap2\n      pop\n      pop\n        /* \"main_with_job.sol\":4165:4330  for (uint256 index = 0; index < num; index++) {... */\n      jump(tag_150)\n    tag_151:\n      pop\n        /* \"main_with_job.sol\":4346:4351  false */\n      0x00\n        /* \"main_with_job.sol\":4339:4351  return false */\n      swap2\n      pop\n      pop\n        /* \"main_with_job.sol\":3897:4358  function isInReqList(uint256 id, address addr) private view returns (bool) {... */\n    tag_147:\n      swap3\n      swap2\n      pop\n      pop\n      jump\t// out\n        /* \"main_with_job.sol\":4728:5700  function evaluateNodePerf(... */\n    tag_99:\n        /* \"main_with_job.sol\":4852:4856  bool */\n      0x00\n        /* \"main_with_job.sol\":4873:4886  uint256 index */\n      0x00\n        /* \"main_with_job.sol\":4889:4890  0 */\n      0x00\n        /* \"main_with_job.sol\":4873:4890  uint256 index = 0 */\n      swap1\n      pop\n        /* \"main_with_job.sol\":4868:5673  for (uint256 index = 0; index < requestList[id].givenNum; index++) {... */\n    tag_158:\n        /* \"main_with_job.sol\":4900:4911  requestList */\n      0x04\n        /* \"main_with_job.sol\":4900:4915  requestList[id] */\n      0x00\n        /* \"main_with_job.sol\":4912:4914  id */\n      dup7\n        /* \"main_with_job.sol\":4900:4915  requestList[id] */\n      dup2\n      mstore\n      0x20\n      add\n      swap1\n      dup2\n      mstore\n      0x20\n      add\n      0x00\n      keccak256\n        /* \"main_with_job.sol\":4900:4924  requestList[id].givenNum */\n      0x07\n      add\n      sload\n        /* \"main_with_job.sol\":4892:4897  index */\n      dup2\n        /* \"main_with_job.sol\":4892:4924  index < requestList[id].givenNum */\n      lt\n        /* \"main_with_job.sol\":4868:5673  for (uint256 index = 0; index < requestList[id].givenNum; index++) {... */\n      iszero\n      tag_159\n      jumpi\n        /* \"main_with_job.sol\":4949:4965  uint256 node_res */\n      0x00\n        /* \"main_with_job.sol\":4968:4979  requestList */\n      0x04\n        /* \"main_with_job.sol\":4968:4983  requestList[id] */\n      0x00\n        /* \"main_with_job.sol\":4980:4982  id */\n      dup8\n        /* \"main_with_job.sol\":4968:4983  requestList[id] */\n      dup2\n      mstore\n      0x20\n      add\n      swap1\n      dup2\n      mstore\n      0x20\n      add\n      0x00\n      keccak256\n        /* \"main_with_job.sol\":4968:4993  requestList[id].searchRes */\n      0x05\n      add\n        /* \"main_with_job.sol\":4994:4999  index */\n      dup3\n        /* \"main_with_job.sol\":4968:5000  requestList[id].searchRes[index] */\n      dup2\n      sload\n      dup2\n      lt\n      tag_161\n      jumpi\n      tag_162\n      tag_67\n      jump\t// in\n    tag_162:\n    tag_161:\n      swap1\n      0x00\n      mstore\n      keccak256(0x00, 0x20)\n      add\n      sload\n        /* \"main_with_job.sol\":4949:5000  uint256 node_res = requestList[id].searchRes[index] */\n      swap1\n      pop\n        /* \"main_with_job.sol\":5044:5052  node_res */\n      dup1\n        /* \"main_with_job.sol\":5033:5040  std_num */\n      dup5\n        /* \"main_with_job.sol\":5018:5030  final_result */\n      dup7\n        /* \"main_with_job.sol\":5018:5040  final_result - std_num */\n      tag_164\n      swap2\n      swap1\n      tag_103\n      jump\t// in\n    tag_164:\n        /* \"main_with_job.sol\":5018:5052  final_result - std_num >= node_res */\n      lt\n      iszero\n        /* \"main_with_job.sol\":5018:5090  final_result - std_num >= node_res || final_result + std_num <= node_res */\n      dup1\n      tag_165\n      jumpi\n      pop\n        /* \"main_with_job.sol\":5082:5090  node_res */\n      dup1\n        /* \"main_with_job.sol\":5071:5078  std_num */\n      dup5\n        /* \"main_with_job.sol\":5056:5068  final_result */\n      dup7\n        /* \"main_with_job.sol\":5056:5078  final_result + std_num */\n      tag_166\n      swap2\n      swap1\n      tag_87\n      jump\t// in\n    tag_166:\n        /* \"main_with_job.sol\":5056:5090  final_result + std_num <= node_res */\n      gt\n      iszero\n        /* \"main_with_job.sol\":5018:5090  final_result - std_num >= node_res || final_result + std_num <= node_res */\n    tag_165:\n        /* \"main_with_job.sol\":5014:5226  if (final_result - std_num >= node_res || final_result + std_num <= node_res) {... */\n      iszero\n      tag_167\n      jumpi\n        /* \"main_with_job.sol\":1117:1119  40 */\n      0x28\n        /* \"main_with_job.sol\":5142:5158  nodeStackBalance */\n      0x03\n        /* \"main_with_job.sol\":5142:5195  nodeStackBalance[requestList[id].oracles_list[index]] */\n      0x00\n        /* \"main_with_job.sol\":5159:5170  requestList */\n      0x04\n        /* \"main_with_job.sol\":5159:5174  requestList[id] */\n      0x00\n        /* \"main_with_job.sol\":5171:5173  id */\n      dup11\n        /* \"main_with_job.sol\":5159:5174  requestList[id] */\n      dup2\n      mstore\n      0x20\n      add\n      swap1\n      dup2\n      mstore\n      0x20\n      add\n      0x00\n      keccak256\n        /* \"main_with_job.sol\":5159:5187  requestList[id].oracles_list */\n      0x03\n      add\n        /* \"main_with_job.sol\":5188:5193  index */\n      dup6\n        /* \"main_with_job.sol\":5159:5194  requestList[id].oracles_list[index] */\n      dup2\n      sload\n      dup2\n      lt\n      tag_168\n      jumpi\n      tag_169\n      tag_67\n      jump\t// in\n    tag_169:\n    tag_168:\n      swap1\n      0x00\n      mstore\n      keccak256(0x00, 0x20)\n      add\n      0x00\n      swap1\n      sload\n      swap1\n      0x0100\n      exp\n      swap1\n      div\n      0xffffffffffffffffffffffffffffffffffffffff\n      and\n        /* \"main_with_job.sol\":5142:5195  nodeStackBalance[requestList[id].oracles_list[index]] */\n      0xffffffffffffffffffffffffffffffffffffffff\n      and\n      0xffffffffffffffffffffffffffffffffffffffff\n      and\n      dup2\n      mstore\n      0x20\n      add\n      swap1\n      dup2\n      mstore\n      0x20\n      add\n      0x00\n      keccak256\n      0x00\n        /* \"main_with_job.sol\":5142:5211  nodeStackBalance[requestList[id].oracles_list[index]] -= DEDUCE_PRICE */\n      dup3\n      dup3\n      sload\n      tag_171\n      swap2\n      swap1\n      tag_103\n      jump\t// in\n    tag_171:\n      swap3\n      pop\n      pop\n      dup2\n      swap1\n      sstore\n      pop\n        /* \"main_with_job.sol\":5014:5226  if (final_result - std_num >= node_res || final_result + std_num <= node_res) {... */\n    tag_167:\n        /* \"main_with_job.sol\":5328:5329  0 */\n      0x00\n        /* \"main_with_job.sol\":5271:5287  nodeStackBalance */\n      0x03\n        /* \"main_with_job.sol\":5271:5324  nodeStackBalance[requestList[id].oracles_list[index]] */\n      0x00\n        /* \"main_with_job.sol\":5288:5299  requestList */\n      0x04\n        /* \"main_with_job.sol\":5288:5303  requestList[id] */\n      0x00\n        /* \"main_with_job.sol\":5300:5302  id */\n      dup11\n        /* \"main_with_job.sol\":5288:5303  requestList[id] */\n      dup2\n      mstore\n      0x20\n      add\n      swap1\n      dup2\n      mstore\n      0x20\n      add\n      0x00\n      keccak256\n        /* \"main_with_job.sol\":5288:5316  requestList[id].oracles_list */\n      0x03\n      add\n        /* \"main_with_job.sol\":5317:5322  index */\n      dup6\n        /* \"main_with_job.sol\":5288:5323  requestList[id].oracles_list[index] */\n      dup2\n      sload\n      dup2\n      lt\n      tag_172\n      jumpi\n      tag_173\n      tag_67\n      jump\t// in\n    tag_173:\n    tag_172:\n      swap1\n      0x00\n      mstore\n      keccak256(0x00, 0x20)\n      add\n      0x00\n      swap1\n      sload\n      swap1\n      0x0100\n      exp\n      swap1\n      div\n      0xffffffffffffffffffffffffffffffffffffffff\n      and\n        /* \"main_with_job.sol\":5271:5324  nodeStackBalance[requestList[id].oracles_list[index]] */\n      0xffffffffffffffffffffffffffffffffffffffff\n      and\n      0xffffffffffffffffffffffffffffffffffffffff\n      and\n      dup2\n      mstore\n      0x20\n      add\n      swap1\n      dup2\n      mstore\n      0x20\n      add\n      0x00\n      keccak256\n      sload\n        /* \"main_with_job.sol\":5271:5329  nodeStackBalance[requestList[id].oracles_list[index]] <= 0 */\n      gt\n        /* \"main_with_job.sol\":5267:5663  if (nodeStackBalance[requestList[id].oracles_list[index]] <= 0) {... */\n      tag_175\n      jumpi\n        /* \"main_with_job.sol\":5349:5366  address node_name */\n      0x00\n        /* \"main_with_job.sol\":5369:5380  requestList */\n      0x04\n        /* \"main_with_job.sol\":5369:5384  requestList[id] */\n      0x00\n        /* \"main_with_job.sol\":5381:5383  id */\n      dup9\n        /* \"main_with_job.sol\":5369:5384  requestList[id] */\n      dup2\n      mstore\n      0x20\n      add\n      swap1\n      dup2\n      mstore\n      0x20\n      add\n      0x00\n      keccak256\n        /* \"main_with_job.sol\":5369:5397  requestList[id].oracles_list */\n      0x03\n      add\n        /* \"main_with_job.sol\":5398:5403  index */\n      dup4\n        /* \"main_with_job.sol\":5369:5404  requestList[id].oracles_list[index] */\n      dup2\n      sload\n      dup2\n      lt\n      tag_176\n      jumpi\n      tag_177\n      tag_67\n      jump\t// in\n    tag_177:\n    tag_176:\n      swap1\n      0x00\n      mstore\n      keccak256(0x00, 0x20)\n      add\n      0x00\n      swap1\n      sload\n      swap1\n      0x0100\n      exp\n      swap1\n      div\n      0xffffffffffffffffffffffffffffffffffffffff\n      and\n        /* \"main_with_job.sol\":5349:5404  address node_name = requestList[id].oracles_list[index] */\n      swap1\n      pop\n        /* \"main_with_job.sol\":5427:5436  uint256 j */\n      0x00\n        /* \"main_with_job.sol\":5439:5440  0 */\n      0x00\n        /* \"main_with_job.sol\":5427:5440  uint256 j = 0 */\n      swap1\n      pop\n        /* \"main_with_job.sol\":5422:5649  for (uint256 j = 0; j < oracleAddressList.length; j++) {... */\n    tag_179:\n        /* \"main_with_job.sol\":5446:5463  oracleAddressList */\n      0x01\n        /* \"main_with_job.sol\":5446:5470  oracleAddressList.length */\n      dup1\n      sload\n      swap1\n      pop\n        /* \"main_with_job.sol\":5442:5443  j */\n      dup2\n        /* \"main_with_job.sol\":5442:5470  j < oracleAddressList.length */\n      lt\n        /* \"main_with_job.sol\":5422:5649  for (uint256 j = 0; j < oracleAddressList.length; j++) {... */\n      iszero\n      tag_180\n      jumpi\n        /* \"main_with_job.sol\":5527:5536  node_name */\n      dup2\n        /* \"main_with_job.sol\":5503:5536  oracleAddressList[j] == node_name */\n      0xffffffffffffffffffffffffffffffffffffffff\n      and\n        /* \"main_with_job.sol\":5503:5520  oracleAddressList */\n      0x01\n        /* \"main_with_job.sol\":5521:5522  j */\n      dup3\n        /* \"main_with_job.sol\":5503:5523  oracleAddressList[j] */\n      dup2\n      sload\n      dup2\n      lt\n      tag_182\n      jumpi\n      tag_183\n      tag_67\n      jump\t// in\n    tag_183:\n    tag_182:\n      swap1\n      0x00\n      mstore\n      keccak256(0x00, 0x20)\n      add\n      0x00\n      swap1\n      sload\n      swap1\n      0x0100\n      exp\n      swap1\n      div\n      0xffffffffffffffffffffffffffffffffffffffff\n      and\n        /* \"main_with_job.sol\":5503:5536  oracleAddressList[j] == node_name */\n      0xffffffffffffffffffffffffffffffffffffffff\n      and\n      sub\n        /* \"main_with_job.sol\":5499:5631  if (oracleAddressList[j] == node_name) {... */\n      tag_185\n      jumpi\n        /* \"main_with_job.sol\":5564:5577  removeItem(j) */\n      tag_186\n        /* \"main_with_job.sol\":5575:5576  j */\n      dup2\n        /* \"main_with_job.sol\":5564:5574  removeItem */\n      tag_187\n        /* \"main_with_job.sol\":5564:5577  removeItem(j) */\n      jump\t// in\n    tag_186:\n      pop\n        /* \"main_with_job.sol\":5603:5608  break */\n      jump(tag_180)\n        /* \"main_with_job.sol\":5499:5631  if (oracleAddressList[j] == node_name) {... */\n    tag_185:\n        /* \"main_with_job.sol\":5472:5475  j++ */\n      dup1\n      dup1\n      0x01\n      add\n      swap2\n      pop\n      pop\n        /* \"main_with_job.sol\":5422:5649  for (uint256 j = 0; j < oracleAddressList.length; j++) {... */\n      jump(tag_179)\n    tag_180:\n      pop\n        /* \"main_with_job.sol\":5331:5663  {... */\n      pop\n        /* \"main_with_job.sol\":5267:5663  if (nodeStackBalance[requestList[id].oracles_list[index]] <= 0) {... */\n    tag_175:\n        /* \"main_with_job.sol\":4935:5673  {... */\n      pop\n        /* \"main_with_job.sol\":4926:4933  index++ */\n      dup1\n      dup1\n      0x01\n      add\n      swap2\n      pop\n      pop\n        /* \"main_with_job.sol\":4868:5673  for (uint256 index = 0; index < requestList[id].givenNum; index++) {... */\n      jump(tag_158)\n    tag_159:\n      pop\n        /* \"main_with_job.sol\":5689:5693  true */\n      0x01\n        /* \"main_with_job.sol\":5682:5693  return true */\n      swap1\n      pop\n        /* \"main_with_job.sol\":4728:5700  function evaluateNodePerf(... */\n      swap4\n      swap3\n      pop\n      pop\n      pop\n      jump\t// out\n        /* \"main_with_job.sol\":1689:2929  function calculateReqNode(jobType job_type) private view returns (address[] memory) {... */\n    tag_118:\n        /* \"main_with_job.sol\":1755:1771  address[] memory */\n      0x60\n        /* \"main_with_job.sol\":1783:1800  uint256 num_count */\n      0x00\n        /* \"main_with_job.sol\":1803:1804  0 */\n      0x00\n        /* \"main_with_job.sol\":1783:1804  uint256 num_count = 0 */\n      swap1\n      pop\n        /* \"main_with_job.sol\":1819:1832  uint256 index */\n      0x00\n        /* \"main_with_job.sol\":1835:1836  0 */\n      0x00\n        /* \"main_with_job.sol\":1819:1836  uint256 index = 0 */\n      swap1\n      pop\n        /* \"main_with_job.sol\":1814:2238  for (uint256 index = 0; index < oracleAddressList.length; index++) {... */\n    tag_189:\n        /* \"main_with_job.sol\":1846:1863  oracleAddressList */\n      0x01\n        /* \"main_with_job.sol\":1846:1870  oracleAddressList.length */\n      dup1\n      sload\n      swap1\n      pop\n        /* \"main_with_job.sol\":1838:1843  index */\n      dup2\n        /* \"main_with_job.sol\":1838:1870  index < oracleAddressList.length */\n      lt\n        /* \"main_with_job.sol\":1814:2238  for (uint256 index = 0; index < oracleAddressList.length; index++) {... */\n      iszero\n      tag_190\n      jumpi\n        /* \"main_with_job.sol\":1895:1914  address oracle_addr */\n      0x00\n        /* \"main_with_job.sol\":1917:1934  oracleAddressList */\n      0x01\n        /* \"main_with_job.sol\":1935:1940  index */\n      dup3\n        /* \"main_with_job.sol\":1917:1941  oracleAddressList[index] */\n      dup2\n      sload\n      dup2\n      lt\n      tag_192\n      jumpi\n      tag_193\n      tag_67\n      jump\t// in\n    tag_193:\n    tag_192:\n      swap1\n      0x00\n      mstore\n      keccak256(0x00, 0x20)\n      add\n      0x00\n      swap1\n      sload\n      swap1\n      0x0100\n      exp\n      swap1\n      div\n      0xffffffffffffffffffffffffffffffffffffffff\n      and\n        /* \"main_with_job.sol\":1895:1941  address oracle_addr = oracleAddressList[index] */\n      swap1\n      pop\n        /* \"main_with_job.sol\":1955:1985  jobType[] memory job_type_list */\n      0x00\n        /* \"main_with_job.sol\":1988:2005  oracleNodeJobType */\n      0x00\n        /* \"main_with_job.sol\":1988:2018  oracleNodeJobType[oracle_addr] */\n      0x00\n        /* \"main_with_job.sol\":2006:2017  oracle_addr */\n      dup4\n        /* \"main_with_job.sol\":1988:2018  oracleNodeJobType[oracle_addr] */\n      0xffffffffffffffffffffffffffffffffffffffff\n      and\n      0xffffffffffffffffffffffffffffffffffffffff\n      and\n      dup2\n      mstore\n      0x20\n      add\n      swap1\n      dup2\n      mstore\n      0x20\n      add\n      0x00\n      keccak256\n        /* \"main_with_job.sol\":1955:2018  jobType[] memory job_type_list = oracleNodeJobType[oracle_addr] */\n      dup1\n      sload\n      dup1\n      0x20\n      mul\n      0x20\n      add\n      mload(0x40)\n      swap1\n      dup2\n      add\n      0x40\n      mstore\n      dup1\n      swap3\n      swap2\n      swap1\n      dup2\n      dup2\n      mstore\n      0x20\n      add\n      dup3\n      dup1\n      sload\n      dup1\n      iszero\n      tag_195\n      jumpi\n      0x20\n      mul\n      dup3\n      add\n      swap2\n      swap1\n      0x00\n      mstore\n      keccak256(0x00, 0x20)\n      swap1\n      0x00\n      swap1\n    tag_196:\n      dup3\n      dup3\n      swap1\n      sload\n      swap1\n      0x0100\n      exp\n      swap1\n      div\n      0xff\n      and\n      0x02\n      dup2\n      gt\n      iszero\n      tag_197\n      jumpi\n      tag_198\n      tag_122\n      jump\t// in\n    tag_198:\n    tag_197:\n      dup2\n      mstore\n      0x20\n      add\n      swap1\n      0x01\n      add\n      swap1\n      0x20\n      dup3\n      0x00\n      add\n      div\n      swap3\n      dup4\n      add\n      swap3\n      0x01\n      sub\n      dup3\n      mul\n      swap2\n      pop\n      dup1\n      dup5\n      gt\n      tag_196\n      jumpi\n      swap1\n      pop\n    tag_195:\n      pop\n      pop\n      pop\n      pop\n      pop\n      swap1\n      pop\n        /* \"main_with_job.sol\":2037:2046  uint256 j */\n      0x00\n        /* \"main_with_job.sol\":2049:2050  0 */\n      0x00\n        /* \"main_with_job.sol\":2037:2050  uint256 j = 0 */\n      swap1\n      pop\n        /* \"main_with_job.sol\":2032:2228  for (uint256 j = 0; j < job_type_list.length; j++) {... */\n    tag_199:\n        /* \"main_with_job.sol\":2056:2069  job_type_list */\n      dup2\n        /* \"main_with_job.sol\":2056:2076  job_type_list.length */\n      mload\n        /* \"main_with_job.sol\":2052:2053  j */\n      dup2\n        /* \"main_with_job.sol\":2052:2076  j < job_type_list.length */\n      lt\n        /* \"main_with_job.sol\":2032:2228  for (uint256 j = 0; j < job_type_list.length; j++) {... */\n      iszero\n      tag_200\n      jumpi\n        /* \"main_with_job.sol\":2125:2133  job_type */\n      dup7\n        /* \"main_with_job.sol\":2105:2133  job_type_list[j] == job_type */\n      0x02\n      dup2\n      gt\n      iszero\n      tag_202\n      jumpi\n      tag_203\n      tag_122\n      jump\t// in\n    tag_203:\n    tag_202:\n        /* \"main_with_job.sol\":2105:2118  job_type_list */\n      dup3\n        /* \"main_with_job.sol\":2119:2120  j */\n      dup3\n        /* \"main_with_job.sol\":2105:2121  job_type_list[j] */\n      dup2\n      mload\n      dup2\n      lt\n      tag_204\n      jumpi\n      tag_205\n      tag_67\n      jump\t// in\n    tag_205:\n    tag_204:\n      0x20\n      mul\n      0x20\n      add\n      add\n      mload\n        /* \"main_with_job.sol\":2105:2133  job_type_list[j] == job_type */\n      0x02\n      dup2\n      gt\n      iszero\n      tag_206\n      jumpi\n      tag_207\n      tag_122\n      jump\t// in\n    tag_207:\n    tag_206:\n      sub\n        /* \"main_with_job.sol\":2101:2214  if (job_type_list[j] == job_type) {... */\n      tag_208\n      jumpi\n        /* \"main_with_job.sol\":2157:2168  num_count++ */\n      dup5\n      dup1\n      tag_209\n      swap1\n      tag_73\n      jump\t// in\n    tag_209:\n      swap6\n      pop\n      pop\n        /* \"main_with_job.sol\":2190:2195  break */\n      jump(tag_200)\n        /* \"main_with_job.sol\":2101:2214  if (job_type_list[j] == job_type) {... */\n    tag_208:\n        /* \"main_with_job.sol\":2078:2081  j++ */\n      dup1\n      dup1\n      0x01\n      add\n      swap2\n      pop\n      pop\n        /* \"main_with_job.sol\":2032:2228  for (uint256 j = 0; j < job_type_list.length; j++) {... */\n      jump(tag_199)\n    tag_200:\n      pop\n        /* \"main_with_job.sol\":1881:2238  {... */\n      pop\n      pop\n        /* \"main_with_job.sol\":1872:1879  index++ */\n      dup1\n      dup1\n      0x01\n      add\n      swap2\n      pop\n      pop\n        /* \"main_with_job.sol\":1814:2238  for (uint256 index = 0; index < oracleAddressList.length; index++) {... */\n      jump(tag_189)\n    tag_190:\n      pop\n        /* \"main_with_job.sol\":2248:2279  address[] memory node_addr_list */\n      0x00\n        /* \"main_with_job.sol\":2296:2305  num_count */\n      dup2\n        /* \"main_with_job.sol\":2282:2306  new address[](num_count) */\n      0xffffffffffffffff\n      dup2\n      gt\n      iszero\n      tag_210\n      jumpi\n      tag_211\n      tag_125\n      jump\t// in\n    tag_211:\n    tag_210:\n      mload(0x40)\n      swap1\n      dup1\n      dup3\n      mstore\n      dup1\n      0x20\n      mul\n      0x20\n      add\n      dup3\n      add\n      0x40\n      mstore\n      dup1\n      iszero\n      tag_212\n      jumpi\n      dup2\n      0x20\n      add\n      0x20\n      dup3\n      mul\n      dup1\n      calldatasize\n      dup4\n      calldatacopy\n      dup1\n      dup3\n      add\n      swap2\n      pop\n      pop\n      swap1\n      pop\n    tag_212:\n      pop\n        /* \"main_with_job.sol\":2248:2306  address[] memory node_addr_list = new address[](num_count) */\n      swap1\n      pop\n        /* \"main_with_job.sol\":2322:2335  uint256 index */\n      0x00\n        /* \"main_with_job.sol\":2338:2339  0 */\n      0x00\n        /* \"main_with_job.sol\":2322:2339  uint256 index = 0 */\n      swap1\n      pop\n        /* \"main_with_job.sol\":2317:2891  for (uint256 index = 0; index < oracleAddressList.length; index++) {... */\n    tag_213:\n        /* \"main_with_job.sol\":2349:2366  oracleAddressList */\n      0x01\n        /* \"main_with_job.sol\":2349:2373  oracleAddressList.length */\n      dup1\n      sload\n      swap1\n      pop\n        /* \"main_with_job.sol\":2341:2346  index */\n      dup2\n        /* \"main_with_job.sol\":2341:2373  index < oracleAddressList.length */\n      lt\n        /* \"main_with_job.sol\":2317:2891  for (uint256 index = 0; index < oracleAddressList.length; index++) {... */\n      iszero\n      tag_214\n      jumpi\n        /* \"main_with_job.sol\":2398:2417  address oracle_addr */\n      0x00\n        /* \"main_with_job.sol\":2420:2437  oracleAddressList */\n      0x01\n        /* \"main_with_job.sol\":2438:2443  index */\n      dup3\n        /* \"main_with_job.sol\":2420:2444  oracleAddressList[index] */\n      dup2\n      sload\n      dup2\n      lt\n      tag_216\n      jumpi\n      tag_217\n      tag_67\n      jump\t// in\n    tag_217:\n    tag_216:\n      swap1\n      0x00\n      mstore\n      keccak256(0x00, 0x20)\n      add\n      0x00\n      swap1\n      sload\n      swap1\n      0x0100\n      exp\n      swap1\n      div\n      0xffffffffffffffffffffffffffffffffffffffff\n      and\n        /* \"main_with_job.sol\":2398:2444  address oracle_addr = oracleAddressList[index] */\n      swap1\n      pop\n        /* \"main_with_job.sol\":2458:2488  jobType[] memory job_type_list */\n      0x00\n        /* \"main_with_job.sol\":2491:2508  oracleNodeJobType */\n      0x00\n        /* \"main_with_job.sol\":2491:2521  oracleNodeJobType[oracle_addr] */\n      0x00\n        /* \"main_with_job.sol\":2509:2520  oracle_addr */\n      dup4\n        /* \"main_with_job.sol\":2491:2521  oracleNodeJobType[oracle_addr] */\n      0xffffffffffffffffffffffffffffffffffffffff\n      and\n      0xffffffffffffffffffffffffffffffffffffffff\n      and\n      dup2\n      mstore\n      0x20\n      add\n      swap1\n      dup2\n      mstore\n      0x20\n      add\n      0x00\n      keccak256\n        /* \"main_with_job.sol\":2458:2521  jobType[] memory job_type_list = oracleNodeJobType[oracle_addr] */\n      dup1\n      sload\n      dup1\n      0x20\n      mul\n      0x20\n      add\n      mload(0x40)\n      swap1\n      dup2\n      add\n      0x40\n      mstore\n      dup1\n      swap3\n      swap2\n      swap1\n      dup2\n      dup2\n      mstore\n      0x20\n      add\n      dup3\n      dup1\n      sload\n      dup1\n      iszero\n      tag_219\n      jumpi\n      0x20\n      mul\n      dup3\n      add\n      swap2\n      swap1\n      0x00\n      mstore\n      keccak256(0x00, 0x20)\n      swap1\n      0x00\n      swap1\n    tag_220:\n      dup3\n      dup3\n      swap1\n      sload\n      swap1\n      0x0100\n      exp\n      swap1\n      div\n      0xff\n      and\n      0x02\n      dup2\n      gt\n      iszero\n      tag_221\n      jumpi\n      tag_222\n      tag_122\n      jump\t// in\n    tag_222:\n    tag_221:\n      dup2\n      mstore\n      0x20\n      add\n      swap1\n      0x01\n      add\n      swap1\n      0x20\n      dup3\n      0x00\n      add\n      div\n      swap3\n      dup4\n      add\n      swap3\n      0x01\n      sub\n      dup3\n      mul\n      swap2\n      pop\n      dup1\n      dup5\n      gt\n      tag_220\n      jumpi\n      swap1\n      pop\n    tag_219:\n      pop\n      pop\n      pop\n      pop\n      pop\n      swap1\n      pop\n        /* \"main_with_job.sol\":2535:2545  bool isJob */\n      0x00\n        /* \"main_with_job.sol\":2548:2553  false */\n      0x00\n        /* \"main_with_job.sol\":2535:2553  bool isJob = false */\n      swap1\n      pop\n        /* \"main_with_job.sol\":2572:2581  uint256 j */\n      0x00\n        /* \"main_with_job.sol\":2584:2585  0 */\n      0x00\n        /* \"main_with_job.sol\":2572:2585  uint256 j = 0 */\n      swap1\n      pop\n        /* \"main_with_job.sol\":2567:2764  for (uint256 j = 0; j < job_type_list.length; j++) {... */\n    tag_223:\n        /* \"main_with_job.sol\":2591:2604  job_type_list */\n      dup3\n        /* \"main_with_job.sol\":2591:2611  job_type_list.length */\n      mload\n        /* \"main_with_job.sol\":2587:2588  j */\n      dup2\n        /* \"main_with_job.sol\":2587:2611  j < job_type_list.length */\n      lt\n        /* \"main_with_job.sol\":2567:2764  for (uint256 j = 0; j < job_type_list.length; j++) {... */\n      iszero\n      tag_224\n      jumpi\n        /* \"main_with_job.sol\":2660:2668  job_type */\n      dup9\n        /* \"main_with_job.sol\":2640:2668  job_type_list[j] == job_type */\n      0x02\n      dup2\n      gt\n      iszero\n      tag_226\n      jumpi\n      tag_227\n      tag_122\n      jump\t// in\n    tag_227:\n    tag_226:\n        /* \"main_with_job.sol\":2640:2653  job_type_list */\n      dup4\n        /* \"main_with_job.sol\":2654:2655  j */\n      dup3\n        /* \"main_with_job.sol\":2640:2656  job_type_list[j] */\n      dup2\n      mload\n      dup2\n      lt\n      tag_228\n      jumpi\n      tag_229\n      tag_67\n      jump\t// in\n    tag_229:\n    tag_228:\n      0x20\n      mul\n      0x20\n      add\n      add\n      mload\n        /* \"main_with_job.sol\":2640:2668  job_type_list[j] == job_type */\n      0x02\n      dup2\n      gt\n      iszero\n      tag_230\n      jumpi\n      tag_231\n      tag_122\n      jump\t// in\n    tag_231:\n    tag_230:\n      sub\n        /* \"main_with_job.sol\":2636:2750  if (job_type_list[j] == job_type) {... */\n      tag_232\n      jumpi\n        /* \"main_with_job.sol\":2700:2704  true */\n      0x01\n        /* \"main_with_job.sol\":2692:2704  isJob = true */\n      swap2\n      pop\n        /* \"main_with_job.sol\":2726:2731  break */\n      jump(tag_224)\n        /* \"main_with_job.sol\":2636:2750  if (job_type_list[j] == job_type) {... */\n    tag_232:\n        /* \"main_with_job.sol\":2613:2616  j++ */\n      dup1\n      dup1\n      0x01\n      add\n      swap2\n      pop\n      pop\n        /* \"main_with_job.sol\":2567:2764  for (uint256 j = 0; j < job_type_list.length; j++) {... */\n      jump(tag_223)\n    tag_224:\n      pop\n        /* \"main_with_job.sol\":2781:2786  isJob */\n      dup1\n        /* \"main_with_job.sol\":2777:2881  if (isJob) {... */\n      iszero\n      tag_233\n      jumpi\n        /* \"main_with_job.sol\":2830:2841  oracle_addr */\n      dup3\n        /* \"main_with_job.sol\":2806:2820  node_addr_list */\n      dup6\n        /* \"main_with_job.sol\":2821:2826  index */\n      dup6\n        /* \"main_with_job.sol\":2806:2827  node_addr_list[index] */\n      dup2\n      mload\n      dup2\n      lt\n      tag_234\n      jumpi\n      tag_235\n      tag_67\n      jump\t// in\n    tag_235:\n    tag_234:\n      0x20\n      mul\n      0x20\n      add\n      add\n        /* \"main_with_job.sol\":2806:2841  node_addr_list[index] = oracle_addr */\n      swap1\n      0xffffffffffffffffffffffffffffffffffffffff\n      and\n      swap1\n      dup2\n      0xffffffffffffffffffffffffffffffffffffffff\n      and\n      dup2\n      mstore\n      pop\n      pop\n        /* \"main_with_job.sol\":2859:2866  index++ */\n      dup4\n      dup1\n      tag_236\n      swap1\n      tag_73\n      jump\t// in\n    tag_236:\n      swap5\n      pop\n      pop\n        /* \"main_with_job.sol\":2777:2881  if (isJob) {... */\n    tag_233:\n        /* \"main_with_job.sol\":2384:2891  {... */\n      pop\n      pop\n      pop\n        /* \"main_with_job.sol\":2375:2382  index++ */\n      dup1\n      dup1\n      tag_237\n      swap1\n      tag_73\n      jump\t// in\n    tag_237:\n      swap2\n      pop\n      pop\n        /* \"main_with_job.sol\":2317:2891  for (uint256 index = 0; index < oracleAddressList.length; index++) {... */\n      jump(tag_213)\n    tag_214:\n      pop\n        /* \"main_with_job.sol\":2908:2922  node_addr_list */\n      dup1\n        /* \"main_with_job.sol\":2901:2922  return node_addr_list */\n      swap3\n      pop\n      pop\n      pop\n        /* \"main_with_job.sol\":1689:2929  function calculateReqNode(jobType job_type) private view returns (address[] memory) {... */\n      swap2\n      swap1\n      pop\n      jump\t// out\n        /* \"main_with_job.sol\":4407:4684  function removeItem(uint256 index) private returns (bool) {... */\n    tag_187:\n        /* \"main_with_job.sol\":4459:4463  bool */\n      0x00\n        /* \"main_with_job.sol\":4491:4508  oracleAddressList */\n      0x01\n        /* \"main_with_job.sol\":4491:4515  oracleAddressList.length */\n      dup1\n      sload\n      swap1\n      pop\n        /* \"main_with_job.sol\":4483:4488  index */\n      dup3\n        /* \"main_with_job.sol\":4483:4515  index < oracleAddressList.length */\n      lt\n        /* \"main_with_job.sol\":4475:4539  require(index < oracleAddressList.length, \"index out of bounds\") */\n      tag_239\n      jumpi\n      mload(0x40)\n      0x08c379a000000000000000000000000000000000000000000000000000000000\n      dup2\n      mstore\n      0x04\n      add\n      tag_240\n      swap1\n      tag_241\n      jump\t// in\n    tag_240:\n      mload(0x40)\n      dup1\n      swap2\n      sub\n      swap1\n      revert\n    tag_239:\n        /* \"main_with_job.sol\":4576:4593  oracleAddressList */\n      0x01\n        /* \"main_with_job.sol\":4621:4622  1 */\n      dup1\n        /* \"main_with_job.sol\":4594:4611  oracleAddressList */\n      dup1\n        /* \"main_with_job.sol\":4594:4618  oracleAddressList.length */\n      dup1\n      sload\n      swap1\n      pop\n        /* \"main_with_job.sol\":4594:4622  oracleAddressList.length - 1 */\n      tag_242\n      swap2\n      swap1\n      tag_103\n      jump\t// in\n    tag_242:\n        /* \"main_with_job.sol\":4576:4623  oracleAddressList[oracleAddressList.length - 1] */\n      dup2\n      sload\n      dup2\n      lt\n      tag_243\n      jumpi\n      tag_244\n      tag_67\n      jump\t// in\n    tag_244:\n    tag_243:\n      swap1\n      0x00\n      mstore\n      keccak256(0x00, 0x20)\n      add\n      0x00\n      swap1\n      sload\n      swap1\n      0x0100\n      exp\n      swap1\n      div\n      0xffffffffffffffffffffffffffffffffffffffff\n      and\n        /* \"main_with_job.sol\":4549:4566  oracleAddressList */\n      0x01\n        /* \"main_with_job.sol\":4567:4572  index */\n      dup4\n        /* \"main_with_job.sol\":4549:4573  oracleAddressList[index] */\n      dup2\n      sload\n      dup2\n      lt\n      tag_246\n      jumpi\n      tag_247\n      tag_67\n      jump\t// in\n    tag_247:\n    tag_246:\n      swap1\n      0x00\n      mstore\n      keccak256(0x00, 0x20)\n      add\n      0x00\n        /* \"main_with_job.sol\":4549:4623  oracleAddressList[index] = oracleAddressList[oracleAddressList.length - 1] */\n      0x0100\n      exp\n      dup2\n      sload\n      dup2\n      0xffffffffffffffffffffffffffffffffffffffff\n      mul\n      not\n      and\n      swap1\n      dup4\n      0xffffffffffffffffffffffffffffffffffffffff\n      and\n      mul\n      or\n      swap1\n      sstore\n      pop\n        /* \"main_with_job.sol\":4633:4650  oracleAddressList */\n      0x01\n        /* \"main_with_job.sol\":4633:4656  oracleAddressList.pop() */\n      dup1\n      sload\n      dup1\n      tag_249\n      jumpi\n      tag_250\n      tag_251\n      jump\t// in\n    tag_250:\n    tag_249:\n      0x01\n      swap1\n      sub\n      dup2\n      dup2\n      swap1\n      0x00\n      mstore\n      keccak256(0x00, 0x20)\n      add\n      exp(0x0100, 0x00)\n      dup2\n      sload\n      swap1\n      0xffffffffffffffffffffffffffffffffffffffff\n      mul\n      not\n      and\n      swap1\n      sstore\n      swap1\n      sstore\n        /* \"main_with_job.sol\":4673:4677  true */\n      0x01\n        /* \"main_with_job.sol\":4666:4677  return true */\n      swap1\n      pop\n        /* \"main_with_job.sol\":4407:4684  function removeItem(uint256 index) private returns (bool) {... */\n      swap2\n      swap1\n      pop\n      jump\t// out\n    tag_135:\n      dup3\n      dup1\n      sload\n      dup3\n      dup3\n      sstore\n      swap1\n      0x00\n      mstore\n      keccak256(0x00, 0x20)\n      swap1\n      dup2\n      add\n      swap3\n      dup3\n      iszero\n      tag_253\n      jumpi\n      swap2\n      0x20\n      mul\n      dup3\n      add\n    tag_254:\n      dup3\n      dup2\n      gt\n      iszero\n      tag_255\n      jumpi\n      dup3\n      mload\n      dup3\n      exp(0x0100, 0x00)\n      dup2\n      sload\n      dup2\n      0xffffffffffffffffffffffffffffffffffffffff\n      mul\n      not\n      and\n      swap1\n      dup4\n      0xffffffffffffffffffffffffffffffffffffffff\n      and\n      mul\n      or\n      swap1\n      sstore\n      pop\n      swap2\n      0x20\n      add\n      swap2\n      swap1\n      0x01\n      add\n      swap1\n      jump(tag_254)\n    tag_255:\n    tag_253:\n      pop\n      swap1\n      pop\n      tag_256\n      swap2\n      swap1\n      tag_257\n      jump\t// in\n    tag_256:\n      pop\n      swap1\n      jump\t// out\n    tag_137:\n      dup3\n      dup1\n      sload\n      dup3\n      dup3\n      sstore\n      swap1\n      0x00\n      mstore\n      keccak256(0x00, 0x20)\n      swap1\n      dup2\n      add\n      swap3\n      dup3\n      iszero\n      tag_258\n      jumpi\n      swap2\n      0x20\n      mul\n      dup3\n      add\n    tag_259:\n      dup3\n      dup2\n      gt\n      iszero\n      tag_260\n      jumpi\n      dup3\n      mload\n      dup3\n      sstore\n      swap2\n      0x20\n      add\n      swap2\n      swap1\n      0x01\n      add\n      swap1\n      jump(tag_259)\n    tag_260:\n    tag_258:\n      pop\n      swap1\n      pop\n      tag_261\n      swap2\n      swap1\n      tag_257\n      jump\t// in\n    tag_261:\n      pop\n      swap1\n      jump\t// out\n    tag_145:\n      dup3\n      dup1\n      sload\n      dup3\n      dup3\n      sstore\n      swap1\n      0x00\n      mstore\n      keccak256(0x00, 0x20)\n      swap1\n      0x1f\n      add\n      0x20\n      swap1\n      div\n      dup2\n      add\n      swap3\n      dup3\n      iszero\n      tag_262\n      jumpi\n      swap2\n      0x20\n      mul\n      dup3\n      add\n      0x00\n    tag_263:\n      dup4\n      dup3\n      gt\n      iszero\n      tag_264\n      jumpi\n      dup4\n      mload\n      dup4\n      dup3\n      0x0100\n      exp\n      dup2\n      sload\n      dup2\n      0xff\n      mul\n      not\n      and\n      swap1\n      dup4\n      0x02\n      dup2\n      gt\n      iszero\n      tag_265\n      jumpi\n      tag_266\n      tag_122\n      jump\t// in\n    tag_266:\n    tag_265:\n      mul\n      or\n      swap1\n      sstore\n      pop\n      swap3\n      0x20\n      add\n      swap3\n      0x01\n      add\n      0x20\n      dup2\n      0x00\n      add\n      div\n      swap3\n      dup4\n      add\n      swap3\n      0x01\n      sub\n      mul\n      jump(tag_263)\n    tag_264:\n      dup1\n      iszero\n      tag_267\n      jumpi\n      dup3\n      dup2\n      0x0100\n      exp\n      dup2\n      sload\n      swap1\n      0xff\n      mul\n      not\n      and\n      swap1\n      sstore\n      0x01\n      add\n      0x20\n      dup2\n      0x00\n      add\n      div\n      swap3\n      dup4\n      add\n      swap3\n      0x01\n      sub\n      mul\n      jump(tag_264)\n    tag_267:\n      pop\n    tag_262:\n      pop\n      swap1\n      pop\n      tag_268\n      swap2\n      swap1\n      tag_257\n      jump\t// in\n    tag_268:\n      pop\n      swap1\n      jump\t// out\n    tag_257:\n    tag_269:\n      dup1\n      dup3\n      gt\n      iszero\n      tag_270\n      jumpi\n      0x00\n      dup2\n      0x00\n      swap1\n      sstore\n      pop\n      0x01\n      add\n      jump(tag_269)\n    tag_270:\n      pop\n      swap1\n      jump\t// out\n        /* \"#utility.yul\":7:84   */\n    tag_271:\n        /* \"#utility.yul\":44:51   */\n      0x00\n        /* \"#utility.yul\":73:78   */\n      dup2\n        /* \"#utility.yul\":62:78   */\n      swap1\n      pop\n        /* \"#utility.yul\":7:84   */\n      swap2\n      swap1\n      pop\n      jump\t// out\n        /* \"#utility.yul\":90:208   */\n    tag_272:\n        /* \"#utility.yul\":177:201   */\n      tag_347\n        /* \"#utility.yul\":195:200   */\n      dup2\n        /* \"#utility.yul\":177:201   */\n      tag_271\n      jump\t// in\n    tag_347:\n        /* \"#utility.yul\":172:175   */\n      dup3\n        /* \"#utility.yul\":165:202   */\n      mstore\n        /* \"#utility.yul\":90:208   */\n      pop\n      pop\n      jump\t// out\n        /* \"#utility.yul\":214:436   */\n    tag_17:\n        /* \"#utility.yul\":307:311   */\n      0x00\n        /* \"#utility.yul\":345:347   */\n      0x20\n        /* \"#utility.yul\":334:343   */\n      dup3\n        /* \"#utility.yul\":330:348   */\n      add\n        /* \"#utility.yul\":322:348   */\n      swap1\n      pop\n        /* \"#utility.yul\":358:429   */\n      tag_349\n        /* \"#utility.yul\":426:427   */\n      0x00\n        /* \"#utility.yul\":415:424   */\n      dup4\n        /* \"#utility.yul\":411:428   */\n      add\n        /* \"#utility.yul\":402:408   */\n      dup5\n        /* \"#utility.yul\":358:429   */\n      tag_272\n      jump\t// in\n    tag_349:\n        /* \"#utility.yul\":214:436   */\n      swap3\n      swap2\n      pop\n      pop\n      jump\t// out\n        /* \"#utility.yul\":442:517   */\n    tag_273:\n        /* \"#utility.yul\":475:481   */\n      0x00\n        /* \"#utility.yul\":508:510   */\n      0x40\n        /* \"#utility.yul\":502:511   */\n      mload\n        /* \"#utility.yul\":492:511   */\n      swap1\n      pop\n        /* \"#utility.yul\":442:517   */\n      swap1\n      jump\t// out\n        /* \"#utility.yul\":523:640   */\n    tag_274:\n        /* \"#utility.yul\":632:633   */\n      0x00\n        /* \"#utility.yul\":629:630   */\n      0x00\n        /* \"#utility.yul\":622:634   */\n      revert\n        /* \"#utility.yul\":646:763   */\n    tag_275:\n        /* \"#utility.yul\":755:756   */\n      0x00\n        /* \"#utility.yul\":752:753   */\n      0x00\n        /* \"#utility.yul\":745:757   */\n      revert\n        /* \"#utility.yul\":769:891   */\n    tag_276:\n        /* \"#utility.yul\":842:866   */\n      tag_354\n        /* \"#utility.yul\":860:865   */\n      dup2\n        /* \"#utility.yul\":842:866   */\n      tag_271\n      jump\t// in\n    tag_354:\n        /* \"#utility.yul\":835:840   */\n      dup2\n        /* \"#utility.yul\":832:867   */\n      eq\n        /* \"#utility.yul\":822:885   */\n      tag_355\n      jumpi\n        /* \"#utility.yul\":881:882   */\n      0x00\n        /* \"#utility.yul\":878:879   */\n      0x00\n        /* \"#utility.yul\":871:883   */\n      revert\n        /* \"#utility.yul\":822:885   */\n    tag_355:\n        /* \"#utility.yul\":769:891   */\n      pop\n      jump\t// out\n        /* \"#utility.yul\":897:1036   */\n    tag_277:\n        /* \"#utility.yul\":943:948   */\n      0x00\n        /* \"#utility.yul\":981:987   */\n      dup2\n        /* \"#utility.yul\":968:988   */\n      calldataload\n        /* \"#utility.yul\":959:988   */\n      swap1\n      pop\n        /* \"#utility.yul\":997:1030   */\n      tag_357\n        /* \"#utility.yul\":1024:1029   */\n      dup2\n        /* \"#utility.yul\":997:1030   */\n      tag_276\n      jump\t// in\n    tag_357:\n        /* \"#utility.yul\":897:1036   */\n      swap3\n      swap2\n      pop\n      pop\n      jump\t// out\n        /* \"#utility.yul\":1042:1516   */\n    tag_20:\n        /* \"#utility.yul\":1110:1116   */\n      0x00\n        /* \"#utility.yul\":1118:1124   */\n      0x00\n        /* \"#utility.yul\":1167:1169   */\n      0x40\n        /* \"#utility.yul\":1155:1164   */\n      dup4\n        /* \"#utility.yul\":1146:1153   */\n      dup6\n        /* \"#utility.yul\":1142:1165   */\n      sub\n        /* \"#utility.yul\":1138:1170   */\n      slt\n        /* \"#utility.yul\":1135:1254   */\n      iszero\n      tag_359\n      jumpi\n        /* \"#utility.yul\":1173:1252   */\n      tag_360\n      tag_274\n      jump\t// in\n    tag_360:\n        /* \"#utility.yul\":1135:1254   */\n    tag_359:\n        /* \"#utility.yul\":1293:1294   */\n      0x00\n        /* \"#utility.yul\":1318:1371   */\n      tag_361\n        /* \"#utility.yul\":1363:1370   */\n      dup6\n        /* \"#utility.yul\":1354:1360   */\n      dup3\n        /* \"#utility.yul\":1343:1352   */\n      dup7\n        /* \"#utility.yul\":1339:1361   */\n      add\n        /* \"#utility.yul\":1318:1371   */\n      tag_277\n      jump\t// in\n    tag_361:\n        /* \"#utility.yul\":1308:1371   */\n      swap3\n      pop\n        /* \"#utility.yul\":1264:1381   */\n      pop\n        /* \"#utility.yul\":1420:1422   */\n      0x20\n        /* \"#utility.yul\":1446:1499   */\n      tag_362\n        /* \"#utility.yul\":1491:1498   */\n      dup6\n        /* \"#utility.yul\":1482:1488   */\n      dup3\n        /* \"#utility.yul\":1471:1480   */\n      dup7\n        /* \"#utility.yul\":1467:1489   */\n      add\n        /* \"#utility.yul\":1446:1499   */\n      tag_277\n      jump\t// in\n    tag_362:\n        /* \"#utility.yul\":1436:1499   */\n      swap2\n      pop\n        /* \"#utility.yul\":1391:1509   */\n      pop\n        /* \"#utility.yul\":1042:1516   */\n      swap3\n      pop\n      swap3\n      swap1\n      pop\n      jump\t// out\n        /* \"#utility.yul\":1522:1612   */\n    tag_278:\n        /* \"#utility.yul\":1556:1563   */\n      0x00\n        /* \"#utility.yul\":1599:1604   */\n      dup2\n        /* \"#utility.yul\":1592:1605   */\n      iszero\n        /* \"#utility.yul\":1585:1606   */\n      iszero\n        /* \"#utility.yul\":1574:1606   */\n      swap1\n      pop\n        /* \"#utility.yul\":1522:1612   */\n      swap2\n      swap1\n      pop\n      jump\t// out\n        /* \"#utility.yul\":1618:1727   */\n    tag_279:\n        /* \"#utility.yul\":1699:1720   */\n      tag_365\n        /* \"#utility.yul\":1714:1719   */\n      dup2\n        /* \"#utility.yul\":1699:1720   */\n      tag_278\n      jump\t// in\n    tag_365:\n        /* \"#utility.yul\":1694:1697   */\n      dup3\n        /* \"#utility.yul\":1687:1721   */\n      mstore\n        /* \"#utility.yul\":1618:1727   */\n      pop\n      pop\n      jump\t// out\n        /* \"#utility.yul\":1733:2053   */\n    tag_23:\n        /* \"#utility.yul\":1848:1852   */\n      0x00\n        /* \"#utility.yul\":1886:1888   */\n      0x40\n        /* \"#utility.yul\":1875:1884   */\n      dup3\n        /* \"#utility.yul\":1871:1889   */\n      add\n        /* \"#utility.yul\":1863:1889   */\n      swap1\n      pop\n        /* \"#utility.yul\":1899:1970   */\n      tag_367\n        /* \"#utility.yul\":1967:1968   */\n      0x00\n        /* \"#utility.yul\":1956:1965   */\n      dup4\n        /* \"#utility.yul\":1952:1969   */\n      add\n        /* \"#utility.yul\":1943:1949   */\n      dup6\n        /* \"#utility.yul\":1899:1970   */\n      tag_272\n      jump\t// in\n    tag_367:\n        /* \"#utility.yul\":1980:2046   */\n      tag_368\n        /* \"#utility.yul\":2042:2044   */\n      0x20\n        /* \"#utility.yul\":2031:2040   */\n      dup4\n        /* \"#utility.yul\":2027:2045   */\n      add\n        /* \"#utility.yul\":2018:2024   */\n      dup5\n        /* \"#utility.yul\":1980:2046   */\n      tag_279\n      jump\t// in\n    tag_368:\n        /* \"#utility.yul\":1733:2053   */\n      swap4\n      swap3\n      pop\n      pop\n      pop\n      jump\t// out\n        /* \"#utility.yul\":2059:2185   */\n    tag_280:\n        /* \"#utility.yul\":2096:2103   */\n      0x00\n        /* \"#utility.yul\":2136:2178   */\n      0xffffffffffffffffffffffffffffffffffffffff\n        /* \"#utility.yul\":2129:2134   */\n      dup3\n        /* \"#utility.yul\":2125:2179   */\n      and\n        /* \"#utility.yul\":2114:2179   */\n      swap1\n      pop\n        /* \"#utility.yul\":2059:2185   */\n      swap2\n      swap1\n      pop\n      jump\t// out\n        /* \"#utility.yul\":2191:2287   */\n    tag_281:\n        /* \"#utility.yul\":2228:2235   */\n      0x00\n        /* \"#utility.yul\":2257:2281   */\n      tag_371\n        /* \"#utility.yul\":2275:2280   */\n      dup3\n        /* \"#utility.yul\":2257:2281   */\n      tag_280\n      jump\t// in\n    tag_371:\n        /* \"#utility.yul\":2246:2281   */\n      swap1\n      pop\n        /* \"#utility.yul\":2191:2287   */\n      swap2\n      swap1\n      pop\n      jump\t// out\n        /* \"#utility.yul\":2293:2415   */\n    tag_282:\n        /* \"#utility.yul\":2366:2390   */\n      tag_373\n        /* \"#utility.yul\":2384:2389   */\n      dup2\n        /* \"#utility.yul\":2366:2390   */\n      tag_281\n      jump\t// in\n    tag_373:\n        /* \"#utility.yul\":2359:2364   */\n      dup2\n        /* \"#utility.yul\":2356:2391   */\n      eq\n        /* \"#utility.yul\":2346:2409   */\n      tag_374\n      jumpi\n        /* \"#utility.yul\":2405:2406   */\n      0x00\n        /* \"#utility.yul\":2402:2403   */\n      0x00\n        /* \"#utility.yul\":2395:2407   */\n      revert\n        /* \"#utility.yul\":2346:2409   */\n    tag_374:\n        /* \"#utility.yul\":2293:2415   */\n      pop\n      jump\t// out\n        /* \"#utility.yul\":2421:2560   */\n    tag_283:\n        /* \"#utility.yul\":2467:2472   */\n      0x00\n        /* \"#utility.yul\":2505:2511   */\n      dup2\n        /* \"#utility.yul\":2492:2512   */\n      calldataload\n        /* \"#utility.yul\":2483:2512   */\n      swap1\n      pop\n        /* \"#utility.yul\":2521:2554   */\n      tag_376\n        /* \"#utility.yul\":2548:2553   */\n      dup2\n        /* \"#utility.yul\":2521:2554   */\n      tag_282\n      jump\t// in\n    tag_376:\n        /* \"#utility.yul\":2421:2560   */\n      swap3\n      swap2\n      pop\n      pop\n      jump\t// out\n        /* \"#utility.yul\":2566:3040   */\n    tag_26:\n        /* \"#utility.yul\":2634:2640   */\n      0x00\n        /* \"#utility.yul\":2642:2648   */\n      0x00\n        /* \"#utility.yul\":2691:2693   */\n      0x40\n        /* \"#utility.yul\":2679:2688   */\n      dup4\n        /* \"#utility.yul\":2670:2677   */\n      dup6\n        /* \"#utility.yul\":2666:2689   */\n      sub\n        /* \"#utility.yul\":2662:2694   */\n      slt\n        /* \"#utility.yul\":2659:2778   */\n      iszero\n      tag_378\n      jumpi\n        /* \"#utility.yul\":2697:2776   */\n      tag_379\n      tag_274\n      jump\t// in\n    tag_379:\n        /* \"#utility.yul\":2659:2778   */\n    tag_378:\n        /* \"#utility.yul\":2817:2818   */\n      0x00\n        /* \"#utility.yul\":2842:2895   */\n      tag_380\n        /* \"#utility.yul\":2887:2894   */\n      dup6\n        /* \"#utility.yul\":2878:2884   */\n      dup3\n        /* \"#utility.yul\":2867:2876   */\n      dup7\n        /* \"#utility.yul\":2863:2885   */\n      add\n        /* \"#utility.yul\":2842:2895   */\n      tag_283\n      jump\t// in\n    tag_380:\n        /* \"#utility.yul\":2832:2895   */\n      swap3\n      pop\n        /* \"#utility.yul\":2788:2905   */\n      pop\n        /* \"#utility.yul\":2944:2946   */\n      0x20\n        /* \"#utility.yul\":2970:3023   */\n      tag_381\n        /* \"#utility.yul\":3015:3022   */\n      dup6\n        /* \"#utility.yul\":3006:3012   */\n      dup3\n        /* \"#utility.yul\":2995:3004   */\n      dup7\n        /* \"#utility.yul\":2991:3013   */\n      add\n        /* \"#utility.yul\":2970:3023   */\n      tag_277\n      jump\t// in\n    tag_381:\n        /* \"#utility.yul\":2960:3023   */\n      swap2\n      pop\n        /* \"#utility.yul\":2915:3033   */\n      pop\n        /* \"#utility.yul\":2566:3040   */\n      swap3\n      pop\n      swap3\n      swap1\n      pop\n      jump\t// out\n        /* \"#utility.yul\":3046:3226   */\n    tag_122:\n        /* \"#utility.yul\":3094:3171   */\n      0x4e487b7100000000000000000000000000000000000000000000000000000000\n        /* \"#utility.yul\":3091:3092   */\n      0x00\n        /* \"#utility.yul\":3084:3172   */\n      mstore\n        /* \"#utility.yul\":3191:3195   */\n      0x21\n        /* \"#utility.yul\":3188:3189   */\n      0x04\n        /* \"#utility.yul\":3181:3196   */\n      mstore\n        /* \"#utility.yul\":3215:3219   */\n      0x24\n        /* \"#utility.yul\":3212:3213   */\n      0x00\n        /* \"#utility.yul\":3205:3220   */\n      revert\n        /* \"#utility.yul\":3232:3347   */\n    tag_284:\n        /* \"#utility.yul\":3315:3316   */\n      0x03\n        /* \"#utility.yul\":3308:3313   */\n      dup2\n        /* \"#utility.yul\":3305:3317   */\n      lt\n        /* \"#utility.yul\":3295:3341   */\n      tag_384\n      jumpi\n        /* \"#utility.yul\":3321:3339   */\n      tag_385\n      tag_122\n      jump\t// in\n    tag_385:\n        /* \"#utility.yul\":3295:3341   */\n    tag_384:\n        /* \"#utility.yul\":3232:3347   */\n      pop\n      jump\t// out\n        /* \"#utility.yul\":3353:3484   */\n    tag_285:\n        /* \"#utility.yul\":3400:3407   */\n      0x00\n        /* \"#utility.yul\":3429:3434   */\n      dup2\n        /* \"#utility.yul\":3418:3434   */\n      swap1\n      pop\n        /* \"#utility.yul\":3435:3478   */\n      tag_387\n        /* \"#utility.yul\":3472:3477   */\n      dup3\n        /* \"#utility.yul\":3435:3478   */\n      tag_284\n      jump\t// in\n    tag_387:\n        /* \"#utility.yul\":3353:3484   */\n      swap2\n      swap1\n      pop\n      jump\t// out\n        /* \"#utility.yul\":3490:3621   */\n    tag_286:\n        /* \"#utility.yul\":3548:3557   */\n      0x00\n        /* \"#utility.yul\":3581:3615   */\n      tag_389\n        /* \"#utility.yul\":3609:3614   */\n      dup3\n        /* \"#utility.yul\":3581:3615   */\n      tag_285\n      jump\t// in\n    tag_389:\n        /* \"#utility.yul\":3568:3615   */\n      swap1\n      pop\n        /* \"#utility.yul\":3490:3621   */\n      swap2\n      swap1\n      pop\n      jump\t// out\n        /* \"#utility.yul\":3627:3774   */\n    tag_287:\n        /* \"#utility.yul\":3722:3767   */\n      tag_391\n        /* \"#utility.yul\":3761:3766   */\n      dup2\n        /* \"#utility.yul\":3722:3767   */\n      tag_286\n      jump\t// in\n    tag_391:\n        /* \"#utility.yul\":3717:3720   */\n      dup3\n        /* \"#utility.yul\":3710:3768   */\n      mstore\n        /* \"#utility.yul\":3627:3774   */\n      pop\n      pop\n      jump\t// out\n        /* \"#utility.yul\":3780:4018   */\n    tag_29:\n        /* \"#utility.yul\":3881:3885   */\n      0x00\n        /* \"#utility.yul\":3919:3921   */\n      0x20\n        /* \"#utility.yul\":3908:3917   */\n      dup3\n        /* \"#utility.yul\":3904:3922   */\n      add\n        /* \"#utility.yul\":3896:3922   */\n      swap1\n      pop\n        /* \"#utility.yul\":3932:4011   */\n      tag_393\n        /* \"#utility.yul\":4008:4009   */\n      0x00\n        /* \"#utility.yul\":3997:4006   */\n      dup4\n        /* \"#utility.yul\":3993:4010   */\n      add\n        /* \"#utility.yul\":3984:3990   */\n      dup5\n        /* \"#utility.yul\":3932:4011   */\n      tag_287\n      jump\t// in\n    tag_393:\n        /* \"#utility.yul\":3780:4018   */\n      swap3\n      swap2\n      pop\n      pop\n      jump\t// out\n        /* \"#utility.yul\":4024:4141   */\n    tag_288:\n        /* \"#utility.yul\":4133:4134   */\n      0x00\n        /* \"#utility.yul\":4130:4131   */\n      0x00\n        /* \"#utility.yul\":4123:4135   */\n      revert\n        /* \"#utility.yul\":4147:4264   */\n    tag_289:\n        /* \"#utility.yul\":4256:4257   */\n      0x00\n        /* \"#utility.yul\":4253:4254   */\n      0x00\n        /* \"#utility.yul\":4246:4258   */\n      revert\n        /* \"#utility.yul\":4270:4372   */\n    tag_290:\n        /* \"#utility.yul\":4311:4317   */\n      0x00\n        /* \"#utility.yul\":4362:4364   */\n      0x1f\n        /* \"#utility.yul\":4358:4365   */\n      not\n        /* \"#utility.yul\":4353:4355   */\n      0x1f\n        /* \"#utility.yul\":4346:4351   */\n      dup4\n        /* \"#utility.yul\":4342:4356   */\n      add\n        /* \"#utility.yul\":4338:4366   */\n      and\n        /* \"#utility.yul\":4328:4366   */\n      swap1\n      pop\n        /* \"#utility.yul\":4270:4372   */\n      swap2\n      swap1\n      pop\n      jump\t// out\n        /* \"#utility.yul\":4378:4558   */\n    tag_125:\n        /* \"#utility.yul\":4426:4503   */\n      0x4e487b7100000000000000000000000000000000000000000000000000000000\n        /* \"#utility.yul\":4423:4424   */\n      0x00\n        /* \"#utility.yul\":4416:4504   */\n      mstore\n        /* \"#utility.yul\":4523:4527   */\n      0x41\n        /* \"#utility.yul\":4520:4521   */\n      0x04\n        /* \"#utility.yul\":4513:4528   */\n      mstore\n        /* \"#utility.yul\":4547:4551   */\n      0x24\n        /* \"#utility.yul\":4544:4545   */\n      0x00\n        /* \"#utility.yul\":4537:4552   */\n      revert\n        /* \"#utility.yul\":4564:4845   */\n    tag_291:\n        /* \"#utility.yul\":4647:4674   */\n      tag_399\n        /* \"#utility.yul\":4669:4673   */\n      dup3\n        /* \"#utility.yul\":4647:4674   */\n      tag_290\n      jump\t// in\n    tag_399:\n        /* \"#utility.yul\":4639:4645   */\n      dup2\n        /* \"#utility.yul\":4635:4675   */\n      add\n        /* \"#utility.yul\":4777:4783   */\n      dup2\n        /* \"#utility.yul\":4765:4775   */\n      dup2\n        /* \"#utility.yul\":4762:4784   */\n      lt\n        /* \"#utility.yul\":4741:4759   */\n      0xffffffffffffffff\n        /* \"#utility.yul\":4729:4739   */\n      dup3\n        /* \"#utility.yul\":4726:4760   */\n      gt\n        /* \"#utility.yul\":4723:4785   */\n      or\n        /* \"#utility.yul\":4720:4808   */\n      iszero\n      tag_400\n      jumpi\n        /* \"#utility.yul\":4788:4806   */\n      tag_401\n      tag_125\n      jump\t// in\n    tag_401:\n        /* \"#utility.yul\":4720:4808   */\n    tag_400:\n        /* \"#utility.yul\":4828:4838   */\n      dup1\n        /* \"#utility.yul\":4824:4826   */\n      0x40\n        /* \"#utility.yul\":4817:4839   */\n      mstore\n        /* \"#utility.yul\":4607:4845   */\n      pop\n        /* \"#utility.yul\":4564:4845   */\n      pop\n      pop\n      jump\t// out\n        /* \"#utility.yul\":4851:4980   */\n    tag_292:\n        /* \"#utility.yul\":4885:4891   */\n      0x00\n        /* \"#utility.yul\":4912:4932   */\n      tag_403\n      tag_273\n      jump\t// in\n    tag_403:\n        /* \"#utility.yul\":4902:4932   */\n      swap1\n      pop\n        /* \"#utility.yul\":4941:4974   */\n      tag_404\n        /* \"#utility.yul\":4969:4973   */\n      dup3\n        /* \"#utility.yul\":4961:4967   */\n      dup3\n        /* \"#utility.yul\":4941:4974   */\n      tag_291\n      jump\t// in\n    tag_404:\n        /* \"#utility.yul\":4851:4980   */\n      swap2\n      swap1\n      pop\n      jump\t// out\n        /* \"#utility.yul\":4986:5294   */\n    tag_293:\n        /* \"#utility.yul\":5048:5052   */\n      0x00\n        /* \"#utility.yul\":5138:5156   */\n      0xffffffffffffffff\n        /* \"#utility.yul\":5130:5136   */\n      dup3\n        /* \"#utility.yul\":5127:5157   */\n      gt\n        /* \"#utility.yul\":5124:5180   */\n      iszero\n      tag_406\n      jumpi\n        /* \"#utility.yul\":5160:5178   */\n      tag_407\n      tag_125\n      jump\t// in\n    tag_407:\n        /* \"#utility.yul\":5124:5180   */\n    tag_406:\n        /* \"#utility.yul\":5198:5227   */\n      tag_408\n        /* \"#utility.yul\":5220:5226   */\n      dup3\n        /* \"#utility.yul\":5198:5227   */\n      tag_290\n      jump\t// in\n    tag_408:\n        /* \"#utility.yul\":5190:5227   */\n      swap1\n      pop\n        /* \"#utility.yul\":5282:5286   */\n      0x20\n        /* \"#utility.yul\":5276:5280   */\n      dup2\n        /* \"#utility.yul\":5272:5287   */\n      add\n        /* \"#utility.yul\":5264:5287   */\n      swap1\n      pop\n        /* \"#utility.yul\":4986:5294   */\n      swap2\n      swap1\n      pop\n      jump\t// out\n        /* \"#utility.yul\":5300:5448   */\n    tag_294:\n        /* \"#utility.yul\":5398:5404   */\n      dup3\n        /* \"#utility.yul\":5393:5396   */\n      dup2\n        /* \"#utility.yul\":5388:5391   */\n      dup4\n        /* \"#utility.yul\":5375:5405   */\n      calldatacopy\n        /* \"#utility.yul\":5439:5440   */\n      0x00\n        /* \"#utility.yul\":5430:5436   */\n      dup4\n        /* \"#utility.yul\":5425:5428   */\n      dup4\n        /* \"#utility.yul\":5421:5437   */\n      add\n        /* \"#utility.yul\":5414:5441   */\n      mstore\n        /* \"#utility.yul\":5300:5448   */\n      pop\n      pop\n      pop\n      jump\t// out\n        /* \"#utility.yul\":5454:5879   */\n    tag_295:\n        /* \"#utility.yul\":5532:5537   */\n      0x00\n        /* \"#utility.yul\":5557:5623   */\n      tag_411\n        /* \"#utility.yul\":5573:5622   */\n      tag_412\n        /* \"#utility.yul\":5615:5621   */\n      dup5\n        /* \"#utility.yul\":5573:5622   */\n      tag_293\n      jump\t// in\n    tag_412:\n        /* \"#utility.yul\":5557:5623   */\n      tag_292\n      jump\t// in\n    tag_411:\n        /* \"#utility.yul\":5548:5623   */\n      swap1\n      pop\n        /* \"#utility.yul\":5646:5652   */\n      dup3\n        /* \"#utility.yul\":5639:5644   */\n      dup2\n        /* \"#utility.yul\":5632:5653   */\n      mstore\n        /* \"#utility.yul\":5684:5688   */\n      0x20\n        /* \"#utility.yul\":5677:5682   */\n      dup2\n        /* \"#utility.yul\":5673:5689   */\n      add\n        /* \"#utility.yul\":5722:5725   */\n      dup5\n        /* \"#utility.yul\":5713:5719   */\n      dup5\n        /* \"#utility.yul\":5708:5711   */\n      dup5\n        /* \"#utility.yul\":5704:5720   */\n      add\n        /* \"#utility.yul\":5701:5726   */\n      gt\n        /* \"#utility.yul\":5698:5810   */\n      iszero\n      tag_413\n      jumpi\n        /* \"#utility.yul\":5729:5808   */\n      tag_414\n      tag_289\n      jump\t// in\n    tag_414:\n        /* \"#utility.yul\":5698:5810   */\n    tag_413:\n        /* \"#utility.yul\":5819:5873   */\n      tag_415\n        /* \"#utility.yul\":5866:5872   */\n      dup5\n        /* \"#utility.yul\":5861:5864   */\n      dup3\n        /* \"#utility.yul\":5856:5859   */\n      dup6\n        /* \"#utility.yul\":5819:5873   */\n      tag_294\n      jump\t// in\n    tag_415:\n        /* \"#utility.yul\":5538:5879   */\n      pop\n        /* \"#utility.yul\":5454:5879   */\n      swap4\n      swap3\n      pop\n      pop\n      pop\n      jump\t// out\n        /* \"#utility.yul\":5899:6239   */\n    tag_296:\n        /* \"#utility.yul\":5955:5960   */\n      0x00\n        /* \"#utility.yul\":6004:6007   */\n      dup3\n        /* \"#utility.yul\":5997:6001   */\n      0x1f\n        /* \"#utility.yul\":5989:5995   */\n      dup4\n        /* \"#utility.yul\":5985:6002   */\n      add\n        /* \"#utility.yul\":5981:6008   */\n      slt\n        /* \"#utility.yul\":5971:6093   */\n      tag_417\n      jumpi\n        /* \"#utility.yul\":6012:6091   */\n      tag_418\n      tag_288\n      jump\t// in\n    tag_418:\n        /* \"#utility.yul\":5971:6093   */\n    tag_417:\n        /* \"#utility.yul\":6129:6135   */\n      dup2\n        /* \"#utility.yul\":6116:6136   */\n      calldataload\n        /* \"#utility.yul\":6154:6233   */\n      tag_419\n        /* \"#utility.yul\":6229:6232   */\n      dup5\n        /* \"#utility.yul\":6221:6227   */\n      dup3\n        /* \"#utility.yul\":6214:6218   */\n      0x20\n        /* \"#utility.yul\":6206:6212   */\n      dup7\n        /* \"#utility.yul\":6202:6219   */\n      add\n        /* \"#utility.yul\":6154:6233   */\n      tag_295\n      jump\t// in\n    tag_419:\n        /* \"#utility.yul\":6145:6233   */\n      swap2\n      pop\n        /* \"#utility.yul\":5961:6239   */\n      pop\n        /* \"#utility.yul\":5899:6239   */\n      swap3\n      swap2\n      pop\n      pop\n      jump\t// out\n        /* \"#utility.yul\":6245:6354   */\n    tag_297:\n        /* \"#utility.yul\":6328:6329   */\n      0x03\n        /* \"#utility.yul\":6321:6326   */\n      dup2\n        /* \"#utility.yul\":6318:6330   */\n      lt\n        /* \"#utility.yul\":6308:6348   */\n      tag_421\n      jumpi\n        /* \"#utility.yul\":6344:6345   */\n      0x00\n        /* \"#utility.yul\":6341:6342   */\n      0x00\n        /* \"#utility.yul\":6334:6346   */\n      revert\n        /* \"#utility.yul\":6308:6348   */\n    tag_421:\n        /* \"#utility.yul\":6245:6354   */\n      pop\n      jump\t// out\n        /* \"#utility.yul\":6360:6519   */\n    tag_298:\n        /* \"#utility.yul\":6416:6421   */\n      0x00\n        /* \"#utility.yul\":6454:6460   */\n      dup2\n        /* \"#utility.yul\":6441:6461   */\n      calldataload\n        /* \"#utility.yul\":6432:6461   */\n      swap1\n      pop\n        /* \"#utility.yul\":6470:6513   */\n      tag_423\n        /* \"#utility.yul\":6507:6512   */\n      dup2\n        /* \"#utility.yul\":6470:6513   */\n      tag_297\n      jump\t// in\n    tag_423:\n        /* \"#utility.yul\":6360:6519   */\n      swap3\n      swap2\n      pop\n      pop\n      jump\t// out\n        /* \"#utility.yul\":6525:7344   */\n    tag_32:\n        /* \"#utility.yul\":6622:6628   */\n      0x00\n        /* \"#utility.yul\":6630:6636   */\n      0x00\n        /* \"#utility.yul\":6638:6644   */\n      0x00\n        /* \"#utility.yul\":6687:6689   */\n      0x60\n        /* \"#utility.yul\":6675:6684   */\n      dup5\n        /* \"#utility.yul\":6666:6673   */\n      dup7\n        /* \"#utility.yul\":6662:6685   */\n      sub\n        /* \"#utility.yul\":6658:6690   */\n      slt\n        /* \"#utility.yul\":6655:6774   */\n      iszero\n      tag_425\n      jumpi\n        /* \"#utility.yul\":6693:6772   */\n      tag_426\n      tag_274\n      jump\t// in\n    tag_426:\n        /* \"#utility.yul\":6655:6774   */\n    tag_425:\n        /* \"#utility.yul\":6841:6842   */\n      0x00\n        /* \"#utility.yul\":6830:6839   */\n      dup5\n        /* \"#utility.yul\":6826:6843   */\n      add\n        /* \"#utility.yul\":6813:6844   */\n      calldataload\n        /* \"#utility.yul\":6871:6889   */\n      0xffffffffffffffff\n        /* \"#utility.yul\":6863:6869   */\n      dup2\n        /* \"#utility.yul\":6860:6890   */\n      gt\n        /* \"#utility.yul\":6857:6974   */\n      iszero\n      tag_427\n      jumpi\n        /* \"#utility.yul\":6893:6972   */\n      tag_428\n      tag_275\n      jump\t// in\n    tag_428:\n        /* \"#utility.yul\":6857:6974   */\n    tag_427:\n        /* \"#utility.yul\":6998:7061   */\n      tag_429\n        /* \"#utility.yul\":7053:7060   */\n      dup7\n        /* \"#utility.yul\":7044:7050   */\n      dup3\n        /* \"#utility.yul\":7033:7042   */\n      dup8\n        /* \"#utility.yul\":7029:7051   */\n      add\n        /* \"#utility.yul\":6998:7061   */\n      tag_296\n      jump\t// in\n    tag_429:\n        /* \"#utility.yul\":6988:7061   */\n      swap4\n      pop\n        /* \"#utility.yul\":6784:7071   */\n      pop\n        /* \"#utility.yul\":7110:7112   */\n      0x20\n        /* \"#utility.yul\":7136:7199   */\n      tag_430\n        /* \"#utility.yul\":7191:7198   */\n      dup7\n        /* \"#utility.yul\":7182:7188   */\n      dup3\n        /* \"#utility.yul\":7171:7180   */\n      dup8\n        /* \"#utility.yul\":7167:7189   */\n      add\n        /* \"#utility.yul\":7136:7199   */\n      tag_298\n      jump\t// in\n    tag_430:\n        /* \"#utility.yul\":7126:7199   */\n      swap3\n      pop\n        /* \"#utility.yul\":7081:7209   */\n      pop\n        /* \"#utility.yul\":7248:7250   */\n      0x40\n        /* \"#utility.yul\":7274:7327   */\n      tag_431\n        /* \"#utility.yul\":7319:7326   */\n      dup7\n        /* \"#utility.yul\":7310:7316   */\n      dup3\n        /* \"#utility.yul\":7299:7308   */\n      dup8\n        /* \"#utility.yul\":7295:7317   */\n      add\n        /* \"#utility.yul\":7274:7327   */\n      tag_277\n      jump\t// in\n    tag_431:\n        /* \"#utility.yul\":7264:7327   */\n      swap2\n      pop\n        /* \"#utility.yul\":7219:7337   */\n      pop\n        /* \"#utility.yul\":6525:7344   */\n      swap3\n      pop\n      swap3\n      pop\n      swap3\n      jump\t// out\n        /* \"#utility.yul\":7350:7560   */\n    tag_35:\n        /* \"#utility.yul\":7437:7441   */\n      0x00\n        /* \"#utility.yul\":7475:7477   */\n      0x20\n        /* \"#utility.yul\":7464:7473   */\n      dup3\n        /* \"#utility.yul\":7460:7478   */\n      add\n        /* \"#utility.yul\":7452:7478   */\n      swap1\n      pop\n        /* \"#utility.yul\":7488:7553   */\n      tag_433\n        /* \"#utility.yul\":7550:7551   */\n      0x00\n        /* \"#utility.yul\":7539:7548   */\n      dup4\n        /* \"#utility.yul\":7535:7552   */\n      add\n        /* \"#utility.yul\":7526:7532   */\n      dup5\n        /* \"#utility.yul\":7488:7553   */\n      tag_279\n      jump\t// in\n    tag_433:\n        /* \"#utility.yul\":7350:7560   */\n      swap3\n      swap2\n      pop\n      pop\n      jump\t// out\n        /* \"#utility.yul\":7566:7895   */\n    tag_41:\n        /* \"#utility.yul\":7625:7631   */\n      0x00\n        /* \"#utility.yul\":7674:7676   */\n      0x20\n        /* \"#utility.yul\":7662:7671   */\n      dup3\n        /* \"#utility.yul\":7653:7660   */\n      dup5\n        /* \"#utility.yul\":7649:7672   */\n      sub\n        /* \"#utility.yul\":7645:7677   */\n      slt\n        /* \"#utility.yul\":7642:7761   */\n      iszero\n      tag_435\n      jumpi\n        /* \"#utility.yul\":7680:7759   */\n      tag_436\n      tag_274\n      jump\t// in\n    tag_436:\n        /* \"#utility.yul\":7642:7761   */\n    tag_435:\n        /* \"#utility.yul\":7800:7801   */\n      0x00\n        /* \"#utility.yul\":7825:7878   */\n      tag_437\n        /* \"#utility.yul\":7870:7877   */\n      dup5\n        /* \"#utility.yul\":7861:7867   */\n      dup3\n        /* \"#utility.yul\":7850:7859   */\n      dup6\n        /* \"#utility.yul\":7846:7868   */\n      add\n        /* \"#utility.yul\":7825:7878   */\n      tag_283\n      jump\t// in\n    tag_437:\n        /* \"#utility.yul\":7815:7878   */\n      swap2\n      pop\n        /* \"#utility.yul\":7771:7888   */\n      pop\n        /* \"#utility.yul\":7566:7895   */\n      swap3\n      swap2\n      pop\n      pop\n      jump\t// out\n        /* \"#utility.yul\":7901:8230   */\n    tag_49:\n        /* \"#utility.yul\":7960:7966   */\n      0x00\n        /* \"#utility.yul\":8009:8011   */\n      0x20\n        /* \"#utility.yul\":7997:8006   */\n      dup3\n        /* \"#utility.yul\":7988:7995   */\n      dup5\n        /* \"#utility.yul\":7984:8007   */\n      sub\n        /* \"#utility.yul\":7980:8012   */\n      slt\n        /* \"#utility.yul\":7977:8096   */\n      iszero\n      tag_439\n      jumpi\n        /* \"#utility.yul\":8015:8094   */\n      tag_440\n      tag_274\n      jump\t// in\n    tag_440:\n        /* \"#utility.yul\":7977:8096   */\n    tag_439:\n        /* \"#utility.yul\":8135:8136   */\n      0x00\n        /* \"#utility.yul\":8160:8213   */\n      tag_441\n        /* \"#utility.yul\":8205:8212   */\n      dup5\n        /* \"#utility.yul\":8196:8202   */\n      dup3\n        /* \"#utility.yul\":8185:8194   */\n      dup6\n        /* \"#utility.yul\":8181:8203   */\n      add\n        /* \"#utility.yul\":8160:8213   */\n      tag_277\n      jump\t// in\n    tag_441:\n        /* \"#utility.yul\":8150:8213   */\n      swap2\n      pop\n        /* \"#utility.yul\":8106:8223   */\n      pop\n        /* \"#utility.yul\":7901:8230   */\n      swap3\n      swap2\n      pop\n      pop\n      jump\t// out\n        /* \"#utility.yul\":8236:8354   */\n    tag_299:\n        /* \"#utility.yul\":8323:8347   */\n      tag_443\n        /* \"#utility.yul\":8341:8346   */\n      dup2\n        /* \"#utility.yul\":8323:8347   */\n      tag_281\n      jump\t// in\n    tag_443:\n        /* \"#utility.yul\":8318:8321   */\n      dup3\n        /* \"#utility.yul\":8311:8348   */\n      mstore\n        /* \"#utility.yul\":8236:8354   */\n      pop\n      pop\n      jump\t// out\n        /* \"#utility.yul\":8360:8582   */\n    tag_52:\n        /* \"#utility.yul\":8453:8457   */\n      0x00\n        /* \"#utility.yul\":8491:8493   */\n      0x20\n        /* \"#utility.yul\":8480:8489   */\n      dup3\n        /* \"#utility.yul\":8476:8494   */\n      add\n        /* \"#utility.yul\":8468:8494   */\n      swap1\n      pop\n        /* \"#utility.yul\":8504:8575   */\n      tag_445\n        /* \"#utility.yul\":8572:8573   */\n      0x00\n        /* \"#utility.yul\":8561:8570   */\n      dup4\n        /* \"#utility.yul\":8557:8574   */\n      add\n        /* \"#utility.yul\":8548:8554   */\n      dup5\n        /* \"#utility.yul\":8504:8575   */\n      tag_299\n      jump\t// in\n    tag_445:\n        /* \"#utility.yul\":8360:8582   */\n      swap3\n      swap2\n      pop\n      pop\n      jump\t// out\n        /* \"#utility.yul\":8588:8909   */\n    tag_300:\n        /* \"#utility.yul\":8675:8679   */\n      0x00\n        /* \"#utility.yul\":8765:8783   */\n      0xffffffffffffffff\n        /* \"#utility.yul\":8757:8763   */\n      dup3\n        /* \"#utility.yul\":8754:8784   */\n      gt\n        /* \"#utility.yul\":8751:8807   */\n      iszero\n      tag_447\n      jumpi\n        /* \"#utility.yul\":8787:8805   */\n      tag_448\n      tag_125\n      jump\t// in\n    tag_448:\n        /* \"#utility.yul\":8751:8807   */\n    tag_447:\n        /* \"#utility.yul\":8837:8841   */\n      0x20\n        /* \"#utility.yul\":8829:8835   */\n      dup3\n        /* \"#utility.yul\":8825:8842   */\n      mul\n        /* \"#utility.yul\":8817:8842   */\n      swap1\n      pop\n        /* \"#utility.yul\":8897:8901   */\n      0x20\n        /* \"#utility.yul\":8891:8895   */\n      dup2\n        /* \"#utility.yul\":8887:8902   */\n      add\n        /* \"#utility.yul\":8879:8902   */\n      swap1\n      pop\n        /* \"#utility.yul\":8588:8909   */\n      swap2\n      swap1\n      pop\n      jump\t// out\n        /* \"#utility.yul\":8915:9032   */\n    tag_301:\n        /* \"#utility.yul\":9024:9025   */\n      0x00\n        /* \"#utility.yul\":9021:9022   */\n      0x00\n        /* \"#utility.yul\":9014:9026   */\n      revert\n        /* \"#utility.yul\":9070:9810   */\n    tag_302:\n        /* \"#utility.yul\":9176:9181   */\n      0x00\n        /* \"#utility.yul\":9201:9292   */\n      tag_451\n        /* \"#utility.yul\":9217:9291   */\n      tag_452\n        /* \"#utility.yul\":9284:9290   */\n      dup5\n        /* \"#utility.yul\":9217:9291   */\n      tag_300\n      jump\t// in\n    tag_452:\n        /* \"#utility.yul\":9201:9292   */\n      tag_292\n      jump\t// in\n    tag_451:\n        /* \"#utility.yul\":9192:9292   */\n      swap1\n      pop\n        /* \"#utility.yul\":9312:9317   */\n      dup1\n        /* \"#utility.yul\":9341:9347   */\n      dup4\n        /* \"#utility.yul\":9334:9339   */\n      dup3\n        /* \"#utility.yul\":9327:9348   */\n      mstore\n        /* \"#utility.yul\":9375:9379   */\n      0x20\n        /* \"#utility.yul\":9368:9373   */\n      dup3\n        /* \"#utility.yul\":9364:9380   */\n      add\n        /* \"#utility.yul\":9357:9380   */\n      swap1\n      pop\n        /* \"#utility.yul\":9428:9432   */\n      0x20\n        /* \"#utility.yul\":9420:9426   */\n      dup5\n        /* \"#utility.yul\":9416:9433   */\n      mul\n        /* \"#utility.yul\":9408:9414   */\n      dup4\n        /* \"#utility.yul\":9404:9434   */\n      add\n        /* \"#utility.yul\":9457:9460   */\n      dup6\n        /* \"#utility.yul\":9449:9455   */\n      dup2\n        /* \"#utility.yul\":9446:9461   */\n      gt\n        /* \"#utility.yul\":9443:9565   */\n      iszero\n      tag_453\n      jumpi\n        /* \"#utility.yul\":9476:9555   */\n      tag_454\n      tag_301\n      jump\t// in\n    tag_454:\n        /* \"#utility.yul\":9443:9565   */\n    tag_453:\n        /* \"#utility.yul\":9591:9597   */\n      dup4\n        /* \"#utility.yul\":9574:9804   */\n    tag_455:\n        /* \"#utility.yul\":9608:9614   */\n      dup2\n        /* \"#utility.yul\":9603:9606   */\n      dup2\n        /* \"#utility.yul\":9600:9615   */\n      lt\n        /* \"#utility.yul\":9574:9804   */\n      iszero\n      tag_457\n      jumpi\n        /* \"#utility.yul\":9683:9686   */\n      dup1\n        /* \"#utility.yul\":9712:9759   */\n      tag_458\n        /* \"#utility.yul\":9755:9758   */\n      dup9\n        /* \"#utility.yul\":9743:9753   */\n      dup3\n        /* \"#utility.yul\":9712:9759   */\n      tag_298\n      jump\t// in\n    tag_458:\n        /* \"#utility.yul\":9707:9710   */\n      dup5\n        /* \"#utility.yul\":9700:9760   */\n      mstore\n        /* \"#utility.yul\":9789:9793   */\n      0x20\n        /* \"#utility.yul\":9784:9787   */\n      dup5\n        /* \"#utility.yul\":9780:9794   */\n      add\n        /* \"#utility.yul\":9773:9794   */\n      swap4\n      pop\n        /* \"#utility.yul\":9650:9804   */\n      pop\n        /* \"#utility.yul\":9634:9638   */\n      0x20\n        /* \"#utility.yul\":9629:9632   */\n      dup2\n        /* \"#utility.yul\":9625:9639   */\n      add\n        /* \"#utility.yul\":9618:9639   */\n      swap1\n      pop\n        /* \"#utility.yul\":9574:9804   */\n      jump(tag_455)\n    tag_457:\n        /* \"#utility.yul\":9578:9599   */\n      pop\n        /* \"#utility.yul\":9182:9810   */\n      pop\n      pop\n        /* \"#utility.yul\":9070:9810   */\n      swap4\n      swap3\n      pop\n      pop\n      pop\n      jump\t// out\n        /* \"#utility.yul\":9848:10238   */\n    tag_303:\n        /* \"#utility.yul\":9929:9934   */\n      0x00\n        /* \"#utility.yul\":9978:9981   */\n      dup3\n        /* \"#utility.yul\":9971:9975   */\n      0x1f\n        /* \"#utility.yul\":9963:9969   */\n      dup4\n        /* \"#utility.yul\":9959:9976   */\n      add\n        /* \"#utility.yul\":9955:9982   */\n      slt\n        /* \"#utility.yul\":9945:10067   */\n      tag_460\n      jumpi\n        /* \"#utility.yul\":9986:10065   */\n      tag_461\n      tag_288\n      jump\t// in\n    tag_461:\n        /* \"#utility.yul\":9945:10067   */\n    tag_460:\n        /* \"#utility.yul\":10103:10109   */\n      dup2\n        /* \"#utility.yul\":10090:10110   */\n      calldataload\n        /* \"#utility.yul\":10128:10232   */\n      tag_462\n        /* \"#utility.yul\":10228:10231   */\n      dup5\n        /* \"#utility.yul\":10220:10226   */\n      dup3\n        /* \"#utility.yul\":10213:10217   */\n      0x20\n        /* \"#utility.yul\":10205:10211   */\n      dup7\n        /* \"#utility.yul\":10201:10218   */\n      add\n        /* \"#utility.yul\":10128:10232   */\n      tag_302\n      jump\t// in\n    tag_462:\n        /* \"#utility.yul\":10119:10232   */\n      swap2\n      pop\n        /* \"#utility.yul\":9935:10238   */\n      pop\n        /* \"#utility.yul\":9848:10238   */\n      swap3\n      swap2\n      pop\n      pop\n      jump\t// out\n        /* \"#utility.yul\":10244:10803   */\n    tag_55:\n        /* \"#utility.yul\":10338:10344   */\n      0x00\n        /* \"#utility.yul\":10387:10389   */\n      0x20\n        /* \"#utility.yul\":10375:10384   */\n      dup3\n        /* \"#utility.yul\":10366:10373   */\n      dup5\n        /* \"#utility.yul\":10362:10385   */\n      sub\n        /* \"#utility.yul\":10358:10390   */\n      slt\n        /* \"#utility.yul\":10355:10474   */\n      iszero\n      tag_464\n      jumpi\n        /* \"#utility.yul\":10393:10472   */\n      tag_465\n      tag_274\n      jump\t// in\n    tag_465:\n        /* \"#utility.yul\":10355:10474   */\n    tag_464:\n        /* \"#utility.yul\":10541:10542   */\n      0x00\n        /* \"#utility.yul\":10530:10539   */\n      dup3\n        /* \"#utility.yul\":10526:10543   */\n      add\n        /* \"#utility.yul\":10513:10544   */\n      calldataload\n        /* \"#utility.yul\":10571:10589   */\n      0xffffffffffffffff\n        /* \"#utility.yul\":10563:10569   */\n      dup2\n        /* \"#utility.yul\":10560:10590   */\n      gt\n        /* \"#utility.yul\":10557:10674   */\n      iszero\n      tag_466\n      jumpi\n        /* \"#utility.yul\":10593:10672   */\n      tag_467\n      tag_275\n      jump\t// in\n    tag_467:\n        /* \"#utility.yul\":10557:10674   */\n    tag_466:\n        /* \"#utility.yul\":10698:10786   */\n      tag_468\n        /* \"#utility.yul\":10778:10785   */\n      dup5\n        /* \"#utility.yul\":10769:10775   */\n      dup3\n        /* \"#utility.yul\":10758:10767   */\n      dup6\n        /* \"#utility.yul\":10754:10776   */\n      add\n        /* \"#utility.yul\":10698:10786   */\n      tag_303\n      jump\t// in\n    tag_468:\n        /* \"#utility.yul\":10688:10786   */\n      swap2\n      pop\n        /* \"#utility.yul\":10484:10796   */\n      pop\n        /* \"#utility.yul\":10244:10803   */\n      swap3\n      swap2\n      pop\n      pop\n      jump\t// out\n        /* \"#utility.yul\":10809:10989   */\n    tag_67:\n        /* \"#utility.yul\":10857:10934   */\n      0x4e487b7100000000000000000000000000000000000000000000000000000000\n        /* \"#utility.yul\":10854:10855   */\n      0x00\n        /* \"#utility.yul\":10847:10935   */\n      mstore\n        /* \"#utility.yul\":10954:10958   */\n      0x32\n        /* \"#utility.yul\":10951:10952   */\n      0x04\n        /* \"#utility.yul\":10944:10959   */\n      mstore\n        /* \"#utility.yul\":10978:10982   */\n      0x24\n        /* \"#utility.yul\":10975:10976   */\n      0x00\n        /* \"#utility.yul\":10968:10983   */\n      revert\n        /* \"#utility.yul\":10995:11175   */\n    tag_304:\n        /* \"#utility.yul\":11043:11120   */\n      0x4e487b7100000000000000000000000000000000000000000000000000000000\n        /* \"#utility.yul\":11040:11041   */\n      0x00\n        /* \"#utility.yul\":11033:11121   */\n      mstore\n        /* \"#utility.yul\":11140:11144   */\n      0x11\n        /* \"#utility.yul\":11137:11138   */\n      0x04\n        /* \"#utility.yul\":11130:11145   */\n      mstore\n        /* \"#utility.yul\":11164:11168   */\n      0x24\n        /* \"#utility.yul\":11161:11162   */\n      0x00\n        /* \"#utility.yul\":11154:11169   */\n      revert\n        /* \"#utility.yul\":11181:11414   */\n    tag_73:\n        /* \"#utility.yul\":11220:11223   */\n      0x00\n        /* \"#utility.yul\":11243:11267   */\n      tag_472\n        /* \"#utility.yul\":11261:11266   */\n      dup3\n        /* \"#utility.yul\":11243:11267   */\n      tag_271\n      jump\t// in\n    tag_472:\n        /* \"#utility.yul\":11234:11267   */\n      swap2\n      pop\n        /* \"#utility.yul\":11289:11355   */\n      0xffffffffffffffffffffffffffffffffffffffffffffffffffffffffffffffff\n        /* \"#utility.yul\":11282:11287   */\n      dup3\n        /* \"#utility.yul\":11279:11356   */\n      sub\n        /* \"#utility.yul\":11276:11379   */\n      tag_473\n      jumpi\n        /* \"#utility.yul\":11359:11377   */\n      tag_474\n      tag_304\n      jump\t// in\n    tag_474:\n        /* \"#utility.yul\":11276:11379   */\n    tag_473:\n        /* \"#utility.yul\":11406:11407   */\n      0x01\n        /* \"#utility.yul\":11399:11404   */\n      dup3\n        /* \"#utility.yul\":11395:11408   */\n      add\n        /* \"#utility.yul\":11388:11408   */\n      swap1\n      pop\n        /* \"#utility.yul\":11181:11414   */\n      swap2\n      swap1\n      pop\n      jump\t// out\n        /* \"#utility.yul\":11420:11830   */\n    tag_75:\n        /* \"#utility.yul\":11460:11467   */\n      0x00\n        /* \"#utility.yul\":11483:11503   */\n      tag_476\n        /* \"#utility.yul\":11501:11502   */\n      dup3\n        /* \"#utility.yul\":11483:11503   */\n      tag_271\n      jump\t// in\n    tag_476:\n        /* \"#utility.yul\":11478:11503   */\n      swap2\n      pop\n        /* \"#utility.yul\":11517:11537   */\n      tag_477\n        /* \"#utility.yul\":11535:11536   */\n      dup4\n        /* \"#utility.yul\":11517:11537   */\n      tag_271\n      jump\t// in\n    tag_477:\n        /* \"#utility.yul\":11512:11537   */\n      swap3\n      pop\n        /* \"#utility.yul\":11572:11573   */\n      dup3\n        /* \"#utility.yul\":11569:11570   */\n      dup3\n        /* \"#utility.yul\":11565:11574   */\n      mul\n        /* \"#utility.yul\":11594:11624   */\n      tag_478\n        /* \"#utility.yul\":11612:11623   */\n      dup2\n        /* \"#utility.yul\":11594:11624   */\n      tag_271\n      jump\t// in\n    tag_478:\n        /* \"#utility.yul\":11583:11624   */\n      swap2\n      pop\n        /* \"#utility.yul\":11773:11774   */\n      dup3\n        /* \"#utility.yul\":11764:11771   */\n      dup3\n        /* \"#utility.yul\":11760:11775   */\n      div\n        /* \"#utility.yul\":11757:11758   */\n      dup5\n        /* \"#utility.yul\":11754:11776   */\n      eq\n        /* \"#utility.yul\":11734:11735   */\n      dup4\n        /* \"#utility.yul\":11727:11736   */\n      iszero\n        /* \"#utility.yul\":11707:11790   */\n      or\n        /* \"#utility.yul\":11684:11823   */\n      tag_479\n      jumpi\n        /* \"#utility.yul\":11803:11821   */\n      tag_480\n      tag_304\n      jump\t// in\n    tag_480:\n        /* \"#utility.yul\":11684:11823   */\n    tag_479:\n        /* \"#utility.yul\":11468:11830   */\n      pop\n        /* \"#utility.yul\":11420:11830   */\n      swap3\n      swap2\n      pop\n      pop\n      jump\t// out\n        /* \"#utility.yul\":11836:12016   */\n    tag_305:\n        /* \"#utility.yul\":11884:11961   */\n      0x4e487b7100000000000000000000000000000000000000000000000000000000\n        /* \"#utility.yul\":11881:11882   */\n      0x00\n        /* \"#utility.yul\":11874:11962   */\n      mstore\n        /* \"#utility.yul\":11981:11985   */\n      0x12\n        /* \"#utility.yul\":11978:11979   */\n      0x04\n        /* \"#utility.yul\":11971:11986   */\n      mstore\n        /* \"#utility.yul\":12005:12009   */\n      0x24\n        /* \"#utility.yul\":12002:12003   */\n      0x00\n        /* \"#utility.yul\":11995:12010   */\n      revert\n        /* \"#utility.yul\":12022:12207   */\n    tag_82:\n        /* \"#utility.yul\":12062:12063   */\n      0x00\n        /* \"#utility.yul\":12079:12099   */\n      tag_483\n        /* \"#utility.yul\":12097:12098   */\n      dup3\n        /* \"#utility.yul\":12079:12099   */\n      tag_271\n      jump\t// in\n    tag_483:\n        /* \"#utility.yul\":12074:12099   */\n      swap2\n      pop\n        /* \"#utility.yul\":12113:12133   */\n      tag_484\n        /* \"#utility.yul\":12131:12132   */\n      dup4\n        /* \"#utility.yul\":12113:12133   */\n      tag_271\n      jump\t// in\n    tag_484:\n        /* \"#utility.yul\":12108:12133   */\n      swap3\n      pop\n        /* \"#utility.yul\":12152:12153   */\n      dup3\n        /* \"#utility.yul\":12142:12177   */\n      tag_485\n      jumpi\n        /* \"#utility.yul\":12157:12175   */\n      tag_486\n      tag_305\n      jump\t// in\n    tag_486:\n        /* \"#utility.yul\":12142:12177   */\n    tag_485:\n        /* \"#utility.yul\":12199:12200   */\n      dup3\n        /* \"#utility.yul\":12196:12197   */\n      dup3\n        /* \"#utility.yul\":12192:12201   */\n      div\n        /* \"#utility.yul\":12187:12201   */\n      swap1\n      pop\n        /* \"#utility.yul\":12022:12207   */\n      swap3\n      swap2\n      pop\n      pop\n      jump\t// out\n        /* \"#utility.yul\":12213:12404   */\n    tag_87:\n        /* \"#utility.yul\":12253:12256   */\n      0x00\n        /* \"#utility.yul\":12272:12292   */\n      tag_488\n        /* \"#utility.yul\":12290:12291   */\n      dup3\n        /* \"#utility.yul\":12272:12292   */\n      tag_271\n      jump\t// in\n    tag_488:\n        /* \"#utility.yul\":12267:12292   */\n      swap2\n      pop\n        /* \"#utility.yul\":12306:12326   */\n      tag_489\n        /* \"#utility.yul\":12324:12325   */\n      dup4\n        /* \"#utility.yul\":12306:12326   */\n      tag_271\n      jump\t// in\n    tag_489:\n        /* \"#utility.yul\":12301:12326   */\n      swap3\n      pop\n        /* \"#utility.yul\":12349:12350   */\n      dup3\n        /* \"#utility.yul\":12346:12347   */\n      dup3\n        /* \"#utility.yul\":12342:12351   */\n      add\n        /* \"#utility.yul\":12335:12351   */\n      swap1\n      pop\n        /* \"#utility.yul\":12370:12373   */\n      dup1\n        /* \"#utility.yul\":12367:12368   */\n      dup3\n        /* \"#utility.yul\":12364:12374   */\n      gt\n        /* \"#utility.yul\":12361:12397   */\n      iszero\n      tag_490\n      jumpi\n        /* \"#utility.yul\":12377:12395   */\n      tag_491\n      tag_304\n      jump\t// in\n    tag_491:\n        /* \"#utility.yul\":12361:12397   */\n    tag_490:\n        /* \"#utility.yul\":12213:12404   */\n      swap3\n      swap2\n      pop\n      pop\n      jump\t// out\n        /* \"#utility.yul\":12410:12512   */\n    tag_306:\n        /* \"#utility.yul\":12452:12460   */\n      0x00\n        /* \"#utility.yul\":12499:12504   */\n      dup2\n        /* \"#utility.yul\":12496:12497   */\n      0x01\n        /* \"#utility.yul\":12492:12505   */\n      shr\n        /* \"#utility.yul\":12471:12505   */\n      swap1\n      pop\n        /* \"#utility.yul\":12410:12512   */\n      swap2\n      swap1\n      pop\n      jump\t// out\n        /* \"#utility.yul\":12518:13366   */\n    tag_307:\n        /* \"#utility.yul\":12579:12584   */\n      0x00\n        /* \"#utility.yul\":12586:12590   */\n      0x00\n        /* \"#utility.yul\":12610:12616   */\n      dup3\n        /* \"#utility.yul\":12601:12616   */\n      swap2\n      pop\n        /* \"#utility.yul\":12634:12639   */\n      dup4\n        /* \"#utility.yul\":12625:12639   */\n      swap1\n      pop\n        /* \"#utility.yul\":12648:13360   */\n    tag_494:\n        /* \"#utility.yul\":12669:12670   */\n      0x01\n        /* \"#utility.yul\":12659:12667   */\n      dup6\n        /* \"#utility.yul\":12656:12671   */\n      gt\n        /* \"#utility.yul\":12648:13360   */\n      iszero\n      tag_496\n      jumpi\n        /* \"#utility.yul\":12764:12768   */\n      dup1\n        /* \"#utility.yul\":12759:12762   */\n      dup7\n        /* \"#utility.yul\":12755:12769   */\n      div\n        /* \"#utility.yul\":12749:12753   */\n      dup2\n        /* \"#utility.yul\":12746:12770   */\n      gt\n        /* \"#utility.yul\":12743:12793   */\n      iszero\n      tag_497\n      jumpi\n        /* \"#utility.yul\":12773:12791   */\n      tag_498\n      tag_304\n      jump\t// in\n    tag_498:\n        /* \"#utility.yul\":12743:12793   */\n    tag_497:\n        /* \"#utility.yul\":12823:12824   */\n      0x01\n        /* \"#utility.yul\":12813:12821   */\n      dup6\n        /* \"#utility.yul\":12809:12825   */\n      and\n        /* \"#utility.yul\":12806:13257   */\n      iszero\n      tag_499\n      jumpi\n        /* \"#utility.yul\":13238:13242   */\n      dup1\n        /* \"#utility.yul\":13231:13236   */\n      dup3\n        /* \"#utility.yul\":13227:13243   */\n      mul\n        /* \"#utility.yul\":13218:13243   */\n      swap2\n      pop\n        /* \"#utility.yul\":12806:13257   */\n    tag_499:\n        /* \"#utility.yul\":13288:13292   */\n      dup1\n        /* \"#utility.yul\":13282:13286   */\n      dup2\n        /* \"#utility.yul\":13278:13293   */\n      mul\n        /* \"#utility.yul\":13270:13293   */\n      swap1\n      pop\n        /* \"#utility.yul\":13318:13350   */\n      tag_500\n        /* \"#utility.yul\":13341:13349   */\n      dup6\n        /* \"#utility.yul\":13318:13350   */\n      tag_306\n      jump\t// in\n    tag_500:\n        /* \"#utility.yul\":13306:13350   */\n      swap5\n      pop\n        /* \"#utility.yul\":12648:13360   */\n      jump(tag_494)\n    tag_496:\n        /* \"#utility.yul\":12518:13366   */\n      swap5\n      pop\n      swap5\n      swap3\n      pop\n      pop\n      pop\n      jump\t// out\n        /* \"#utility.yul\":13372:14445   */\n    tag_308:\n        /* \"#utility.yul\":13426:13431   */\n      0x00\n        /* \"#utility.yul\":13617:13625   */\n      dup3\n        /* \"#utility.yul\":13607:13647   */\n      tag_502\n      jumpi\n        /* \"#utility.yul\":13638:13639   */\n      0x01\n        /* \"#utility.yul\":13629:13639   */\n      swap1\n      pop\n        /* \"#utility.yul\":13640:13645   */\n      jump(tag_501)\n        /* \"#utility.yul\":13607:13647   */\n    tag_502:\n        /* \"#utility.yul\":13666:13670   */\n      dup2\n        /* \"#utility.yul\":13656:13692   */\n      tag_503\n      jumpi\n        /* \"#utility.yul\":13683:13684   */\n      0x00\n        /* \"#utility.yul\":13674:13684   */\n      swap1\n      pop\n        /* \"#utility.yul\":13685:13690   */\n      jump(tag_501)\n        /* \"#utility.yul\":13656:13692   */\n    tag_503:\n        /* \"#utility.yul\":13752:13756   */\n      dup2\n        /* \"#utility.yul\":13800:13801   */\n      0x01\n        /* \"#utility.yul\":13795:13822   */\n      dup2\n      eq\n      tag_505\n      jumpi\n        /* \"#utility.yul\":13836:13837   */\n      0x02\n        /* \"#utility.yul\":13831:14022   */\n      dup2\n      eq\n      tag_506\n      jumpi\n        /* \"#utility.yul\":13745:14022   */\n      jump(tag_504)\n        /* \"#utility.yul\":13795:13822   */\n    tag_505:\n        /* \"#utility.yul\":13813:13814   */\n      0x01\n        /* \"#utility.yul\":13804:13814   */\n      swap2\n      pop\n        /* \"#utility.yul\":13815:13820   */\n      pop\n      jump(tag_501)\n        /* \"#utility.yul\":13831:14022   */\n    tag_506:\n        /* \"#utility.yul\":13876:13879   */\n      0xff\n        /* \"#utility.yul\":13866:13874   */\n      dup5\n        /* \"#utility.yul\":13863:13880   */\n      gt\n        /* \"#utility.yul\":13860:13903   */\n      iszero\n      tag_507\n      jumpi\n        /* \"#utility.yul\":13883:13901   */\n      tag_508\n      tag_304\n      jump\t// in\n    tag_508:\n        /* \"#utility.yul\":13860:13903   */\n    tag_507:\n        /* \"#utility.yul\":13932:13940   */\n      dup4\n        /* \"#utility.yul\":13929:13930   */\n      0x02\n        /* \"#utility.yul\":13925:13941   */\n      exp\n        /* \"#utility.yul\":13916:13941   */\n      swap2\n      pop\n        /* \"#utility.yul\":13967:13970   */\n      dup5\n        /* \"#utility.yul\":13960:13965   */\n      dup3\n        /* \"#utility.yul\":13957:13971   */\n      gt\n        /* \"#utility.yul\":13954:13994   */\n      iszero\n      tag_509\n      jumpi\n        /* \"#utility.yul\":13974:13992   */\n      tag_510\n      tag_304\n      jump\t// in\n    tag_510:\n        /* \"#utility.yul\":13954:13994   */\n    tag_509:\n        /* \"#utility.yul\":14007:14012   */\n      pop\n      jump(tag_501)\n        /* \"#utility.yul\":13745:14022   */\n    tag_504:\n      pop\n        /* \"#utility.yul\":14131:14133   */\n      0x20\n        /* \"#utility.yul\":14121:14129   */\n      dup4\n        /* \"#utility.yul\":14118:14134   */\n      lt\n        /* \"#utility.yul\":14112:14115   */\n      0x0133\n        /* \"#utility.yul\":14106:14110   */\n      dup4\n        /* \"#utility.yul\":14103:14116   */\n      lt\n        /* \"#utility.yul\":14099:14135   */\n      and\n        /* \"#utility.yul\":14081:14083   */\n      0x4e\n        /* \"#utility.yul\":14071:14079   */\n      dup5\n        /* \"#utility.yul\":14068:14084   */\n      lt\n        /* \"#utility.yul\":14063:14065   */\n      0x0b\n        /* \"#utility.yul\":14057:14061   */\n      dup5\n        /* \"#utility.yul\":14054:14066   */\n      lt\n        /* \"#utility.yul\":14050:14085   */\n      and\n        /* \"#utility.yul\":14034:14145   */\n      or\n        /* \"#utility.yul\":14031:14277   */\n      iszero\n      tag_511\n      jumpi\n        /* \"#utility.yul\":14187:14195   */\n      dup3\n        /* \"#utility.yul\":14181:14185   */\n      dup3\n        /* \"#utility.yul\":14177:14196   */\n      exp\n        /* \"#utility.yul\":14168:14196   */\n      swap1\n      pop\n        /* \"#utility.yul\":14222:14225   */\n      dup4\n        /* \"#utility.yul\":14215:14220   */\n      dup2\n        /* \"#utility.yul\":14212:14226   */\n      gt\n        /* \"#utility.yul\":14209:14249   */\n      iszero\n      tag_512\n      jumpi\n        /* \"#utility.yul\":14229:14247   */\n      tag_513\n      tag_304\n      jump\t// in\n    tag_513:\n        /* \"#utility.yul\":14209:14249   */\n    tag_512:\n        /* \"#utility.yul\":14262:14267   */\n      jump(tag_501)\n        /* \"#utility.yul\":14031:14277   */\n    tag_511:\n        /* \"#utility.yul\":14302:14344   */\n      tag_514\n        /* \"#utility.yul\":14340:14343   */\n      dup5\n        /* \"#utility.yul\":14330:14338   */\n      dup5\n        /* \"#utility.yul\":14324:14328   */\n      dup5\n        /* \"#utility.yul\":14321:14322   */\n      0x01\n        /* \"#utility.yul\":14302:14344   */\n      tag_307\n      jump\t// in\n    tag_514:\n        /* \"#utility.yul\":14287:14344   */\n      swap3\n      pop\n      swap1\n      pop\n        /* \"#utility.yul\":14376:14380   */\n      dup2\n        /* \"#utility.yul\":14371:14374   */\n      dup5\n        /* \"#utility.yul\":14367:14381   */\n      div\n        /* \"#utility.yul\":14360:14365   */\n      dup2\n        /* \"#utility.yul\":14357:14382   */\n      gt\n        /* \"#utility.yul\":14354:14405   */\n      iszero\n      tag_515\n      jumpi\n        /* \"#utility.yul\":14385:14403   */\n      tag_516\n      tag_304\n      jump\t// in\n    tag_516:\n        /* \"#utility.yul\":14354:14405   */\n    tag_515:\n        /* \"#utility.yul\":14434:14438   */\n      dup2\n        /* \"#utility.yul\":14427:14432   */\n      dup2\n        /* \"#utility.yul\":14423:14439   */\n      mul\n        /* \"#utility.yul\":14414:14439   */\n      swap1\n      pop\n        /* \"#utility.yul\":13372:14445   */\n    tag_501:\n      swap4\n      swap3\n      pop\n      pop\n      pop\n      jump\t// out\n        /* \"#utility.yul\":14451:14537   */\n    tag_309:\n        /* \"#utility.yul\":14486:14493   */\n      0x00\n        /* \"#utility.yul\":14526:14530   */\n      0xff\n        /* \"#utility.yul\":14519:14524   */\n      dup3\n        /* \"#utility.yul\":14515:14531   */\n      and\n        /* \"#utility.yul\":14504:14531   */\n      swap1\n      pop\n        /* \"#utility.yul\":14451:14537   */\n      swap2\n      swap1\n      pop\n      jump\t// out\n        /* \"#utility.yul\":14543:14824   */\n    tag_96:\n        /* \"#utility.yul\":14601:14606   */\n      0x00\n        /* \"#utility.yul\":14625:14648   */\n      tag_519\n        /* \"#utility.yul\":14643:14647   */\n      dup3\n        /* \"#utility.yul\":14625:14648   */\n      tag_271\n      jump\t// in\n    tag_519:\n        /* \"#utility.yul\":14617:14648   */\n      swap2\n      pop\n        /* \"#utility.yul\":14669:14694   */\n      tag_520\n        /* \"#utility.yul\":14685:14693   */\n      dup4\n        /* \"#utility.yul\":14669:14694   */\n      tag_309\n      jump\t// in\n    tag_520:\n        /* \"#utility.yul\":14657:14694   */\n      swap3\n      pop\n        /* \"#utility.yul\":14713:14817   */\n      tag_521\n        /* \"#utility.yul\":14750:14816   */\n      0xffffffffffffffffffffffffffffffffffffffffffffffffffffffffffffffff\n        /* \"#utility.yul\":14740:14748   */\n      dup5\n        /* \"#utility.yul\":14734:14738   */\n      dup5\n        /* \"#utility.yul\":14713:14817   */\n      tag_308\n      jump\t// in\n    tag_521:\n        /* \"#utility.yul\":14704:14817   */\n      swap1\n      pop\n        /* \"#utility.yul\":14543:14824   */\n      swap3\n      swap2\n      pop\n      pop\n      jump\t// out\n        /* \"#utility.yul\":14830:15024   */\n    tag_103:\n        /* \"#utility.yul\":14870:14874   */\n      0x00\n        /* \"#utility.yul\":14890:14910   */\n      tag_523\n        /* \"#utility.yul\":14908:14909   */\n      dup3\n        /* \"#utility.yul\":14890:14910   */\n      tag_271\n      jump\t// in\n    tag_523:\n        /* \"#utility.yul\":14885:14910   */\n      swap2\n      pop\n        /* \"#utility.yul\":14924:14944   */\n      tag_524\n        /* \"#utility.yul\":14942:14943   */\n      dup4\n        /* \"#utility.yul\":14924:14944   */\n      tag_271\n      jump\t// in\n    tag_524:\n        /* \"#utility.yul\":14919:14944   */\n      swap3\n      pop\n        /* \"#utility.yul\":14968:14969   */\n      dup3\n        /* \"#utility.yul\":14965:14966   */\n      dup3\n        /* \"#utility.yul\":14961:14970   */\n      sub\n        /* \"#utility.yul\":14953:14970   */\n      swap1\n      pop\n        /* \"#utility.yul\":14992:14993   */\n      dup2\n        /* \"#utility.yul\":14986:14990   */\n      dup2\n        /* \"#utility.yul\":14983:14994   */\n      gt\n        /* \"#utility.yul\":14980:15017   */\n      iszero\n      tag_525\n      jumpi\n        /* \"#utility.yul\":14997:15015   */\n      tag_526\n      tag_304\n      jump\t// in\n    tag_526:\n        /* \"#utility.yul\":14980:15017   */\n    tag_525:\n        /* \"#utility.yul\":14830:15024   */\n      swap3\n      swap2\n      pop\n      pop\n      jump\t// out\n        /* \"#utility.yul\":15030:15146   */\n    tag_310:\n        /* \"#utility.yul\":15100:15121   */\n      tag_528\n        /* \"#utility.yul\":15115:15120   */\n      dup2\n        /* \"#utility.yul\":15100:15121   */\n      tag_278\n      jump\t// in\n    tag_528:\n        /* \"#utility.yul\":15093:15098   */\n      dup2\n        /* \"#utility.yul\":15090:15122   */\n      eq\n        /* \"#utility.yul\":15080:15140   */\n      tag_529\n      jumpi\n        /* \"#utility.yul\":15136:15137   */\n      0x00\n        /* \"#utility.yul\":15133:15134   */\n      0x00\n        /* \"#utility.yul\":15126:15138   */\n      revert\n        /* \"#utility.yul\":15080:15140   */\n    tag_529:\n        /* \"#utility.yul\":15030:15146   */\n      pop\n      jump\t// out\n        /* \"#utility.yul\":15152:15289   */\n    tag_311:\n        /* \"#utility.yul\":15206:15211   */\n      0x00\n        /* \"#utility.yul\":15237:15243   */\n      dup2\n        /* \"#utility.yul\":15231:15244   */\n      mload\n        /* \"#utility.yul\":15222:15244   */\n      swap1\n      pop\n        /* \"#utility.yul\":15253:15283   */\n      tag_531\n        /* \"#utility.yul\":15277:15282   */\n      dup2\n        /* \"#utility.yul\":15253:15283   */\n      tag_310\n      jump\t// in\n    tag_531:\n        /* \"#utility.yul\":15152:15289   */\n      swap3\n      swap2\n      pop\n      pop\n      jump\t// out\n        /* \"#utility.yul\":15295:15640   */\n    tag_109:\n        /* \"#utility.yul\":15362:15368   */\n      0x00\n        /* \"#utility.yul\":15411:15413   */\n      0x20\n        /* \"#utility.yul\":15399:15408   */\n      dup3\n        /* \"#utility.yul\":15390:15397   */\n      dup5\n        /* \"#utility.yul\":15386:15409   */\n      sub\n        /* \"#utility.yul\":15382:15414   */\n      slt\n        /* \"#utility.yul\":15379:15498   */\n      iszero\n      tag_533\n      jumpi\n        /* \"#utility.yul\":15417:15496   */\n      tag_534\n      tag_274\n      jump\t// in\n    tag_534:\n        /* \"#utility.yul\":15379:15498   */\n    tag_533:\n        /* \"#utility.yul\":15537:15538   */\n      0x00\n        /* \"#utility.yul\":15562:15623   */\n      tag_535\n        /* \"#utility.yul\":15615:15622   */\n      dup5\n        /* \"#utility.yul\":15606:15612   */\n      dup3\n        /* \"#utility.yul\":15595:15604   */\n      dup6\n        /* \"#utility.yul\":15591:15613   */\n      add\n        /* \"#utility.yul\":15562:15623   */\n      tag_311\n      jump\t// in\n    tag_535:\n        /* \"#utility.yul\":15552:15623   */\n      swap2\n      pop\n        /* \"#utility.yul\":15508:15633   */\n      pop\n        /* \"#utility.yul\":15295:15640   */\n      swap3\n      swap2\n      pop\n      pop\n      jump\t// out\n        /* \"#utility.yul\":15646:15815   */\n    tag_312:\n        /* \"#utility.yul\":15730:15741   */\n      0x00\n        /* \"#utility.yul\":15764:15770   */\n      dup3\n        /* \"#utility.yul\":15759:15762   */\n      dup3\n        /* \"#utility.yul\":15752:15771   */\n      mstore\n        /* \"#utility.yul\":15804:15808   */\n      0x20\n        /* \"#utility.yul\":15799:15802   */\n      dup3\n        /* \"#utility.yul\":15795:15809   */\n      add\n        /* \"#utility.yul\":15780:15809   */\n      swap1\n      pop\n        /* \"#utility.yul\":15646:15815   */\n      swap3\n      swap2\n      pop\n      pop\n      jump\t// out\n        /* \"#utility.yul\":15821:15983   */\n    tag_313:\n        /* \"#utility.yul\":15961:15975   */\n      0x746f6f206c657373206665650000000000000000000000000000000000000000\n        /* \"#utility.yul\":15957:15958   */\n      0x00\n        /* \"#utility.yul\":15949:15955   */\n      dup3\n        /* \"#utility.yul\":15945:15959   */\n      add\n        /* \"#utility.yul\":15938:15976   */\n      mstore\n        /* \"#utility.yul\":15821:15983   */\n      pop\n      jump\t// out\n        /* \"#utility.yul\":15989:16355   */\n    tag_314:\n        /* \"#utility.yul\":16131:16134   */\n      0x00\n        /* \"#utility.yul\":16152:16219   */\n      tag_539\n        /* \"#utility.yul\":16216:16218   */\n      0x0c\n        /* \"#utility.yul\":16211:16214   */\n      dup4\n        /* \"#utility.yul\":16152:16219   */\n      tag_312\n      jump\t// in\n    tag_539:\n        /* \"#utility.yul\":16145:16219   */\n      swap2\n      pop\n        /* \"#utility.yul\":16228:16321   */\n      tag_540\n        /* \"#utility.yul\":16317:16320   */\n      dup3\n        /* \"#utility.yul\":16228:16321   */\n      tag_313\n      jump\t// in\n    tag_540:\n        /* \"#utility.yul\":16346:16348   */\n      0x20\n        /* \"#utility.yul\":16341:16344   */\n      dup3\n        /* \"#utility.yul\":16337:16349   */\n      add\n        /* \"#utility.yul\":16330:16349   */\n      swap1\n      pop\n        /* \"#utility.yul\":15989:16355   */\n      swap2\n      swap1\n      pop\n      jump\t// out\n        /* \"#utility.yul\":16361:16780   */\n    tag_115:\n        /* \"#utility.yul\":16527:16531   */\n      0x00\n        /* \"#utility.yul\":16565:16567   */\n      0x20\n        /* \"#utility.yul\":16554:16563   */\n      dup3\n        /* \"#utility.yul\":16550:16568   */\n      add\n        /* \"#utility.yul\":16542:16568   */\n      swap1\n      pop\n        /* \"#utility.yul\":16614:16623   */\n      dup2\n        /* \"#utility.yul\":16608:16612   */\n      dup2\n        /* \"#utility.yul\":16604:16624   */\n      sub\n        /* \"#utility.yul\":16600:16601   */\n      0x00\n        /* \"#utility.yul\":16589:16598   */\n      dup4\n        /* \"#utility.yul\":16585:16602   */\n      add\n        /* \"#utility.yul\":16578:16625   */\n      mstore\n        /* \"#utility.yul\":16642:16773   */\n      tag_542\n        /* \"#utility.yul\":16768:16772   */\n      dup2\n        /* \"#utility.yul\":16642:16773   */\n      tag_314\n      jump\t// in\n    tag_542:\n        /* \"#utility.yul\":16634:16773   */\n      swap1\n      pop\n        /* \"#utility.yul\":16361:16780   */\n      swap2\n      swap1\n      pop\n      jump\t// out\n        /* \"#utility.yul\":16786:16885   */\n    tag_315:\n        /* \"#utility.yul\":16838:16844   */\n      0x00\n        /* \"#utility.yul\":16872:16877   */\n      dup2\n        /* \"#utility.yul\":16866:16878   */\n      mload\n        /* \"#utility.yul\":16856:16878   */\n      swap1\n      pop\n        /* \"#utility.yul\":16786:16885   */\n      swap2\n      swap1\n      pop\n      jump\t// out\n        /* \"#utility.yul\":16891:17071   */\n    tag_316:\n        /* \"#utility.yul\":16939:17016   */\n      0x4e487b7100000000000000000000000000000000000000000000000000000000\n        /* \"#utility.yul\":16936:16937   */\n      0x00\n        /* \"#utility.yul\":16929:17017   */\n      mstore\n        /* \"#utility.yul\":17036:17040   */\n      0x22\n        /* \"#utility.yul\":17033:17034   */\n      0x04\n        /* \"#utility.yul\":17026:17041   */\n      mstore\n        /* \"#utility.yul\":17060:17064   */\n      0x24\n        /* \"#utility.yul\":17057:17058   */\n      0x00\n        /* \"#utility.yul\":17050:17065   */\n      revert\n        /* \"#utility.yul\":17077:17397   */\n    tag_317:\n        /* \"#utility.yul\":17121:17127   */\n      0x00\n        /* \"#utility.yul\":17158:17159   */\n      0x02\n        /* \"#utility.yul\":17152:17156   */\n      dup3\n        /* \"#utility.yul\":17148:17160   */\n      div\n        /* \"#utility.yul\":17138:17160   */\n      swap1\n      pop\n        /* \"#utility.yul\":17205:17206   */\n      0x01\n        /* \"#utility.yul\":17199:17203   */\n      dup3\n        /* \"#utility.yul\":17195:17207   */\n      and\n        /* \"#utility.yul\":17226:17244   */\n      dup1\n        /* \"#utility.yul\":17216:17297   */\n      tag_546\n      jumpi\n        /* \"#utility.yul\":17282:17286   */\n      0x7f\n        /* \"#utility.yul\":17274:17280   */\n      dup3\n        /* \"#utility.yul\":17270:17287   */\n      and\n        /* \"#utility.yul\":17260:17287   */\n      swap2\n      pop\n        /* \"#utility.yul\":17216:17297   */\n    tag_546:\n        /* \"#utility.yul\":17344:17346   */\n      0x20\n        /* \"#utility.yul\":17336:17342   */\n      dup3\n        /* \"#utility.yul\":17333:17347   */\n      lt\n        /* \"#utility.yul\":17313:17331   */\n      dup2\n        /* \"#utility.yul\":17310:17348   */\n      sub\n        /* \"#utility.yul\":17307:17391   */\n      tag_547\n      jumpi\n        /* \"#utility.yul\":17363:17381   */\n      tag_548\n      tag_316\n      jump\t// in\n    tag_548:\n        /* \"#utility.yul\":17307:17391   */\n    tag_547:\n        /* \"#utility.yul\":17128:17397   */\n      pop\n        /* \"#utility.yul\":17077:17397   */\n      swap2\n      swap1\n      pop\n      jump\t// out\n        /* \"#utility.yul\":17403:17544   */\n    tag_318:\n        /* \"#utility.yul\":17452:17456   */\n      0x00\n        /* \"#utility.yul\":17475:17478   */\n      dup2\n        /* \"#utility.yul\":17467:17478   */\n      swap1\n      pop\n        /* \"#utility.yul\":17498:17501   */\n      dup2\n        /* \"#utility.yul\":17495:17496   */\n      0x00\n        /* \"#utility.yul\":17488:17502   */\n      mstore\n        /* \"#utility.yul\":17532:17536   */\n      0x20\n        /* \"#utility.yul\":17529:17530   */\n      0x00\n        /* \"#utility.yul\":17519:17537   */\n      keccak256\n        /* \"#utility.yul\":17511:17537   */\n      swap1\n      pop\n        /* \"#utility.yul\":17403:17544   */\n      swap2\n      swap1\n      pop\n      jump\t// out\n        /* \"#utility.yul\":17550:17643   */\n    tag_319:\n        /* \"#utility.yul\":17587:17593   */\n      0x00\n        /* \"#utility.yul\":17634:17636   */\n      0x20\n        /* \"#utility.yul\":17629:17631   */\n      0x1f\n        /* \"#utility.yul\":17622:17627   */\n      dup4\n        /* \"#utility.yul\":17618:17632   */\n      add\n        /* \"#utility.yul\":17614:17637   */\n      div\n        /* \"#utility.yul\":17604:17637   */\n      swap1\n      pop\n        /* \"#utility.yul\":17550:17643   */\n      swap2\n      swap1\n      pop\n      jump\t// out\n        /* \"#utility.yul\":17649:17756   */\n    tag_320:\n        /* \"#utility.yul\":17693:17701   */\n      0x00\n        /* \"#utility.yul\":17743:17748   */\n      dup3\n        /* \"#utility.yul\":17737:17741   */\n      dup3\n        /* \"#utility.yul\":17733:17749   */\n      shl\n        /* \"#utility.yul\":17712:17749   */\n      swap1\n      pop\n        /* \"#utility.yul\":17649:17756   */\n      swap3\n      swap2\n      pop\n      pop\n      jump\t// out\n        /* \"#utility.yul\":17762:18155   */\n    tag_321:\n        /* \"#utility.yul\":17831:17837   */\n      0x00\n        /* \"#utility.yul\":17881:17882   */\n      0x08\n        /* \"#utility.yul\":17869:17879   */\n      dup4\n        /* \"#utility.yul\":17865:17883   */\n      mul\n        /* \"#utility.yul\":17904:18001   */\n      tag_553\n        /* \"#utility.yul\":17934:18000   */\n      0xffffffffffffffffffffffffffffffffffffffffffffffffffffffffffffffff\n        /* \"#utility.yul\":17923:17932   */\n      dup3\n        /* \"#utility.yul\":17904:18001   */\n      tag_320\n      jump\t// in\n    tag_553:\n        /* \"#utility.yul\":18022:18061   */\n      tag_554\n        /* \"#utility.yul\":18052:18060   */\n      dup7\n        /* \"#utility.yul\":18041:18050   */\n      dup4\n        /* \"#utility.yul\":18022:18061   */\n      tag_320\n      jump\t// in\n    tag_554:\n        /* \"#utility.yul\":18010:18061   */\n      swap6\n      pop\n        /* \"#utility.yul\":18094:18098   */\n      dup1\n        /* \"#utility.yul\":18090:18099   */\n      not\n        /* \"#utility.yul\":18083:18088   */\n      dup5\n        /* \"#utility.yul\":18079:18100   */\n      and\n        /* \"#utility.yul\":18070:18100   */\n      swap4\n      pop\n        /* \"#utility.yul\":18143:18147   */\n      dup1\n        /* \"#utility.yul\":18133:18141   */\n      dup7\n        /* \"#utility.yul\":18129:18148   */\n      and\n        /* \"#utility.yul\":18122:18127   */\n      dup5\n        /* \"#utility.yul\":18119:18149   */\n      or\n        /* \"#utility.yul\":18109:18149   */\n      swap3\n      pop\n        /* \"#utility.yul\":17838:18155   */\n      pop\n      pop\n        /* \"#utility.yul\":17762:18155   */\n      swap4\n      swap3\n      pop\n      pop\n      pop\n      jump\t// out\n        /* \"#utility.yul\":18161:18221   */\n    tag_322:\n        /* \"#utility.yul\":18189:18192   */\n      0x00\n        /* \"#utility.yul\":18210:18215   */\n      dup2\n        /* \"#utility.yul\":18203:18215   */\n      swap1\n      pop\n        /* \"#utility.yul\":18161:18221   */\n      swap2\n      swap1\n      pop\n      jump\t// out\n        /* \"#utility.yul\":18227:18369   */\n    tag_323:\n        /* \"#utility.yul\":18277:18286   */\n      0x00\n        /* \"#utility.yul\":18310:18363   */\n      tag_557\n        /* \"#utility.yul\":18328:18362   */\n      tag_558\n        /* \"#utility.yul\":18337:18361   */\n      tag_559\n        /* \"#utility.yul\":18355:18360   */\n      dup5\n        /* \"#utility.yul\":18337:18361   */\n      tag_271\n      jump\t// in\n    tag_559:\n        /* \"#utility.yul\":18328:18362   */\n      tag_322\n      jump\t// in\n    tag_558:\n        /* \"#utility.yul\":18310:18363   */\n      tag_271\n      jump\t// in\n    tag_557:\n        /* \"#utility.yul\":18297:18363   */\n      swap1\n      pop\n        /* \"#utility.yul\":18227:18369   */\n      swap2\n      swap1\n      pop\n      jump\t// out\n        /* \"#utility.yul\":18375:18450   */\n    tag_324:\n        /* \"#utility.yul\":18418:18421   */\n      0x00\n        /* \"#utility.yul\":18439:18444   */\n      dup2\n        /* \"#utility.yul\":18432:18444   */\n      swap1\n      pop\n        /* \"#utility.yul\":18375:18450   */\n      swap2\n      swap1\n      pop\n      jump\t// out\n        /* \"#utility.yul\":18456:18725   */\n    tag_325:\n        /* \"#utility.yul\":18566:18605   */\n      tag_562\n        /* \"#utility.yul\":18597:18604   */\n      dup4\n        /* \"#utility.yul\":18566:18605   */\n      tag_323\n      jump\t// in\n    tag_562:\n        /* \"#utility.yul\":18627:18718   */\n      tag_563\n        /* \"#utility.yul\":18676:18717   */\n      tag_564\n        /* \"#utility.yul\":18700:18716   */\n      dup3\n        /* \"#utility.yul\":18676:18717   */\n      tag_324\n      jump\t// in\n    tag_564:\n        /* \"#utility.yul\":18668:18674   */\n      dup5\n        /* \"#utility.yul\":18661:18665   */\n      dup5\n        /* \"#utility.yul\":18655:18666   */\n      sload\n        /* \"#utility.yul\":18627:18718   */\n      tag_321\n      jump\t// in\n    tag_563:\n        /* \"#utility.yul\":18621:18625   */\n      dup3\n        /* \"#utility.yul\":18614:18719   */\n      sstore\n        /* \"#utility.yul\":18532:18725   */\n      pop\n        /* \"#utility.yul\":18456:18725   */\n      pop\n      pop\n      pop\n      jump\t// out\n        /* \"#utility.yul\":18731:18804   */\n    tag_326:\n        /* \"#utility.yul\":18776:18779   */\n      0x00\n        /* \"#utility.yul\":18797:18798   */\n      0x00\n        /* \"#utility.yul\":18790:18798   */\n      swap1\n      pop\n        /* \"#utility.yul\":18731:18804   */\n      swap1\n      jump\t// out\n        /* \"#utility.yul\":18810:18999   */\n    tag_327:\n        /* \"#utility.yul\":18887:18919   */\n      tag_567\n      tag_326\n      jump\t// in\n    tag_567:\n        /* \"#utility.yul\":18928:18993   */\n      tag_568\n        /* \"#utility.yul\":18986:18992   */\n      dup2\n        /* \"#utility.yul\":18978:18984   */\n      dup5\n        /* \"#utility.yul\":18972:18976   */\n      dup5\n        /* \"#utility.yul\":18928:18993   */\n      tag_325\n      jump\t// in\n    tag_568:\n        /* \"#utility.yul\":18863:18999   */\n      pop\n        /* \"#utility.yul\":18810:18999   */\n      pop\n      pop\n      jump\t// out\n        /* \"#utility.yul\":19005:19191   */\n    tag_328:\n        /* \"#utility.yul\":19065:19185   */\n    tag_570:\n        /* \"#utility.yul\":19082:19085   */\n      dup2\n        /* \"#utility.yul\":19075:19080   */\n      dup2\n        /* \"#utility.yul\":19072:19086   */\n      lt\n        /* \"#utility.yul\":19065:19185   */\n      iszero\n      tag_572\n      jumpi\n        /* \"#utility.yul\":19136:19175   */\n      tag_573\n        /* \"#utility.yul\":19173:19174   */\n      0x00\n        /* \"#utility.yul\":19166:19171   */\n      dup3\n        /* \"#utility.yul\":19136:19175   */\n      tag_327\n      jump\t// in\n    tag_573:\n        /* \"#utility.yul\":19109:19110   */\n      0x01\n        /* \"#utility.yul\":19102:19107   */\n      dup2\n        /* \"#utility.yul\":19098:19111   */\n      add\n        /* \"#utility.yul\":19089:19111   */\n      swap1\n      pop\n        /* \"#utility.yul\":19065:19185   */\n      jump(tag_570)\n    tag_572:\n        /* \"#utility.yul\":19005:19191   */\n      pop\n      pop\n      jump\t// out\n        /* \"#utility.yul\":19197:19740   */\n    tag_329:\n        /* \"#utility.yul\":19298:19300   */\n      0x1f\n        /* \"#utility.yul\":19293:19296   */\n      dup3\n        /* \"#utility.yul\":19290:19301   */\n      gt\n        /* \"#utility.yul\":19287:19733   */\n      iszero\n      tag_575\n      jumpi\n        /* \"#utility.yul\":19332:19370   */\n      tag_576\n        /* \"#utility.yul\":19364:19369   */\n      dup2\n        /* \"#utility.yul\":19332:19370   */\n      tag_318\n      jump\t// in\n    tag_576:\n        /* \"#utility.yul\":19416:19445   */\n      tag_577\n        /* \"#utility.yul\":19434:19444   */\n      dup5\n        /* \"#utility.yul\":19416:19445   */\n      tag_319\n      jump\t// in\n    tag_577:\n        /* \"#utility.yul\":19406:19414   */\n      dup2\n        /* \"#utility.yul\":19402:19446   */\n      add\n        /* \"#utility.yul\":19599:19601   */\n      0x20\n        /* \"#utility.yul\":19587:19597   */\n      dup6\n        /* \"#utility.yul\":19584:19602   */\n      lt\n        /* \"#utility.yul\":19581:19630   */\n      iszero\n      tag_578\n      jumpi\n        /* \"#utility.yul\":19620:19628   */\n      dup2\n        /* \"#utility.yul\":19605:19628   */\n      swap1\n      pop\n        /* \"#utility.yul\":19581:19630   */\n    tag_578:\n        /* \"#utility.yul\":19643:19723   */\n      tag_579\n        /* \"#utility.yul\":19699:19721   */\n      tag_580\n        /* \"#utility.yul\":19717:19720   */\n      dup6\n        /* \"#utility.yul\":19699:19721   */\n      tag_319\n      jump\t// in\n    tag_580:\n        /* \"#utility.yul\":19689:19697   */\n      dup4\n        /* \"#utility.yul\":19685:19722   */\n      add\n        /* \"#utility.yul\":19672:19683   */\n      dup3\n        /* \"#utility.yul\":19643:19723   */\n      tag_328\n      jump\t// in\n    tag_579:\n        /* \"#utility.yul\":19302:19733   */\n      pop\n      pop\n        /* \"#utility.yul\":19287:19733   */\n    tag_575:\n        /* \"#utility.yul\":19197:19740   */\n      pop\n      pop\n      pop\n      jump\t// out\n        /* \"#utility.yul\":19746:19863   */\n    tag_330:\n        /* \"#utility.yul\":19800:19808   */\n      0x00\n        /* \"#utility.yul\":19850:19855   */\n      dup3\n        /* \"#utility.yul\":19844:19848   */\n      dup3\n        /* \"#utility.yul\":19840:19856   */\n      shr\n        /* \"#utility.yul\":19819:19856   */\n      swap1\n      pop\n        /* \"#utility.yul\":19746:19863   */\n      swap3\n      swap2\n      pop\n      pop\n      jump\t// out\n        /* \"#utility.yul\":19869:20038   */\n    tag_331:\n        /* \"#utility.yul\":19913:19919   */\n      0x00\n        /* \"#utility.yul\":19946:19997   */\n      tag_583\n        /* \"#utility.yul\":19994:19995   */\n      0x00\n        /* \"#utility.yul\":19990:19996   */\n      not\n        /* \"#utility.yul\":19982:19987   */\n      dup5\n        /* \"#utility.yul\":19979:19980   */\n      0x08\n        /* \"#utility.yul\":19975:19988   */\n      mul\n        /* \"#utility.yul\":19946:19997   */\n      tag_330\n      jump\t// in\n    tag_583:\n        /* \"#utility.yul\":19942:19998   */\n      not\n        /* \"#utility.yul\":20027:20031   */\n      dup1\n        /* \"#utility.yul\":20021:20025   */\n      dup4\n        /* \"#utility.yul\":20017:20032   */\n      and\n        /* \"#utility.yul\":20007:20032   */\n      swap2\n      pop\n        /* \"#utility.yul\":19920:20038   */\n      pop\n        /* \"#utility.yul\":19869:20038   */\n      swap3\n      swap2\n      pop\n      pop\n      jump\t// out\n        /* \"#utility.yul\":20043:20338   */\n    tag_332:\n        /* \"#utility.yul\":20119:20123   */\n      0x00\n        /* \"#utility.yul\":20265:20294   */\n      tag_585\n        /* \"#utility.yul\":20290:20293   */\n      dup4\n        /* \"#utility.yul\":20284:20288   */\n      dup4\n        /* \"#utility.yul\":20265:20294   */\n      tag_331\n      jump\t// in\n    tag_585:\n        /* \"#utility.yul\":20257:20294   */\n      swap2\n      pop\n        /* \"#utility.yul\":20327:20330   */\n      dup3\n        /* \"#utility.yul\":20324:20325   */\n      0x02\n        /* \"#utility.yul\":20320:20331   */\n      mul\n        /* \"#utility.yul\":20314:20318   */\n      dup3\n        /* \"#utility.yul\":20311:20332   */\n      or\n        /* \"#utility.yul\":20303:20332   */\n      swap1\n      pop\n        /* \"#utility.yul\":20043:20338   */\n      swap3\n      swap2\n      pop\n      pop\n      jump\t// out\n        /* \"#utility.yul\":20343:21738   */\n    tag_133:\n        /* \"#utility.yul\":20460:20497   */\n      tag_587\n        /* \"#utility.yul\":20493:20496   */\n      dup3\n        /* \"#utility.yul\":20460:20497   */\n      tag_315\n      jump\t// in\n    tag_587:\n        /* \"#utility.yul\":20562:20580   */\n      0xffffffffffffffff\n        /* \"#utility.yul\":20554:20560   */\n      dup2\n        /* \"#utility.yul\":20551:20581   */\n      gt\n        /* \"#utility.yul\":20548:20604   */\n      iszero\n      tag_588\n      jumpi\n        /* \"#utility.yul\":20584:20602   */\n      tag_589\n      tag_125\n      jump\t// in\n    tag_589:\n        /* \"#utility.yul\":20548:20604   */\n    tag_588:\n        /* \"#utility.yul\":20628:20666   */\n      tag_590\n        /* \"#utility.yul\":20660:20664   */\n      dup3\n        /* \"#utility.yul\":20654:20665   */\n      sload\n        /* \"#utility.yul\":20628:20666   */\n      tag_317\n      jump\t// in\n    tag_590:\n        /* \"#utility.yul\":20713:20780   */\n      tag_591\n        /* \"#utility.yul\":20773:20779   */\n      dup3\n        /* \"#utility.yul\":20765:20771   */\n      dup3\n        /* \"#utility.yul\":20759:20763   */\n      dup6\n        /* \"#utility.yul\":20713:20780   */\n      tag_329\n      jump\t// in\n    tag_591:\n        /* \"#utility.yul\":20807:20808   */\n      0x00\n        /* \"#utility.yul\":20831:20835   */\n      0x20\n        /* \"#utility.yul\":20818:20835   */\n      swap1\n      pop\n        /* \"#utility.yul\":20863:20865   */\n      0x1f\n        /* \"#utility.yul\":20855:20861   */\n      dup4\n        /* \"#utility.yul\":20852:20866   */\n      gt\n        /* \"#utility.yul\":20880:20881   */\n      0x01\n        /* \"#utility.yul\":20875:21493   */\n      dup2\n      eq\n      tag_593\n      jumpi\n        /* \"#utility.yul\":21537:21538   */\n      0x00\n        /* \"#utility.yul\":21554:21560   */\n      dup5\n        /* \"#utility.yul\":21551:21628   */\n      iszero\n      tag_594\n      jumpi\n        /* \"#utility.yul\":21603:21612   */\n      dup3\n        /* \"#utility.yul\":21598:21601   */\n      dup8\n        /* \"#utility.yul\":21594:21613   */\n      add\n        /* \"#utility.yul\":21588:21614   */\n      mload\n        /* \"#utility.yul\":21579:21614   */\n      swap1\n      pop\n        /* \"#utility.yul\":21551:21628   */\n    tag_594:\n        /* \"#utility.yul\":21654:21721   */\n      tag_595\n        /* \"#utility.yul\":21714:21720   */\n      dup6\n        /* \"#utility.yul\":21707:21712   */\n      dup3\n        /* \"#utility.yul\":21654:21721   */\n      tag_332\n      jump\t// in\n    tag_595:\n        /* \"#utility.yul\":21648:21652   */\n      dup7\n        /* \"#utility.yul\":21641:21722   */\n      sstore\n        /* \"#utility.yul\":21510:21732   */\n      pop\n        /* \"#utility.yul\":20845:21732   */\n      jump(tag_592)\n        /* \"#utility.yul\":20875:21493   */\n    tag_593:\n        /* \"#utility.yul\":20927:20931   */\n      0x1f\n        /* \"#utility.yul\":20923:20932   */\n      not\n        /* \"#utility.yul\":20915:20921   */\n      dup5\n        /* \"#utility.yul\":20911:20933   */\n      and\n        /* \"#utility.yul\":20961:20998   */\n      tag_596\n        /* \"#utility.yul\":20993:20997   */\n      dup7\n        /* \"#utility.yul\":20961:20998   */\n      tag_318\n      jump\t// in\n    tag_596:\n        /* \"#utility.yul\":21020:21021   */\n      0x00\n        /* \"#utility.yul\":21034:21242   */\n    tag_597:\n        /* \"#utility.yul\":21048:21055   */\n      dup3\n        /* \"#utility.yul\":21045:21046   */\n      dup2\n        /* \"#utility.yul\":21042:21056   */\n      lt\n        /* \"#utility.yul\":21034:21242   */\n      iszero\n      tag_599\n      jumpi\n        /* \"#utility.yul\":21127:21136   */\n      dup5\n        /* \"#utility.yul\":21122:21125   */\n      dup10\n        /* \"#utility.yul\":21118:21137   */\n      add\n        /* \"#utility.yul\":21112:21138   */\n      mload\n        /* \"#utility.yul\":21104:21110   */\n      dup3\n        /* \"#utility.yul\":21097:21139   */\n      sstore\n        /* \"#utility.yul\":21178:21179   */\n      0x01\n        /* \"#utility.yul\":21170:21176   */\n      dup3\n        /* \"#utility.yul\":21166:21180   */\n      add\n        /* \"#utility.yul\":21156:21180   */\n      swap2\n      pop\n        /* \"#utility.yul\":21225:21227   */\n      0x20\n        /* \"#utility.yul\":21214:21223   */\n      dup6\n        /* \"#utility.yul\":21210:21228   */\n      add\n        /* \"#utility.yul\":21197:21228   */\n      swap5\n      pop\n        /* \"#utility.yul\":21071:21075   */\n      0x20\n        /* \"#utility.yul\":21068:21069   */\n      dup2\n        /* \"#utility.yul\":21064:21076   */\n      add\n        /* \"#utility.yul\":21059:21076   */\n      swap1\n      pop\n        /* \"#utility.yul\":21034:21242   */\n      jump(tag_597)\n    tag_599:\n        /* \"#utility.yul\":21270:21276   */\n      dup7\n        /* \"#utility.yul\":21261:21268   */\n      dup4\n        /* \"#utility.yul\":21258:21277   */\n      lt\n        /* \"#utility.yul\":21255:21434   */\n      iszero\n      tag_600\n      jumpi\n        /* \"#utility.yul\":21328:21337   */\n      dup5\n        /* \"#utility.yul\":21323:21326   */\n      dup10\n        /* \"#utility.yul\":21319:21338   */\n      add\n        /* \"#utility.yul\":21313:21339   */\n      mload\n        /* \"#utility.yul\":21371:21419   */\n      tag_601\n        /* \"#utility.yul\":21413:21417   */\n      0x1f\n        /* \"#utility.yul\":21405:21411   */\n      dup10\n        /* \"#utility.yul\":21401:21418   */\n      and\n        /* \"#utility.yul\":21390:21399   */\n      dup3\n        /* \"#utility.yul\":21371:21419   */\n      tag_331\n      jump\t// in\n    tag_601:\n        /* \"#utility.yul\":21363:21369   */\n      dup4\n        /* \"#utility.yul\":21356:21420   */\n      sstore\n        /* \"#utility.yul\":21278:21434   */\n      pop\n        /* \"#utility.yul\":21255:21434   */\n    tag_600:\n        /* \"#utility.yul\":21480:21481   */\n      0x01\n        /* \"#utility.yul\":21476:21477   */\n      0x02\n        /* \"#utility.yul\":21468:21474   */\n      dup9\n        /* \"#utility.yul\":21464:21478   */\n      mul\n        /* \"#utility.yul\":21460:21482   */\n      add\n        /* \"#utility.yul\":21454:21458   */\n      dup9\n        /* \"#utility.yul\":21447:21483   */\n      sstore\n        /* \"#utility.yul\":20882:21493   */\n      pop\n      pop\n      pop\n        /* \"#utility.yul\":20845:21732   */\n    tag_592:\n      pop\n        /* \"#utility.yul\":20435:21738   */\n      pop\n      pop\n      pop\n        /* \"#utility.yul\":20343:21738   */\n      pop\n      pop\n      jump\t// out\n        /* \"#utility.yul\":21744:21858   */\n    tag_333:\n        /* \"#utility.yul\":21811:21817   */\n      0x00\n        /* \"#utility.yul\":21845:21850   */\n      dup2\n        /* \"#utility.yul\":21839:21851   */\n      mload\n        /* \"#utility.yul\":21829:21851   */\n      swap1\n      pop\n        /* \"#utility.yul\":21744:21858   */\n      swap2\n      swap1\n      pop\n      jump\t// out\n        /* \"#utility.yul\":21864:22048   */\n    tag_334:\n        /* \"#utility.yul\":21963:21974   */\n      0x00\n        /* \"#utility.yul\":21997:22003   */\n      dup3\n        /* \"#utility.yul\":21992:21995   */\n      dup3\n        /* \"#utility.yul\":21985:22004   */\n      mstore\n        /* \"#utility.yul\":22037:22041   */\n      0x20\n        /* \"#utility.yul\":22032:22035   */\n      dup3\n        /* \"#utility.yul\":22028:22042   */\n      add\n        /* \"#utility.yul\":22013:22042   */\n      swap1\n      pop\n        /* \"#utility.yul\":21864:22048   */\n      swap3\n      swap2\n      pop\n      pop\n      jump\t// out\n        /* \"#utility.yul\":22054:22186   */\n    tag_335:\n        /* \"#utility.yul\":22121:22125   */\n      0x00\n        /* \"#utility.yul\":22144:22147   */\n      dup2\n        /* \"#utility.yul\":22136:22147   */\n      swap1\n      pop\n        /* \"#utility.yul\":22174:22178   */\n      0x20\n        /* \"#utility.yul\":22169:22172   */\n      dup3\n        /* \"#utility.yul\":22165:22179   */\n      add\n        /* \"#utility.yul\":22157:22179   */\n      swap1\n      pop\n        /* \"#utility.yul\":22054:22186   */\n      swap2\n      swap1\n      pop\n      jump\t// out\n        /* \"#utility.yul\":22192:22300   */\n    tag_336:\n        /* \"#utility.yul\":22269:22293   */\n      tag_606\n        /* \"#utility.yul\":22287:22292   */\n      dup2\n        /* \"#utility.yul\":22269:22293   */\n      tag_281\n      jump\t// in\n    tag_606:\n        /* \"#utility.yul\":22264:22267   */\n      dup3\n        /* \"#utility.yul\":22257:22294   */\n      mstore\n        /* \"#utility.yul\":22192:22300   */\n      pop\n      pop\n      jump\t// out\n        /* \"#utility.yul\":22306:22485   */\n    tag_337:\n        /* \"#utility.yul\":22375:22385   */\n      0x00\n        /* \"#utility.yul\":22396:22442   */\n      tag_608\n        /* \"#utility.yul\":22438:22441   */\n      dup4\n        /* \"#utility.yul\":22430:22436   */\n      dup4\n        /* \"#utility.yul\":22396:22442   */\n      tag_336\n      jump\t// in\n    tag_608:\n        /* \"#utility.yul\":22474:22478   */\n      0x20\n        /* \"#utility.yul\":22469:22472   */\n      dup4\n        /* \"#utility.yul\":22465:22479   */\n      add\n        /* \"#utility.yul\":22451:22479   */\n      swap1\n      pop\n        /* \"#utility.yul\":22306:22485   */\n      swap3\n      swap2\n      pop\n      pop\n      jump\t// out\n        /* \"#utility.yul\":22491:22604   */\n    tag_338:\n        /* \"#utility.yul\":22561:22565   */\n      0x00\n        /* \"#utility.yul\":22593:22597   */\n      0x20\n        /* \"#utility.yul\":22588:22591   */\n      dup3\n        /* \"#utility.yul\":22584:22598   */\n      add\n        /* \"#utility.yul\":22576:22598   */\n      swap1\n      pop\n        /* \"#utility.yul\":22491:22604   */\n      swap2\n      swap1\n      pop\n      jump\t// out\n        /* \"#utility.yul\":22640:23372   */\n    tag_339:\n        /* \"#utility.yul\":22759:22762   */\n      0x00\n        /* \"#utility.yul\":22788:22842   */\n      tag_611\n        /* \"#utility.yul\":22836:22841   */\n      dup3\n        /* \"#utility.yul\":22788:22842   */\n      tag_333\n      jump\t// in\n    tag_611:\n        /* \"#utility.yul\":22858:22944   */\n      tag_612\n        /* \"#utility.yul\":22937:22943   */\n      dup2\n        /* \"#utility.yul\":22932:22935   */\n      dup6\n        /* \"#utility.yul\":22858:22944   */\n      tag_334\n      jump\t// in\n    tag_612:\n        /* \"#utility.yul\":22851:22944   */\n      swap4\n      pop\n        /* \"#utility.yul\":22968:23024   */\n      tag_613\n        /* \"#utility.yul\":23018:23023   */\n      dup4\n        /* \"#utility.yul\":22968:23024   */\n      tag_335\n      jump\t// in\n    tag_613:\n        /* \"#utility.yul\":23047:23054   */\n      dup1\n        /* \"#utility.yul\":23078:23079   */\n      0x00\n        /* \"#utility.yul\":23063:23347   */\n    tag_614:\n        /* \"#utility.yul\":23088:23094   */\n      dup4\n        /* \"#utility.yul\":23085:23086   */\n      dup2\n        /* \"#utility.yul\":23082:23095   */\n      lt\n        /* \"#utility.yul\":23063:23347   */\n      iszero\n      tag_616\n      jumpi\n        /* \"#utility.yul\":23164:23170   */\n      dup2\n        /* \"#utility.yul\":23158:23171   */\n      mload\n        /* \"#utility.yul\":23191:23254   */\n      tag_617\n        /* \"#utility.yul\":23250:23253   */\n      dup9\n        /* \"#utility.yul\":23235:23248   */\n      dup3\n        /* \"#utility.yul\":23191:23254   */\n      tag_337\n      jump\t// in\n    tag_617:\n        /* \"#utility.yul\":23184:23254   */\n      swap8\n      pop\n        /* \"#utility.yul\":23277:23337   */\n      tag_618\n        /* \"#utility.yul\":23330:23336   */\n      dup4\n        /* \"#utility.yul\":23277:23337   */\n      tag_338\n      jump\t// in\n    tag_618:\n        /* \"#utility.yul\":23267:23337   */\n      swap3\n      pop\n        /* \"#utility.yul\":23123:23347   */\n      pop\n        /* \"#utility.yul\":23110:23111   */\n      0x01\n        /* \"#utility.yul\":23107:23108   */\n      dup2\n        /* \"#utility.yul\":23103:23112   */\n      add\n        /* \"#utility.yul\":23098:23112   */\n      swap1\n      pop\n        /* \"#utility.yul\":23063:23347   */\n      jump(tag_614)\n    tag_616:\n        /* \"#utility.yul\":23067:23081   */\n      pop\n        /* \"#utility.yul\":23363:23366   */\n      dup6\n        /* \"#utility.yul\":23356:23366   */\n      swap4\n      pop\n        /* \"#utility.yul\":22764:23372   */\n      pop\n      pop\n      pop\n        /* \"#utility.yul\":22640:23372   */\n      swap3\n      swap2\n      pop\n      pop\n      jump\t// out\n        /* \"#utility.yul\":23378:23517   */\n    tag_340:\n        /* \"#utility.yul\":23467:23473   */\n      dup3\n        /* \"#utility.yul\":23462:23465   */\n      dup2\n        /* \"#utility.yul\":23457:23460   */\n      dup4\n        /* \"#utility.yul\":23451:23474   */\n      mcopy\n        /* \"#utility.yul\":23508:23509   */\n      0x00\n        /* \"#utility.yul\":23499:23505   */\n      dup4\n        /* \"#utility.yul\":23494:23497   */\n      dup4\n        /* \"#utility.yul\":23490:23506   */\n      add\n        /* \"#utility.yul\":23483:23510   */\n      mstore\n        /* \"#utility.yul\":23378:23517   */\n      pop\n      pop\n      pop\n      jump\t// out\n        /* \"#utility.yul\":23523:23900   */\n    tag_341:\n        /* \"#utility.yul\":23611:23614   */\n      0x00\n        /* \"#utility.yul\":23639:23678   */\n      tag_621\n        /* \"#utility.yul\":23672:23677   */\n      dup3\n        /* \"#utility.yul\":23639:23678   */\n      tag_315\n      jump\t// in\n    tag_621:\n        /* \"#utility.yul\":23694:23765   */\n      tag_622\n        /* \"#utility.yul\":23758:23764   */\n      dup2\n        /* \"#utility.yul\":23753:23756   */\n      dup6\n        /* \"#utility.yul\":23694:23765   */\n      tag_312\n      jump\t// in\n    tag_622:\n        /* \"#utility.yul\":23687:23765   */\n      swap4\n      pop\n        /* \"#utility.yul\":23774:23839   */\n      tag_623\n        /* \"#utility.yul\":23832:23838   */\n      dup2\n        /* \"#utility.yul\":23827:23830   */\n      dup6\n        /* \"#utility.yul\":23820:23824   */\n      0x20\n        /* \"#utility.yul\":23813:23818   */\n      dup7\n        /* \"#utility.yul\":23809:23825   */\n      add\n        /* \"#utility.yul\":23774:23839   */\n      tag_340\n      jump\t// in\n    tag_623:\n        /* \"#utility.yul\":23864:23893   */\n      tag_624\n        /* \"#utility.yul\":23886:23892   */\n      dup2\n        /* \"#utility.yul\":23864:23893   */\n      tag_290\n      jump\t// in\n    tag_624:\n        /* \"#utility.yul\":23859:23862   */\n      dup5\n        /* \"#utility.yul\":23855:23894   */\n      add\n        /* \"#utility.yul\":23848:23894   */\n      swap2\n      pop\n        /* \"#utility.yul\":23615:23900   */\n      pop\n        /* \"#utility.yul\":23523:23900   */\n      swap3\n      swap2\n      pop\n      pop\n      jump\t// out\n        /* \"#utility.yul\":23906:24717   */\n    tag_140:\n        /* \"#utility.yul\":24161:24165   */\n      0x00\n        /* \"#utility.yul\":24199:24202   */\n      0x80\n        /* \"#utility.yul\":24188:24197   */\n      dup3\n        /* \"#utility.yul\":24184:24203   */\n      add\n        /* \"#utility.yul\":24176:24203   */\n      swap1\n      pop\n        /* \"#utility.yul\":24249:24258   */\n      dup2\n        /* \"#utility.yul\":24243:24247   */\n      dup2\n        /* \"#utility.yul\":24239:24259   */\n      sub\n        /* \"#utility.yul\":24235:24236   */\n      0x00\n        /* \"#utility.yul\":24224:24233   */\n      dup4\n        /* \"#utility.yul\":24220:24237   */\n      add\n        /* \"#utility.yul\":24213:24260   */\n      mstore\n        /* \"#utility.yul\":24277:24385   */\n      tag_626\n        /* \"#utility.yul\":24380:24384   */\n      dup2\n        /* \"#utility.yul\":24371:24377   */\n      dup8\n        /* \"#utility.yul\":24277:24385   */\n      tag_339\n      jump\t// in\n    tag_626:\n        /* \"#utility.yul\":24269:24385   */\n      swap1\n      pop\n        /* \"#utility.yul\":24395:24475   */\n      tag_627\n        /* \"#utility.yul\":24471:24473   */\n      0x20\n        /* \"#utility.yul\":24460:24469   */\n      dup4\n        /* \"#utility.yul\":24456:24474   */\n      add\n        /* \"#utility.yul\":24447:24453   */\n      dup7\n        /* \"#utility.yul\":24395:24475   */\n      tag_287\n      jump\t// in\n    tag_627:\n        /* \"#utility.yul\":24522:24531   */\n      dup2\n        /* \"#utility.yul\":24516:24520   */\n      dup2\n        /* \"#utility.yul\":24512:24532   */\n      sub\n        /* \"#utility.yul\":24507:24509   */\n      0x40\n        /* \"#utility.yul\":24496:24505   */\n      dup4\n        /* \"#utility.yul\":24492:24510   */\n      add\n        /* \"#utility.yul\":24485:24533   */\n      mstore\n        /* \"#utility.yul\":24550:24628   */\n      tag_628\n        /* \"#utility.yul\":24623:24627   */\n      dup2\n        /* \"#utility.yul\":24614:24620   */\n      dup6\n        /* \"#utility.yul\":24550:24628   */\n      tag_341\n      jump\t// in\n    tag_628:\n        /* \"#utility.yul\":24542:24628   */\n      swap1\n      pop\n        /* \"#utility.yul\":24638:24710   */\n      tag_629\n        /* \"#utility.yul\":24706:24708   */\n      0x60\n        /* \"#utility.yul\":24695:24704   */\n      dup4\n        /* \"#utility.yul\":24691:24709   */\n      add\n        /* \"#utility.yul\":24682:24688   */\n      dup5\n        /* \"#utility.yul\":24638:24710   */\n      tag_272\n      jump\t// in\n    tag_629:\n        /* \"#utility.yul\":23906:24717   */\n      swap6\n      swap5\n      pop\n      pop\n      pop\n      pop\n      pop\n      jump\t// out\n        /* \"#utility.yul\":24723:24892   */\n    tag_342:\n        /* \"#utility.yul\":24863:24884   */\n      0x696e646578206f7574206f6620626f756e647300000000000000000000000000\n        /* \"#utility.yul\":24859:24860   */\n      0x00\n        /* \"#utility.yul\":24851:24857   */\n      dup3\n        /* \"#utility.yul\":24847:24861   */\n      add\n        /* \"#utility.yul\":24840:24885   */\n      mstore\n        /* \"#utility.yul\":24723:24892   */\n      pop\n      jump\t// out\n        /* \"#utility.yul\":24898:25264   */\n    tag_343:\n        /* \"#utility.yul\":25040:25043   */\n      0x00\n        /* \"#utility.yul\":25061:25128   */\n      tag_632\n        /* \"#utility.yul\":25125:25127   */\n      0x13\n        /* \"#utility.yul\":25120:25123   */\n      dup4\n        /* \"#utility.yul\":25061:25128   */\n      tag_312\n      jump\t// in\n    tag_632:\n        /* \"#utility.yul\":25054:25128   */\n      swap2\n      pop\n        /* \"#utility.yul\":25137:25230   */\n      tag_633\n        /* \"#utility.yul\":25226:25229   */\n      dup3\n        /* \"#utility.yul\":25137:25230   */\n      tag_342\n      jump\t// in\n    tag_633:\n        /* \"#utility.yul\":25255:25257   */\n      0x20\n        /* \"#utility.yul\":25250:25253   */\n      dup3\n        /* \"#utility.yul\":25246:25258   */\n      add\n        /* \"#utility.yul\":25239:25258   */\n      swap1\n      pop\n        /* \"#utility.yul\":24898:25264   */\n      swap2\n      swap1\n      pop\n      jump\t// out\n        /* \"#utility.yul\":25270:25689   */\n    tag_241:\n        /* \"#utility.yul\":25436:25440   */\n      0x00\n        /* \"#utility.yul\":25474:25476   */\n      0x20\n        /* \"#utility.yul\":25463:25472   */\n      dup3\n        /* \"#utility.yul\":25459:25477   */\n      add\n        /* \"#utility.yul\":25451:25477   */\n      swap1\n      pop\n        /* \"#utility.yul\":25523:25532   */\n      dup2\n        /* \"#utility.yul\":25517:25521   */\n      dup2\n        /* \"#utility.yul\":25513:25533   */\n      sub\n        /* \"#utility.yul\":25509:25510   */\n      0x00\n        /* \"#utility.yul\":25498:25507   */\n      dup4\n        /* \"#utility.yul\":25494:25511   */\n      add\n        /* \"#utility.yul\":25487:25534   */\n      mstore\n        /* \"#utility.yul\":25551:25682   */\n      tag_635\n        /* \"#utility.yul\":25677:25681   */\n      dup2\n        /* \"#utility.yul\":25551:25682   */\n      tag_343\n      jump\t// in\n    tag_635:\n        /* \"#utility.yul\":25543:25682   */\n      swap1\n      pop\n        /* \"#utility.yul\":25270:25689   */\n      swap2\n      swap1\n      pop\n      jump\t// out\n        /* \"#utility.yul\":25695:25875   */\n    tag_251:\n        /* \"#utility.yul\":25743:25820   */\n      0x4e487b7100000000000000000000000000000000000000000000000000000000\n        /* \"#utility.yul\":25740:25741   */\n      0x00\n        /* \"#utility.yul\":25733:25821   */\n      mstore\n        /* \"#utility.yul\":25840:25844   */\n      0x31\n        /* \"#utility.yul\":25837:25838   */\n      0x04\n        /* \"#utility.yul\":25830:25845   */\n      mstore\n        /* \"#utility.yul\":25864:25868   */\n      0x24\n        /* \"#utility.yul\":25861:25862   */\n      0x00\n        /* \"#utility.yul\":25854:25869   */\n      revert\n\n    auxdata: 0xa26469706673582212205955f596cdb255c2dc1647b25952fc52eb36af27b371a642316e29d6bbea7dce64736f6c634300081e0033\n}\n",
				"bytecode": {
					"linkReferences": {},
					"object": "608060405234801561000f575f5ffd5b505f6002819055505f67ffffffffffffffff8111156100315761003061011d565b5b60405190808252806020026020018201604052801561005f5781602001602082028036833780820191505090505b506001908051906020019061007592919061007b565b5061014a565b828054828255905f5260205f209081019282156100f1579160200282015b828111156100f0578251825f6101000a81548173ffffffffffffffffffffffffffffffffffffffff021916908373ffffffffffffffffffffffffffffffffffffffff16021790555091602001919060010190610099565b5b5090506100fe9190610102565b5090565b5b80821115610119575f815f905550600101610103565b5090565b7f4e487b71000000000000000000000000000000000000000000000000000000005f52604160045260245ffd5b612396806101575f395ff3fe608060405234801561000f575f5ffd5b506004361061009c575f3560e01c806349d269211161006457806349d269211461016d578063803863fb1461019d5780638457a66a146101bb578063d9514950146101eb578063e92626ae1461021b5761009c565b806322a51c29146100a057806322d616d2146100be5780632690eac4146100ef5780633063c6341461011f5780633210243e1461014f575b5f5ffd5b6100a8610239565b6040516100b5919061154c565b60405180910390f35b6100d860048036038101906100d391906115a0565b61023e565b6040516100e69291906115f8565b60405180910390f35b61010960048036038101906101049190611679565b61064b565b604051610116919061172a565b60405180910390f35b610139600480360381019061013491906118a2565b610688565b604051610146919061190e565b60405180910390f35b610157610960565b604051610164919061154c565b60405180910390f35b61018760048036038101906101829190611927565b610965565b604051610194919061154c565b60405180910390f35b6101a561097a565b6040516101b2919061154c565b60405180910390f35b6101d560048036038101906101d09190611952565b610980565b6040516101e2919061198c565b60405180910390f35b61020560048036038101906102009190611a69565b6109bb565b604051610212919061190e565b60405180910390f35b610223610ab9565b604051610230919061154c565b60405180910390f35b602881565b5f5f61024a8433610abe565b1561025a575f5f91509150610644565b5f60045f8681526020019081526020015f206007015490508360045f8781526020019081526020015f20600501828154811061029957610298611ab0565b5b905f5260205f2001819055503360045f8781526020019081526020015f2060060182815481106102cc576102cb611ab0565b5b905f5260205f20015f6101000a81548173ffffffffffffffffffffffffffffffffffffffff021916908373ffffffffffffffffffffffffffffffffffffffff16021790555060045f8681526020019081526020015f206007015f81548092919061033590611b0a565b919050555060045f8681526020019081526020015f2060030180549050600261035e9190611b51565b600360045f8881526020019081526020015f206007015461037f9190611b51565b1061063c575f5f90505f5f90505f5f90505b60045f8981526020019081526020015f20600701548110156105115760045f8981526020019081526020015f206007015460045f8381526020019081526020015f20600401546103e19190611bbf565b60035f60045f8c81526020019081526020015f20600601848154811061040a57610409611ab0565b5b905f5260205f20015f9054906101000a900473ffffffffffffffffffffffffffffffffffffffff1673ffffffffffffffffffffffffffffffffffffffff1673ffffffffffffffffffffffffffffffffffffffff1681526020019081526020015f205f8282546104799190611bef565b9250508190555060045f8981526020019081526020015f2060050181815481106104a6576104a5611ab0565b5b905f5260205f200154836104ba9190611bef565b9250600260045f8a81526020019081526020015f2060050182815481106104e4576104e3611ab0565b5b905f5260205f2001546104f79190611d5d565b826105029190611bef565b91508080600101915050610391565b505f60045f8981526020019081526020015f206001015f9054906101000a900473ffffffffffffffffffffffffffffffffffffffff169050610554888484610bba565b5060045f8981526020019081526020015f2060070154836105759190611bbf565b925082836105839190611b51565b8261058e9190611da7565b915060045f8981526020019081526020015f2060070154826105b09190611bbf565b91508073ffffffffffffffffffffffffffffffffffffffff1663e5d60ce1846040518263ffffffff1660e01b81526004016105eb919061154c565b6020604051808303815f875af1158015610607573d5f5f3e3d5ffd5b505050506040513d601f19601f8201168201806040525081019061062b9190611e04565b508260019550955050505050610644565b5f5f92509250505b9250929050565b5f602052815f5260405f208181548110610663575f80fd5b905f5260205f209060209182820401919006915091509054906101000a900460ff1681565b5f600a8210156106cd576040517f08c379a00000000000000000000000000000000000000000000000000000000081526004016106c490611e89565b60405180910390fd5b60018080549050116106e1575f9050610959565b5f6106eb84610e75565b90505f60025f81548092919061070090611b0a565b9190505590506040518061012001604052808281526020013373ffffffffffffffffffffffffffffffffffffffff168152602001866002811115610747576107466116b7565b5b8152602001878152602001838152602001858152602001835167ffffffffffffffff8111156107795761077861175b565b5b6040519080825280602002602001820160405280156107a75781602001602082028036833780820191505090505b508152602001835167ffffffffffffffff8111156107c8576107c761175b565b5b6040519080825280602002602001820160405280156107f65781602001602082028036833780820191505090505b5081526020015f81525060045f8381526020019081526020015f205f820151815f01556020820151816001015f6101000a81548173ffffffffffffffffffffffffffffffffffffffff021916908373ffffffffffffffffffffffffffffffffffffffff16021790555060408201518160010160146101000a81548160ff0219169083600281111561088a576108896116b7565b5b021790555060608201518160020190816108a491906120ae565b5060808201518160030190805190602001906108c1929190611396565b5060a0820151816004015560c08201518160050190805190602001906108e892919061141d565b5060e0820151816006019080519060200190610905929190611396565b506101008201518160070155905050807fe84d10fa98af4ed68014b5eb0367cbcb5ee2664f554195989f89f9bc497090048387898860405161094a949392919061227a565b60405180910390a26001925050505b9392505050565b605081565b6003602052805f5260405f205f915090505481565b60025481565b6001818154811061098f575f80fd5b905f5260205f20015f915054906101000a900473ffffffffffffffffffffffffffffffffffffffff1681565b5f605060035f3373ffffffffffffffffffffffffffffffffffffffff1673ffffffffffffffffffffffffffffffffffffffff1681526020019081526020015f2081905550815f5f3373ffffffffffffffffffffffffffffffffffffffff1673ffffffffffffffffffffffffffffffffffffffff1681526020019081526020015f209080519060200190610a4f929190611468565b50600133908060018154018082558091505060019003905f5260205f20015f9091909190916101000a81548173ffffffffffffffffffffffffffffffffffffffff021916908373ffffffffffffffffffffffffffffffffffffffff16021790555060019050919050565b600a81565b5f5f60045f8581526020019081526020015f205f015403610ae1575f9050610bb4565b5f60045f8581526020019081526020015f206007015490505f8103610b09575f915050610bb4565b5f5f90505b81811015610bae578373ffffffffffffffffffffffffffffffffffffffff1660045f8781526020019081526020015f206006018281548110610b5357610b52611ab0565b5b905f5260205f20015f9054906101000a900473ffffffffffffffffffffffffffffffffffffffff1673ffffffffffffffffffffffffffffffffffffffff1603610ba157600192505050610bb4565b8080600101915050610b0e565b505f9150505b92915050565b5f5f5f90505b60045f8681526020019081526020015f2060070154811015610e69575f60045f8781526020019081526020015f206005018281548110610c0357610c02611ab0565b5b905f5260205f2001549050808486610c1b9190611da7565b101580610c335750808486610c309190611bef565b11155b15610cda57602860035f60045f8a81526020019081526020015f206003018581548110610c6357610c62611ab0565b5b905f5260205f20015f9054906101000a900473ffffffffffffffffffffffffffffffffffffffff1673ffffffffffffffffffffffffffffffffffffffff1673ffffffffffffffffffffffffffffffffffffffff1681526020019081526020015f205f828254610cd29190611da7565b925050819055505b5f60035f60045f8a81526020019081526020015f206003018581548110610d0457610d03611ab0565b5b905f5260205f20015f9054906101000a900473ffffffffffffffffffffffffffffffffffffffff1673ffffffffffffffffffffffffffffffffffffffff1673ffffffffffffffffffffffffffffffffffffffff1681526020019081526020015f205411610e5b575f60045f8881526020019081526020015f206003018381548110610d9257610d91611ab0565b5b905f5260205f20015f9054906101000a900473ffffffffffffffffffffffffffffffffffffffff1690505f5f90505b600180549050811015610e58578173ffffffffffffffffffffffffffffffffffffffff1660018281548110610df957610df8611ab0565b5b905f5260205f20015f9054906101000a900473ffffffffffffffffffffffffffffffffffffffff1673ffffffffffffffffffffffffffffffffffffffff1603610e4b57610e458161125d565b50610e58565b8080600101915050610dc1565b50505b508080600101915050610bc0565b50600190509392505050565b60605f5f90505f5f90505b60018054905081101561100e575f60018281548110610ea257610ea1611ab0565b5b905f5260205f20015f9054906101000a900473ffffffffffffffffffffffffffffffffffffffff1690505f5f5f8373ffffffffffffffffffffffffffffffffffffffff1673ffffffffffffffffffffffffffffffffffffffff1681526020019081526020015f20805480602002602001604051908101604052809291908181526020018280548015610f8457602002820191905f5260205f20905f905b82829054906101000a900460ff166002811115610f5f57610f5e6116b7565b5b815260200190600101906020825f01049283019260010382029150808411610f3f5790505b505050505090505f5f90505b8151811015610ffe57866002811115610fac57610fab6116b7565b5b828281518110610fbf57610fbe611ab0565b5b60200260200101516002811115610fd957610fd86116b7565b5b03610ff1578480610fe990611b0a565b955050610ffe565b8080600101915050610f90565b5050508080600101915050610e80565b505f8167ffffffffffffffff81111561102a5761102961175b565b5b6040519080825280602002602001820160405280156110585781602001602082028036833780820191505090505b5090505f5f90505b600180549050811015611252575f6001828154811061108257611081611ab0565b5b905f5260205f20015f9054906101000a900473ffffffffffffffffffffffffffffffffffffffff1690505f5f5f8373ffffffffffffffffffffffffffffffffffffffff1673ffffffffffffffffffffffffffffffffffffffff1681526020019081526020015f2080548060200260200160405190810160405280929190818152602001828054801561116457602002820191905f5260205f20905f905b82829054906101000a900460ff16600281111561113f5761113e6116b7565b5b815260200190600101906020825f0104928301926001038202915080841161111f5790505b505050505090505f5f90505f5f90505b82518110156111d8578860028111156111905761118f6116b7565b5b8382815181106111a3576111a2611ab0565b5b602002602001015160028111156111bd576111bc6116b7565b5b036111cb57600191506111d8565b8080600101915050611174565b50801561123c57828585815181106111f3576111f2611ab0565b5b602002602001019073ffffffffffffffffffffffffffffffffffffffff16908173ffffffffffffffffffffffffffffffffffffffff1681525050838061123890611b0a565b9450505b505050808061124a90611b0a565b915050611060565b508092505050919050565b5f60018054905082106112a5576040517f08c379a000000000000000000000000000000000000000000000000000000000815260040161129c90612315565b60405180910390fd5b60018080805490506112b79190611da7565b815481106112c8576112c7611ab0565b5b905f5260205f20015f9054906101000a900473ffffffffffffffffffffffffffffffffffffffff166001838154811061130457611303611ab0565b5b905f5260205f20015f6101000a81548173ffffffffffffffffffffffffffffffffffffffff021916908373ffffffffffffffffffffffffffffffffffffffff160217905550600180548061135b5761135a612333565b5b600190038181905f5260205f20015f6101000a81549073ffffffffffffffffffffffffffffffffffffffff0219169055905560019050919050565b828054828255905f5260205f2090810192821561140c579160200282015b8281111561140b578251825f6101000a81548173ffffffffffffffffffffffffffffffffffffffff021916908373ffffffffffffffffffffffffffffffffffffffff160217905550916020019190600101906113b4565b5b5090506114199190611519565b5090565b828054828255905f5260205f20908101928215611457579160200282015b8281111561145657825182559160200191906001019061143b565b5b5090506114649190611519565b5090565b828054828255905f5260205f2090601f01602090048101928215611508579160200282015f5b838211156114da57835183826101000a81548160ff021916908360028111156114ba576114b96116b7565b5b021790555092602001926001016020815f0104928301926001030261148e565b80156115065782816101000a81549060ff02191690556001016020815f010492830192600103026114da565b505b5090506115159190611519565b5090565b5b80821115611530575f815f90555060010161151a565b5090565b5f819050919050565b61154681611534565b82525050565b5f60208201905061155f5f83018461153d565b92915050565b5f604051905090565b5f5ffd5b5f5ffd5b61157f81611534565b8114611589575f5ffd5b50565b5f8135905061159a81611576565b92915050565b5f5f604083850312156115b6576115b561156e565b5b5f6115c38582860161158c565b92505060206115d48582860161158c565b9150509250929050565b5f8115159050919050565b6115f2816115de565b82525050565b5f60408201905061160b5f83018561153d565b61161860208301846115e9565b9392505050565b5f73ffffffffffffffffffffffffffffffffffffffff82169050919050565b5f6116488261161f565b9050919050565b6116588161163e565b8114611662575f5ffd5b50565b5f813590506116738161164f565b92915050565b5f5f6040838503121561168f5761168e61156e565b5b5f61169c85828601611665565b92505060206116ad8582860161158c565b9150509250929050565b7f4e487b71000000000000000000000000000000000000000000000000000000005f52602160045260245ffd5b600381106116f5576116f46116b7565b5b50565b5f819050611705826116e4565b919050565b5f611714826116f8565b9050919050565b6117248161170a565b82525050565b5f60208201905061173d5f83018461171b565b92915050565b5f5ffd5b5f5ffd5b5f601f19601f8301169050919050565b7f4e487b71000000000000000000000000000000000000000000000000000000005f52604160045260245ffd5b6117918261174b565b810181811067ffffffffffffffff821117156117b0576117af61175b565b5b80604052505050565b5f6117c2611565565b90506117ce8282611788565b919050565b5f67ffffffffffffffff8211156117ed576117ec61175b565b5b6117f68261174b565b9050602081019050919050565b828183375f83830152505050565b5f61182361181e846117d3565b6117b9565b90508281526020810184848401111561183f5761183e611747565b5b61184a848285611803565b509392505050565b5f82601f83011261186657611865611743565b5b8135611876848260208601611811565b91505092915050565b6003811061188b575f5ffd5b50565b5f8135905061189c8161187f565b92915050565b5f5f5f606084860312156118b9576118b861156e565b5b5f84013567ffffffffffffffff8111156118d6576118d5611572565b5b6118e286828701611852565b93505060206118f38682870161188e565b92505060406119048682870161158c565b9150509250925092565b5f6020820190506119215f8301846115e9565b92915050565b5f6020828403121561193c5761193b61156e565b5b5f61194984828501611665565b91505092915050565b5f602082840312156119675761196661156e565b5b5f6119748482850161158c565b91505092915050565b6119868161163e565b82525050565b5f60208201905061199f5f83018461197d565b92915050565b5f67ffffffffffffffff8211156119bf576119be61175b565b5b602082029050602081019050919050565b5f5ffd5b5f6119e66119e1846119a5565b6117b9565b90508083825260208201905060208402830185811115611a0957611a086119d0565b5b835b81811015611a325780611a1e888261188e565b845260208401935050602081019050611a0b565b5050509392505050565b5f82601f830112611a5057611a4f611743565b5b8135611a608482602086016119d4565b91505092915050565b5f60208284031215611a7e57611a7d61156e565b5b5f82013567ffffffffffffffff811115611a9b57611a9a611572565b5b611aa784828501611a3c565b91505092915050565b7f4e487b71000000000000000000000000000000000000000000000000000000005f52603260045260245ffd5b7f4e487b71000000000000000000000000000000000000000000000000000000005f52601160045260245ffd5b5f611b1482611534565b91507fffffffffffffffffffffffffffffffffffffffffffffffffffffffffffffffff8203611b4657611b45611add565b5b600182019050919050565b5f611b5b82611534565b9150611b6683611534565b9250828202611b7481611534565b91508282048414831517611b8b57611b8a611add565b5b5092915050565b7f4e487b71000000000000000000000000000000000000000000000000000000005f52601260045260245ffd5b5f611bc982611534565b9150611bd483611534565b925082611be457611be3611b92565b5b828204905092915050565b5f611bf982611534565b9150611c0483611534565b9250828201905080821115611c1c57611c1b611add565b5b92915050565b5f8160011c9050919050565b5f5f8291508390505b6001851115611c7757808604811115611c5357611c52611add565b5b6001851615611c625780820291505b8081029050611c7085611c22565b9450611c37565b94509492505050565b5f82611c8f5760019050611d4a565b81611c9c575f9050611d4a565b8160018114611cb25760028114611cbc57611ceb565b6001915050611d4a565b60ff841115611cce57611ccd611add565b5b8360020a915084821115611ce557611ce4611add565b5b50611d4a565b5060208310610133831016604e8410600b8410161715611d205782820a905083811115611d1b57611d1a611add565b5b611d4a565b611d2d8484846001611c2e565b92509050818404811115611d4457611d43611add565b5b81810290505b9392505050565b5f60ff82169050919050565b5f611d6782611534565b9150611d7283611d51565b9250611d9f7fffffffffffffffffffffffffffffffffffffffffffffffffffffffffffffffff8484611c80565b905092915050565b5f611db182611534565b9150611dbc83611534565b9250828203905081811115611dd457611dd3611add565b5b92915050565b611de3816115de565b8114611ded575f5ffd5b50565b5f81519050611dfe81611dda565b92915050565b5f60208284031215611e1957611e1861156e565b5b5f611e2684828501611df0565b91505092915050565b5f82825260208201905092915050565b7f746f6f206c6573732066656500000000000000000000000000000000000000005f82015250565b5f611e73600c83611e2f565b9150611e7e82611e3f565b602082019050919050565b5f6020820190508181035f830152611ea081611e67565b9050919050565b5f81519050919050565b7f4e487b71000000000000000000000000000000000000000000000000000000005f52602260045260245ffd5b5f6002820490506001821680611ef557607f821691505b602082108103611f0857611f07611eb1565b5b50919050565b5f819050815f5260205f209050919050565b5f6020601f8301049050919050565b5f82821b905092915050565b5f60088302611f6a7fffffffffffffffffffffffffffffffffffffffffffffffffffffffffffffffff82611f2f565b611f748683611f2f565b95508019841693508086168417925050509392505050565b5f819050919050565b5f611faf611faa611fa584611534565b611f8c565b611534565b9050919050565b5f819050919050565b611fc883611f95565b611fdc611fd482611fb6565b848454611f3b565b825550505050565b5f5f905090565b611ff3611fe4565b611ffe818484611fbf565b505050565b5b81811015612021576120165f82611feb565b600181019050612004565b5050565b601f8211156120665761203781611f0e565b61204084611f20565b8101602085101561204f578190505b61206361205b85611f20565b830182612003565b50505b505050565b5f82821c905092915050565b5f6120865f198460080261206b565b1980831691505092915050565b5f61209e8383612077565b9150826002028217905092915050565b6120b782611ea7565b67ffffffffffffffff8111156120d0576120cf61175b565b5b6120da8254611ede565b6120e5828285612025565b5f60209050601f831160018114612116575f8415612104578287015190505b61210e8582612093565b865550612175565b601f19841661212486611f0e565b5f5b8281101561214b57848901518255600182019150602085019450602081019050612126565b868310156121685784890151612164601f891682612077565b8355505b6001600288020188555050505b505050505050565b5f81519050919050565b5f82825260208201905092915050565b5f819050602082019050919050565b6121af8161163e565b82525050565b5f6121c083836121a6565b60208301905092915050565b5f602082019050919050565b5f6121e28261217d565b6121ec8185612187565b93506121f783612197565b805f5b8381101561222757815161220e88826121b5565b9750612219836121cc565b9250506001810190506121fa565b5085935050505092915050565b8281835e5f83830152505050565b5f61224c82611ea7565b6122568185611e2f565b9350612266818560208601612234565b61226f8161174b565b840191505092915050565b5f6080820190508181035f83015261229281876121d8565b90506122a1602083018661171b565b81810360408301526122b38185612242565b90506122c2606083018461153d565b95945050505050565b7f696e646578206f7574206f6620626f756e6473000000000000000000000000005f82015250565b5f6122ff601383611e2f565b915061230a826122cb565b602082019050919050565b5f6020820190508181035f83015261232c816122f3565b9050919050565b7f4e487b71000000000000000000000000000000000000000000000000000000005f52603160045260245ffdfea26469706673582212205955f596cdb255c2dc1647b25952fc52eb36af27b371a642316e29d6bbea7dce64736f6c634300081e0033",
					"opcodes": "PUSH1 0x80 PUSH1 0x40 MSTORE CALLVALUE DUP1 ISZERO PUSH2 0xF JUMPI PUSH0 PUSH0 REVERT JUMPDEST POP PUSH0 PUSH1 0x2 DUP2 SWAP1 SSTORE POP PUSH0 PUSH8 0xFFFFFFFFFFFFFFFF DUP2 GT ISZERO PUSH2 0x31 JUMPI PUSH2 0x30 PUSH2 0x11D JUMP JUMPDEST JUMPDEST PUSH1 0x40 MLOAD SWAP1 DUP1 DUP3 MSTORE DUP1 PUSH1 0x20 MUL PUSH1 0x20 ADD DUP3 ADD PUSH1 0x40 MSTORE DUP1 ISZERO PUSH2 0x5F JUMPI DUP2 PUSH1 0x20 ADD PUSH1 0x20 DUP3 MUL DUP1 CALLDATASIZE DUP4 CALLDATACOPY DUP1 DUP3 ADD SWAP2 POP POP SWAP1 POP JUMPDEST POP PUSH1 0x1 SWAP1 DUP1 MLOAD SWAP1 PUSH1 0x20 ADD SWAP1 PUSH2 0x75 SWAP3 SWAP2 SWAP1 PUSH2 0x7B JUMP JUMPDEST POP PUSH2 0x14A JUMP JUMPDEST DUP3 DUP1 SLOAD DUP3 DUP3 SSTORE SWAP1 PUSH0 MSTORE PUSH1 0x20 PUSH0 KECCAK256 SWAP1 DUP2 ADD SWAP3 DUP3 ISZERO PUSH2 0xF1 JUMPI SWAP2 PUSH1 0x20 MUL DUP3 ADD JUMPDEST DUP3 DUP2 GT ISZERO PUSH2 0xF0 JUMPI DUP3 MLOAD DUP3 PUSH0 PUSH2 0x100 EXP DUP2 SLOAD DUP2 PUSH20 0xFFFFFFFFFFFFFFFFFFFFFFFFFFFFFFFFFFFFFFFF MUL NOT AND SWAP1 DUP4 PUSH20 0xFFFFFFFFFFFFFFFFFFFFFFFFFFFFFFFFFFFFFFFF AND MUL OR SWAP1 SSTORE POP SWAP2 PUSH1 0x20 ADD SWAP2 SWAP1 PUSH1 0x1 ADD SWAP1 PUSH2 0x99 JUMP JUMPDEST JUMPDEST POP SWAP1 POP PUSH2 0xFE SWAP2 SWAP1 PUSH2 0x102 JUMP JUMPDEST POP SWAP1 JUMP JUMPDEST JUMPDEST DUP1 DUP3 GT ISZERO PUSH2 0x119 JUMPI PUSH0 DUP2 PUSH0 SWAP1 SSTORE POP PUSH1 0x1 ADD PUSH2 0x103 JUMP JUMPDEST POP SWAP1 JUMP JUMPDEST PUSH32 0x4E487B7100000000000000000000000000000000000000000000000000000000 PUSH0 MSTORE PUSH1 0x41 PUSH1 0x4 MSTORE PUSH1 0x24 PUSH0 REVERT JUMPDEST PUSH2 0x2396 DUP1 PUSH2 0x157 PUSH0 CODECOPY PUSH0 RETURN INVALID PUSH1 0x80 PUSH1 0x40 MSTORE CALLVALUE DUP1 ISZERO PUSH2 0xF JUMPI PUSH0 PUSH0 REVERT JUMPDEST POP PUSH1 0x4 CALLDATASIZE LT PUSH2 0x9C JUMPI PUSH0 CALLDATALOAD PUSH1 0xE0 SHR DUP1 PUSH4 0x49D26921 GT PUSH2 0x64 JUMPI DUP1 PUSH4 0x49D26921 EQ PUSH2 0x16D JUMPI DUP1 PUSH4 0x803863FB EQ PUSH2 0x19D JUMPI DUP1 PUSH4 0x8457A66A EQ PUSH2 0x1BB JUMPI DUP1 PUSH4 0xD9514950 EQ PUSH2 0x1EB JUMPI DUP1 PUSH4 0xE92626AE EQ PUSH2 0x21B JUMPI PUSH2 0x9C JUMP JUMPDEST DUP1 PUSH4 0x22A51C29 EQ PUSH2 0xA0 JUMPI DUP1 PUSH4 0x22D616D2 EQ PUSH2 0xBE JUMPI DUP1 PUSH4 0x2690EAC4 EQ PUSH2 0xEF JUMPI DUP1 PUSH4 0x3063C634 EQ PUSH2 0x11F JUMPI DUP1 PUSH4 0x3210243E EQ PUSH2 0x14F JUMPI JUMPDEST PUSH0 PUSH0 REVERT JUMPDEST PUSH2 0xA8 PUSH2 0x239 JUMP JUMPDEST PUSH1 0x40 MLOAD PUSH2 0xB5 SWAP2 SWAP1 PUSH2 0x154C JUMP JUMPDEST PUSH1 0x40 MLOAD DUP1 SWAP2 SUB SWAP1 RETURN JUMPDEST PUSH2 0xD8 PUSH1 0x4 DUP1 CALLDATASIZE SUB DUP2 ADD SWAP1 PUSH2 0xD3 SWAP2 SWAP1 PUSH2 0x15A0 JUMP JUMPDEST PUSH2 0x23E JUMP JUMPDEST PUSH1 0x40 MLOAD PUSH2 0xE6 SWAP3 SWAP2 SWAP1 PUSH2 0x15F8 JUMP JUMPDEST PUSH1 0x40 MLOAD DUP1 SWAP2 SUB SWAP1 RETURN JUMPDEST PUSH2 0x109 PUSH1 0x4 DUP1 CALLDATASIZE SUB DUP2 ADD SWAP1 PUSH2 0x104 SWAP2 SWAP1 PUSH2 0x1679 JUMP JUMPDEST PUSH2 0x64B JUMP JUMPDEST PUSH1 0x40 MLOAD PUSH2 0x116 SWAP2 SWAP1 PUSH2 0x172A JUMP JUMPDEST PUSH1 0x40 MLOAD DUP1 SWAP2 SUB SWAP1 RETURN JUMPDEST PUSH2 0x139 PUSH1 0x4 DUP1 CALLDATASIZE SUB DUP2 ADD SWAP1 PUSH2 0x134 SWAP2 SWAP1 PUSH2 0x18A2 JUMP JUMPDEST PUSH2 0x688 JUMP JUMPDEST PUSH1 0x40 MLOAD PUSH2 0x146 SWAP2 SWAP1 PUSH2 0x190E JUMP JUMPDEST PUSH1 0x40 MLOAD DUP1 SWAP2 SUB SWAP1 RETURN JUMPDEST PUSH2 0x157 PUSH2 0x960 JUMP JUMPDEST PUSH1 0x40 MLOAD PUSH2 0x164 SWAP2 SWAP1 PUSH2 0x154C JUMP JUMPDEST PUSH1 0x40 MLOAD DUP1 SWAP2 SUB SWAP1 RETURN JUMPDEST PUSH2 0x187 PUSH1 0x4 DUP1 CALLDATASIZE SUB DUP2 ADD SWAP1 PUSH2 0x182 SWAP2 SWAP1 PUSH2 0x1927 JUMP JUMPDEST PUSH2 0x965 JUMP JUMPDEST PUSH1 0x40 MLOAD PUSH2 0x194 SWAP2 SWAP1 PUSH2 0x154C JUMP JUMPDEST PUSH1 0x40 MLOAD DUP1 SWAP2 SUB SWAP1 RETURN JUMPDEST PUSH2 0x1A5 PUSH2 0x97A JUMP JUMPDEST PUSH1 0x40 MLOAD PUSH2 0x1B2 SWAP2 SWAP1 PUSH2 0x154C JUMP JUMPDEST PUSH1 0x40 MLOAD DUP1 SWAP2 SUB SWAP1 RETURN JUMPDEST PUSH2 0x1D5 PUSH1 0x4 DUP1 CALLDATASIZE SUB DUP2 ADD SWAP1 PUSH2 0x1D0 SWAP2 SWAP1 PUSH2 0x1952 JUMP JUMPDEST PUSH2 0x980 JUMP JUMPDEST PUSH1 0x40 MLOAD PUSH2 0x1E2 SWAP2 SWAP1 PUSH2 0x198C JUMP JUMPDEST PUSH1 0x40 MLOAD DUP1 SWAP2 SUB SWAP1 RETURN JUMPDEST PUSH2 0x205 PUSH1 0x4 DUP1 CALLDATASIZE SUB DUP2 ADD SWAP1 PUSH2 0x200 SWAP2 SWAP1 PUSH2 0x1A69 JUMP JUMPDEST PUSH2 0x9BB JUMP JUMPDEST PUSH1 0x40 MLOAD PUSH2 0x212 SWAP2 SWAP1 PUSH2 0x190E JUMP JUMPDEST PUSH1 0x40 MLOAD DUP1 SWAP2 SUB SWAP1 RETURN JUMPDEST PUSH2 0x223 PUSH2 0xAB9 JUMP JUMPDEST PUSH1 0x40 MLOAD PUSH2 0x230 SWAP2 SWAP1 PUSH2 0x154C JUMP JUMPDEST PUSH1 0x40 MLOAD DUP1 SWAP2 SUB SWAP1 RETURN JUMPDEST PUSH1 0x28 DUP2 JUMP JUMPDEST PUSH0 PUSH0 PUSH2 0x24A DUP5 CALLER PUSH2 0xABE JUMP JUMPDEST ISZERO PUSH2 0x25A JUMPI PUSH0 PUSH0 SWAP2 POP SWAP2 POP PUSH2 0x644 JUMP JUMPDEST PUSH0 PUSH1 0x4 PUSH0 DUP7 DUP2 MSTORE PUSH1 0x20 ADD SWAP1 DUP2 MSTORE PUSH1 0x20 ADD PUSH0 KECCAK256 PUSH1 0x7 ADD SLOAD SWAP1 POP DUP4 PUSH1 0x4 PUSH0 DUP8 DUP2 MSTORE PUSH1 0x20 ADD SWAP1 DUP2 MSTORE PUSH1 0x20 ADD PUSH0 KECCAK256 PUSH1 0x5 ADD DUP3 DUP2 SLOAD DUP2 LT PUSH2 0x299 JUMPI PUSH2 0x298 PUSH2 0x1AB0 JUMP JUMPDEST JUMPDEST SWAP1 PUSH0 MSTORE PUSH1 0x20 PUSH0 KECCAK256 ADD DUP2 SWAP1 SSTORE POP CALLER PUSH1 0x4 PUSH0 DUP8 DUP2 MSTORE PUSH1 0x20 ADD SWAP1 DUP2 MSTORE PUSH1 0x20 ADD PUSH0 KECCAK256 PUSH1 0x6 ADD DUP3 DUP2 SLOAD DUP2 LT PUSH2 0x2CC JUMPI PUSH2 0x2CB PUSH2 0x1AB0 JUMP JUMPDEST JUMPDEST SWAP1 PUSH0 MSTORE PUSH1 0x20 PUSH0 KECCAK256 ADD PUSH0 PUSH2 0x100 EXP DUP2 SLOAD DUP2 PUSH20 0xFFFFFFFFFFFFFFFFFFFFFFFFFFFFFFFFFFFFFFFF MUL NOT AND SWAP1 DUP4 PUSH20 0xFFFFFFFFFFFFFFFFFFFFFFFFFFFFFFFFFFFFFFFF AND MUL OR SWAP1 SSTORE POP PUSH1 0x4 PUSH0 DUP7 DUP2 MSTORE PUSH1 0x20 ADD SWAP1 DUP2 MSTORE PUSH1 0x20 ADD PUSH0 KECCAK256 PUSH1 0x7 ADD PUSH0 DUP2 SLOAD DUP1 SWAP3 SWAP2 SWAP1 PUSH2 0x335 SWAP1 PUSH2 0x1B0A JUMP JUMPDEST SWAP2 SWAP1 POP SSTORE POP PUSH1 0x4 PUSH0 DUP7 DUP2 MSTORE PUSH1 0x20 ADD SWAP1 DUP2 MSTORE PUSH1 0x20 ADD PUSH0 KECCAK256 PUSH1 0x3 ADD DUP1 SLOAD SWAP1 POP PUSH1 0x2 PUSH2 0x35E SWAP2 SWAP1 PUSH2 0x1B51 JUMP JUMPDEST PUSH1 0x3 PUSH1 0x4 PUSH0 DUP9 DUP2 MSTORE PUSH1 0x20 ADD SWAP1 DUP2 MSTORE PUSH1 0x20 ADD PUSH0 KECCAK256 PUSH1 0x7 ADD SLOAD PUSH2 0x37F SWAP2 SWAP1 PUSH2 0x1B51 JUMP JUMPDEST LT PUSH2 0x63C JUMPI PUSH0 PUSH0 SWAP1 POP PUSH0 PUSH0 SWAP1 POP PUSH0 PUSH0 SWAP1 POP JUMPDEST PUSH1 0x4 PUSH0 DUP10 DUP2 MSTORE PUSH1 0x20 ADD SWAP1 DUP2 MSTORE PUSH1 0x20 ADD PUSH0 KECCAK256 PUSH1 0x7 ADD SLOAD DUP2 LT ISZERO PUSH2 0x511 JUMPI PUSH1 0x4 PUSH0 DUP10 DUP2 MSTORE PUSH1 0x20 ADD SWAP1 DUP2 MSTORE PUSH1 0x20 ADD PUSH0 KECCAK256 PUSH1 0x7 ADD SLOAD PUSH1 0x4 PUSH0 DUP4 DUP2 MSTORE PUSH1 0x20 ADD SWAP1 DUP2 MSTORE PUSH1 0x20 ADD PUSH0 KECCAK256 PUSH1 0x4 ADD SLOAD PUSH2 0x3E1 SWAP2 SWAP1 PUSH2 0x1BBF JUMP JUMPDEST PUSH1 0x3 PUSH0 PUSH1 0x4 PUSH0 DUP13 DUP2 MSTORE PUSH1 0x20 ADD SWAP1 DUP2 MSTORE PUSH1 0x20 ADD PUSH0 KECCAK256 PUSH1 0x6 ADD DUP5 DUP2 SLOAD DUP2 LT PUSH2 0x40A JUMPI PUSH2 0x409 PUSH2 0x1AB0 JUMP JUMPDEST JUMPDEST SWAP1 PUSH0 MSTORE PUSH1 0x20 PUSH0 KECCAK256 ADD PUSH0 SWAP1 SLOAD SWAP1 PUSH2 0x100 EXP SWAP1 DIV PUSH20 0xFFFFFFFFFFFFFFFFFFFFFFFFFFFFFFFFFFFFFFFF AND PUSH20 0xFFFFFFFFFFFFFFFFFFFFFFFFFFFFFFFFFFFFFFFF AND PUSH20 0xFFFFFFFFFFFFFFFFFFFFFFFFFFFFFFFFFFFFFFFF AND DUP2 MSTORE PUSH1 0x20 ADD SWAP1 DUP2 MSTORE PUSH1 0x20 ADD PUSH0 KECCAK256 PUSH0 DUP3 DUP3 SLOAD PUSH2 0x479 SWAP2 SWAP1 PUSH2 0x1BEF JUMP JUMPDEST SWAP3 POP POP DUP2 SWAP1 SSTORE POP PUSH1 0x4 PUSH0 DUP10 DUP2 MSTORE PUSH1 0x20 ADD SWAP1 DUP2 MSTORE PUSH1 0x20 ADD PUSH0 KECCAK256 PUSH1 0x5 ADD DUP2 DUP2 SLOAD DUP2 LT PUSH2 0x4A6 JUMPI PUSH2 0x4A5 PUSH2 0x1AB0 JUMP JUMPDEST JUMPDEST SWAP1 PUSH0 MSTORE PUSH1 0x20 PUSH0 KECCAK256 ADD SLOAD DUP4 PUSH2 0x4BA SWAP2 SWAP1 PUSH2 0x1BEF JUMP JUMPDEST SWAP3 POP PUSH1 0x2 PUSH1 0x4 PUSH0 DUP11 DUP2 MSTORE PUSH1 0x20 ADD SWAP1 DUP2 MSTORE PUSH1 0x20 ADD PUSH0 KECCAK256 PUSH1 0x5 ADD DUP3 DUP2 SLOAD DUP2 LT PUSH2 0x4E4 JUMPI PUSH2 0x4E3 PUSH2 0x1AB0 JUMP JUMPDEST JUMPDEST SWAP1 PUSH0 MSTORE PUSH1 0x20 PUSH0 KECCAK256 ADD SLOAD PUSH2 0x4F7 SWAP2 SWAP1 PUSH2 0x1D5D JUMP JUMPDEST DUP3 PUSH2 0x502 SWAP2 SWAP1 PUSH2 0x1BEF JUMP JUMPDEST SWAP2 POP DUP1 DUP1 PUSH1 0x1 ADD SWAP2 POP POP PUSH2 0x391 JUMP JUMPDEST POP PUSH0 PUSH1 0x4 PUSH0 DUP10 DUP2 MSTORE PUSH1 0x20 ADD SWAP1 DUP2 MSTORE PUSH1 0x20 ADD PUSH0 KECCAK256 PUSH1 0x1 ADD PUSH0 SWAP1 SLOAD SWAP1 PUSH2 0x100 EXP SWAP1 DIV PUSH20 0xFFFFFFFFFFFFFFFFFFFFFFFFFFFFFFFFFFFFFFFF AND SWAP1 POP PUSH2 0x554 DUP9 DUP5 DUP5 PUSH2 0xBBA JUMP JUMPDEST POP PUSH1 0x4 PUSH0 DUP10 DUP2 MSTORE PUSH1 0x20 ADD SWAP1 DUP2 MSTORE PUSH1 0x20 ADD PUSH0 KECCAK256 PUSH1 0x7 ADD SLOAD DUP4 PUSH2 0x575 SWAP2 SWAP1 PUSH2 0x1BBF JUMP JUMPDEST SWAP3 POP DUP3 DUP4 PUSH2 0x583 SWAP2 SWAP1 PUSH2 0x1B51 JUMP JUMPDEST DUP3 PUSH2 0x58E SWAP2 SWAP1 PUSH2 0x1DA7 JUMP JUMPDEST SWAP2 POP PUSH1 0x4 PUSH0 DUP10 DUP2 MSTORE PUSH1 0x20 ADD SWAP1 DUP2 MSTORE PUSH1 0x20 ADD PUSH0 KECCAK256 PUSH1 0x7 ADD SLOAD DUP3 PUSH2 0x5B0 SWAP2 SWAP1 PUSH2 0x1BBF JUMP JUMPDEST SWAP2 POP DUP1 PUSH20 0xFFFFFFFFFFFFFFFFFFFFFFFFFFFFFFFFFFFFFFFF AND PUSH4 0xE5D60CE1 DUP5 PUSH1 0x40 MLOAD DUP3 PUSH4 0xFFFFFFFF AND PUSH1 0xE0 SHL DUP2 MSTORE PUSH1 0x4 ADD PUSH2 0x5EB SWAP2 SWAP1 PUSH2 0x154C JUMP JUMPDEST PUSH1 0x20 PUSH1 0x40 MLOAD DUP1 DUP4 SUB DUP2 PUSH0 DUP8 GAS CALL ISZERO DUP1 ISZERO PUSH2 0x607 JUMPI RETURNDATASIZE PUSH0 PUSH0 RETURNDATACOPY RETURNDATASIZE PUSH0 REVERT JUMPDEST POP POP POP POP PUSH1 0x40 MLOAD RETURNDATASIZE PUSH1 0x1F NOT PUSH1 0x1F DUP3 ADD AND DUP3 ADD DUP1 PUSH1 0x40 MSTORE POP DUP2 ADD SWAP1 PUSH2 0x62B SWAP2 SWAP1 PUSH2 0x1E04 JUMP JUMPDEST POP DUP3 PUSH1 0x1 SWAP6 POP SWAP6 POP POP POP POP POP PUSH2 0x644 JUMP JUMPDEST PUSH0 PUSH0 SWAP3 POP SWAP3 POP POP JUMPDEST SWAP3 POP SWAP3 SWAP1 POP JUMP JUMPDEST PUSH0 PUSH1 0x20 MSTORE DUP2 PUSH0 MSTORE PUSH1 0x40 PUSH0 KECCAK256 DUP2 DUP2 SLOAD DUP2 LT PUSH2 0x663 JUMPI PUSH0 DUP1 REVERT JUMPDEST SWAP1 PUSH0 MSTORE PUSH1 0x20 PUSH0 KECCAK256 SWAP1 PUSH1 0x20 SWAP2 DUP3 DUP3 DIV ADD SWAP2 SWAP1 MOD SWAP2 POP SWAP2 POP SWAP1 SLOAD SWAP1 PUSH2 0x100 EXP SWAP1 DIV PUSH1 0xFF AND DUP2 JUMP JUMPDEST PUSH0 PUSH1 0xA DUP3 LT ISZERO PUSH2 0x6CD JUMPI PUSH1 0x40 MLOAD PUSH32 0x8C379A000000000000000000000000000000000000000000000000000000000 DUP2 MSTORE PUSH1 0x4 ADD PUSH2 0x6C4 SWAP1 PUSH2 0x1E89 JUMP JUMPDEST PUSH1 0x40 MLOAD DUP1 SWAP2 SUB SWAP1 REVERT JUMPDEST PUSH1 0x1 DUP1 DUP1 SLOAD SWAP1 POP GT PUSH2 0x6E1 JUMPI PUSH0 SWAP1 POP PUSH2 0x959 JUMP JUMPDEST PUSH0 PUSH2 0x6EB DUP5 PUSH2 0xE75 JUMP JUMPDEST SWAP1 POP PUSH0 PUSH1 0x2 PUSH0 DUP2 SLOAD DUP1 SWAP3 SWAP2 SWAP1 PUSH2 0x700 SWAP1 PUSH2 0x1B0A JUMP JUMPDEST SWAP2 SWAP1 POP SSTORE SWAP1 POP PUSH1 0x40 MLOAD DUP1 PUSH2 0x120 ADD PUSH1 0x40 MSTORE DUP1 DUP3 DUP2 MSTORE PUSH1 0x20 ADD CALLER PUSH20 0xFFFFFFFFFFFFFFFFFFFFFFFFFFFFFFFFFFFFFFFF AND DUP2 MSTORE PUSH1 0x20 ADD DUP7 PUSH1 0x2 DUP2 GT ISZERO PUSH2 0x747 JUMPI PUSH2 0x746 PUSH2 0x16B7 JUMP JUMPDEST JUMPDEST DUP2 MSTORE PUSH1 0x20 ADD DUP8 DUP2 MSTORE PUSH1 0x20 ADD DUP4 DUP2 MSTORE PUSH1 0x20 ADD DUP6 DUP2 MSTORE PUSH1 0x20 ADD DUP4 MLOAD PUSH8 0xFFFFFFFFFFFFFFFF DUP2 GT ISZERO PUSH2 0x779 JUMPI PUSH2 0x778 PUSH2 0x175B JUMP JUMPDEST JUMPDEST PUSH1 0x40 MLOAD SWAP1 DUP1 DUP3 MSTORE DUP1 PUSH1 0x20 MUL PUSH1 0x20 ADD DUP3 ADD PUSH1 0x40 MSTORE DUP1 ISZERO PUSH2 0x7A7 JUMPI DUP2 PUSH1 0x20 ADD PUSH1 0x20 DUP3 MUL DUP1 CALLDATASIZE DUP4 CALLDATACOPY DUP1 DUP3 ADD SWAP2 POP POP SWAP1 POP JUMPDEST POP DUP2 MSTORE PUSH1 0x20 ADD DUP4 MLOAD PUSH8 0xFFFFFFFFFFFFFFFF DUP2 GT ISZERO PUSH2 0x7C8 JUMPI PUSH2 0x7C7 PUSH2 0x175B JUMP JUMPDEST JUMPDEST PUSH1 0x40 MLOAD SWAP1 DUP1 DUP3 MSTORE DUP1 PUSH1 0x20 MUL PUSH1 0x20 ADD DUP3 ADD PUSH1 0x40 MSTORE DUP1 ISZERO PUSH2 0x7F6 JUMPI DUP2 PUSH1 0x20 ADD PUSH1 0x20 DUP3 MUL DUP1 CALLDATASIZE DUP4 CALLDATACOPY DUP1 DUP3 ADD SWAP2 POP POP SWAP1 POP JUMPDEST POP DUP2 MSTORE PUSH1 0x20 ADD PUSH0 DUP2 MSTORE POP PUSH1 0x4 PUSH0 DUP4 DUP2 MSTORE PUSH1 0x20 ADD SWAP1 DUP2 MSTORE PUSH1 0x20 ADD PUSH0 KECCAK256 PUSH0 DUP3 ADD MLOAD DUP2 PUSH0 ADD SSTORE PUSH1 0x20 DUP3 ADD MLOAD DUP2 PUSH1 0x1 ADD PUSH0 PUSH2 0x100 EXP DUP2 SLOAD DUP2 PUSH20 0xFFFFFFFFFFFFFFFFFFFFFFFFFFFFFFFFFFFFFFFF MUL NOT AND SWAP1 DUP4 PUSH20 0xFFFFFFFFFFFFFFFFFFFFFFFFFFFFFFFFFFFFFFFF AND MUL OR SWAP1 SSTORE POP PUSH1 0x40 DUP3 ADD MLOAD DUP2 PUSH1 0x1 ADD PUSH1 0x14 PUSH2 0x100 EXP DUP2 SLOAD DUP2 PUSH1 0xFF MUL NOT AND SWAP1 DUP4 PUSH1 0x2 DUP2 GT ISZERO PUSH2 0x88A JUMPI PUSH2 0x889 PUSH2 0x16B7 JUMP JUMPDEST JUMPDEST MUL OR SWAP1 SSTORE POP PUSH1 0x60 DUP3 ADD MLOAD DUP2 PUSH1 0x2 ADD SWAP1 DUP2 PUSH2 0x8A4 SWAP2 SWAP1 PUSH2 0x20AE JUMP JUMPDEST POP PUSH1 0x80 DUP3 ADD MLOAD DUP2 PUSH1 0x3 ADD SWAP1 DUP1 MLOAD SWAP1 PUSH1 0x20 ADD SWAP1 PUSH2 0x8C1 SWAP3 SWAP2 SWAP1 PUSH2 0x1396 JUMP JUMPDEST POP PUSH1 0xA0 DUP3 ADD MLOAD DUP2 PUSH1 0x4 ADD SSTORE PUSH1 0xC0 DUP3 ADD MLOAD DUP2 PUSH1 0x5 ADD SWAP1 DUP1 MLOAD SWAP1 PUSH1 0x20 ADD SWAP1 PUSH2 0x8E8 SWAP3 SWAP2 SWAP1 PUSH2 0x141D JUMP JUMPDEST POP PUSH1 0xE0 DUP3 ADD MLOAD DUP2 PUSH1 0x6 ADD SWAP1 DUP1 MLOAD SWAP1 PUSH1 0x20 ADD SWAP1 PUSH2 0x905 SWAP3 SWAP2 SWAP1 PUSH2 0x1396 JUMP JUMPDEST POP PUSH2 0x100 DUP3 ADD MLOAD DUP2 PUSH1 0x7 ADD SSTORE SWAP1 POP POP DUP1 PUSH32 0xE84D10FA98AF4ED68014B5EB0367CBCB5EE2664F554195989F89F9BC49709004 DUP4 DUP8 DUP10 DUP9 PUSH1 0x40 MLOAD PUSH2 0x94A SWAP5 SWAP4 SWAP3 SWAP2 SWAP1 PUSH2 0x227A JUMP JUMPDEST PUSH1 0x40 MLOAD DUP1 SWAP2 SUB SWAP1 LOG2 PUSH1 0x1 SWAP3 POP POP POP JUMPDEST SWAP4 SWAP3 POP POP POP JUMP JUMPDEST PUSH1 0x50 DUP2 JUMP JUMPDEST PUSH1 0x3 PUSH1 0x20 MSTORE DUP1 PUSH0 MSTORE PUSH1 0x40 PUSH0 KECCAK256 PUSH0 SWAP2 POP SWAP1 POP SLOAD DUP2 JUMP JUMPDEST PUSH1 0x2 SLOAD DUP2 JUMP JUMPDEST PUSH1 0x1 DUP2 DUP2 SLOAD DUP2 LT PUSH2 0x98F JUMPI PUSH0 DUP1 REVERT JUMPDEST SWAP1 PUSH0 MSTORE PUSH1 0x20 PUSH0 KECCAK256 ADD PUSH0 SWAP2 POP SLOAD SWAP1 PUSH2 0x100 EXP SWAP1 DIV PUSH20 0xFFFFFFFFFFFFFFFFFFFFFFFFFFFFFFFFFFFFFFFF AND DUP2 JUMP JUMPDEST PUSH0 PUSH1 0x50 PUSH1 0x3 PUSH0 CALLER PUSH20 0xFFFFFFFFFFFFFFFFFFFFFFFFFFFFFFFFFFFFFFFF AND PUSH20 0xFFFFFFFFFFFFFFFFFFFFFFFFFFFFFFFFFFFFFFFF AND DUP2 MSTORE PUSH1 0x20 ADD SWAP1 DUP2 MSTORE PUSH1 0x20 ADD PUSH0 KECCAK256 DUP2 SWAP1 SSTORE POP DUP2 PUSH0 PUSH0 CALLER PUSH20 0xFFFFFFFFFFFFFFFFFFFFFFFFFFFFFFFFFFFFFFFF AND PUSH20 0xFFFFFFFFFFFFFFFFFFFFFFFFFFFFFFFFFFFFFFFF AND DUP2 MSTORE PUSH1 0x20 ADD SWAP1 DUP2 MSTORE PUSH1 0x20 ADD PUSH0 KECCAK256 SWAP1 DUP1 MLOAD SWAP1 PUSH1 0x20 ADD SWAP1 PUSH2 0xA4F SWAP3 SWAP2 SWAP1 PUSH2 0x1468 JUMP JUMPDEST POP PUSH1 0x1 CALLER SWAP1 DUP1 PUSH1 0x1 DUP2 SLOAD ADD DUP1 DUP3 SSTORE DUP1 SWAP2 POP POP PUSH1 0x1 SWAP1 SUB SWAP1 PUSH0 MSTORE PUSH1 0x20 PUSH0 KECCAK256 ADD PUSH0 SWAP1 SWAP2 SWAP1 SWAP2 SWAP1 SWAP2 PUSH2 0x100 EXP DUP2 SLOAD DUP2 PUSH20 0xFFFFFFFFFFFFFFFFFFFFFFFFFFFFFFFFFFFFFFFF MUL NOT AND SWAP1 DUP4 PUSH20 0xFFFFFFFFFFFFFFFFFFFFFFFFFFFFFFFFFFFFFFFF AND MUL OR SWAP1 SSTORE POP PUSH1 0x1 SWAP1 POP SWAP2 SWAP1 POP JUMP JUMPDEST PUSH1 0xA DUP2 JUMP JUMPDEST PUSH0 PUSH0 PUSH1 0x4 PUSH0 DUP6 DUP2 MSTORE PUSH1 0x20 ADD SWAP1 DUP2 MSTORE PUSH1 0x20 ADD PUSH0 KECCAK256 PUSH0 ADD SLOAD SUB PUSH2 0xAE1 JUMPI PUSH0 SWAP1 POP PUSH2 0xBB4 JUMP JUMPDEST PUSH0 PUSH1 0x4 PUSH0 DUP6 DUP2 MSTORE PUSH1 0x20 ADD SWAP1 DUP2 MSTORE PUSH1 0x20 ADD PUSH0 KECCAK256 PUSH1 0x7 ADD SLOAD SWAP1 POP PUSH0 DUP2 SUB PUSH2 0xB09 JUMPI PUSH0 SWAP2 POP POP PUSH2 0xBB4 JUMP JUMPDEST PUSH0 PUSH0 SWAP1 POP JUMPDEST DUP2 DUP2 LT ISZERO PUSH2 0xBAE JUMPI DUP4 PUSH20 0xFFFFFFFFFFFFFFFFFFFFFFFFFFFFFFFFFFFFFFFF AND PUSH1 0x4 PUSH0 DUP8 DUP2 MSTORE PUSH1 0x20 ADD SWAP1 DUP2 MSTORE PUSH1 0x20 ADD PUSH0 KECCAK256 PUSH1 0x6 ADD DUP3 DUP2 SLOAD DUP2 LT PUSH2 0xB53 JUMPI PUSH2 0xB52 PUSH2 0x1AB0 JUMP JUMPDEST JUMPDEST SWAP1 PUSH0 MSTORE PUSH1 0x20 PUSH0 KECCAK256 ADD PUSH0 SWAP1 SLOAD SWAP1 PUSH2 0x100 EXP SWAP1 DIV PUSH20 0xFFFFFFFFFFFFFFFFFFFFFFFFFFFFFFFFFFFFFFFF AND PUSH20 0xFFFFFFFFFFFFFFFFFFFFFFFFFFFFFFFFFFFFFFFF AND SUB PUSH2 0xBA1 JUMPI PUSH1 0x1 SWAP3 POP POP POP PUSH2 0xBB4 JUMP JUMPDEST DUP1 DUP1 PUSH1 0x1 ADD SWAP2 POP POP PUSH2 0xB0E JUMP JUMPDEST POP PUSH0 SWAP2 POP POP JUMPDEST SWAP3 SWAP2 POP POP JUMP JUMPDEST PUSH0 PUSH0 PUSH0 SWAP1 POP JUMPDEST PUSH1 0x4 PUSH0 DUP7 DUP2 MSTORE PUSH1 0x20 ADD SWAP1 DUP2 MSTORE PUSH1 0x20 ADD PUSH0 KECCAK256 PUSH1 0x7 ADD SLOAD DUP2 LT ISZERO PUSH2 0xE69 JUMPI PUSH0 PUSH1 0x4 PUSH0 DUP8 DUP2 MSTORE PUSH1 0x20 ADD SWAP1 DUP2 MSTORE PUSH1 0x20 ADD PUSH0 KECCAK256 PUSH1 0x5 ADD DUP3 DUP2 SLOAD DUP2 LT PUSH2 0xC03 JUMPI PUSH2 0xC02 PUSH2 0x1AB0 JUMP JUMPDEST JUMPDEST SWAP1 PUSH0 MSTORE PUSH1 0x20 PUSH0 KECCAK256 ADD SLOAD SWAP1 POP DUP1 DUP5 DUP7 PUSH2 0xC1B SWAP2 SWAP1 PUSH2 0x1DA7 JUMP JUMPDEST LT ISZERO DUP1 PUSH2 0xC33 JUMPI POP DUP1 DUP5 DUP7 PUSH2 0xC30 SWAP2 SWAP1 PUSH2 0x1BEF JUMP JUMPDEST GT ISZERO JUMPDEST ISZERO PUSH2 0xCDA JUMPI PUSH1 0x28 PUSH1 0x3 PUSH0 PUSH1 0x4 PUSH0 DUP11 DUP2 MSTORE PUSH1 0x20 ADD SWAP1 DUP2 MSTORE PUSH1 0x20 ADD PUSH0 KECCAK256 PUSH1 0x3 ADD DUP6 DUP2 SLOAD DUP2 LT PUSH2 0xC63 JUMPI PUSH2 0xC62 PUSH2 0x1AB0 JUMP JUMPDEST JUMPDEST SWAP1 PUSH0 MSTORE PUSH1 0x20 PUSH0 KECCAK256 ADD PUSH0 SWAP1 SLOAD SWAP1 PUSH2 0x100 EXP SWAP1 DIV PUSH20 0xFFFFFFFFFFFFFFFFFFFFFFFFFFFFFFFFFFFFFFFF AND PUSH20 0xFFFFFFFFFFFFFFFFFFFFFFFFFFFFFFFFFFFFFFFF AND PUSH20 0xFFFFFFFFFFFFFFFFFFFFFFFFFFFFFFFFFFFFFFFF AND DUP2 MSTORE PUSH1 0x20 ADD SWAP1 DUP2 MSTORE PUSH1 0x20 ADD PUSH0 KECCAK256 PUSH0 DUP3 DUP3 SLOAD PUSH2 0xCD2 SWAP2 SWAP1 PUSH2 0x1DA7 JUMP JUMPDEST SWAP3 POP POP DUP2 SWAP1 SSTORE POP JUMPDEST PUSH0 PUSH1 0x3 PUSH0 PUSH1 0x4 PUSH0 DUP11 DUP2 MSTORE PUSH1 0x20 ADD SWAP1 DUP2 MSTORE PUSH1 0x20 ADD PUSH0 KECCAK256 PUSH1 0x3 ADD DUP6 DUP2 SLOAD DUP2 LT PUSH2 0xD04 JUMPI PUSH2 0xD03 PUSH2 0x1AB0 JUMP JUMPDEST JUMPDEST SWAP1 PUSH0 MSTORE PUSH1 0x20 PUSH0 KECCAK256 ADD PUSH0 SWAP1 SLOAD SWAP1 PUSH2 0x100 EXP SWAP1 DIV PUSH20 0xFFFFFFFFFFFFFFFFFFFFFFFFFFFFFFFFFFFFFFFF AND PUSH20 0xFFFFFFFFFFFFFFFFFFFFFFFFFFFFFFFFFFFFFFFF AND PUSH20 0xFFFFFFFFFFFFFFFFFFFFFFFFFFFFFFFFFFFFFFFF AND DUP2 MSTORE PUSH1 0x20 ADD SWAP1 DUP2 MSTORE PUSH1 0x20 ADD PUSH0 KECCAK256 SLOAD GT PUSH2 0xE5B JUMPI PUSH0 PUSH1 0x4 PUSH0 DUP9 DUP2 MSTORE PUSH1 0x20 ADD SWAP1 DUP2 MSTORE PUSH1 0x20 ADD PUSH0 KECCAK256 PUSH1 0x3 ADD DUP4 DUP2 SLOAD DUP2 LT PUSH2 0xD92 JUMPI PUSH2 0xD91 PUSH2 0x1AB0 JUMP JUMPDEST JUMPDEST SWAP1 PUSH0 MSTORE PUSH1 0x20 PUSH0 KECCAK256 ADD PUSH0 SWAP1 SLOAD SWAP1 PUSH2 0x100 EXP SWAP1 DIV PUSH20 0xFFFFFFFFFFFFFFFFFFFFFFFFFFFFFFFFFFFFFFFF AND SWAP1 POP PUSH0 PUSH0 SWAP1 POP JUMPDEST PUSH1 0x1 DUP1 SLOAD SWAP1 POP DUP2 LT ISZERO PUSH2 0xE58 JUMPI DUP2 PUSH20 0xFFFFFFFFFFFFFFFFFFFFFFFFFFFFFFFFFFFFFFFF AND PUSH1 0x1 DUP3 DUP2 SLOAD DUP2 LT PUSH2 0xDF9 JUMPI PUSH2 0xDF8 PUSH2 0x1AB0 JUMP JUMPDEST JUMPDEST SWAP1 PUSH0 MSTORE PUSH1 0x20 PUSH0 KECCAK256 ADD PUSH0 SWAP1 SLOAD SWAP1 PUSH2 0x100 EXP SWAP1 DIV PUSH20 0xFFFFFFFFFFFFFFFFFFFFFFFFFFFFFFFFFFFFFFFF AND PUSH20 0xFFFFFFFFFFFFFFFFFFFFFFFFFFFFFFFFFFFFFFFF AND SUB PUSH2 0xE4B JUMPI PUSH2 0xE45 DUP2 PUSH2 0x125D JUMP JUMPDEST POP PUSH2 0xE58 JUMP JUMPDEST DUP1 DUP1 PUSH1 0x1 ADD SWAP2 POP POP PUSH2 0xDC1 JUMP JUMPDEST POP POP JUMPDEST POP DUP1 DUP1 PUSH1 0x1 ADD SWAP2 POP POP PUSH2 0xBC0 JUMP JUMPDEST POP PUSH1 0x1 SWAP1 POP SWAP4 SWAP3 POP POP POP JUMP JUMPDEST PUSH1 0x60 PUSH0 PUSH0 SWAP1 POP PUSH0 PUSH0 SWAP1 POP JUMPDEST PUSH1 0x1 DUP1 SLOAD SWAP1 POP DUP2 LT ISZERO PUSH2 0x100E JUMPI PUSH0 PUSH1 0x1 DUP3 DUP2 SLOAD DUP2 LT PUSH2 0xEA2 JUMPI PUSH2 0xEA1 PUSH2 0x1AB0 JUMP JUMPDEST JUMPDEST SWAP1 PUSH0 MSTORE PUSH1 0x20 PUSH0 KECCAK256 ADD PUSH0 SWAP1 SLOAD SWAP1 PUSH2 0x100 EXP SWAP1 DIV PUSH20 0xFFFFFFFFFFFFFFFFFFFFFFFFFFFFFFFFFFFFFFFF AND SWAP1 POP PUSH0 PUSH0 PUSH0 DUP4 PUSH20 0xFFFFFFFFFFFFFFFFFFFFFFFFFFFFFFFFFFFFFFFF AND PUSH20 0xFFFFFFFFFFFFFFFFFFFFFFFFFFFFFFFFFFFFFFFF AND DUP2 MSTORE PUSH1 0x20 ADD SWAP1 DUP2 MSTORE PUSH1 0x20 ADD PUSH0 KECCAK256 DUP1 SLOAD DUP1 PUSH1 0x20 MUL PUSH1 0x20 ADD PUSH1 0x40 MLOAD SWAP1 DUP2 ADD PUSH1 0x40 MSTORE DUP1 SWAP3 SWAP2 SWAP1 DUP2 DUP2 MSTORE PUSH1 0x20 ADD DUP3 DUP1 SLOAD DUP1 ISZERO PUSH2 0xF84 JUMPI PUSH1 0x20 MUL DUP3 ADD SWAP2 SWAP1 PUSH0 MSTORE PUSH1 0x20 PUSH0 KECCAK256 SWAP1 PUSH0 SWAP1 JUMPDEST DUP3 DUP3 SWAP1 SLOAD SWAP1 PUSH2 0x100 EXP SWAP1 DIV PUSH1 0xFF AND PUSH1 0x2 DUP2 GT ISZERO PUSH2 0xF5F JUMPI PUSH2 0xF5E PUSH2 0x16B7 JUMP JUMPDEST JUMPDEST DUP2 MSTORE PUSH1 0x20 ADD SWAP1 PUSH1 0x1 ADD SWAP1 PUSH1 0x20 DUP3 PUSH0 ADD DIV SWAP3 DUP4 ADD SWAP3 PUSH1 0x1 SUB DUP3 MUL SWAP2 POP DUP1 DUP5 GT PUSH2 0xF3F JUMPI SWAP1 POP JUMPDEST POP POP POP POP POP SWAP1 POP PUSH0 PUSH0 SWAP1 POP JUMPDEST DUP2 MLOAD DUP2 LT ISZERO PUSH2 0xFFE JUMPI DUP7 PUSH1 0x2 DUP2 GT ISZERO PUSH2 0xFAC JUMPI PUSH2 0xFAB PUSH2 0x16B7 JUMP JUMPDEST JUMPDEST DUP3 DUP3 DUP2 MLOAD DUP2 LT PUSH2 0xFBF JUMPI PUSH2 0xFBE PUSH2 0x1AB0 JUMP JUMPDEST JUMPDEST PUSH1 0x20 MUL PUSH1 0x20 ADD ADD MLOAD PUSH1 0x2 DUP2 GT ISZERO PUSH2 0xFD9 JUMPI PUSH2 0xFD8 PUSH2 0x16B7 JUMP JUMPDEST JUMPDEST SUB PUSH2 0xFF1 JUMPI DUP5 DUP1 PUSH2 0xFE9 SWAP1 PUSH2 0x1B0A JUMP JUMPDEST SWAP6 POP POP PUSH2 0xFFE JUMP JUMPDEST DUP1 DUP1 PUSH1 0x1 ADD SWAP2 POP POP PUSH2 0xF90 JUMP JUMPDEST POP POP POP DUP1 DUP1 PUSH1 0x1 ADD SWAP2 POP POP PUSH2 0xE80 JUMP JUMPDEST POP PUSH0 DUP2 PUSH8 0xFFFFFFFFFFFFFFFF DUP2 GT ISZERO PUSH2 0x102A JUMPI PUSH2 0x1029 PUSH2 0x175B JUMP JUMPDEST JUMPDEST PUSH1 0x40 MLOAD SWAP1 DUP1 DUP3 MSTORE DUP1 PUSH1 0x20 MUL PUSH1 0x20 ADD DUP3 ADD PUSH1 0x40 MSTORE DUP1 ISZERO PUSH2 0x1058 JUMPI DUP2 PUSH1 0x20 ADD PUSH1 0x20 DUP3 MUL DUP1 CALLDATASIZE DUP4 CALLDATACOPY DUP1 DUP3 ADD SWAP2 POP POP SWAP1 POP JUMPDEST POP SWAP1 POP PUSH0 PUSH0 SWAP1 POP JUMPDEST PUSH1 0x1 DUP1 SLOAD SWAP1 POP DUP2 LT ISZERO PUSH2 0x1252 JUMPI PUSH0 PUSH1 0x1 DUP3 DUP2 SLOAD DUP2 LT PUSH2 0x1082 JUMPI PUSH2 0x1081 PUSH2 0x1AB0 JUMP JUMPDEST JUMPDEST SWAP1 PUSH0 MSTORE PUSH1 0x20 PUSH0 KECCAK256 ADD PUSH0 SWAP1 SLOAD SWAP1 PUSH2 0x100 EXP SWAP1 DIV PUSH20 0xFFFFFFFFFFFFFFFFFFFFFFFFFFFFFFFFFFFFFFFF AND SWAP1 POP PUSH0 PUSH0 PUSH0 DUP4 PUSH20 0xFFFFFFFFFFFFFFFFFFFFFFFFFFFFFFFFFFFFFFFF AND PUSH20 0xFFFFFFFFFFFFFFFFFFFFFFFFFFFFFFFFFFFFFFFF AND DUP2 MSTORE PUSH1 0x20 ADD SWAP1 DUP2 MSTORE PUSH1 0x20 ADD PUSH0 KECCAK256 DUP1 SLOAD DUP1 PUSH1 0x20 MUL PUSH1 0x20 ADD PUSH1 0x40 MLOAD SWAP1 DUP2 ADD PUSH1 0x40 MSTORE DUP1 SWAP3 SWAP2 SWAP1 DUP2 DUP2 MSTORE PUSH1 0x20 ADD DUP3 DUP1 SLOAD DUP1 ISZERO PUSH2 0x1164 JUMPI PUSH1 0x20 MUL DUP3 ADD SWAP2 SWAP1 PUSH0 MSTORE PUSH1 0x20 PUSH0 KECCAK256 SWAP1 PUSH0 SWAP1 JUMPDEST DUP3 DUP3 SWAP1 SLOAD SWAP1 PUSH2 0x100 EXP SWAP1 DIV PUSH1 0xFF AND PUSH1 0x2 DUP2 GT ISZERO PUSH2 0x113F JUMPI PUSH2 0x113E PUSH2 0x16B7 JUMP JUMPDEST JUMPDEST DUP2 MSTORE PUSH1 0x20 ADD SWAP1 PUSH1 0x1 ADD SWAP1 PUSH1 0x20 DUP3 PUSH0 ADD DIV SWAP3 DUP4 ADD SWAP3 PUSH1 0x1 SUB DUP3 MUL SWAP2 POP DUP1 DUP5 GT PUSH2 0x111F JUMPI SWAP1 POP JUMPDEST POP POP POP POP POP SWAP1 POP PUSH0 PUSH0 SWAP1 POP PUSH0 PUSH0 SWAP1 POP JUMPDEST DUP3 MLOAD DUP2 LT ISZERO PUSH2 0x11D8 JUMPI DUP9 PUSH1 0x2 DUP2 GT ISZERO PUSH2 0x1190 JUMPI PUSH2 0x118F PUSH2 0x16B7 JUMP JUMPDEST JUMPDEST DUP4 DUP3 DUP2 MLOAD DUP2 LT PUSH2 0x11A3 JUMPI PUSH2 0x11A2 PUSH2 0x1AB0 JUMP JUMPDEST JUMPDEST PUSH1 0x20 MUL PUSH1 0x20 ADD ADD MLOAD PUSH1 0x2 DUP2 GT ISZERO PUSH2 0x11BD JUMPI PUSH2 0x11BC PUSH2 0x16B7 JUMP JUMPDEST JUMPDEST SUB PUSH2 0x11CB JUMPI PUSH1 0x1 SWAP2 POP PUSH2 0x11D8 JUMP JUMPDEST DUP1 DUP1 PUSH1 0x1 ADD SWAP2 POP POP PUSH2 0x1174 JUMP JUMPDEST POP DUP1 ISZERO PUSH2 0x123C JUMPI DUP3 DUP6 DUP6 DUP2 MLOAD DUP2 LT PUSH2 0x11F3 JUMPI PUSH2 0x11F2 PUSH2 0x1AB0 JUMP JUMPDEST JUMPDEST PUSH1 0x20 MUL PUSH1 0x20 ADD ADD SWAP1 PUSH20 0xFFFFFFFFFFFFFFFFFFFFFFFFFFFFFFFFFFFFFFFF AND SWAP1 DUP2 PUSH20 0xFFFFFFFFFFFFFFFFFFFFFFFFFFFFFFFFFFFFFFFF AND DUP2 MSTORE POP POP DUP4 DUP1 PUSH2 0x1238 SWAP1 PUSH2 0x1B0A JUMP JUMPDEST SWAP5 POP POP JUMPDEST POP POP POP DUP1 DUP1 PUSH2 0x124A SWAP1 PUSH2 0x1B0A JUMP JUMPDEST SWAP2 POP POP PUSH2 0x1060 JUMP JUMPDEST POP DUP1 SWAP3 POP POP POP SWAP2 SWAP1 POP JUMP JUMPDEST PUSH0 PUSH1 0x1 DUP1 SLOAD SWAP1 POP DUP3 LT PUSH2 0x12A5 JUMPI PUSH1 0x40 MLOAD PUSH32 0x8C379A000000000000000000000000000000000000000000000000000000000 DUP2 MSTORE PUSH1 0x4 ADD PUSH2 0x129C SWAP1 PUSH2 0x2315 JUMP JUMPDEST PUSH1 0x40 MLOAD DUP1 SWAP2 SUB SWAP1 REVERT JUMPDEST PUSH1 0x1 DUP1 DUP1 DUP1 SLOAD SWAP1 POP PUSH2 0x12B7 SWAP2 SWAP1 PUSH2 0x1DA7 JUMP JUMPDEST DUP2 SLOAD DUP2 LT PUSH2 0x12C8 JUMPI PUSH2 0x12C7 PUSH2 0x1AB0 JUMP JUMPDEST JUMPDEST SWAP1 PUSH0 MSTORE PUSH1 0x20 PUSH0 KECCAK256 ADD PUSH0 SWAP1 SLOAD SWAP1 PUSH2 0x100 EXP SWAP1 DIV PUSH20 0xFFFFFFFFFFFFFFFFFFFFFFFFFFFFFFFFFFFFFFFF AND PUSH1 0x1 DUP4 DUP2 SLOAD DUP2 LT PUSH2 0x1304 JUMPI PUSH2 0x1303 PUSH2 0x1AB0 JUMP JUMPDEST JUMPDEST SWAP1 PUSH0 MSTORE PUSH1 0x20 PUSH0 KECCAK256 ADD PUSH0 PUSH2 0x100 EXP DUP2 SLOAD DUP2 PUSH20 0xFFFFFFFFFFFFFFFFFFFFFFFFFFFFFFFFFFFFFFFF MUL NOT AND SWAP1 DUP4 PUSH20 0xFFFFFFFFFFFFFFFFFFFFFFFFFFFFFFFFFFFFFFFF AND MUL OR SWAP1 SSTORE POP PUSH1 0x1 DUP1 SLOAD DUP1 PUSH2 0x135B JUMPI PUSH2 0x135A PUSH2 0x2333 JUMP JUMPDEST JUMPDEST PUSH1 0x1 SWAP1 SUB DUP2 DUP2 SWAP1 PUSH0 MSTORE PUSH1 0x20 PUSH0 KECCAK256 ADD PUSH0 PUSH2 0x100 EXP DUP2 SLOAD SWAP1 PUSH20 0xFFFFFFFFFFFFFFFFFFFFFFFFFFFFFFFFFFFFFFFF MUL NOT AND SWAP1 SSTORE SWAP1 SSTORE PUSH1 0x1 SWAP1 POP SWAP2 SWAP1 POP JUMP JUMPDEST DUP3 DUP1 SLOAD DUP3 DUP3 SSTORE SWAP1 PUSH0 MSTORE PUSH1 0x20 PUSH0 KECCAK256 SWAP1 DUP2 ADD SWAP3 DUP3 ISZERO PUSH2 0x140C JUMPI SWAP2 PUSH1 0x20 MUL DUP3 ADD JUMPDEST DUP3 DUP2 GT ISZERO PUSH2 0x140B JUMPI DUP3 MLOAD DUP3 PUSH0 PUSH2 0x100 EXP DUP2 SLOAD DUP2 PUSH20 0xFFFFFFFFFFFFFFFFFFFFFFFFFFFFFFFFFFFFFFFF MUL NOT AND SWAP1 DUP4 PUSH20 0xFFFFFFFFFFFFFFFFFFFFFFFFFFFFFFFFFFFFFFFF AND MUL OR SWAP1 SSTORE POP SWAP2 PUSH1 0x20 ADD SWAP2 SWAP1 PUSH1 0x1 ADD SWAP1 PUSH2 0x13B4 JUMP JUMPDEST JUMPDEST POP SWAP1 POP PUSH2 0x1419 SWAP2 SWAP1 PUSH2 0x1519 JUMP JUMPDEST POP SWAP1 JUMP JUMPDEST DUP3 DUP1 SLOAD DUP3 DUP3 SSTORE SWAP1 PUSH0 MSTORE PUSH1 0x20 PUSH0 KECCAK256 SWAP1 DUP2 ADD SWAP3 DUP3 ISZERO PUSH2 0x1457 JUMPI SWAP2 PUSH1 0x20 MUL DUP3 ADD JUMPDEST DUP3 DUP2 GT ISZERO PUSH2 0x1456 JUMPI DUP3 MLOAD DUP3 SSTORE SWAP2 PUSH1 0x20 ADD SWAP2 SWAP1 PUSH1 0x1 ADD SWAP1 PUSH2 0x143B JUMP JUMPDEST JUMPDEST POP SWAP1 POP PUSH2 0x1464 SWAP2 SWAP1 PUSH2 0x1519 JUMP JUMPDEST POP SWAP1 JUMP JUMPDEST DUP3 DUP1 SLOAD DUP3 DUP3 SSTORE SWAP1 PUSH0 MSTORE PUSH1 0x20 PUSH0 KECCAK256 SWAP1 PUSH1 0x1F ADD PUSH1 0x20 SWAP1 DIV DUP2 ADD SWAP3 DUP3 ISZERO PUSH2 0x1508 JUMPI SWAP2 PUSH1 0x20 MUL DUP3 ADD PUSH0 JUMPDEST DUP4 DUP3 GT ISZERO PUSH2 0x14DA JUMPI DUP4 MLOAD DUP4 DUP3 PUSH2 0x100 EXP DUP2 SLOAD DUP2 PUSH1 0xFF MUL NOT AND SWAP1 DUP4 PUSH1 0x2 DUP2 GT ISZERO PUSH2 0x14BA JUMPI PUSH2 0x14B9 PUSH2 0x16B7 JUMP JUMPDEST JUMPDEST MUL OR SWAP1 SSTORE POP SWAP3 PUSH1 0x20 ADD SWAP3 PUSH1 0x1 ADD PUSH1 0x20 DUP2 PUSH0 ADD DIV SWAP3 DUP4 ADD SWAP3 PUSH1 0x1 SUB MUL PUSH2 0x148E JUMP JUMPDEST DUP1 ISZERO PUSH2 0x1506 JUMPI DUP3 DUP2 PUSH2 0x100 EXP DUP2 SLOAD SWAP1 PUSH1 0xFF MUL NOT AND SWAP1 SSTORE PUSH1 0x1 ADD PUSH1 0x20 DUP2 PUSH0 ADD DIV SWAP3 DUP4 ADD SWAP3 PUSH1 0x1 SUB MUL PUSH2 0x14DA JUMP JUMPDEST POP JUMPDEST POP SWAP1 POP PUSH2 0x1515 SWAP2 SWAP1 PUSH2 0x1519 JUMP JUMPDEST POP SWAP1 JUMP JUMPDEST JUMPDEST DUP1 DUP3 GT ISZERO PUSH2 0x1530 JUMPI PUSH0 DUP2 PUSH0 SWAP1 SSTORE POP PUSH1 0x1 ADD PUSH2 0x151A JUMP JUMPDEST POP SWAP1 JUMP JUMPDEST PUSH0 DUP2 SWAP1 POP SWAP2 SWAP1 POP JUMP JUMPDEST PUSH2 0x1546 DUP2 PUSH2 0x1534 JUMP JUMPDEST DUP3 MSTORE POP POP JUMP JUMPDEST PUSH0 PUSH1 0x20 DUP3 ADD SWAP1 POP PUSH2 0x155F PUSH0 DUP4 ADD DUP5 PUSH2 0x153D JUMP JUMPDEST SWAP3 SWAP2 POP POP JUMP JUMPDEST PUSH0 PUSH1 0x40 MLOAD SWAP1 POP SWAP1 JUMP JUMPDEST PUSH0 PUSH0 REVERT JUMPDEST PUSH0 PUSH0 REVERT JUMPDEST PUSH2 0x157F DUP2 PUSH2 0x1534 JUMP JUMPDEST DUP2 EQ PUSH2 0x1589 JUMPI PUSH0 PUSH0 REVERT JUMPDEST POP JUMP JUMPDEST PUSH0 DUP2 CALLDATALOAD SWAP1 POP PUSH2 0x159A DUP2 PUSH2 0x1576 JUMP JUMPDEST SWAP3 SWAP2 POP POP JUMP JUMPDEST PUSH0 PUSH0 PUSH1 0x40 DUP4 DUP6 SUB SLT ISZERO PUSH2 0x15B6 JUMPI PUSH2 0x15B5 PUSH2 0x156E JUMP JUMPDEST JUMPDEST PUSH0 PUSH2 0x15C3 DUP6 DUP3 DUP7 ADD PUSH2 0x158C JUMP JUMPDEST SWAP3 POP POP PUSH1 0x20 PUSH2 0x15D4 DUP6 DUP3 DUP7 ADD PUSH2 0x158C JUMP JUMPDEST SWAP2 POP POP SWAP3 POP SWAP3 SWAP1 POP JUMP JUMPDEST PUSH0 DUP2 ISZERO ISZERO SWAP1 POP SWAP2 SWAP1 POP JUMP JUMPDEST PUSH2 0x15F2 DUP2 PUSH2 0x15DE JUMP JUMPDEST DUP3 MSTORE POP POP JUMP JUMPDEST PUSH0 PUSH1 0x40 DUP3 ADD SWAP1 POP PUSH2 0x160B PUSH0 DUP4 ADD DUP6 PUSH2 0x153D JUMP JUMPDEST PUSH2 0x1618 PUSH1 0x20 DUP4 ADD DUP5 PUSH2 0x15E9 JUMP JUMPDEST SWAP4 SWAP3 POP POP POP JUMP JUMPDEST PUSH0 PUSH20 0xFFFFFFFFFFFFFFFFFFFFFFFFFFFFFFFFFFFFFFFF DUP3 AND SWAP1 POP SWAP2 SWAP1 POP JUMP JUMPDEST PUSH0 PUSH2 0x1648 DUP3 PUSH2 0x161F JUMP JUMPDEST SWAP1 POP SWAP2 SWAP1 POP JUMP JUMPDEST PUSH2 0x1658 DUP2 PUSH2 0x163E JUMP JUMPDEST DUP2 EQ PUSH2 0x1662 JUMPI PUSH0 PUSH0 REVERT JUMPDEST POP JUMP JUMPDEST PUSH0 DUP2 CALLDATALOAD SWAP1 POP PUSH2 0x1673 DUP2 PUSH2 0x164F JUMP JUMPDEST SWAP3 SWAP2 POP POP JUMP JUMPDEST PUSH0 PUSH0 PUSH1 0x40 DUP4 DUP6 SUB SLT ISZERO PUSH2 0x168F JUMPI PUSH2 0x168E PUSH2 0x156E JUMP JUMPDEST JUMPDEST PUSH0 PUSH2 0x169C DUP6 DUP3 DUP7 ADD PUSH2 0x1665 JUMP JUMPDEST SWAP3 POP POP PUSH1 0x20 PUSH2 0x16AD DUP6 DUP3 DUP7 ADD PUSH2 0x158C JUMP JUMPDEST SWAP2 POP POP SWAP3 POP SWAP3 SWAP1 POP JUMP JUMPDEST PUSH32 0x4E487B7100000000000000000000000000000000000000000000000000000000 PUSH0 MSTORE PUSH1 0x21 PUSH1 0x4 MSTORE PUSH1 0x24 PUSH0 REVERT JUMPDEST PUSH1 0x3 DUP2 LT PUSH2 0x16F5 JUMPI PUSH2 0x16F4 PUSH2 0x16B7 JUMP JUMPDEST JUMPDEST POP JUMP JUMPDEST PUSH0 DUP2 SWAP1 POP PUSH2 0x1705 DUP3 PUSH2 0x16E4 JUMP JUMPDEST SWAP2 SWAP1 POP JUMP JUMPDEST PUSH0 PUSH2 0x1714 DUP3 PUSH2 0x16F8 JUMP JUMPDEST SWAP1 POP SWAP2 SWAP1 POP JUMP JUMPDEST PUSH2 0x1724 DUP2 PUSH2 0x170A JUMP JUMPDEST DUP3 MSTORE POP POP JUMP JUMPDEST PUSH0 PUSH1 0x20 DUP3 ADD SWAP1 POP PUSH2 0x173D PUSH0 DUP4 ADD DUP5 PUSH2 0x171B JUMP JUMPDEST SWAP3 SWAP2 POP POP JUMP JUMPDEST PUSH0 PUSH0 REVERT JUMPDEST PUSH0 PUSH0 REVERT JUMPDEST PUSH0 PUSH1 0x1F NOT PUSH1 0x1F DUP4 ADD AND SWAP1 POP SWAP2 SWAP1 POP JUMP JUMPDEST PUSH32 0x4E487B7100000000000000000000000000000000000000000000000000000000 PUSH0 MSTORE PUSH1 0x41 PUSH1 0x4 MSTORE PUSH1 0x24 PUSH0 REVERT JUMPDEST PUSH2 0x1791 DUP3 PUSH2 0x174B JUMP JUMPDEST DUP2 ADD DUP2 DUP2 LT PUSH8 0xFFFFFFFFFFFFFFFF DUP3 GT OR ISZERO PUSH2 0x17B0 JUMPI PUSH2 0x17AF PUSH2 0x175B JUMP JUMPDEST JUMPDEST DUP1 PUSH1 0x40 MSTORE POP POP POP JUMP JUMPDEST PUSH0 PUSH2 0x17C2 PUSH2 0x1565 JUMP JUMPDEST SWAP1 POP PUSH2 0x17CE DUP3 DUP3 PUSH2 0x1788 JUMP JUMPDEST SWAP2 SWAP1 POP JUMP JUMPDEST PUSH0 PUSH8 0xFFFFFFFFFFFFFFFF DUP3 GT ISZERO PUSH2 0x17ED JUMPI PUSH2 0x17EC PUSH2 0x175B JUMP JUMPDEST JUMPDEST PUSH2 0x17F6 DUP3 PUSH2 0x174B JUMP JUMPDEST SWAP1 POP PUSH1 0x20 DUP2 ADD SWAP1 POP SWAP2 SWAP1 POP JUMP JUMPDEST DUP3 DUP2 DUP4 CALLDATACOPY PUSH0 DUP4 DUP4 ADD MSTORE POP POP POP JUMP JUMPDEST PUSH0 PUSH2 0x1823 PUSH2 0x181E DUP5 PUSH2 0x17D3 JUMP JUMPDEST PUSH2 0x17B9 JUMP JUMPDEST SWAP1 POP DUP3 DUP2 MSTORE PUSH1 0x20 DUP2 ADD DUP5 DUP5 DUP5 ADD GT ISZERO PUSH2 0x183F JUMPI PUSH2 0x183E PUSH2 0x1747 JUMP JUMPDEST JUMPDEST PUSH2 0x184A DUP5 DUP3 DUP6 PUSH2 0x1803 JUMP JUMPDEST POP SWAP4 SWAP3 POP POP POP JUMP JUMPDEST PUSH0 DUP3 PUSH1 0x1F DUP4 ADD SLT PUSH2 0x1866 JUMPI PUSH2 0x1865 PUSH2 0x1743 JUMP JUMPDEST JUMPDEST DUP2 CALLDATALOAD PUSH2 0x1876 DUP5 DUP3 PUSH1 0x20 DUP7 ADD PUSH2 0x1811 JUMP JUMPDEST SWAP2 POP POP SWAP3 SWAP2 POP POP JUMP JUMPDEST PUSH1 0x3 DUP2 LT PUSH2 0x188B JUMPI PUSH0 PUSH0 REVERT JUMPDEST POP JUMP JUMPDEST PUSH0 DUP2 CALLDATALOAD SWAP1 POP PUSH2 0x189C DUP2 PUSH2 0x187F JUMP JUMPDEST SWAP3 SWAP2 POP POP JUMP JUMPDEST PUSH0 PUSH0 PUSH0 PUSH1 0x60 DUP5 DUP7 SUB SLT ISZERO PUSH2 0x18B9 JUMPI PUSH2 0x18B8 PUSH2 0x156E JUMP JUMPDEST JUMPDEST PUSH0 DUP5 ADD CALLDATALOAD PUSH8 0xFFFFFFFFFFFFFFFF DUP2 GT ISZERO PUSH2 0x18D6 JUMPI PUSH2 0x18D5 PUSH2 0x1572 JUMP JUMPDEST JUMPDEST PUSH2 0x18E2 DUP7 DUP3 DUP8 ADD PUSH2 0x1852 JUMP JUMPDEST SWAP4 POP POP PUSH1 0x20 PUSH2 0x18F3 DUP7 DUP3 DUP8 ADD PUSH2 0x188E JUMP JUMPDEST SWAP3 POP POP PUSH1 0x40 PUSH2 0x1904 DUP7 DUP3 DUP8 ADD PUSH2 0x158C JUMP JUMPDEST SWAP2 POP POP SWAP3 POP SWAP3 POP SWAP3 JUMP JUMPDEST PUSH0 PUSH1 0x20 DUP3 ADD SWAP1 POP PUSH2 0x1921 PUSH0 DUP4 ADD DUP5 PUSH2 0x15E9 JUMP JUMPDEST SWAP3 SWAP2 POP POP JUMP JUMPDEST PUSH0 PUSH1 0x20 DUP3 DUP5 SUB SLT ISZERO PUSH2 0x193C JUMPI PUSH2 0x193B PUSH2 0x156E JUMP JUMPDEST JUMPDEST PUSH0 PUSH2 0x1949 DUP5 DUP3 DUP6 ADD PUSH2 0x1665 JUMP JUMPDEST SWAP2 POP POP SWAP3 SWAP2 POP POP JUMP JUMPDEST PUSH0 PUSH1 0x20 DUP3 DUP5 SUB SLT ISZERO PUSH2 0x1967 JUMPI PUSH2 0x1966 PUSH2 0x156E JUMP JUMPDEST JUMPDEST PUSH0 PUSH2 0x1974 DUP5 DUP3 DUP6 ADD PUSH2 0x158C JUMP JUMPDEST SWAP2 POP POP SWAP3 SWAP2 POP POP JUMP JUMPDEST PUSH2 0x1986 DUP2 PUSH2 0x163E JUMP JUMPDEST DUP3 MSTORE POP POP JUMP JUMPDEST PUSH0 PUSH1 0x20 DUP3 ADD SWAP1 POP PUSH2 0x199F PUSH0 DUP4 ADD DUP5 PUSH2 0x197D JUMP JUMPDEST SWAP3 SWAP2 POP POP JUMP JUMPDEST PUSH0 PUSH8 0xFFFFFFFFFFFFFFFF DUP3 GT ISZERO PUSH2 0x19BF JUMPI PUSH2 0x19BE PUSH2 0x175B JUMP JUMPDEST JUMPDEST PUSH1 0x20 DUP3 MUL SWAP1 POP PUSH1 0x20 DUP2 ADD SWAP1 POP SWAP2 SWAP1 POP JUMP JUMPDEST PUSH0 PUSH0 REVERT JUMPDEST PUSH0 PUSH2 0x19E6 PUSH2 0x19E1 DUP5 PUSH2 0x19A5 JUMP JUMPDEST PUSH2 0x17B9 JUMP JUMPDEST SWAP1 POP DUP1 DUP4 DUP3 MSTORE PUSH1 0x20 DUP3 ADD SWAP1 POP PUSH1 0x20 DUP5 MUL DUP4 ADD DUP6 DUP2 GT ISZERO PUSH2 0x1A09 JUMPI PUSH2 0x1A08 PUSH2 0x19D0 JUMP JUMPDEST JUMPDEST DUP4 JUMPDEST DUP2 DUP2 LT ISZERO PUSH2 0x1A32 JUMPI DUP1 PUSH2 0x1A1E DUP9 DUP3 PUSH2 0x188E JUMP JUMPDEST DUP5 MSTORE PUSH1 0x20 DUP5 ADD SWAP4 POP POP PUSH1 0x20 DUP2 ADD SWAP1 POP PUSH2 0x1A0B JUMP JUMPDEST POP POP POP SWAP4 SWAP3 POP POP POP JUMP JUMPDEST PUSH0 DUP3 PUSH1 0x1F DUP4 ADD SLT PUSH2 0x1A50 JUMPI PUSH2 0x1A4F PUSH2 0x1743 JUMP JUMPDEST JUMPDEST DUP2 CALLDATALOAD PUSH2 0x1A60 DUP5 DUP3 PUSH1 0x20 DUP7 ADD PUSH2 0x19D4 JUMP JUMPDEST SWAP2 POP POP SWAP3 SWAP2 POP POP JUMP JUMPDEST PUSH0 PUSH1 0x20 DUP3 DUP5 SUB SLT ISZERO PUSH2 0x1A7E JUMPI PUSH2 0x1A7D PUSH2 0x156E JUMP JUMPDEST JUMPDEST PUSH0 DUP3 ADD CALLDATALOAD PUSH8 0xFFFFFFFFFFFFFFFF DUP2 GT ISZERO PUSH2 0x1A9B JUMPI PUSH2 0x1A9A PUSH2 0x1572 JUMP JUMPDEST JUMPDEST PUSH2 0x1AA7 DUP5 DUP3 DUP6 ADD PUSH2 0x1A3C JUMP JUMPDEST SWAP2 POP POP SWAP3 SWAP2 POP POP JUMP JUMPDEST PUSH32 0x4E487B7100000000000000000000000000000000000000000000000000000000 PUSH0 MSTORE PUSH1 0x32 PUSH1 0x4 MSTORE PUSH1 0x24 PUSH0 REVERT JUMPDEST PUSH32 0x4E487B7100000000000000000000000000000000000000000000000000000000 PUSH0 MSTORE PUSH1 0x11 PUSH1 0x4 MSTORE PUSH1 0x24 PUSH0 REVERT JUMPDEST PUSH0 PUSH2 0x1B14 DUP3 PUSH2 0x1534 JUMP JUMPDEST SWAP2 POP PUSH32 0xFFFFFFFFFFFFFFFFFFFFFFFFFFFFFFFFFFFFFFFFFFFFFFFFFFFFFFFFFFFFFFFF DUP3 SUB PUSH2 0x1B46 JUMPI PUSH2 0x1B45 PUSH2 0x1ADD JUMP JUMPDEST JUMPDEST PUSH1 0x1 DUP3 ADD SWAP1 POP SWAP2 SWAP1 POP JUMP JUMPDEST PUSH0 PUSH2 0x1B5B DUP3 PUSH2 0x1534 JUMP JUMPDEST SWAP2 POP PUSH2 0x1B66 DUP4 PUSH2 0x1534 JUMP JUMPDEST SWAP3 POP DUP3 DUP3 MUL PUSH2 0x1B74 DUP2 PUSH2 0x1534 JUMP JUMPDEST SWAP2 POP DUP3 DUP3 DIV DUP5 EQ DUP4 ISZERO OR PUSH2 0x1B8B JUMPI PUSH2 0x1B8A PUSH2 0x1ADD JUMP JUMPDEST JUMPDEST POP SWAP3 SWAP2 POP POP JUMP JUMPDEST PUSH32 0x4E487B7100000000000000000000000000000000000000000000000000000000 PUSH0 MSTORE PUSH1 0x12 PUSH1 0x4 MSTORE PUSH1 0x24 PUSH0 REVERT JUMPDEST PUSH0 PUSH2 0x1BC9 DUP3 PUSH2 0x1534 JUMP JUMPDEST SWAP2 POP PUSH2 0x1BD4 DUP4 PUSH2 0x1534 JUMP JUMPDEST SWAP3 POP DUP3 PUSH2 0x1BE4 JUMPI PUSH2 0x1BE3 PUSH2 0x1B92 JUMP JUMPDEST JUMPDEST DUP3 DUP3 DIV SWAP1 POP SWAP3 SWAP2 POP POP JUMP JUMPDEST PUSH0 PUSH2 0x1BF9 DUP3 PUSH2 0x1534 JUMP JUMPDEST SWAP2 POP PUSH2 0x1C04 DUP4 PUSH2 0x1534 JUMP JUMPDEST SWAP3 POP DUP3 DUP3 ADD SWAP1 POP DUP1 DUP3 GT ISZERO PUSH2 0x1C1C JUMPI PUSH2 0x1C1B PUSH2 0x1ADD JUMP JUMPDEST JUMPDEST SWAP3 SWAP2 POP POP JUMP JUMPDEST PUSH0 DUP2 PUSH1 0x1 SHR SWAP1 POP SWAP2 SWAP1 POP JUMP JUMPDEST PUSH0 PUSH0 DUP3 SWAP2 POP DUP4 SWAP1 POP JUMPDEST PUSH1 0x1 DUP6 GT ISZERO PUSH2 0x1C77 JUMPI DUP1 DUP7 DIV DUP2 GT ISZERO PUSH2 0x1C53 JUMPI PUSH2 0x1C52 PUSH2 0x1ADD JUMP JUMPDEST JUMPDEST PUSH1 0x1 DUP6 AND ISZERO PUSH2 0x1C62 JUMPI DUP1 DUP3 MUL SWAP2 POP JUMPDEST DUP1 DUP2 MUL SWAP1 POP PUSH2 0x1C70 DUP6 PUSH2 0x1C22 JUMP JUMPDEST SWAP5 POP PUSH2 0x1C37 JUMP JUMPDEST SWAP5 POP SWAP5 SWAP3 POP POP POP JUMP JUMPDEST PUSH0 DUP3 PUSH2 0x1C8F JUMPI PUSH1 0x1 SWAP1 POP PUSH2 0x1D4A JUMP JUMPDEST DUP2 PUSH2 0x1C9C JUMPI PUSH0 SWAP1 POP PUSH2 0x1D4A JUMP JUMPDEST DUP2 PUSH1 0x1 DUP2 EQ PUSH2 0x1CB2 JUMPI PUSH1 0x2 DUP2 EQ PUSH2 0x1CBC JUMPI PUSH2 0x1CEB JUMP JUMPDEST PUSH1 0x1 SWAP2 POP POP PUSH2 0x1D4A JUMP JUMPDEST PUSH1 0xFF DUP5 GT ISZERO PUSH2 0x1CCE JUMPI PUSH2 0x1CCD PUSH2 0x1ADD JUMP JUMPDEST JUMPDEST DUP4 PUSH1 0x2 EXP SWAP2 POP DUP5 DUP3 GT ISZERO PUSH2 0x1CE5 JUMPI PUSH2 0x1CE4 PUSH2 0x1ADD JUMP JUMPDEST JUMPDEST POP PUSH2 0x1D4A JUMP JUMPDEST POP PUSH1 0x20 DUP4 LT PUSH2 0x133 DUP4 LT AND PUSH1 0x4E DUP5 LT PUSH1 0xB DUP5 LT AND OR ISZERO PUSH2 0x1D20 JUMPI DUP3 DUP3 EXP SWAP1 POP DUP4 DUP2 GT ISZERO PUSH2 0x1D1B JUMPI PUSH2 0x1D1A PUSH2 0x1ADD JUMP JUMPDEST JUMPDEST PUSH2 0x1D4A JUMP JUMPDEST PUSH2 0x1D2D DUP5 DUP5 DUP5 PUSH1 0x1 PUSH2 0x1C2E JUMP JUMPDEST SWAP3 POP SWAP1 POP DUP2 DUP5 DIV DUP2 GT ISZERO PUSH2 0x1D44 JUMPI PUSH2 0x1D43 PUSH2 0x1ADD JUMP JUMPDEST JUMPDEST DUP2 DUP2 MUL SWAP1 POP JUMPDEST SWAP4 SWAP3 POP POP POP JUMP JUMPDEST PUSH0 PUSH1 0xFF DUP3 AND SWAP1 POP SWAP2 SWAP1 POP JUMP JUMPDEST PUSH0 PUSH2 0x1D67 DUP3 PUSH2 0x1534 JUMP JUMPDEST SWAP2 POP PUSH2 0x1D72 DUP4 PUSH2 0x1D51 JUMP JUMPDEST SWAP3 POP PUSH2 0x1D9F PUSH32 0xFFFFFFFFFFFFFFFFFFFFFFFFFFFFFFFFFFFFFFFFFFFFFFFFFFFFFFFFFFFFFFFF DUP5 DUP5 PUSH2 0x1C80 JUMP JUMPDEST SWAP1 POP SWAP3 SWAP2 POP POP JUMP JUMPDEST PUSH0 PUSH2 0x1DB1 DUP3 PUSH2 0x1534 JUMP JUMPDEST SWAP2 POP PUSH2 0x1DBC DUP4 PUSH2 0x1534 JUMP JUMPDEST SWAP3 POP DUP3 DUP3 SUB SWAP1 POP DUP2 DUP2 GT ISZERO PUSH2 0x1DD4 JUMPI PUSH2 0x1DD3 PUSH2 0x1ADD JUMP JUMPDEST JUMPDEST SWAP3 SWAP2 POP POP JUMP JUMPDEST PUSH2 0x1DE3 DUP2 PUSH2 0x15DE JUMP JUMPDEST DUP2 EQ PUSH2 0x1DED JUMPI PUSH0 PUSH0 REVERT JUMPDEST POP JUMP JUMPDEST PUSH0 DUP2 MLOAD SWAP1 POP PUSH2 0x1DFE DUP2 PUSH2 0x1DDA JUMP JUMPDEST SWAP3 SWAP2 POP POP JUMP JUMPDEST PUSH0 PUSH1 0x20 DUP3 DUP5 SUB SLT ISZERO PUSH2 0x1E19 JUMPI PUSH2 0x1E18 PUSH2 0x156E JUMP JUMPDEST JUMPDEST PUSH0 PUSH2 0x1E26 DUP5 DUP3 DUP6 ADD PUSH2 0x1DF0 JUMP JUMPDEST SWAP2 POP POP SWAP3 SWAP2 POP POP JUMP JUMPDEST PUSH0 DUP3 DUP3 MSTORE PUSH1 0x20 DUP3 ADD SWAP1 POP SWAP3 SWAP2 POP POP JUMP JUMPDEST PUSH32 0x746F6F206C657373206665650000000000000000000000000000000000000000 PUSH0 DUP3 ADD MSTORE POP JUMP JUMPDEST PUSH0 PUSH2 0x1E73 PUSH1 0xC DUP4 PUSH2 0x1E2F JUMP JUMPDEST SWAP2 POP PUSH2 0x1E7E DUP3 PUSH2 0x1E3F JUMP JUMPDEST PUSH1 0x20 DUP3 ADD SWAP1 POP SWAP2 SWAP1 POP JUMP JUMPDEST PUSH0 PUSH1 0x20 DUP3 ADD SWAP1 POP DUP2 DUP2 SUB PUSH0 DUP4 ADD MSTORE PUSH2 0x1EA0 DUP2 PUSH2 0x1E67 JUMP JUMPDEST SWAP1 POP SWAP2 SWAP1 POP JUMP JUMPDEST PUSH0 DUP2 MLOAD SWAP1 POP SWAP2 SWAP1 POP JUMP JUMPDEST PUSH32 0x4E487B7100000000000000000000000000000000000000000000000000000000 PUSH0 MSTORE PUSH1 0x22 PUSH1 0x4 MSTORE PUSH1 0x24 PUSH0 REVERT JUMPDEST PUSH0 PUSH1 0x2 DUP3 DIV SWAP1 POP PUSH1 0x1 DUP3 AND DUP1 PUSH2 0x1EF5 JUMPI PUSH1 0x7F DUP3 AND SWAP2 POP JUMPDEST PUSH1 0x20 DUP3 LT DUP2 SUB PUSH2 0x1F08 JUMPI PUSH2 0x1F07 PUSH2 0x1EB1 JUMP JUMPDEST JUMPDEST POP SWAP2 SWAP1 POP JUMP JUMPDEST PUSH0 DUP2 SWAP1 POP DUP2 PUSH0 MSTORE PUSH1 0x20 PUSH0 KECCAK256 SWAP1 POP SWAP2 SWAP1 POP JUMP JUMPDEST PUSH0 PUSH1 0x20 PUSH1 0x1F DUP4 ADD DIV SWAP1 POP SWAP2 SWAP1 POP JUMP JUMPDEST PUSH0 DUP3 DUP3 SHL SWAP1 POP SWAP3 SWAP2 POP POP JUMP JUMPDEST PUSH0 PUSH1 0x8 DUP4 MUL PUSH2 0x1F6A PUSH32 0xFFFFFFFFFFFFFFFFFFFFFFFFFFFFFFFFFFFFFFFFFFFFFFFFFFFFFFFFFFFFFFFF DUP3 PUSH2 0x1F2F JUMP JUMPDEST PUSH2 0x1F74 DUP7 DUP4 PUSH2 0x1F2F JUMP JUMPDEST SWAP6 POP DUP1 NOT DUP5 AND SWAP4 POP DUP1 DUP7 AND DUP5 OR SWAP3 POP POP POP SWAP4 SWAP3 POP POP POP JUMP JUMPDEST PUSH0 DUP2 SWAP1 POP SWAP2 SWAP1 POP JUMP JUMPDEST PUSH0 PUSH2 0x1FAF PUSH2 0x1FAA PUSH2 0x1FA5 DUP5 PUSH2 0x1534 JUMP JUMPDEST PUSH2 0x1F8C JUMP JUMPDEST PUSH2 0x1534 JUMP JUMPDEST SWAP1 POP SWAP2 SWAP1 POP JUMP JUMPDEST PUSH0 DUP2 SWAP1 POP SWAP2 SWAP1 POP JUMP JUMPDEST PUSH2 0x1FC8 DUP4 PUSH2 0x1F95 JUMP JUMPDEST PUSH2 0x1FDC PUSH2 0x1FD4 DUP3 PUSH2 0x1FB6 JUMP JUMPDEST DUP5 DUP5 SLOAD PUSH2 0x1F3B JUMP JUMPDEST DUP3 SSTORE POP POP POP POP JUMP JUMPDEST PUSH0 PUSH0 SWAP1 POP SWAP1 JUMP JUMPDEST PUSH2 0x1FF3 PUSH2 0x1FE4 JUMP JUMPDEST PUSH2 0x1FFE DUP2 DUP5 DUP5 PUSH2 0x1FBF JUMP JUMPDEST POP POP POP JUMP JUMPDEST JUMPDEST DUP2 DUP2 LT ISZERO PUSH2 0x2021 JUMPI PUSH2 0x2016 PUSH0 DUP3 PUSH2 0x1FEB JUMP JUMPDEST PUSH1 0x1 DUP2 ADD SWAP1 POP PUSH2 0x2004 JUMP JUMPDEST POP POP JUMP JUMPDEST PUSH1 0x1F DUP3 GT ISZERO PUSH2 0x2066 JUMPI PUSH2 0x2037 DUP2 PUSH2 0x1F0E JUMP JUMPDEST PUSH2 0x2040 DUP5 PUSH2 0x1F20 JUMP JUMPDEST DUP2 ADD PUSH1 0x20 DUP6 LT ISZERO PUSH2 0x204F JUMPI DUP2 SWAP1 POP JUMPDEST PUSH2 0x2063 PUSH2 0x205B DUP6 PUSH2 0x1F20 JUMP JUMPDEST DUP4 ADD DUP3 PUSH2 0x2003 JUMP JUMPDEST POP POP JUMPDEST POP POP POP JUMP JUMPDEST PUSH0 DUP3 DUP3 SHR SWAP1 POP SWAP3 SWAP2 POP POP JUMP JUMPDEST PUSH0 PUSH2 0x2086 PUSH0 NOT DUP5 PUSH1 0x8 MUL PUSH2 0x206B JUMP JUMPDEST NOT DUP1 DUP4 AND SWAP2 POP POP SWAP3 SWAP2 POP POP JUMP JUMPDEST PUSH0 PUSH2 0x209E DUP4 DUP4 PUSH2 0x2077 JUMP JUMPDEST SWAP2 POP DUP3 PUSH1 0x2 MUL DUP3 OR SWAP1 POP SWAP3 SWAP2 POP POP JUMP JUMPDEST PUSH2 0x20B7 DUP3 PUSH2 0x1EA7 JUMP JUMPDEST PUSH8 0xFFFFFFFFFFFFFFFF DUP2 GT ISZERO PUSH2 0x20D0 JUMPI PUSH2 0x20CF PUSH2 0x175B JUMP JUMPDEST JUMPDEST PUSH2 0x20DA DUP3 SLOAD PUSH2 0x1EDE JUMP JUMPDEST PUSH2 0x20E5 DUP3 DUP3 DUP6 PUSH2 0x2025 JUMP JUMPDEST PUSH0 PUSH1 0x20 SWAP1 POP PUSH1 0x1F DUP4 GT PUSH1 0x1 DUP2 EQ PUSH2 0x2116 JUMPI PUSH0 DUP5 ISZERO PUSH2 0x2104 JUMPI DUP3 DUP8 ADD MLOAD SWAP1 POP JUMPDEST PUSH2 0x210E DUP6 DUP3 PUSH2 0x2093 JUMP JUMPDEST DUP7 SSTORE POP PUSH2 0x2175 JUMP JUMPDEST PUSH1 0x1F NOT DUP5 AND PUSH2 0x2124 DUP7 PUSH2 0x1F0E JUMP JUMPDEST PUSH0 JUMPDEST DUP3 DUP2 LT ISZERO PUSH2 0x214B JUMPI DUP5 DUP10 ADD MLOAD DUP3 SSTORE PUSH1 0x1 DUP3 ADD SWAP2 POP PUSH1 0x20 DUP6 ADD SWAP5 POP PUSH1 0x20 DUP2 ADD SWAP1 POP PUSH2 0x2126 JUMP JUMPDEST DUP7 DUP4 LT ISZERO PUSH2 0x2168 JUMPI DUP5 DUP10 ADD MLOAD PUSH2 0x2164 PUSH1 0x1F DUP10 AND DUP3 PUSH2 0x2077 JUMP JUMPDEST DUP4 SSTORE POP JUMPDEST PUSH1 0x1 PUSH1 0x2 DUP9 MUL ADD DUP9 SSTORE POP POP POP JUMPDEST POP POP POP POP POP POP JUMP JUMPDEST PUSH0 DUP2 MLOAD SWAP1 POP SWAP2 SWAP1 POP JUMP JUMPDEST PUSH0 DUP3 DUP3 MSTORE PUSH1 0x20 DUP3 ADD SWAP1 POP SWAP3 SWAP2 POP POP JUMP JUMPDEST PUSH0 DUP2 SWAP1 POP PUSH1 0x20 DUP3 ADD SWAP1 POP SWAP2 SWAP1 POP JUMP JUMPDEST PUSH2 0x21AF DUP2 PUSH2 0x163E JUMP JUMPDEST DUP3 MSTORE POP POP JUMP JUMPDEST PUSH0 PUSH2 0x21C0 DUP4 DUP4 PUSH2 0x21A6 JUMP JUMPDEST PUSH1 0x20 DUP4 ADD SWAP1 POP SWAP3 SWAP2 POP POP JUMP JUMPDEST PUSH0 PUSH1 0x20 DUP3 ADD SWAP1 POP SWAP2 SWAP1 POP JUMP JUMPDEST PUSH0 PUSH2 0x21E2 DUP3 PUSH2 0x217D JUMP JUMPDEST PUSH2 0x21EC DUP2 DUP6 PUSH2 0x2187 JUMP JUMPDEST SWAP4 POP PUSH2 0x21F7 DUP4 PUSH2 0x2197 JUMP JUMPDEST DUP1 PUSH0 JUMPDEST DUP4 DUP2 LT ISZERO PUSH2 0x2227 JUMPI DUP2 MLOAD PUSH2 0x220E DUP9 DUP3 PUSH2 0x21B5 JUMP JUMPDEST SWAP8 POP PUSH2 0x2219 DUP4 PUSH2 0x21CC JUMP JUMPDEST SWAP3 POP POP PUSH1 0x1 DUP2 ADD SWAP1 POP PUSH2 0x21FA JUMP JUMPDEST POP DUP6 SWAP4 POP POP POP POP SWAP3 SWAP2 POP POP JUMP JUMPDEST DUP3 DUP2 DUP4 MCOPY PUSH0 DUP4 DUP4 ADD MSTORE POP POP POP JUMP JUMPDEST PUSH0 PUSH2 0x224C DUP3 PUSH2 0x1EA7 JUMP JUMPDEST PUSH2 0x2256 DUP2 DUP6 PUSH2 0x1E2F JUMP JUMPDEST SWAP4 POP PUSH2 0x2266 DUP2 DUP6 PUSH1 0x20 DUP7 ADD PUSH2 0x2234 JUMP JUMPDEST PUSH2 0x226F DUP2 PUSH2 0x174B JUMP JUMPDEST DUP5 ADD SWAP2 POP POP SWAP3 SWAP2 POP POP JUMP JUMPDEST PUSH0 PUSH1 0x80 DUP3 ADD SWAP1 POP DUP2 DUP2 SUB PUSH0 DUP4 ADD MSTORE PUSH2 0x2292 DUP2 DUP8 PUSH2 0x21D8 JUMP JUMPDEST SWAP1 POP PUSH2 0x22A1 PUSH1 0x20 DUP4 ADD DUP7 PUSH2 0x171B JUMP JUMPDEST DUP2 DUP2 SUB PUSH1 0x40 DUP4 ADD MSTORE PUSH2 0x22B3 DUP2 DUP6 PUSH2 0x2242 JUMP JUMPDEST SWAP1 POP PUSH2 0x22C2 PUSH1 0x60 DUP4 ADD DUP5 PUSH2 0x153D JUMP JUMPDEST SWAP6 SWAP5 POP POP POP POP POP JUMP JUMPDEST PUSH32 0x696E646578206F7574206F6620626F756E647300000000000000000000000000 PUSH0 DUP3 ADD MSTORE POP JUMP JUMPDEST PUSH0 PUSH2 0x22FF PUSH1 0x13 DUP4 PUSH2 0x1E2F JUMP JUMPDEST SWAP2 POP PUSH2 0x230A DUP3 PUSH2 0x22CB JUMP JUMPDEST PUSH1 0x20 DUP3 ADD SWAP1 POP SWAP2 SWAP1 POP JUMP JUMPDEST PUSH0 PUSH1 0x20 DUP3 ADD SWAP1 POP DUP2 DUP2 SUB PUSH0 DUP4 ADD MSTORE PUSH2 0x232C DUP2 PUSH2 0x22F3 JUMP JUMPDEST SWAP1 POP SWAP2 SWAP1 POP JUMP JUMPDEST PUSH32 0x4E487B7100000000000000000000000000000000000000000000000000000000 PUSH0 MSTORE PUSH1 0x31 PUSH1 0x4 MSTORE PUSH1 0x24 PUSH0 REVERT INVALID LOG2 PUSH5 0x6970667358 0x22 SLT KECCAK256 MSIZE SSTORE CREATE2 SWAP7 0xCD 0xB2 SSTORE 0xC2 0xDC AND SELFBALANCE 0xB2 MSIZE MSTORE 0xFC MSTORE 0xEB CALLDATASIZE 0xAF 0x27 0xB3 PUSH18 0xA642316E29D6BBEA7DCE64736F6C63430008 0x1E STOP CALLER "
				},
				"gasEstimates": {
					"creation": {
						"codeDepositCost": "1822000",
						"executionCost": "infinite",
						"totalCost": "infinite"
					},
					"external": {
						"DEDUCE_PRICE()": "326",
						"LIMIT_FEE_PRICE()": "413",
						"LIMIT_STAKE_NUM()": "414",
						"fufillReqEvent(uint256,uint256)": "infinite",
						"nodeStackBalance(address)": "2802",
						"oracleAddressList(uint256)": "4988",
						"oracleNodeJobType(address,uint256)": "6948",
						"registerOracleNode(uint8[])": "infinite",
						"requestForMsg(string,uint8,uint256)": "infinite",
						"totalRequestNum()": "2447"
					},
					"internal": {
						"calculateReqNode(enum CHAINLINK.jobType)": "infinite",
						"evaluateNodePerf(uint256,uint256,uint256)": "infinite",
						"isInReqList(uint256,address)": "infinite",
						"removeItem(uint256)": "infinite"
					}
				},
				"methodIdentifiers": {
					"DEDUCE_PRICE()": "22a51c29",
					"LIMIT_FEE_PRICE()": "e92626ae",
					"LIMIT_STAKE_NUM()": "3210243e",
					"fufillReqEvent(uint256,uint256)": "22d616d2",
					"nodeStackBalance(address)": "49d26921",
					"oracleAddressList(uint256)": "8457a66a",
					"oracleNodeJobType(address,uint256)": "2690eac4",
					"registerOracleNode(uint8[])": "d9514950",
					"requestForMsg(string,uint8,uint256)": "3063c634",
					"totalRequestNum()": "803863fb"
				}
			},
			"storageLayout": {
				"storage": [
					{
						"astId": 64,
						"contract": "main_with_job.sol:CHAINLINK",
						"label": "oracleNodeJobType",
						"offset": 0,
						"slot": "0",
						"type": "t_mapping(t_address,t_array(t_enum(jobType)13)dyn_storage)"
					},
					{
						"astId": 67,
						"contract": "main_with_job.sol:CHAINLINK",
						"label": "oracleAddressList",
						"offset": 0,
						"slot": "1",
						"type": "t_array(t_address)dyn_storage"
					},
					{
						"astId": 69,
						"contract": "main_with_job.sol:CHAINLINK",
						"label": "totalRequestNum",
						"offset": 0,
						"slot": "2",
						"type": "t_uint256"
					},
					{
						"astId": 73,
						"contract": "main_with_job.sol:CHAINLINK",
						"label": "nodeStackBalance",
						"offset": 0,
						"slot": "3",
						"type": "t_mapping(t_address,t_uint256)"
					},
					{
						"astId": 78,
						"contract": "main_with_job.sol:CHAINLINK",
						"label": "requestList",
						"offset": 0,
						"slot": "4",
						"type": "t_mapping(t_uint256,t_struct(RequestBody)36_storage)"
					}
				],
				"types": {
					"t_address": {
						"encoding": "inplace",
						"label": "address",
						"numberOfBytes": "20"
					},
					"t_array(t_address)dyn_storage": {
						"base": "t_address",
						"encoding": "dynamic_array",
						"label": "address[]",
						"numberOfBytes": "32"
					},
					"t_array(t_enum(jobType)13)dyn_storage": {
						"base": "t_enum(jobType)13",
						"encoding": "dynamic_array",
						"label": "enum CHAINLINK.jobType[]",
						"numberOfBytes": "32"
					},
					"t_array(t_uint256)dyn_storage": {
						"base": "t_uint256",
						"encoding": "dynamic_array",
						"label": "uint256[]",
						"numberOfBytes": "32"
					},
					"t_enum(jobType)13": {
						"encoding": "inplace",
						"label": "enum CHAINLINK.jobType",
						"numberOfBytes": "1"
					},
					"t_mapping(t_address,t_array(t_enum(jobType)13)dyn_storage)": {
						"encoding": "mapping",
						"key": "t_address",
						"label": "mapping(address => enum CHAINLINK.jobType[])",
						"numberOfBytes": "32",
						"value": "t_array(t_enum(jobType)13)dyn_storage"
					},
					"t_mapping(t_address,t_uint256)": {
						"encoding": "mapping",
						"key": "t_address",
						"label": "mapping(address => uint256)",
						"numberOfBytes": "32",
						"value": "t_uint256"
					},
					"t_mapping(t_uint256,t_struct(RequestBody)36_storage)": {
						"encoding": "mapping",
						"key": "t_uint256",
						"label": "mapping(uint256 => struct CHAINLINK.RequestBody)",
						"numberOfBytes": "32",
						"value": "t_struct(RequestBody)36_storage"
					},
					"t_string_storage": {
						"encoding": "bytes",
						"label": "string",
						"numberOfBytes": "32"
					},
					"t_struct(RequestBody)36_storage": {
						"encoding": "inplace",
						"label": "struct CHAINLINK.RequestBody",
						"members": [
							{
								"astId": 15,
								"contract": "main_with_job.sol:CHAINLINK",
								"label": "id",
								"offset": 0,
								"slot": "0",
								"type": "t_uint256"
							},
							{
								"astId": 17,
								"contract": "main_with_job.sol:CHAINLINK",
								"label": "requester",
								"offset": 0,
								"slot": "1",
								"type": "t_address"
							},
							{
								"astId": 20,
								"contract": "main_with_job.sol:CHAINLINK",
								"label": "job_type",
								"offset": 20,
								"slot": "1",
								"type": "t_enum(jobType)13"
							},
							{
								"astId": 22,
								"contract": "main_with_job.sol:CHAINLINK",
								"label": "url",
								"offset": 0,
								"slot": "2",
								"type": "t_string_storage"
							},
							{
								"astId": 25,
								"contract": "main_with_job.sol:CHAINLINK",
								"label": "oracles_list",
								"offset": 0,
								"slot": "3",
								"type": "t_array(t_address)dyn_storage"
							},
							{
								"astId": 27,
								"contract": "main_with_job.sol:CHAINLINK",
								"label": "Fee",
								"offset": 0,
								"slot": "4",
								"type": "t_uint256"
							},
							{
								"astId": 30,
								"contract": "main_with_job.sol:CHAINLINK",
								"label": "searchRes",
								"offset": 0,
								"slot": "5",
								"type": "t_array(t_uint256)dyn_storage"
							},
							{
								"astId": 33,
								"contract": "main_with_job.sol:CHAINLINK",
								"label": "resOracleNodes",
								"offset": 0,
								"slot": "6",
								"type": "t_array(t_address)dyn_storage"
							},
							{
								"astId": 35,
								"contract": "main_with_job.sol:CHAINLINK",
								"label": "givenNum",
								"offset": 0,
								"slot": "7",
								"type": "t_uint256"
							}
						],
						"numberOfBytes": "256"
					},
					"t_uint256": {
						"encoding": "inplace",
						"label": "uint256",
						"numberOfBytes": "32"
					}
				}
			},
			"userdoc": {
				"kind": "user",
				"methods": {},
				"version": 1
			}
		}
	}
}